{
  "address": "0x19AAB7dD96E9EedF9E232fE56d1736f53205834a",
  "abi": [
    {
      "inputs": [],
      "name": "ActiveSlashing",
      "type": "error"
    },
    {
      "inputs": [
        {
          "internalType": "int256",
          "name": "errorCode",
          "type": "int256"
        }
      ],
      "name": "ActorError",
      "type": "error"
    },
    {
      "inputs": [],
      "name": "ActorNotFound",
      "type": "error"
    },
    {
      "inputs": [],
      "name": "AllowanceUnderflow",
      "type": "error"
    },
    {
      "inputs": [],
      "name": "ERC4626Overflow",
      "type": "error"
    },
    {
      "inputs": [],
      "name": "ERC4626Underflow",
      "type": "error"
    },
    {
      "inputs": [],
      "name": "ERC4626ZeroShares",
      "type": "error"
    },
    {
      "inputs": [],
      "name": "FailToCallActor",
      "type": "error"
    },
    {
      "inputs": [],
      "name": "InactiveActor",
      "type": "error"
    },
    {
      "inputs": [],
      "name": "InsufficientAllowance",
      "type": "error"
    },
    {
      "inputs": [],
      "name": "InsufficientFunds",
      "type": "error"
    },
    {
      "inputs": [],
      "name": "InvalidAccess",
      "type": "error"
    },
    {
      "inputs": [],
      "name": "InvalidBalance",
      "type": "error"
    },
    {
      "inputs": [
        {
          "internalType": "uint64",
          "name": "",
          "type": "uint64"
        }
      ],
      "name": "InvalidCodec",
      "type": "error"
    },
    {
      "inputs": [],
      "name": "InvalidOwner",
      "type": "error"
    },
    {
      "inputs": [],
      "name": "InvalidParams",
      "type": "error"
    },
    {
      "inputs": [],
      "name": "InvalidResponseLength",
      "type": "error"
    },
    {
      "inputs": [
        {
          "internalType": "uint256",
          "name": "balance",
          "type": "uint256"
        },
        {
          "internalType": "uint256",
          "name": "value",
          "type": "uint256"
        }
      ],
      "name": "NotEnoughBalance",
      "type": "error"
    },
    {
      "inputs": [],
      "name": "ZeroAddress",
      "type": "error"
    },
    {
      "anonymous": false,
      "inputs": [
        {
          "indexed": false,
          "internalType": "address",
          "name": "previousAdmin",
          "type": "address"
        },
        {
          "indexed": false,
          "internalType": "address",
          "name": "newAdmin",
          "type": "address"
        }
      ],
      "name": "AdminChanged",
      "type": "event"
    },
    {
      "anonymous": false,
      "inputs": [
        {
          "indexed": true,
          "internalType": "address",
          "name": "owner",
          "type": "address"
        },
        {
          "indexed": true,
          "internalType": "address",
          "name": "spender",
          "type": "address"
        },
        {
          "indexed": false,
          "internalType": "uint256",
          "name": "value",
          "type": "uint256"
        }
      ],
      "name": "Approval",
      "type": "event"
    },
    {
      "anonymous": false,
      "inputs": [
        {
          "indexed": true,
          "internalType": "address",
          "name": "beacon",
          "type": "address"
        }
      ],
      "name": "BeaconUpgraded",
      "type": "event"
    },
    {
      "anonymous": false,
      "inputs": [
        {
          "indexed": true,
          "internalType": "address",
          "name": "sender",
          "type": "address"
        },
        {
          "indexed": true,
          "internalType": "address",
          "name": "owner",
          "type": "address"
        },
        {
          "indexed": false,
          "internalType": "uint256",
          "name": "assets",
          "type": "uint256"
        },
        {
          "indexed": false,
          "internalType": "uint256",
          "name": "shares",
          "type": "uint256"
        }
      ],
      "name": "Deposit",
      "type": "event"
    },
    {
      "anonymous": false,
      "inputs": [
        {
          "indexed": false,
          "internalType": "uint8",
          "name": "version",
          "type": "uint8"
        }
      ],
      "name": "Initialized",
      "type": "event"
    },
    {
      "anonymous": false,
      "inputs": [
        {
          "indexed": false,
          "internalType": "uint64",
          "name": "ownerId",
          "type": "uint64"
        },
        {
          "indexed": false,
          "internalType": "uint64",
          "name": "minerId",
          "type": "uint64"
        },
        {
          "indexed": false,
          "internalType": "uint256",
          "name": "amount",
          "type": "uint256"
        }
      ],
      "name": "Pledge",
      "type": "event"
    },
    {
      "anonymous": false,
      "inputs": [
        {
          "indexed": false,
          "internalType": "uint256",
          "name": "amount",
          "type": "uint256"
        }
      ],
      "name": "PledgeRepayment",
      "type": "event"
    },
    {
      "anonymous": false,
      "inputs": [
        {
          "indexed": true,
          "internalType": "bytes32",
          "name": "role",
          "type": "bytes32"
        },
        {
          "indexed": true,
          "internalType": "bytes32",
          "name": "previousAdminRole",
          "type": "bytes32"
        },
        {
          "indexed": true,
          "internalType": "bytes32",
          "name": "newAdminRole",
          "type": "bytes32"
        }
      ],
      "name": "RoleAdminChanged",
      "type": "event"
    },
    {
      "anonymous": false,
      "inputs": [
        {
          "indexed": true,
          "internalType": "bytes32",
          "name": "role",
          "type": "bytes32"
        },
        {
          "indexed": true,
          "internalType": "address",
          "name": "account",
          "type": "address"
        },
        {
          "indexed": true,
          "internalType": "address",
          "name": "sender",
          "type": "address"
        }
      ],
      "name": "RoleGranted",
      "type": "event"
    },
    {
      "anonymous": false,
      "inputs": [
        {
          "indexed": true,
          "internalType": "bytes32",
          "name": "role",
          "type": "bytes32"
        },
        {
          "indexed": true,
          "internalType": "address",
          "name": "account",
          "type": "address"
        },
        {
          "indexed": true,
          "internalType": "address",
          "name": "sender",
          "type": "address"
        }
      ],
      "name": "RoleRevoked",
      "type": "event"
    },
    {
      "anonymous": false,
      "inputs": [
        {
          "indexed": true,
          "internalType": "address",
          "name": "user",
          "type": "address"
        },
        {
          "indexed": true,
          "internalType": "address",
          "name": "owner",
          "type": "address"
        },
        {
          "indexed": false,
          "internalType": "uint256",
          "name": "assets",
          "type": "uint256"
        },
        {
          "indexed": false,
          "internalType": "uint256",
          "name": "shares",
          "type": "uint256"
        }
      ],
      "name": "Stake",
      "type": "event"
    },
    {
      "anonymous": false,
      "inputs": [
        {
          "indexed": true,
          "internalType": "address",
          "name": "from",
          "type": "address"
        },
        {
          "indexed": true,
          "internalType": "address",
          "name": "to",
          "type": "address"
        },
        {
          "indexed": false,
          "internalType": "uint256",
          "name": "value",
          "type": "uint256"
        }
      ],
      "name": "Transfer",
      "type": "event"
    },
    {
      "anonymous": false,
      "inputs": [
        {
          "indexed": true,
          "internalType": "address",
          "name": "user",
          "type": "address"
        },
        {
          "indexed": true,
          "internalType": "address",
          "name": "owner",
          "type": "address"
        },
        {
          "indexed": false,
          "internalType": "uint256",
          "name": "assets",
          "type": "uint256"
        },
        {
          "indexed": false,
          "internalType": "uint256",
          "name": "shares",
          "type": "uint256"
        }
      ],
      "name": "Unstaked",
      "type": "event"
    },
    {
      "anonymous": false,
      "inputs": [
        {
          "indexed": true,
          "internalType": "address",
          "name": "implementation",
          "type": "address"
        }
      ],
      "name": "Upgraded",
      "type": "event"
    },
    {
      "anonymous": false,
      "inputs": [
        {
          "indexed": true,
          "internalType": "address",
          "name": "sender",
          "type": "address"
        },
        {
          "indexed": true,
          "internalType": "address",
          "name": "receiver",
          "type": "address"
        },
        {
          "indexed": true,
          "internalType": "address",
          "name": "owner",
          "type": "address"
        },
        {
          "indexed": false,
          "internalType": "uint256",
          "name": "assets",
          "type": "uint256"
        },
        {
          "indexed": false,
          "internalType": "uint256",
          "name": "shares",
          "type": "uint256"
        }
      ],
      "name": "Withdraw",
      "type": "event"
    },
    {
      "stateMutability": "payable",
      "type": "fallback"
    },
    {
      "inputs": [],
      "name": "DEFAULT_ADMIN_ROLE",
      "outputs": [
        {
          "internalType": "bytes32",
          "name": "",
          "type": "bytes32"
        }
      ],
      "stateMutability": "view",
      "type": "function"
    },
    {
      "inputs": [],
      "name": "WFIL",
      "outputs": [
        {
          "internalType": "contract IWFIL",
          "name": "",
          "type": "address"
        }
      ],
      "stateMutability": "view",
      "type": "function"
    },
    {
      "inputs": [
        {
          "internalType": "address",
          "name": "owner",
          "type": "address"
        },
        {
          "internalType": "address",
          "name": "spender",
          "type": "address"
        }
      ],
      "name": "allowance",
      "outputs": [
        {
          "internalType": "uint256",
          "name": "",
          "type": "uint256"
        }
      ],
      "stateMutability": "view",
      "type": "function"
    },
    {
      "inputs": [
        {
          "internalType": "address",
          "name": "spender",
          "type": "address"
        },
        {
          "internalType": "uint256",
          "name": "amount",
          "type": "uint256"
        }
      ],
      "name": "approve",
      "outputs": [
        {
          "internalType": "bool",
          "name": "",
          "type": "bool"
        }
      ],
      "stateMutability": "nonpayable",
      "type": "function"
    },
    {
      "inputs": [],
      "name": "asset",
      "outputs": [
        {
          "internalType": "address",
          "name": "",
          "type": "address"
        }
      ],
      "stateMutability": "view",
      "type": "function"
    },
    {
      "inputs": [
        {
          "internalType": "address",
          "name": "account",
          "type": "address"
        }
      ],
      "name": "balanceOf",
      "outputs": [
        {
          "internalType": "uint256",
          "name": "",
          "type": "uint256"
        }
      ],
      "stateMutability": "view",
      "type": "function"
    },
    {
      "inputs": [
        {
          "internalType": "uint256",
          "name": "shares",
          "type": "uint256"
        }
      ],
      "name": "convertToAssets",
      "outputs": [
        {
          "internalType": "uint256",
          "name": "",
          "type": "uint256"
        }
      ],
      "stateMutability": "view",
      "type": "function"
    },
    {
      "inputs": [
        {
          "internalType": "uint256",
          "name": "assets",
          "type": "uint256"
        }
      ],
      "name": "convertToShares",
      "outputs": [
        {
          "internalType": "uint256",
          "name": "",
          "type": "uint256"
        }
      ],
      "stateMutability": "view",
      "type": "function"
    },
    {
      "inputs": [],
      "name": "decimals",
      "outputs": [
        {
          "internalType": "uint8",
          "name": "",
          "type": "uint8"
        }
      ],
      "stateMutability": "view",
      "type": "function"
    },
    {
      "inputs": [
        {
          "internalType": "address",
          "name": "spender",
          "type": "address"
        },
        {
          "internalType": "uint256",
          "name": "subtractedValue",
          "type": "uint256"
        }
      ],
      "name": "decreaseAllowance",
      "outputs": [
        {
          "internalType": "bool",
          "name": "",
          "type": "bool"
        }
      ],
      "stateMutability": "nonpayable",
      "type": "function"
    },
    {
      "inputs": [
        {
          "internalType": "uint256",
          "name": "assets",
          "type": "uint256"
        },
        {
          "internalType": "address",
          "name": "receiver",
          "type": "address"
        }
      ],
      "name": "deposit",
      "outputs": [
        {
          "internalType": "uint256",
          "name": "",
          "type": "uint256"
        }
      ],
      "stateMutability": "nonpayable",
      "type": "function"
    },
    {
      "inputs": [],
      "name": "getImplementation",
      "outputs": [
        {
          "internalType": "address",
          "name": "",
          "type": "address"
        }
      ],
      "stateMutability": "view",
      "type": "function"
    },
    {
      "inputs": [
        {
          "internalType": "bytes32",
          "name": "role",
          "type": "bytes32"
        }
      ],
      "name": "getRoleAdmin",
      "outputs": [
        {
          "internalType": "bytes32",
          "name": "",
          "type": "bytes32"
        }
      ],
      "stateMutability": "view",
      "type": "function"
    },
    {
      "inputs": [],
      "name": "getUsageRatio",
      "outputs": [
        {
          "internalType": "uint256",
          "name": "",
          "type": "uint256"
        }
      ],
      "stateMutability": "view",
      "type": "function"
    },
    {
      "inputs": [
        {
          "internalType": "bytes32",
          "name": "role",
          "type": "bytes32"
        },
        {
          "internalType": "address",
          "name": "account",
          "type": "address"
        }
      ],
      "name": "grantRole",
      "outputs": [],
      "stateMutability": "nonpayable",
      "type": "function"
    },
    {
      "inputs": [
        {
          "internalType": "bytes32",
          "name": "role",
          "type": "bytes32"
        },
        {
          "internalType": "address",
          "name": "account",
          "type": "address"
        }
      ],
      "name": "hasRole",
      "outputs": [
        {
          "internalType": "bool",
          "name": "",
          "type": "bool"
        }
      ],
      "stateMutability": "view",
      "type": "function"
    },
    {
      "inputs": [
        {
          "internalType": "address",
          "name": "spender",
          "type": "address"
        },
        {
          "internalType": "uint256",
          "name": "addedValue",
          "type": "uint256"
        }
      ],
      "name": "increaseAllowance",
      "outputs": [
        {
          "internalType": "bool",
          "name": "",
          "type": "bool"
        }
      ],
      "stateMutability": "nonpayable",
      "type": "function"
    },
    {
      "inputs": [
        {
          "internalType": "address",
          "name": "_wFIL",
          "type": "address"
        },
        {
          "internalType": "address",
          "name": "_resolver",
          "type": "address"
        },
        {
          "internalType": "uint256",
          "name": "_initialDeposit",
          "type": "uint256"
        }
      ],
      "name": "initialize",
      "outputs": [],
      "stateMutability": "nonpayable",
      "type": "function"
    },
    {
      "inputs": [
        {
          "internalType": "address",
          "name": "",
          "type": "address"
        }
      ],
      "name": "maxDeposit",
      "outputs": [
        {
          "internalType": "uint256",
          "name": "",
          "type": "uint256"
        }
      ],
      "stateMutability": "view",
      "type": "function"
    },
    {
      "inputs": [
        {
          "internalType": "address",
          "name": "",
          "type": "address"
        }
      ],
      "name": "maxMint",
      "outputs": [
        {
          "internalType": "uint256",
          "name": "",
          "type": "uint256"
        }
      ],
      "stateMutability": "view",
      "type": "function"
    },
    {
      "inputs": [
        {
          "internalType": "address",
          "name": "owner",
          "type": "address"
        }
      ],
      "name": "maxRedeem",
      "outputs": [
        {
          "internalType": "uint256",
          "name": "",
          "type": "uint256"
        }
      ],
      "stateMutability": "view",
      "type": "function"
    },
    {
      "inputs": [
        {
          "internalType": "address",
          "name": "owner",
          "type": "address"
        }
      ],
      "name": "maxWithdraw",
      "outputs": [
        {
          "internalType": "uint256",
          "name": "",
          "type": "uint256"
        }
      ],
      "stateMutability": "view",
      "type": "function"
    },
    {
      "inputs": [
        {
          "internalType": "uint256",
          "name": "shares",
          "type": "uint256"
        },
        {
          "internalType": "address",
          "name": "receiver",
          "type": "address"
        }
      ],
      "name": "mint",
      "outputs": [
        {
          "internalType": "uint256",
          "name": "",
          "type": "uint256"
        }
      ],
      "stateMutability": "nonpayable",
      "type": "function"
    },
    {
      "inputs": [],
      "name": "name",
      "outputs": [
        {
          "internalType": "string",
          "name": "",
          "type": "string"
        }
      ],
      "stateMutability": "view",
      "type": "function"
    },
    {
      "inputs": [
        {
          "internalType": "uint256",
          "name": "amount",
          "type": "uint256"
        },
        {
          "internalType": "uint64",
          "name": "_minerId",
          "type": "uint64"
        }
      ],
      "name": "pledge",
      "outputs": [],
      "stateMutability": "nonpayable",
      "type": "function"
    },
    {
      "inputs": [
        {
          "internalType": "uint256",
          "name": "assets",
          "type": "uint256"
        }
      ],
      "name": "previewDeposit",
      "outputs": [
        {
          "internalType": "uint256",
          "name": "",
          "type": "uint256"
        }
      ],
      "stateMutability": "view",
      "type": "function"
    },
    {
      "inputs": [
        {
          "internalType": "uint256",
          "name": "shares",
          "type": "uint256"
        }
      ],
      "name": "previewMint",
      "outputs": [
        {
          "internalType": "uint256",
          "name": "",
          "type": "uint256"
        }
      ],
      "stateMutability": "view",
      "type": "function"
    },
    {
      "inputs": [
        {
          "internalType": "uint256",
          "name": "shares",
          "type": "uint256"
        }
      ],
      "name": "previewRedeem",
      "outputs": [
        {
          "internalType": "uint256",
          "name": "",
          "type": "uint256"
        }
      ],
      "stateMutability": "view",
      "type": "function"
    },
    {
      "inputs": [
        {
          "internalType": "uint256",
          "name": "assets",
          "type": "uint256"
        }
      ],
      "name": "previewWithdraw",
      "outputs": [
        {
          "internalType": "uint256",
          "name": "",
          "type": "uint256"
        }
      ],
      "stateMutability": "view",
      "type": "function"
    },
    {
      "inputs": [],
      "name": "proxiableUUID",
      "outputs": [
        {
          "internalType": "bytes32",
          "name": "",
          "type": "bytes32"
        }
      ],
      "stateMutability": "view",
      "type": "function"
    },
    {
      "inputs": [
        {
          "internalType": "uint256",
          "name": "shares",
          "type": "uint256"
        },
        {
          "internalType": "address",
          "name": "receiver",
          "type": "address"
        },
        {
          "internalType": "address",
          "name": "owner",
          "type": "address"
        }
      ],
      "name": "redeem",
      "outputs": [
        {
          "internalType": "uint256",
          "name": "",
          "type": "uint256"
        }
      ],
      "stateMutability": "nonpayable",
      "type": "function"
    },
    {
      "inputs": [
        {
          "internalType": "bytes32",
          "name": "role",
          "type": "bytes32"
        },
        {
          "internalType": "address",
          "name": "account",
          "type": "address"
        }
      ],
      "name": "renounceRole",
      "outputs": [],
      "stateMutability": "nonpayable",
      "type": "function"
    },
    {
      "inputs": [
        {
          "internalType": "uint256",
          "name": "amount",
          "type": "uint256"
        }
      ],
      "name": "repayPledge",
      "outputs": [],
      "stateMutability": "nonpayable",
      "type": "function"
    },
    {
      "inputs": [
        {
          "internalType": "uint256",
          "name": "assets",
          "type": "uint256"
        },
        {
          "internalType": "address",
          "name": "receiver",
          "type": "address"
        }
      ],
      "name": "restake",
      "outputs": [
        {
          "internalType": "uint256",
          "name": "shares",
          "type": "uint256"
        }
      ],
      "stateMutability": "nonpayable",
      "type": "function"
    },
    {
      "inputs": [
        {
          "internalType": "bytes32",
          "name": "role",
          "type": "bytes32"
        },
        {
          "internalType": "address",
          "name": "account",
          "type": "address"
        }
      ],
      "name": "revokeRole",
      "outputs": [],
      "stateMutability": "nonpayable",
      "type": "function"
    },
    {
      "inputs": [],
      "name": "stake",
      "outputs": [
        {
          "internalType": "uint256",
          "name": "shares",
          "type": "uint256"
        }
      ],
      "stateMutability": "payable",
      "type": "function"
    },
    {
      "inputs": [
        {
          "internalType": "bytes4",
          "name": "interfaceId",
          "type": "bytes4"
        }
      ],
      "name": "supportsInterface",
      "outputs": [
        {
          "internalType": "bool",
          "name": "",
          "type": "bool"
        }
      ],
      "stateMutability": "view",
      "type": "function"
    },
    {
      "inputs": [],
      "name": "symbol",
      "outputs": [
        {
          "internalType": "string",
          "name": "",
          "type": "string"
        }
      ],
      "stateMutability": "view",
      "type": "function"
    },
    {
      "inputs": [],
      "name": "totalAssets",
      "outputs": [
        {
          "internalType": "uint256",
          "name": "",
          "type": "uint256"
        }
      ],
      "stateMutability": "view",
      "type": "function"
    },
    {
      "inputs": [
        {
          "internalType": "uint64",
          "name": "_ownerId",
          "type": "uint64"
        }
      ],
      "name": "totalFees",
      "outputs": [
        {
          "internalType": "uint256",
          "name": "",
          "type": "uint256"
        }
      ],
      "stateMutability": "view",
      "type": "function"
    },
    {
      "inputs": [],
      "name": "totalFilAvailable",
      "outputs": [
        {
          "internalType": "uint256",
          "name": "",
          "type": "uint256"
        }
      ],
      "stateMutability": "view",
      "type": "function"
    },
    {
      "inputs": [],
      "name": "totalFilPledged",
      "outputs": [
        {
          "internalType": "uint256",
          "name": "",
          "type": "uint256"
        }
      ],
      "stateMutability": "view",
      "type": "function"
    },
    {
      "inputs": [],
      "name": "totalSupply",
      "outputs": [
        {
          "internalType": "uint256",
          "name": "",
          "type": "uint256"
        }
      ],
      "stateMutability": "view",
      "type": "function"
    },
    {
      "inputs": [
        {
          "internalType": "address",
          "name": "to",
          "type": "address"
        },
        {
          "internalType": "uint256",
          "name": "amount",
          "type": "uint256"
        }
      ],
      "name": "transfer",
      "outputs": [
        {
          "internalType": "bool",
          "name": "",
          "type": "bool"
        }
      ],
      "stateMutability": "nonpayable",
      "type": "function"
    },
    {
      "inputs": [
        {
          "internalType": "address",
          "name": "from",
          "type": "address"
        },
        {
          "internalType": "address",
          "name": "to",
          "type": "address"
        },
        {
          "internalType": "uint256",
          "name": "amount",
          "type": "uint256"
        }
      ],
      "name": "transferFrom",
      "outputs": [
        {
          "internalType": "bool",
          "name": "",
          "type": "bool"
        }
      ],
      "stateMutability": "nonpayable",
      "type": "function"
    },
    {
      "inputs": [
        {
          "internalType": "uint256",
          "name": "shares",
          "type": "uint256"
        },
        {
          "internalType": "address",
          "name": "owner",
          "type": "address"
        }
      ],
      "name": "unstake",
      "outputs": [
        {
          "internalType": "uint256",
          "name": "assets",
          "type": "uint256"
        }
      ],
      "stateMutability": "nonpayable",
      "type": "function"
    },
    {
      "inputs": [
        {
          "internalType": "uint256",
          "name": "assets",
          "type": "uint256"
        },
        {
          "internalType": "address",
          "name": "owner",
          "type": "address"
        }
      ],
      "name": "unstakeAssets",
      "outputs": [
        {
          "internalType": "uint256",
          "name": "shares",
          "type": "uint256"
        }
      ],
      "stateMutability": "nonpayable",
      "type": "function"
    },
    {
      "inputs": [
        {
          "internalType": "address",
          "name": "newImplementation",
          "type": "address"
        }
      ],
      "name": "upgradeTo",
      "outputs": [],
      "stateMutability": "nonpayable",
      "type": "function"
    },
    {
      "inputs": [
        {
          "internalType": "address",
          "name": "newImplementation",
          "type": "address"
        },
        {
          "internalType": "bytes",
          "name": "data",
          "type": "bytes"
        }
      ],
      "name": "upgradeToAndCall",
      "outputs": [],
      "stateMutability": "payable",
      "type": "function"
    },
    {
      "inputs": [],
      "name": "version",
      "outputs": [
        {
          "internalType": "string",
          "name": "",
          "type": "string"
        }
      ],
      "stateMutability": "pure",
      "type": "function"
    },
    {
      "inputs": [
        {
          "internalType": "uint256",
          "name": "assets",
          "type": "uint256"
        },
        {
          "internalType": "address",
          "name": "receiver",
          "type": "address"
        },
        {
          "internalType": "address",
          "name": "owner",
          "type": "address"
        }
      ],
      "name": "withdraw",
      "outputs": [
        {
          "internalType": "uint256",
          "name": "",
          "type": "uint256"
        }
      ],
      "stateMutability": "nonpayable",
      "type": "function"
    },
    {
      "stateMutability": "payable",
      "type": "receive"
    }
  ],
  "numDeployments": 1,
  "solcInputHash": "715747b106f662a0794fb6bd31843d93",
  "bytecode": "0x60a06040523060805234801561001457600080fd5b5060805161477b61004c60003960008181610f9001528181610fd0015281816114360152818161147601526114ee015261477b6000f3fe6080604052600436106102455760003560e01c806301e1d1141461024e57806301ffc9a71461027957806306fdde03146102a657806307a2d13a146102c857806309448a86146102e8578063095ea7b3146103155780630a28a4771461033557806311a475a1146103555780631794bb3c1461037557806318160ddd1461039557806323b872dd146103aa578063248a9ca3146103ca5780632f2ff15d146103ea578063313ce5671461040a57806336568abe1461042c5780633659cfe61461044c57806338d52e0f1461046c57806339509351146104935780633a4b66f1146104b3578063402d267d146104bb578063413a885b146104db57806344775506146104fb5780634cdad506146102c85780634f1ef2861461051057806352d1902d1461052357806354fd4d5014610538578063655cbba7146105635780636e553f651461057857806370a08231146105985780638381e182146105b857806391d14854146105d857806394bf804d146105f857806395d89b4114610618578063a217fddf1461062d578063a457c2d714610642578063a83a2e6514610662578063a9059cbb14610682578063aaf10f42146106a2578063ad05dc33146106b7578063b3d7f6b9146106ce578063b460af94146106ee578063ba0876521461070e578063c63d75b61461072e578063c6e6f5921461074e578063ce96cb771461076e578063d2a0460c1461078e578063d547741f146107ae578063d905777e146107ce578063dd62ed3e146107ee578063ef8b30f71461074e578063f79126d61461080e57005b3661024c57005b005b34801561025a57600080fd5b5061026361082e565b604051610270919061354c565b60405180910390f35b34801561028557600080fd5b5061029961029436600461357c565b61084b565b60405161027091906135a5565b3480156102b257600080fd5b506102bb610882565b6040516102709190613615565b3480156102d457600080fd5b506102636102e3366004613637565b610914565b3480156102f457600080fd5b50609754610308906001600160a01b031681565b6040516102709190613699565b34801561032157600080fd5b506102996103303660046136c6565b610921565b34801561034157600080fd5b50610263610350366004613637565b610958565b34801561036157600080fd5b5061024c61037036600461371d565b610965565b34801561038157600080fd5b5061024c610390366004613750565b610d0c565b3480156103a157600080fd5b50603554610263565b3480156103b657600080fd5b506102996103c5366004613750565b610ea2565b3480156103d657600080fd5b506102636103e5366004613637565b610f04565b3480156103f657600080fd5b5061024c6104053660046137a0565b610f19565b34801561041657600080fd5b5061041f610f3a565b60405161027091906137dc565b34801561043857600080fd5b5061024c6104473660046137a0565b610f54565b34801561045857600080fd5b5061024c6104673660046137ea565b610f86565b34801561047857600080fd5b506065546001600160a01b03165b6040516102709190613814565b34801561049f57600080fd5b506102996104ae3660046136c6565b61104e565b61026361108f565b3480156104c757600080fd5b506102636104d63660046137ea565b6111b9565b3480156104e757600080fd5b506102636104f63660046137a0565b6112b9565b34801561050757600080fd5b506102636113f9565b61024c61051e36600461391d565b61142c565b34801561052f57600080fd5b506102636114e1565b34801561054457600080fd5b50604080518082019091526002815261763160f01b60208201526102bb565b34801561056f57600080fd5b5061026361153e565b34801561058457600080fd5b506102636105933660046137a0565b6115b0565b3480156105a457600080fd5b506102636105b33660046137ea565b611629565b3480156105c457600080fd5b506102636105d33660046137a0565b611661565b3480156105e457600080fd5b506102996105f33660046137a0565b61173e565b34801561060457600080fd5b506102636106133660046137a0565b611769565b34801561062457600080fd5b506102bb6117e2565b34801561063957600080fd5b50610263600081565b34801561064e57600080fd5b5061029961065d3660046136c6565b6117f1565b34801561066e57600080fd5b5061026361067d36600461396a565b611859565b34801561068e57600080fd5b5061029961069d3660046136c6565b611936565b3480156106ae57600080fd5b50610486611963565b3480156106c357600080fd5b506102636101925481565b3480156106da57600080fd5b506102636106e9366004613637565b61196d565b3480156106fa57600080fd5b5061026361070936600461398b565b61197a565b34801561071a57600080fd5b5061026361072936600461398b565b6119ef565b34801561073a57600080fd5b506102636107493660046137ea565b611a5c565b34801561075a57600080fd5b50610263610769366004613637565b611b55565b34801561077a57600080fd5b506102636107893660046137ea565b611b62565b34801561079a57600080fd5b5061024c6107a9366004613637565b611c50565b3480156107ba57600080fd5b5061024c6107c93660046137a0565b611d4c565b3480156107da57600080fd5b506102636107e93660046137ea565b611d68565b3480156107fa57600080fd5b506102636108093660046139d1565b611e4c565b34801561081a57600080fd5b506102636108293660046137a0565b611eb9565b60006101925461083c61153e565b6108469190613a09565b905090565b60006001600160e01b03198216637965db0b60e01b148061087c57506301ffc9a760e01b6001600160e01b03198316145b92915050565b60606036805461089190613a32565b80601f01602080910402602001604051908101604052809291908181526020018280546108bd90613a32565b801561090a5780601f106108df5761010080835404028352916020019161090a565b820191906000526020600020905b8154815290600101906020018083116108ed57829003601f168201915b5050505050905090565b600061087c826000611f8b565b60003361092d81611fc5565b9050610941846001600160a01b0316611fc5565b935061094e81858561200c565b5060019392505050565b600061087c8260016120c2565b61096d6120f2565b61097561153e565b82111561099557604051635435b28960e11b815260040160405180910390fd5b60006109a033611fc5565b90506000806109b7836001600160a01b031661211b565b91509150816109d85760405162f08f6760e71b815260040160405180910390fd5b61019360009054906101000a90046001600160a01b03166001600160a01b0316635ab1bd536040518163ffffffff1660e01b8152600401602060405180830381865afa158015610a2c573d6000803e3d6000fd5b505050506040513d601f19601f82011682018060405250810190610a509190613a69565b6001600160a01b031663dcd2350882866040518363ffffffff1660e01b8152600401610a7d929190613a99565b602060405180830381865afa158015610a9a573d6000803e3d6000fd5b505050506040513d601f19601f82011682018060405250810190610abe9190613ac7565b610adb576040516349e27cff60e01b815260040160405180910390fd5b6101935460408051635c1548fb60e01b815290516000926001600160a01b031691635c1548fb9160048083019260209291908290030181865afa158015610b26573d6000803e3d6000fd5b505050506040513d601f19601f82011682018060405250810190610b4a9190613a69565b6040516344324a7960e01b81529091506001600160a01b038216906344324a7990610b79908590600401613ae8565b602060405180830381865afa158015610b96573d6000803e3d6000fd5b505050506040513d601f19601f82011682018060405250810190610bba9190613ac7565b15610bd85760405163c037f7ff60e01b815260040160405180910390fd5b60405163120e02a560e11b81526001600160a01b0382169063241c054a90610c0890859089908b90600401613af6565b600060405180830381600087803b158015610c2257600080fd5b505af1158015610c36573d6000803e3d6000fd5b505050507f15453566d67df7c06fb80d23b2fad96f5f14cefd285a97fa5a2c96bfdfed5ad5828688604051610c6d93929190613af6565b60405180910390a1609754604051632e1a7d4d60e01b81526001600160a01b0390911690632e1a7d4d90610ca590899060040161354c565b600060405180830381600087803b158015610cbf57600080fd5b505af1158015610cd3573d6000803e3d6000fd5b50505050856101926000828254610cea9190613a09565b90915550610cfa9050858761218c565b50505050610d086001609855565b5050565b600054610100900460ff1615808015610d2c5750600054600160ff909116105b80610d4d5750610d3b306121d9565b158015610d4d575060005460ff166001145b610d725760405162461bcd60e51b8152600401610d6990613b6c565b60405180910390fd5b6000805460ff191660011790558015610d95576000805461ff0019166101001790555b610d9d6121e8565b610da5612211565b610dae84612240565b610db66121e8565b61019380546001600160a01b0319166001600160a01b038516179055610ddd6000336122e5565b610df560008051602061469f83398151915233610f19565b610e0e60008051602061469f83398151915260006122ef565b610e266000805160206146e683398151915233610f19565b610e3f6000805160206146e683398151915260006122ef565b8115610e5157610e4f82306115b0565b505b8015610e9c576000805461ff00191690556040517f7f26b83ff96e1f2b6a682f133852f6798a09c465da95921460cefb384740249890610e9390600190613b91565b60405180910390a15b50505050565b600033610eb76001600160a01b038616611fc5565b9450610ecb846001600160a01b0316611fc5565b9350610edf816001600160a01b0316611fc5565b9050610eec858285612342565b610ef7858585612387565b60019150505b9392505050565b600090815260fc602052604090206001015490565b610f2282610f04565b610f2b81612468565b610f358383612472565b505050565b6000806065546108469190600160a01b900460ff16613b9f565b6001600160a01b0381163314610f7c5760405162461bcd60e51b8152600401610d6990613c08565b610d0882826124f8565b6001600160a01b037f0000000000000000000000000000000000000000000000000000000000000000163003610fce5760405162461bcd60e51b8152600401610d6990613c4f565b7f00000000000000000000000000000000000000000000000000000000000000006001600160a01b031661100061255f565b6001600160a01b0316146110265760405162461bcd60e51b8152600401610d6990613c96565b61102f8161257b565b6040805160008082526020820190925261104b918391906125b0565b50565b60003361105a81611fc5565b905061106e846001600160a01b0316611fc5565b935061094e8185856110808589611e4c565b61108a9190613a09565b61200c565b60006110996120f2565b3460006110a533611fc5565b90506110b0816111b9565b8211156110d057604051630cd8567560e21b815260040160405180910390fd5b6110d982611b55565b9250826000036110fc57604051636646782360e01b815260040160405180910390fd5b609760009054906101000a90046001600160a01b03166001600160a01b031663d0e30db0836040518263ffffffff1660e01b81526004016000604051808303818588803b15801561114c57600080fd5b505af1158015611160573d6000803e3d6000fd5b505050505061116f8184612692565b6001600160a01b038116336001600160a01b031660008051602061472683398151915284866040516111a2929190613ca6565b60405180910390a350506111b66001609855565b90565b60008061019360009054906101000a90046001600160a01b03166001600160a01b0316634e1060fa6040518163ffffffff1660e01b8152600401602060405180830381865afa158015611210573d6000803e3d6000fd5b505050506040513d601f19601f820116820180604052508101906112349190613a69565b6001600160a01b03166376687d3d6040518163ffffffff1660e01b8152600401602060405180830381865afa158015611271573d6000803e3d6000fd5b505050506040513d601f19601f820116820180604052508101906112959190613ccc565b905080156112af576112a561153e565b610efd9082613ced565b5060001992915050565b610193546040805163e1dda2a960e01b815290516000926001600160a01b03169163e1dda2a99160048083019260209291908290030181865afa158015611304573d6000803e3d6000fd5b505050506040513d601f19601f820116820180604052508101906113289190613a69565b6001600160a01b0316336001600160a01b03161461135957604051633006171960e21b815260040160405180910390fd5b611362826111b9565b83111561138257604051630cd8567560e21b815260040160405180910390fd5b61138b83611b55565b9050806000036113ae57604051636646782360e01b815260040160405180910390fd5b6113b88282612692565b816001600160a01b0316826001600160a01b031660008051602061472683398151915285846040516113eb929190613ca6565b60405180910390a392915050565b60006101925461140761153e565b6114119190613a09565b612710610192546114229190613d00565b6108469190613d35565b6001600160a01b037f00000000000000000000000000000000000000000000000000000000000000001630036114745760405162461bcd60e51b8152600401610d6990613c4f565b7f00000000000000000000000000000000000000000000000000000000000000006001600160a01b03166114a661255f565b6001600160a01b0316146114cc5760405162461bcd60e51b8152600401610d6990613c96565b6114d58261257b565b610d08828260016125b0565b6000306001600160a01b037f0000000000000000000000000000000000000000000000000000000000000000161461152b5760405162461bcd60e51b8152600401610d6990613d9e565b5060008051602061467f83398151915290565b6097546040516370a0823160e01b81526000916001600160a01b0316906370a082319061156f903090600401613814565b602060405180830381865afa15801561158c573d6000803e3d6000fd5b505050506040513d601f19601f820116820180604052508101906108469190613ccc565b60006115c4826001600160a01b0316611fc5565b91506115cf826111b9565b8311156115ef57604051630cd8567560e21b815260040160405180910390fd5b60006115fa84611b55565b90508060000361161d57604051635435b28960e11b815260040160405180910390fd5b610efd33848684612717565b600060336000611641846001600160a01b0316611fc5565b6001600160a01b0316815260208101919091526040016000205492915050565b600061166b6120f2565b61167482611d68565b83111561169457604051630cd8567560e21b815260040160405180910390fd5b600061169f33611fc5565b90506116b3836001600160a01b0316611fc5565b92506116be84610914565b9150826001600160a01b0316816001600160a01b0316146116e4576116e4838286612342565b6116ee838561278f565b826001600160a01b0316336001600160a01b031660008051602061465f8339815191528487604051611721929190613ca6565b60405180910390a36117338183612836565b5061087c6001609855565b600091825260fc602090815260408084206001600160a01b0393909316845291905290205460ff1690565b600061177d826001600160a01b0316611fc5565b915061178882611a5c565b8311156117a857604051630cd8567560e21b815260040160405180910390fd5b60006117b38461196d565b9050806000036117d657604051635435b28960e11b815260040160405180910390fd5b610efd33848387612717565b60606037805461089190613a32565b6000336117fd81611fc5565b9050611811846001600160a01b0316611fc5565b9350600061181f8286611e4c565b9050838110156118415760405162461bcd60e51b8152600401610d6990613df0565b61184e828686840361200c565b506001949350505050565b6101935460408051632708307d60e11b815290516000926001600160a01b031691634e1060fa9160048083019260209291908290030181865afa1580156118a4573d6000803e3d6000fd5b505050506040513d601f19601f820116820180604052508101906118c89190613a69565b6001600160a01b0316634894f20883306040518363ffffffff1660e01b81526004016118f5929190613e00565b602060405180830381865afa158015611912573d6000803e3d6000fd5b505050506040513d601f19601f8201168201806040525081019061087c9190613ccc565b60003361194281611fc5565b9050611956846001600160a01b0316611fc5565b935061094e818585612387565b600061084661255f565b600061087c826001611f8b565b600061198e836001600160a01b0316611fc5565b92506119a2826001600160a01b0316611fc5565b91506119ad82611b62565b8411156119cd57604051630cd8567560e21b815260040160405180910390fd5b60006119d885610958565b90506119e73385858885612947565b949350505050565b6000611a03836001600160a01b0316611fc5565b9250611a17826001600160a01b0316611fc5565b9150611a2282611d68565b841115611a4257604051630cd8567560e21b815260040160405180910390fd5b6000611a4d85610914565b90506119e73385858489612947565b60008061019360009054906101000a90046001600160a01b03166001600160a01b0316634e1060fa6040518163ffffffff1660e01b8152600401602060405180830381865afa158015611ab3573d6000803e3d6000fd5b505050506040513d601f19601f82011682018060405250810190611ad79190613a69565b6001600160a01b03166376687d3d6040518163ffffffff1660e01b8152600401602060405180830381865afa158015611b14573d6000803e3d6000fd5b505050506040513d601f19601f82011682018060405250810190611b389190613ccc565b905080156112af57610efd611b4b61153e565b6107699083613ced565b600061087c8260006120c2565b6101935460408051632708307d60e11b815290516000926001600160a01b031691634e1060fa9160048083019260209291908290030181865afa158015611bad573d6000803e3d6000fd5b505050506040513d601f19601f82011682018060405250810190611bd19190613a69565b6001600160a01b031663fc8894ce6040518163ffffffff1660e01b8152600401602060405180830381865afa158015611c0e573d6000803e3d6000fd5b505050506040513d601f19601f82011682018060405250810190611c329190613ac7565b611c3d57600061087c565b61087c611c4983611629565b6000611f8b565b61019360009054906101000a90046001600160a01b03166001600160a01b031663e1dda2a96040518163ffffffff1660e01b8152600401602060405180830381865afa158015611ca4573d6000803e3d6000fd5b505050506040513d601f19601f82011682018060405250810190611cc89190613a69565b6001600160a01b0316336001600160a01b031614611cf957604051633006171960e21b815260040160405180910390fd5b806101926000828254611d0c9190613ced565b90915550506040517f455b377f92ceb4087ffafa7984aa323a5ffeb499175000372e06198c0e45b9a490611d4190839061354c565b60405180910390a150565b611d5582610f04565b611d5e81612468565b610f3583836124f8565b6101935460408051632708307d60e11b815290516000926001600160a01b031691634e1060fa9160048083019260209291908290030181865afa158015611db3573d6000803e3d6000fd5b505050506040513d601f19601f82011682018060405250810190611dd79190613a69565b6001600160a01b031663fc8894ce6040518163ffffffff1660e01b8152600401602060405180830381865afa158015611e14573d6000803e3d6000fd5b505050506040513d601f19601f82011682018060405250810190611e389190613ac7565b611e4357600061087c565b61087c82611629565b600060346000611e64856001600160a01b0316611fc5565b6001600160a01b03166001600160a01b031681526020019081526020016000206000611e98846001600160a01b0316611fc5565b6001600160a01b031681526020810191909152604001600020549392505050565b6000611ec36120f2565b611ecc82611b62565b831115611eec57604051630cd8567560e21b815260040160405180910390fd5b6000611ef733611fc5565b9050611f0b836001600160a01b0316611fc5565b9250611f1684610958565b9150826001600160a01b0316816001600160a01b031614611f3c57611f3c838284612342565b611f46838361278f565b826001600160a01b0316816001600160a01b031660008051602061465f8339815191528685604051611f79929190613ca6565b60405180910390a36117338185612836565b6000610efd611f9861082e565b611fa3906001613a09565b611faf6000600a613f29565b603554611fbc9190613a09565b859190856129fe565b6000806000611fd384612a59565b9150915081611fe457509192915050565b600080611ff083612a8b565b9150915081612003575093949350505050565b95945050505050565b6001600160a01b0383166120335760405163d92e233d60e01b815260040160405180910390fd5b6001600160a01b03821661205a5760405163d92e233d60e01b815260040160405180910390fd5b6001600160a01b0380841660008181526034602090815260408083209487168084529490915290819020849055517f8c5be1e5ebec7d5bd14f71427d1e84f3dd0314c0f7b2291e5b200ac8c7c3b925906120b590859061354c565b60405180910390a3505050565b6000610efd6120d282600a613f29565b6035546120df9190613a09565b6120e761082e565b611fbc906001613a09565b6002609854036121145760405162461bcd60e51b8152600401610d6990613f75565b6002609855565b60008061212783612a59565b9092509050811561213757915091565b8260501b61040a60f01b178060005260206000601660006001607f60991b015afa92506000516001600160401b031691505081158061217757503d602014155b1561218757506000928392509050565b915091565b604080516000808252602082019092526121ae90849083908190866000612aec565b90508051600014610f3557604051630e74990760e01b815260040160405180910390fd5b6001609855565b6001600160a01b03163b151590565b600054610100900460ff1661220f5760405162461bcd60e51b8152600401610d6990613fcd565b565b600054610100900460ff166122385760405162461bcd60e51b8152600401610d6990613fcd565b61220f612bc6565b600054610100900460ff166122675760405162461bcd60e51b8152600401610d6990613fcd565b6122ba6040518060400160405280601481526020017310dbdb1b1958dd1a598814dd185ad9590811925360621b8152506040518060400160405280600581526020016418db11925360da1b815250612bed565b6122c381612c1e565b609780546001600160a01b0319166001600160a01b0392909216919091179055565b610d088282612472565b60006122fa83610f04565b600084815260fc6020526040808220600101859055519192508391839186917fbd79b86ffe0ab8e8776151514217cd7cacd52c909f66475c3af44e129f0b00ff9190a4505050565b600061234e8484611e4c565b90506000198114610e9c578181101561237a576040516313be252b60e01b815260040160405180910390fd5b610e9c848484840361200c565b6001600160a01b0383166123ae5760405163d92e233d60e01b815260040160405180910390fd5b6001600160a01b0382166123d55760405163d92e233d60e01b815260040160405180910390fd5b6001600160a01b0383166000908152603360205260409020548181101561240f5760405163c52e3eff60e01b815260040160405180910390fd5b6001600160a01b0380851660008181526033602052604080822086860390559286168082529083902080548601905591516000805160206147068339815191529061245b90869061354c565b60405180910390a3610e9c565b61104b8133612c4e565b61247c828261173e565b610d0857600082815260fc602090815260408083206001600160a01b03851684529091529020805460ff191660011790556124b43390565b6001600160a01b0316816001600160a01b0316837f2f8788117e7eff1d82e926ec794901d17c78024a50270940304540a733656f0d60405160405180910390a45050565b612502828261173e565b15610d0857600082815260fc602090815260408083206001600160a01b0385168085529252808320805460ff1916905551339285917ff6391f5c32d9c69d2a47ea670b442974b53935d1edc7fd64eb21e047a839171b9190a45050565b60008051602061467f833981519152546001600160a01b031690565b61259360008051602061469f8339815191523361173e565b61104b57604051633006171960e21b815260040160405180910390fd5b7f4910fdfa16fed3260ed0e7147f7cc6da11a60208b5b9406d12a635614ffd91435460ff16156125e357610f3583612ca7565b826001600160a01b03166352d1902d6040518163ffffffff1660e01b8152600401602060405180830381865afa92505050801561263d575060408051601f3d908101601f1916820190925261263a91810190613ccc565b60015b6126595760405162461bcd60e51b8152600401610d6990614028565b60008051602061467f83398151915281146126865760405162461bcd60e51b8152600401610d699061407e565b50610f35838383612cfb565b6001600160a01b0382166126b95760405163d92e233d60e01b815260040160405180910390fd5b80603560008282546126cb9190613a09565b90915550506001600160a01b038216600081815260336020526040808220805485019055516000805160206147068339815191529061270b90859061354c565b60405180910390a35050565b612729846001600160a01b0316611fc5565b606554909450612744906001600160a01b0316853085612d20565b61274e8382612692565b826001600160a01b0316846001600160a01b03166000805160206147268339815191528484604051612781929190613ca6565b60405180910390a350505050565b6001600160a01b0382166127b65760405163d92e233d60e01b815260040160405180910390fd5b6001600160a01b038216600090815260336020526040902054818110156127f05760405163c52e3eff60e01b815260040160405180910390fd5b6001600160a01b038316600081815260336020526040808220858503905560358054869003905551909190600080516020614706833981519152906120b590869061354c565b6097546040516370a0823160e01b81526000916001600160a01b0316906370a0823190612867903090600401613814565b602060405180830381865afa158015612884573d6000803e3d6000fd5b505050506040513d601f19601f820116820180604052508101906128a89190613ccc565b9050818110156128cb5760405163356680b760e01b815260040160405180910390fd5b8015610f3557609754604051632e1a7d4d60e01b81526001600160a01b0390911690632e1a7d4d9061290190859060040161354c565b600060405180830381600087803b15801561291b57600080fd5b505af115801561292f573d6000803e3d6000fd5b50610f35925050506001600160a01b03841683612d78565b612959856001600160a01b0316611fc5565b9450826001600160a01b0316856001600160a01b03161461297f5761297f838683612342565b612989838261278f565b6065546129a0906001600160a01b03168584612da3565b826001600160a01b0316846001600160a01b0316866001600160a01b03167ffbde797d201c681b91056529119e0b02407c7bb96a4a2c75c01fc9667232c8db85856040516129ef929190613ca6565b60405180910390a45050505050565b600080612a0c868686612dc2565b90506001836002811115612a2257612a2261408e565b148015612a3f575060008480612a3a57612a3a613d1f565b868809115b1561200357612a4f600182613a09565b9695505050505050565b600080600160401b600160a01b03831660ff60981b8103612a8557600192506001600160401b03841691505b50915091565b600080826000526016600a602060006002607f60991b015afa9150600051806001600160a01b031691508060a01c61ffff1661040a8114612acf5760009350600092505b505081158061217757503d60161461218757506000928392509050565b6060612aff6005607f60991b0184612e84565b6000806005607f60991b01888686612b18576000612b1b565b60015b8a8a8e604051602001612b33969594939291906140c8565b60408051601f1981840301815290829052612b4d91614140565b600060405180830381855af49150503d8060008114612b88576040519150601f19603f3d011682016040523d82523d6000602084013e612b8d565b606091505b509150915081612bb057604051638a7db5bf60e01b815260040160405180910390fd5b612bb981612ecc565b9998505050505050505050565b600054610100900460ff166121d25760405162461bcd60e51b8152600401610d6990613fcd565b600054610100900460ff16612c145760405162461bcd60e51b8152600401610d6990613fcd565b610d088282612fa5565b600054610100900460ff16612c455760405162461bcd60e51b8152600401610d6990613fcd565b61104b81612fe5565b612c58828261173e565b610d0857612c658161306a565b612c7083602061307c565b604051602001612c8192919061414c565b60408051601f198184030181529082905262461bcd60e51b8252610d6991600401613615565b612cb0816121d9565b612ccc5760405162461bcd60e51b8152600401610d69906141e8565b60008051602061467f83398151915280546001600160a01b0319166001600160a01b0392909216919091179055565b612d04836131e7565b600082511180612d115750805b15610f3557610e9c8383613227565b610e9c846323b872dd60e01b858585604051602401612d41939291906141f8565b60408051601f198184030181529190526020810180516001600160e01b03166001600160e01b03199093169290921790915261324c565b600080600080600085875af1905080610f355760405162461bcd60e51b8152600401610d699061423d565b610f358363a9059cbb60e01b8484604051602401612d4192919061424d565b6000808060001985870985870292508281108382030391505080600003612dfc57838281612df257612df2613d1f565b0492505050610efd565b808411612e1b5760405162461bcd60e51b8152600401610d6990614287565b60008486880960026001871981018816978890046003810283188082028403028082028403028082028403028082028403028082028403029081029092039091026000889003889004909101858311909403939093029303949094049190911702949350505050565b4781811015612eaa578082604051634787a10360e11b8152600401610d69929190613ca6565b823f151580610e9c5760405163064d954b60e41b815260040160405180910390fd5b6060600080600084806020019051810190612ee791906142fa565b919450925090506001600160401b038216612f2157805115612f1c57604051630e74990760e01b815260040160405180910390fd5b612f84565b6001600160401b03821660511480612f4257506001600160401b0382166071145b15612f69578051600003612f1c57604051630e74990760e01b815260040160405180910390fd5b8160405163f1f6bced60e01b8152600401610d699190613ae8565b82156119e7578260405163d4bb667160e01b8152600401610d69919061354c565b600054610100900460ff16612fcc5760405162461bcd60e51b8152600401610d6990613fcd565b6036612fd88382614423565b506037610f358282614423565b600054610100900460ff1661300c5760405162461bcd60e51b8152600401610d6990613fcd565b600080613018836132de565b915091508161302857601261302a565b805b606580546001600160a01b039095166001600160a01b031960ff93909316600160a01b02929092166001600160a81b031990951694909417179092555050565b606061087c6001600160a01b03831660145b6060600061308b836002613d00565b613096906002613a09565b6001600160401b038111156130ad576130ad613822565b6040519080825280601f01601f1916602001820160405280156130d7576020820181803683370190505b509050600360fc1b816000815181106130f2576130f26144e1565b60200101906001600160f81b031916908160001a905350600f60fb1b81600181518110613121576131216144e1565b60200101906001600160f81b031916908160001a9053506000613145846002613d00565b613150906001613a09565b90505b60018111156131c8576f181899199a1a9b1b9c1cb0b131b232b360811b85600f1660108110613184576131846144e1565b1a60f81b82828151811061319a5761319a6144e1565b60200101906001600160f81b031916908160001a90535060049490941c936131c1816144f7565b9050613153565b508315610efd5760405162461bcd60e51b8152600401610d6990614540565b6131f081612ca7565b6040516001600160a01b038216907fbc7cd75a20ee27fd9adebab32041f755214dbc6bffa90cc0225b39da2e5c2d3b90600090a250565b6060610efd83836040518060600160405280602781526020016146bf602791396133ba565b60006132a1826040518060400160405280602081526020017f5361666545524332303a206c6f772d6c6576656c2063616c6c206661696c6564815250856001600160a01b03166134289092919063ffffffff16565b90508051600014806132c25750808060200190518101906132c29190613ac7565b610f355760405162461bcd60e51b8152600401610d6990614597565b60408051600481526024810182526020810180516001600160e01b031663313ce56760e01b17905290516000918291829182916001600160a01b0387169161332591614140565b600060405180830381855afa9150503d8060008114613360576040519150601f19603f3d011682016040523d82523d6000602084013e613365565b606091505b509150915081801561337957506020815110155b156133ad576000818060200190518101906133949190613ccc565b905060ff81116133ab576001969095509350505050565b505b5060009485945092505050565b6060600080856001600160a01b0316856040516133d79190614140565b600060405180830381855af49150503d8060008114613412576040519150601f19603f3d011682016040523d82523d6000602084013e613417565b606091505b5091509150612a4f86838387613437565b60606119e7848460008561347e565b6060831561347457825160000361346d57613451856121d9565b61346d5760405162461bcd60e51b8152600401610d69906145db565b50816119e7565b6119e7838361351a565b6060824710156134a05760405162461bcd60e51b8152600401610d699061462e565b600080866001600160a01b031685876040516134bc9190614140565b60006040518083038185875af1925050503d80600081146134f9576040519150601f19603f3d011682016040523d82523d6000602084013e6134fe565b606091505b509150915061350f87838387613437565b979650505050505050565b81511561352a5781518083602001fd5b8060405162461bcd60e51b8152600401610d699190613615565b805b82525050565b6020810161087c8284613544565b6001600160e01b031981165b811461104b57600080fd5b803561087c8161355a565b60006020828403121561359157613591600080fd5b60006119e78484613571565b801515613546565b6020810161087c828461359d565b60005b838110156135ce5781810151838201526020016135b6565b50506000910152565b601f01601f191690565b60006135eb825190565b8084526020840193506136028185602086016135b3565b61360b816135d7565b9093019392505050565b60208082528101610efd81846135e1565b80613566565b803561087c81613626565b60006020828403121561364c5761364c600080fd5b60006119e7848461362c565b6001600160a01b031690565b600061087c6136756111b684613658565b613658565b600061087c82613664565b600061087c8261367a565b61354681613685565b6020810161087c8284613690565b600061087c82613658565b613566816136a7565b803561087c816136b2565b600080604083850312156136dc576136dc600080fd5b60006136e885856136bb565b92505060206136f98582860161362c565b9150509250929050565b6001600160401b038116613566565b803561087c81613703565b6000806040838503121561373357613733600080fd5b600061373f858561362c565b92505060206136f985828601613712565b60008060006060848603121561376857613768600080fd5b600061377486866136bb565b9350506020613785868287016136bb565b92505060406137968682870161362c565b9150509250925092565b600080604083850312156137b6576137b6600080fd5b60006137c2858561362c565b92505060206136f9858286016136bb565b60ff8116613546565b6020810161087c82846137d3565b6000602082840312156137ff576137ff600080fd5b60006119e784846136bb565b613546816136a7565b6020810161087c828461380b565b634e487b7160e01b600052604160045260246000fd5b613841826135d7565b81018181106001600160401b038211171561385e5761385e613822565b6040525050565b600061387060405190565b905061387c8282613838565b919050565b60006001600160401b0382111561389a5761389a613822565b6138a3826135d7565b60200192915050565b82818337506000910152565b60006138cb6138c684613881565b613865565b9050828152602081018484840111156138e6576138e6600080fd5b6138f18482856138ac565b509392505050565b600082601f83011261390d5761390d600080fd5b81356119e78482602086016138b8565b6000806040838503121561393357613933600080fd5b600061393f85856136bb565b92505060208301356001600160401b0381111561395e5761395e600080fd5b6136f9858286016138f9565b60006020828403121561397f5761397f600080fd5b60006119e78484613712565b6000806000606084860312156139a3576139a3600080fd5b60006139af868661362c565b93505060206139c0868287016136bb565b9250506040613796868287016136bb565b600080604083850312156139e7576139e7600080fd5b60006137c285856136bb565b634e487b7160e01b600052601160045260246000fd5b8082018082111561087c5761087c6139f3565b634e487b7160e01b600052602260045260246000fd5b600281046001821680613a4657607f821691505b602082108103613a5857613a58613a1c565b50919050565b805161087c816136b2565b600060208284031215613a7e57613a7e600080fd5b60006119e78484613a5e565b6001600160401b038116613546565b60408101613aa78285613a8a565b610efd6020830184613a8a565b801515613566565b805161087c81613ab4565b600060208284031215613adc57613adc600080fd5b60006119e78484613abc565b6020810161087c8284613a8a565b60608101613b048286613a8a565b613b116020830185613a8a565b6119e76040830184613544565b602e81526000602082017f496e697469616c697a61626c653a20636f6e747261637420697320616c72656181526d191e481a5b9a5d1a585b1a5e995960921b602082015291505b5060400190565b6020808252810161087c81613b1e565b60ff1690565b61354681600061087c82613b7c565b6020810161087c8284613b82565b60ff91821691908116908282019081111561087c5761087c6139f3565b602f81526000602082017f416363657373436f6e74726f6c3a2063616e206f6e6c792072656e6f756e636581526e103937b632b9903337b91039b2b63360891b60208201529150613b65565b6020808252810161087c81613bbc565b602c815260006020820160008051602061463f83398151915281526b19195b1959d85d1958d85b1b60a21b60208201529150613b65565b6020808252810161087c81613c18565b602c815260006020820160008051602061463f83398151915281526b6163746976652070726f787960a01b60208201529150613b65565b6020808252810161087c81613c5f565b60408101613cb48285613544565b610efd6020830184613544565b805161087c81613626565b600060208284031215613ce157613ce1600080fd5b60006119e78484613cc1565b8181038181111561087c5761087c6139f3565b818102808215838204851417613d1857613d186139f3565b5092915050565b634e487b7160e01b600052601260045260246000fd5b600082613d4457613d44613d1f565b500490565b603881526000602082017f555550535570677261646561626c653a206d757374206e6f742062652063616c8152771b1959081d1a1c9bdd59da0819195b1959d85d1958d85b1b60421b60208201529150613b65565b6020808252810161087c81613d49565b602581526000602082017f45524332303a2064656372656173656420616c6c6f77616e63652062656c6f77815264207a65726f60d81b60208201529150613b65565b6020808252810161087c81613dae565b60408101613e0e8285613a8a565b610efd602083018461380b565b80825b6001851115613e5a57808604811115613e3957613e396139f3565b6001851615613e4757908102905b8002613e538560011c90565b9450613e1e565b94509492505050565b600082613e7257506001610efd565b81613e7f57506000610efd565b8160018114613e955760028114613e9f57613ecc565b6001915050610efd565b60ff841115613eb057613eb06139f3565b8360020a915084821115613ec657613ec66139f3565b50610efd565b5060208310610133831016604e8410600b8410161715613eff575081810a83811115613efa57613efa6139f3565b610efd565b613f0c8484846001613e1b565b92509050818404811115613f2257613f226139f3565b0292915050565b600060ff83169250610efd6000198484613e63565b601f81526000602082017f5265656e7472616e637947756172643a207265656e7472616e742063616c6c00815291505b5060200190565b6020808252810161087c81613f3e565b602b81526000602082017f496e697469616c697a61626c653a20636f6e7472616374206973206e6f74206981526a6e697469616c697a696e6760a81b60208201529150613b65565b6020808252810161087c81613f85565b602e81526000602082017f45524331393637557067726164653a206e657720696d706c656d656e7461746981526d6f6e206973206e6f74205555505360901b60208201529150613b65565b6020808252810161087c81613fdd565b602981526000602082017f45524331393637557067726164653a20756e737570706f727465642070726f788152681a58589b195555525160ba1b60208201529150613b65565b6020808252810161087c81614038565b634e487b7160e01b600052602160045260246000fd5b6001600160401b031690565b61354681600061087c6001600160401b0383166140a4565b60c081016140d68289613a8a565b6140e36020830188613544565b6140f06040830187613a8a565b6140fd6060830186613a8a565b818103608083015261410f81856135e1565b905061350f60a08301846140b0565b6000614128825190565b6141368185602086016135b3565b9290920192915050565b6000610efd828461411e565b76020b1b1b2b9b9a1b7b73a3937b61d1030b1b1b7bab73a1604d1b81526017016000614178828561411e565b7001034b99036b4b9b9b4b733903937b6329607d1b815260110191506119e7828461411e565b602d81526000602082017f455243313936373a206e657720696d706c656d656e746174696f6e206973206e81526c1bdd08184818dbdb9d1c9858dd609a1b60208201529150613b65565b6020808252810161087c8161419e565b60608101614206828661380b565b613b11602083018561380b565b601381526000602082017211551217d514905394d1915497d19052531151606a1b81529150613f6e565b6020808252810161087c81614213565b60408101613cb4828561380b565b60158152600060208201744d6174683a206d756c446976206f766572666c6f7760581b81529150613f6e565b6020808252810161087c8161425b565b805161087c81613703565b60006142b06138c684613881565b9050828152602081018484840111156142cb576142cb600080fd5b6138f18482856135b3565b600082601f8301126142ea576142ea600080fd5b81516119e78482602086016142a2565b60008060006060848603121561431257614312600080fd5b600061431e8686613cc1565b935050602061432f86828701614297565b92505060408401516001600160401b0381111561434e5761434e600080fd5b613796868287016142d6565b600061087c6111b68381565b61436f8361435a565b81546008840282811b60001990911b908116901990911617825550505050565b6000610f35818484614366565b81811015610d08576143af60008261438f565b60010161439c565b601f821115610f35576000818152602090206020601f850104810160208510156143de5750805b6143f06020601f86010483018261439c565b5050505050565b6000196008929092029190911c191690565b600061441583836143f7565b600290930290921792915050565b81516001600160401b0381111561443c5761443c613822565b6144468254613a32565b6144518282856143b7565b6020601f83116001811461447f576000841561446d5750858201515b6144778582614409565b8655506144d9565b600085815260208120601f198616915b828110156144af578885015182556020948501946001909201910161448f565b868310156144cc57848901516144c8601f8916826143f7565b8355505b6001600288020188555050505b505050505050565b634e487b7160e01b600052603260045260246000fd5b600081614506576145066139f3565b506000190190565b60208082527f537472696e67733a20686578206c656e67746820696e73756666696369656e7491019081526000613f6e565b6020808252810161087c8161450e565b602a81526000602082017f5361666545524332303a204552433230206f7065726174696f6e20646964206e8152691bdd081cdd58d8d9595960b21b60208201529150613b65565b6020808252810161087c81614550565b601d81526000602082017f416464726573733a2063616c6c20746f206e6f6e2d636f6e747261637400000081529150613f6e565b6020808252810161087c816145a7565b602681526000602082017f416464726573733a20696e73756666696369656e742062616c616e636520666f8152651c8818d85b1b60d21b60208201529150613b65565b6020808252810161087c816145eb56fe46756e6374696f6e206d7573742062652063616c6c6564207468726f7567682006cc7e90b4f2b554a9614b0caa84f909f3498c820ae47c731f490c28c07f7d3b360894a13ba1a3210667c828492db98dca3e2076cc3735a920a3ca505d382bbc1d14d86df057371c196b6fcc3e0364275c5066680dd996a56ed0b0e5eb1394a8416464726573733a206c6f772d6c6576656c2064656c65676174652063616c6c206661696c65642174eddbd3dd5d6d1f8771fcfe11e56dde5a1c380f4e4ee908e41262add3ef0cddf252ad1be2c89b69c2b068fc378daa952ba7f163c4a11628f55a4df523b3efdcbc1c05240f31ff3ad067ef1ee35ce4997762752e3a095284754544f4c709d7a264697066735822122010030994308c7372228c124d4d2670c90d20876a1935b299b4c8349a11ab9f2664736f6c63430008110033",
  "devdoc": {
    "kind": "dev",
    "methods": {
      "allowance(address,address)": {
        "details": "See {IERC20-allowance}."
      },
      "approve(address,uint256)": {
        "details": "See {IERC20-approve}. NOTE: If `amount` is the maximum `uint256`, the allowance is not updated on `transferFrom`. This is semantically equivalent to an infinite approval. Requirements: - `spender` cannot be the zero address."
      },
      "asset()": {
        "details": "See {IERC4626-asset}. "
      },
      "balanceOf(address)": {
        "details": "See {IERC20-balanceOf}."
      },
      "convertToAssets(uint256)": {
        "details": "See {IERC4626-convertToAssets}. "
      },
      "convertToShares(uint256)": {
        "details": "See {IERC4626-convertToShares}. "
      },
      "decimals()": {
        "details": "Decimals are computed by adding the decimal offset on top of the underlying asset's decimals. This \"original\" value is cached during construction of the vault contract. If this read operation fails (e.g., the asset has not been created yet), a default of 18 is used to represent the underlying asset's decimals. See {IERC20Metadata-decimals}."
      },
      "decreaseAllowance(address,uint256)": {
        "details": "Atomically decreases the allowance granted to `spender` by the caller. This is an alternative to {approve} that can be used as a mitigation for problems described in {IERC20-approve}. Emits an {Approval} event indicating the updated allowance. Requirements: - `spender` cannot be the zero address. - `spender` must have allowance for the caller of at least `subtractedValue`."
      },
      "deposit(uint256,address)": {
        "details": "See {IERC4626-deposit}. "
      },
      "getRoleAdmin(bytes32)": {
        "details": "Returns the admin role that controls `role`. See {grantRole} and {revokeRole}. To change a role's admin, use {_setRoleAdmin}."
      },
      "grantRole(bytes32,address)": {
        "details": "Grants `role` to `account`. If `account` had not been already granted `role`, emits a {RoleGranted} event. Requirements: - the caller must have ``role``'s admin role. May emit a {RoleGranted} event."
      },
      "hasRole(bytes32,address)": {
        "details": "Returns `true` if `account` has been granted `role`."
      },
      "increaseAllowance(address,uint256)": {
        "details": "Atomically increases the allowance granted to `spender` by the caller. This is an alternative to {approve} that can be used as a mitigation for problems described in {IERC20-approve}. Emits an {Approval} event indicating the updated allowance. Requirements: - `spender` cannot be the zero address."
      },
      "initialize(address,address,uint256)": {
        "details": "Contract initializer function.",
        "params": {
          "_initialDeposit": "Initial deposit to the pool to prevent the inflation attack",
          "_resolver": "Resolver contract address",
          "_wFIL": "WFIL token contract address"
        }
      },
      "maxDeposit(address)": {
        "details": "See {IERC4626-maxDeposit}. "
      },
      "maxMint(address)": {
        "details": "See {IERC4626-maxMint}. "
      },
      "maxRedeem(address)": {
        "details": "See {IERC4626-maxRedeem}. "
      },
      "maxWithdraw(address)": {
        "details": "See {IERC4626-maxWithdraw}. "
      },
      "mint(uint256,address)": {
        "details": "See {IERC4626-mint}. As opposed to {deposit}, minting is allowed even if the vault is in a state where the price of a share is zero. In this case, the shares will be minted without requiring any assets to be deposited."
      },
      "name()": {
        "details": "Returns the name of the token."
      },
      "pledge(uint256,uint64)": {
        "params": {
          "_minerId": "Storage Provider Miner ID",
          "amount": "Amount of FIL to pledge from Liquid Staking Pool"
        }
      },
      "previewDeposit(uint256)": {
        "details": "See {IERC4626-previewDeposit}. "
      },
      "previewMint(uint256)": {
        "details": "See {IERC4626-previewMint}. "
      },
      "previewRedeem(uint256)": {
        "details": "See {IERC4626-previewRedeem}. "
      },
      "previewWithdraw(uint256)": {
        "details": "See {IERC4626-previewWithdraw}. "
      },
      "proxiableUUID()": {
        "details": "Implementation of the ERC1822 {proxiableUUID} function. This returns the storage slot used by the implementation. It is used to validate the implementation's compatibility when performing an upgrade. IMPORTANT: A proxy pointing at a proxiable contract should not be considered proxiable itself, because this risks bricking a proxy that upgrades to it, by delegating to itself until out of gas. Thus it is critical that this function revert if invoked through a proxy. This is guaranteed by the `notDelegated` modifier."
      },
      "redeem(uint256,address,address)": {
        "details": "See {IERC4626-redeem}. "
      },
      "renounceRole(bytes32,address)": {
        "details": "Revokes `role` from the calling account. Roles are often managed via {grantRole} and {revokeRole}: this function's purpose is to provide a mechanism for accounts to lose their privileges if they are compromised (such as when a trusted device is misplaced). If the calling account had been revoked `role`, emits a {RoleRevoked} event. Requirements: - the caller must be `account`. May emit a {RoleRevoked} event."
      },
      "repayPledge(uint256)": {
        "params": {
          "amount": "Amount of pledge repayment"
        }
      },
      "restake(uint256,address)": {
        "params": {
          "assets": "Amount of assets to restake",
          "receiver": "f4 address to receive clFIL tokens"
        }
      },
      "revokeRole(bytes32,address)": {
        "details": "Revokes `role` from `account`. If `account` had been granted `role`, emits a {RoleRevoked} event. Requirements: - the caller must have ``role``'s admin role. May emit a {RoleRevoked} event."
      },
      "supportsInterface(bytes4)": {
        "details": "See {IERC165-supportsInterface}."
      },
      "symbol()": {
        "details": "Returns the symbol of the token, usually a shorter version of the name."
      },
      "totalFees(uint64)": {
        "params": {
          "_ownerId": "Storage Provider owner ID"
        }
      },
      "totalSupply()": {
        "details": "See {IERC20-totalSupply}."
      },
      "transfer(address,uint256)": {
        "details": "See {IERC20-transfer}. Requirements: - `to` cannot be the zero address. - the caller must have a balance of at least `amount`."
      },
      "transferFrom(address,address,uint256)": {
        "details": "See {IERC20-transferFrom}. Emits an {Approval} event indicating the updated allowance. This is not required by the EIP. See the note at the beginning of {ERC20}. NOTE: Does not update the allowance if the current allowance is the maximum `uint256`. Requirements: - `from` and `to` cannot be the zero address. - `from` must have a balance of at least `amount`. - the caller must have allowance for ``from``'s tokens of at least `amount`."
      },
      "unstake(uint256,address)": {
        "details": "Please note that unstake amount has to be clFIL shares (not FIL assets)",
        "params": {
          "owner": "Receiver of FIL assets",
          "shares": "Total clFIL amount to burn (unstake)"
        }
      },
      "unstakeAssets(uint256,address)": {
        "params": {
          "assets": "Total FIL amount to unstake",
          "owner": "Receiver of FIL assets"
        }
      },
      "upgradeTo(address)": {
        "custom:oz-upgrades-unsafe-allow-reachable": "delegatecall",
        "details": "Upgrade the implementation of the proxy to `newImplementation`. Calls {_authorizeUpgrade}. Emits an {Upgraded} event."
      },
      "upgradeToAndCall(address,bytes)": {
        "custom:oz-upgrades-unsafe-allow-reachable": "delegatecall",
        "details": "Upgrade the implementation of the proxy to `newImplementation`, and subsequently execute the function call encoded in `data`. Calls {_authorizeUpgrade}. Emits an {Upgraded} event."
      },
      "withdraw(uint256,address,address)": {
        "details": "See {IERC4626-withdraw}. "
      }
    },
    "title": "LiquidStaking contract allows users to stake/unstake FIL to earn Filecoin mining rewards. Staked FIL is allocated to Storage Providers (SPs) that perform filecoin storage mining operations. This contract acts as a beneficiary address for each SP that uses FIL capital for pledges. While staking FIL user would get clFIL token in exchange, the token follows ERC4626 standard and it's price is recalculated once mining rewards are distributed to the liquid staking pool and once new FIL is deposited. Please note that LiquidStaking contract performs wrapping of the native FIL into Wrapped Filecoin (WFIL) token.",
    "version": 1
  },
  "userdoc": {
    "errors": {
      "ActorError(int256)": [
        {
          "notice": "the called actor returned an error as part of its expected behaviour"
        }
      ],
      "ActorNotFound()": [
        {
          "notice": "the actor is not found"
        }
      ],
      "FailToCallActor()": [
        {
          "notice": "an error happened trying to call the actor"
        }
      ],
      "InvalidCodec(uint64)": [
        {
          "notice": "the codec received is not valid"
        }
      ],
      "InvalidResponseLength()": [
        {
          "notice": "the response received is not correct. In some case no response is expected and we received one, or a response was indeed expected and we received none."
        }
      ],
      "NotEnoughBalance(uint256,uint256)": [
        {
          "notice": "the smart contract has no enough balance to transfer"
        }
      ]
    },
    "events": {
      "Pledge(uint64,uint64,uint256)": {
        "notice": "Emitted when storage provider is withdrawing FIL for pledge"
      },
      "PledgeRepayment(uint256)": {
        "notice": "Emitted when storage provider's pledge is returned back to the LSP"
      },
      "Stake(address,address,uint256,uint256)": {
        "notice": "Emitted when user is staked wFIL to the Liquid Staking"
      },
      "Unstaked(address,address,uint256,uint256)": {
        "notice": "Emitted when user is unstaked wFIL from the Liquid Staking"
      }
    },
    "kind": "user",
    "methods": {
      "getImplementation()": {
        "notice": "Returns the implementation contract"
      },
      "getUsageRatio()": {
        "notice": "Returns pool usage ratio to determine what percentage of FIL is pledged compared to the total amount of FIL staked."
      },
      "pledge(uint256,uint64)": {
        "notice": "Pledge FIL assets from liquid staking pool to miner pledge for one sector"
      },
      "repayPledge(uint256)": {
        "notice": "Triggered when pledge is repaid on the Reward Collector"
      },
      "restake(uint256,address)": {
        "notice": "Restakes `assets` for a specified `target` address"
      },
      "stake()": {
        "notice": "Stake FIL to the Liquid Staking pool and get clFIL in return native FIL is wrapped into WFIL and deposited into LiquidStakingmsg.value is the amount of FIL to stake"
      },
      "totalAssets()": {
        "notice": "Returns total amount of assets backing clFIL, that includes buffered capital in the pool and pledged capital to the SPs."
      },
      "totalFees(uint64)": {
        "notice": "Returns total amount of fees held by LSP for a specific SP with `_ownerId`"
      },
      "totalFilAvailable()": {
        "notice": "Returns the amount of WFIL available on the liquid staking contract"
      },
      "totalFilPledged()": {
        "notice": "The current total amount of FIL that is allocated to SPs."
      },
      "unstake(uint256,address)": {
        "notice": "Unstake FIL from the Liquid Staking pool and burn clFIL tokens"
      },
      "unstakeAssets(uint256,address)": {
        "notice": "Unstake FIL from the Liquid Staking pool and burn clFIL tokens"
      },
      "version()": {
        "notice": "Returns the version of clFIL token contract"
      }
    },
    "version": 1
  },
  "storageLayout": {
    "storage": [
      {
        "astId": 16433,
        "contract": "contracts/LiquidStaking.sol:LiquidStaking",
        "label": "_initialized",
        "offset": 0,
        "slot": "0",
        "type": "t_uint8"
      },
      {
        "astId": 16436,
        "contract": "contracts/LiquidStaking.sol:LiquidStaking",
        "label": "_initializing",
        "offset": 1,
        "slot": "0",
        "type": "t_bool"
      },
      {
        "astId": 18313,
        "contract": "contracts/LiquidStaking.sol:LiquidStaking",
        "label": "__gap",
        "offset": 0,
        "slot": "1",
        "type": "t_array(t_uint256)50_storage"
      },
      {
        "astId": 7031,
        "contract": "contracts/LiquidStaking.sol:LiquidStaking",
        "label": "_balances",
        "offset": 0,
        "slot": "51",
        "type": "t_mapping(t_address,t_uint256)"
      },
      {
        "astId": 7037,
        "contract": "contracts/LiquidStaking.sol:LiquidStaking",
        "label": "_allowances",
        "offset": 0,
        "slot": "52",
        "type": "t_mapping(t_address,t_mapping(t_address,t_uint256))"
      },
      {
        "astId": 7039,
        "contract": "contracts/LiquidStaking.sol:LiquidStaking",
        "label": "_totalSupply",
        "offset": 0,
        "slot": "53",
        "type": "t_uint256"
      },
      {
        "astId": 7041,
        "contract": "contracts/LiquidStaking.sol:LiquidStaking",
        "label": "_name",
        "offset": 0,
        "slot": "54",
        "type": "t_string_storage"
      },
      {
        "astId": 7043,
        "contract": "contracts/LiquidStaking.sol:LiquidStaking",
        "label": "_symbol",
        "offset": 0,
        "slot": "55",
        "type": "t_string_storage"
      },
      {
        "astId": 7701,
        "contract": "contracts/LiquidStaking.sol:LiquidStaking",
        "label": "__gap",
        "offset": 0,
        "slot": "56",
        "type": "t_array(t_uint256)45_storage"
      },
      {
        "astId": 7731,
        "contract": "contracts/LiquidStaking.sol:LiquidStaking",
        "label": "_asset",
        "offset": 0,
        "slot": "101",
        "type": "t_contract(IERC20Upgradeable)17505"
      },
      {
        "astId": 7733,
        "contract": "contracts/LiquidStaking.sol:LiquidStaking",
        "label": "_underlyingDecimals",
        "offset": 20,
        "slot": "101",
        "type": "t_uint8"
      },
      {
        "astId": 8430,
        "contract": "contracts/LiquidStaking.sol:LiquidStaking",
        "label": "__gap",
        "offset": 0,
        "slot": "102",
        "type": "t_array(t_uint256)49_storage"
      },
      {
        "astId": 17,
        "contract": "contracts/LiquidStaking.sol:LiquidStaking",
        "label": "WFIL",
        "offset": 0,
        "slot": "151",
        "type": "t_contract(IWFIL)8450"
      },
      {
        "astId": 16745,
        "contract": "contracts/LiquidStaking.sol:LiquidStaking",
        "label": "_status",
        "offset": 0,
        "slot": "152",
        "type": "t_uint256"
      },
      {
        "astId": 16814,
        "contract": "contracts/LiquidStaking.sol:LiquidStaking",
        "label": "__gap",
        "offset": 0,
        "slot": "153",
        "type": "t_array(t_uint256)49_storage"
      },
      {
        "astId": 18696,
        "contract": "contracts/LiquidStaking.sol:LiquidStaking",
        "label": "__gap",
        "offset": 0,
        "slot": "202",
        "type": "t_array(t_uint256)50_storage"
      },
      {
        "astId": 15392,
        "contract": "contracts/LiquidStaking.sol:LiquidStaking",
        "label": "_roles",
        "offset": 0,
        "slot": "252",
        "type": "t_mapping(t_bytes32,t_struct(RoleData)15387_storage)"
      },
      {
        "astId": 15687,
        "contract": "contracts/LiquidStaking.sol:LiquidStaking",
        "label": "__gap",
        "offset": 0,
        "slot": "253",
        "type": "t_array(t_uint256)49_storage"
      },
      {
        "astId": 16415,
        "contract": "contracts/LiquidStaking.sol:LiquidStaking",
        "label": "__gap",
        "offset": 0,
        "slot": "302",
        "type": "t_array(t_uint256)50_storage"
      },
      {
        "astId": 16730,
        "contract": "contracts/LiquidStaking.sol:LiquidStaking",
        "label": "__gap",
        "offset": 0,
        "slot": "352",
        "type": "t_array(t_uint256)50_storage"
      },
      {
        "astId": 121,
        "contract": "contracts/LiquidStaking.sol:LiquidStaking",
        "label": "totalFilPledged",
        "offset": 0,
        "slot": "402",
        "type": "t_uint256"
      },
      {
        "astId": 124,
        "contract": "contracts/LiquidStaking.sol:LiquidStaking",
        "label": "resolver",
        "offset": 0,
        "slot": "403",
        "type": "t_contract(IResolverClient)6057"
      }
    ],
    "types": {
      "t_address": {
        "encoding": "inplace",
        "label": "address",
        "numberOfBytes": "20"
      },
      "t_array(t_uint256)45_storage": {
        "base": "t_uint256",
        "encoding": "inplace",
        "label": "uint256[45]",
        "numberOfBytes": "1440"
      },
      "t_array(t_uint256)49_storage": {
        "base": "t_uint256",
        "encoding": "inplace",
        "label": "uint256[49]",
        "numberOfBytes": "1568"
      },
      "t_array(t_uint256)50_storage": {
        "base": "t_uint256",
        "encoding": "inplace",
        "label": "uint256[50]",
        "numberOfBytes": "1600"
      },
      "t_bool": {
        "encoding": "inplace",
        "label": "bool",
        "numberOfBytes": "1"
      },
      "t_bytes32": {
        "encoding": "inplace",
        "label": "bytes32",
        "numberOfBytes": "32"
      },
      "t_contract(IERC20Upgradeable)17505": {
        "encoding": "inplace",
        "label": "contract IERC20Upgradeable",
        "numberOfBytes": "20"
      },
      "t_contract(IResolverClient)6057": {
        "encoding": "inplace",
        "label": "contract IResolverClient",
        "numberOfBytes": "20"
      },
      "t_contract(IWFIL)8450": {
        "encoding": "inplace",
        "label": "contract IWFIL",
        "numberOfBytes": "20"
      },
      "t_mapping(t_address,t_bool)": {
        "encoding": "mapping",
        "key": "t_address",
        "label": "mapping(address => bool)",
        "numberOfBytes": "32",
        "value": "t_bool"
      },
      "t_mapping(t_address,t_mapping(t_address,t_uint256))": {
        "encoding": "mapping",
        "key": "t_address",
        "label": "mapping(address => mapping(address => uint256))",
        "numberOfBytes": "32",
        "value": "t_mapping(t_address,t_uint256)"
      },
      "t_mapping(t_address,t_uint256)": {
        "encoding": "mapping",
        "key": "t_address",
        "label": "mapping(address => uint256)",
        "numberOfBytes": "32",
        "value": "t_uint256"
      },
      "t_mapping(t_bytes32,t_struct(RoleData)15387_storage)": {
        "encoding": "mapping",
        "key": "t_bytes32",
        "label": "mapping(bytes32 => struct AccessControlUpgradeable.RoleData)",
        "numberOfBytes": "32",
        "value": "t_struct(RoleData)15387_storage"
      },
      "t_string_storage": {
        "encoding": "bytes",
        "label": "string",
        "numberOfBytes": "32"
      },
      "t_struct(RoleData)15387_storage": {
        "encoding": "inplace",
        "label": "struct AccessControlUpgradeable.RoleData",
        "members": [
          {
            "astId": 15384,
            "contract": "contracts/LiquidStaking.sol:LiquidStaking",
            "label": "members",
            "offset": 0,
            "slot": "0",
            "type": "t_mapping(t_address,t_bool)"
          },
          {
            "astId": 15386,
            "contract": "contracts/LiquidStaking.sol:LiquidStaking",
            "label": "adminRole",
            "offset": 0,
            "slot": "1",
            "type": "t_bytes32"
          }
        ],
        "numberOfBytes": "64"
      },
      "t_uint256": {
        "encoding": "inplace",
        "label": "uint256",
        "numberOfBytes": "32"
      },
      "t_uint8": {
        "encoding": "inplace",
        "label": "uint8",
        "numberOfBytes": "1"
      }
    }
  }
}