{
  "address": "0xE5222EC4A4B3A64320A04EA81d51D110ca329Df2",
  "abi": [
    {
      "inputs": [],
      "name": "InvalidAccess",
      "type": "error"
    },
    {
      "inputs": [],
      "name": "InvalidParams",
      "type": "error"
    },
    {
      "anonymous": false,
      "inputs": [
        {
          "indexed": false,
          "internalType": "address",
          "name": "previousAdmin",
          "type": "address"
        },
        {
          "indexed": false,
          "internalType": "address",
          "name": "newAdmin",
          "type": "address"
        }
      ],
      "name": "AdminChanged",
      "type": "event"
    },
    {
      "anonymous": false,
      "inputs": [
        {
          "indexed": true,
          "internalType": "address",
          "name": "beacon",
          "type": "address"
        }
      ],
      "name": "BeaconUpgraded",
      "type": "event"
    },
    {
      "anonymous": false,
      "inputs": [
        {
          "indexed": false,
          "internalType": "uint8",
          "name": "version",
          "type": "uint8"
        }
      ],
      "name": "Initialized",
      "type": "event"
    },
    {
      "anonymous": false,
      "inputs": [
        {
          "indexed": false,
          "internalType": "uint64",
          "name": "ownerId",
          "type": "uint64"
        },
        {
          "indexed": false,
          "internalType": "uint256",
          "name": "prevShare",
          "type": "uint256"
        },
        {
          "indexed": false,
          "internalType": "uint256",
          "name": "profitShare",
          "type": "uint256"
        }
      ],
      "name": "ProfitShareUpdate",
      "type": "event"
    },
    {
      "anonymous": false,
      "inputs": [
        {
          "indexed": true,
          "internalType": "bytes32",
          "name": "role",
          "type": "bytes32"
        },
        {
          "indexed": true,
          "internalType": "bytes32",
          "name": "previousAdminRole",
          "type": "bytes32"
        },
        {
          "indexed": true,
          "internalType": "bytes32",
          "name": "newAdminRole",
          "type": "bytes32"
        }
      ],
      "name": "RoleAdminChanged",
      "type": "event"
    },
    {
      "anonymous": false,
      "inputs": [
        {
          "indexed": true,
          "internalType": "bytes32",
          "name": "role",
          "type": "bytes32"
        },
        {
          "indexed": true,
          "internalType": "address",
          "name": "account",
          "type": "address"
        },
        {
          "indexed": true,
          "internalType": "address",
          "name": "sender",
          "type": "address"
        }
      ],
      "name": "RoleGranted",
      "type": "event"
    },
    {
      "anonymous": false,
      "inputs": [
        {
          "indexed": true,
          "internalType": "bytes32",
          "name": "role",
          "type": "bytes32"
        },
        {
          "indexed": true,
          "internalType": "address",
          "name": "account",
          "type": "address"
        },
        {
          "indexed": true,
          "internalType": "address",
          "name": "sender",
          "type": "address"
        }
      ],
      "name": "RoleRevoked",
      "type": "event"
    },
    {
      "anonymous": false,
      "inputs": [
        {
          "indexed": false,
          "internalType": "uint256",
          "name": "adminFee",
          "type": "uint256"
        }
      ],
      "name": "UpdateAdminFee",
      "type": "event"
    },
    {
      "anonymous": false,
      "inputs": [
        {
          "indexed": false,
          "internalType": "uint256",
          "name": "profitShare",
          "type": "uint256"
        }
      ],
      "name": "UpdateBaseProfitShare",
      "type": "event"
    },
    {
      "anonymous": false,
      "inputs": [
        {
          "indexed": false,
          "internalType": "uint256",
          "name": "cap",
          "type": "uint256"
        }
      ],
      "name": "UpdateLiquidityCap",
      "type": "event"
    },
    {
      "anonymous": false,
      "inputs": [
        {
          "indexed": true,
          "internalType": "address",
          "name": "implementation",
          "type": "address"
        }
      ],
      "name": "Upgraded",
      "type": "event"
    },
    {
      "anonymous": false,
      "inputs": [],
      "name": "WithdrawalsActivated",
      "type": "event"
    },
    {
      "inputs": [],
      "name": "DEFAULT_ADMIN_ROLE",
      "outputs": [
        {
          "internalType": "bytes32",
          "name": "",
          "type": "bytes32"
        }
      ],
      "stateMutability": "view",
      "type": "function"
    },
    {
      "inputs": [],
      "name": "activateWithdrawals",
      "outputs": [],
      "stateMutability": "nonpayable",
      "type": "function"
    },
    {
      "inputs": [],
      "name": "adminFee",
      "outputs": [
        {
          "internalType": "uint256",
          "name": "",
          "type": "uint256"
        }
      ],
      "stateMutability": "view",
      "type": "function"
    },
    {
      "inputs": [],
      "name": "baseProfitShare",
      "outputs": [
        {
          "internalType": "uint256",
          "name": "",
          "type": "uint256"
        }
      ],
      "stateMutability": "view",
      "type": "function"
    },
    {
      "inputs": [],
      "name": "getImplementation",
      "outputs": [
        {
          "internalType": "address",
          "name": "",
          "type": "address"
        }
      ],
      "stateMutability": "view",
      "type": "function"
    },
    {
      "inputs": [
        {
          "internalType": "uint64",
          "name": "_ownerId",
          "type": "uint64"
        },
        {
          "internalType": "address",
          "name": "_pool",
          "type": "address"
        }
      ],
      "name": "getProfitShares",
      "outputs": [
        {
          "internalType": "uint256",
          "name": "",
          "type": "uint256"
        }
      ],
      "stateMutability": "view",
      "type": "function"
    },
    {
      "inputs": [
        {
          "internalType": "bytes32",
          "name": "role",
          "type": "bytes32"
        }
      ],
      "name": "getRoleAdmin",
      "outputs": [
        {
          "internalType": "bytes32",
          "name": "",
          "type": "bytes32"
        }
      ],
      "stateMutability": "view",
      "type": "function"
    },
    {
      "inputs": [
        {
          "internalType": "bytes32",
          "name": "role",
          "type": "bytes32"
        },
        {
          "internalType": "address",
          "name": "account",
          "type": "address"
        }
      ],
      "name": "grantRole",
      "outputs": [],
      "stateMutability": "nonpayable",
      "type": "function"
    },
    {
      "inputs": [
        {
          "internalType": "bytes32",
          "name": "role",
          "type": "bytes32"
        },
        {
          "internalType": "address",
          "name": "account",
          "type": "address"
        }
      ],
      "name": "hasRole",
      "outputs": [
        {
          "internalType": "bool",
          "name": "",
          "type": "bool"
        }
      ],
      "stateMutability": "view",
      "type": "function"
    },
    {
      "inputs": [
        {
          "internalType": "uint256",
          "name": "_adminFee",
          "type": "uint256"
        },
        {
          "internalType": "uint256",
          "name": "_baseProfitShare",
          "type": "uint256"
        },
        {
          "internalType": "address",
          "name": "_resolver",
          "type": "address"
        },
        {
          "internalType": "uint256",
          "name": "_liquidityCap",
          "type": "uint256"
        },
        {
          "internalType": "bool",
          "name": "_withdrawalsActivated",
          "type": "bool"
        }
      ],
      "name": "initialize",
      "outputs": [],
      "stateMutability": "nonpayable",
      "type": "function"
    },
    {
      "inputs": [],
      "name": "liquidityCap",
      "outputs": [
        {
          "internalType": "uint256",
          "name": "",
          "type": "uint256"
        }
      ],
      "stateMutability": "view",
      "type": "function"
    },
    {
      "inputs": [],
      "name": "proxiableUUID",
      "outputs": [
        {
          "internalType": "bytes32",
          "name": "",
          "type": "bytes32"
        }
      ],
      "stateMutability": "view",
      "type": "function"
    },
    {
      "inputs": [
        {
          "internalType": "bytes32",
          "name": "role",
          "type": "bytes32"
        },
        {
          "internalType": "address",
          "name": "account",
          "type": "address"
        }
      ],
      "name": "renounceRole",
      "outputs": [],
      "stateMutability": "nonpayable",
      "type": "function"
    },
    {
      "inputs": [
        {
          "internalType": "bytes32",
          "name": "role",
          "type": "bytes32"
        },
        {
          "internalType": "address",
          "name": "account",
          "type": "address"
        }
      ],
      "name": "revokeRole",
      "outputs": [],
      "stateMutability": "nonpayable",
      "type": "function"
    },
    {
      "inputs": [
        {
          "internalType": "bytes4",
          "name": "interfaceId",
          "type": "bytes4"
        }
      ],
      "name": "supportsInterface",
      "outputs": [
        {
          "internalType": "bool",
          "name": "",
          "type": "bool"
        }
      ],
      "stateMutability": "view",
      "type": "function"
    },
    {
      "inputs": [
        {
          "internalType": "uint64",
          "name": "_ownerId",
          "type": "uint64"
        },
        {
          "internalType": "address",
          "name": "_pool",
          "type": "address"
        }
      ],
      "name": "totalFees",
      "outputs": [
        {
          "internalType": "uint256",
          "name": "",
          "type": "uint256"
        }
      ],
      "stateMutability": "view",
      "type": "function"
    },
    {
      "inputs": [
        {
          "internalType": "uint256",
          "name": "fee",
          "type": "uint256"
        }
      ],
      "name": "updateAdminFee",
      "outputs": [],
      "stateMutability": "nonpayable",
      "type": "function"
    },
    {
      "inputs": [
        {
          "internalType": "uint256",
          "name": "share",
          "type": "uint256"
        }
      ],
      "name": "updateBaseProfitShare",
      "outputs": [],
      "stateMutability": "nonpayable",
      "type": "function"
    },
    {
      "inputs": [
        {
          "internalType": "uint256",
          "name": "cap",
          "type": "uint256"
        }
      ],
      "name": "updateLiquidityCap",
      "outputs": [],
      "stateMutability": "nonpayable",
      "type": "function"
    },
    {
      "inputs": [
        {
          "internalType": "uint64",
          "name": "_ownerId",
          "type": "uint64"
        },
        {
          "internalType": "uint256",
          "name": "_profitShare",
          "type": "uint256"
        },
        {
          "internalType": "address",
          "name": "_pool",
          "type": "address"
        }
      ],
      "name": "updateProfitShare",
      "outputs": [],
      "stateMutability": "nonpayable",
      "type": "function"
    },
    {
      "inputs": [
        {
          "internalType": "address",
          "name": "newImplementation",
          "type": "address"
        }
      ],
      "name": "upgradeTo",
      "outputs": [],
      "stateMutability": "nonpayable",
      "type": "function"
    },
    {
      "inputs": [
        {
          "internalType": "address",
          "name": "newImplementation",
          "type": "address"
        },
        {
          "internalType": "bytes",
          "name": "data",
          "type": "bytes"
        }
      ],
      "name": "upgradeToAndCall",
      "outputs": [],
      "stateMutability": "payable",
      "type": "function"
    },
    {
      "inputs": [],
      "name": "version",
      "outputs": [
        {
          "internalType": "string",
          "name": "",
          "type": "string"
        }
      ],
      "stateMutability": "pure",
      "type": "function"
    },
    {
      "inputs": [],
      "name": "withdrawalsActivated",
      "outputs": [
        {
          "internalType": "bool",
          "name": "",
          "type": "bool"
        }
      ],
      "stateMutability": "view",
      "type": "function"
    }
  ],
  "numDeployments": 1,
  "solcInputHash": "715747b106f662a0794fb6bd31843d93",
  "bytecode": "0x60a06040523060805234801561001457600080fd5b50608051611e5261004c60003960008181610561015281816105a10152818161081c0152818161085c01526108d40152611e526000f3fe60806040526004361061011b5760003560e01c806301ffc9a71461012057806306667cf414610156578063248a9ca3146101785780632f2ff15d146101a55780632f5fe2de146101c557806336568abe146101db5780633659cfe6146101fb57806345d2252b1461021b5780634894f2081461023b5780634f1ef2861461025b57806352d1902d1461026e57806354fd4d501461028357806376687d3d146102b45780637e061252146102ca57806391d14854146102ea578063a0be06f91461030a578063a217fddf14610320578063a41c8db014610335578063aaf10f4214610355578063acae275814610377578063c8c7624314610397578063cff1b6ef146103ac578063d547741f146103cc578063fc8894ce146103ec575b600080fd5b34801561012c57600080fd5b5061014061013b3660046113ac565b610406565b60405161014d91906113d7565b60405180910390f35b34801561016257600080fd5b506101766101713660046113f6565b61043d565b005b34801561018457600080fd5b506101986101933660046113f6565b6104e2565b60405161014d919061141d565b3480156101b157600080fd5b506101766101c0366004611450565b6104f7565b3480156101d157600080fd5b5061019860fc5481565b3480156101e757600080fd5b506101766101f6366004611450565b610518565b34801561020757600080fd5b5061017661021636600461148d565b610557565b34801561022757600080fd5b506101766102363660046114c8565b61061f565b34801561024757600080fd5b50610198610256366004611518565b6107df565b61017661026936600461163f565b610812565b34801561027a57600080fd5b506101986108c7565b34801561028f57600080fd5b506040805180820182526002815261763160f01b6020820152905161014d91906116e4565b3480156102c057600080fd5b5061019860fd5481565b3480156102d657600080fd5b506101986102e5366004611518565b610924565b3480156102f657600080fd5b50610140610305366004611450565b61094b565b34801561031657600080fd5b5061019860fb5481565b34801561032c57600080fd5b50610198600081565b34801561034157600080fd5b506101766103503660046113f6565b610976565b34801561036157600080fd5b5061036a610a18565b60405161014d91906116fe565b34801561038357600080fd5b5061017661039236600461171f565b610a27565b3480156103a357600080fd5b50610176610bb2565b3480156103b857600080fd5b506101766103c73660046113f6565b610c43565b3480156103d857600080fd5b506101766103e7366004611450565b610cdc565b3480156103f857600080fd5b5060fe546101409060ff1681565b60006001600160e01b03198216637965db0b60e01b148061043757506301ffc9a760e01b6001600160e01b03198316145b92915050565b610455600080516020611dfd8339815191523361094b565b61047257604051633006171960e21b815260040160405180910390fd5b600081118015610484575060fd548111155b156104a257604051635435b28960e11b815260040160405180910390fd5b60fd8190556040517f782d45b27db81dc2e649e3b4d218938507eea0ca083723872dd11e849d218a24906104d790839061141d565b60405180910390a150565b60009081526065602052604090206001015490565b610500826104e2565b61050981610cf8565b6105138383610d02565b505050565b6001600160a01b03811633146105495760405162461bcd60e51b8152600401610540906117e6565b60405180910390fd5b6105538282610d88565b5050565b6001600160a01b037f000000000000000000000000000000000000000000000000000000000000000016300361059f5760405162461bcd60e51b81526004016105409061182d565b7f00000000000000000000000000000000000000000000000000000000000000006001600160a01b03166105d1610def565b6001600160a01b0316146105f75760405162461bcd60e51b815260040161054090611874565b61060081610e0b565b6040805160008082526020820190925261061c91839190610e40565b50565b610637600080516020611dfd8339815191523361094b565b1580156106cc575060fe60019054906101000a90046001600160a01b03166001600160a01b0316635ab1bd536040518163ffffffff1660e01b8152600401602060405180830381865afa158015610692573d6000803e3d6000fd5b505050506040513d601f19601f820116820180604052508101906106b6919061188f565b6001600160a01b0316336001600160a01b031614155b156106ea57604051633006171960e21b815260040160405180910390fd5b600083826040516020016106ff9291906118f6565b604051602081830303815290604052805190602001209050826000036107605760fc54600082815260ff602052604080822083905551600080516020611d7683398151915292610753928892909190611943565b60405180910390a16107d9565b600081815260ff6020526040902054611f4084118061077e57508084145b1561079c57604051635435b28960e11b815260040160405180910390fd5b600082815260ff60205260409081902085905551600080516020611d76833981519152906107cf9087908490889061196b565b60405180910390a1505b50505050565b600060fb5460ff60006107f28686610f22565b81526020019081526020016000205461080b919061199c565b9392505050565b6001600160a01b037f000000000000000000000000000000000000000000000000000000000000000016300361085a5760405162461bcd60e51b81526004016105409061182d565b7f00000000000000000000000000000000000000000000000000000000000000006001600160a01b031661088c610def565b6001600160a01b0316146108b25760405162461bcd60e51b815260040161054090611874565b6108bb82610e0b565b61055382826001610e40565b6000306001600160a01b037f000000000000000000000000000000000000000000000000000000000000000016146109115760405162461bcd60e51b815260040161054090611a04565b50600080516020611db683398151915290565b600060ff60006109348585610f22565b815260200190815260200160002054905092915050565b60009182526065602090815260408084206001600160a01b0393909316845291905290205460ff1690565b61098e600080516020611dfd8339815191523361094b565b6109ab57604051633006171960e21b815260040160405180910390fd5b611f408111806109b9575080155b806109c5575060fc5481145b156109e357604051635435b28960e11b815260040160405180910390fd5b60fc8190556040517f58b30063619e1466be35a635d1039964daf50a0007199680346dc2418258988d906104d790839061141d565b6000610a22610def565b905090565b600054610100900460ff1615808015610a475750600054600160ff909116105b80610a685750610a5630610f55565b158015610a68575060005460ff166001145b610a845760405162461bcd60e51b815260040161054090611a5f565b6000805460ff191660011790558015610aa7576000805461ff0019166101001790555b610aaf610f64565b610ab7610f64565b6107d0861180610ac85750611f4085115b15610ae657604051635435b28960e11b815260040160405180910390fd5b60fb86905560fc85905560fd83905560fe80546001600160a81b031916831515610100600160a81b031916176101006001600160a01b03871602179055610b2e600033610f8d565b610b46600080516020611dfd833981519152336104f7565b610b5f600080516020611dfd8339815191526000610f97565b8015610baa576000805461ff00191690556040517f7f26b83ff96e1f2b6a682f133852f6798a09c465da95921460cefb384740249890610ba190600190611a83565b60405180910390a15b505050505050565b610bca600080516020611dfd8339815191523361094b565b610be757604051633006171960e21b815260040160405180910390fd5b60fe5460ff1615610c0b57604051635435b28960e11b815260040160405180910390fd5b60fe805460ff191660011790556040517f12077f0b1eb3caac626caf716692ef1d49e092fc41004414e4cc428168e0057c90600090a1565b610c5b600080516020611dfd8339815191523361094b565b610c7857604051633006171960e21b815260040160405180910390fd5b6107d0811180610c89575060fb5481145b15610ca757604051635435b28960e11b815260040160405180910390fd5b60fb8190556040517f77d4f2c15f544d8498b315fe67fd998d2b98b72a692adfb0e2eb0eced520a9b7906104d790839061141d565b610ce5826104e2565b610cee81610cf8565b6105138383610d88565b61061c8133610fea565b610d0c828261094b565b6105535760008281526065602090815260408083206001600160a01b03851684529091529020805460ff19166001179055610d443390565b6001600160a01b0316816001600160a01b0316837f2f8788117e7eff1d82e926ec794901d17c78024a50270940304540a733656f0d60405160405180910390a45050565b610d92828261094b565b156105535760008281526065602090815260408083206001600160a01b0385168085529252808320805460ff1916905551339285917ff6391f5c32d9c69d2a47ea670b442974b53935d1edc7fd64eb21e047a839171b9190a45050565b600080516020611db6833981519152546001600160a01b031690565b610e23600080516020611dfd8339815191523361094b565b61061c57604051633006171960e21b815260040160405180910390fd5b7f4910fdfa16fed3260ed0e7147f7cc6da11a60208b5b9406d12a635614ffd91435460ff1615610e735761051383611043565b826001600160a01b03166352d1902d6040518163ffffffff1660e01b8152600401602060405180830381865afa925050508015610ecd575060408051601f3d908101601f19168201909252610eca91810190611a9c565b60015b610ee95760405162461bcd60e51b815260040161054090611b08565b600080516020611db68339815191528114610f165760405162461bcd60e51b815260040161054090611b5e565b50610513838383611097565b60008282604051602001610f379291906118f6565b60405160208183030381529060405280519060200120905092915050565b6001600160a01b03163b151590565b600054610100900460ff16610f8b5760405162461bcd60e51b815260040161054090611bb6565b565b6105538282610d02565b6000610fa2836104e2565b600084815260656020526040808220600101859055519192508391839186917fbd79b86ffe0ab8e8776151514217cd7cacd52c909f66475c3af44e129f0b00ff9190a4505050565b610ff4828261094b565b61055357611001816110bc565b61100c8360206110ce565b60405160200161101d929190611be8565b60408051601f198184030181529082905262461bcd60e51b8252610540916004016116e4565b61104c81610f55565b6110685760405162461bcd60e51b815260040161054090611c84565b600080516020611db683398151915280546001600160a01b0319166001600160a01b0392909216919091179055565b6110a083611239565b6000825111806110ad5750805b15610513576107d98383611279565b60606104376001600160a01b03831660145b606060006110dd836002611c94565b6110e890600261199c565b6001600160401b038111156110ff576110ff611544565b6040519080825280601f01601f191660200182016040528015611129576020820181803683370190505b509050600360fc1b8160008151811061114457611144611cb3565b60200101906001600160f81b031916908160001a905350600f60fb1b8160018151811061117357611173611cb3565b60200101906001600160f81b031916908160001a9053506000611197846002611c94565b6111a290600161199c565b90505b600181111561121a576f181899199a1a9b1b9c1cb0b131b232b360811b85600f16601081106111d6576111d6611cb3565b1a60f81b8282815181106111ec576111ec611cb3565b60200101906001600160f81b031916908160001a90535060049490941c9361121381611cc9565b90506111a5565b50831561080b5760405162461bcd60e51b815260040161054090611d15565b61124281611043565b6040516001600160a01b038216907fbc7cd75a20ee27fd9adebab32041f755214dbc6bffa90cc0225b39da2e5c2d3b90600090a250565b606061080b8383604051806060016040528060278152602001611dd6602791396060600080856001600160a01b0316856040516112b69190611d25565b600060405180830381855af49150503d80600081146112f1576040519150601f19603f3d011682016040523d82523d6000602084013e6112f6565b606091505b509150915061130786838387611311565b9695505050505050565b6060831561134e5782516000036113475761132b85610f55565b6113475760405162461bcd60e51b815260040161054090611d65565b5081611358565b6113588383611360565b949350505050565b8151156113705781518083602001fd5b8060405162461bcd60e51b815260040161054091906116e4565b6001600160e01b031981165b811461061c57600080fd5b80356104378161138a565b6000602082840312156113c1576113c1600080fd5b600061135884846113a1565b8015155b82525050565b6020810161043782846113cd565b80611396565b8035610437816113e5565b60006020828403121561140b5761140b600080fd5b600061135884846113eb565b806113d1565b602081016104378284611417565b60006001600160a01b038216610437565b6113968161142b565b80356104378161143c565b6000806040838503121561146657611466600080fd5b600061147285856113eb565b925050602061148385828601611445565b9150509250929050565b6000602082840312156114a2576114a2600080fd5b60006113588484611445565b6001600160401b038116611396565b8035610437816114ae565b6000806000606084860312156114e0576114e0600080fd5b60006114ec86866114bd565b93505060206114fd868287016113eb565b925050604061150e86828701611445565b9150509250925092565b6000806040838503121561152e5761152e600080fd5b600061147285856114bd565b601f01601f191690565b634e487b7160e01b600052604160045260246000fd5b6115638261153a565b81018181106001600160401b038211171561158057611580611544565b6040525050565b600061159260405190565b905061159e828261155a565b919050565b60006001600160401b038211156115bc576115bc611544565b6115c58261153a565b60200192915050565b82818337506000910152565b60006115ed6115e8846115a3565b611587565b90508281526020810184848401111561160857611608600080fd5b6116138482856115ce565b509392505050565b600082601f83011261162f5761162f600080fd5b81356113588482602086016115da565b6000806040838503121561165557611655600080fd5b60006116618585611445565b92505060208301356001600160401b0381111561168057611680600080fd5b6114838582860161161b565b60005b838110156116a757818101518382015260200161168f565b50506000910152565b60006116ba825190565b8084526020840193506116d181856020860161168c565b6116da8161153a565b9093019392505050565b6020808252810161080b81846116b0565b6113d18161142b565b6020810161043782846116f5565b801515611396565b80356104378161170c565b600080600080600060a0868803121561173a5761173a600080fd5b600061174688886113eb565b9550506020611757888289016113eb565b945050604061176888828901611445565b9350506060611779888289016113eb565b925050608061178a88828901611714565b9150509295509295909350565b602f81526000602082017f416363657373436f6e74726f6c3a2063616e206f6e6c792072656e6f756e636581526e103937b632b9903337b91039b2b63360891b602082015291505b5060400190565b6020808252810161043781611797565b602c8152600060208201600080516020611d9683398151915281526b19195b1959d85d1958d85b1b60a21b602082015291506117df565b60208082528101610437816117f6565b602c8152600060208201600080516020611d9683398151915281526b6163746976652070726f787960a01b602082015291506117df565b602080825281016104378161183d565b80516104378161143c565b6000602082840312156118a4576118a4600080fd5b60006113588484611884565b60006104378260c01b90565b6113d16001600160401b0382166118b0565b60006104378260601b90565b6000610437826118ce565b6113d16118f18261142b565b6118da565b600061190282856118bc565b60088201915061191282846118e5565b5060140192915050565b6001600160401b0381166113d1565b60006104376119378381565b90565b6113d18161192b565b60608101611951828661191c565b61195e602083018561193a565b6113586040830184611417565b60608101611979828661191c565b61195e6020830185611417565b634e487b7160e01b600052601160045260246000fd5b8082018082111561043757610437611986565b603881526000602082017f555550535570677261646561626c653a206d757374206e6f742062652063616c8152771b1959081d1a1c9bdd59da0819195b1959d85d1958d85b1b60421b602082015291506117df565b60208082528101610437816119af565b602e81526000602082017f496e697469616c697a61626c653a20636f6e747261637420697320616c72656181526d191e481a5b9a5d1a585b1a5e995960921b602082015291506117df565b6020808252810161043781611a14565b600060ff8216610437565b6113d181611a6f565b602081016104378284611a7a565b8051610437816113e5565b600060208284031215611ab157611ab1600080fd5b60006113588484611a91565b602e81526000602082017f45524331393637557067726164653a206e657720696d706c656d656e7461746981526d6f6e206973206e6f74205555505360901b602082015291506117df565b6020808252810161043781611abd565b602981526000602082017f45524331393637557067726164653a20756e737570706f727465642070726f788152681a58589b195555525160ba1b602082015291506117df565b6020808252810161043781611b18565b602b81526000602082017f496e697469616c697a61626c653a20636f6e7472616374206973206e6f74206981526a6e697469616c697a696e6760a81b602082015291506117df565b6020808252810161043781611b6e565b6000611bd0825190565b611bde81856020860161168c565b9290920192915050565b76020b1b1b2b9b9a1b7b73a3937b61d1030b1b1b7bab73a1604d1b81526017016000611c148285611bc6565b7001034b99036b4b9b9b4b733903937b6329607d1b815260110191506113588284611bc6565b602d81526000602082017f455243313936373a206e657720696d706c656d656e746174696f6e206973206e81526c1bdd08184818dbdb9d1c9858dd609a1b602082015291506117df565b6020808252810161043781611c3a565b818102808215838204851417611cac57611cac611986565b5092915050565b634e487b7160e01b600052603260045260246000fd5b600081611cd857611cd8611986565b506000190190565b60208082527f537472696e67733a20686578206c656e67746820696e73756666696369656e74910190815260005b5060200190565b6020808252810161043781611ce0565b600061080b8284611bc6565b601d81526000602082017f416464726573733a2063616c6c20746f206e6f6e2d636f6e747261637400000081529150611d0e565b6020808252810161043781611d3156fe59f0a5f4bb5b24cec88f1c296d6ac8bd6da5d5fd175ea0549d17f43082c470ea46756e6374696f6e206d7573742062652063616c6c6564207468726f75676820360894a13ba1a3210667c828492db98dca3e2076cc3735a920a3ca505d382bbc416464726573733a206c6f772d6c6576656c2064656c65676174652063616c6c206661696c6564ebd0e6082671a30155ef8f798e93425787f4f845cb16c2cd963888c943c6d5e5a2646970667358221220627640ea16e100a7cb91621e389c21b577e08067b2850c1d5e11619e23a6798164736f6c63430008110033",
  "devdoc": {
    "kind": "dev",
    "methods": {
      "activateWithdrawals()": {
        "details": "This is a one way transaction that needs to take place after the initial activation period"
      },
      "getRoleAdmin(bytes32)": {
        "details": "Returns the admin role that controls `role`. See {grantRole} and {revokeRole}. To change a role's admin, use {_setRoleAdmin}."
      },
      "grantRole(bytes32,address)": {
        "details": "Grants `role` to `account`. If `account` had not been already granted `role`, emits a {RoleGranted} event. Requirements: - the caller must have ``role``'s admin role. May emit a {RoleGranted} event."
      },
      "hasRole(bytes32,address)": {
        "details": "Returns `true` if `account` has been granted `role`."
      },
      "initialize(uint256,uint256,address,uint256,bool)": {
        "details": "Contract initializer function.",
        "params": {
          "_adminFee": "Admin fee percentage",
          "_baseProfitShare": "Base profit sharing percentage"
        }
      },
      "proxiableUUID()": {
        "details": "Implementation of the ERC1822 {proxiableUUID} function. This returns the storage slot used by the implementation. It is used to validate the implementation's compatibility when performing an upgrade. IMPORTANT: A proxy pointing at a proxiable contract should not be considered proxiable itself, because this risks bricking a proxy that upgrades to it, by delegating to itself until out of gas. Thus it is critical that this function revert if invoked through a proxy. This is guaranteed by the `notDelegated` modifier."
      },
      "renounceRole(bytes32,address)": {
        "details": "Revokes `role` from the calling account. Roles are often managed via {grantRole} and {revokeRole}: this function's purpose is to provide a mechanism for accounts to lose their privileges if they are compromised (such as when a trusted device is misplaced). If the calling account had been revoked `role`, emits a {RoleRevoked} event. Requirements: - the caller must be `account`. May emit a {RoleRevoked} event."
      },
      "revokeRole(bytes32,address)": {
        "details": "Revokes `role` from `account`. If `account` had been granted `role`, emits a {RoleRevoked} event. Requirements: - the caller must have ``role``'s admin role. May emit a {RoleRevoked} event."
      },
      "supportsInterface(bytes4)": {
        "details": "See {IERC165-supportsInterface}."
      },
      "totalFees(uint64,address)": {
        "params": {
          "_ownerId": "Storage Provider owner ID",
          "_pool": "Liquid Staking contract address"
        }
      },
      "updateAdminFee(uint256)": {
        "details": "Make sure that admin fee is not greater than 20%",
        "params": {
          "fee": "New admin fee"
        }
      },
      "updateBaseProfitShare(uint256)": {
        "details": "Make sure that profit sharing is not greater than 80%",
        "params": {
          "share": "New base profit sharing ratio"
        }
      },
      "updateLiquidityCap(uint256)": {
        "details": "Make sure that new liquidity cap is not equal and higher than the prevous cap",
        "params": {
          "cap": "New admin liquidity cap"
        }
      },
      "updateProfitShare(uint64,uint256,address)": {
        "details": "Updates profit sharing requirements for SP with `_ownerId` by `_profitShare` percentage",
        "params": {
          "_ownerId": "Storage provider owner ID",
          "_pool": "Address of liquid staking pool",
          "_profitShare": "Percentage of profit sharing"
        }
      },
      "upgradeTo(address)": {
        "custom:oz-upgrades-unsafe-allow-reachable": "delegatecall",
        "details": "Upgrade the implementation of the proxy to `newImplementation`. Calls {_authorizeUpgrade}. Emits an {Upgraded} event."
      },
      "upgradeToAndCall(address,bytes)": {
        "custom:oz-upgrades-unsafe-allow-reachable": "delegatecall",
        "details": "Upgrade the implementation of the proxy to `newImplementation`, and subsequently execute the function call encoded in `data`. Calls {_authorizeUpgrade}. Emits an {Upgraded} event."
      }
    },
    "title": "LiquidStaking Controller allows to manage the parameters of Liquid Staking contract",
    "version": 1
  },
  "userdoc": {
    "events": {
      "ProfitShareUpdate(uint64,uint256,uint256)": {
        "notice": "Emitted when profit sharing is update for SP"
      },
      "UpdateAdminFee(uint256)": {
        "notice": "Emitted when admin fee is updated"
      },
      "UpdateBaseProfitShare(uint256)": {
        "notice": "Emitted when base profit sharing is updated"
      },
      "UpdateLiquidityCap(uint256)": {
        "notice": "Emitted when liquidity cap is updated"
      },
      "WithdrawalsActivated()": {
        "notice": "Emitted when withdrawals are activated"
      }
    },
    "kind": "user",
    "methods": {
      "activateWithdrawals()": {
        "notice": "Activates withdrawals for liquid staking protocol"
      },
      "getImplementation()": {
        "notice": "Returns the implementation contract"
      },
      "getProfitShares(uint64,address)": {
        "notice": "Returns the profit share for SP at the specific `_pool` by `_ownerId`"
      },
      "liquidityCap()": {
        "notice": "Returns the liquidity cap for Liquid Staking"
      },
      "totalFees(uint64,address)": {
        "notice": "Returns total amount of fees held by LSP for a specific SP with `_ownerId`"
      },
      "updateAdminFee(uint256)": {
        "notice": "Updates admin fee for the protocol revenue"
      },
      "updateBaseProfitShare(uint256)": {
        "notice": "Updates base profit sharing ratio"
      },
      "updateLiquidityCap(uint256)": {
        "notice": "Updates liquidity cap for liquid staking protocol"
      },
      "updateProfitShare(uint64,uint256,address)": {
        "notice": "Only triggered by Liquid Staking admin or registry contract while registering SP"
      },
      "version()": {
        "notice": "Returns the version of clFIL token contract"
      },
      "withdrawalsActivated()": {
        "notice": "Returns wether witdrawals are activated"
      }
    },
    "version": 1
  },
  "storageLayout": {
    "storage": [
      {
        "astId": 16433,
        "contract": "contracts/LiquidStakingController.sol:LiquidStakingController",
        "label": "_initialized",
        "offset": 0,
        "slot": "0",
        "type": "t_uint8"
      },
      {
        "astId": 16436,
        "contract": "contracts/LiquidStakingController.sol:LiquidStakingController",
        "label": "_initializing",
        "offset": 1,
        "slot": "0",
        "type": "t_bool"
      },
      {
        "astId": 18313,
        "contract": "contracts/LiquidStakingController.sol:LiquidStakingController",
        "label": "__gap",
        "offset": 0,
        "slot": "1",
        "type": "t_array(t_uint256)50_storage"
      },
      {
        "astId": 18696,
        "contract": "contracts/LiquidStakingController.sol:LiquidStakingController",
        "label": "__gap",
        "offset": 0,
        "slot": "51",
        "type": "t_array(t_uint256)50_storage"
      },
      {
        "astId": 15392,
        "contract": "contracts/LiquidStakingController.sol:LiquidStakingController",
        "label": "_roles",
        "offset": 0,
        "slot": "101",
        "type": "t_mapping(t_bytes32,t_struct(RoleData)15387_storage)"
      },
      {
        "astId": 15687,
        "contract": "contracts/LiquidStakingController.sol:LiquidStakingController",
        "label": "__gap",
        "offset": 0,
        "slot": "102",
        "type": "t_array(t_uint256)49_storage"
      },
      {
        "astId": 16415,
        "contract": "contracts/LiquidStakingController.sol:LiquidStakingController",
        "label": "__gap",
        "offset": 0,
        "slot": "151",
        "type": "t_array(t_uint256)50_storage"
      },
      {
        "astId": 16730,
        "contract": "contracts/LiquidStakingController.sol:LiquidStakingController",
        "label": "__gap",
        "offset": 0,
        "slot": "201",
        "type": "t_array(t_uint256)50_storage"
      },
      {
        "astId": 910,
        "contract": "contracts/LiquidStakingController.sol:LiquidStakingController",
        "label": "adminFee",
        "offset": 0,
        "slot": "251",
        "type": "t_uint256"
      },
      {
        "astId": 912,
        "contract": "contracts/LiquidStakingController.sol:LiquidStakingController",
        "label": "baseProfitShare",
        "offset": 0,
        "slot": "252",
        "type": "t_uint256"
      },
      {
        "astId": 914,
        "contract": "contracts/LiquidStakingController.sol:LiquidStakingController",
        "label": "liquidityCap",
        "offset": 0,
        "slot": "253",
        "type": "t_uint256"
      },
      {
        "astId": 916,
        "contract": "contracts/LiquidStakingController.sol:LiquidStakingController",
        "label": "withdrawalsActivated",
        "offset": 0,
        "slot": "254",
        "type": "t_bool"
      },
      {
        "astId": 919,
        "contract": "contracts/LiquidStakingController.sol:LiquidStakingController",
        "label": "resolver",
        "offset": 1,
        "slot": "254",
        "type": "t_contract(IResolverClient)6057"
      },
      {
        "astId": 923,
        "contract": "contracts/LiquidStakingController.sol:LiquidStakingController",
        "label": "profitShares",
        "offset": 0,
        "slot": "255",
        "type": "t_mapping(t_bytes32,t_uint256)"
      }
    ],
    "types": {
      "t_address": {
        "encoding": "inplace",
        "label": "address",
        "numberOfBytes": "20"
      },
      "t_array(t_uint256)49_storage": {
        "base": "t_uint256",
        "encoding": "inplace",
        "label": "uint256[49]",
        "numberOfBytes": "1568"
      },
      "t_array(t_uint256)50_storage": {
        "base": "t_uint256",
        "encoding": "inplace",
        "label": "uint256[50]",
        "numberOfBytes": "1600"
      },
      "t_bool": {
        "encoding": "inplace",
        "label": "bool",
        "numberOfBytes": "1"
      },
      "t_bytes32": {
        "encoding": "inplace",
        "label": "bytes32",
        "numberOfBytes": "32"
      },
      "t_contract(IResolverClient)6057": {
        "encoding": "inplace",
        "label": "contract IResolverClient",
        "numberOfBytes": "20"
      },
      "t_mapping(t_address,t_bool)": {
        "encoding": "mapping",
        "key": "t_address",
        "label": "mapping(address => bool)",
        "numberOfBytes": "32",
        "value": "t_bool"
      },
      "t_mapping(t_bytes32,t_struct(RoleData)15387_storage)": {
        "encoding": "mapping",
        "key": "t_bytes32",
        "label": "mapping(bytes32 => struct AccessControlUpgradeable.RoleData)",
        "numberOfBytes": "32",
        "value": "t_struct(RoleData)15387_storage"
      },
      "t_mapping(t_bytes32,t_uint256)": {
        "encoding": "mapping",
        "key": "t_bytes32",
        "label": "mapping(bytes32 => uint256)",
        "numberOfBytes": "32",
        "value": "t_uint256"
      },
      "t_struct(RoleData)15387_storage": {
        "encoding": "inplace",
        "label": "struct AccessControlUpgradeable.RoleData",
        "members": [
          {
            "astId": 15384,
            "contract": "contracts/LiquidStakingController.sol:LiquidStakingController",
            "label": "members",
            "offset": 0,
            "slot": "0",
            "type": "t_mapping(t_address,t_bool)"
          },
          {
            "astId": 15386,
            "contract": "contracts/LiquidStakingController.sol:LiquidStakingController",
            "label": "adminRole",
            "offset": 0,
            "slot": "1",
            "type": "t_bytes32"
          }
        ],
        "numberOfBytes": "64"
      },
      "t_uint256": {
        "encoding": "inplace",
        "label": "uint256",
        "numberOfBytes": "32"
      },
      "t_uint8": {
        "encoding": "inplace",
        "label": "uint8",
        "numberOfBytes": "1"
      }
    }
  }
}