{
  "address": "0x90c0f425D840b744e4722a5F1EFAeBF6b61fc8e6",
  "abi": [
    {
      "inputs": [],
      "name": "ActivePool",
      "type": "error"
    },
    {
      "inputs": [
        {
          "internalType": "int256",
          "name": "errorCode",
          "type": "int256"
        }
      ],
      "name": "ActorError",
      "type": "error"
    },
    {
      "inputs": [],
      "name": "ActorNotFound",
      "type": "error"
    },
    {
      "inputs": [],
      "name": "AllocationOverflow",
      "type": "error"
    },
    {
      "inputs": [],
      "name": "AlreadyApproved",
      "type": "error"
    },
    {
      "inputs": [],
      "name": "FailToCallActor",
      "type": "error"
    },
    {
      "inputs": [],
      "name": "FailToCallActor",
      "type": "error"
    },
    {
      "inputs": [],
      "name": "InactiveActor",
      "type": "error"
    },
    {
      "inputs": [],
      "name": "InactivePool",
      "type": "error"
    },
    {
      "inputs": [],
      "name": "InactiveSP",
      "type": "error"
    },
    {
      "inputs": [],
      "name": "InvalidAccess",
      "type": "error"
    },
    {
      "inputs": [
        {
          "internalType": "CommonTypes.FilActorId",
          "name": "actorId",
          "type": "uint64"
        }
      ],
      "name": "InvalidActorID",
      "type": "error"
    },
    {
      "inputs": [],
      "name": "InvalidAddress",
      "type": "error"
    },
    {
      "inputs": [],
      "name": "InvalidAllocation",
      "type": "error"
    },
    {
      "inputs": [],
      "name": "InvalidBeneficiary",
      "type": "error"
    },
    {
      "inputs": [
        {
          "internalType": "uint64",
          "name": "",
          "type": "uint64"
        }
      ],
      "name": "InvalidCodec",
      "type": "error"
    },
    {
      "inputs": [],
      "name": "InvalidDailyAllocation",
      "type": "error"
    },
    {
      "inputs": [],
      "name": "InvalidOwner",
      "type": "error"
    },
    {
      "inputs": [],
      "name": "InvalidParams",
      "type": "error"
    },
    {
      "inputs": [],
      "name": "InvalidRepayment",
      "type": "error"
    },
    {
      "inputs": [],
      "name": "InvalidResponseLength",
      "type": "error"
    },
    {
      "inputs": [],
      "name": "NonSyncedBeneficiary",
      "type": "error"
    },
    {
      "inputs": [
        {
          "internalType": "uint256",
          "name": "balance",
          "type": "uint256"
        },
        {
          "internalType": "uint256",
          "name": "value",
          "type": "uint256"
        }
      ],
      "name": "NotEnoughBalance",
      "type": "error"
    },
    {
      "inputs": [],
      "name": "OwnerProposed",
      "type": "error"
    },
    {
      "inputs": [],
      "name": "RegisteredSP",
      "type": "error"
    },
    {
      "anonymous": false,
      "inputs": [
        {
          "indexed": false,
          "internalType": "address",
          "name": "previousAdmin",
          "type": "address"
        },
        {
          "indexed": false,
          "internalType": "address",
          "name": "newAdmin",
          "type": "address"
        }
      ],
      "name": "AdminChanged",
      "type": "event"
    },
    {
      "anonymous": false,
      "inputs": [
        {
          "indexed": true,
          "internalType": "address",
          "name": "beacon",
          "type": "address"
        }
      ],
      "name": "BeaconUpgraded",
      "type": "event"
    },
    {
      "anonymous": false,
      "inputs": [
        {
          "indexed": false,
          "internalType": "address",
          "name": "collateral",
          "type": "address"
        }
      ],
      "name": "CollateralAddressUpdated",
      "type": "event"
    },
    {
      "anonymous": false,
      "inputs": [
        {
          "indexed": false,
          "internalType": "uint8",
          "name": "version",
          "type": "uint8"
        }
      ],
      "name": "Initialized",
      "type": "event"
    },
    {
      "anonymous": false,
      "inputs": [
        {
          "indexed": false,
          "internalType": "address",
          "name": "pool",
          "type": "address"
        }
      ],
      "name": "LiquidStakingPoolRegistered",
      "type": "event"
    },
    {
      "anonymous": false,
      "inputs": [
        {
          "indexed": true,
          "internalType": "bytes32",
          "name": "role",
          "type": "bytes32"
        },
        {
          "indexed": true,
          "internalType": "bytes32",
          "name": "previousAdminRole",
          "type": "bytes32"
        },
        {
          "indexed": true,
          "internalType": "bytes32",
          "name": "newAdminRole",
          "type": "bytes32"
        }
      ],
      "name": "RoleAdminChanged",
      "type": "event"
    },
    {
      "anonymous": false,
      "inputs": [
        {
          "indexed": true,
          "internalType": "bytes32",
          "name": "role",
          "type": "bytes32"
        },
        {
          "indexed": true,
          "internalType": "address",
          "name": "account",
          "type": "address"
        },
        {
          "indexed": true,
          "internalType": "address",
          "name": "sender",
          "type": "address"
        }
      ],
      "name": "RoleGranted",
      "type": "event"
    },
    {
      "anonymous": false,
      "inputs": [
        {
          "indexed": true,
          "internalType": "bytes32",
          "name": "role",
          "type": "bytes32"
        },
        {
          "indexed": true,
          "internalType": "address",
          "name": "account",
          "type": "address"
        },
        {
          "indexed": true,
          "internalType": "address",
          "name": "sender",
          "type": "address"
        }
      ],
      "name": "RoleRevoked",
      "type": "event"
    },
    {
      "anonymous": false,
      "inputs": [
        {
          "indexed": false,
          "internalType": "uint64",
          "name": "ownerId",
          "type": "uint64"
        },
        {
          "indexed": false,
          "internalType": "uint256",
          "name": "rewards",
          "type": "uint256"
        }
      ],
      "name": "StorageProviderAccruedRewards",
      "type": "event"
    },
    {
      "anonymous": false,
      "inputs": [
        {
          "indexed": false,
          "internalType": "uint64",
          "name": "ownerId",
          "type": "uint64"
        },
        {
          "indexed": false,
          "internalType": "uint256",
          "name": "allocationLimit",
          "type": "uint256"
        },
        {
          "indexed": false,
          "internalType": "uint256",
          "name": "dailyAllocation",
          "type": "uint256"
        }
      ],
      "name": "StorageProviderAllocationLimitRequest",
      "type": "event"
    },
    {
      "anonymous": false,
      "inputs": [
        {
          "indexed": false,
          "internalType": "uint64",
          "name": "ownerId",
          "type": "uint64"
        },
        {
          "indexed": false,
          "internalType": "uint256",
          "name": "allocationLimit",
          "type": "uint256"
        },
        {
          "indexed": false,
          "internalType": "uint256",
          "name": "dailyAllocation",
          "type": "uint256"
        },
        {
          "indexed": false,
          "internalType": "uint256",
          "name": "repayment",
          "type": "uint256"
        }
      ],
      "name": "StorageProviderAllocationLimitUpdate",
      "type": "event"
    },
    {
      "anonymous": false,
      "inputs": [
        {
          "indexed": false,
          "internalType": "uint64",
          "name": "ownerId",
          "type": "uint64"
        },
        {
          "indexed": false,
          "internalType": "uint256",
          "name": "usedAllocation",
          "type": "uint256"
        }
      ],
      "name": "StorageProviderAllocationUsed",
      "type": "event"
    },
    {
      "anonymous": false,
      "inputs": [
        {
          "indexed": false,
          "internalType": "uint64",
          "name": "ownerId",
          "type": "uint64"
        }
      ],
      "name": "StorageProviderBeneficiaryAddressAccepted",
      "type": "event"
    },
    {
      "anonymous": false,
      "inputs": [
        {
          "indexed": false,
          "internalType": "address",
          "name": "beneficiaryAddress",
          "type": "address"
        }
      ],
      "name": "StorageProviderBeneficiaryAddressUpdated",
      "type": "event"
    },
    {
      "anonymous": false,
      "inputs": [
        {
          "indexed": false,
          "internalType": "uint64",
          "name": "ownerId",
          "type": "uint64"
        }
      ],
      "name": "StorageProviderDeactivated",
      "type": "event"
    },
    {
      "anonymous": false,
      "inputs": [
        {
          "indexed": false,
          "internalType": "uint64",
          "name": "ownerId",
          "type": "uint64"
        },
        {
          "indexed": false,
          "internalType": "int64",
          "name": "lastEpoch",
          "type": "int64"
        }
      ],
      "name": "StorageProviderLastEpochUpdate",
      "type": "event"
    },
    {
      "anonymous": false,
      "inputs": [
        {
          "indexed": false,
          "internalType": "uint64",
          "name": "ownerId",
          "type": "uint64"
        },
        {
          "indexed": false,
          "internalType": "uint64",
          "name": "miner",
          "type": "uint64"
        }
      ],
      "name": "StorageProviderMinerAddressUpdate",
      "type": "event"
    },
    {
      "anonymous": false,
      "inputs": [
        {
          "indexed": false,
          "internalType": "uint64",
          "name": "ownerId",
          "type": "uint64"
        },
        {
          "indexed": false,
          "internalType": "uint256",
          "name": "restakingRatio",
          "type": "uint256"
        },
        {
          "indexed": false,
          "internalType": "address",
          "name": "restakingAddress",
          "type": "address"
        }
      ],
      "name": "StorageProviderMinerRestakingRatioUpdate",
      "type": "event"
    },
    {
      "anonymous": false,
      "inputs": [
        {
          "indexed": false,
          "internalType": "uint64",
          "name": "ownerId",
          "type": "uint64"
        },
        {
          "indexed": false,
          "internalType": "uint64",
          "name": "minerId",
          "type": "uint64"
        },
        {
          "indexed": false,
          "internalType": "uint256",
          "name": "allocationLimit",
          "type": "uint256"
        },
        {
          "indexed": false,
          "internalType": "uint256",
          "name": "dailyAllocation",
          "type": "uint256"
        },
        {
          "indexed": false,
          "internalType": "uint256",
          "name": "repayment",
          "type": "uint256"
        },
        {
          "indexed": false,
          "internalType": "int64",
          "name": "lastEpoch",
          "type": "int64"
        }
      ],
      "name": "StorageProviderOnboarded",
      "type": "event"
    },
    {
      "anonymous": false,
      "inputs": [
        {
          "indexed": false,
          "internalType": "bytes",
          "name": "owner",
          "type": "bytes"
        },
        {
          "indexed": false,
          "internalType": "uint64",
          "name": "ownerId",
          "type": "uint64"
        },
        {
          "indexed": false,
          "internalType": "uint64",
          "name": "minerId",
          "type": "uint64"
        },
        {
          "indexed": false,
          "internalType": "address",
          "name": "targetPool",
          "type": "address"
        },
        {
          "indexed": false,
          "internalType": "uint256",
          "name": "allocationLimit",
          "type": "uint256"
        },
        {
          "indexed": false,
          "internalType": "uint256",
          "name": "dailyAllocation",
          "type": "uint256"
        }
      ],
      "name": "StorageProviderRegistered",
      "type": "event"
    },
    {
      "anonymous": false,
      "inputs": [
        {
          "indexed": false,
          "internalType": "uint64",
          "name": "ownerId",
          "type": "uint64"
        },
        {
          "indexed": false,
          "internalType": "uint256",
          "name": "pledge",
          "type": "uint256"
        }
      ],
      "name": "StorageProviderRepaidPledge",
      "type": "event"
    },
    {
      "anonymous": false,
      "inputs": [
        {
          "indexed": false,
          "internalType": "uint256",
          "name": "maxAllocation",
          "type": "uint256"
        }
      ],
      "name": "UpdateMaxAllocation",
      "type": "event"
    },
    {
      "anonymous": false,
      "inputs": [
        {
          "indexed": true,
          "internalType": "address",
          "name": "implementation",
          "type": "address"
        }
      ],
      "name": "Upgraded",
      "type": "event"
    },
    {
      "inputs": [],
      "name": "DEFAULT_ADMIN_ROLE",
      "outputs": [
        {
          "internalType": "bytes32",
          "name": "",
          "type": "bytes32"
        }
      ],
      "stateMutability": "view",
      "type": "function"
    },
    {
      "inputs": [
        {
          "internalType": "uint64",
          "name": "_minerId",
          "type": "uint64"
        }
      ],
      "name": "acceptBeneficiaryAddress",
      "outputs": [],
      "stateMutability": "nonpayable",
      "type": "function"
    },
    {
      "inputs": [
        {
          "internalType": "uint64",
          "name": "",
          "type": "uint64"
        }
      ],
      "name": "allocationRequests",
      "outputs": [
        {
          "internalType": "uint256",
          "name": "allocationLimit",
          "type": "uint256"
        },
        {
          "internalType": "uint256",
          "name": "dailyAllocation",
          "type": "uint256"
        }
      ],
      "stateMutability": "view",
      "type": "function"
    },
    {
      "inputs": [
        {
          "internalType": "uint64",
          "name": "",
          "type": "uint64"
        }
      ],
      "name": "allocations",
      "outputs": [
        {
          "internalType": "uint256",
          "name": "allocationLimit",
          "type": "uint256"
        },
        {
          "internalType": "uint256",
          "name": "repayment",
          "type": "uint256"
        },
        {
          "internalType": "uint256",
          "name": "usedAllocation",
          "type": "uint256"
        },
        {
          "internalType": "uint256",
          "name": "dailyAllocation",
          "type": "uint256"
        },
        {
          "internalType": "uint256",
          "name": "accruedRewards",
          "type": "uint256"
        },
        {
          "internalType": "uint256",
          "name": "repaidPledge",
          "type": "uint256"
        }
      ],
      "stateMutability": "view",
      "type": "function"
    },
    {
      "inputs": [
        {
          "internalType": "bytes32",
          "name": "",
          "type": "bytes32"
        }
      ],
      "name": "dailyUsages",
      "outputs": [
        {
          "internalType": "uint256",
          "name": "",
          "type": "uint256"
        }
      ],
      "stateMutability": "view",
      "type": "function"
    },
    {
      "inputs": [
        {
          "internalType": "uint64",
          "name": "_minerId",
          "type": "uint64"
        }
      ],
      "name": "deactivateStorageProvider",
      "outputs": [],
      "stateMutability": "nonpayable",
      "type": "function"
    },
    {
      "inputs": [
        {
          "internalType": "uint64",
          "name": "_ownerId",
          "type": "uint64"
        }
      ],
      "name": "getAllocations",
      "outputs": [
        {
          "internalType": "uint256",
          "name": "",
          "type": "uint256"
        },
        {
          "internalType": "uint256",
          "name": "",
          "type": "uint256"
        }
      ],
      "stateMutability": "view",
      "type": "function"
    },
    {
      "inputs": [],
      "name": "getImplementation",
      "outputs": [
        {
          "internalType": "address",
          "name": "",
          "type": "address"
        }
      ],
      "stateMutability": "view",
      "type": "function"
    },
    {
      "inputs": [
        {
          "internalType": "uint64",
          "name": "_minerId",
          "type": "uint64"
        }
      ],
      "name": "getRepayment",
      "outputs": [
        {
          "internalType": "uint256",
          "name": "",
          "type": "uint256"
        }
      ],
      "stateMutability": "view",
      "type": "function"
    },
    {
      "inputs": [
        {
          "internalType": "bytes32",
          "name": "role",
          "type": "bytes32"
        }
      ],
      "name": "getRoleAdmin",
      "outputs": [
        {
          "internalType": "bytes32",
          "name": "",
          "type": "bytes32"
        }
      ],
      "stateMutability": "view",
      "type": "function"
    },
    {
      "inputs": [
        {
          "internalType": "uint64",
          "name": "_minerId",
          "type": "uint64"
        }
      ],
      "name": "getStorageProvider",
      "outputs": [
        {
          "internalType": "bool",
          "name": "",
          "type": "bool"
        },
        {
          "internalType": "address",
          "name": "",
          "type": "address"
        },
        {
          "internalType": "uint64",
          "name": "",
          "type": "uint64"
        },
        {
          "internalType": "int64",
          "name": "",
          "type": "int64"
        }
      ],
      "stateMutability": "view",
      "type": "function"
    },
    {
      "inputs": [
        {
          "internalType": "bytes32",
          "name": "role",
          "type": "bytes32"
        },
        {
          "internalType": "address",
          "name": "account",
          "type": "address"
        }
      ],
      "name": "grantRole",
      "outputs": [],
      "stateMutability": "nonpayable",
      "type": "function"
    },
    {
      "inputs": [
        {
          "internalType": "bytes32",
          "name": "role",
          "type": "bytes32"
        },
        {
          "internalType": "address",
          "name": "account",
          "type": "address"
        }
      ],
      "name": "hasRole",
      "outputs": [
        {
          "internalType": "bool",
          "name": "",
          "type": "bool"
        }
      ],
      "stateMutability": "view",
      "type": "function"
    },
    {
      "inputs": [
        {
          "internalType": "uint64",
          "name": "_minerId",
          "type": "uint64"
        },
        {
          "internalType": "uint256",
          "name": "_repaidPledge",
          "type": "uint256"
        }
      ],
      "name": "increasePledgeRepayment",
      "outputs": [],
      "stateMutability": "nonpayable",
      "type": "function"
    },
    {
      "inputs": [
        {
          "internalType": "uint64",
          "name": "_minerId",
          "type": "uint64"
        },
        {
          "internalType": "uint256",
          "name": "_accuredRewards",
          "type": "uint256"
        }
      ],
      "name": "increaseRewards",
      "outputs": [],
      "stateMutability": "nonpayable",
      "type": "function"
    },
    {
      "inputs": [
        {
          "internalType": "uint64",
          "name": "_minerId",
          "type": "uint64"
        },
        {
          "internalType": "uint256",
          "name": "_allocated",
          "type": "uint256"
        },
        {
          "internalType": "uint256",
          "name": "_timestamp",
          "type": "uint256"
        }
      ],
      "name": "increaseUsedAllocation",
      "outputs": [],
      "stateMutability": "nonpayable",
      "type": "function"
    },
    {
      "inputs": [
        {
          "internalType": "uint256",
          "name": "_maxAllocation",
          "type": "uint256"
        },
        {
          "internalType": "address",
          "name": "_resolver",
          "type": "address"
        }
      ],
      "name": "initialize",
      "outputs": [],
      "stateMutability": "nonpayable",
      "type": "function"
    },
    {
      "inputs": [
        {
          "internalType": "uint64",
          "name": "_ownerId",
          "type": "uint64"
        }
      ],
      "name": "isActiveOwner",
      "outputs": [
        {
          "internalType": "bool",
          "name": "",
          "type": "bool"
        }
      ],
      "stateMutability": "view",
      "type": "function"
    },
    {
      "inputs": [
        {
          "internalType": "address",
          "name": "_pool",
          "type": "address"
        }
      ],
      "name": "isActivePool",
      "outputs": [
        {
          "internalType": "bool",
          "name": "",
          "type": "bool"
        }
      ],
      "stateMutability": "view",
      "type": "function"
    },
    {
      "inputs": [
        {
          "internalType": "uint64",
          "name": "_minerId",
          "type": "uint64"
        }
      ],
      "name": "isActiveProvider",
      "outputs": [
        {
          "internalType": "bool",
          "name": "status",
          "type": "bool"
        }
      ],
      "stateMutability": "view",
      "type": "function"
    },
    {
      "inputs": [
        {
          "internalType": "uint64",
          "name": "_ownerId",
          "type": "uint64"
        },
        {
          "internalType": "uint64",
          "name": "_minerId",
          "type": "uint64"
        }
      ],
      "name": "isActualOwner",
      "outputs": [
        {
          "internalType": "bool",
          "name": "",
          "type": "bool"
        }
      ],
      "stateMutability": "view",
      "type": "function"
    },
    {
      "inputs": [],
      "name": "maxAllocation",
      "outputs": [
        {
          "internalType": "uint256",
          "name": "",
          "type": "uint256"
        }
      ],
      "stateMutability": "view",
      "type": "function"
    },
    {
      "inputs": [
        {
          "internalType": "uint64",
          "name": "_minerId",
          "type": "uint64"
        },
        {
          "internalType": "uint256",
          "name": "_allocationLimit",
          "type": "uint256"
        },
        {
          "internalType": "uint256",
          "name": "_dailyAllocation",
          "type": "uint256"
        },
        {
          "internalType": "uint256",
          "name": "_repayment",
          "type": "uint256"
        },
        {
          "internalType": "int64",
          "name": "_lastEpoch",
          "type": "int64"
        }
      ],
      "name": "onboardStorageProvider",
      "outputs": [],
      "stateMutability": "nonpayable",
      "type": "function"
    },
    {
      "inputs": [
        {
          "internalType": "address",
          "name": "",
          "type": "address"
        }
      ],
      "name": "pools",
      "outputs": [
        {
          "internalType": "bool",
          "name": "",
          "type": "bool"
        }
      ],
      "stateMutability": "view",
      "type": "function"
    },
    {
      "inputs": [],
      "name": "proxiableUUID",
      "outputs": [
        {
          "internalType": "bytes32",
          "name": "",
          "type": "bytes32"
        }
      ],
      "stateMutability": "view",
      "type": "function"
    },
    {
      "inputs": [
        {
          "internalType": "uint64",
          "name": "_minerId",
          "type": "uint64"
        },
        {
          "internalType": "uint256",
          "name": "_allocationLimit",
          "type": "uint256"
        },
        {
          "internalType": "uint256",
          "name": "_dailyAllocation",
          "type": "uint256"
        }
      ],
      "name": "register",
      "outputs": [],
      "stateMutability": "nonpayable",
      "type": "function"
    },
    {
      "inputs": [
        {
          "internalType": "address",
          "name": "_pool",
          "type": "address"
        }
      ],
      "name": "registerPool",
      "outputs": [],
      "stateMutability": "nonpayable",
      "type": "function"
    },
    {
      "inputs": [
        {
          "internalType": "bytes32",
          "name": "role",
          "type": "bytes32"
        },
        {
          "internalType": "address",
          "name": "account",
          "type": "address"
        }
      ],
      "name": "renounceRole",
      "outputs": [],
      "stateMutability": "nonpayable",
      "type": "function"
    },
    {
      "inputs": [
        {
          "internalType": "uint64",
          "name": "_minerId",
          "type": "uint64"
        },
        {
          "internalType": "uint256",
          "name": "_allocationLimit",
          "type": "uint256"
        },
        {
          "internalType": "uint256",
          "name": "_dailyAllocation",
          "type": "uint256"
        }
      ],
      "name": "requestAllocationLimitUpdate",
      "outputs": [],
      "stateMutability": "nonpayable",
      "type": "function"
    },
    {
      "inputs": [
        {
          "internalType": "uint64",
          "name": "",
          "type": "uint64"
        }
      ],
      "name": "restakings",
      "outputs": [
        {
          "internalType": "uint256",
          "name": "restakingRatio",
          "type": "uint256"
        },
        {
          "internalType": "address",
          "name": "restakingAddress",
          "type": "address"
        }
      ],
      "stateMutability": "view",
      "type": "function"
    },
    {
      "inputs": [
        {
          "internalType": "bytes32",
          "name": "role",
          "type": "bytes32"
        },
        {
          "internalType": "address",
          "name": "account",
          "type": "address"
        }
      ],
      "name": "revokeRole",
      "outputs": [],
      "stateMutability": "nonpayable",
      "type": "function"
    },
    {
      "inputs": [
        {
          "internalType": "uint64",
          "name": "",
          "type": "uint64"
        }
      ],
      "name": "sectorSizes",
      "outputs": [
        {
          "internalType": "uint64",
          "name": "",
          "type": "uint64"
        }
      ],
      "stateMutability": "view",
      "type": "function"
    },
    {
      "inputs": [
        {
          "internalType": "uint256",
          "name": "_restakingRatio",
          "type": "uint256"
        },
        {
          "internalType": "address",
          "name": "_restakingAddress",
          "type": "address"
        }
      ],
      "name": "setRestaking",
      "outputs": [],
      "stateMutability": "nonpayable",
      "type": "function"
    },
    {
      "inputs": [
        {
          "internalType": "uint64",
          "name": "",
          "type": "uint64"
        }
      ],
      "name": "storageProviders",
      "outputs": [
        {
          "internalType": "bool",
          "name": "active",
          "type": "bool"
        },
        {
          "internalType": "bool",
          "name": "onboarded",
          "type": "bool"
        },
        {
          "internalType": "address",
          "name": "targetPool",
          "type": "address"
        },
        {
          "internalType": "uint64",
          "name": "ownerId",
          "type": "uint64"
        },
        {
          "internalType": "int64",
          "name": "lastEpoch",
          "type": "int64"
        }
      ],
      "stateMutability": "view",
      "type": "function"
    },
    {
      "inputs": [
        {
          "internalType": "bytes4",
          "name": "interfaceId",
          "type": "bytes4"
        }
      ],
      "name": "supportsInterface",
      "outputs": [
        {
          "internalType": "bool",
          "name": "",
          "type": "bool"
        }
      ],
      "stateMutability": "view",
      "type": "function"
    },
    {
      "inputs": [
        {
          "internalType": "uint64",
          "name": "",
          "type": "uint64"
        }
      ],
      "name": "syncedBeneficiary",
      "outputs": [
        {
          "internalType": "bool",
          "name": "",
          "type": "bool"
        }
      ],
      "stateMutability": "view",
      "type": "function"
    },
    {
      "inputs": [
        {
          "internalType": "uint64",
          "name": "_minerId",
          "type": "uint64"
        },
        {
          "internalType": "uint256",
          "name": "_allocationLimit",
          "type": "uint256"
        },
        {
          "internalType": "uint256",
          "name": "_dailyAllocation",
          "type": "uint256"
        },
        {
          "internalType": "uint256",
          "name": "_repaymentAmount",
          "type": "uint256"
        }
      ],
      "name": "updateAllocationLimit",
      "outputs": [],
      "stateMutability": "nonpayable",
      "type": "function"
    },
    {
      "inputs": [
        {
          "internalType": "uint256",
          "name": "allocation",
          "type": "uint256"
        }
      ],
      "name": "updateMaxAllocation",
      "outputs": [],
      "stateMutability": "nonpayable",
      "type": "function"
    },
    {
      "inputs": [
        {
          "internalType": "address",
          "name": "newImplementation",
          "type": "address"
        }
      ],
      "name": "upgradeTo",
      "outputs": [],
      "stateMutability": "nonpayable",
      "type": "function"
    },
    {
      "inputs": [
        {
          "internalType": "address",
          "name": "newImplementation",
          "type": "address"
        },
        {
          "internalType": "bytes",
          "name": "data",
          "type": "bytes"
        }
      ],
      "name": "upgradeToAndCall",
      "outputs": [],
      "stateMutability": "payable",
      "type": "function"
    },
    {
      "inputs": [],
      "name": "version",
      "outputs": [
        {
          "internalType": "string",
          "name": "",
          "type": "string"
        }
      ],
      "stateMutability": "pure",
      "type": "function"
    }
  ],
  "numDeployments": 2,
  "solcInputHash": "8bfe4fd9db240e7df2b9481ba2c306fd",
  "bytecode": "0x60a06040523060805234801561001457600080fd5b5060805161513961004c600039600081816113fc0152818161143c015281816116fb0152818161173b01526118e801526151396000f3fe6080604052600436106101d65760003560e01c806301ffc9a7146101db5780630e2fc9e114610211578063154caabb1461023357806315b2f22f1461026d57806316e71d491461028d578063248a9ca3146102bb57806324da48a3146102e8578063261d8315146103085780632e54941e146103285780632f2ff15d1461038b57806331ea602b146103ab57806336568abe146103cb5780633659cfe6146103eb5780634978e4b71461040b5780634f1ef2861461042b5780634f85bf321461043e57806352d1902d1461045e57806354fd4d50146104735780635e2b353b146104a457806367f47a94146104c457806376246e33146104fe5780637aca42fe146105425780637f2d1a60146105625780638097354f14610582578063853d941d146105bc57806391d14854146105f15780639ae357fa146106115780639b3ba79f146106425780639e5c139914610659578063a217fddf146106a5578063a4063dbc146106ba578063aaf10f42146106eb578063abd908461461070d578063b0298c311461072d578063be7aebcd146107da578063d2d3164b146107fa578063d547741f14610828578063da35a26f14610848578063dcd2350814610868578063dd6460ce14610888578063fa2755c314610901575b600080fd5b3480156101e757600080fd5b506101fb6101f6366004613e87565b610921565b6040516102089190613eb2565b60405180910390f35b34801561021d57600080fd5b5061023161022c366004613f06565b610958565b005b34801561023f57600080fd5b506101fb61024e366004613f7e565b6001600160401b0316600090815261012d602052604090205460ff1690565b34801561027957600080fd5b506101fb610288366004613f7e565b610b98565b34801561029957600080fd5b506102ad6102a8366004613f7e565b610bc3565b604051610208929190613fa5565b3480156102c757600080fd5b506102db6102d6366004613fc0565b610c83565b6040516102089190613fe1565b3480156102f457600080fd5b50610231610303366004613fc0565b610c98565b34801561031457600080fd5b50610231610323366004613fef565b610d52565b34801561033457600080fd5b50610379610343366004613f7e565b61012e60205260009081526040902080546001820154600283015460038401546004850154600590950154939492939192909186565b6040516102089695949392919061402c565b34801561039757600080fd5b506102316103a63660046140ab565b610e8d565b3480156103b757600080fd5b506102316103c63660046140de565b610eae565b3480156103d757600080fd5b506102316103e63660046140ab565b6113b3565b3480156103f757600080fd5b5061023161040636600461412e565b6113f2565b34801561041757600080fd5b506102316104263660046140de565b6114ba565b610231610439366004614254565b6116f1565b34801561044a57600080fd5b50610231610459366004613f7e565b6117a6565b34801561046a57600080fd5b506102db6118db565b34801561047f57600080fd5b506040805180820182526002815261763160f01b6020820152905161020891906142f9565b3480156104b057600080fd5b506102316104bf3660046140de565b611938565b3480156104d057600080fd5b506102db6104df366004613f7e565b6001600160401b0316600090815261012e602052604090206001015490565b34801561050a57600080fd5b50610535610519366004613f7e565b610131602052600090815260409020546001600160401b031681565b6040516102089190614313565b34801561054e57600080fd5b5061023161055d366004614321565b611bcb565b34801561056e57600080fd5b5061023161057d366004613fef565b611dd6565b34801561058e57600080fd5b506101fb61059d36600461412e565b6001600160a01b03166000908152610133602052604090205460ff1690565b3480156105c857600080fd5b506102ad6105d7366004613f7e565b610130602052600090815260409020805460019091015482565b3480156105fd57600080fd5b506101fb61060c3660046140ab565b611edf565b34801561061d57600080fd5b506101fb61062c366004613f7e565b6101346020526000908152604090205460ff1681565b34801561064e57600080fd5b506102db6101365481565b34801561066557600080fd5b50610697610674366004613f7e565b61012f60205260009081526040902080546001909101546001600160a01b031682565b60405161020892919061438e565b3480156106b157600080fd5b506102db600081565b3480156106c657600080fd5b506101fb6106d536600461412e565b6101336020526000908152604090205460ff1681565b3480156106f757600080fd5b50610700611f0a565b60405161020891906143a9565b34801561071957600080fd5b5061023161072836600461412e565b611f19565b34801561073957600080fd5b506107ca610748366004613f7e565b6001600160401b03908116600090815261012d6020908152604091829020825160a081018452815460ff808216151580845261010083049091161515948301949094526201000081046001600160a01b0316948201859052600160b01b90049094166060850181905260019091015460070b6080909401849052909391929091565b60405161020894939291906143c1565b3480156107e657600080fd5b506102316107f53660046140ab565b612004565b34801561080657600080fd5b506102db610815366004613fc0565b6101326020526000908152604090205481565b34801561083457600080fd5b506102316108433660046140ab565b61210f565b34801561085457600080fd5b506102316108633660046140ab565b61212b565b34801561087457600080fd5b506101fb6108833660046143f6565b612263565b34801561089457600080fd5b506108f06108a3366004613f7e565b61012d602052600090815260409020805460019091015460ff808316926101008104909116916201000082046001600160a01b031691600160b01b90046001600160401b03169060070b85565b604051610208959493929190614429565b34801561090d57600080fd5b5061023161091c366004613f7e565b612292565b60006001600160e01b03198216637965db0b60e01b148061095257506301ffc9a760e01b6001600160e01b03198316145b92915050565b6109706000805160206150e483398151915233611edf565b61098d57604051633006171960e21b815260040160405180910390fd5b6109956125b4565b8315806109a457506101365484115b156109c2576040516305d7ba1960e11b815260040160405180910390fd5b8215806109ce57508383115b156109ec57604051631c2eb60560e11b815260040160405180910390fd5b838211610a0c5760405163166877a960e21b815260040160405180910390fd5b846000610a18826125dd565b604080516020808201909252600090528082015151805191012090915060008051602061505d83398151915214610a625760405163e9917a0b60e01b815260040160405180910390fd5b6000610a71826000015161261c565b6001600160401b03808216600090815261013560205260409020919250610a9a91908a166126c6565b610ab7576040516349e27cff60e01b815260040160405180910390fd5b6001600160401b038816600090815261012d6020908152604080832061012e9092529091208154610100900460ff1615610b045760405163d269946160e01b815260040160405180910390fd5b815461ff001916610100178255600182810180546001600160401b0389166001600160401b03199091161790558101879055888155600381018890556040517fa023ff258c2cf4bbb89ff7b29a652f01c9132b5ad8bca0f51767a4e972ec22a790610b7a9085908d908d908d908d908d9061446b565b60405180910390a15050505050610b916001609755565b5050505050565b6001600160401b0381166000908152610135602052604081208190610bbc906126d9565b1192915050565b6001600160401b038116600090815261013560205260408120819081610be8826126d9565b905060008060005b83811015610c76576000610c0c610c0787846126e3565b6126ef565b6001600160401b038116600090815261012e6020526040902060020154909150610c3690856144d0565b6001600160401b038216600090815261012e6020526040902060050154909450610c6090846144d0565b9250508080610c6e906144e3565b915050610bf0565b5090969095509350505050565b60009081526065602052604090206001015490565b610cb06000805160206150e483398151915233611edf565b610ccd57604051633006171960e21b815260040160405180910390fd5b80600003610cee576040516305d7ba1960e11b815260040160405180910390fd5b610136548103610d11576040516305d7ba1960e11b815260040160405180910390fd5b6101368190556040517f39db4c142f7363a2d6a0c4a06b5f53631194e27e1c9e1ee7996b7e0acc561ce390610d47908390613fe1565b60405180910390a150565b61013760009054906101000a90046001600160a01b03166001600160a01b031663e1dda2a96040518163ffffffff1660e01b8152600401602060405180830381865afa158015610da6573d6000803e3d6000fd5b505050506040513d601f19601f82011682018060405250810190610dca9190614508565b6001600160a01b0316336001600160a01b031614610dfb57604051633006171960e21b815260040160405180910390fd5b6001600160401b038216600090815261012e602052604090206005810154610e249083906144d0565b6005820181905560028201541015610e4f576040516305fcdf1560e31b815260040160405180910390fd5b7f1124506509059ae4a33548514242566cb78aeb3d1a720b18dbec366182bae5888383604051610e80929190614529565b60405180910390a1505050565b610e9682610c83565b610e9f81612705565b610ea9838361270f565b505050565b610eb66125b4565b811580610ec557506101365482115b15610ee3576040516305d7ba1960e11b815260040160405180910390fd5b801580610eef57508181115b15610f0d57604051631c2eb60560e11b815260040160405180910390fd5b6040805160a081018252600080825260208201819052918101829052606081018290526080810191909152610f4133612795565b6001600160a01b0316808252610f56906127d3565b6001600160401b03166040830152151560208201819052610f895760405162f08f6760e71b815260040160405180910390fd5b836000610f95826125dd565b604080516020808201909252600090528082015151805191012090915060008051602061505d83398151915214610fdf5760405163e9917a0b60e01b815260040160405180910390fd5b8051610fea9061261c565b6001600160401b0390811660608501819052604085015190911614611022576040516349e27cff60e01b815260040160405180910390fd5b6001600160401b038616600090815261012d6020526040902054610100900460ff16156110625760405163d269946160e01b815260040160405180910390fd5b61013754604080516307706f5d60e11b815290516000926001600160a01b031691630ee0deba9160048083019260209291908290030181865afa1580156110ad573d6000803e3d6000fd5b505050506040513d601f19601f820116820180604052508101906110d19190614508565b6001600160401b03888116600081815261012d6020908152604080832060608b0151815462010000600160f01b031916600160b01b9190971690810262010000600160b01b03191696909617620100006001600160a01b03891602178155948352610135909152902092935090919061114b908290612844565b506001600160401b038916600090815261012e602052604090208881556003810188905561117886612850565b6001600160401b0390811660808901819052908b166000908152610131602090815260409182902080546001600160401b031916909317909255610137548151635c1548fb60e01b815291516001600160a01b0390911692635c1548fb92600480820193918290030181865afa1580156111f6573d6000803e3d6000fd5b505050506040513d601f19601f8201168201806040525081019061121a9190614508565b6001600160a01b031663335f1839886060015160006040518363ffffffff1660e01b815260040161124c92919061454f565b600060405180830381600087803b15801561126657600080fd5b505af115801561127a573d6000803e3d6000fd5b5050505061013760009054906101000a90046001600160a01b03166001600160a01b0316634e1060fa6040518163ffffffff1660e01b8152600401602060405180830381865afa1580156112d2573d6000803e3d6000fd5b505050506040513d601f19601f820116820180604052508101906112f69190614508565b6001600160a01b03166345d2252b88606001516000876040518463ffffffff1660e01b815260040161132a9392919061456a565b600060405180830381600087803b15801561134457600080fd5b505af1158015611358573d6000803e3d6000fd5b505086515160608a01516040517f9346111d414b53e51a9c5d64a17479d23c5c981f0ae8f5ef3d211a91011ef4ae945061139a93508e9089908f908f90614592565b60405180910390a150505050505050610ea96001609755565b6001600160a01b03811633146113e45760405162461bcd60e51b81526004016113db9061461b565b60405180910390fd5b6113ee8282612882565b5050565b6001600160a01b037f000000000000000000000000000000000000000000000000000000000000000016300361143a5760405162461bcd60e51b81526004016113db90614662565b7f00000000000000000000000000000000000000000000000000000000000000006001600160a01b031661146c6128e9565b6001600160a01b0316146114925760405162461bcd60e51b81526004016113db906146a9565b61149b81612905565b604080516000808252602082019092526114b79183919061293a565b50565b61013760009054906101000a90046001600160a01b03166001600160a01b0316635c1548fb6040518163ffffffff1660e01b8152600401602060405180830381865afa15801561150e573d6000803e3d6000fd5b505050506040513d601f19601f820116820180604052508101906115329190614508565b6001600160a01b0316336001600160a01b03161461156357604051633006171960e21b815260040160405180910390fd5b6001600160401b0383166000908152610134602052604090205460ff1661159d5760405163bcff474f60e01b815260040160405180910390fd5b60008060006115ab84612a1c565b9250925092506000838383896040516020016115ca94939291906146d6565b60408051601f198184030181529181528151602092830120600081815261013290935290822054909250906115ff88836144d0565b6001600160401b038a16600090815261012e60205260409020600381015491925090821115611641576040516305fcdf1560e31b815260040160405180910390fd5b80546002820154611653908b906144d0565b1115611672576040516305fcdf1560e31b815260040160405180910390fd5b88816002015461168291906144d0565b600282015560008481526101326020526040812080548b92906116a69084906144d0565b90915550506040517f5fc112892cdeb5d0ea544d634fb55a2eb4ba066d9ad730b67f34791462ebf51b906116dd908c908c90614529565b60405180910390a150505050505050505050565b6001600160a01b037f00000000000000000000000000000000000000000000000000000000000000001630036117395760405162461bcd60e51b81526004016113db90614662565b7f00000000000000000000000000000000000000000000000000000000000000006001600160a01b031661176b6128e9565b6001600160a01b0316146117915760405162461bcd60e51b81526004016113db906146a9565b61179a82612905565b6113ee8282600161293a565b6117be6000805160206150e483398151915233611edf565b6117db57604051633006171960e21b815260040160405180910390fd5b6001600160401b038116600090815261012d6020526040902054819060ff16611817576040516363b397b960e01b815260040160405180910390fd5b6001600160401b038216600090815261012e6020526040902060018101546005820154600490920154909161184b916144d0565b146118695760405163166877a960e21b815260040160405180910390fd5b6001600160401b038216600090815261012d60209081526040808320805460ff199081169091556101349092529182902080549091169055517fec36a8776cbb637a0a427dc03df67a0283f596365d3d127696243e82d612c88f906118cf908490614313565b60405180910390a15050565b6000306001600160a01b037f000000000000000000000000000000000000000000000000000000000000000016146119255760405162461bcd60e51b81526004016113db90614773565b5060008051602061509d83398151915290565b6001600160401b038316600090815261012d6020526040902054839060ff16611974576040516363b397b960e01b815260040160405180910390fd5b82158061198357506101365483115b156119a1576040516305d7ba1960e11b815260040160405180910390fd5b8115806119ad57508282115b156119cb57604051631c2eb60560e11b815260040160405180910390fd5b60006119d633612795565b90506000806119ed836001600160a01b03166127d3565b9150915081611a0e5760405162f08f6760e71b815260040160405180910390fd5b6001600160401b03818116600090815261013560205260409020611a339189166126c6565b611a50576040516349e27cff60e01b815260040160405180910390fd5b6001600160401b03808816600090815261012d6020908152604091829020825160a081018452815460ff808216151580845261010083049091161515948301949094526001600160a01b036201000082041694820194909452600160b01b909304909316606083015260019092015460070b608082015290611ae5576040516363b397b960e01b815260040160405180910390fd5b6001600160401b038816600090815261012e6020908152604091829020825160c081018452815480825260018301549382019390935260028201549381019390935260038101546060840152600481015460808401526005015460a083015288148015611b555750868160600151145b15611b7357604051635435b28960e11b815260040160405180910390fd5b6001600160401b03891660009081526101306020526040908190208981556001810189905590517fd0198e2535194b2efbec973cb73349e6d1edd434a271491d44c2f620a997a3c3906116dd908c908c908c90614783565b611be36000805160206150e483398151915233611edf565b611c0057604051633006171960e21b815260040160405180910390fd5b6001600160401b038416600090815261012d6020526040902054849060ff16611c3c576040516363b397b960e01b815260040160405180910390fd5b611c446125b4565b831580611c5357506101365484115b15611c71576040516305d7ba1960e11b815260040160405180910390fd5b821580611c7d57508383115b15611c9b57604051631c2eb60560e11b815260040160405180910390fd5b838211611cbb5760405163166877a960e21b815260040160405180910390fd5b6001600160401b03851660009081526101306020908152604091829020825180840190935280548084526001909101549183019190915215611d3c5780518514611d18576040516305d7ba1960e11b815260040160405180910390fd5b83816020015114611d3c57604051631c2eb60560e11b815260040160405180910390fd5b6001600160401b038616600090815261012e602090815260408083208881556003810188905560018082018890556101348452828520805460ff191690556101309093528184208481559092019290925590517f6eaa57f14bb4acd5ffc19285fec33d57c58d9fdf748cc9502219d2bded72f61190611dc29089908990899089906147ab565b60405180910390a15050610b916001609755565b61013760009054906101000a90046001600160a01b03166001600160a01b031663e1dda2a96040518163ffffffff1660e01b8152600401602060405180830381865afa158015611e2a573d6000803e3d6000fd5b505050506040513d601f19601f82011682018060405250810190611e4e9190614508565b6001600160a01b0316336001600160a01b031614611e7f57604051633006171960e21b815260040160405180910390fd5b6001600160401b038216600090815261012e602052604090206004810154611ea89083906144d0565b60048201556040517fd3adca66167eaebe0bf908f97055d75ea826041f45a2ef406a2f03e07a65f75890610e809085908590614529565b60009182526065602090815260408084206001600160a01b0393909316845291905290205460ff1690565b6000611f146128e9565b905090565b611f316000805160206150e483398151915233611edf565b611f4e57604051633006171960e21b815260040160405180910390fd5b6001600160a01b038116611f755760405163e6c4247b60e01b815260040160405180910390fd5b6001600160a01b0381166000908152610133602052604090205460ff1615611fb0576040516309aa982d60e01b815260040160405180910390fd5b6001600160a01b0381166000908152610133602052604090819020805460ff19166001179055517fbba7dd87057c9346bdb652d4c49948e76139a24eb1975262e98556f0455466ac90610d479083906143a9565b600061200f33612795565b9050600080612026836001600160a01b03166127d3565b91509150816120475760405162f08f6760e71b815260040160405180910390fd5b61271085111561206a57604051635435b28960e11b815260040160405180910390fd5b6001600160a01b0384166120915760405163e6c4247b60e01b815260040160405180910390fd5b6001600160401b038116600090815261012f6020526040908190208681556001810180546001600160a01b0319166001600160a01b03881617905590517ffec0818a0fae8fa0693f4ab6209e6ace854f156067b4069ebede3c8c02622511906120ff908490899089906147e0565b60405180910390a1505050505050565b61211882610c83565b61212181612705565b610ea98383612882565b600054610100900460ff161580801561214b5750600054600160ff909116105b8061216c575061215a30612a42565b15801561216c575060005460ff166001145b6121885760405162461bcd60e51b81526004016113db90614846565b6000805460ff1916600117905580156121ab576000805461ff0019166101001790555b6121b3612a51565b6121bb612a7a565b6121c3612a51565b6121ce600033612aa9565b6121e76000805160206150e48339815191526000612ab3565b6121ff6000805160206150e483398151915233610e8d565b61013683905561013780546001600160a01b0319166001600160a01b0384161790558015610ea9576000805461ff00191690556040517f7f26b83ff96e1f2b6a682f133852f6798a09c465da95921460cefb384740249890610e809060019061486a565b6001600160401b03828116600090815261013560205260408120909161228b919084166126c6565b9392505050565b6122aa6000805160206150e483398151915233611edf565b6122c757604051633006171960e21b815260040160405180910390fd5b6122cf6125b4565b6001600160401b038116600090815261012d602052604090208054610100900460ff1661230f576040516363b397b960e01b815260040160405180910390fd5b60008061239b61013760009054906101000a90046001600160a01b03166001600160a01b031663e1dda2a96040518163ffffffff1660e01b8152600401602060405180830381865afa158015612369573d6000803e3d6000fd5b505050506040513d601f19601f8201168201806040525081019061238d9190614508565b6001600160a01b03166127d3565b91509150816123bc5760405162f08f6760e71b815260040160405180910390fd5b8360006123c882612b06565b905060006123dd82602001516000015161261c565b9050806001600160401b0316846001600160401b03161461241157604051631559b7d760e21b815260040160405180910390fd5b816020015160800151156124385760405163080fc0bd60e11b815260040160405180910390fd5b61013760009054906101000a90046001600160a01b03166001600160a01b031663e1dda2a96040518163ffffffff1660e01b8152600401602060405180830381865afa15801561248c573d6000803e3d6000fd5b505050506040513d601f19601f820116820180604052508101906124b09190614508565b6001600160401b038816600090815261012e602052604090819020600190810154908901549151637b0b736b60e01b81526001600160a01b039390931692637b0b736b92612508928c928a9260070b90600401614878565b600060405180830381600087803b15801561252257600080fd5b505af1158015612536573d6000803e3d6000fd5b50508754600160ff1991821681178a556001600160401b038b1660009081526101346020526040908190208054909316909117909155517f5087366327b1aef4b5e946461225164c036e5dda2b25c458ea1bb444586b6a50925061259c91508990614313565b60405180910390a15050505050506114b76001609755565b6002609754036125d65760405162461bcd60e51b81526004016113db906148d7565b6002609755565b6125e5613d6d565b60408051600080825260208201909252906126098463c33a1cc68385816001612b3d565b905061261481612b87565b949350505050565b60008060006001607f60991b016001600160a01b031684600001516040516126449190614909565b600060405180830381855afa9150503d806000811461267f576040519150601f19603f3d011682016040523d82523d6000602084013e612684565b606091505b5091509150816126a757604051638a7db5bf60e01b815260040160405180910390fd5b6000818060200190518101906126bd9190614920565b95945050505050565b600061228b8383612c07565b6001609755565b6000610952825490565b600061228b8383612c1f565b6000600160401b821061270157600080fd5b5090565b6114b78133612c49565b6127198282611edf565b6113ee5760008281526065602090815260408083206001600160a01b03851684529091529020805460ff191660011790556127513390565b6001600160a01b0316816001600160a01b0316837f2f8788117e7eff1d82e926ec794901d17c78024a50270940304540a733656f0d60405160405180910390a45050565b60008060006127a384612ca2565b91509150816127b457509192915050565b6000806127c083612cd4565b91509150816126bd575093949350505050565b6000806127df83612ca2565b909250905081156127ef57915091565b8260501b61040a60f01b178060005260206000601660006001607f60991b015afa92506000516001600160401b031691505081158061282f57503d602014155b1561283f57506000928392509050565b915091565b600061228b8383612d35565b6040805160008082526020820190925260006128778463e5f8de4860008560006001612b3d565b905061261481612d7f565b61288c8282611edf565b156113ee5760008281526065602090815260408083206001600160a01b0385168085529252808320805460ff1916905551339285917ff6391f5c32d9c69d2a47ea670b442974b53935d1edc7fd64eb21e047a839171b9190a45050565b60008051602061509d833981519152546001600160a01b031690565b61291d6000805160206150e483398151915233611edf565b6114b757604051633006171960e21b815260040160405180910390fd5b7f4910fdfa16fed3260ed0e7147f7cc6da11a60208b5b9406d12a635614ffd91435460ff161561296d57610ea983612d96565b826001600160a01b03166352d1902d6040518163ffffffff1660e01b8152600401602060405180830381865afa9250505080156129c7575060408051601f3d908101601f191682019092526129c491810190614920565b60015b6129e35760405162461bcd60e51b81526004016113db9061498c565b60008051602061509d8339815191528114612a105760405162461bcd60e51b81526004016113db906149e2565b50610ea9838383612dea565b60008080612a35612a306201518086614a08565b612e15565b9196909550909350915050565b6001600160a01b03163b151590565b600054610100900460ff16612a785760405162461bcd60e51b81526004016113db90614a64565b565b600054610100900460ff16612aa15760405162461bcd60e51b81526004016113db90614a64565b612a78612f89565b6113ee828261270f565b6000612abe83610c83565b600084815260656020526040808220600101859055519192508391839186917fbd79b86ffe0ab8e8776151514217cd7cacd52c909f66475c3af44e129f0b00ff9190a4505050565b612b0e613d92565b6040805160008082526020820190925290612b328463f7e4e2998385816001612b3d565b905061261481612fb0565b60606064876001600160401b03161015612b6c578660405163a292827360e01b81526004016113db9190614a93565b612b7a8787878787876131f0565b90505b9695505050505050565b612b8f613d6d565b600080612b9c84826132ca565b9250905060028114612bb057612bb0614aa1565b612bba8483613316565b8451919091529150612bcc8483613484565b612bea57612bda8483613316565b6020850151919091529150612c00565b6040805160008152602080820190925290840151525b5050919050565b60009081526001919091016020526040902054151590565b6000826000018281548110612c3657612c36614ab7565b9060005260206000200154905092915050565b612c538282611edf565b6113ee57612c60816134b5565b612c6b8360206134c7565b604051602001612c7c929190614acd565b60408051601f198184030181529082905262461bcd60e51b82526113db916004016142f9565b600080600160401b600160a01b03831660ff60981b8103612cce57600192506001600160401b03841691505b50915091565b600080826000526016600a602060006002607f60991b015afa9150600051806001600160a01b031691508060a01c61ffff1661040a8114612d185760009350600092505b505081158061282f57503d60161461283f57506000928392509050565b6000612d418383612c07565b612d7757508154600181810184556000848152602080822090930184905584548482528286019093526040902091909155610952565b506000610952565b60008080612d8d8482613632565b50949350505050565b612d9f81612a42565b612dbb5760405162461bcd60e51b81526004016113db90614b69565b60008051602061509d83398151915280546001600160a01b0319166001600160a01b0392909216919091179055565b612df383613673565b600082511180612e005750805b15610ea957612e0f83836136b3565b50505050565b60008080838162253d8c612e2c8362010bd9614b79565b612e369190614b79565b9050600062023ab1612e49836004614b9c565b612e539190614bd4565b90506004612e648262023ab1614b9c565b612e6f906003614b79565b612e799190614bd4565b612e839083614c02565b9150600062164b09612e96846001614b79565b612ea290610fa0614b9c565b612eac9190614bd4565b90506004612ebc826105b5614b9c565b612ec69190614bd4565b612ed09084614c02565b612edb90601f614b79565b9250600061098f612eed856050614b9c565b612ef79190614bd4565b905060006050612f098361098f614b9c565b612f139190614bd4565b612f1d9086614c02565b9050612f2a600b83614bd4565b9450612f3785600c614b9c565b612f42836002614b79565b612f4c9190614c02565b91508483612f5b603187614c02565b612f66906064614b9c565b612f709190614b79565b612f7a9190614b79565b9a919950975095505050505050565b600054610100900460ff166126d25760405162461bcd60e51b81526004016113db90614a64565b612fb8613d92565b6060600080612fc785826132ca565b9250905060028114612fdb57612fdb614aa1565b612fe585836132ca565b9250905060028114612ff957612ff9614aa1565b6130038583613316565b85515191909152915061301685836132ca565b925090506003811461302a5761302a614aa1565b6130348583613316565b815191945092501561305557613049836136d8565b8451602001515261307d565b6040805160008183018181526060830190935290918291508152600060209182015285510151525b6130878583613316565b81519194509250156130ab5761309c836136d8565b845160209081015101526130d5565b60408051600081830181815260608301909352909182915081526000602091820152855181015101525b6130df8583613827565b85516020015160079290920b60409092019190915291506131008583613484565b6131e85761310e85836132ca565b925090506005811461312257613122614aa1565b61312c8583613316565b6020860151519190915291506131428583613316565b815191945092501561316457613157836136d8565b602080860151015261318d565b604080516000818301818152606083019093529091829150815260006020918201528581015101525b6131978583613827565b602086015160079290920b60409092019190915291506131b78583613841565b602086015191151560609092019190915291506131d48583613841565b602086015191151560809092019190915291505b505050919050565b60606132036005607f60991b01846138ac565b6000806005607f60991b0188868661321c57600061321f565b60015b8a8a8e60405160200161323796959493929190614c24565b60408051601f198184030181529082905261325191614909565b600060405180830381855af49150503d806000811461328c576040519150601f19603f3d011682016040523d82523d6000602084013e613291565b606091505b5091509150816132b457604051638a7db5bf60e01b815260040160405180910390fd5b6132bd816138f4565b9998505050505050505050565b6000806000806132da86866139cd565b96509092506001600160401b0316905060ff821660041461330d5760405162461bcd60e51b81526004016113db90614cae565b95939450505050565b6060600080600061332786866139cd565b96509092506001600160401b0316905060ff82166006148061334c575060ff82166002145b6133685760405162461bcd60e51b81526004016113db90614d09565b60051960ff8316016133a15761337e86866139cd565b96509092506001600160401b0316905060ff82166002146133a1576133a1614aa1565b60006133ad82876144d0565b90506000826001600160401b038111156133c9576133c9614159565b6040519080825280601f01601f1916602001820160405280156133f3576020820181803683370190505b5090506000875b838110156134685789818151811061341457613414614ab7565b602001015160f81c60f81b83838151811061343157613431614ab7565b60200101906001600160f81b031916908160001a90535081613452816144e3565b9250508080613460906144e3565b9150506133fa565b5081613474858a6144d0565b9650965050505050509250929050565b600082828151811061349857613498614ab7565b6020910101516001600160f81b031916607b60f91b149392505050565b60606109526001600160a01b03831660145b606060006134d6836002614d19565b6134e19060026144d0565b6001600160401b038111156134f8576134f8614159565b6040519080825280601f01601f191660200182016040528015613522576020820181803683370190505b509050600360fc1b8160008151811061353d5761353d614ab7565b60200101906001600160f81b031916908160001a905350600f60fb1b8160018151811061356c5761356c614ab7565b60200101906001600160f81b031916908160001a9053506000613590846002614d19565b61359b9060016144d0565b90505b6001811115613613576f181899199a1a9b1b9c1cb0b131b232b360811b85600f16601081106135cf576135cf614ab7565b1a60f81b8282815181106135e5576135e5614ab7565b60200101906001600160f81b031916908160001a90535060049490941c9361360c81614d31565b905061359e565b50831561228b5760405162461bcd60e51b81526004016113db90614d7a565b60008060008061364286866139cd565b96509092506001600160401b0316905060ff82161561330d5760405162461bcd60e51b81526004016113db90614dcc565b61367c81612d96565b6040516001600160a01b038216907fbc7cd75a20ee27fd9adebab32041f755214dbc6bffa90cc0225b39da2e5c2d3b90600090a250565b606061228b83836040518060600160405280602781526020016150bd60279139613b4a565b6136e0613db2565b8151600003613714575050604080516080810182526001918101918252600060608201819052918152602081019190915290565b6000600183516137249190614ddc565b6001600160401b0381111561373b5761373b614159565b6040519080825280601f01601f191660200182016040528015613765576020820181803683370190505b50905060008360008151811061377d5761377d614ab7565b01602001516001600160f81b031916600160f81b0361379a575060015b60015b845181101561380c578481815181106137b8576137b8614ab7565b01602001516001600160f81b031916836137d3600184614ddc565b815181106137e3576137e3614ab7565b60200101906001600160f81b031916908160001a90535080613804816144e3565b91505061379d565b50604080518082019091529182521515602082015292915050565b600080806138358585613bb8565b90969095509350505050565b60008060008061385186866139cd565b96509092506001600160401b0316905060ff82166007146138845760405162461bcd60e51b81526004016113db90614e23565b60158114806138935750601481145b61389f5761389f614aa1565b6014141595939450505050565b47818110156138d2578082604051634787a10360e11b81526004016113db929190613fa5565b823f151580612e0f5760405163064d954b60e41b815260040160405180910390fd5b606060008060008480602001905181019061390f9190614e96565b919450925090506001600160401b0382166139495780511561394457604051630e74990760e01b815260040160405180910390fd5b6139ac565b6001600160401b0382166051148061396a57506001600160401b0382166071145b1561399157805160000361394457604051630e74990760e01b815260040160405180910390fd5b8160405163f1f6bced60e01b81526004016113db9190614313565b8215612614578260405163d4bb667160e01b81526004016113db9190613fe1565b6000806000806139dd8686613c07565b90506139ea6001866144d0565b94506007600582901c16601f8216601c8110613a185760405162461bcd60e51b81526004016113db90614f38565b60188160ff161015613a365790945060ff169250849150613b439050565b8060ff16601803613a93576000613a4d8989613c07565b9050613a5a6001896144d0565b975060188160ff161015613a805760405162461bcd60e51b81526004016113db90614f6b565b9195505060ff169250849150613b439050565b8060ff16601903613acd576000613aaa8989613c56565b9050613ab76002896144d0565b97509195505061ffff169250849150613b439050565b8060ff16601a03613b09576000613ae48989613c8f565b9050613af16004896144d0565b97509195505063ffffffff169250849150613b439050565b8060ff16601b14613b1c57613b1c614aa1565b6000613b288989613cc8565b9050613b356008896144d0565b975091955090935085925050505b9250925092565b6060600080856001600160a01b031685604051613b679190614909565b600060405180830381855af49150503d8060008114613ba2576040519150601f19603f3d011682016040523d82523d6000602084013e613ba7565b606091505b5091509150612b7d86838387613d01565b600080600080613bc886866139cd565b96509092506001600160401b0316905060ff821660011480613beb575060ff8216155b61330d5760405162461bcd60e51b81526004016113db90614fcd565b6000613c148260016144d0565b83511015613c345760405162461bcd60e51b81526004016113db90615008565b828281518110613c4657613c46614ab7565b016020015160f81c905092915050565b6000613c638260026144d0565b83511015613c835760405162461bcd60e51b81526004016113db90615008565b50016020015160f01c90565b6000613c9c8260046144d0565b83511015613cbc5760405162461bcd60e51b81526004016113db90615008565b50016020015160e01c90565b6000613cd58260086144d0565b83511015613cf55760405162461bcd60e51b81526004016113db90615008565b50016020015160c01c90565b60608315613d3e578251600003613d3757613d1b85612a42565b613d375760405162461bcd60e51b81526004016113db9061504c565b5081612614565b6126148383815115613d535781518083602001fd5b8060405162461bcd60e51b81526004016113db91906142f9565b6040518060400160405280613d80613dca565b8152602001613d8d613dca565b905290565b6040518060400160405280613da5613ddd565b8152602001613d8d613dfd565b60408051808201909152606081526000602082015290565b6040518060200160405280606081525090565b6040518060400160405280613df0613dca565b8152602001613d8d613e38565b6040518060a00160405280613e10613dca565b8152602001613e1d613db2565b81526000602082018190526040820181905260609091015290565b6040518060600160405280613e4b613db2565b8152602001613e58613db2565b8152600060209091015290565b6001600160e01b031981165b81146114b757600080fd5b803561095281613e65565b600060208284031215613e9c57613e9c600080fd5b60006126148484613e7c565b8015155b82525050565b602081016109528284613ea8565b6001600160401b031690565b613e7181613ec0565b803561095281613ecc565b80613e71565b803561095281613ee0565b613e718160070b90565b803561095281613ef1565b600080600080600060a08688031215613f2157613f21600080fd5b6000613f2d8888613ed5565b9550506020613f3e88828901613ee6565b9450506040613f4f88828901613ee6565b9350506060613f6088828901613ee6565b9250506080613f7188828901613efb565b9150509295509295909350565b600060208284031215613f9357613f93600080fd5b60006126148484613ed5565b80613eac565b60408101613fb38285613f9f565b61228b6020830184613f9f565b600060208284031215613fd557613fd5600080fd5b60006126148484613ee6565b602081016109528284613f9f565b6000806040838503121561400557614005600080fd5b60006140118585613ed5565b925050602061402285828601613ee6565b9150509250929050565b60c0810161403a8289613f9f565b6140476020830188613f9f565b6140546040830187613f9f565b6140616060830186613f9f565b61406e6080830185613f9f565b61407b60a0830184613f9f565b979650505050505050565b60006001600160a01b038216610952565b613e7181614086565b803561095281614097565b600080604083850312156140c1576140c1600080fd5b60006140cd8585613ee6565b9250506020614022858286016140a0565b6000806000606084860312156140f6576140f6600080fd5b60006141028686613ed5565b935050602061411386828701613ee6565b925050604061412486828701613ee6565b9150509250925092565b60006020828403121561414357614143600080fd5b600061261484846140a0565b601f01601f191690565b634e487b7160e01b600052604160045260246000fd5b6141788261414f565b81018181106001600160401b038211171561419557614195614159565b6040525050565b60006141a760405190565b90506141b3828261416f565b919050565b60006001600160401b038211156141d1576141d1614159565b6141da8261414f565b60200192915050565b82818337506000910152565b60006142026141fd846141b8565b61419c565b90508281526020810184848401111561421d5761421d600080fd5b6142288482856141e3565b509392505050565b600082601f83011261424457614244600080fd5b81356126148482602086016141ef565b6000806040838503121561426a5761426a600080fd5b600061427685856140a0565b92505060208301356001600160401b0381111561429557614295600080fd5b61402285828601614230565b60005b838110156142bc5781810151838201526020016142a4565b50506000910152565b60006142cf825190565b8084526020840193506142e68185602086016142a1565b6142ef8161414f565b9093019392505050565b6020808252810161228b81846142c5565b613eac81613ec0565b60208101610952828461430a565b6000806000806080858703121561433a5761433a600080fd5b60006143468787613ed5565b945050602061435787828801613ee6565b935050604061436887828801613ee6565b925050606061437987828801613ee6565b91505092959194509250565b613eac81614086565b6040810161439c8285613f9f565b61228b6020830184614385565b602081016109528284614385565b613eac8160070b90565b608081016143cf8287613ea8565b6143dc6020830186614385565b6143e9604083018561430a565b6126bd60608301846143b7565b6000806040838503121561440c5761440c600080fd5b60006144188585613ed5565b925050602061402285828601613ed5565b60a081016144378288613ea8565b6144446020830187613ea8565b6144516040830186614385565b61445e606083018561430a565b612b7d60808301846143b7565b60c08101614479828961430a565b614486602083018861430a565b6144936040830187613f9f565b6144a06060830186613f9f565b6144ad6080830185613f9f565b61407b60a08301846143b7565b634e487b7160e01b600052601160045260246000fd5b80820180821115610952576109526144ba565b600060001982036144f6576144f66144ba565b5060010190565b805161095281614097565b60006020828403121561451d5761451d600080fd5b600061261484846144fd565b60408101613fb3828561430a565b60006109526145438381565b90565b613eac81614537565b6040810161455d828561430a565b61228b6020830184614546565b60608101614578828661430a565b6145856020830185614546565b6126146040830184614385565b60c080825281016145a381896142c5565b90506145b2602083018861430a565b6145bf604083018761430a565b6140616060830186614385565b602f81526000602082017f416363657373436f6e74726f6c3a2063616e206f6e6c792072656e6f756e636581526e103937b632b9903337b91039b2b63360891b602082015291505b5060400190565b60208082528101610952816145cc565b602c815260006020820160008051602061507d83398151915281526b19195b1959d85d1958d85b1b60a21b60208201529150614614565b602080825281016109528161462b565b602c815260006020820160008051602061507d83398151915281526b6163746976652070726f787960a01b60208201529150614614565b6020808252810161095281614672565b60006109528260c01b90565b613eac6146d182613ec0565b6146b9565b60006146e28287613f9f565b6020820191506146f28286613f9f565b6020820191506147028285613f9f565b60208201915061471282846146c5565b50600801949350505050565b603881526000602082017f555550535570677261646561626c653a206d757374206e6f742062652063616c8152771b1959081d1a1c9bdd59da0819195b1959d85d1958d85b1b60421b60208201529150614614565b602080825281016109528161471e565b60608101614791828661430a565b61479e6020830185613f9f565b6126146040830184613f9f565b608081016147b9828761430a565b6147c66020830186613f9f565b6147d36040830185613f9f565b6126bd6060830184613f9f565b606081016147ee828661430a565b6145856020830185613f9f565b602e81526000602082017f496e697469616c697a61626c653a20636f6e747261637420697320616c72656181526d191e481a5b9a5d1a585b1a5e995960921b60208201529150614614565b60208082528101610952816147fb565b600060ff8216610952565b613eac81614856565b602081016109528284614861565b60808101614886828761430a565b614893602083018661430a565b6143e96040830185613f9f565b601f81526000602082017f5265656e7472616e637947756172643a207265656e7472616e742063616c6c00815291505b5060200190565b60208082528101610952816148a0565b60006148f1825190565b6148ff8185602086016142a1565b9290920192915050565b600061228b82846148e7565b805161095281613ee0565b60006020828403121561493557614935600080fd5b60006126148484614915565b602e81526000602082017f45524331393637557067726164653a206e657720696d706c656d656e7461746981526d6f6e206973206e6f74205555505360901b60208201529150614614565b6020808252810161095281614941565b602981526000602082017f45524331393637557067726164653a20756e737570706f727465642070726f788152681a58589b195555525160ba1b60208201529150614614565b602080825281016109528161499c565b634e487b7160e01b600052601260045260246000fd5b600082614a1757614a176149f2565b500490565b602b81526000602082017f496e697469616c697a61626c653a20636f6e7472616374206973206e6f74206981526a6e697469616c697a696e6760a81b60208201529150614614565b6020808252810161095281614a1c565b6000610952614a8561454384613ec0565b613ec0565b613eac81614a74565b602081016109528284614a8a565b634e487b7160e01b600052600160045260246000fd5b634e487b7160e01b600052603260045260246000fd5b76020b1b1b2b9b9a1b7b73a3937b61d1030b1b1b7bab73a1604d1b81526017016000614af982856148e7565b7001034b99036b4b9b9b4b733903937b6329607d1b8152601101915061261482846148e7565b602d81526000602082017f455243313936373a206e657720696d706c656d656e746174696f6e206973206e81526c1bdd08184818dbdb9d1c9858dd609a1b60208201529150614614565b6020808252810161095281614b1f565b8082016000821280158483129081169015919091161715610952576109526144ba565b8181028060008312600160ff1b85141615614bb957614bb96144ba565b8282058414831517614bcd57614bcd6144ba565b5092915050565b600082614be357614be36149f2565b600160ff1b821460001984141615614bfd57614bfd6144ba565b500590565b81810360008312801583831316838312919091161715610952576109526144ba565b60c08101614c32828961430a565b614c3f6020830188613f9f565b614c4c604083018761430a565b614c59606083018661430a565b8181036080830152614c6b81856142c5565b905061407b60a0830184614a8a565b601f81526000602082017f696e76616c6964206d616a20286578706563746564204d616a41727261792900815291506148d0565b6020808252810161095281614c7a565b602e81526000602082017f696e76616c6964206d616a20286578706563746564204d616a546167206f722081526d4d616a42797465537472696e672960901b60208201529150614614565b6020808252810161095281614cbe565b818102808215838204851417614bcd57614bcd6144ba565b600081614d4057614d406144ba565b506000190190565b60208082527f537472696e67733a20686578206c656e67746820696e73756666696369656e74910190815260006148d0565b6020808252810161095281614d48565b602581526000602082017f696e76616c6964206d616a20286578706563746564204d616a556e7369676e6581526464496e742960d81b60208201529150614614565b6020808252810161095281614d8a565b81810381811115610952576109526144ba565b601f81526000602082017f696e76616c6964206d616a20286578706563746564204d616a4f746865722900815291506148d0565b6020808252810161095281614def565b805161095281613ecc565b6000614e4c6141fd846141b8565b905082815260208101848484011115614e6757614e67600080fd5b6142288482856142a1565b600082601f830112614e8657614e86600080fd5b8151612614848260208601614e3e565b600080600060608486031215614eae57614eae600080fd5b6000614eba8686614915565b9350506020614ecb86828701614e33565b92505060408401516001600160401b03811115614eea57614eea600080fd5b61412486828701614e72565b602581526000602082017f63616e6e6f742068616e646c6520686561646572732077697468206578747261815264203e20323760d81b60208201529150614614565b6020808252810161095281614ef6565b600c81526000602082016b34b73b30b634b21031b137b960a11b815291506148d0565b6020808252810161095281614f48565b603581526000602082017f696e76616c6964206d616a20286578706563746564204d616a5369676e6564498152746e74206f72204d616a556e7369676e6564496e742960581b60208201529150614614565b6020808252810161095281614f7b565b6014815260006020820173736c6963696e67206f7574206f662072616e676560601b815291506148d0565b6020808252810161095281614fdd565b601d81526000602082017f416464726573733a2063616c6c20746f206e6f6e2d636f6e7472616374000000815291506148d0565b602080825281016109528161501856fec5d2460186f7233c927e7db2dcc703c0e500b653ca82273b7bfad8045d85a47046756e6374696f6e206d7573742062652063616c6c6564207468726f75676820360894a13ba1a3210667c828492db98dca3e2076cc3735a920a3ca505d382bbc416464726573733a206c6f772d6c6576656c2064656c65676174652063616c6c206661696c6564bece676c514da111c8b3698f9a0424811c5c874fd0667943c7e3c04054274a3ea26469706673582212207edf9c36251d04ee70f02f991b8a992a59f2c2038c3edf82f6a2ba6cd1071bc164736f6c63430008110033",
  "devdoc": {
    "kind": "dev",
    "methods": {
      "acceptBeneficiaryAddress(uint64)": {
        "details": "Only triggered by registry admin",
        "params": {
          "_minerId": "Storage Provider miner ID"
        }
      },
      "deactivateStorageProvider(uint64)": {
        "details": "Only triggered by registry admin",
        "params": {
          "_minerId": "Storage Provider miner ID"
        }
      },
      "getRoleAdmin(bytes32)": {
        "details": "Returns the admin role that controls `role`. See {grantRole} and {revokeRole}. To change a role's admin, use {_setRoleAdmin}."
      },
      "grantRole(bytes32,address)": {
        "details": "Grants `role` to `account`. If `account` had not been already granted `role`, emits a {RoleGranted} event. Requirements: - the caller must have ``role``'s admin role. May emit a {RoleGranted} event."
      },
      "hasRole(bytes32,address)": {
        "details": "Returns `true` if `account` has been granted `role`."
      },
      "increasePledgeRepayment(uint64,uint256)": {
        "params": {
          "_minerId": "Storage Provider owner ID",
          "_repaidPledge": "Withdrawn initial pledge after sector termination"
        }
      },
      "increaseRewards(uint64,uint256)": {
        "params": {
          "_accuredRewards": "Withdrawn rewards from SP's miner actor",
          "_minerId": "Storage Provider miner ID"
        }
      },
      "increaseUsedAllocation(uint64,uint256,uint256)": {
        "params": {
          "_allocated": "FIL amount that is going to be pledged for Storage Provider",
          "_minerId": "Storage Provider miner ID",
          "_timestamp": "Transaction timestamp"
        }
      },
      "initialize(uint256,address)": {
        "details": "Contract initializer function.",
        "params": {
          "_maxAllocation": "Number of maximum FIL allocated to a single storage provider"
        }
      },
      "onboardStorageProvider(uint64,uint256,uint256,uint256,int64)": {
        "details": "Only triggered by registry admin",
        "params": {
          "_allocationLimit": "FIL allocation for storage provider",
          "_dailyAllocation": "Daily FIL allocation for storage provider",
          "_lastEpoch": "Last epoch for FIL allocation utilization",
          "_minerId": "Storage Provider miner ID in Filecoin network",
          "_repayment": "FIL repayment for storage provider"
        }
      },
      "proxiableUUID()": {
        "details": "Implementation of the ERC1822 {proxiableUUID} function. This returns the storage slot used by the implementation. It is used to validate the implementation's compatibility when performing an upgrade. IMPORTANT: A proxy pointing at a proxiable contract should not be considered proxiable itself, because this risks bricking a proxy that upgrades to it, by delegating to itself until out of gas. Thus it is critical that this function revert if invoked through a proxy. This is guaranteed by the `notDelegated` modifier."
      },
      "register(uint64,uint256,uint256)": {
        "details": "Only triggered by Storage Provider owner",
        "params": {
          "_allocationLimit": "FIL allocation for storage provider",
          "_dailyAllocation": "Daily FIL allocation for storage provider",
          "_minerId": "Storage Provider miner ID in Filecoin network"
        }
      },
      "registerPool(address)": {
        "details": "Only triggered by registry admin",
        "params": {
          "_pool": "Address of pool smart contract"
        }
      },
      "renounceRole(bytes32,address)": {
        "details": "Revokes `role` from the calling account. Roles are often managed via {grantRole} and {revokeRole}: this function's purpose is to provide a mechanism for accounts to lose their privileges if they are compromised (such as when a trusted device is misplaced). If the calling account had been revoked `role`, emits a {RoleRevoked} event. Requirements: - the caller must be `account`. May emit a {RoleRevoked} event."
      },
      "requestAllocationLimitUpdate(uint64,uint256,uint256)": {
        "details": "Only triggered by Storage Provider owner",
        "params": {
          "_allocationLimit": "New FIL allocation for storage provider",
          "_dailyAllocation": "New daily FIL allocation for storage provider",
          "_minerId": "Storage Provider miner ID"
        }
      },
      "revokeRole(bytes32,address)": {
        "details": "Revokes `role` from `account`. If `account` had been granted `role`, emits a {RoleRevoked} event. Requirements: - the caller must have ``role``'s admin role. May emit a {RoleRevoked} event."
      },
      "setRestaking(uint256,address)": {
        "details": "Only triggered by Storage Provider",
        "params": {
          "_restakingAddress": "Restaking address (f4 address) for Storage Provider",
          "_restakingRatio": "Restaking ratio for Storage Provider"
        }
      },
      "supportsInterface(bytes4)": {
        "details": "See {IERC165-supportsInterface}."
      },
      "updateAllocationLimit(uint64,uint256,uint256,uint256)": {
        "details": "Only triggered by registry admin",
        "params": {
          "_allocationLimit": "New FIL allocation for storage provider",
          "_dailyAllocation": "New daily FIL allocation for storage provider",
          "_minerId": "Storage provider miner ID",
          "_repaymentAmount": "New FIL repayment amount for storage provider"
        }
      },
      "updateMaxAllocation(uint256)": {
        "params": {
          "allocation": "New max allocation per SP"
        }
      },
      "upgradeTo(address)": {
        "custom:oz-upgrades-unsafe-allow-reachable": "delegatecall",
        "details": "Upgrade the implementation of the proxy to `newImplementation`. Calls {_authorizeUpgrade}. Emits an {Upgraded} event."
      },
      "upgradeToAndCall(address,bytes)": {
        "custom:oz-upgrades-unsafe-allow-reachable": "delegatecall",
        "details": "Upgrade the implementation of the proxy to `newImplementation`, and subsequently execute the function call encoded in `data`. Calls {_authorizeUpgrade}. Emits an {Upgraded} event."
      }
    },
    "title": "Storage Provider Registry contract allows storage providers to register in liquid staking protocol and ask for a FIL allocation. Once Storage Provider is registered and signaled their desired FIL allocation it needs to transfer",
    "version": 1
  },
  "userdoc": {
    "errors": {
      "ActorError(int256)": [
        {
          "notice": "the called actor returned an error as part of its expected behaviour"
        }
      ],
      "ActorNotFound()": [
        {
          "notice": "the actor is not found"
        }
      ],
      "FailToCallActor()": [
        {
          "notice": "an error happened trying to call the actor"
        },
        {
          "notice": "an error happened trying to call the actor"
        }
      ],
      "InvalidActorID(uint64)": [
        {
          "notice": "the provided actor id is not valid"
        }
      ],
      "InvalidCodec(uint64)": [
        {
          "notice": "the codec received is not valid"
        }
      ],
      "InvalidResponseLength()": [
        {
          "notice": "the response received is not correct. In some case no response is expected and we received one, or a response was indeed expected and we received none."
        }
      ],
      "NotEnoughBalance(uint256,uint256)": [
        {
          "notice": "the smart contract has no enough balance to transfer"
        }
      ]
    },
    "kind": "user",
    "methods": {
      "acceptBeneficiaryAddress(uint64)": {
        "notice": "Accept beneficiary address transfer and activate FIL allocation"
      },
      "allocations(uint64)": {
        "notice": "Return allocation information for a storage provider"
      },
      "deactivateStorageProvider(uint64)": {
        "notice": "Deactivate storage provider and transfer beneficiary back to the SP owner"
      },
      "getAllocations(uint64)": {
        "notice": "Return a total used allocation and repaid pledge for Storage Provider with `_ownerId`"
      },
      "getRepayment(uint64)": {
        "notice": "Return a repayment amount for Storage Provider"
      },
      "getStorageProvider(uint64)": {
        "notice": "Return Storage Provider information with `_minerId`"
      },
      "increasePledgeRepayment(uint64,uint256)": {
        "notice": "Increase repaid pledge by Storage Provider"
      },
      "increaseRewards(uint64,uint256)": {
        "notice": "Increase collected rewards by Storage Provider"
      },
      "increaseUsedAllocation(uint64,uint256,uint256)": {
        "notice": "Increase used allocation for Storage Provider"
      },
      "isActiveOwner(uint64)": {
        "notice": "Return a boolean flag if `_ownerId` has registered any miner ids"
      },
      "isActivePool(address)": {
        "notice": "Return a boolean flag whether `_pool` is active or not"
      },
      "isActiveProvider(uint64)": {
        "notice": "Return a boolean flag of Storage Provider activity"
      },
      "isActualOwner(uint64,uint64)": {
        "notice": "Return a boolean flag if `_ownerId` owns the specific `_minerId`"
      },
      "onboardStorageProvider(uint64,uint256,uint256,uint256,int64)": {
        "notice": "Onboard storage provider with `_minerId`, desired `_allocationLimit`, `_repayment` amount"
      },
      "register(uint64,uint256,uint256)": {
        "notice": "Register storage provider with `_minerId`, desired `_allocationLimit`"
      },
      "registerPool(address)": {
        "notice": "Register new liquid staking pool"
      },
      "requestAllocationLimitUpdate(uint64,uint256,uint256)": {
        "notice": "Request storage provider's FIL allocation update with `_allocationLimit`"
      },
      "restakings(uint64)": {
        "notice": "Return a restaking information for a storage provider"
      },
      "setRestaking(uint256,address)": {
        "notice": "Update storage provider's restaking ratio"
      },
      "updateAllocationLimit(uint64,uint256,uint256,uint256)": {
        "notice": "Update storage provider FIL allocation with `_allocationLimit`"
      },
      "updateMaxAllocation(uint256)": {
        "notice": "Updates maximum allocation amount for SP"
      }
    },
    "version": 1
  },
  "storageLayout": {
    "storage": [
      {
        "astId": 16459,
        "contract": "contracts/StorageProviderRegistry.sol:StorageProviderRegistry",
        "label": "_initialized",
        "offset": 0,
        "slot": "0",
        "type": "t_uint8"
      },
      {
        "astId": 16462,
        "contract": "contracts/StorageProviderRegistry.sol:StorageProviderRegistry",
        "label": "_initializing",
        "offset": 1,
        "slot": "0",
        "type": "t_bool"
      },
      {
        "astId": 18339,
        "contract": "contracts/StorageProviderRegistry.sol:StorageProviderRegistry",
        "label": "__gap",
        "offset": 0,
        "slot": "1",
        "type": "t_array(t_uint256)50_storage"
      },
      {
        "astId": 18722,
        "contract": "contracts/StorageProviderRegistry.sol:StorageProviderRegistry",
        "label": "__gap",
        "offset": 0,
        "slot": "51",
        "type": "t_array(t_uint256)50_storage"
      },
      {
        "astId": 15418,
        "contract": "contracts/StorageProviderRegistry.sol:StorageProviderRegistry",
        "label": "_roles",
        "offset": 0,
        "slot": "101",
        "type": "t_mapping(t_bytes32,t_struct(RoleData)15413_storage)"
      },
      {
        "astId": 15713,
        "contract": "contracts/StorageProviderRegistry.sol:StorageProviderRegistry",
        "label": "__gap",
        "offset": 0,
        "slot": "102",
        "type": "t_array(t_uint256)49_storage"
      },
      {
        "astId": 16771,
        "contract": "contracts/StorageProviderRegistry.sol:StorageProviderRegistry",
        "label": "_status",
        "offset": 0,
        "slot": "151",
        "type": "t_uint256"
      },
      {
        "astId": 16840,
        "contract": "contracts/StorageProviderRegistry.sol:StorageProviderRegistry",
        "label": "__gap",
        "offset": 0,
        "slot": "152",
        "type": "t_array(t_uint256)49_storage"
      },
      {
        "astId": 16441,
        "contract": "contracts/StorageProviderRegistry.sol:StorageProviderRegistry",
        "label": "__gap",
        "offset": 0,
        "slot": "201",
        "type": "t_array(t_uint256)50_storage"
      },
      {
        "astId": 16756,
        "contract": "contracts/StorageProviderRegistry.sol:StorageProviderRegistry",
        "label": "__gap",
        "offset": 0,
        "slot": "251",
        "type": "t_array(t_uint256)50_storage"
      },
      {
        "astId": 3863,
        "contract": "contracts/StorageProviderRegistry.sol:StorageProviderRegistry",
        "label": "storageProviders",
        "offset": 0,
        "slot": "301",
        "type": "t_mapping(t_uint64,t_struct(StorageProvider)8490_storage)"
      },
      {
        "astId": 3868,
        "contract": "contracts/StorageProviderRegistry.sol:StorageProviderRegistry",
        "label": "allocations",
        "offset": 0,
        "slot": "302",
        "type": "t_mapping(t_uint64,t_struct(SPAllocation)8503_storage)"
      },
      {
        "astId": 3873,
        "contract": "contracts/StorageProviderRegistry.sol:StorageProviderRegistry",
        "label": "restakings",
        "offset": 0,
        "slot": "303",
        "type": "t_mapping(t_uint64,t_struct(SPRestaking)8508_storage)"
      },
      {
        "astId": 3878,
        "contract": "contracts/StorageProviderRegistry.sol:StorageProviderRegistry",
        "label": "allocationRequests",
        "offset": 0,
        "slot": "304",
        "type": "t_mapping(t_uint64,t_struct(AllocationRequest)8513_storage)"
      },
      {
        "astId": 3882,
        "contract": "contracts/StorageProviderRegistry.sol:StorageProviderRegistry",
        "label": "sectorSizes",
        "offset": 0,
        "slot": "305",
        "type": "t_mapping(t_uint64,t_uint64)"
      },
      {
        "astId": 3886,
        "contract": "contracts/StorageProviderRegistry.sol:StorageProviderRegistry",
        "label": "dailyUsages",
        "offset": 0,
        "slot": "306",
        "type": "t_mapping(t_bytes32,t_uint256)"
      },
      {
        "astId": 3890,
        "contract": "contracts/StorageProviderRegistry.sol:StorageProviderRegistry",
        "label": "pools",
        "offset": 0,
        "slot": "307",
        "type": "t_mapping(t_address,t_bool)"
      },
      {
        "astId": 3894,
        "contract": "contracts/StorageProviderRegistry.sol:StorageProviderRegistry",
        "label": "syncedBeneficiary",
        "offset": 0,
        "slot": "308",
        "type": "t_mapping(t_uint64,t_bool)"
      },
      {
        "astId": 3899,
        "contract": "contracts/StorageProviderRegistry.sol:StorageProviderRegistry",
        "label": "minerIds",
        "offset": 0,
        "slot": "309",
        "type": "t_mapping(t_uint64,t_struct(UintSet)20189_storage)"
      },
      {
        "astId": 3906,
        "contract": "contracts/StorageProviderRegistry.sol:StorageProviderRegistry",
        "label": "maxAllocation",
        "offset": 0,
        "slot": "310",
        "type": "t_uint256"
      },
      {
        "astId": 3909,
        "contract": "contracts/StorageProviderRegistry.sol:StorageProviderRegistry",
        "label": "resolver",
        "offset": 0,
        "slot": "311",
        "type": "t_contract(IResolverClient)6083"
      }
    ],
    "types": {
      "t_address": {
        "encoding": "inplace",
        "label": "address",
        "numberOfBytes": "20"
      },
      "t_array(t_bytes32)dyn_storage": {
        "base": "t_bytes32",
        "encoding": "dynamic_array",
        "label": "bytes32[]",
        "numberOfBytes": "32"
      },
      "t_array(t_uint256)49_storage": {
        "base": "t_uint256",
        "encoding": "inplace",
        "label": "uint256[49]",
        "numberOfBytes": "1568"
      },
      "t_array(t_uint256)50_storage": {
        "base": "t_uint256",
        "encoding": "inplace",
        "label": "uint256[50]",
        "numberOfBytes": "1600"
      },
      "t_bool": {
        "encoding": "inplace",
        "label": "bool",
        "numberOfBytes": "1"
      },
      "t_bytes32": {
        "encoding": "inplace",
        "label": "bytes32",
        "numberOfBytes": "32"
      },
      "t_contract(IResolverClient)6083": {
        "encoding": "inplace",
        "label": "contract IResolverClient",
        "numberOfBytes": "20"
      },
      "t_int64": {
        "encoding": "inplace",
        "label": "int64",
        "numberOfBytes": "8"
      },
      "t_mapping(t_address,t_bool)": {
        "encoding": "mapping",
        "key": "t_address",
        "label": "mapping(address => bool)",
        "numberOfBytes": "32",
        "value": "t_bool"
      },
      "t_mapping(t_bytes32,t_struct(RoleData)15413_storage)": {
        "encoding": "mapping",
        "key": "t_bytes32",
        "label": "mapping(bytes32 => struct AccessControlUpgradeable.RoleData)",
        "numberOfBytes": "32",
        "value": "t_struct(RoleData)15413_storage"
      },
      "t_mapping(t_bytes32,t_uint256)": {
        "encoding": "mapping",
        "key": "t_bytes32",
        "label": "mapping(bytes32 => uint256)",
        "numberOfBytes": "32",
        "value": "t_uint256"
      },
      "t_mapping(t_uint64,t_bool)": {
        "encoding": "mapping",
        "key": "t_uint64",
        "label": "mapping(uint64 => bool)",
        "numberOfBytes": "32",
        "value": "t_bool"
      },
      "t_mapping(t_uint64,t_struct(AllocationRequest)8513_storage)": {
        "encoding": "mapping",
        "key": "t_uint64",
        "label": "mapping(uint64 => struct StorageProviderTypes.AllocationRequest)",
        "numberOfBytes": "32",
        "value": "t_struct(AllocationRequest)8513_storage"
      },
      "t_mapping(t_uint64,t_struct(SPAllocation)8503_storage)": {
        "encoding": "mapping",
        "key": "t_uint64",
        "label": "mapping(uint64 => struct StorageProviderTypes.SPAllocation)",
        "numberOfBytes": "32",
        "value": "t_struct(SPAllocation)8503_storage"
      },
      "t_mapping(t_uint64,t_struct(SPRestaking)8508_storage)": {
        "encoding": "mapping",
        "key": "t_uint64",
        "label": "mapping(uint64 => struct StorageProviderTypes.SPRestaking)",
        "numberOfBytes": "32",
        "value": "t_struct(SPRestaking)8508_storage"
      },
      "t_mapping(t_uint64,t_struct(StorageProvider)8490_storage)": {
        "encoding": "mapping",
        "key": "t_uint64",
        "label": "mapping(uint64 => struct StorageProviderTypes.StorageProvider)",
        "numberOfBytes": "32",
        "value": "t_struct(StorageProvider)8490_storage"
      },
      "t_mapping(t_uint64,t_struct(UintSet)20189_storage)": {
        "encoding": "mapping",
        "key": "t_uint64",
        "label": "mapping(uint64 => struct EnumerableSetUpgradeable.UintSet)",
        "numberOfBytes": "32",
        "value": "t_struct(UintSet)20189_storage"
      },
      "t_mapping(t_uint64,t_uint64)": {
        "encoding": "mapping",
        "key": "t_uint64",
        "label": "mapping(uint64 => uint64)",
        "numberOfBytes": "32",
        "value": "t_uint64"
      },
      "t_struct(AllocationRequest)8513_storage": {
        "encoding": "inplace",
        "label": "struct StorageProviderTypes.AllocationRequest",
        "members": [
          {
            "astId": 8510,
            "contract": "contracts/StorageProviderRegistry.sol:StorageProviderRegistry",
            "label": "allocationLimit",
            "offset": 0,
            "slot": "0",
            "type": "t_uint256"
          },
          {
            "astId": 8512,
            "contract": "contracts/StorageProviderRegistry.sol:StorageProviderRegistry",
            "label": "dailyAllocation",
            "offset": 0,
            "slot": "1",
            "type": "t_uint256"
          }
        ],
        "numberOfBytes": "64"
      },
      "t_struct(RoleData)15413_storage": {
        "encoding": "inplace",
        "label": "struct AccessControlUpgradeable.RoleData",
        "members": [
          {
            "astId": 15410,
            "contract": "contracts/StorageProviderRegistry.sol:StorageProviderRegistry",
            "label": "members",
            "offset": 0,
            "slot": "0",
            "type": "t_mapping(t_address,t_bool)"
          },
          {
            "astId": 15412,
            "contract": "contracts/StorageProviderRegistry.sol:StorageProviderRegistry",
            "label": "adminRole",
            "offset": 0,
            "slot": "1",
            "type": "t_bytes32"
          }
        ],
        "numberOfBytes": "64"
      },
      "t_struct(SPAllocation)8503_storage": {
        "encoding": "inplace",
        "label": "struct StorageProviderTypes.SPAllocation",
        "members": [
          {
            "astId": 8492,
            "contract": "contracts/StorageProviderRegistry.sol:StorageProviderRegistry",
            "label": "allocationLimit",
            "offset": 0,
            "slot": "0",
            "type": "t_uint256"
          },
          {
            "astId": 8494,
            "contract": "contracts/StorageProviderRegistry.sol:StorageProviderRegistry",
            "label": "repayment",
            "offset": 0,
            "slot": "1",
            "type": "t_uint256"
          },
          {
            "astId": 8496,
            "contract": "contracts/StorageProviderRegistry.sol:StorageProviderRegistry",
            "label": "usedAllocation",
            "offset": 0,
            "slot": "2",
            "type": "t_uint256"
          },
          {
            "astId": 8498,
            "contract": "contracts/StorageProviderRegistry.sol:StorageProviderRegistry",
            "label": "dailyAllocation",
            "offset": 0,
            "slot": "3",
            "type": "t_uint256"
          },
          {
            "astId": 8500,
            "contract": "contracts/StorageProviderRegistry.sol:StorageProviderRegistry",
            "label": "accruedRewards",
            "offset": 0,
            "slot": "4",
            "type": "t_uint256"
          },
          {
            "astId": 8502,
            "contract": "contracts/StorageProviderRegistry.sol:StorageProviderRegistry",
            "label": "repaidPledge",
            "offset": 0,
            "slot": "5",
            "type": "t_uint256"
          }
        ],
        "numberOfBytes": "192"
      },
      "t_struct(SPRestaking)8508_storage": {
        "encoding": "inplace",
        "label": "struct StorageProviderTypes.SPRestaking",
        "members": [
          {
            "astId": 8505,
            "contract": "contracts/StorageProviderRegistry.sol:StorageProviderRegistry",
            "label": "restakingRatio",
            "offset": 0,
            "slot": "0",
            "type": "t_uint256"
          },
          {
            "astId": 8507,
            "contract": "contracts/StorageProviderRegistry.sol:StorageProviderRegistry",
            "label": "restakingAddress",
            "offset": 0,
            "slot": "1",
            "type": "t_address"
          }
        ],
        "numberOfBytes": "64"
      },
      "t_struct(Set)19717_storage": {
        "encoding": "inplace",
        "label": "struct EnumerableSetUpgradeable.Set",
        "members": [
          {
            "astId": 19712,
            "contract": "contracts/StorageProviderRegistry.sol:StorageProviderRegistry",
            "label": "_values",
            "offset": 0,
            "slot": "0",
            "type": "t_array(t_bytes32)dyn_storage"
          },
          {
            "astId": 19716,
            "contract": "contracts/StorageProviderRegistry.sol:StorageProviderRegistry",
            "label": "_indexes",
            "offset": 0,
            "slot": "1",
            "type": "t_mapping(t_bytes32,t_uint256)"
          }
        ],
        "numberOfBytes": "64"
      },
      "t_struct(StorageProvider)8490_storage": {
        "encoding": "inplace",
        "label": "struct StorageProviderTypes.StorageProvider",
        "members": [
          {
            "astId": 8481,
            "contract": "contracts/StorageProviderRegistry.sol:StorageProviderRegistry",
            "label": "active",
            "offset": 0,
            "slot": "0",
            "type": "t_bool"
          },
          {
            "astId": 8483,
            "contract": "contracts/StorageProviderRegistry.sol:StorageProviderRegistry",
            "label": "onboarded",
            "offset": 1,
            "slot": "0",
            "type": "t_bool"
          },
          {
            "astId": 8485,
            "contract": "contracts/StorageProviderRegistry.sol:StorageProviderRegistry",
            "label": "targetPool",
            "offset": 2,
            "slot": "0",
            "type": "t_address"
          },
          {
            "astId": 8487,
            "contract": "contracts/StorageProviderRegistry.sol:StorageProviderRegistry",
            "label": "ownerId",
            "offset": 22,
            "slot": "0",
            "type": "t_uint64"
          },
          {
            "astId": 8489,
            "contract": "contracts/StorageProviderRegistry.sol:StorageProviderRegistry",
            "label": "lastEpoch",
            "offset": 0,
            "slot": "1",
            "type": "t_int64"
          }
        ],
        "numberOfBytes": "64"
      },
      "t_struct(UintSet)20189_storage": {
        "encoding": "inplace",
        "label": "struct EnumerableSetUpgradeable.UintSet",
        "members": [
          {
            "astId": 20188,
            "contract": "contracts/StorageProviderRegistry.sol:StorageProviderRegistry",
            "label": "_inner",
            "offset": 0,
            "slot": "0",
            "type": "t_struct(Set)19717_storage"
          }
        ],
        "numberOfBytes": "64"
      },
      "t_uint256": {
        "encoding": "inplace",
        "label": "uint256",
        "numberOfBytes": "32"
      },
      "t_uint64": {
        "encoding": "inplace",
        "label": "uint64",
        "numberOfBytes": "8"
      },
      "t_uint8": {
        "encoding": "inplace",
        "label": "uint8",
        "numberOfBytes": "1"
      }
    }
  }
}