{
  "address": "0x0CEBB5ea4fCF7fa5228c4Ae32c26a537904a31B5",
  "abi": [
    {
      "inputs": [],
      "name": "NegativeValueNotAllowed",
      "type": "error"
    },
    {
      "inputs": [
        {
          "internalType": "int256",
          "name": "value",
          "type": "int256"
        }
      ],
      "name": "fromInt256",
      "outputs": [
        {
          "components": [
            {
              "internalType": "bytes",
              "name": "val",
              "type": "bytes"
            },
            {
              "internalType": "bool",
              "name": "neg",
              "type": "bool"
            }
          ],
          "internalType": "struct CommonTypes.BigInt",
          "name": "",
          "type": "tuple"
        }
      ],
      "stateMutability": "view",
      "type": "function"
    },
    {
      "inputs": [
        {
          "internalType": "uint256",
          "name": "value",
          "type": "uint256"
        }
      ],
      "name": "fromUint256",
      "outputs": [
        {
          "components": [
            {
              "internalType": "bytes",
              "name": "val",
              "type": "bytes"
            },
            {
              "internalType": "bool",
              "name": "neg",
              "type": "bool"
            }
          ],
          "internalType": "struct CommonTypes.BigInt",
          "name": "",
          "type": "tuple"
        }
      ],
      "stateMutability": "view",
      "type": "function"
    },
    {
      "inputs": [
        {
          "components": [
            {
              "internalType": "bytes",
              "name": "val",
              "type": "bytes"
            },
            {
              "internalType": "bool",
              "name": "neg",
              "type": "bool"
            }
          ],
          "internalType": "struct CommonTypes.BigInt",
          "name": "bigInt",
          "type": "tuple"
        }
      ],
      "name": "toInt256",
      "outputs": [
        {
          "internalType": "int256",
          "name": "",
          "type": "int256"
        },
        {
          "internalType": "bool",
          "name": "",
          "type": "bool"
        }
      ],
      "stateMutability": "view",
      "type": "function"
    },
    {
      "inputs": [
        {
          "components": [
            {
              "internalType": "bytes",
              "name": "val",
              "type": "bytes"
            },
            {
              "internalType": "bool",
              "name": "neg",
              "type": "bool"
            }
          ],
          "internalType": "struct CommonTypes.BigInt",
          "name": "bigInt",
          "type": "tuple"
        }
      ],
      "name": "toUint256",
      "outputs": [
        {
          "internalType": "uint256",
          "name": "",
          "type": "uint256"
        },
        {
          "internalType": "bool",
          "name": "",
          "type": "bool"
        }
      ],
      "stateMutability": "view",
      "type": "function"
    }
  ],
  "transactionHash": "0xb81726fe3cfcc997af5b37d541b32aa6f826c56c631913e50369a24968b1d913",
  "args": [],
  "numDeployments": 2,
  "solcInputHash": "ace9ef673aa915ddbb11c2ca6b8ce85c",
  "bytecode": "0x608060405234801561001057600080fd5b50610b7d806100206000396000f3fe608060405234801561001057600080fd5b506004361061004c5760003560e01c80631fcf986d146100515780632f7dbc9b1461007b57806383becb8e1461009b578063a2bd3644146100ae575b600080fd5b61006461005f36600461094a565b6100c1565b604051610072929190610994565b60405180910390f35b61008e6100893660046109c0565b6100d6565b6040516100729190610a6b565b6100646100a936600461094a565b6100ed565b61008e6100bc3660046109c0565b6100f9565b6000806100cd8361010a565b91509150915091565b6100de610786565b6100e782610187565b92915050565b6000806100cd836101d0565b610101610786565b6100e78261024e565b60008060006101216001600160ff1b036000610287565b90506000610131855160006102c1565b905061013d81836102d5565b1561015057506000946001945092505050565b6000815161015d90610a86565b9050602086015161016e578061017a565b61017a81600019610ae1565b9660009650945050505050565b61018f610786565b600061019a83610300565b905060006101ab8260008612610287565b9050604051604080820190528082518152602001826020015115159052949350505050565b6000808260200151156101f6576040516341820e7560e11b815260040160405180910390fd5b60006102056000196000610287565b90506000610218855186602001516102c1565b905061022481836102d5565b1561023757506000946001945092505050565b805161024290610a86565b95600095509350505050565b610256610786565b6000610263836000610287565b90506040516040808201905280825181526020018260200151151590529392505050565b61028f61079e565b6102ba836040516020016102a39190610b1f565b604051602081830303815290604052836000610317565b9392505050565b6102c961079e565b6102ba83836000610317565b6000806102e4848460016103ce565b9050806001146102f55760006102f8565b60015b949350505050565b60008082121561031357816000036100e7565b5090565b61031f61079e565b602084018451600059601f8316156001811461034d57601f8416602090810380860184528301019250610357565b6020820192508382525b508282848660046101c2fa506020815101810160405280515b6020811461039e5760006020830151146001811461038e575061039e565b60208301925050601f1901610370565b815284525050506020810183905281156103b857816103c2565b6103c2815161050e565b60408201529392505050565b60006001821561044757846020015180156103ea575083602001515b156103f85750600019610447565b84602001511580156104105750836020015115156001145b1561041f5760019150506102ba565b84602001511515600114801561043757508360200151155b15610447576000199150506102ba565b83604001518560400151111561045e5790506102ba565b8460400151846040015111156104825761047a81600019610ae1565b9150506102ba565b600080808080895151905060208a510194506020895101935060005b818110156104fd57808601519350808501519250828411156104c957869750505050505050506102ba565b838311156104eb576104dd87600019610ae1565b9750505050505050506102ba565b6104f6602082610b34565b905061049e565b5060009a9950505050505050505050565b60006105198261054c565b1561052657506000919050565b60006020830151905061053881610595565b915060086020845103028201915050919050565b60008060208301815b845181101561058a5781519250821561057357506000949350505050565b6020918201916105839082610b34565b9050610555565b506001949350505050565b600081156001811461077b57600160801b600160401b600160201b620100006101006010600460026000198b019081041790810417908104179081041790810417908104179081041790810417600101926040517ff8f9cbfae6cc78fbefe7cdc3a1793dfcf4f0e8bbd8cec470b6a28a7a5a3e1efd81527ff5ecf1b3e9debc68e1d9cfabc5997135bfb7a7a3938b7b606b5b4b3f2f1f0ffe60208201527ff6e4ed9ff2d6b458eadcdf97bd91692de2d4da8fd2d0ac50c6ae9a827252361660408201527fc8c0b887b0a8a4489c948c7f847c6125746c645c544c444038302820181008ff60608201527ff7cae577eec2a03cf3bad76fb589591debb2dd67e0aa9834bea6925f6a4a2e0e60808201527fe39ed557db96902cd38ed14fad815115c786af479b7e8324736353433727170760a08201527fc976c13bb96e881cb166a933a55e490d9d56952b8d4e801485467d236242260660c08201527f753a6d1b65325d0c552a4d1345224105391a310b29122104190a11030902010060e082015261010081016040527e818283848586878898a8b8c8d8e8f929395969799a9b9d9e9faaeb6bedeeff600160f81b8082880204818160ff0385015104600160ff1b86116101000201965060001985018516610771576001870196505b5050505050610780565b600091505b50919050565b60405160408082019052606081526000602082015290565b604051806060016040528060608152602001600015158152602001600081525090565b601f01601f191690565b634e487b7160e01b600052604160045260246000fd5b6107ea826107c1565b81018181106001600160401b0382111715610807576108076107cb565b6040525050565b600061081d6000604051905090565b905061082982826107e1565b919050565b60006001600160401b03821115610847576108476107cb565b610850826107c1565b60200192915050565b82818337506000910152565b60006108786108738461082e565b61080e565b90508281526020810184848401111561089357610893600080fd5b61089e848285610859565b509392505050565b600082601f8301126108ba576108ba600080fd5b81356102f8848260208601610865565b8015155b81146108d957600080fd5b50565b80356100e7816108ca565b6000604082840312156108fc576108fc600080fd5b610906604061080e565b905081356001600160401b0381111561092157610921600080fd5b61092d848285016108a6565b825250602061093e848483016108dc565b60208301525092915050565b60006020828403121561095f5761095f600080fd5b81356001600160401b0381111561097857610978600080fd5b6102f8848285016108e7565b805b82525050565b801515610986565b604081016109a28285610984565b6102ba602083018461098c565b806108ce565b80356100e7816109af565b6000602082840312156109d5576109d5600080fd5b60006102f884846109b5565b60005b838110156109fc5780820151838201526020016109e4565b50506000910152565b6000610a15826000815192915050565b808452602084019350610a2c8185602086016109e1565b610a35816107c1565b9093019392505050565b60006040830182518482038552610a568282610a05565b915050602083015161089e602086018261098c565b602080825281016102ba8184610a3f565b60006100e7825190565b6000610a96826000815192915050565b60208301610aa381610a7c565b92506020821015610ac457610abf600019836020036008021b90565b831692505b5050919050565b634e487b7160e01b600052601160045260246000fd5b8181028060008312600160ff1b85141615610afe57610afe610acb565b8282058414831517610b1257610b12610acb565b5092915050565b80610986565b6000610b2b8284610b19565b50602001919050565b808201808211156100e7576100e7610acb56fea26469706673582212200a77b3c3723bdbd7ff8142d6d45bc9aeb801fa3f4fb2e8a9e58fd2c9c8f05e4d64736f6c63430008110033",
  "devdoc": {
    "kind": "dev",
    "methods": {},
    "version": 1
  },
  "userdoc": {
    "kind": "user",
    "methods": {},
    "version": 1
  },
  "storageLayout": {
    "storage": [],
    "types": null
  }
}