{
  "address": "0xbade009AB199bb5D0497ccbAfe511b4749DdD57f",
  "abi": [
    {
      "inputs": [
        {
          "internalType": "address",
          "name": "_wFIL",
          "type": "address"
        },
        {
          "internalType": "uint256",
          "name": "_adminFee",
          "type": "uint256"
        },
        {
          "internalType": "uint256",
          "name": "_baseProfitShare",
          "type": "uint256"
        },
        {
          "internalType": "address",
          "name": "_rewardCollector",
          "type": "address"
        },
        {
          "internalType": "address",
          "name": "_bigIntsLib",
          "type": "address"
        }
      ],
      "stateMutability": "nonpayable",
      "type": "constructor"
    },
    {
      "inputs": [
        {
          "internalType": "int256",
          "name": "errorCode",
          "type": "int256"
        }
      ],
      "name": "ActorError",
      "type": "error"
    },
    {
      "inputs": [],
      "name": "ActorNotFound",
      "type": "error"
    },
    {
      "inputs": [],
      "name": "FailToCallActor",
      "type": "error"
    },
    {
      "inputs": [
        {
          "internalType": "CommonTypes.FilActorId",
          "name": "actorId",
          "type": "uint64"
        }
      ],
      "name": "InvalidActorID",
      "type": "error"
    },
    {
      "inputs": [
        {
          "internalType": "uint64",
          "name": "",
          "type": "uint64"
        }
      ],
      "name": "InvalidCodec",
      "type": "error"
    },
    {
      "inputs": [],
      "name": "InvalidResponseLength",
      "type": "error"
    },
    {
      "inputs": [
        {
          "internalType": "uint256",
          "name": "balance",
          "type": "uint256"
        },
        {
          "internalType": "uint256",
          "name": "value",
          "type": "uint256"
        }
      ],
      "name": "NotEnoughBalance",
      "type": "error"
    },
    {
      "anonymous": false,
      "inputs": [
        {
          "indexed": true,
          "internalType": "address",
          "name": "owner",
          "type": "address"
        },
        {
          "indexed": true,
          "internalType": "address",
          "name": "spender",
          "type": "address"
        },
        {
          "indexed": false,
          "internalType": "uint256",
          "name": "amount",
          "type": "uint256"
        }
      ],
      "name": "Approval",
      "type": "event"
    },
    {
      "anonymous": false,
      "inputs": [
        {
          "indexed": true,
          "internalType": "address",
          "name": "caller",
          "type": "address"
        },
        {
          "indexed": true,
          "internalType": "address",
          "name": "owner",
          "type": "address"
        },
        {
          "indexed": false,
          "internalType": "uint256",
          "name": "assets",
          "type": "uint256"
        },
        {
          "indexed": false,
          "internalType": "uint256",
          "name": "shares",
          "type": "uint256"
        }
      ],
      "name": "Deposit",
      "type": "event"
    },
    {
      "anonymous": false,
      "inputs": [
        {
          "indexed": false,
          "internalType": "uint64",
          "name": "ownerId",
          "type": "uint64"
        },
        {
          "indexed": false,
          "internalType": "uint64",
          "name": "minerId",
          "type": "uint64"
        },
        {
          "indexed": false,
          "internalType": "uint256",
          "name": "amount",
          "type": "uint256"
        }
      ],
      "name": "Pledge",
      "type": "event"
    },
    {
      "anonymous": false,
      "inputs": [
        {
          "indexed": false,
          "internalType": "uint64",
          "name": "ownerId",
          "type": "uint64"
        },
        {
          "indexed": false,
          "internalType": "uint64",
          "name": "minerId",
          "type": "uint64"
        },
        {
          "indexed": false,
          "internalType": "uint256",
          "name": "amount",
          "type": "uint256"
        }
      ],
      "name": "PledgeRepayment",
      "type": "event"
    },
    {
      "anonymous": false,
      "inputs": [
        {
          "indexed": false,
          "internalType": "uint64",
          "name": "ownerId",
          "type": "uint64"
        },
        {
          "indexed": false,
          "internalType": "uint256",
          "name": "prevShare",
          "type": "uint256"
        },
        {
          "indexed": false,
          "internalType": "uint256",
          "name": "profitShare",
          "type": "uint256"
        }
      ],
      "name": "ProfitShareUpdate",
      "type": "event"
    },
    {
      "anonymous": false,
      "inputs": [
        {
          "indexed": false,
          "internalType": "uint64",
          "name": "ownerId",
          "type": "uint64"
        },
        {
          "indexed": false,
          "internalType": "uint64",
          "name": "minerId",
          "type": "uint64"
        }
      ],
      "name": "ReportRecovery",
      "type": "event"
    },
    {
      "anonymous": false,
      "inputs": [
        {
          "indexed": false,
          "internalType": "uint64",
          "name": "ownerId",
          "type": "uint64"
        },
        {
          "indexed": false,
          "internalType": "uint64",
          "name": "minerId",
          "type": "uint64"
        },
        {
          "indexed": false,
          "internalType": "uint256",
          "name": "slashingAmount",
          "type": "uint256"
        }
      ],
      "name": "ReportSlashing",
      "type": "event"
    },
    {
      "anonymous": false,
      "inputs": [
        {
          "indexed": true,
          "internalType": "bytes32",
          "name": "role",
          "type": "bytes32"
        },
        {
          "indexed": true,
          "internalType": "bytes32",
          "name": "previousAdminRole",
          "type": "bytes32"
        },
        {
          "indexed": true,
          "internalType": "bytes32",
          "name": "newAdminRole",
          "type": "bytes32"
        }
      ],
      "name": "RoleAdminChanged",
      "type": "event"
    },
    {
      "anonymous": false,
      "inputs": [
        {
          "indexed": true,
          "internalType": "bytes32",
          "name": "role",
          "type": "bytes32"
        },
        {
          "indexed": true,
          "internalType": "address",
          "name": "account",
          "type": "address"
        },
        {
          "indexed": true,
          "internalType": "address",
          "name": "sender",
          "type": "address"
        }
      ],
      "name": "RoleGranted",
      "type": "event"
    },
    {
      "anonymous": false,
      "inputs": [
        {
          "indexed": true,
          "internalType": "bytes32",
          "name": "role",
          "type": "bytes32"
        },
        {
          "indexed": true,
          "internalType": "address",
          "name": "account",
          "type": "address"
        },
        {
          "indexed": true,
          "internalType": "address",
          "name": "sender",
          "type": "address"
        }
      ],
      "name": "RoleRevoked",
      "type": "event"
    },
    {
      "anonymous": false,
      "inputs": [
        {
          "indexed": true,
          "internalType": "address",
          "name": "collateral",
          "type": "address"
        }
      ],
      "name": "SetCollateralAddress",
      "type": "event"
    },
    {
      "anonymous": false,
      "inputs": [
        {
          "indexed": true,
          "internalType": "address",
          "name": "registry",
          "type": "address"
        }
      ],
      "name": "SetRegistryAddress",
      "type": "event"
    },
    {
      "anonymous": false,
      "inputs": [
        {
          "indexed": true,
          "internalType": "address",
          "name": "from",
          "type": "address"
        },
        {
          "indexed": true,
          "internalType": "address",
          "name": "to",
          "type": "address"
        },
        {
          "indexed": false,
          "internalType": "uint256",
          "name": "amount",
          "type": "uint256"
        }
      ],
      "name": "Transfer",
      "type": "event"
    },
    {
      "anonymous": false,
      "inputs": [
        {
          "indexed": true,
          "internalType": "address",
          "name": "user",
          "type": "address"
        },
        {
          "indexed": true,
          "internalType": "address",
          "name": "owner",
          "type": "address"
        },
        {
          "indexed": false,
          "internalType": "uint256",
          "name": "assets",
          "type": "uint256"
        },
        {
          "indexed": false,
          "internalType": "uint256",
          "name": "shares",
          "type": "uint256"
        }
      ],
      "name": "Unstaked",
      "type": "event"
    },
    {
      "anonymous": false,
      "inputs": [
        {
          "indexed": false,
          "internalType": "uint256",
          "name": "adminFee",
          "type": "uint256"
        }
      ],
      "name": "UpdateAdminFee",
      "type": "event"
    },
    {
      "anonymous": false,
      "inputs": [
        {
          "indexed": false,
          "internalType": "uint256",
          "name": "profitShare",
          "type": "uint256"
        }
      ],
      "name": "UpdateBaseProfitShare",
      "type": "event"
    },
    {
      "anonymous": false,
      "inputs": [
        {
          "indexed": false,
          "internalType": "address",
          "name": "rewardsCollector",
          "type": "address"
        }
      ],
      "name": "UpdateRewardCollector",
      "type": "event"
    },
    {
      "anonymous": false,
      "inputs": [
        {
          "indexed": true,
          "internalType": "address",
          "name": "caller",
          "type": "address"
        },
        {
          "indexed": true,
          "internalType": "address",
          "name": "receiver",
          "type": "address"
        },
        {
          "indexed": true,
          "internalType": "address",
          "name": "owner",
          "type": "address"
        },
        {
          "indexed": false,
          "internalType": "uint256",
          "name": "assets",
          "type": "uint256"
        },
        {
          "indexed": false,
          "internalType": "uint256",
          "name": "shares",
          "type": "uint256"
        }
      ],
      "name": "Withdraw",
      "type": "event"
    },
    {
      "stateMutability": "payable",
      "type": "fallback"
    },
    {
      "inputs": [],
      "name": "DEFAULT_ADMIN_ROLE",
      "outputs": [
        {
          "internalType": "bytes32",
          "name": "",
          "type": "bytes32"
        }
      ],
      "stateMutability": "view",
      "type": "function"
    },
    {
      "inputs": [],
      "name": "DOMAIN_SEPARATOR",
      "outputs": [
        {
          "internalType": "bytes32",
          "name": "",
          "type": "bytes32"
        }
      ],
      "stateMutability": "view",
      "type": "function"
    },
    {
      "inputs": [],
      "name": "WFIL",
      "outputs": [
        {
          "internalType": "contract IWFIL",
          "name": "",
          "type": "address"
        }
      ],
      "stateMutability": "view",
      "type": "function"
    },
    {
      "inputs": [
        {
          "internalType": "uint64",
          "name": "",
          "type": "uint64"
        }
      ],
      "name": "activeSlashings",
      "outputs": [
        {
          "internalType": "bool",
          "name": "",
          "type": "bool"
        }
      ],
      "stateMutability": "view",
      "type": "function"
    },
    {
      "inputs": [],
      "name": "adminFee",
      "outputs": [
        {
          "internalType": "uint256",
          "name": "",
          "type": "uint256"
        }
      ],
      "stateMutability": "view",
      "type": "function"
    },
    {
      "inputs": [
        {
          "internalType": "address",
          "name": "owner",
          "type": "address"
        },
        {
          "internalType": "address",
          "name": "spender",
          "type": "address"
        }
      ],
      "name": "allowance",
      "outputs": [
        {
          "internalType": "uint256",
          "name": "",
          "type": "uint256"
        }
      ],
      "stateMutability": "view",
      "type": "function"
    },
    {
      "inputs": [
        {
          "internalType": "address",
          "name": "spender",
          "type": "address"
        },
        {
          "internalType": "uint256",
          "name": "amount",
          "type": "uint256"
        }
      ],
      "name": "approve",
      "outputs": [
        {
          "internalType": "bool",
          "name": "",
          "type": "bool"
        }
      ],
      "stateMutability": "nonpayable",
      "type": "function"
    },
    {
      "inputs": [],
      "name": "asset",
      "outputs": [
        {
          "internalType": "contract ERC20",
          "name": "",
          "type": "address"
        }
      ],
      "stateMutability": "view",
      "type": "function"
    },
    {
      "inputs": [
        {
          "internalType": "address",
          "name": "a",
          "type": "address"
        }
      ],
      "name": "balanceOf",
      "outputs": [
        {
          "internalType": "uint256",
          "name": "",
          "type": "uint256"
        }
      ],
      "stateMutability": "view",
      "type": "function"
    },
    {
      "inputs": [],
      "name": "baseProfitShare",
      "outputs": [
        {
          "internalType": "uint256",
          "name": "",
          "type": "uint256"
        }
      ],
      "stateMutability": "view",
      "type": "function"
    },
    {
      "inputs": [
        {
          "internalType": "uint256",
          "name": "shares",
          "type": "uint256"
        }
      ],
      "name": "convertToAssets",
      "outputs": [
        {
          "internalType": "uint256",
          "name": "",
          "type": "uint256"
        }
      ],
      "stateMutability": "view",
      "type": "function"
    },
    {
      "inputs": [
        {
          "internalType": "uint256",
          "name": "assets",
          "type": "uint256"
        }
      ],
      "name": "convertToShares",
      "outputs": [
        {
          "internalType": "uint256",
          "name": "",
          "type": "uint256"
        }
      ],
      "stateMutability": "view",
      "type": "function"
    },
    {
      "inputs": [],
      "name": "decimals",
      "outputs": [
        {
          "internalType": "uint8",
          "name": "",
          "type": "uint8"
        }
      ],
      "stateMutability": "view",
      "type": "function"
    },
    {
      "inputs": [
        {
          "internalType": "uint256",
          "name": "assets",
          "type": "uint256"
        },
        {
          "internalType": "address",
          "name": "receiver",
          "type": "address"
        }
      ],
      "name": "deposit",
      "outputs": [
        {
          "internalType": "uint256",
          "name": "shares",
          "type": "uint256"
        }
      ],
      "stateMutability": "nonpayable",
      "type": "function"
    },
    {
      "inputs": [
        {
          "internalType": "uint64",
          "name": "minerId",
          "type": "uint64"
        },
        {
          "internalType": "address",
          "name": "targetPool",
          "type": "address"
        },
        {
          "internalType": "uint256",
          "name": "quota",
          "type": "uint256"
        },
        {
          "internalType": "int64",
          "name": "expiration",
          "type": "int64"
        }
      ],
      "name": "forwardChangeBeneficiary",
      "outputs": [],
      "stateMutability": "nonpayable",
      "type": "function"
    },
    {
      "inputs": [
        {
          "internalType": "bytes32",
          "name": "role",
          "type": "bytes32"
        }
      ],
      "name": "getRoleAdmin",
      "outputs": [
        {
          "internalType": "bytes32",
          "name": "",
          "type": "bytes32"
        }
      ],
      "stateMutability": "view",
      "type": "function"
    },
    {
      "inputs": [],
      "name": "getUsageRatio",
      "outputs": [
        {
          "internalType": "uint256",
          "name": "",
          "type": "uint256"
        }
      ],
      "stateMutability": "view",
      "type": "function"
    },
    {
      "inputs": [
        {
          "internalType": "bytes32",
          "name": "role",
          "type": "bytes32"
        },
        {
          "internalType": "address",
          "name": "account",
          "type": "address"
        }
      ],
      "name": "grantRole",
      "outputs": [],
      "stateMutability": "nonpayable",
      "type": "function"
    },
    {
      "inputs": [
        {
          "internalType": "bytes32",
          "name": "role",
          "type": "bytes32"
        },
        {
          "internalType": "address",
          "name": "account",
          "type": "address"
        }
      ],
      "name": "hasRole",
      "outputs": [
        {
          "internalType": "bool",
          "name": "",
          "type": "bool"
        }
      ],
      "stateMutability": "view",
      "type": "function"
    },
    {
      "inputs": [
        {
          "internalType": "address",
          "name": "",
          "type": "address"
        }
      ],
      "name": "maxDeposit",
      "outputs": [
        {
          "internalType": "uint256",
          "name": "",
          "type": "uint256"
        }
      ],
      "stateMutability": "view",
      "type": "function"
    },
    {
      "inputs": [
        {
          "internalType": "address",
          "name": "",
          "type": "address"
        }
      ],
      "name": "maxMint",
      "outputs": [
        {
          "internalType": "uint256",
          "name": "",
          "type": "uint256"
        }
      ],
      "stateMutability": "view",
      "type": "function"
    },
    {
      "inputs": [
        {
          "internalType": "address",
          "name": "owner",
          "type": "address"
        }
      ],
      "name": "maxRedeem",
      "outputs": [
        {
          "internalType": "uint256",
          "name": "",
          "type": "uint256"
        }
      ],
      "stateMutability": "view",
      "type": "function"
    },
    {
      "inputs": [
        {
          "internalType": "address",
          "name": "owner",
          "type": "address"
        }
      ],
      "name": "maxWithdraw",
      "outputs": [
        {
          "internalType": "uint256",
          "name": "",
          "type": "uint256"
        }
      ],
      "stateMutability": "view",
      "type": "function"
    },
    {
      "inputs": [
        {
          "internalType": "uint256",
          "name": "shares",
          "type": "uint256"
        },
        {
          "internalType": "address",
          "name": "receiver",
          "type": "address"
        }
      ],
      "name": "mint",
      "outputs": [
        {
          "internalType": "uint256",
          "name": "assets",
          "type": "uint256"
        }
      ],
      "stateMutability": "nonpayable",
      "type": "function"
    },
    {
      "inputs": [],
      "name": "name",
      "outputs": [
        {
          "internalType": "string",
          "name": "",
          "type": "string"
        }
      ],
      "stateMutability": "view",
      "type": "function"
    },
    {
      "inputs": [
        {
          "internalType": "address",
          "name": "",
          "type": "address"
        }
      ],
      "name": "nonces",
      "outputs": [
        {
          "internalType": "uint256",
          "name": "",
          "type": "uint256"
        }
      ],
      "stateMutability": "view",
      "type": "function"
    },
    {
      "inputs": [
        {
          "internalType": "address",
          "name": "owner",
          "type": "address"
        },
        {
          "internalType": "address",
          "name": "spender",
          "type": "address"
        },
        {
          "internalType": "uint256",
          "name": "value",
          "type": "uint256"
        },
        {
          "internalType": "uint256",
          "name": "deadline",
          "type": "uint256"
        },
        {
          "internalType": "uint8",
          "name": "v",
          "type": "uint8"
        },
        {
          "internalType": "bytes32",
          "name": "r",
          "type": "bytes32"
        },
        {
          "internalType": "bytes32",
          "name": "s",
          "type": "bytes32"
        }
      ],
      "name": "permit",
      "outputs": [],
      "stateMutability": "nonpayable",
      "type": "function"
    },
    {
      "inputs": [
        {
          "internalType": "uint256",
          "name": "amount",
          "type": "uint256"
        }
      ],
      "name": "pledge",
      "outputs": [],
      "stateMutability": "nonpayable",
      "type": "function"
    },
    {
      "inputs": [
        {
          "internalType": "uint256",
          "name": "assets",
          "type": "uint256"
        }
      ],
      "name": "previewDeposit",
      "outputs": [
        {
          "internalType": "uint256",
          "name": "",
          "type": "uint256"
        }
      ],
      "stateMutability": "view",
      "type": "function"
    },
    {
      "inputs": [
        {
          "internalType": "uint256",
          "name": "shares",
          "type": "uint256"
        }
      ],
      "name": "previewMint",
      "outputs": [
        {
          "internalType": "uint256",
          "name": "",
          "type": "uint256"
        }
      ],
      "stateMutability": "view",
      "type": "function"
    },
    {
      "inputs": [
        {
          "internalType": "uint256",
          "name": "shares",
          "type": "uint256"
        }
      ],
      "name": "previewRedeem",
      "outputs": [
        {
          "internalType": "uint256",
          "name": "",
          "type": "uint256"
        }
      ],
      "stateMutability": "view",
      "type": "function"
    },
    {
      "inputs": [
        {
          "internalType": "uint256",
          "name": "assets",
          "type": "uint256"
        }
      ],
      "name": "previewWithdraw",
      "outputs": [
        {
          "internalType": "uint256",
          "name": "",
          "type": "uint256"
        }
      ],
      "stateMutability": "view",
      "type": "function"
    },
    {
      "inputs": [
        {
          "internalType": "uint64",
          "name": "",
          "type": "uint64"
        }
      ],
      "name": "profitShares",
      "outputs": [
        {
          "internalType": "uint256",
          "name": "",
          "type": "uint256"
        }
      ],
      "stateMutability": "view",
      "type": "function"
    },
    {
      "inputs": [
        {
          "internalType": "uint256",
          "name": "shares",
          "type": "uint256"
        },
        {
          "internalType": "address",
          "name": "receiver",
          "type": "address"
        },
        {
          "internalType": "address",
          "name": "owner",
          "type": "address"
        }
      ],
      "name": "redeem",
      "outputs": [
        {
          "internalType": "uint256",
          "name": "assets",
          "type": "uint256"
        }
      ],
      "stateMutability": "nonpayable",
      "type": "function"
    },
    {
      "inputs": [
        {
          "internalType": "bytes32",
          "name": "role",
          "type": "bytes32"
        },
        {
          "internalType": "address",
          "name": "account",
          "type": "address"
        }
      ],
      "name": "renounceRole",
      "outputs": [],
      "stateMutability": "nonpayable",
      "type": "function"
    },
    {
      "inputs": [
        {
          "internalType": "uint64",
          "name": "_ownerId",
          "type": "uint64"
        }
      ],
      "name": "reportRecovery",
      "outputs": [],
      "stateMutability": "nonpayable",
      "type": "function"
    },
    {
      "inputs": [
        {
          "internalType": "uint64",
          "name": "_ownerId",
          "type": "uint64"
        },
        {
          "internalType": "uint256",
          "name": "_slashingAmt",
          "type": "uint256"
        }
      ],
      "name": "reportSlashing",
      "outputs": [],
      "stateMutability": "nonpayable",
      "type": "function"
    },
    {
      "inputs": [
        {
          "internalType": "bytes32",
          "name": "role",
          "type": "bytes32"
        },
        {
          "internalType": "address",
          "name": "account",
          "type": "address"
        }
      ],
      "name": "revokeRole",
      "outputs": [],
      "stateMutability": "nonpayable",
      "type": "function"
    },
    {
      "inputs": [],
      "name": "rewardCollector",
      "outputs": [
        {
          "internalType": "address",
          "name": "",
          "type": "address"
        }
      ],
      "stateMutability": "view",
      "type": "function"
    },
    {
      "inputs": [
        {
          "internalType": "address",
          "name": "newAddr",
          "type": "address"
        }
      ],
      "name": "setCollateralAddress",
      "outputs": [],
      "stateMutability": "nonpayable",
      "type": "function"
    },
    {
      "inputs": [
        {
          "internalType": "address",
          "name": "newAddr",
          "type": "address"
        }
      ],
      "name": "setRegistryAddress",
      "outputs": [],
      "stateMutability": "nonpayable",
      "type": "function"
    },
    {
      "inputs": [],
      "name": "stake",
      "outputs": [
        {
          "internalType": "uint256",
          "name": "shares",
          "type": "uint256"
        }
      ],
      "stateMutability": "payable",
      "type": "function"
    },
    {
      "inputs": [
        {
          "internalType": "bytes4",
          "name": "interfaceId",
          "type": "bytes4"
        }
      ],
      "name": "supportsInterface",
      "outputs": [
        {
          "internalType": "bool",
          "name": "",
          "type": "bool"
        }
      ],
      "stateMutability": "view",
      "type": "function"
    },
    {
      "inputs": [],
      "name": "symbol",
      "outputs": [
        {
          "internalType": "string",
          "name": "",
          "type": "string"
        }
      ],
      "stateMutability": "view",
      "type": "function"
    },
    {
      "inputs": [],
      "name": "totalAssets",
      "outputs": [
        {
          "internalType": "uint256",
          "name": "",
          "type": "uint256"
        }
      ],
      "stateMutability": "view",
      "type": "function"
    },
    {
      "inputs": [
        {
          "internalType": "uint64",
          "name": "_ownerId",
          "type": "uint64"
        }
      ],
      "name": "totalFees",
      "outputs": [
        {
          "internalType": "uint256",
          "name": "",
          "type": "uint256"
        }
      ],
      "stateMutability": "view",
      "type": "function"
    },
    {
      "inputs": [],
      "name": "totalFilAvailable",
      "outputs": [
        {
          "internalType": "uint256",
          "name": "",
          "type": "uint256"
        }
      ],
      "stateMutability": "view",
      "type": "function"
    },
    {
      "inputs": [],
      "name": "totalFilPledged",
      "outputs": [
        {
          "internalType": "uint256",
          "name": "",
          "type": "uint256"
        }
      ],
      "stateMutability": "view",
      "type": "function"
    },
    {
      "inputs": [],
      "name": "totalSupply",
      "outputs": [
        {
          "internalType": "uint256",
          "name": "",
          "type": "uint256"
        }
      ],
      "stateMutability": "view",
      "type": "function"
    },
    {
      "inputs": [
        {
          "internalType": "address",
          "name": "to",
          "type": "address"
        },
        {
          "internalType": "uint256",
          "name": "amount",
          "type": "uint256"
        }
      ],
      "name": "transfer",
      "outputs": [
        {
          "internalType": "bool",
          "name": "",
          "type": "bool"
        }
      ],
      "stateMutability": "nonpayable",
      "type": "function"
    },
    {
      "inputs": [
        {
          "internalType": "address",
          "name": "from",
          "type": "address"
        },
        {
          "internalType": "address",
          "name": "to",
          "type": "address"
        },
        {
          "internalType": "uint256",
          "name": "amount",
          "type": "uint256"
        }
      ],
      "name": "transferFrom",
      "outputs": [
        {
          "internalType": "bool",
          "name": "",
          "type": "bool"
        }
      ],
      "stateMutability": "nonpayable",
      "type": "function"
    },
    {
      "inputs": [
        {
          "internalType": "uint256",
          "name": "shares",
          "type": "uint256"
        },
        {
          "internalType": "address",
          "name": "owner",
          "type": "address"
        }
      ],
      "name": "unstake",
      "outputs": [
        {
          "internalType": "uint256",
          "name": "assets",
          "type": "uint256"
        }
      ],
      "stateMutability": "nonpayable",
      "type": "function"
    },
    {
      "inputs": [
        {
          "internalType": "uint256",
          "name": "assets",
          "type": "uint256"
        },
        {
          "internalType": "address",
          "name": "owner",
          "type": "address"
        }
      ],
      "name": "unstakeAssets",
      "outputs": [
        {
          "internalType": "uint256",
          "name": "shares",
          "type": "uint256"
        }
      ],
      "stateMutability": "nonpayable",
      "type": "function"
    },
    {
      "inputs": [
        {
          "internalType": "uint256",
          "name": "fee",
          "type": "uint256"
        }
      ],
      "name": "updateAdminFee",
      "outputs": [],
      "stateMutability": "nonpayable",
      "type": "function"
    },
    {
      "inputs": [
        {
          "internalType": "uint256",
          "name": "share",
          "type": "uint256"
        }
      ],
      "name": "updateBaseProfitShare",
      "outputs": [],
      "stateMutability": "nonpayable",
      "type": "function"
    },
    {
      "inputs": [
        {
          "internalType": "uint64",
          "name": "_ownerId",
          "type": "uint64"
        },
        {
          "internalType": "uint256",
          "name": "_profitShare",
          "type": "uint256"
        }
      ],
      "name": "updateProfitShare",
      "outputs": [],
      "stateMutability": "nonpayable",
      "type": "function"
    },
    {
      "inputs": [
        {
          "internalType": "address",
          "name": "collector",
          "type": "address"
        }
      ],
      "name": "updateRewardsCollector",
      "outputs": [],
      "stateMutability": "nonpayable",
      "type": "function"
    },
    {
      "inputs": [
        {
          "internalType": "uint256",
          "name": "assets",
          "type": "uint256"
        },
        {
          "internalType": "address",
          "name": "receiver",
          "type": "address"
        },
        {
          "internalType": "address",
          "name": "owner",
          "type": "address"
        }
      ],
      "name": "withdraw",
      "outputs": [
        {
          "internalType": "uint256",
          "name": "shares",
          "type": "uint256"
        }
      ],
      "stateMutability": "nonpayable",
      "type": "function"
    },
    {
      "inputs": [
        {
          "internalType": "uint64",
          "name": "ownerId",
          "type": "uint64"
        },
        {
          "internalType": "uint256",
          "name": "amount",
          "type": "uint256"
        }
      ],
      "name": "withdrawPledge",
      "outputs": [],
      "stateMutability": "nonpayable",
      "type": "function"
    },
    {
      "inputs": [
        {
          "internalType": "uint64",
          "name": "ownerId",
          "type": "uint64"
        },
        {
          "internalType": "uint256",
          "name": "amount",
          "type": "uint256"
        }
      ],
      "name": "withdrawRewards",
      "outputs": [],
      "stateMutability": "nonpayable",
      "type": "function"
    },
    {
      "stateMutability": "payable",
      "type": "receive"
    }
  ],
  "transactionHash": "0x3d797debbe1e28ba5082de5c8b6ce1697ac158b73a2ffa6b95f4bbbf4b9d84c3",
  "args": [
    "0x6C297AeD654816dc5d211c956DE816Ba923475D2",
    0,
    3000,
    "0x6228e24Fd0ad7697585BdC7e1AAea279914D7549",
    "0x0CEBB5ea4fCF7fa5228c4Ae32c26a537904a31B5"
  ],
  "numDeployments": 1,
  "solcInputHash": "ace9ef673aa915ddbb11c2ca6b8ce85c",
  "bytecode": "0x61014060405260016006553480156200001757600080fd5b5060405162006bb938038062006bb98339810160408190526200003a916200065f565b84806040518060400160405280601581526020017f436f6c6c656374697665205374616b65642046494c00000000000000000000008152506040518060400160405280600581526020016418db11925360da1b8152508181846001600160a01b031663313ce5676040518163ffffffff1660e01b8152600401602060405180830381865afa158015620000d1573d6000803e3d6000fd5b505050506040513d601f19601f82011682018060405250810190620000f79190620006fa565b60006200010584826200085f565b5060016200011483826200085f565b5060ff81166080524660a0526200012a62000268565b60c0525050506001600160a01b0392831660e05250501661010052612710841115620001735760405162461bcd60e51b81526004016200016a9062000959565b60405180910390fd5b6001600160a01b0382166200019c5760405162461bcd60e51b81526004016200016a90620009a0565b6009849055600a839055600b80546001600160a01b0319166001600160a01b0384811691909117909155811661012052620001d9600033620002f5565b620002057f1d14d86df057371c196b6fcc3e0364275c5066680dd996a56ed0b0e5eb1394a83362000305565b620002317f2174eddbd3dd5d6d1f8771fcfe11e56dde5a1c380f4e4ee908e41262add3ef0c3362000305565b6200025d7f99dec1e9e5d1a31584b10bc1a98110b3c09aa0bfae64dbe2f6188550308bf8433362000305565b505050505062000c55565b60007f8b73c3c69bb8fe3d512ecc4cf759cc79239f7b179b0ffacaa9a75d522b39400f60006040516200029c919062000a2c565b604051908190038120620002da92917fc89efdaa54c0f20c7adf612882df0950f5a951637e0307cdcb4c672f298b8bc6904690309060200162000a4d565b60405160208183030381529060405280519060200120905090565b62000301828262000333565b5050565b6000828152600760205260409020600101546200032281620003bd565b6200032e838362000333565b505050565b6200033f8282620003cc565b620003015760008281526007602090815260408083206001600160a01b03851684529091529020805460ff19166001179055620003793390565b6001600160a01b0316816001600160a01b0316837f2f8788117e7eff1d82e926ec794901d17c78024a50270940304540a733656f0d60405160405180910390a45050565b620003c98133620003f9565b50565b60008281526007602090815260408083206001600160a01b038516845290915290205460ff165b92915050565b620004058282620003cc565b620003015762000420816200047160201b62002d911760201c565b6200043683602062002da362000484821b17811c565b6040516020016200044992919062000aee565b60408051601f198184030181529082905262461bcd60e51b82526200016a9160040162000b7f565b6060620003f36001600160a01b03831660145b606060006200049583600262000ba8565b620004a290600262000bca565b6001600160401b03811115620004bc57620004bc62000727565b6040519080825280601f01601f191660200182016040528015620004e7576020820181803683370190505b509050600360fc1b8160008151811062000505576200050562000be0565b60200101906001600160f81b031916908160001a905350600f60fb1b8160018151811062000537576200053762000be0565b60200101906001600160f81b031916908160001a90535060006200055d84600262000ba8565b6200056a90600162000bca565b90505b6001811115620005ec576f181899199a1a9b1b9c1cb0b131b232b360811b85600f1660108110620005a257620005a262000be0565b1a60f81b828281518110620005bb57620005bb62000be0565b60200101906001600160f81b031916908160001a90535060049490941c93620005e48162000bf6565b90506200056d565b5083156200060e5760405162461bcd60e51b81526004016200016a9062000c43565b9392505050565b60006001600160a01b038216620003f3565b620006328162000615565b8114620003c957600080fd5b8051620003f38162000627565b8062000632565b8051620003f3816200064b565b600080600080600060a086880312156200067c576200067c600080fd5b60006200068a88886200063e565b95505060206200069d8882890162000652565b9450506040620006b08882890162000652565b9350506060620006c3888289016200063e565b9250506080620006d6888289016200063e565b9150509295509295909350565b60ff811662000632565b8051620003f381620006e3565b600060208284031215620007115762000711600080fd5b60006200071f8484620006ed565b949350505050565b634e487b7160e01b600052604160045260246000fd5b634e487b7160e01b600052602260045260246000fd5b6002810460018216806200076857607f821691505b6020821081036200077d576200077d6200073d565b50919050565b6000620003f3620007918381565b90565b6200079f8362000783565b81546008840282811b60001990911b908116901990911617825550505050565b60006200032e81848462000794565b818110156200030157620007e4600082620007bf565b600101620007ce565b601f8211156200032e576000818152602090206020601f85010481016020851015620008165750805b6200082a6020601f860104830182620007ce565b5050505050565b6000196008929092029190911c191690565b600062000851838362000831565b600290930290921792915050565b81516001600160401b038111156200087b576200087b62000727565b62000887825462000753565b62000894828285620007ed565b6020601f831160018114620008c75760008415620008b25750858201515b620008be858262000843565b86555062000926565b600085815260208120601f198616915b82811015620008f95788850151825560209485019460019092019101620008d7565b8683101562000919578489015162000915601f89168262000831565b8355505b6001600288020188555050505b505050505050565b6011815260006020820170494e56414c49445f41444d494e5f46454560781b815291505b5060200190565b60208082528101620003f3816200092e565b601881526000602082017f494e56414c49445f5245574152445f434f4c4c4543544f5200000000000000008152915062000952565b60208082528101620003f3816200096b565b60008154620009c18162000753565b600182168015620009db5760018114620009f15762000a23565b60ff198316865281151582028601935062000a23565b60008581526020902060005b8381101562000a1b57815488820152600190910190602001620009fd565b838801955050505b50505092915050565b60006200060e8284620009b2565b805b82525050565b62000a3c8162000615565b60a0810162000a5d828862000a3a565b62000a6c602083018762000a3a565b62000a7b604083018662000a3a565b62000a8a606083018562000a3a565b62000a99608083018462000a42565b9695505050505050565b60005b8381101562000ac057818101518382015260200162000aa6565b50506000910152565b600062000ad4825190565b62000ae481856020860162000aa3565b9290920192915050565b7f416363657373436f6e74726f6c3a206163636f756e74200000000000000000008152601701600062000b22828562000ac9565b7001034b99036b4b9b9b4b733903937b6329607d1b815260110191506200071f828462000ac9565b600062000b55825190565b80845260208401935062000b6e81856020860162000aa3565b601f01601f19169290920192915050565b602080825281016200060e818462000b4a565b634e487b7160e01b600052601160045260246000fd5b81810280821583820485141762000bc35762000bc362000b92565b5092915050565b80820180821115620003f357620003f362000b92565b634e487b7160e01b600052603260045260246000fd5b60008162000c085762000c0862000b92565b506000190190565b60208082527f537472696e67733a20686578206c656e67746820696e73756666696369656e749101908152600062000952565b60208082528101620003f38162000c10565b60805160a05160c05160e0516101005161012051615e9d62000d1c600039600081816111ce0152818161198901528181611a27015281816122ac01526122fd01526000818161039d0152818161161701528181611c6c01528181611cff015281816123ca01528181613123015281816131a9015281816134d5015261358a015260008181610540015281816112bf0152818161136f0152818161180e015281816121a601526126590152600061105c0152600061102c015260006104ca0152615e9d6000f3fe6080604052600436106102a85760003560e01c806301e1d114146102b157806301ffc9a7146102dc578063029d262e1461030957806306fdde031461032957806307a2d13a1461034b578063092dfc4d1461036b57806309448a861461038b578063095ea7b3146103cc5780630a28a477146103ec57806318160ddd1461040c5780631917a6a71461042257806323b872dd14610442578063248a9ca3146104625780632f2ff15d146104825780632f5fe2de146104a2578063313ce567146104b85780633644e515146104f957806336568abe1461050e57806338d52e0f1461052e5780633a4b66f114610562578063402d267d1461056a578063432b16561461058c57806344324a79146105ac57806344775506146105dc5780634cdad506146105f1578063655cbba7146106115780636e553f651461062657806370a08231146106465780637326c9c0146106665780637ecebe00146106865780638381e182146106b357806391d14854146106d357806394bf804d146106f357806395d89b411461071357806396762a4a14610728578063a0be06f914610748578063a217fddf1461075e578063a41c8db014610773578063a83a2e6514610793578063a9059cbb146107b3578063ab7b4993146107d3578063ad05dc33146107f3578063afffd5b714610809578063b3d7f6b914610836578063b460af9414610856578063b740a5f314610876578063ba08765214610896578063c63d75b61461056a578063c6e6f592146108b6578063ce96cb77146108d6578063cff1b6ef146108f6578063d505accf14610916578063d547741f14610936578063d905777e14610956578063dd62ed3e1461098c578063eeb77ba8146109ac578063ef8b30f7146109cc578063f79126d6146109ec578063f9737db914610a0c578063fe53fa3114610a2c57005b366102af57005b005b3480156102bd57600080fd5b506102c6610a59565b6040516102d391906147d0565b60405180910390f35b3480156102e857600080fd5b506102fc6102f7366004614800565b610a75565b6040516102d39190614829565b34801561031557600080fd5b506102af610324366004614862565b610aac565b34801561033557600080fd5b5061033e610b89565b6040516102d391906148e5565b34801561035757600080fd5b506102c6610366366004614907565b610c17565b34801561037757600080fd5b506102af610386366004614862565b610c44565b34801561039757600080fd5b506103bf7f000000000000000000000000000000000000000000000000000000000000000081565b6040516102d39190614960565b3480156103d857600080fd5b506102fc6103e736600461496e565b610d25565b3480156103f857600080fd5b506102c6610407366004614907565b610d93565b34801561041857600080fd5b506102c660025481565b34801561042e57600080fd5b506102af61043d3660046149c5565b610db3565b34801561044e57600080fd5b506102fc61045d3660046149e6565b610ee9565b34801561046e57600080fd5b506102c661047d366004614907565b610ff2565b34801561048e57600080fd5b506102af61049d366004614a36565b611007565b3480156104ae57600080fd5b506102c6600a5481565b3480156104c457600080fd5b506104ec7f000000000000000000000000000000000000000000000000000000000000000081565b6040516102d39190614a72565b34801561050557600080fd5b506102c6611028565b34801561051a57600080fd5b506102af610529366004614a36565b61107e565b34801561053a57600080fd5b506103bf7f000000000000000000000000000000000000000000000000000000000000000081565b6102c66110b4565b34801561057657600080fd5b506102c6610585366004614862565b5060001990565b34801561059857600080fd5b506102af6105a7366004614a95565b611151565b3480156105b857600080fd5b506102fc6105c73660046149c5565b600f6020526000908152604090205460ff1681565b3480156105e857600080fd5b506102c6611269565b3480156105fd57600080fd5b506102c661060c366004614907565b61129a565b34801561061d57600080fd5b506102c66112a5565b34801561063257600080fd5b506102c6610641366004614a36565b611335565b34801561065257600080fd5b506102c6610661366004614862565b6113e1565b34801561067257600080fd5b506102af610681366004614907565b611419565b34801561069257600080fd5b506102c66106a1366004614862565b60056020526000908152604090205481565b3480156106bf57600080fd5b506102c66106ce366004614a36565b6116ad565b3480156106df57600080fd5b506102fc6106ee366004614a36565b6117c9565b3480156106ff57600080fd5b506102c661070e366004614a36565b6117f4565b34801561071f57600080fd5b5061033e611873565b34801561073457600080fd5b506102af610743366004614af9565b611880565b34801561075457600080fd5b506102c660095481565b34801561076a57600080fd5b506102c6600081565b34801561077f57600080fd5b506102af61078e366004614907565b611e81565b34801561079f57600080fd5b506102c66107ae3660046149c5565b611f3a565b3480156107bf57600080fd5b506102fc6107ce36600461496e565b611f61565b3480156107df57600080fd5b506102af6107ee366004614862565b611fdc565b3480156107ff57600080fd5b506102c660085481565b34801561081557600080fd5b50600b54610829906001600160a01b031681565b6040516102d39190614b24565b34801561084257600080fd5b506102c6610851366004614907565b6120b0565b34801561086257600080fd5b506102c6610871366004614b32565b6120cf565b34801561088257600080fd5b506102af610891366004614af9565b6121cd565b3480156108a257600080fd5b506102c66108b1366004614b32565b612562565b3480156108c257600080fd5b506102c66108d1366004614907565b612680565b3480156108e257600080fd5b506102c66108f1366004614862565b6126a0565b34801561090257600080fd5b506102af610911366004614907565b6126c2565b34801561092257600080fd5b506102af610931366004614b8c565b61276f565b34801561094257600080fd5b506102af610951366004614a36565b61293b565b34801561096257600080fd5b506102c6610971366004614862565b6001600160a01b031660009081526003602052604090205490565b34801561099857600080fd5b506102c66109a7366004614c2b565b612957565b3480156109b857600080fd5b506102af6109c7366004614af9565b6129c4565b3480156109d857600080fd5b506102c66109e7366004614907565b612b62565b3480156109f857600080fd5b506102c6610a07366004614a36565b612b6d565b348015610a1857600080fd5b506102af610a27366004614af9565b612c5e565b348015610a3857600080fd5b506102c6610a473660046149c5565b600e6020526000908152604090205481565b6000600854610a666112a5565b610a709190614c63565b905090565b60006001600160e01b03198216637965db0b60e01b1480610aa657506301ffc9a760e01b6001600160e01b03198316145b92915050565b610ac4600080516020615da8833981519152336117c9565b610ae95760405162461bcd60e51b8152600401610ae090614c9e565b60405180910390fd5b6001600160a01b038116610b0f5760405162461bcd60e51b8152600401610ae090614cd4565b600c546001600160a01b039081169082168103610b3e5760405162461bcd60e51b8152600401610ae090614d07565b600c80546001600160a01b0319166001600160a01b0384169081179091556040517f391d08e66de7b9297197205325a3c005e48f1119cdd571168bc95c78a7bb2a7f90600090a25050565b60008054610b9690614d2d565b80601f0160208091040260200160405190810160405280929190818152602001828054610bc290614d2d565b8015610c0f5780601f10610be457610100808354040283529160200191610c0f565b820191906000526020600020905b815481529060010190602001808311610bf257829003601f168201915b505050505081565b6002546000908015610c3b57610c36610c2e610a59565b849083612f0e565b610c3d565b825b9392505050565b610c5c600080516020615da8833981519152336117c9565b610c785760405162461bcd60e51b8152600401610ae090614c9e565b6001600160a01b038116610c9e5760405162461bcd60e51b8152600401610ae090614cd4565b600b546001600160a01b03908116908216819003610cce5760405162461bcd60e51b8152600401610ae090614d80565b600b80546001600160a01b0319166001600160a01b0384161790556040517f07313053ea330f28549b19716abd0722ca6fafda0a868463eab1010d525443b690610d19908490614b24565b60405180910390a15050565b6000610d39836001600160a01b0316612f2c565b3360008181526004602090815260408083206001600160a01b038616808552925291829020869055905192955091600080516020615e0883398151915290610d829086906147d0565b60405180910390a350600192915050565b6002546000908015610c3b57610c3681610dab610a59565b859190612f73565b610dcb600080516020615e28833981519152336117c9565b610de75760405162461bcd60e51b8152600401610ae090614c9e565b6001600160401b0381166000908152600f602052604090205460ff16610e1f5760405162461bcd60e51b8152600401610ae090614dba565b600d5460405163b0298c3160e01b81526000916001600160a01b03169063b0298c3190610e50908590600401614dd9565b608060405180830381865afa158015610e6d573d6000803e3d6000fd5b505050506040513d601f19601f82011682018060405250810190610e919190614e1b565b506001600160401b0385166000908152600f602052604090819020805460ff19169055519093507f6c4d204a735f6360373ac6ba2315f026f2e1d5f629cf86246812b2615525643c9250610d19915084908490614e73565b6000610efd846001600160a01b0316612f2c565b9350610f11836001600160a01b0316612f2c565b6001600160a01b03851660009081526004602090815260408083203384529091529020549093506000198114610f7057610f4b8382614e8e565b6001600160a01b03861660009081526004602090815260408083203384529091529020555b6001600160a01b03851660009081526003602052604081208054859290610f98908490614e8e565b90915550506001600160a01b0380851660008181526003602052604090819020805487019055519091871690600080516020615de883398151915290610fdf9087906147d0565b60405180910390a3506001949350505050565b60009081526007602052604090206001015490565b61101082610ff2565b61101981612f99565b6110238383612fa6565b505050565b60007f0000000000000000000000000000000000000000000000000000000000000000461461105957610a7061302c565b507f000000000000000000000000000000000000000000000000000000000000000090565b6001600160a01b03811633146110a65760405162461bcd60e51b8152600401610ae090614ef0565b6110b082826130b5565b5050565b60006006546001146110d85760405162461bcd60e51b8152600401610ae090614f21565b6002600655346110e781612b62565b9150816000036111095760405162461bcd60e51b8152600401610ae090614f53565b6111123061311c565b61111c3383613226565b60405133908190600080516020615e48833981519152906111409085908790614f63565b60405180910390a350600160065590565b600d546001600160a01b0316331461117b5760405162461bcd60e51b8152600401610ae090614c9e565b6001600160a01b03831630146111a35760405162461bcd60e51b8152600401610ae090614fa6565b836111ac6146cc565b6111b585613298565b81526040516328af4d9160e21b81526001600160a01b037f0000000000000000000000000000000000000000000000000000000000000000169063a2bd3644906112039087906004016147d0565b600060405180830381865afa158015611220573d6000803e3d6000fd5b505050506040513d6000823e601f3d908101601f191682016040526112489190810190615109565b6020820152600783900b604082015261126182826132db565b505050505050565b60006008546112766112a5565b6112809190614c63565b6127106008546112909190615143565b610a709190615178565b6000610aa682610c17565b6040516370a0823160e01b81526000906001600160a01b037f000000000000000000000000000000000000000000000000000000000000000016906370a08231906112f4903090600401614b24565b602060405180830381865afa158015611311573d6000803e3d6000fd5b505050506040513d601f19601f82011682018060405250810190610a709190615197565b600061134083612b62565b9050806000036113625760405162461bcd60e51b8152600401610ae090614f53565b6113976001600160a01b037f000000000000000000000000000000000000000000000000000000000000000016333086613328565b6113a18282613226565b816001600160a01b0316336001600160a01b0316600080516020615e4883398151915285846040516113d4929190614f63565b60405180910390a3610aa6565b6000600360006113f9846001600160a01b0316612f2c565b6001600160a01b0316815260208101919091526040016000205492915050565b60065460011461143b5760405162461bcd60e51b8152600401610ae090614f21565b6002600655611448610a59565b8111156114675760405162461bcd60e51b8152600401610ae0906151e9565b600061147233612f2c565b9050600080611489836001600160a01b031661338b565b91509150816114aa5760405162461bcd60e51b8152600401610ae090615221565b6001600160401b0381166000908152600f602052604090205460ff16156114e35760405162461bcd60e51b8152600401610ae090615257565b600c5460405163055001d160e31b81526001600160a01b0390911690632a800e88906115159084908890600401615267565b600060405180830381600087803b15801561152f57600080fd5b505af1158015611543573d6000803e3d6000fd5b5050600d5460405163b0298c3160e01b8152600093506001600160a01b03909116915063b0298c319061157a908590600401614dd9565b608060405180830381865afa158015611597573d6000803e3d6000fd5b505050506040513d601f19601f820116820180604052508101906115bb9190614e1b565b509250505060008190507f15453566d67df7c06fb80d23b2fad96f5f14cefd285a97fa5a2c96bfdfed5ad58383886040516115f893929190615275565b60405180910390a1604051632e1a7d4d60e01b81526001600160a01b037f00000000000000000000000000000000000000000000000000000000000000001690632e1a7d4d9061164c9089906004016147d0565b600060405180830381600087803b15801561166657600080fd5b505af115801561167a573d6000803e3d6000fd5b5050505085600860008282546116909190614c63565b909155506116a0905081876133fc565b5050600160065550505050565b60006006546001146116d15760405162461bcd60e51b8152600401610ae090614f21565b6002600655336001600160a01b03831614611744576001600160a01b038216600090815260046020908152604080832033845290915290205460001981146117425761171d8482614e8e565b6001600160a01b03841660009081526004602090815260408083203384529091529020555b505b61174d8361129a565b90508060000361176f5760405162461bcd60e51b8152600401610ae0906152bf565b6117798284613442565b816001600160a01b0316336001600160a01b0316600080516020615d6883398151915283866040516117ac929190614f63565b60405180910390a36117be33826134bb565b600160065592915050565b60009182526007602090815260408084206001600160a01b0393909316845291905290205460ff1690565b60006117ff836120b0565b90506118366001600160a01b037f000000000000000000000000000000000000000000000000000000000000000016333084613328565b6118408284613226565b816001600160a01b0316336001600160a01b0316600080516020615e4883398151915283866040516113d4929190614f63565b60018054610b9690614d2d565b6006546001146118a25760405162461bcd60e51b8152600401610ae090614f21565b60026006556118bf600080516020615dc8833981519152336117c9565b6118db5760405162461bcd60e51b8152600401610ae090614c9e565b6118e36146fa565b600d5460405163b0298c3160e01b81526000916001600160a01b03169063b0298c3190611914908790600401614dd9565b608060405180830381865afa158015611931573d6000803e3d6000fd5b505050506040513d601f19601f820116820180604052508101906119559190614e1b565b506001600160401b03811661014086018190526040516328af4d9160e21b8152919450611a08935091506001600160a01b037f0000000000000000000000000000000000000000000000000000000000000000169063a2bd3644906119be9088906004016147d0565b600060405180830381865afa1580156119db573d6000803e3d6000fd5b505050506040513d6000823e601f3d908101601f19168201604052611a039190810190615109565b613605565b61016083018190526040516341df65c760e11b81526001600160a01b037f000000000000000000000000000000000000000000000000000000000000000016916383becb8e91611a5b91906004016152fc565b6040805180830381865afa158015611a77573d6000803e3d6000fd5b505050506040513d601f19601f82011682018060405250810190611a9b919061530d565b15801560608501526040840191909152611ac75760405162461bcd60e51b8152600401610ae090615368565b82826040015114611aea5760405162461bcd60e51b8152600401610ae0906153aa565b6001600160401b0384166000908152600e602052604090819020549083015161271091611b1691615143565b611b209190615178565b60c0830152600954604083015161271091611b3a91615143565b611b449190615178565b60a0830181905260c0830151611b5a9190614c63565b610100830152600d54604051639e5c139960e01b81526001600160a01b0390911690639e5c139990611b90908790600401614dd9565b6040805180830381865afa158015611bac573d6000803e3d6000fd5b505050506040513d601f19601f82011682018060405250810190611bd091906153ba565b6001600160a01b0316602084015280835215801590611bfb575060208201516001600160a01b031615155b1580156080840152611c3c57815161010083015160408401516127109291611c2291614e8e565b611c2c9190615143565b611c369190615178565b60e08301525b8160e00151826101000151611c519190614c63565b8260400151611c609190614e8e565b826101200181815250507f00000000000000000000000000000000000000000000000000000000000000006001600160a01b031663d0e30db08361010001516040518263ffffffff1660e01b81526004016000604051808303818588803b158015611cca57600080fd5b505af1158015611cde573d6000803e3d6000fd5b5050600b5460a086015160405163a9059cbb60e01b81526001600160a01b037f00000000000000000000000000000000000000000000000000000000000000008116965063a9059cbb9550611d3b945092909216916004016153ed565b6020604051808303816000875af1158015611d5a573d6000803e3d6000fd5b505050506040513d601f19601f82011682018060405250810190611d7e91906153fb565b50611d8e848361012001516133fc565b600d5460c08301516040516303f968d360e51b81526001600160a01b0390921691637f2d1a6091611dc491889190600401615267565b600060405180830381600087803b158015611dde57600080fd5b505af1158015611df2573d6000803e3d6000fd5b5050600c5460405163bea914e560e01b81526001600160a01b03909116925063bea914e59150611e26908790600401614dd9565b600060405180830381600087803b158015611e4057600080fd5b505af1158015611e54573d6000803e3d6000fd5b50505050816080015115611e7657611e748260e00151836020015161363b565b505b505060016006555050565b611e99600080516020615da8833981519152336117c9565b611eb55760405162461bcd60e51b8152600401610ae090614c9e565b611f408111158015611ec75750600081115b611ee35760405162461bcd60e51b8152600401610ae090615448565b600a54808203611f055760405162461bcd60e51b8152600401610ae090615480565b600a8290556040517f58b30063619e1466be35a635d1039964daf50a0007199680346dc2418258988d90610d199084906147d0565b6009546001600160401b0382166000908152600e60205260408120549091610aa691614c63565b6000611f75836001600160a01b0316612f2c565b33600090815260036020526040812080549295508492909190611f99908490614e8e565b90915550506001600160a01b03831660008181526003602052604090819020805485019055513390600080516020615de883398151915290610d829086906147d0565b611ff4600080516020615da8833981519152336117c9565b6120105760405162461bcd60e51b8152600401610ae090614c9e565b6001600160a01b0381166120365760405162461bcd60e51b8152600401610ae090614cd4565b600d546001600160a01b0390811690821681036120655760405162461bcd60e51b8152600401610ae090614d07565b600d80546001600160a01b0319166001600160a01b0384169081179091556040517f3e06c035fbf29a3956dd07cbab527255f029751c95add41cc26990b28ed7179b90600090a25050565b6002546000908015610c3b57610c366120c7610a59565b849083612f73565b60006120da84610d93565b9050336001600160a01b0383161461214a576001600160a01b03821660009081526004602090815260408083203384529091529020546000198114612148576121238282614e8e565b6001600160a01b03841660009081526004602090815260408083203384529091529020555b505b6121548282613442565b816001600160a01b0316836001600160a01b0316336001600160a01b0316600080516020615d888339815191528785604051612191929190614f63565b60405180910390a4610c3d6001600160a01b037f00000000000000000000000000000000000000000000000000000000000000001684866136a5565b6006546001146121ef5760405162461bcd60e51b8152600401610ae090614f21565b600260065561220c600080516020615dc8833981519152336117c9565b6122285760405162461bcd60e51b8152600401610ae090614c9e565b600d5460405163b0298c3160e01b81526000916001600160a01b03169063b0298c3190612259908690600401614dd9565b608060405180830381865afa158015612276573d6000803e3d6000fd5b505050506040513d601f19601f8201168201806040525081019061229a9190614e1b565b5092505050600081905060006122f6827f00000000000000000000000000000000000000000000000000000000000000006001600160a01b031663a2bd3644876040518263ffffffff1660e01b81526004016119be91906147d0565b90506000807f00000000000000000000000000000000000000000000000000000000000000006001600160a01b03166383becb8e846040518263ffffffff1660e01b815260040161234791906152fc565b6040805180830381865afa158015612363573d6000803e3d6000fd5b505050506040513d601f19601f82011682018060405250810190612387919061530d565b9150915080156123a95760405162461bcd60e51b8152600401610ae090615368565b8582146123c85760405162461bcd60e51b8152600401610ae0906153aa565b7f00000000000000000000000000000000000000000000000000000000000000006001600160a01b031663d0e30db0836040518263ffffffff1660e01b81526004016000604051808303818588803b15801561242357600080fd5b505af1158015612437573d6000803e3d6000fd5b5050600d5460405163261d831560e01b81526001600160a01b03909116935063261d8315925061246e91508a908a90600401615267565b600060405180830381600087803b15801561248857600080fd5b505af115801561249c573d6000803e3d6000fd5b5050505085600860008282546124b29190614e8e565b9091555050600c5460405163bea914e560e01b81526001600160a01b039091169063bea914e5906124e7908a90600401614dd9565b600060405180830381600087803b15801561250157600080fd5b505af1158015612515573d6000803e3d6000fd5b505050507f33c1b0b033cebb1bbf26babf099cf823416d67bcfc5d7288da7823cd4aae5b2d87868860405161254c93929190615275565b60405180910390a1505060016006555050505050565b6000336001600160a01b038316146125d2576001600160a01b038216600090815260046020908152604080832033845290915290205460001981146125d0576125ab8582614e8e565b6001600160a01b03841660009081526004602090815260408083203384529091529020555b505b6125db8461129a565b9050806000036125fd5760405162461bcd60e51b8152600401610ae0906152bf565b6126078285613442565b816001600160a01b0316836001600160a01b0316336001600160a01b0316600080516020615d888339815191528488604051612644929190614f63565b60405180910390a4610c3d6001600160a01b037f00000000000000000000000000000000000000000000000000000000000000001684836136a5565b6002546000908015610c3b57610c3681612698610a59565b859190612f0e565b6001600160a01b038116600090815260036020526040812054610aa690610c17565b6126da600080516020615da8833981519152336117c9565b6126f65760405162461bcd60e51b8152600401610ae090614c9e565b6107d08111156127185760405162461bcd60e51b8152600401610ae0906154b9565b60095480820361273a5760405162461bcd60e51b8152600401610ae0906154ee565b60098290556040517f77d4f2c15f544d8498b315fe67fd998d2b98b72a692adfb0e2eb0eced520a9b790610d199084906147d0565b612781866001600160a01b0316612f2c565b9550428410156127a35760405162461bcd60e51b8152600401610ae09061552c565b600060016127af611028565b6001600160a01b038a16600090815260056020908152604091829020805460018101909155915161280c927f6e71edae12b1b97f4d1f60370fef10105fa2faae0126114a169c64845d6126c9928e928e928e9290918e910161553c565b604051602081830303815290604052805190602001206040516020016128339291906155ae565b604051602081830303815290604052805190602001208585856040516000815260200160405260405161286994939291906155df565b6020604051602081039080840390855afa15801561288b573d6000803e3d6000fd5b5050604051601f1901519150506001600160a01b038116158015906128c15750876001600160a01b0316816001600160a01b0316145b6128dd5760405162461bcd60e51b8152600401610ae090615639565b6001600160a01b0390811660009081526004602090815260408083208a851680855292529182902088905590519091891690600080516020615e088339815191529061292a9089906147d0565b60405180910390a350505050505050565b61294482610ff2565b61294d81612f99565b61102383836130b5565b60006004600061296f856001600160a01b0316612f2c565b6001600160a01b03166001600160a01b0316815260200190815260200160002060006129a3846001600160a01b0316612f2c565b6001600160a01b031681526020810191909152604001600020549392505050565b6006546001146129e65760405162461bcd60e51b8152600401610ae090614f21565b6002600655612a03600080516020615e28833981519152336117c9565b612a1f5760405162461bcd60e51b8152600401610ae090614c9e565b600d5460405163b0298c3160e01b81526000916001600160a01b03169063b0298c3190612a50908690600401614dd9565b608060405180830381865afa158015612a6d573d6000803e3d6000fd5b505050506040513d601f19601f82011682018060405250810190612a919190614e1b565b50600c54604051633fb095c560e21b81529194506001600160a01b0316925063fec257149150612ac79086908690600401615267565b600060405180830381600087803b158015612ae157600080fd5b505af1158015612af5573d6000803e3d6000fd5b5050506001600160401b0384166000908152600f602052604090819020805460ff19166001179055517f8304571b6b5f328db0508fa215bb7cc5a764d4982ff61e0c36d7b088c44b643a9150612b5090859084908690615275565b60405180910390a15050600160065550565b6000610aa682612680565b6000600654600114612b915760405162461bcd60e51b8152600401610ae090614f21565b6002600655612b9f83610d93565b9050336001600160a01b03831614612c0f576001600160a01b03821660009081526004602090815260408083203384529091529020546000198114612c0d57612be88282614e8e565b6001600160a01b03841660009081526004602090815260408083203384529091529020555b505b612c198282613442565b816001600160a01b0316336001600160a01b0316600080516020615d688339815191528584604051612c4c929190614f63565b60405180910390a36117be33846134bb565b612c76600080516020615da8833981519152336117c9565b80612c8b5750600d546001600160a01b031633145b612ca75760405162461bcd60e51b8152600401610ae090614c9e565b80600003612ced57600a546001600160401b0383166000908152600e602052604080822083905551600080516020615d4883398151915292610d1992869290919061565e565b6001600160401b0382166000908152600e6020526040902054611f40821115612d285760405162461bcd60e51b8152600401610ae090615448565b808203612d475760405162461bcd60e51b8152600401610ae090615480565b6001600160401b0383166000908152600e60205260409081902083905551600080516020615d4883398151915290612d8490859084908690615679565b60405180910390a1505050565b6060610aa66001600160a01b03831660145b60606000612db2836002615143565b612dbd906002614c63565b6001600160401b03811115612dd457612dd4614fb6565b6040519080825280601f01601f191660200182016040528015612dfe576020820181803683370190505b509050600360fc1b81600081518110612e1957612e19615694565b60200101906001600160f81b031916908160001a905350600f60fb1b81600181518110612e4857612e48615694565b60200101906001600160f81b031916908160001a9053506000612e6c846002615143565b612e77906001614c63565b90505b6001811115612eef576f181899199a1a9b1b9c1cb0b131b232b360811b85600f1660108110612eab57612eab615694565b1a60f81b828281518110612ec157612ec1615694565b60200101906001600160f81b031916908160001a90535060049490941c93612ee8816156aa565b9050612e7a565b508315610c3d5760405162461bcd60e51b8152600401610ae0906156f3565b6000826000190484118302158202612f2557600080fd5b5091020490565b6000806000612f3a846136fb565b9150915081612f4b57509192915050565b600080612f578361372d565b9150915081612f6a575093949350505050565b95945050505050565b6000826000190484118302158202612f8a57600080fd5b50910281810615159190040190565b612fa3813361378e565b50565b612fb082826117c9565b6110b05760008281526007602090815260408083206001600160a01b03851684529091529020805460ff19166001179055612fe83390565b6001600160a01b0316816001600160a01b0316837f2f8788117e7eff1d82e926ec794901d17c78024a50270940304540a733656f0d60405160405180910390a45050565b60007f8b73c3c69bb8fe3d512ecc4cf759cc79239f7b179b0ffacaa9a75d522b39400f600060405161305e9190615775565b60405190819003812061309a92917fc89efdaa54c0f20c7adf612882df0950f5a951637e0307cdcb4c672f298b8bc69046903090602001615781565b60405160208183030381529060405280519060200120905090565b6130bf82826117c9565b156110b05760008281526007602090815260408083206001600160a01b0385168085529252808320805460ff1916905551339285917ff6391f5c32d9c69d2a47ea670b442974b53935d1edc7fd64eb21e047a839171b9190a45050565b60003490507f00000000000000000000000000000000000000000000000000000000000000006001600160a01b031663d0e30db0826040518263ffffffff1660e01b81526004016000604051808303818588803b15801561317c57600080fd5b505af1158015613190573d6000803e3d6000fd5b505060405163a9059cbb60e01b81526001600160a01b037f000000000000000000000000000000000000000000000000000000000000000016935063a9059cbb92506131e39150859085906004016153ed565b6020604051808303816000875af1158015613202573d6000803e3d6000fd5b505050506040513d601f19601f8201168201806040525081019061102391906153fb565b613238826001600160a01b0316612f2c565b9150806002600082825461324c9190614c63565b90915550506001600160a01b03821660008181526003602052604080822080548501905551600080516020615de88339815191529061328c9085906147d0565b60405180910390a35050565b6040805160208101909152606081526040518060200160405280836040516020016132c391906157fa565b60408051601f19818403018152919052905292915050565b60006132e6826137e7565b905060006132fe84635d9dfc2c6051856000806138a1565b9050805160001461332257604051630e74990760e01b815260040160405180910390fd5b50505050565b60006040516323b872dd60e01b81528460048201528360248201528260448201526020600060648360008a5af13d15601f3d11600160005114161716915050806133845760405162461bcd60e51b8152600401610ae090615845565b5050505050565b600080613397836136fb565b909250905081156133a757915091565b8260501b61040a60f01b178060005260206000601660006001607f60991b015afa92506000516001600160401b03169150508115806133e757503d602014155b156133f757506000928392509050565b915091565b6040805160008082526020820190925261341e908490839081908660006138eb565b9050805160001461102357604051630e74990760e01b815260040160405180910390fd5b613454826001600160a01b0316612f2c565b6001600160a01b038116600090815260036020526040812080549294508392909190613481908490614e8e565b90915550506002805482900390556040516000906001600160a01b03841690600080516020615de88339815191529061328c9085906147d0565b6040516370a0823160e01b81526000906001600160a01b037f000000000000000000000000000000000000000000000000000000000000000016906370a082319061350a903090600401614b24565b602060405180830381865afa158015613527573d6000803e3d6000fd5b505050506040513d601f19601f8201168201806040525081019061354b9190615197565b90508181101561356d5760405162461bcd60e51b8152600401610ae09061587e565b801561102357604051632e1a7d4d60e01b81526001600160a01b037f00000000000000000000000000000000000000000000000000000000000000001690632e1a7d4d906135bf9085906004016147d0565b600060405180830381600087803b1580156135d957600080fd5b505af11580156135ed573d6000803e3d6000fd5b50611023925050506001600160a01b038416836139c5565b61360d614776565b6000613618836139f0565b90506000613630856387ed0a646051856000806138a1565b9050612f6a81613a56565b600061364683612b62565b9050806000036136685760405162461bcd60e51b8152600401610ae090614f53565b6136728282613226565b816001600160a01b0316826001600160a01b0316600080516020615e4883398151915285846040516113d4929190614f63565b600060405163a9059cbb60e01b8152836004820152826024820152602060006044836000895af13d15601f3d11600160005114161716915050806133225760405162461bcd60e51b8152600401610ae0906158b4565b600080600160401b600160a01b03831660ff60981b810361372757600192506001600160401b03841691505b50915091565b600080826000526016600a602060006002607f60991b015afa9150600051806001600160a01b031691508060a01c61ffff1661040a81146137715760009350600092505b50508115806133e757503d6016146133f757506000928392509050565b61379882826117c9565b6110b0576137a581612d91565b6137b0836020612da3565b6040516020016137c19291906158e6565b60408051601f198184030181529082905262461bcd60e51b8252610ae0916004016148e5565b60606000806137f98460200151613ab8565b90506138056003613bd7565b61380f9083614c63565b84515190925061381e90613c25565b6138289083614c63565b915061383381613c25565b61383d9083614c63565b915061384c8460400151613c3d565b6138569083614c63565b9150600061386383613c80565b9050613870816003613ca1565b84515161387e908290613cad565b6138888183613cad565b6040850151613898908290613cc6565b612f6a81613cd0565b60606064876001600160401b031610156138d0578660405163a292827360e01b8152600401610ae09190615952565b6138de8787878787876138eb565b90505b9695505050505050565b60606138fe6005607f60991b0184613cfc565b6000806005607f60991b0188868661391757600061391a565b60015b8a8a8e60405160200161393296959493929190615960565b60408051601f198184030181529082905261394c916159b6565b600060405180830381855af49150503d8060008114613987576040519150601f19603f3d011682016040523d82523d6000602084013e61398c565b606091505b5091509150816139af57604051638a7db5bf60e01b815260040160405180910390fd5b6139b881613d44565b9998505050505050505050565b600080600080600085875af19050806110235760405162461bcd60e51b8152600401610ae0906159ec565b60606000806139fe84613ab8565b9050613a0a6001613bd7565b613a149083614c63565b9150613a1f81613c25565b613a299083614c63565b91506000613a3683613c80565b9050613a43816001613ca1565b613898613a4f86613ab8565b8290613cad565b613a5e614776565b606060008084511115613a9257613a758482613e1d565b8151919350915015613a9257613a8a82613f8b565b949350505050565b505060408051600081830181815260608301909352918152602081019190915292915050565b805151606090600090613acc906001614c63565b6001600160401b03811115613ae357613ae3614fb6565b6040519080825280601f01601f191660200182016040528015613b0d576020820181803683370190505b509050826020015115156001151514613b27576000613b2d565b600160f81b5b81600081518110613b4057613b40615694565b60200101906001600160f81b031916908160001a905350600160005b845151811015613bce578451805182908110613b7a57613b7a615694565b602001015160f81c60f81b838381518110613b9757613b97615694565b60200101906001600160f81b031916908160001a90535081613bb8816159fc565b9250508080613bc6906159fc565b915050613b5c565b50909392505050565b600060178211613be957506001919050565b60ff8211613bf957506002919050565b61ffff8211613c0a57506003919050565b63ffffffff8211613c1d57506005919050565b506009919050565b60008151613c338351613bd7565b610aa69190614c63565b600081600781900b8213613c5d57610c3d816001600160401b0316613bd7565b610c3d613c6c82600019615a16565b6001600160401b0316613bd7565b50919050565b613c8861478e565b8051613c9490836140da565b5060006020820152919050565b6110b082600483614144565b613cba826002835161414b565b81516110239082614264565b6110b08282614278565b60608160200151600014613cf65760405162461bcd60e51b8152600401610ae090615a7a565b50515190565b4781811015613d22578082604051634787a10360e11b8152600401610ae0929190614f63565b823f1515806133225760405163064d954b60e41b815260040160405180910390fd5b6060600080600084806020019051810190613d5f9190615a8a565b919450925090506001600160401b038216613d9957805115613d9457604051630e74990760e01b815260040160405180910390fd5b613dfc565b6001600160401b03821660511480613dba57506001600160401b0382166071145b15613de1578051600003613d9457604051630e74990760e01b815260040160405180910390fd5b8160405163f1f6bced60e01b8152600401610ae09190614dd9565b8215613a8a578260405163d4bb667160e01b8152600401610ae091906147d0565b60606000806000613e2e86866142a6565b96509092506001600160401b0316905060ff821660061480613e53575060ff82166002145b613e6f5760405162461bcd60e51b8152600401610ae090615b35565b60051960ff831601613ea857613e8586866142a6565b96509092506001600160401b0316905060ff8216600214613ea857613ea8615b45565b6000613eb48287614c63565b90506000826001600160401b03811115613ed057613ed0614fb6565b6040519080825280601f01601f191660200182016040528015613efa576020820181803683370190505b5090506000875b83811015613f6f57898181518110613f1b57613f1b615694565b602001015160f81c60f81b838381518110613f3857613f38615694565b60200101906001600160f81b031916908160001a90535081613f59816159fc565b9250508080613f67906159fc565b915050613f01565b5081613f7b858a614c63565b9650965050505050509250929050565b613f93614776565b8151600003613fc7575050604080516080810182526001918101918252600060608201819052918152602081019190915290565b600060018351613fd79190614e8e565b6001600160401b03811115613fee57613fee614fb6565b6040519080825280601f01601f191660200182016040528015614018576020820181803683370190505b50905060008360008151811061403057614030615694565b01602001516001600160f81b031916600160f81b0361404d575060015b60015b84518110156140bf5784818151811061406b5761406b615694565b01602001516001600160f81b03191683614086600184614e8e565b8151811061409657614096615694565b60200101906001600160f81b031916908160001a905350806140b7816159fc565b915050614050565b50604080518082019091529182521515602082015292915050565b6140e26147ae565b6140ed602083615b5b565b15614115576140fd602083615b5b565b614108906020614e8e565b6141129083614c63565b91505b60208084018390526040518085526000815290818401018181101561413957600080fd5b604052509192915050565b6110238383835b6017816001600160401b0316116141715782516133229060e0600585901b168317614423565b60ff816001600160401b0316116141b1578251614199906018611fe0600586901b1617614423565b508251613322906001600160401b038316600161447f565b61ffff816001600160401b0316116141f25782516141da906019611fe0600586901b1617614423565b508251613322906001600160401b038316600261447f565b63ffffffff816001600160401b03161161423557825161421d90601a611fe0600586901b1617614423565b508251613322906001600160401b038316600461447f565b825161424c90601b611fe0600586901b1617614423565b508251613322906001600160401b038316600861447f565b61426c6147ae565b610c3d838384516144f7565b60008160070b1261428f576110b08260008361414b565b6110b08260016142a184600019615a16565b61414b565b6000806000806142b686866145bb565b90506142c3600186614c63565b94506007600582901c16601f8216601c81106142f15760405162461bcd60e51b8152600401610ae090615bb1565b60188160ff16101561430f5790945060ff16925084915061441c9050565b8060ff1660180361436c57600061432689896145bb565b9050614333600189614c63565b975060188160ff1610156143595760405162461bcd60e51b8152600401610ae090615be4565b9195505060ff16925084915061441c9050565b8060ff166019036143a6576000614383898961460a565b9050614390600289614c63565b97509195505061ffff16925084915061441c9050565b8060ff16601a036143e25760006143bd8989614643565b90506143ca600489614c63565b97509195505063ffffffff16925084915061441c9050565b8060ff16601b146143f5576143f5615b45565b6000614401898961467c565b905061440e600889614c63565b975091955090935085925050505b9250925092565b61442b6147ae565b825151600061443b826001614c63565b90508460200151821061445c5761445c85614457836002615143565b6146b5565b84516020838201018581538151831115614474578282525b509495945050505050565b6144876147ae565b83515160006144968285614c63565b905085602001518111156144b3576144b386614457836002615143565b600060016144c386610100615cfd565b6144cd9190614e8e565b9050865182810187831982511617815281518411156144ea578382525b5096979650505050505050565b6144ff6147ae565b825182111561450d57600080fd5b835151600061451c8483614c63565b905085602001518111156145395761453986614457836002615143565b855180518382016020019160009180851115614553578482525b505050602086015b602086106145935780518252614572602083614c63565b915061457f602082614c63565b905061458c602087614e8e565b955061455b565b51815160001960208890036101000a0190811690199190911617905250849150509392505050565b60006145c8826001614c63565b835110156145e85760405162461bcd60e51b8152600401610ae090615d37565b8282815181106145fa576145fa615694565b016020015160f81c905092915050565b6000614617826002614c63565b835110156146375760405162461bcd60e51b8152600401610ae090615d37565b50016020015160f01c90565b6000614650826004614c63565b835110156146705760405162461bcd60e51b8152600401610ae090615d37565b50016020015160e01c90565b6000614689826008614c63565b835110156146a95760405162461bcd60e51b8152600401610ae090615d37565b50016020015160c01c90565b81516146c183836140da565b506133228382614264565b604080516080810190915260608082019081528152602081016146ed614776565b8152600060209091015290565b6040518061018001604052806000815260200160006001600160a01b0316815260200160008152602001600015158152602001600015158152602001600081526020016000815260200160008152602001600081526020016000815260200160006001600160401b03168152602001614771614776565b905290565b60408051808201909152606081526000602082015290565b60405180604001604052806147a16147ae565b8152602001600081525090565b604051806040016040528060608152602001600081525090565b805b82525050565b60208101610aa682846147c8565b6001600160e01b031981165b8114612fa357600080fd5b8035610aa6816147de565b60006020828403121561481557614815600080fd5b6000613a8a84846147f5565b8015156147ca565b60208101610aa68284614821565b6001600160a01b031690565b6000610aa682614837565b6147ea81614843565b8035610aa68161484e565b60006020828403121561487757614877600080fd5b6000613a8a8484614857565b60005b8381101561489e578181015183820152602001614886565b50506000910152565b601f01601f191690565b60006148bb825190565b8084526020840193506148d2818560208601614883565b6148db816148a7565b9093019392505050565b60208082528101610c3d81846148b1565b806147ea565b8035610aa6816148f6565b60006020828403121561491c5761491c600080fd5b6000613a8a84846148fc565b6000610aa661493c61493984614837565b90565b614837565b6000610aa682614928565b6000610aa682614941565b6147ca8161494c565b60208101610aa68284614957565b6000806040838503121561498457614984600080fd5b60006149908585614857565b92505060206149a1858286016148fc565b9150509250929050565b6001600160401b0381166147ea565b8035610aa6816149ab565b6000602082840312156149da576149da600080fd5b6000613a8a84846149ba565b6000806000606084860312156149fe576149fe600080fd5b6000614a0a8686614857565b9350506020614a1b86828701614857565b9250506040614a2c868287016148fc565b9150509250925092565b60008060408385031215614a4c57614a4c600080fd5b6000614a5885856148fc565b92505060206149a185828601614857565b60ff81166147ca565b60208101610aa68284614a69565b6147ea8160070b90565b8035610aa681614a80565b60008060008060808587031215614aae57614aae600080fd5b6000614aba87876149ba565b9450506020614acb87828801614857565b9350506040614adc878288016148fc565b9250506060614aed87828801614a8a565b91505092959194509250565b60008060408385031215614b0f57614b0f600080fd5b600061499085856149ba565b6147ca81614843565b60208101610aa68284614b1b565b600080600060608486031215614b4a57614b4a600080fd5b6000614b5686866148fc565b9350506020614b6786828701614857565b9250506040614a2c86828701614857565b60ff81166147ea565b8035610aa681614b78565b600080600080600080600060e0888a031215614baa57614baa600080fd5b6000614bb68a8a614857565b9750506020614bc78a828b01614857565b9650506040614bd88a828b016148fc565b9550506060614be98a828b016148fc565b9450506080614bfa8a828b01614b81565b93505060a0614c0b8a828b016148fc565b92505060c0614c1c8a828b016148fc565b91505092959891949750929550565b60008060408385031215614c4157614c41600080fd5b6000614a588585614857565b634e487b7160e01b600052601160045260246000fd5b80820180821115610aa657610aa6614c4d565b600e81526000602082016d494e56414c49445f41434345535360901b815291505b5060200190565b60208082528101610aa681614c76565b600f81526000602082016e494e56414c49445f4144445245535360881b81529150614c97565b60208082528101610aa681614cae565b600c81526000602082016b53414d455f4144445245535360a01b81529150614c97565b60208082528101610aa681614ce4565b634e487b7160e01b600052602260045260246000fd5b600281046001821680614d4157607f821691505b602082108103613c7a57613c7a614d17565b601681526000602082017553414d455f434f4c4c4543544f525f4144445245535360501b81529150614c97565b60208082528101610aa681614d53565b60138152600060208201724e4f5f4143544956455f534c415348494e475360681b81529150614c97565b60208082528101610aa681614d90565b6001600160401b0381166147ca565b60208101610aa68284614dca565b8015156147ea565b8051610aa681614de7565b8051610aa68161484e565b8051610aa6816149ab565b8051610aa681614a80565b60008060008060808587031215614e3457614e34600080fd5b6000614e408787614def565b9450506020614e5187828801614dfa565b9350506040614e6287828801614e05565b9250506060614aed87828801614e10565b60408101614e818285614dca565b610c3d6020830184614dca565b81810381811115610aa657610aa6614c4d565b602f81526000602082017f416363657373436f6e74726f6c3a2063616e206f6e6c792072656e6f756e636581526e103937b632b9903337b91039b2b63360891b602082015291505b5060400190565b60208082528101610aa681614ea1565b600a8152600060208201695245454e5452414e435960b01b81529150614c97565b60208082528101610aa681614f00565b600b81526000602082016a5a45524f5f53484152455360a81b81529150614c97565b60208082528101610aa681614f31565b60408101614f7182856147c8565b610c3d60208301846147c8565b6011815260006020820170494e434f52524543545f4144445245535360781b81529150614c97565b60208082528101610aa681614f7e565b634e487b7160e01b600052604160045260246000fd5b614fd5826148a7565b81018181106001600160401b0382111715614ff257614ff2614fb6565b6040525050565b600061500460405190565b90506150108282614fcc565b919050565b60006001600160401b0382111561502e5761502e614fb6565b615037826148a7565b60200192915050565b600061505361504e84615015565b614ff9565b90508281526020810184848401111561506e5761506e600080fd5b615079848285614883565b509392505050565b600082601f83011261509557615095600080fd5b8151613a8a848260208601615040565b6000604082840312156150ba576150ba600080fd5b6150c46040614ff9565b82519091506001600160401b038111156150e0576150e0600080fd5b6150ec84828501615081565b82525060206150fd84848301614def565b60208301525092915050565b60006020828403121561511e5761511e600080fd5b81516001600160401b0381111561513757615137600080fd5b613a8a848285016150a5565b81810280821583820485141761515b5761515b614c4d565b5092915050565b634e487b7160e01b600052601260045260246000fd5b60008261518757615187615162565b500490565b8051610aa6816148f6565b6000602082840312156151ac576151ac600080fd5b6000613a8a848461518c565b601a815260006020820179504c454447455f5749544844524157414c5f4f564552464c4f5760301b81529150614c97565b60208082528101610aa6816151b8565b601181526000602082017012539050d512559157d050d513d497d251607a1b81529150614c97565b60208082528101610aa6816151f9565b600f81526000602082016e4143544956455f534c415348494e4760881b81529150614c97565b60208082528101610aa681615231565b60408101614f718285614dca565b606081016152838286614dca565b6152906020830185614dca565b613a8a60408301846147c8565b600b81526000602082016a5a45524f5f41535345545360a81b81529150614c97565b60208082528101610aa68161529d565b80516040808452600091908401906152e782826148b1565b91505060208301516150796020860182614821565b60208082528101610c3d81846152cf565b6000806040838503121561532357615323600080fd5b600061532f858561518c565b92505060206149a185828601614def565b6011815260006020820170494e434f52524543545f4249475f4e554d60781b81529150614c97565b60208082528101610aa681615340565b601b81526000602082017a125390d3d4949150d517d5d2551211149055d05317d05353d55395602a1b81529150614c97565b60208082528101610aa681615378565b600080604083850312156153d0576153d0600080fd5b60006153dc858561518c565b92505060206149a185828601614dfa565b60408101614f718285614b1b565b60006020828403121561541057615410600080fd5b6000613a8a8484614def565b601581526000602082017450524f4649545f53484152455f4f564552464c4f5760581b81529150614c97565b60208082528101610aa68161541c565b601181526000602082017053414d455f50524f4649545f534841524560781b81529150614c97565b60208082528101610aa681615458565b601281526000602082017141444d494e5f4645455f4f564552464c4f5760701b81529150614c97565b60208082528101610aa681615490565b600e81526000602082016d53414d455f41444d494e5f46454560901b81529150614c97565b60208082528101610aa6816154c9565b601781526000602082017614115493525517d11150511312539157d1561412549151604a1b81529150614c97565b60208082528101610aa6816154fe565b60c0810161554a82896147c8565b6155576020830188614b1b565b6155646040830187614b1b565b61557160608301866147c8565b61557e60808301856147c8565b61558b60a08301846147c8565b979650505050505050565b61190160f01b815260005b5060020190565b806147ca565b60006155b982615596565b91506155c582856155a8565b6020820191506155d582846155a8565b5060200192915050565b608081016155ed82876147c8565b6155fa6020830186614a69565b61560760408301856147c8565b612f6a60608301846147c8565b600e81526000602082016d24a72b20a624a22fa9a4a3a722a960911b81529150614c97565b60208082528101610aa681615614565b6000610aa66149398381565b6147ca81615649565b6060810161566c8286614dca565b6152906020830185615655565b606081016156878286614dca565b61529060208301856147c8565b634e487b7160e01b600052603260045260246000fd5b6000816156b9576156b9614c4d565b506000190190565b60208082527f537472696e67733a20686578206c656e67746820696e73756666696369656e7491019081526000614c97565b60208082528101610aa6816156c1565b6000815461571081614d2d565b600182168015615727576001811461573c5761576c565b60ff198316865281151582028601935061576c565b60008581526020902060005b8381101561576457815488820152600190910190602001615748565b838801955050505b50505092915050565b6000610c3d8284615703565b60a0810161578f82886147c8565b61579c60208301876147c8565b6157a960408301866147c8565b6157b660608301856147c8565b6138e16080830184614b1b565b61020560f11b815260006155a1565b6000610aa68260601b90565b6000610aa6826157d2565b6147ca6157f582614843565b6157de565b6000615805826157c3565b915061581182846157e9565b50601401919050565b60148152600060208201731514905394d1915497d19493d357d1905253115160621b81529150614c97565b60208082528101610aa68161581a565b6012815260006020820171496e73756666696369656e7420574554483960701b81529150614c97565b60208082528101610aa681615855565b600f81526000602082016e1514905394d1915497d19052531151608a1b81529150614c97565b60208082528101610aa68161588e565b60006158ce825190565b6158dc818560208601614883565b9290920192915050565b76020b1b1b2b9b9a1b7b73a3937b61d1030b1b1b7bab73a1604d1b8152601701600061591282856158c4565b7001034b99036b4b9b9b4b733903937b6329607d1b81526011019150613a8a82846158c4565b60006001600160401b038216610aa6565b6147ca81615938565b60208101610aa68284615949565b60c0810161596e8289614dca565b61597b60208301886147c8565b6159886040830187614dca565b6159956060830186614dca565b81810360808301526159a781856148b1565b905061558b60a0830184615949565b6000610c3d82846158c4565b601381526000602082017211551217d514905394d1915497d19052531151606a1b81529150614c97565b60208082528101610aa6816159c2565b60006000198203615a0f57615a0f614c4d565b5060010190565b6000615a228260070b90565b9150615a2e8360070b90565b92505081810360016001603f1b0319811260016001603f1b0382131715610aa657610aa6614c4d565b600c81526000602082016b24b73b30b634b21021a127a960a11b81529150614c97565b60208082528101610aa681615a57565b600080600060608486031215615aa257615aa2600080fd5b6000615aae868661518c565b9350506020615abf86828701614e05565b92505060408401516001600160401b03811115615ade57615ade600080fd5b614a2c86828701615081565b602e81526000602082017f696e76616c6964206d616a20286578706563746564204d616a546167206f722081526d4d616a42797465537472696e672960901b60208201529150614ee9565b60208082528101610aa681615aea565b634e487b7160e01b600052600160045260246000fd5b600082615b6a57615b6a615162565b500690565b602581526000602082017f63616e6e6f742068616e646c6520686561646572732077697468206578747261815264203e20323760d81b60208201529150614ee9565b60208082528101610aa681615b6f565b600c81526000602082016b34b73b30b634b21031b137b960a11b81529150614c97565b60208082528101610aa681615bc1565b80825b6001851115615c3357808604811115615c1257615c12614c4d565b6001851615615c2057908102905b8002615c2c8560011c90565b9450615bf7565b94509492505050565b600082615c4b57506001610c3d565b81615c5857506000610c3d565b8160018114615c6e5760028114615c7857615ca5565b6001915050610c3d565b60ff841115615c8957615c89614c4d565b8360020a915084821115615c9f57615c9f614c4d565b50610c3d565b5060208310610133831016604e8410600b8410161715615cd3575081810a83811115610c3657610c36614c4d565b615ce08484846001615bf4565b92509050818404811115615cf657615cf6614c4d565b0292915050565b6000610c3d6000198484615c3c565b6014815260006020820173736c6963696e67206f7574206f662072616e676560601b81529150614c97565b60208082528101610aa681615d0c56fe59f0a5f4bb5b24cec88f1c296d6ac8bd6da5d5fd175ea0549d17f43082c470ea06cc7e90b4f2b554a9614b0caa84f909f3498c820ae47c731f490c28c07f7d3bfbde797d201c681b91056529119e0b02407c7bb96a4a2c75c01fc9667232c8db1d14d86df057371c196b6fcc3e0364275c5066680dd996a56ed0b0e5eb1394a82174eddbd3dd5d6d1f8771fcfe11e56dde5a1c380f4e4ee908e41262add3ef0cddf252ad1be2c89b69c2b068fc378daa952ba7f163c4a11628f55a4df523b3ef8c5be1e5ebec7d5bd14f71427d1e84f3dd0314c0f7b2291e5b200ac8c7c3b92599dec1e9e5d1a31584b10bc1a98110b3c09aa0bfae64dbe2f6188550308bf843dcbc1c05240f31ff3ad067ef1ee35ce4997762752e3a095284754544f4c709d7a26469706673582212205577838ad9552314f7c72308f26d0aa7f372decf561151f1e26dec6d5696e23b64736f6c63430008110033",
  "devdoc": {
    "kind": "dev",
    "methods": {
      "forwardChangeBeneficiary(uint64,address,uint256,int64)": {
        "params": {
          "expiration": "Expiration epoch",
          "minerId": "Miner actor ID",
          "quota": "Total beneficiary quota",
          "targetPool": "LSP smart contract address"
        }
      },
      "getRoleAdmin(bytes32)": {
        "details": "Returns the admin role that controls `role`. See {grantRole} and {revokeRole}. To change a role's admin, use {_setRoleAdmin}."
      },
      "grantRole(bytes32,address)": {
        "details": "Grants `role` to `account`. If `account` had not been already granted `role`, emits a {RoleGranted} event. Requirements: - the caller must have ``role``'s admin role. May emit a {RoleGranted} event."
      },
      "hasRole(bytes32,address)": {
        "details": "Returns `true` if `account` has been granted `role`."
      },
      "pledge(uint256)": {
        "params": {
          "amount": "Amount of FIL to pledge from Liquid Staking Pool"
        }
      },
      "renounceRole(bytes32,address)": {
        "details": "Revokes `role` from the calling account. Roles are often managed via {grantRole} and {revokeRole}: this function's purpose is to provide a mechanism for accounts to lose their privileges if they are compromised (such as when a trusted device is misplaced). If the calling account had been revoked `role`, emits a {RoleRevoked} event. Requirements: - the caller must be `account`. May emit a {RoleRevoked} event."
      },
      "reportRecovery(uint64)": {
        "params": {
          "_ownerId": "Storage provider owner ID"
        }
      },
      "reportSlashing(uint64,uint256)": {
        "details": "Please note that slashing amount couldn't exceed the total amount of collateral provided by SP. If sector has been slashed for 42 days and automatically terminated both operations would take place after one another: slashing report and initial pledge withdrawal which is the remaining pledge for a terminated sector.",
        "params": {
          "_ownerId": "Storage provider owner ID",
          "_slashingAmt": "Slashing amount"
        }
      },
      "revokeRole(bytes32,address)": {
        "details": "Revokes `role` from `account`. If `account` had been granted `role`, emits a {RoleRevoked} event. Requirements: - the caller must have ``role``'s admin role. May emit a {RoleRevoked} event."
      },
      "setCollateralAddress(address)": {
        "params": {
          "newAddr": "StorageProviderCollateral contract address"
        }
      },
      "setRegistryAddress(address)": {
        "params": {
          "newAddr": "StorageProviderRegistry contract address"
        }
      },
      "supportsInterface(bytes4)": {
        "details": "See {IERC165-supportsInterface}."
      },
      "totalFees(uint64)": {
        "params": {
          "_ownerId": "Storage Provider owner ID"
        }
      },
      "unstake(uint256,address)": {
        "details": "Please note that unstake amount has to be clFIL shares (not FIL assets)",
        "params": {
          "owner": "Original owner of clFIL tokens",
          "shares": "Total clFIL amount to burn (unstake)"
        }
      },
      "unstakeAssets(uint256,address)": {
        "params": {
          "assets": "Total FIL amount to unstake",
          "owner": "Original owner of clFIL tokens"
        }
      },
      "updateAdminFee(uint256)": {
        "details": "Make sure that admin fee is not greater than 20%",
        "params": {
          "fee": "New admin fee"
        }
      },
      "updateBaseProfitShare(uint256)": {
        "details": "Make sure that profit sharing is not greater than 80%",
        "params": {
          "share": "New base profit sharing ratio"
        }
      },
      "updateProfitShare(uint64,uint256)": {
        "details": "Updates profit sharing requirements for SP with `_ownerId` by `_profitShare` percentage",
        "params": {
          "_ownerId": "Storage provider owner ID",
          "_profitShare": "Percentage of profit sharing"
        }
      },
      "updateRewardsCollector(address)": {
        "params": {
          "collector": "New rewards collector address"
        }
      },
      "withdrawPledge(uint64,uint256)": {
        "details": "Please note that pledge amount withdrawn couldn't exceed used allocation by SP",
        "params": {
          "amount": "Initial pledge amount",
          "ownerId": "Storage provider owner ID"
        }
      },
      "withdrawRewards(uint64,uint256)": {
        "params": {
          "amount": "Withdrawal amount",
          "ownerId": "Storage provider owner ID"
        }
      }
    },
    "title": "LiquidStaking contract allows users to stake/unstake FIL to earn Filecoin mining rewards. Staked FIL is allocated to Storage Providers (SPs) that perform filecoin storage mining operations. This contract acts as a beneficiary address for each SP that uses FIL capital for pledges. While staking FIL user would get clFIL token in exchange, the token follows ERC4626 standard and it's price is recalculated once mining rewards are distributed to the liquid staking pool and once new FIL is deposited. Please note that LiquidStaking contract performs wrapping of the native FIL into Wrapped Filecoin (WFIL) token.",
    "version": 1
  },
  "userdoc": {
    "errors": {
      "ActorError(int256)": [
        {
          "notice": "the called actor returned an error as part of its expected behaviour"
        }
      ],
      "ActorNotFound()": [
        {
          "notice": "the actor is not found"
        }
      ],
      "FailToCallActor()": [
        {
          "notice": "an error happened trying to call the actor"
        }
      ],
      "InvalidActorID(uint64)": [
        {
          "notice": "the provided actor id is not valid"
        }
      ],
      "InvalidCodec(uint64)": [
        {
          "notice": "the codec received is not valid"
        }
      ],
      "InvalidResponseLength()": [
        {
          "notice": "the response received is not correct. In some case no response is expected and we received one, or a response was indeed expected and we received none."
        }
      ],
      "NotEnoughBalance(uint256,uint256)": [
        {
          "notice": "the smart contract has no enough balance to transfer"
        }
      ]
    },
    "events": {
      "Pledge(uint64,uint64,uint256)": {
        "notice": "Emitted when storage provider is withdrawing FIL for pledge"
      },
      "PledgeRepayment(uint64,uint64,uint256)": {
        "notice": "Emitted when storage provider's pledge is returned back to the LSP"
      },
      "ProfitShareUpdate(uint64,uint256,uint256)": {
        "notice": "Emitted when profit sharing is update for SP"
      },
      "ReportRecovery(uint64,uint64)": {
        "notice": "Emitted when storage provider has been reported to recover slashed sectors"
      },
      "ReportSlashing(uint64,uint64,uint256)": {
        "notice": "Emitted when storage provider has been reported to accure slashing"
      },
      "SetCollateralAddress(address)": {
        "notice": "Emitted when collateral address is updated"
      },
      "SetRegistryAddress(address)": {
        "notice": "Emitted when registry address is updated"
      },
      "Unstaked(address,address,uint256,uint256)": {
        "notice": "Emitted when user is staked wFIL to the Liquid Staking"
      },
      "UpdateAdminFee(uint256)": {
        "notice": "Emitted when admin fee is updated"
      },
      "UpdateBaseProfitShare(uint256)": {
        "notice": "Emitted when base profit sharing is updated"
      },
      "UpdateRewardCollector(address)": {
        "notice": "Emitted when reward collector address is updated"
      }
    },
    "kind": "user",
    "methods": {
      "forwardChangeBeneficiary(uint64,address,uint256,int64)": {
        "notice": "Triggers changeBeneficiary Miner actor call"
      },
      "getUsageRatio()": {
        "notice": "Returns pool usage ratio to determine what percentage of FIL is pledged compared to the total amount of FIL staked."
      },
      "pledge(uint256)": {
        "notice": "Pledge FIL assets from liquid staking pool to miner pledge for one sector"
      },
      "reportRecovery(uint64)": {
        "notice": "Report recovery of previously slashed sectors for SP with `_ownerId`"
      },
      "reportSlashing(uint64,uint256)": {
        "notice": "Report slashing of SP accured on the Filecoin network This function is triggered when SP get continiously slashed by faulting it's sectors"
      },
      "setCollateralAddress(address)": {
        "notice": "Updates StorageProviderCollateral contract address"
      },
      "setRegistryAddress(address)": {
        "notice": "Updates StorageProviderRegistry contract address"
      },
      "stake()": {
        "notice": "Stake FIL to the Liquid Staking pool and get clFIL in return native FIL is wrapped into WFIL and deposited into LiquidStakingmsg.value is the amount of FIL to stake"
      },
      "totalAssets()": {
        "notice": "Returns total amount of assets backing clFIL, that includes buffered capital in the pool and pledged capital to the SPs."
      },
      "totalFees(uint64)": {
        "notice": "Returns total amount of fees held by LSP for a specific SP with `_ownerId`"
      },
      "totalFilAvailable()": {
        "notice": "Returns the amount of WFIL available on the liquid staking contract"
      },
      "totalFilPledged()": {
        "notice": "The current total amount of FIL that is allocated to SPs."
      },
      "unstake(uint256,address)": {
        "notice": "Unstake FIL from the Liquid Staking pool and burn clFIL tokens"
      },
      "unstakeAssets(uint256,address)": {
        "notice": "Unstake FIL from the Liquid Staking pool and burn clFIL tokens"
      },
      "updateAdminFee(uint256)": {
        "notice": "Updates admin fee for the protocol revenue"
      },
      "updateBaseProfitShare(uint256)": {
        "notice": "Updates base profit sharing ratio"
      },
      "updateProfitShare(uint64,uint256)": {
        "notice": "Only triggered by Liquid Staking admin or registry contract while registering SP"
      },
      "updateRewardsCollector(address)": {
        "notice": "Updates reward collector address of the protocol revenue"
      },
      "withdrawPledge(uint64,uint256)": {
        "notice": "Withdraw initial pledge from Storage Provider's Miner Actor by `ownerId` This function is triggered when sector is not extended by miner actor and initial pledge unlocked"
      },
      "withdrawRewards(uint64,uint256)": {
        "notice": "Withdraw FIL assets from Storage Provider by `ownerId` and it's Miner actor and restake `restakeAmount` into the Storage Provider specified f4 address"
      }
    },
    "version": 1
  },
  "storageLayout": {
    "storage": [
      {
        "astId": 5523,
        "contract": "contracts/LiquidStaking.sol:LiquidStaking",
        "label": "name",
        "offset": 0,
        "slot": "0",
        "type": "t_string_storage"
      },
      {
        "astId": 5525,
        "contract": "contracts/LiquidStaking.sol:LiquidStaking",
        "label": "symbol",
        "offset": 0,
        "slot": "1",
        "type": "t_string_storage"
      },
      {
        "astId": 5529,
        "contract": "contracts/LiquidStaking.sol:LiquidStaking",
        "label": "totalSupply",
        "offset": 0,
        "slot": "2",
        "type": "t_uint256"
      },
      {
        "astId": 5533,
        "contract": "contracts/LiquidStaking.sol:LiquidStaking",
        "label": "balances",
        "offset": 0,
        "slot": "3",
        "type": "t_mapping(t_address,t_uint256)"
      },
      {
        "astId": 5539,
        "contract": "contracts/LiquidStaking.sol:LiquidStaking",
        "label": "allowances",
        "offset": 0,
        "slot": "4",
        "type": "t_mapping(t_address,t_mapping(t_address,t_uint256))"
      },
      {
        "astId": 5547,
        "contract": "contracts/LiquidStaking.sol:LiquidStaking",
        "label": "nonces",
        "offset": 0,
        "slot": "5",
        "type": "t_mapping(t_address,t_uint256)"
      },
      {
        "astId": 18239,
        "contract": "contracts/LiquidStaking.sol:LiquidStaking",
        "label": "locked",
        "offset": 0,
        "slot": "6",
        "type": "t_uint256"
      },
      {
        "astId": 18284,
        "contract": "contracts/LiquidStaking.sol:LiquidStaking",
        "label": "_roles",
        "offset": 0,
        "slot": "7",
        "type": "t_mapping(t_bytes32,t_struct(RoleData)18279_storage)"
      },
      {
        "astId": 86,
        "contract": "contracts/LiquidStaking.sol:LiquidStaking",
        "label": "totalFilPledged",
        "offset": 0,
        "slot": "8",
        "type": "t_uint256"
      },
      {
        "astId": 91,
        "contract": "contracts/LiquidStaking.sol:LiquidStaking",
        "label": "adminFee",
        "offset": 0,
        "slot": "9",
        "type": "t_uint256"
      },
      {
        "astId": 93,
        "contract": "contracts/LiquidStaking.sol:LiquidStaking",
        "label": "baseProfitShare",
        "offset": 0,
        "slot": "10",
        "type": "t_uint256"
      },
      {
        "astId": 95,
        "contract": "contracts/LiquidStaking.sol:LiquidStaking",
        "label": "rewardCollector",
        "offset": 0,
        "slot": "11",
        "type": "t_address"
      },
      {
        "astId": 98,
        "contract": "contracts/LiquidStaking.sol:LiquidStaking",
        "label": "collateral",
        "offset": 0,
        "slot": "12",
        "type": "t_contract(IStorageProviderCollateralClient)4740"
      },
      {
        "astId": 101,
        "contract": "contracts/LiquidStaking.sol:LiquidStaking",
        "label": "registry",
        "offset": 0,
        "slot": "13",
        "type": "t_contract(IStorageProviderRegistryClient)5130"
      },
      {
        "astId": 123,
        "contract": "contracts/LiquidStaking.sol:LiquidStaking",
        "label": "profitShares",
        "offset": 0,
        "slot": "14",
        "type": "t_mapping(t_uint64,t_uint256)"
      },
      {
        "astId": 127,
        "contract": "contracts/LiquidStaking.sol:LiquidStaking",
        "label": "activeSlashings",
        "offset": 0,
        "slot": "15",
        "type": "t_mapping(t_uint64,t_bool)"
      }
    ],
    "types": {
      "t_address": {
        "encoding": "inplace",
        "label": "address",
        "numberOfBytes": "20"
      },
      "t_bool": {
        "encoding": "inplace",
        "label": "bool",
        "numberOfBytes": "1"
      },
      "t_bytes32": {
        "encoding": "inplace",
        "label": "bytes32",
        "numberOfBytes": "32"
      },
      "t_contract(IStorageProviderCollateralClient)4740": {
        "encoding": "inplace",
        "label": "contract IStorageProviderCollateralClient",
        "numberOfBytes": "20"
      },
      "t_contract(IStorageProviderRegistryClient)5130": {
        "encoding": "inplace",
        "label": "contract IStorageProviderRegistryClient",
        "numberOfBytes": "20"
      },
      "t_mapping(t_address,t_bool)": {
        "encoding": "mapping",
        "key": "t_address",
        "label": "mapping(address => bool)",
        "numberOfBytes": "32",
        "value": "t_bool"
      },
      "t_mapping(t_address,t_mapping(t_address,t_uint256))": {
        "encoding": "mapping",
        "key": "t_address",
        "label": "mapping(address => mapping(address => uint256))",
        "numberOfBytes": "32",
        "value": "t_mapping(t_address,t_uint256)"
      },
      "t_mapping(t_address,t_uint256)": {
        "encoding": "mapping",
        "key": "t_address",
        "label": "mapping(address => uint256)",
        "numberOfBytes": "32",
        "value": "t_uint256"
      },
      "t_mapping(t_bytes32,t_struct(RoleData)18279_storage)": {
        "encoding": "mapping",
        "key": "t_bytes32",
        "label": "mapping(bytes32 => struct AccessControl.RoleData)",
        "numberOfBytes": "32",
        "value": "t_struct(RoleData)18279_storage"
      },
      "t_mapping(t_uint64,t_bool)": {
        "encoding": "mapping",
        "key": "t_uint64",
        "label": "mapping(uint64 => bool)",
        "numberOfBytes": "32",
        "value": "t_bool"
      },
      "t_mapping(t_uint64,t_uint256)": {
        "encoding": "mapping",
        "key": "t_uint64",
        "label": "mapping(uint64 => uint256)",
        "numberOfBytes": "32",
        "value": "t_uint256"
      },
      "t_string_storage": {
        "encoding": "bytes",
        "label": "string",
        "numberOfBytes": "32"
      },
      "t_struct(RoleData)18279_storage": {
        "encoding": "inplace",
        "label": "struct AccessControl.RoleData",
        "members": [
          {
            "astId": 18276,
            "contract": "contracts/LiquidStaking.sol:LiquidStaking",
            "label": "members",
            "offset": 0,
            "slot": "0",
            "type": "t_mapping(t_address,t_bool)"
          },
          {
            "astId": 18278,
            "contract": "contracts/LiquidStaking.sol:LiquidStaking",
            "label": "adminRole",
            "offset": 0,
            "slot": "1",
            "type": "t_bytes32"
          }
        ],
        "numberOfBytes": "64"
      },
      "t_uint256": {
        "encoding": "inplace",
        "label": "uint256",
        "numberOfBytes": "32"
      },
      "t_uint64": {
        "encoding": "inplace",
        "label": "uint64",
        "numberOfBytes": "8"
      }
    }
  }
}