{
  "address": "0x33494d4f5976cf95c993DA8e485129702b4086Cb",
  "abi": [
    {
      "inputs": [],
      "name": "ActiveSlashing",
      "type": "error"
    },
    {
      "inputs": [
        {
          "internalType": "int256",
          "name": "errorCode",
          "type": "int256"
        }
      ],
      "name": "ActorError",
      "type": "error"
    },
    {
      "inputs": [],
      "name": "ActorNotFound",
      "type": "error"
    },
    {
      "inputs": [],
      "name": "AllowanceUnderflow",
      "type": "error"
    },
    {
      "inputs": [],
      "name": "ERC4626Overflow",
      "type": "error"
    },
    {
      "inputs": [],
      "name": "ERC4626Underflow",
      "type": "error"
    },
    {
      "inputs": [],
      "name": "ERC4626ZeroShares",
      "type": "error"
    },
    {
      "inputs": [],
      "name": "FailToCallActor",
      "type": "error"
    },
    {
      "inputs": [],
      "name": "InactiveActor",
      "type": "error"
    },
    {
      "inputs": [],
      "name": "InsufficientAllowance",
      "type": "error"
    },
    {
      "inputs": [],
      "name": "InsufficientFunds",
      "type": "error"
    },
    {
      "inputs": [],
      "name": "InvalidAccess",
      "type": "error"
    },
    {
      "inputs": [],
      "name": "InvalidBalance",
      "type": "error"
    },
    {
      "inputs": [
        {
          "internalType": "uint64",
          "name": "",
          "type": "uint64"
        }
      ],
      "name": "InvalidCodec",
      "type": "error"
    },
    {
      "inputs": [],
      "name": "InvalidParams",
      "type": "error"
    },
    {
      "inputs": [],
      "name": "InvalidResponseLength",
      "type": "error"
    },
    {
      "inputs": [
        {
          "internalType": "uint256",
          "name": "balance",
          "type": "uint256"
        },
        {
          "internalType": "uint256",
          "name": "value",
          "type": "uint256"
        }
      ],
      "name": "NotEnoughBalance",
      "type": "error"
    },
    {
      "inputs": [],
      "name": "ZeroAddress",
      "type": "error"
    },
    {
      "anonymous": false,
      "inputs": [
        {
          "indexed": false,
          "internalType": "address",
          "name": "previousAdmin",
          "type": "address"
        },
        {
          "indexed": false,
          "internalType": "address",
          "name": "newAdmin",
          "type": "address"
        }
      ],
      "name": "AdminChanged",
      "type": "event"
    },
    {
      "anonymous": false,
      "inputs": [
        {
          "indexed": true,
          "internalType": "address",
          "name": "owner",
          "type": "address"
        },
        {
          "indexed": true,
          "internalType": "address",
          "name": "spender",
          "type": "address"
        },
        {
          "indexed": false,
          "internalType": "uint256",
          "name": "value",
          "type": "uint256"
        }
      ],
      "name": "Approval",
      "type": "event"
    },
    {
      "anonymous": false,
      "inputs": [
        {
          "indexed": true,
          "internalType": "address",
          "name": "beacon",
          "type": "address"
        }
      ],
      "name": "BeaconUpgraded",
      "type": "event"
    },
    {
      "anonymous": false,
      "inputs": [
        {
          "indexed": true,
          "internalType": "address",
          "name": "sender",
          "type": "address"
        },
        {
          "indexed": true,
          "internalType": "address",
          "name": "owner",
          "type": "address"
        },
        {
          "indexed": false,
          "internalType": "uint256",
          "name": "assets",
          "type": "uint256"
        },
        {
          "indexed": false,
          "internalType": "uint256",
          "name": "shares",
          "type": "uint256"
        }
      ],
      "name": "Deposit",
      "type": "event"
    },
    {
      "anonymous": false,
      "inputs": [
        {
          "indexed": false,
          "internalType": "uint8",
          "name": "version",
          "type": "uint8"
        }
      ],
      "name": "Initialized",
      "type": "event"
    },
    {
      "anonymous": false,
      "inputs": [
        {
          "indexed": false,
          "internalType": "uint64",
          "name": "ownerId",
          "type": "uint64"
        },
        {
          "indexed": false,
          "internalType": "uint64",
          "name": "minerId",
          "type": "uint64"
        },
        {
          "indexed": false,
          "internalType": "uint256",
          "name": "amount",
          "type": "uint256"
        }
      ],
      "name": "Pledge",
      "type": "event"
    },
    {
      "anonymous": false,
      "inputs": [
        {
          "indexed": false,
          "internalType": "uint256",
          "name": "amount",
          "type": "uint256"
        }
      ],
      "name": "PledgeRepayment",
      "type": "event"
    },
    {
      "anonymous": false,
      "inputs": [
        {
          "indexed": true,
          "internalType": "bytes32",
          "name": "role",
          "type": "bytes32"
        },
        {
          "indexed": true,
          "internalType": "bytes32",
          "name": "previousAdminRole",
          "type": "bytes32"
        },
        {
          "indexed": true,
          "internalType": "bytes32",
          "name": "newAdminRole",
          "type": "bytes32"
        }
      ],
      "name": "RoleAdminChanged",
      "type": "event"
    },
    {
      "anonymous": false,
      "inputs": [
        {
          "indexed": true,
          "internalType": "bytes32",
          "name": "role",
          "type": "bytes32"
        },
        {
          "indexed": true,
          "internalType": "address",
          "name": "account",
          "type": "address"
        },
        {
          "indexed": true,
          "internalType": "address",
          "name": "sender",
          "type": "address"
        }
      ],
      "name": "RoleGranted",
      "type": "event"
    },
    {
      "anonymous": false,
      "inputs": [
        {
          "indexed": true,
          "internalType": "bytes32",
          "name": "role",
          "type": "bytes32"
        },
        {
          "indexed": true,
          "internalType": "address",
          "name": "account",
          "type": "address"
        },
        {
          "indexed": true,
          "internalType": "address",
          "name": "sender",
          "type": "address"
        }
      ],
      "name": "RoleRevoked",
      "type": "event"
    },
    {
      "anonymous": false,
      "inputs": [
        {
          "indexed": true,
          "internalType": "address",
          "name": "user",
          "type": "address"
        },
        {
          "indexed": true,
          "internalType": "address",
          "name": "owner",
          "type": "address"
        },
        {
          "indexed": false,
          "internalType": "uint256",
          "name": "assets",
          "type": "uint256"
        },
        {
          "indexed": false,
          "internalType": "uint256",
          "name": "shares",
          "type": "uint256"
        }
      ],
      "name": "Stake",
      "type": "event"
    },
    {
      "anonymous": false,
      "inputs": [
        {
          "indexed": true,
          "internalType": "address",
          "name": "from",
          "type": "address"
        },
        {
          "indexed": true,
          "internalType": "address",
          "name": "to",
          "type": "address"
        },
        {
          "indexed": false,
          "internalType": "uint256",
          "name": "value",
          "type": "uint256"
        }
      ],
      "name": "Transfer",
      "type": "event"
    },
    {
      "anonymous": false,
      "inputs": [
        {
          "indexed": true,
          "internalType": "address",
          "name": "user",
          "type": "address"
        },
        {
          "indexed": true,
          "internalType": "address",
          "name": "owner",
          "type": "address"
        },
        {
          "indexed": false,
          "internalType": "uint256",
          "name": "assets",
          "type": "uint256"
        },
        {
          "indexed": false,
          "internalType": "uint256",
          "name": "shares",
          "type": "uint256"
        }
      ],
      "name": "Unstaked",
      "type": "event"
    },
    {
      "anonymous": false,
      "inputs": [
        {
          "indexed": true,
          "internalType": "address",
          "name": "implementation",
          "type": "address"
        }
      ],
      "name": "Upgraded",
      "type": "event"
    },
    {
      "anonymous": false,
      "inputs": [
        {
          "indexed": true,
          "internalType": "address",
          "name": "sender",
          "type": "address"
        },
        {
          "indexed": true,
          "internalType": "address",
          "name": "receiver",
          "type": "address"
        },
        {
          "indexed": true,
          "internalType": "address",
          "name": "owner",
          "type": "address"
        },
        {
          "indexed": false,
          "internalType": "uint256",
          "name": "assets",
          "type": "uint256"
        },
        {
          "indexed": false,
          "internalType": "uint256",
          "name": "shares",
          "type": "uint256"
        }
      ],
      "name": "Withdraw",
      "type": "event"
    },
    {
      "stateMutability": "payable",
      "type": "fallback"
    },
    {
      "inputs": [],
      "name": "DEFAULT_ADMIN_ROLE",
      "outputs": [
        {
          "internalType": "bytes32",
          "name": "",
          "type": "bytes32"
        }
      ],
      "stateMutability": "view",
      "type": "function"
    },
    {
      "inputs": [],
      "name": "WFIL",
      "outputs": [
        {
          "internalType": "contract IWFIL",
          "name": "",
          "type": "address"
        }
      ],
      "stateMutability": "view",
      "type": "function"
    },
    {
      "inputs": [
        {
          "internalType": "address",
          "name": "owner",
          "type": "address"
        },
        {
          "internalType": "address",
          "name": "spender",
          "type": "address"
        }
      ],
      "name": "allowance",
      "outputs": [
        {
          "internalType": "uint256",
          "name": "",
          "type": "uint256"
        }
      ],
      "stateMutability": "view",
      "type": "function"
    },
    {
      "inputs": [
        {
          "internalType": "address",
          "name": "spender",
          "type": "address"
        },
        {
          "internalType": "uint256",
          "name": "amount",
          "type": "uint256"
        }
      ],
      "name": "approve",
      "outputs": [
        {
          "internalType": "bool",
          "name": "",
          "type": "bool"
        }
      ],
      "stateMutability": "nonpayable",
      "type": "function"
    },
    {
      "inputs": [],
      "name": "asset",
      "outputs": [
        {
          "internalType": "address",
          "name": "",
          "type": "address"
        }
      ],
      "stateMutability": "view",
      "type": "function"
    },
    {
      "inputs": [
        {
          "internalType": "address",
          "name": "account",
          "type": "address"
        }
      ],
      "name": "balanceOf",
      "outputs": [
        {
          "internalType": "uint256",
          "name": "",
          "type": "uint256"
        }
      ],
      "stateMutability": "view",
      "type": "function"
    },
    {
      "inputs": [
        {
          "internalType": "uint256",
          "name": "shares",
          "type": "uint256"
        }
      ],
      "name": "convertToAssets",
      "outputs": [
        {
          "internalType": "uint256",
          "name": "assets",
          "type": "uint256"
        }
      ],
      "stateMutability": "view",
      "type": "function"
    },
    {
      "inputs": [
        {
          "internalType": "uint256",
          "name": "assets",
          "type": "uint256"
        }
      ],
      "name": "convertToShares",
      "outputs": [
        {
          "internalType": "uint256",
          "name": "shares",
          "type": "uint256"
        }
      ],
      "stateMutability": "view",
      "type": "function"
    },
    {
      "inputs": [],
      "name": "decimals",
      "outputs": [
        {
          "internalType": "uint8",
          "name": "",
          "type": "uint8"
        }
      ],
      "stateMutability": "view",
      "type": "function"
    },
    {
      "inputs": [
        {
          "internalType": "address",
          "name": "spender",
          "type": "address"
        },
        {
          "internalType": "uint256",
          "name": "subtractedValue",
          "type": "uint256"
        }
      ],
      "name": "decreaseAllowance",
      "outputs": [
        {
          "internalType": "bool",
          "name": "",
          "type": "bool"
        }
      ],
      "stateMutability": "nonpayable",
      "type": "function"
    },
    {
      "inputs": [
        {
          "internalType": "uint256",
          "name": "assets",
          "type": "uint256"
        },
        {
          "internalType": "address",
          "name": "receiver",
          "type": "address"
        }
      ],
      "name": "deposit",
      "outputs": [
        {
          "internalType": "uint256",
          "name": "",
          "type": "uint256"
        }
      ],
      "stateMutability": "nonpayable",
      "type": "function"
    },
    {
      "inputs": [],
      "name": "getImplementation",
      "outputs": [
        {
          "internalType": "address",
          "name": "",
          "type": "address"
        }
      ],
      "stateMutability": "view",
      "type": "function"
    },
    {
      "inputs": [
        {
          "internalType": "bytes32",
          "name": "role",
          "type": "bytes32"
        }
      ],
      "name": "getRoleAdmin",
      "outputs": [
        {
          "internalType": "bytes32",
          "name": "",
          "type": "bytes32"
        }
      ],
      "stateMutability": "view",
      "type": "function"
    },
    {
      "inputs": [],
      "name": "getUsageRatio",
      "outputs": [
        {
          "internalType": "uint256",
          "name": "",
          "type": "uint256"
        }
      ],
      "stateMutability": "view",
      "type": "function"
    },
    {
      "inputs": [
        {
          "internalType": "bytes32",
          "name": "role",
          "type": "bytes32"
        },
        {
          "internalType": "address",
          "name": "account",
          "type": "address"
        }
      ],
      "name": "grantRole",
      "outputs": [],
      "stateMutability": "nonpayable",
      "type": "function"
    },
    {
      "inputs": [
        {
          "internalType": "bytes32",
          "name": "role",
          "type": "bytes32"
        },
        {
          "internalType": "address",
          "name": "account",
          "type": "address"
        }
      ],
      "name": "hasRole",
      "outputs": [
        {
          "internalType": "bool",
          "name": "",
          "type": "bool"
        }
      ],
      "stateMutability": "view",
      "type": "function"
    },
    {
      "inputs": [
        {
          "internalType": "address",
          "name": "spender",
          "type": "address"
        },
        {
          "internalType": "uint256",
          "name": "addedValue",
          "type": "uint256"
        }
      ],
      "name": "increaseAllowance",
      "outputs": [
        {
          "internalType": "bool",
          "name": "",
          "type": "bool"
        }
      ],
      "stateMutability": "nonpayable",
      "type": "function"
    },
    {
      "inputs": [
        {
          "internalType": "address",
          "name": "_wFIL",
          "type": "address"
        },
        {
          "internalType": "address",
          "name": "_resolver",
          "type": "address"
        }
      ],
      "name": "initialize",
      "outputs": [],
      "stateMutability": "nonpayable",
      "type": "function"
    },
    {
      "inputs": [
        {
          "internalType": "address",
          "name": "",
          "type": "address"
        }
      ],
      "name": "maxDeposit",
      "outputs": [
        {
          "internalType": "uint256",
          "name": "",
          "type": "uint256"
        }
      ],
      "stateMutability": "view",
      "type": "function"
    },
    {
      "inputs": [
        {
          "internalType": "address",
          "name": "",
          "type": "address"
        }
      ],
      "name": "maxMint",
      "outputs": [
        {
          "internalType": "uint256",
          "name": "",
          "type": "uint256"
        }
      ],
      "stateMutability": "view",
      "type": "function"
    },
    {
      "inputs": [
        {
          "internalType": "address",
          "name": "owner",
          "type": "address"
        }
      ],
      "name": "maxRedeem",
      "outputs": [
        {
          "internalType": "uint256",
          "name": "",
          "type": "uint256"
        }
      ],
      "stateMutability": "view",
      "type": "function"
    },
    {
      "inputs": [
        {
          "internalType": "address",
          "name": "owner",
          "type": "address"
        }
      ],
      "name": "maxWithdraw",
      "outputs": [
        {
          "internalType": "uint256",
          "name": "",
          "type": "uint256"
        }
      ],
      "stateMutability": "view",
      "type": "function"
    },
    {
      "inputs": [
        {
          "internalType": "uint256",
          "name": "shares",
          "type": "uint256"
        },
        {
          "internalType": "address",
          "name": "receiver",
          "type": "address"
        }
      ],
      "name": "mint",
      "outputs": [
        {
          "internalType": "uint256",
          "name": "",
          "type": "uint256"
        }
      ],
      "stateMutability": "nonpayable",
      "type": "function"
    },
    {
      "inputs": [],
      "name": "name",
      "outputs": [
        {
          "internalType": "string",
          "name": "",
          "type": "string"
        }
      ],
      "stateMutability": "view",
      "type": "function"
    },
    {
      "inputs": [
        {
          "internalType": "uint256",
          "name": "amount",
          "type": "uint256"
        }
      ],
      "name": "pledge",
      "outputs": [],
      "stateMutability": "nonpayable",
      "type": "function"
    },
    {
      "inputs": [
        {
          "internalType": "uint256",
          "name": "assets",
          "type": "uint256"
        }
      ],
      "name": "previewDeposit",
      "outputs": [
        {
          "internalType": "uint256",
          "name": "",
          "type": "uint256"
        }
      ],
      "stateMutability": "view",
      "type": "function"
    },
    {
      "inputs": [
        {
          "internalType": "uint256",
          "name": "shares",
          "type": "uint256"
        }
      ],
      "name": "previewMint",
      "outputs": [
        {
          "internalType": "uint256",
          "name": "",
          "type": "uint256"
        }
      ],
      "stateMutability": "view",
      "type": "function"
    },
    {
      "inputs": [
        {
          "internalType": "uint256",
          "name": "shares",
          "type": "uint256"
        }
      ],
      "name": "previewRedeem",
      "outputs": [
        {
          "internalType": "uint256",
          "name": "",
          "type": "uint256"
        }
      ],
      "stateMutability": "view",
      "type": "function"
    },
    {
      "inputs": [
        {
          "internalType": "uint256",
          "name": "assets",
          "type": "uint256"
        }
      ],
      "name": "previewWithdraw",
      "outputs": [
        {
          "internalType": "uint256",
          "name": "",
          "type": "uint256"
        }
      ],
      "stateMutability": "view",
      "type": "function"
    },
    {
      "inputs": [],
      "name": "proxiableUUID",
      "outputs": [
        {
          "internalType": "bytes32",
          "name": "",
          "type": "bytes32"
        }
      ],
      "stateMutability": "view",
      "type": "function"
    },
    {
      "inputs": [
        {
          "internalType": "uint256",
          "name": "shares",
          "type": "uint256"
        },
        {
          "internalType": "address",
          "name": "receiver",
          "type": "address"
        },
        {
          "internalType": "address",
          "name": "owner",
          "type": "address"
        }
      ],
      "name": "redeem",
      "outputs": [
        {
          "internalType": "uint256",
          "name": "",
          "type": "uint256"
        }
      ],
      "stateMutability": "nonpayable",
      "type": "function"
    },
    {
      "inputs": [
        {
          "internalType": "bytes32",
          "name": "role",
          "type": "bytes32"
        },
        {
          "internalType": "address",
          "name": "account",
          "type": "address"
        }
      ],
      "name": "renounceRole",
      "outputs": [],
      "stateMutability": "nonpayable",
      "type": "function"
    },
    {
      "inputs": [
        {
          "internalType": "uint256",
          "name": "amount",
          "type": "uint256"
        }
      ],
      "name": "repayPledge",
      "outputs": [],
      "stateMutability": "nonpayable",
      "type": "function"
    },
    {
      "inputs": [
        {
          "internalType": "uint256",
          "name": "assets",
          "type": "uint256"
        },
        {
          "internalType": "address",
          "name": "receiver",
          "type": "address"
        }
      ],
      "name": "restake",
      "outputs": [
        {
          "internalType": "uint256",
          "name": "shares",
          "type": "uint256"
        }
      ],
      "stateMutability": "nonpayable",
      "type": "function"
    },
    {
      "inputs": [
        {
          "internalType": "bytes32",
          "name": "role",
          "type": "bytes32"
        },
        {
          "internalType": "address",
          "name": "account",
          "type": "address"
        }
      ],
      "name": "revokeRole",
      "outputs": [],
      "stateMutability": "nonpayable",
      "type": "function"
    },
    {
      "inputs": [],
      "name": "stake",
      "outputs": [
        {
          "internalType": "uint256",
          "name": "shares",
          "type": "uint256"
        }
      ],
      "stateMutability": "payable",
      "type": "function"
    },
    {
      "inputs": [
        {
          "internalType": "bytes4",
          "name": "interfaceId",
          "type": "bytes4"
        }
      ],
      "name": "supportsInterface",
      "outputs": [
        {
          "internalType": "bool",
          "name": "",
          "type": "bool"
        }
      ],
      "stateMutability": "view",
      "type": "function"
    },
    {
      "inputs": [],
      "name": "symbol",
      "outputs": [
        {
          "internalType": "string",
          "name": "",
          "type": "string"
        }
      ],
      "stateMutability": "view",
      "type": "function"
    },
    {
      "inputs": [],
      "name": "totalAssets",
      "outputs": [
        {
          "internalType": "uint256",
          "name": "",
          "type": "uint256"
        }
      ],
      "stateMutability": "view",
      "type": "function"
    },
    {
      "inputs": [
        {
          "internalType": "uint64",
          "name": "_ownerId",
          "type": "uint64"
        }
      ],
      "name": "totalFees",
      "outputs": [
        {
          "internalType": "uint256",
          "name": "",
          "type": "uint256"
        }
      ],
      "stateMutability": "view",
      "type": "function"
    },
    {
      "inputs": [],
      "name": "totalFilAvailable",
      "outputs": [
        {
          "internalType": "uint256",
          "name": "",
          "type": "uint256"
        }
      ],
      "stateMutability": "view",
      "type": "function"
    },
    {
      "inputs": [],
      "name": "totalFilPledged",
      "outputs": [
        {
          "internalType": "uint256",
          "name": "",
          "type": "uint256"
        }
      ],
      "stateMutability": "view",
      "type": "function"
    },
    {
      "inputs": [],
      "name": "totalSupply",
      "outputs": [
        {
          "internalType": "uint256",
          "name": "",
          "type": "uint256"
        }
      ],
      "stateMutability": "view",
      "type": "function"
    },
    {
      "inputs": [
        {
          "internalType": "address",
          "name": "to",
          "type": "address"
        },
        {
          "internalType": "uint256",
          "name": "amount",
          "type": "uint256"
        }
      ],
      "name": "transfer",
      "outputs": [
        {
          "internalType": "bool",
          "name": "",
          "type": "bool"
        }
      ],
      "stateMutability": "nonpayable",
      "type": "function"
    },
    {
      "inputs": [
        {
          "internalType": "address",
          "name": "from",
          "type": "address"
        },
        {
          "internalType": "address",
          "name": "to",
          "type": "address"
        },
        {
          "internalType": "uint256",
          "name": "amount",
          "type": "uint256"
        }
      ],
      "name": "transferFrom",
      "outputs": [
        {
          "internalType": "bool",
          "name": "",
          "type": "bool"
        }
      ],
      "stateMutability": "nonpayable",
      "type": "function"
    },
    {
      "inputs": [
        {
          "internalType": "uint256",
          "name": "shares",
          "type": "uint256"
        },
        {
          "internalType": "address",
          "name": "owner",
          "type": "address"
        }
      ],
      "name": "unstake",
      "outputs": [
        {
          "internalType": "uint256",
          "name": "assets",
          "type": "uint256"
        }
      ],
      "stateMutability": "nonpayable",
      "type": "function"
    },
    {
      "inputs": [
        {
          "internalType": "uint256",
          "name": "assets",
          "type": "uint256"
        },
        {
          "internalType": "address",
          "name": "owner",
          "type": "address"
        }
      ],
      "name": "unstakeAssets",
      "outputs": [
        {
          "internalType": "uint256",
          "name": "shares",
          "type": "uint256"
        }
      ],
      "stateMutability": "nonpayable",
      "type": "function"
    },
    {
      "inputs": [
        {
          "internalType": "address",
          "name": "newImplementation",
          "type": "address"
        }
      ],
      "name": "upgradeTo",
      "outputs": [],
      "stateMutability": "nonpayable",
      "type": "function"
    },
    {
      "inputs": [
        {
          "internalType": "address",
          "name": "newImplementation",
          "type": "address"
        },
        {
          "internalType": "bytes",
          "name": "data",
          "type": "bytes"
        }
      ],
      "name": "upgradeToAndCall",
      "outputs": [],
      "stateMutability": "payable",
      "type": "function"
    },
    {
      "inputs": [],
      "name": "version",
      "outputs": [
        {
          "internalType": "string",
          "name": "",
          "type": "string"
        }
      ],
      "stateMutability": "pure",
      "type": "function"
    },
    {
      "inputs": [
        {
          "internalType": "uint256",
          "name": "assets",
          "type": "uint256"
        },
        {
          "internalType": "address",
          "name": "receiver",
          "type": "address"
        },
        {
          "internalType": "address",
          "name": "owner",
          "type": "address"
        }
      ],
      "name": "withdraw",
      "outputs": [
        {
          "internalType": "uint256",
          "name": "",
          "type": "uint256"
        }
      ],
      "stateMutability": "nonpayable",
      "type": "function"
    },
    {
      "stateMutability": "payable",
      "type": "receive"
    }
  ],
  "numDeployments": 2,
  "solcInputHash": "8a46af32103d9a2df7f250379b9d8927",
  "bytecode": "0x60a06040523060805234801561001457600080fd5b506080516142f961004c60003960008181610a4b01528181610a8b01528181610f8801528181610fc8015261104001526142f96000f3fe6080604052600436106102455760003560e01c806301e1d1141461024e57806301ffc9a71461027957806306fdde03146102a657806307a2d13a146102c857806309448a86146102e8578063095ea7b3146103155780630a28a4771461033557806318160ddd1461035557806323b872dd1461036a578063248a9ca31461038a5780632f2ff15d146103aa578063313ce567146103ca57806336568abe146103f15780633659cfe61461041157806338d52e0f1461043157806339509351146104585780633a4b66f114610478578063402d267d14610480578063413a885b146104a057806344775506146104c0578063485cc955146104d55780634cdad506146102c85780634f1ef286146104f557806352d1902d1461050857806354fd4d501461051d578063655cbba7146105485780636e553f651461055d57806370a082311461057d5780637326c9c01461059d5780638381e182146105bd57806391d14854146105dd57806394bf804d146105fd57806395d89b411461061d578063a217fddf14610632578063a457c2d714610647578063a83a2e6514610667578063a9059cbb14610687578063aaf10f42146106a7578063ad05dc33146106bc578063b3d7f6b9146106d3578063b460af94146106f3578063ba08765214610713578063c63d75b614610733578063c6e6f59214610753578063ce96cb7714610773578063d2a0460c14610793578063d547741f146107b3578063d905777e146107d3578063dd62ed3e146107f3578063ef8b30f714610753578063f79126d61461081357005b3661024c57005b005b34801561025a57600080fd5b50610263610833565b60405161027091906131ba565b60405180910390f35b34801561028557600080fd5b506102996102943660046131ea565b610850565b6040516102709190613213565b3480156102b257600080fd5b506102bb610887565b6040516102709190613283565b3480156102d457600080fd5b506102636102e33660046132a5565b610919565b3480156102f457600080fd5b50609754610308906001600160a01b031681565b6040516102709190613307565b34801561032157600080fd5b50610299610330366004613334565b610926565b34801561034157600080fd5b506102636103503660046132a5565b61095d565b34801561036157600080fd5b50603554610263565b34801561037657600080fd5b50610299610385366004613371565b61096a565b34801561039657600080fd5b506102636103a53660046132a5565b6109cc565b3480156103b657600080fd5b5061024c6103c53660046133c1565b6109e1565b3480156103d657600080fd5b50606554600160a01b900460ff1660405161027091906133fd565b3480156103fd57600080fd5b5061024c61040c3660046133c1565b610a02565b34801561041d57600080fd5b5061024c61042c36600461340b565b610a41565b34801561043d57600080fd5b506065546001600160a01b03165b6040516102709190613435565b34801561046457600080fd5b50610299610473366004613334565b610b09565b610263610b4a565b34801561048c57600080fd5b5061026361049b36600461340b565b610c74565b3480156104ac57600080fd5b506102636104bb3660046133c1565b610c92565b3480156104cc57600080fd5b50610263610dd2565b3480156104e157600080fd5b5061024c6104f0366004613443565b610e05565b61024c610503366004613560565b610f7e565b34801561051457600080fd5b50610263611033565b34801561052957600080fd5b50604080518082019091526002815261763160f01b60208201526102bb565b34801561055457600080fd5b50610263611090565b34801561056957600080fd5b506102636105783660046133c1565b611102565b34801561058957600080fd5b5061026361059836600461340b565b61117b565b3480156105a957600080fd5b5061024c6105b83660046132a5565b6111b3565b3480156105c957600080fd5b506102636105d83660046133c1565b61153d565b3480156105e957600080fd5b506102996105f83660046133c1565b61161a565b34801561060957600080fd5b506102636106183660046133c1565b611645565b34801561062957600080fd5b506102bb6116be565b34801561063e57600080fd5b50610263600081565b34801561065357600080fd5b50610299610662366004613334565b6116cd565b34801561067357600080fd5b506102636106823660046135c7565b611735565b34801561069357600080fd5b506102996106a2366004613334565b611812565b3480156106b357600080fd5b5061044b61183f565b3480156106c857600080fd5b506102636101925481565b3480156106df57600080fd5b506102636106ee3660046132a5565b611849565b3480156106ff57600080fd5b5061026361070e3660046135e8565b611856565b34801561071f57600080fd5b5061026361072e3660046135e8565b6118cb565b34801561073f57600080fd5b5061026361074e36600461340b565b611938565b34801561075f57600080fd5b5061026361076e3660046132a5565b61193f565b34801561077f57600080fd5b5061026361078e36600461340b565b61194c565b34801561079f57600080fd5b5061024c6107ae3660046132a5565b611961565b3480156107bf57600080fd5b5061024c6107ce3660046133c1565b611a5d565b3480156107df57600080fd5b506102636107ee36600461340b565b611a79565b3480156107ff57600080fd5b5061026361080e366004613443565b611a84565b34801561081f57600080fd5b5061026361082e3660046133c1565b611af1565b600061019254610841611090565b61084b9190613644565b905090565b60006001600160e01b03198216637965db0b60e01b148061088157506301ffc9a760e01b6001600160e01b03198316145b92915050565b6060603680546108969061366d565b80601f01602080910402602001604051908101604052809291908181526020018280546108c29061366d565b801561090f5780601f106108e45761010080835404028352916020019161090f565b820191906000526020600020905b8154815290600101906020018083116108f257829003601f168201915b5050505050905090565b6000610881826000611bc3565b60003361093281611bf6565b9050610946846001600160a01b0316611bf6565b9350610953818585611c3d565b5060019392505050565b6000610881826001611cf3565b60003361097f6001600160a01b038616611bf6565b9450610993846001600160a01b0316611bf6565b93506109a7816001600160a01b0316611bf6565b90506109b4858285611d25565b6109bf858585611d70565b60019150505b9392505050565b600090815260fc602052604090206001015490565b6109ea826109cc565b6109f381611e51565b6109fd8383611e5b565b505050565b6001600160a01b0381163314610a335760405162461bcd60e51b8152600401610a2a906136e8565b60405180910390fd5b610a3d8282611ee1565b5050565b6001600160a01b037f0000000000000000000000000000000000000000000000000000000000000000163003610a895760405162461bcd60e51b8152600401610a2a9061372f565b7f00000000000000000000000000000000000000000000000000000000000000006001600160a01b0316610abb611f48565b6001600160a01b031614610ae15760405162461bcd60e51b8152600401610a2a90613776565b610aea81611f64565b60408051600080825260208201909252610b0691839190611f99565b50565b600033610b1581611bf6565b9050610b29846001600160a01b0316611bf6565b9350610953818585610b3b8589611a84565b610b459190613644565b611c3d565b6000610b5461207b565b346000610b6033611bf6565b9050610b6b81610c74565b821115610b8b57604051630cd8567560e21b815260040160405180910390fd5b610b948261193f565b925082600003610bb757604051636646782360e01b815260040160405180910390fd5b609760009054906101000a90046001600160a01b03166001600160a01b031663d0e30db0836040518263ffffffff1660e01b81526004016000604051808303818588803b158015610c0757600080fd5b505af1158015610c1b573d6000803e3d6000fd5b5050505050610c2a81846120a4565b6001600160a01b038116336001600160a01b03166000805160206142a48339815191528486604051610c5d929190613786565b60405180910390a35050610c716001609855565b90565b6000610c7e612130565b610c89576000610881565b60001992915050565b610193546040805163e1dda2a960e01b815290516000926001600160a01b03169163e1dda2a99160048083019260209291908290030181865afa158015610cdd573d6000803e3d6000fd5b505050506040513d601f19601f82011682018060405250810190610d0191906137ac565b6001600160a01b0316336001600160a01b031614610d3257604051633006171960e21b815260040160405180910390fd5b610d3b82610c74565b831115610d5b57604051630cd8567560e21b815260040160405180910390fd5b610d648361193f565b905080600003610d8757604051636646782360e01b815260040160405180910390fd5b610d9182826120a4565b816001600160a01b0316826001600160a01b03166000805160206142a48339815191528584604051610dc4929190613786565b60405180910390a392915050565b600061019254610de0611090565b610dea9190613644565b61271061019254610dfb91906137cd565b61084b9190613802565b600054610100900460ff1615808015610e255750600054600160ff909116105b80610e465750610e343061214a565b158015610e46575060005460ff166001145b610e625760405162461bcd60e51b8152600401610a2a90613861565b6000805460ff191660011790558015610e85576000805461ff0019166101001790555b610e8d612159565b610e95612182565b610e9e836121b1565b610ea6612159565b61019380546001600160a01b0319166001600160a01b038416179055610ecd600033612257565b610ee560008051602061421d833981519152336109e1565b610efe60008051602061421d8339815191526000612261565b610f16600080516020614264833981519152336109e1565b610f2f6000805160206142648339815191526000612261565b80156109fd576000805461ff00191690556040517f7f26b83ff96e1f2b6a682f133852f6798a09c465da95921460cefb384740249890610f7190600190613886565b60405180910390a1505050565b6001600160a01b037f0000000000000000000000000000000000000000000000000000000000000000163003610fc65760405162461bcd60e51b8152600401610a2a9061372f565b7f00000000000000000000000000000000000000000000000000000000000000006001600160a01b0316610ff8611f48565b6001600160a01b03161461101e5760405162461bcd60e51b8152600401610a2a90613776565b61102782611f64565b610a3d82826001611f99565b6000306001600160a01b037f0000000000000000000000000000000000000000000000000000000000000000161461107d5760405162461bcd60e51b8152600401610a2a906138e9565b506000805160206141fd83398151915290565b6097546040516370a0823160e01b81526000916001600160a01b0316906370a08231906110c1903090600401613435565b602060405180830381865afa1580156110de573d6000803e3d6000fd5b505050506040513d601f19601f8201168201806040525081019061084b9190613904565b6000611116826001600160a01b0316611bf6565b915061112182610c74565b83111561114157604051630cd8567560e21b815260040160405180910390fd5b600061114c8461193f565b90508060000361116f57604051635435b28960e11b815260040160405180910390fd5b6109c5338486846122b4565b600060336000611193846001600160a01b0316611bf6565b6001600160a01b0316815260208101919091526040016000205492915050565b6111bb61207b565b6111c3610833565b8111156111e357604051635435b28960e11b815260040160405180910390fd5b60006111ee33611bf6565b9050600080611205836001600160a01b031661232c565b91509150816112265760405162f08f6760e71b815260040160405180910390fd5b6101935460408051635c1548fb60e01b815290516000926001600160a01b031691635c1548fb9160048083019260209291908290030181865afa158015611271573d6000803e3d6000fd5b505050506040513d601f19601f8201168201806040525081019061129591906137ac565b6040516344324a7960e01b81529091506001600160a01b038216906344324a79906112c4908590600401613934565b602060405180830381865afa1580156112e1573d6000803e3d6000fd5b505050506040513d601f19601f820116820180604052508101906113059190613955565b156113235760405163c037f7ff60e01b815260040160405180910390fd5b60405163055001d160e31b81526001600160a01b03821690632a800e88906113519085908990600401613976565b600060405180830381600087803b15801561136b57600080fd5b505af115801561137f573d6000803e3d6000fd5b50505050600061019360009054906101000a90046001600160a01b03166001600160a01b0316635ab1bd536040518163ffffffff1660e01b8152600401602060405180830381865afa1580156113d9573d6000803e3d6000fd5b505050506040513d601f19601f820116820180604052508101906113fd91906137ac565b6001600160a01b031663b0298c31846040518263ffffffff1660e01b81526004016114289190613934565b608060405180830381865afa158015611445573d6000803e3d6000fd5b505050506040513d601f19601f8201168201806040525081019061146991906139a4565b50925050507f15453566d67df7c06fb80d23b2fad96f5f14cefd285a97fa5a2c96bfdfed5ad58382886040516114a193929190613a08565b60405180910390a1609754604051632e1a7d4d60e01b81526001600160a01b0390911690632e1a7d4d906114d99089906004016131ba565b600060405180830381600087803b1580156114f357600080fd5b505af1158015611507573d6000803e3d6000fd5b5050505085610192600082825461151e9190613644565b9091555061152e9050818761239d565b5050505050610b066001609855565b600061154761207b565b61155082611a79565b83111561157057604051630cd8567560e21b815260040160405180910390fd5b600061157b33611bf6565b905061158f836001600160a01b0316611bf6565b925061159a84610919565b9150826001600160a01b0316816001600160a01b0316146115c0576115c0838286611d25565b6115ca83856123e3565b826001600160a01b0316336001600160a01b03166000805160206141dd83398151915284876040516115fd929190613786565b60405180910390a361160f818361248a565b506108816001609855565b600091825260fc602090815260408084206001600160a01b0393909316845291905290205460ff1690565b6000611659826001600160a01b0316611bf6565b915061166482611938565b83111561168457604051630cd8567560e21b815260040160405180910390fd5b600061168f84611849565b9050806000036116b257604051635435b28960e11b815260040160405180910390fd5b6109c5338483876122b4565b6060603780546108969061366d565b6000336116d981611bf6565b90506116ed846001600160a01b0316611bf6565b935060006116fb8286611a84565b90508381101561171d5760405162461bcd60e51b8152600401610a2a90613a72565b61172a8286868403611c3d565b506001949350505050565b6101935460408051632708307d60e11b815290516000926001600160a01b031691634e1060fa9160048083019260209291908290030181865afa158015611780573d6000803e3d6000fd5b505050506040513d601f19601f820116820180604052508101906117a491906137ac565b6001600160a01b0316634894f20883306040518363ffffffff1660e01b81526004016117d1929190613a82565b602060405180830381865afa1580156117ee573d6000803e3d6000fd5b505050506040513d601f19601f820116820180604052508101906108819190613904565b60003361181e81611bf6565b9050611832846001600160a01b0316611bf6565b9350610953818585611d70565b600061084b611f48565b6000610881826001611bc3565b600061186a836001600160a01b0316611bf6565b925061187e826001600160a01b0316611bf6565b91506118898261194c565b8411156118a957604051630cd8567560e21b815260040160405180910390fd5b60006118b48561095d565b90506118c3338585888561259b565b949350505050565b60006118df836001600160a01b0316611bf6565b92506118f3826001600160a01b0316611bf6565b91506118fe82611a79565b84111561191e57604051630cd8567560e21b815260040160405180910390fd5b600061192985610919565b90506118c3338585848961259b565b5060001990565b6000610881826000611cf3565b600061088161195a8361117b565b6000611bc3565b61019360009054906101000a90046001600160a01b03166001600160a01b031663e1dda2a96040518163ffffffff1660e01b8152600401602060405180830381865afa1580156119b5573d6000803e3d6000fd5b505050506040513d601f19601f820116820180604052508101906119d991906137ac565b6001600160a01b0316336001600160a01b031614611a0a57604051633006171960e21b815260040160405180910390fd5b806101926000828254611a1d9190613a9d565b90915550506040517f455b377f92ceb4087ffafa7984aa323a5ffeb499175000372e06198c0e45b9a490611a529083906131ba565b60405180910390a150565b611a66826109cc565b611a6f81611e51565b6109fd8383611ee1565b60006108818261117b565b600060346000611a9c856001600160a01b0316611bf6565b6001600160a01b03166001600160a01b031681526020019081526020016000206000611ad0846001600160a01b0316611bf6565b6001600160a01b031681526020810191909152604001600020549392505050565b6000611afb61207b565b611b048261194c565b831115611b2457604051630cd8567560e21b815260040160405180910390fd5b6000611b2f33611bf6565b9050611b43836001600160a01b0316611bf6565b9250611b4e8461095d565b9150826001600160a01b0316816001600160a01b031614611b7457611b74838284611d25565b611b7e83836123e3565b826001600160a01b0316816001600160a01b03166000805160206141dd8339815191528685604051611bb1929190613786565b60405180910390a361160f818561248a565b600080611bcf60355490565b90508015611bf057611beb611be2610833565b85908386612652565b6118c3565b836118c3565b6000806000611c04846126ad565b9150915081611c1557509192915050565b600080611c21836126df565b9150915081611c34575093949350505050565b95945050505050565b6001600160a01b038316611c645760405163d92e233d60e01b815260040160405180910390fd5b6001600160a01b038216611c8b5760405163d92e233d60e01b815260040160405180910390fd5b6001600160a01b0380841660008181526034602090815260408083209487168084529490915290819020849055517f8c5be1e5ebec7d5bd14f71427d1e84f3dd0314c0f7b2291e5b200ac8c7c3b92590611ce69085906131ba565b60405180910390a3505050565b600080611cff60355490565b9050831580611d0c575080155b611bf057611beb81611d1c610833565b86919086612652565b6000611d318484611a84565b90506000198114611d6a5781811015611d5d576040516313be252b60e01b815260040160405180910390fd5b611d6a8484848403611c3d565b50505050565b6001600160a01b038316611d975760405163d92e233d60e01b815260040160405180910390fd5b6001600160a01b038216611dbe5760405163d92e233d60e01b815260040160405180910390fd5b6001600160a01b03831660009081526033602052604090205481811015611df85760405163c52e3eff60e01b815260040160405180910390fd5b6001600160a01b03808516600081815260336020526040808220868603905592861680825290839020805486019055915160008051602061428483398151915290611e449086906131ba565b60405180910390a3611d6a565b610b068133612740565b611e65828261161a565b610a3d57600082815260fc602090815260408083206001600160a01b03851684529091529020805460ff19166001179055611e9d3390565b6001600160a01b0316816001600160a01b0316837f2f8788117e7eff1d82e926ec794901d17c78024a50270940304540a733656f0d60405160405180910390a45050565b611eeb828261161a565b15610a3d57600082815260fc602090815260408083206001600160a01b0385168085529252808320805460ff1916905551339285917ff6391f5c32d9c69d2a47ea670b442974b53935d1edc7fd64eb21e047a839171b9190a45050565b6000805160206141fd833981519152546001600160a01b031690565b611f7c60008051602061421d8339815191523361161a565b610b0657604051633006171960e21b815260040160405180910390fd5b7f4910fdfa16fed3260ed0e7147f7cc6da11a60208b5b9406d12a635614ffd91435460ff1615611fcc576109fd83612799565b826001600160a01b03166352d1902d6040518163ffffffff1660e01b8152600401602060405180830381865afa925050508015612026575060408051601f3d908101601f1916820190925261202391810190613904565b60015b6120425760405162461bcd60e51b8152600401610a2a90613afb565b6000805160206141fd833981519152811461206f5760405162461bcd60e51b8152600401610a2a90613b51565b506109fd8383836127ed565b60026098540361209d5760405162461bcd60e51b8152600401610a2a90613b98565b6002609855565b6001600160a01b0382166120cb5760405163d92e233d60e01b815260040160405180910390fd5b80603560008282546120dd9190613644565b90915550506001600160a01b038216600081815260336020526040808220805485019055516000805160206142848339815191529061211d9085906131ba565b60405180910390a35050565b6001609855565b60008061213b610833565b118061084b5750506035541590565b6001600160a01b03163b151590565b600054610100900460ff166121805760405162461bcd60e51b8152600401610a2a90613bf0565b565b600054610100900460ff166121a95760405162461bcd60e51b8152600401610a2a90613bf0565b612180612812565b600054610100900460ff166121d85760405162461bcd60e51b8152600401610a2a90613bf0565b61222c6040518060400160405280601581526020017410dbdb1b1958dd1a5d994814dd185ad95908119253605a1b8152506040518060400160405280600581526020016418db11925360da1b815250612839565b6122358161286a565b609780546001600160a01b0319166001600160a01b0392909216919091179055565b610a3d8282611e5b565b600061226c836109cc565b600084815260fc6020526040808220600101859055519192508391839186917fbd79b86ffe0ab8e8776151514217cd7cacd52c909f66475c3af44e129f0b00ff9190a4505050565b6122c6846001600160a01b0316611bf6565b6065549094506122e1906001600160a01b031685308561289a565b6122eb83826120a4565b826001600160a01b0316846001600160a01b03166000805160206142a4833981519152848460405161231e929190613786565b60405180910390a350505050565b600080612338836126ad565b9092509050811561234857915091565b8260501b61040a60f01b178060005260206000601660006001607f60991b015afa92506000516001600160401b031691505081158061238857503d602014155b1561239857506000928392509050565b915091565b604080516000808252602082019092526123bf908490839081908660006128f2565b905080516000146109fd57604051630e74990760e01b815260040160405180910390fd5b6001600160a01b03821661240a5760405163d92e233d60e01b815260040160405180910390fd5b6001600160a01b038216600090815260336020526040902054818110156124445760405163c52e3eff60e01b815260040160405180910390fd5b6001600160a01b03831660008181526033602052604080822085850390556035805486900390555190919060008051602061428483398151915290611ce69086906131ba565b6097546040516370a0823160e01b81526000916001600160a01b0316906370a08231906124bb903090600401613435565b602060405180830381865afa1580156124d8573d6000803e3d6000fd5b505050506040513d601f19601f820116820180604052508101906124fc9190613904565b90508181101561251f5760405163356680b760e01b815260040160405180910390fd5b80156109fd57609754604051632e1a7d4d60e01b81526001600160a01b0390911690632e1a7d4d906125559085906004016131ba565b600060405180830381600087803b15801561256f57600080fd5b505af1158015612583573d6000803e3d6000fd5b506109fd925050506001600160a01b038416836129cc565b6125ad856001600160a01b0316611bf6565b9450826001600160a01b0316856001600160a01b0316146125d3576125d3838683611d25565b6125dd83826123e3565b6065546125f4906001600160a01b031685846129f7565b826001600160a01b0316846001600160a01b0316866001600160a01b03167ffbde797d201c681b91056529119e0b02407c7bb96a4a2c75c01fc9667232c8db8585604051612643929190613786565b60405180910390a45050505050565b600080612660868686612a16565b9050600183600281111561267657612676613c00565b14801561269357506000848061268e5761268e6137ec565b868809115b15611c34576126a3600182613644565b9695505050505050565b600080600160401b600160a01b03831660ff60981b81036126d957600192506001600160401b03841691505b50915091565b600080826000526016600a602060006002607f60991b015afa9150600051806001600160a01b031691508060a01c61ffff1661040a81146127235760009350600092505b505081158061238857503d60161461239857506000928392509050565b61274a828261161a565b610a3d5761275781612ac5565b612762836020612ad7565b604051602001612773929190613c38565b60408051601f198184030181529082905262461bcd60e51b8252610a2a91600401613283565b6127a28161214a565b6127be5760405162461bcd60e51b8152600401610a2a90613cd4565b6000805160206141fd83398151915280546001600160a01b0319166001600160a01b0392909216919091179055565b6127f683612c42565b6000825111806128035750805b156109fd57611d6a8383612c82565b600054610100900460ff166121295760405162461bcd60e51b8152600401610a2a90613bf0565b600054610100900460ff166128605760405162461bcd60e51b8152600401610a2a90613bf0565b610a3d8282612d2c565b600054610100900460ff166128915760405162461bcd60e51b8152600401610a2a90613bf0565b610b0681612d6c565b611d6a846323b872dd60e01b8585856040516024016128bb93929190613ce4565b60408051601f198184030181529190526020810180516001600160e01b03166001600160e01b031990931692909217909152612df1565b60606129056005607f60991b0184612e80565b6000806005607f60991b0188868661291e576000612921565b60015b8a8a8e60405160200161293996959493929190613d23565b60408051601f198184030181529082905261295391613d79565b600060405180830381855af49150503d806000811461298e576040519150601f19603f3d011682016040523d82523d6000602084013e612993565b606091505b5091509150816129b657604051638a7db5bf60e01b815260040160405180910390fd5b6129bf81612ec8565b9998505050505050505050565b600080600080600085875af19050806109fd5760405162461bcd60e51b8152600401610a2a90613daf565b6109fd8363a9059cbb60e01b84846040516024016128bb929190613dbf565b6000808060001985870985870292508281108382030391505080600003612a5057838281612a4657612a466137ec565b04925050506109c5565b808411612a5c57600080fd5b60008486880960026001871981018816978890046003810283188082028403028082028403028082028403028082028403028082028403029081029092039091026000889003889004909101858311909403939093029303949094049190911702949350505050565b60606108816001600160a01b03831660145b60606000612ae68360026137cd565b612af1906002613644565b6001600160401b03811115612b0857612b08613465565b6040519080825280601f01601f191660200182016040528015612b32576020820181803683370190505b509050600360fc1b81600081518110612b4d57612b4d613dcd565b60200101906001600160f81b031916908160001a905350600f60fb1b81600181518110612b7c57612b7c613dcd565b60200101906001600160f81b031916908160001a9053506000612ba08460026137cd565b612bab906001613644565b90505b6001811115612c23576f181899199a1a9b1b9c1cb0b131b232b360811b85600f1660108110612bdf57612bdf613dcd565b1a60f81b828281518110612bf557612bf5613dcd565b60200101906001600160f81b031916908160001a90535060049490941c93612c1c81613de3565b9050612bae565b5083156109c55760405162461bcd60e51b8152600401610a2a90613e2c565b612c4b81612799565b6040516001600160a01b038216907fbc7cd75a20ee27fd9adebab32041f755214dbc6bffa90cc0225b39da2e5c2d3b90600090a250565b6060612c8d8361214a565b612ca95760405162461bcd60e51b8152600401610a2a90613e7f565b600080846001600160a01b031684604051612cc49190613d79565b600060405180830381855af49150503d8060008114612cff576040519150601f19603f3d011682016040523d82523d6000602084013e612d04565b606091505b5091509150611c34828260405180606001604052806027815260200161423d60279139612fa1565b600054610100900460ff16612d535760405162461bcd60e51b8152600401610a2a90613bf0565b6036612d5f8382613f58565b5060376109fd8282613f58565b600054610100900460ff16612d935760405162461bcd60e51b8152600401610a2a90613bf0565b600080612d9f83612fba565b9150915081612daf576012612db1565b805b606580546001600160a01b039095166001600160a01b031960ff93909316600160a01b02929092166001600160a81b031990951694909417179092555050565b6000612e46826040518060400160405280602081526020017f5361666545524332303a206c6f772d6c6576656c2063616c6c206661696c6564815250856001600160a01b03166130969092919063ffffffff16565b8051909150156109fd5780806020019051810190612e649190613955565b6109fd5760405162461bcd60e51b8152600401610a2a9061405d565b4781811015612ea6578082604051634787a10360e11b8152600401610a2a929190613786565b823f151580611d6a5760405163064d954b60e41b815260040160405180910390fd5b6060600080600084806020019051810190612ee391906140c5565b919450925090506001600160401b038216612f1d57805115612f1857604051630e74990760e01b815260040160405180910390fd5b612f80565b6001600160401b03821660511480612f3e57506001600160401b0382166071145b15612f65578051600003612f1857604051630e74990760e01b815260040160405180910390fd5b8160405163f1f6bced60e01b8152600401610a2a9190613934565b82156118c3578260405163d4bb667160e01b8152600401610a2a91906131ba565b60608315612fb05750816109c5565b6109c583836130a5565b60408051600481526024810182526020810180516001600160e01b031663313ce56760e01b17905290516000918291829182916001600160a01b0387169161300191613d79565b600060405180830381855afa9150503d806000811461303c576040519150601f19603f3d011682016040523d82523d6000602084013e613041565b606091505b509150915081801561305557506020815110155b15613089576000818060200190518101906130709190613904565b905060ff8111613087576001969095509350505050565b505b5060009485945092505050565b60606118c384846000856130cf565b8151156130b55781518083602001fd5b8060405162461bcd60e51b8152600401610a2a9190613283565b6060824710156130f15760405162461bcd60e51b8152600401610a2a90614168565b600080866001600160a01b0316858760405161310d9190613d79565b60006040518083038185875af1925050503d806000811461314a576040519150601f19603f3d011682016040523d82523d6000602084013e61314f565b606091505b50915091506131608783838761316b565b979650505050505050565b606083156131a85782516000036131a1576131858561214a565b6131a15760405162461bcd60e51b8152600401610a2a906141ac565b50816118c3565b6118c383836130a5565b805b82525050565b6020810161088182846131b2565b6001600160e01b031981165b8114610b0657600080fd5b8035610881816131c8565b6000602082840312156131ff576131ff600080fd5b60006118c384846131df565b8015156131b4565b60208101610881828461320b565b60005b8381101561323c578181015183820152602001613224565b50506000910152565b601f01601f191690565b6000613259825190565b808452602084019350613270818560208601613221565b61327981613245565b9093019392505050565b602080825281016109c5818461324f565b806131d4565b803561088181613294565b6000602082840312156132ba576132ba600080fd5b60006118c3848461329a565b6001600160a01b031690565b60006108816132e3610c71846132c6565b6132c6565b6000610881826132d2565b6000610881826132e8565b6131b4816132f3565b6020810161088182846132fe565b6000610881826132c6565b6131d481613315565b803561088181613320565b6000806040838503121561334a5761334a600080fd5b60006133568585613329565b92505060206133678582860161329a565b9150509250929050565b60008060006060848603121561338957613389600080fd5b60006133958686613329565b93505060206133a686828701613329565b92505060406133b78682870161329a565b9150509250925092565b600080604083850312156133d7576133d7600080fd5b60006133e3858561329a565b925050602061336785828601613329565b60ff81166131b4565b6020810161088182846133f4565b60006020828403121561342057613420600080fd5b60006118c38484613329565b6131b481613315565b60208101610881828461342c565b6000806040838503121561345957613459600080fd5b60006133e38585613329565b634e487b7160e01b600052604160045260246000fd5b61348482613245565b81018181106001600160401b03821117156134a1576134a1613465565b6040525050565b60006134b360405190565b90506134bf828261347b565b919050565b60006001600160401b038211156134dd576134dd613465565b6134e682613245565b60200192915050565b82818337506000910152565b600061350e613509846134c4565b6134a8565b90508281526020810184848401111561352957613529600080fd5b6135348482856134ef565b509392505050565b600082601f83011261355057613550600080fd5b81356118c38482602086016134fb565b6000806040838503121561357657613576600080fd5b60006135828585613329565b92505060208301356001600160401b038111156135a1576135a1600080fd5b6133678582860161353c565b6001600160401b0381166131d4565b8035610881816135ad565b6000602082840312156135dc576135dc600080fd5b60006118c384846135bc565b60008060006060848603121561360057613600600080fd5b600061360c868661329a565b935050602061361d86828701613329565b92505060406133b786828701613329565b634e487b7160e01b600052601160045260246000fd5b808201808211156108815761088161362e565b634e487b7160e01b600052602260045260246000fd5b60028104600182168061368157607f821691505b60208210810361369357613693613657565b50919050565b602f81526000602082017f416363657373436f6e74726f6c3a2063616e206f6e6c792072656e6f756e636581526e103937b632b9903337b91039b2b63360891b602082015291505b5060400190565b6020808252810161088181613699565b602c81526000602082016000805160206141bd83398151915281526b19195b1959d85d1958d85b1b60a21b602082015291506136e1565b60208082528101610881816136f8565b602c81526000602082016000805160206141bd83398151915281526b6163746976652070726f787960a01b602082015291506136e1565b602080825281016108818161373f565b6040810161379482856131b2565b6109c560208301846131b2565b805161088181613320565b6000602082840312156137c1576137c1600080fd5b60006118c384846137a1565b8181028082158382048514176137e5576137e561362e565b5092915050565b634e487b7160e01b600052601260045260246000fd5b600082613811576138116137ec565b500490565b602e81526000602082017f496e697469616c697a61626c653a20636f6e747261637420697320616c72656181526d191e481a5b9a5d1a585b1a5e995960921b602082015291506136e1565b6020808252810161088181613816565b60ff1690565b6131b481600061088182613871565b602081016108818284613877565b603881526000602082017f555550535570677261646561626c653a206d757374206e6f742062652063616c8152771b1959081d1a1c9bdd59da0819195b1959d85d1958d85b1b60421b602082015291506136e1565b6020808252810161088181613894565b805161088181613294565b60006020828403121561391957613919600080fd5b60006118c384846138f9565b6001600160401b0381166131b4565b602081016108818284613925565b8015156131d4565b805161088181613942565b60006020828403121561396a5761396a600080fd5b60006118c3848461394a565b604081016137948285613925565b8051610881816135ad565b6131d48160070b90565b80516108818161398f565b600080600080608085870312156139bd576139bd600080fd5b60006139c9878761394a565b94505060206139da878288016137a1565b93505060406139eb87828801613984565b92505060606139fc87828801613999565b91505092959194509250565b60608101613a168286613925565b613a236020830185613925565b6118c360408301846131b2565b602581526000602082017f45524332303a2064656372656173656420616c6c6f77616e63652062656c6f77815264207a65726f60d81b602082015291506136e1565b6020808252810161088181613a30565b60408101613a908285613925565b6109c5602083018461342c565b818103818111156108815761088161362e565b602e81526000602082017f45524331393637557067726164653a206e657720696d706c656d656e7461746981526d6f6e206973206e6f74205555505360901b602082015291506136e1565b6020808252810161088181613ab0565b602981526000602082017f45524331393637557067726164653a20756e737570706f727465642070726f788152681a58589b195555525160ba1b602082015291506136e1565b6020808252810161088181613b0b565b601f81526000602082017f5265656e7472616e637947756172643a207265656e7472616e742063616c6c00815291505b5060200190565b6020808252810161088181613b61565b602b81526000602082017f496e697469616c697a61626c653a20636f6e7472616374206973206e6f74206981526a6e697469616c697a696e6760a81b602082015291506136e1565b6020808252810161088181613ba8565b634e487b7160e01b600052602160045260246000fd5b6000613c20825190565b613c2e818560208601613221565b9290920192915050565b76020b1b1b2b9b9a1b7b73a3937b61d1030b1b1b7bab73a1604d1b81526017016000613c648285613c16565b7001034b99036b4b9b9b4b733903937b6329607d1b815260110191506118c38284613c16565b602d81526000602082017f455243313936373a206e657720696d706c656d656e746174696f6e206973206e81526c1bdd08184818dbdb9d1c9858dd609a1b602082015291506136e1565b6020808252810161088181613c8a565b60608101613cf2828661342c565b613a23602083018561342c565b6001600160401b031690565b6131b48160006108816001600160401b038316613cff565b60c08101613d318289613925565b613d3e60208301886131b2565b613d4b6040830187613925565b613d586060830186613925565b8181036080830152613d6a818561324f565b905061316060a0830184613d0b565b60006109c58284613c16565b601381526000602082017211551217d514905394d1915497d19052531151606a1b81529150613b91565b6020808252810161088181613d85565b60408101613794828561342c565b634e487b7160e01b600052603260045260246000fd5b600081613df257613df261362e565b506000190190565b60208082527f537472696e67733a20686578206c656e67746820696e73756666696369656e7491019081526000613b91565b6020808252810161088181613dfa565b602681526000602082017f416464726573733a2064656c65676174652063616c6c20746f206e6f6e2d636f8152651b9d1c9858dd60d21b602082015291506136e1565b6020808252810161088181613e3c565b6000610881610c718381565b613ea483613e8f565b81546008840282811b60001990911b908116901990911617825550505050565b60006109fd818484613e9b565b81811015610a3d57613ee4600082613ec4565b600101613ed1565b601f8211156109fd576000818152602090206020601f85010481016020851015613f135750805b613f256020601f860104830182613ed1565b5050505050565b6000196008929092029190911c191690565b6000613f4a8383613f2c565b600290930290921792915050565b81516001600160401b03811115613f7157613f71613465565b613f7b825461366d565b613f86828285613eec565b6020601f831160018114613fb45760008415613fa25750858201515b613fac8582613f3e565b86555061400e565b600085815260208120601f198616915b82811015613fe45788850151825560209485019460019092019101613fc4565b868310156140015784890151613ffd601f891682613f2c565b8355505b6001600288020188555050505b505050505050565b602a81526000602082017f5361666545524332303a204552433230206f7065726174696f6e20646964206e8152691bdd081cdd58d8d9595960b21b602082015291506136e1565b6020808252810161088181614016565b600061407b613509846134c4565b90508281526020810184848401111561409657614096600080fd5b613534848285613221565b600082601f8301126140b5576140b5600080fd5b81516118c384826020860161406d565b6000806000606084860312156140dd576140dd600080fd5b60006140e986866138f9565b93505060206140fa86828701613984565b92505060408401516001600160401b0381111561411957614119600080fd5b6133b7868287016140a1565b602681526000602082017f416464726573733a20696e73756666696369656e742062616c616e636520666f8152651c8818d85b1b60d21b602082015291506136e1565b6020808252810161088181614125565b601d81526000602082017f416464726573733a2063616c6c20746f206e6f6e2d636f6e747261637400000081529150613b91565b602080825281016108818161417856fe46756e6374696f6e206d7573742062652063616c6c6564207468726f7567682006cc7e90b4f2b554a9614b0caa84f909f3498c820ae47c731f490c28c07f7d3b360894a13ba1a3210667c828492db98dca3e2076cc3735a920a3ca505d382bbc1d14d86df057371c196b6fcc3e0364275c5066680dd996a56ed0b0e5eb1394a8416464726573733a206c6f772d6c6576656c2064656c65676174652063616c6c206661696c65642174eddbd3dd5d6d1f8771fcfe11e56dde5a1c380f4e4ee908e41262add3ef0cddf252ad1be2c89b69c2b068fc378daa952ba7f163c4a11628f55a4df523b3efdcbc1c05240f31ff3ad067ef1ee35ce4997762752e3a095284754544f4c709d7a2646970667358221220e385f15a3b5f9d4c9e766acd5ea0d90033c7250b081426e88ca764d12ab1fb5864736f6c63430008110033",
  "devdoc": {
    "kind": "dev",
    "methods": {
      "allowance(address,address)": {
        "details": "See {IERC20-allowance}."
      },
      "approve(address,uint256)": {
        "details": "See {IERC20-approve}. NOTE: If `amount` is the maximum `uint256`, the allowance is not updated on `transferFrom`. This is semantically equivalent to an infinite approval. Requirements: - `spender` cannot be the zero address."
      },
      "asset()": {
        "details": "See {IERC4626-asset}. "
      },
      "balanceOf(address)": {
        "details": "See {IERC20-balanceOf}."
      },
      "convertToAssets(uint256)": {
        "details": "See {IERC4626-convertToAssets}. "
      },
      "convertToShares(uint256)": {
        "details": "See {IERC4626-convertToShares}. "
      },
      "decimals()": {
        "details": "Decimals are read from the underlying asset in the constructor and cached. If this fails (e.g., the asset has not been created yet), the cached value is set to a default obtained by `super.decimals()` (which depends on inheritance but is most likely 18). Override this function in order to set a guaranteed hardcoded value. See {IERC20Metadata-decimals}."
      },
      "decreaseAllowance(address,uint256)": {
        "details": "Atomically decreases the allowance granted to `spender` by the caller. This is an alternative to {approve} that can be used as a mitigation for problems described in {IERC20-approve}. Emits an {Approval} event indicating the updated allowance. Requirements: - `spender` cannot be the zero address. - `spender` must have allowance for the caller of at least `subtractedValue`."
      },
      "deposit(uint256,address)": {
        "details": "See {IERC4626-deposit}. "
      },
      "getRoleAdmin(bytes32)": {
        "details": "Returns the admin role that controls `role`. See {grantRole} and {revokeRole}. To change a role's admin, use {_setRoleAdmin}."
      },
      "grantRole(bytes32,address)": {
        "details": "Grants `role` to `account`. If `account` had not been already granted `role`, emits a {RoleGranted} event. Requirements: - the caller must have ``role``'s admin role. May emit a {RoleGranted} event."
      },
      "hasRole(bytes32,address)": {
        "details": "Returns `true` if `account` has been granted `role`."
      },
      "increaseAllowance(address,uint256)": {
        "details": "Atomically increases the allowance granted to `spender` by the caller. This is an alternative to {approve} that can be used as a mitigation for problems described in {IERC20-approve}. Emits an {Approval} event indicating the updated allowance. Requirements: - `spender` cannot be the zero address."
      },
      "initialize(address,address)": {
        "details": "Contract initializer function.",
        "params": {
          "_resolver": "Resolver contract address",
          "_wFIL": "WFIL token contract address"
        }
      },
      "maxDeposit(address)": {
        "details": "See {IERC4626-maxDeposit}. "
      },
      "maxMint(address)": {
        "details": "See {IERC4626-maxMint}. "
      },
      "maxRedeem(address)": {
        "details": "See {IERC4626-maxRedeem}. "
      },
      "maxWithdraw(address)": {
        "details": "See {IERC4626-maxWithdraw}. "
      },
      "mint(uint256,address)": {
        "details": "See {IERC4626-mint}. As opposed to {deposit}, minting is allowed even if the vault is in a state where the price of a share is zero. In this case, the shares will be minted without requiring any assets to be deposited."
      },
      "name()": {
        "details": "Returns the name of the token."
      },
      "pledge(uint256)": {
        "params": {
          "amount": "Amount of FIL to pledge from Liquid Staking Pool"
        }
      },
      "previewDeposit(uint256)": {
        "details": "See {IERC4626-previewDeposit}. "
      },
      "previewMint(uint256)": {
        "details": "See {IERC4626-previewMint}. "
      },
      "previewRedeem(uint256)": {
        "details": "See {IERC4626-previewRedeem}. "
      },
      "previewWithdraw(uint256)": {
        "details": "See {IERC4626-previewWithdraw}. "
      },
      "proxiableUUID()": {
        "details": "Implementation of the ERC1822 {proxiableUUID} function. This returns the storage slot used by the implementation. It is used to validate the implementation's compatibility when performing an upgrade. IMPORTANT: A proxy pointing at a proxiable contract should not be considered proxiable itself, because this risks bricking a proxy that upgrades to it, by delegating to itself until out of gas. Thus it is critical that this function revert if invoked through a proxy. This is guaranteed by the `notDelegated` modifier."
      },
      "redeem(uint256,address,address)": {
        "details": "See {IERC4626-redeem}. "
      },
      "renounceRole(bytes32,address)": {
        "details": "Revokes `role` from the calling account. Roles are often managed via {grantRole} and {revokeRole}: this function's purpose is to provide a mechanism for accounts to lose their privileges if they are compromised (such as when a trusted device is misplaced). If the calling account had been revoked `role`, emits a {RoleRevoked} event. Requirements: - the caller must be `account`. May emit a {RoleRevoked} event."
      },
      "repayPledge(uint256)": {
        "params": {
          "amount": "Amount of pledge repayment"
        }
      },
      "restake(uint256,address)": {
        "params": {
          "assets": "Amount of assets to restake",
          "receiver": "f4 address to receive clFIL tokens"
        }
      },
      "revokeRole(bytes32,address)": {
        "details": "Revokes `role` from `account`. If `account` had been granted `role`, emits a {RoleRevoked} event. Requirements: - the caller must have ``role``'s admin role. May emit a {RoleRevoked} event."
      },
      "supportsInterface(bytes4)": {
        "details": "See {IERC165-supportsInterface}."
      },
      "symbol()": {
        "details": "Returns the symbol of the token, usually a shorter version of the name."
      },
      "totalFees(uint64)": {
        "params": {
          "_ownerId": "Storage Provider owner ID"
        }
      },
      "totalSupply()": {
        "details": "See {IERC20-totalSupply}."
      },
      "transfer(address,uint256)": {
        "details": "See {IERC20-transfer}. Requirements: - `to` cannot be the zero address. - the caller must have a balance of at least `amount`."
      },
      "transferFrom(address,address,uint256)": {
        "details": "See {IERC20-transferFrom}. Emits an {Approval} event indicating the updated allowance. This is not required by the EIP. See the note at the beginning of {ERC20}. NOTE: Does not update the allowance if the current allowance is the maximum `uint256`. Requirements: - `from` and `to` cannot be the zero address. - `from` must have a balance of at least `amount`. - the caller must have allowance for ``from``'s tokens of at least `amount`."
      },
      "unstake(uint256,address)": {
        "details": "Please note that unstake amount has to be clFIL shares (not FIL assets)",
        "params": {
          "owner": "Receiver of FIL assets",
          "shares": "Total clFIL amount to burn (unstake)"
        }
      },
      "unstakeAssets(uint256,address)": {
        "params": {
          "assets": "Total FIL amount to unstake",
          "owner": "Receiver of FIL assets"
        }
      },
      "upgradeTo(address)": {
        "details": "Upgrade the implementation of the proxy to `newImplementation`. Calls {_authorizeUpgrade}. Emits an {Upgraded} event."
      },
      "upgradeToAndCall(address,bytes)": {
        "details": "Upgrade the implementation of the proxy to `newImplementation`, and subsequently execute the function call encoded in `data`. Calls {_authorizeUpgrade}. Emits an {Upgraded} event."
      },
      "withdraw(uint256,address,address)": {
        "details": "See {IERC4626-withdraw}. "
      }
    },
    "title": "LiquidStaking contract allows users to stake/unstake FIL to earn Filecoin mining rewards. Staked FIL is allocated to Storage Providers (SPs) that perform filecoin storage mining operations. This contract acts as a beneficiary address for each SP that uses FIL capital for pledges. While staking FIL user would get clFIL token in exchange, the token follows ERC4626 standard and it's price is recalculated once mining rewards are distributed to the liquid staking pool and once new FIL is deposited. Please note that LiquidStaking contract performs wrapping of the native FIL into Wrapped Filecoin (WFIL) token.",
    "version": 1
  },
  "userdoc": {
    "errors": {
      "ActorError(int256)": [
        {
          "notice": "the called actor returned an error as part of its expected behaviour"
        }
      ],
      "ActorNotFound()": [
        {
          "notice": "the actor is not found"
        }
      ],
      "FailToCallActor()": [
        {
          "notice": "an error happened trying to call the actor"
        }
      ],
      "InvalidCodec(uint64)": [
        {
          "notice": "the codec received is not valid"
        }
      ],
      "InvalidResponseLength()": [
        {
          "notice": "the response received is not correct. In some case no response is expected and we received one, or a response was indeed expected and we received none."
        }
      ],
      "NotEnoughBalance(uint256,uint256)": [
        {
          "notice": "the smart contract has no enough balance to transfer"
        }
      ]
    },
    "events": {
      "Pledge(uint64,uint64,uint256)": {
        "notice": "Emitted when storage provider is withdrawing FIL for pledge"
      },
      "PledgeRepayment(uint256)": {
        "notice": "Emitted when storage provider's pledge is returned back to the LSP"
      },
      "Stake(address,address,uint256,uint256)": {
        "notice": "Emitted when user is staked wFIL to the Liquid Staking"
      },
      "Unstaked(address,address,uint256,uint256)": {
        "notice": "Emitted when user is unstaked wFIL from the Liquid Staking"
      }
    },
    "kind": "user",
    "methods": {
      "getImplementation()": {
        "notice": "Returns the implementation contract"
      },
      "getUsageRatio()": {
        "notice": "Returns pool usage ratio to determine what percentage of FIL is pledged compared to the total amount of FIL staked."
      },
      "pledge(uint256)": {
        "notice": "Pledge FIL assets from liquid staking pool to miner pledge for one sector"
      },
      "repayPledge(uint256)": {
        "notice": "Triggered when pledge is repaid on the Reward Collector"
      },
      "restake(uint256,address)": {
        "notice": "Restakes `assets` for a specified `target` address"
      },
      "stake()": {
        "notice": "Stake FIL to the Liquid Staking pool and get clFIL in return native FIL is wrapped into WFIL and deposited into LiquidStakingmsg.value is the amount of FIL to stake"
      },
      "totalAssets()": {
        "notice": "Returns total amount of assets backing clFIL, that includes buffered capital in the pool and pledged capital to the SPs."
      },
      "totalFees(uint64)": {
        "notice": "Returns total amount of fees held by LSP for a specific SP with `_ownerId`"
      },
      "totalFilAvailable()": {
        "notice": "Returns the amount of WFIL available on the liquid staking contract"
      },
      "totalFilPledged()": {
        "notice": "The current total amount of FIL that is allocated to SPs."
      },
      "unstake(uint256,address)": {
        "notice": "Unstake FIL from the Liquid Staking pool and burn clFIL tokens"
      },
      "unstakeAssets(uint256,address)": {
        "notice": "Unstake FIL from the Liquid Staking pool and burn clFIL tokens"
      },
      "version()": {
        "notice": "Returns the version of clFIL token contract"
      }
    },
    "version": 1
  },
  "storageLayout": {
    "storage": [
      {
        "astId": 16015,
        "contract": "contracts/LiquidStaking.sol:LiquidStaking",
        "label": "_initialized",
        "offset": 0,
        "slot": "0",
        "type": "t_uint8"
      },
      {
        "astId": 16018,
        "contract": "contracts/LiquidStaking.sol:LiquidStaking",
        "label": "_initializing",
        "offset": 1,
        "slot": "0",
        "type": "t_bool"
      },
      {
        "astId": 17743,
        "contract": "contracts/LiquidStaking.sol:LiquidStaking",
        "label": "__gap",
        "offset": 0,
        "slot": "1",
        "type": "t_array(t_uint256)50_storage"
      },
      {
        "astId": 6527,
        "contract": "contracts/LiquidStaking.sol:LiquidStaking",
        "label": "_balances",
        "offset": 0,
        "slot": "51",
        "type": "t_mapping(t_address,t_uint256)"
      },
      {
        "astId": 6533,
        "contract": "contracts/LiquidStaking.sol:LiquidStaking",
        "label": "_allowances",
        "offset": 0,
        "slot": "52",
        "type": "t_mapping(t_address,t_mapping(t_address,t_uint256))"
      },
      {
        "astId": 6535,
        "contract": "contracts/LiquidStaking.sol:LiquidStaking",
        "label": "_totalSupply",
        "offset": 0,
        "slot": "53",
        "type": "t_uint256"
      },
      {
        "astId": 6537,
        "contract": "contracts/LiquidStaking.sol:LiquidStaking",
        "label": "_name",
        "offset": 0,
        "slot": "54",
        "type": "t_string_storage"
      },
      {
        "astId": 6539,
        "contract": "contracts/LiquidStaking.sol:LiquidStaking",
        "label": "_symbol",
        "offset": 0,
        "slot": "55",
        "type": "t_string_storage"
      },
      {
        "astId": 7197,
        "contract": "contracts/LiquidStaking.sol:LiquidStaking",
        "label": "__gap",
        "offset": 0,
        "slot": "56",
        "type": "t_array(t_uint256)45_storage"
      },
      {
        "astId": 7226,
        "contract": "contracts/LiquidStaking.sol:LiquidStaking",
        "label": "_asset",
        "offset": 0,
        "slot": "101",
        "type": "t_contract(IERC20Upgradeable)17076"
      },
      {
        "astId": 7228,
        "contract": "contracts/LiquidStaking.sol:LiquidStaking",
        "label": "_decimals",
        "offset": 20,
        "slot": "101",
        "type": "t_uint8"
      },
      {
        "astId": 7981,
        "contract": "contracts/LiquidStaking.sol:LiquidStaking",
        "label": "__gap",
        "offset": 0,
        "slot": "102",
        "type": "t_array(t_uint256)49_storage"
      },
      {
        "astId": 16,
        "contract": "contracts/LiquidStaking.sol:LiquidStaking",
        "label": "WFIL",
        "offset": 0,
        "slot": "151",
        "type": "t_contract(IWFIL)8001"
      },
      {
        "astId": 16327,
        "contract": "contracts/LiquidStaking.sol:LiquidStaking",
        "label": "_status",
        "offset": 0,
        "slot": "152",
        "type": "t_uint256"
      },
      {
        "astId": 16385,
        "contract": "contracts/LiquidStaking.sol:LiquidStaking",
        "label": "__gap",
        "offset": 0,
        "slot": "153",
        "type": "t_array(t_uint256)49_storage"
      },
      {
        "astId": 18022,
        "contract": "contracts/LiquidStaking.sol:LiquidStaking",
        "label": "__gap",
        "offset": 0,
        "slot": "202",
        "type": "t_array(t_uint256)50_storage"
      },
      {
        "astId": 14943,
        "contract": "contracts/LiquidStaking.sol:LiquidStaking",
        "label": "_roles",
        "offset": 0,
        "slot": "252",
        "type": "t_mapping(t_bytes32,t_struct(RoleData)14938_storage)"
      },
      {
        "astId": 15238,
        "contract": "contracts/LiquidStaking.sol:LiquidStaking",
        "label": "__gap",
        "offset": 0,
        "slot": "253",
        "type": "t_array(t_uint256)49_storage"
      },
      {
        "astId": 15997,
        "contract": "contracts/LiquidStaking.sol:LiquidStaking",
        "label": "__gap",
        "offset": 0,
        "slot": "302",
        "type": "t_array(t_uint256)50_storage"
      },
      {
        "astId": 16312,
        "contract": "contracts/LiquidStaking.sol:LiquidStaking",
        "label": "__gap",
        "offset": 0,
        "slot": "352",
        "type": "t_array(t_uint256)50_storage"
      },
      {
        "astId": 117,
        "contract": "contracts/LiquidStaking.sol:LiquidStaking",
        "label": "totalFilPledged",
        "offset": 0,
        "slot": "402",
        "type": "t_uint256"
      },
      {
        "astId": 120,
        "contract": "contracts/LiquidStaking.sol:LiquidStaking",
        "label": "resolver",
        "offset": 0,
        "slot": "403",
        "type": "t_contract(IResolverClient)5587"
      }
    ],
    "types": {
      "t_address": {
        "encoding": "inplace",
        "label": "address",
        "numberOfBytes": "20"
      },
      "t_array(t_uint256)45_storage": {
        "base": "t_uint256",
        "encoding": "inplace",
        "label": "uint256[45]",
        "numberOfBytes": "1440"
      },
      "t_array(t_uint256)49_storage": {
        "base": "t_uint256",
        "encoding": "inplace",
        "label": "uint256[49]",
        "numberOfBytes": "1568"
      },
      "t_array(t_uint256)50_storage": {
        "base": "t_uint256",
        "encoding": "inplace",
        "label": "uint256[50]",
        "numberOfBytes": "1600"
      },
      "t_bool": {
        "encoding": "inplace",
        "label": "bool",
        "numberOfBytes": "1"
      },
      "t_bytes32": {
        "encoding": "inplace",
        "label": "bytes32",
        "numberOfBytes": "32"
      },
      "t_contract(IERC20Upgradeable)17076": {
        "encoding": "inplace",
        "label": "contract IERC20Upgradeable",
        "numberOfBytes": "20"
      },
      "t_contract(IResolverClient)5587": {
        "encoding": "inplace",
        "label": "contract IResolverClient",
        "numberOfBytes": "20"
      },
      "t_contract(IWFIL)8001": {
        "encoding": "inplace",
        "label": "contract IWFIL",
        "numberOfBytes": "20"
      },
      "t_mapping(t_address,t_bool)": {
        "encoding": "mapping",
        "key": "t_address",
        "label": "mapping(address => bool)",
        "numberOfBytes": "32",
        "value": "t_bool"
      },
      "t_mapping(t_address,t_mapping(t_address,t_uint256))": {
        "encoding": "mapping",
        "key": "t_address",
        "label": "mapping(address => mapping(address => uint256))",
        "numberOfBytes": "32",
        "value": "t_mapping(t_address,t_uint256)"
      },
      "t_mapping(t_address,t_uint256)": {
        "encoding": "mapping",
        "key": "t_address",
        "label": "mapping(address => uint256)",
        "numberOfBytes": "32",
        "value": "t_uint256"
      },
      "t_mapping(t_bytes32,t_struct(RoleData)14938_storage)": {
        "encoding": "mapping",
        "key": "t_bytes32",
        "label": "mapping(bytes32 => struct AccessControlUpgradeable.RoleData)",
        "numberOfBytes": "32",
        "value": "t_struct(RoleData)14938_storage"
      },
      "t_string_storage": {
        "encoding": "bytes",
        "label": "string",
        "numberOfBytes": "32"
      },
      "t_struct(RoleData)14938_storage": {
        "encoding": "inplace",
        "label": "struct AccessControlUpgradeable.RoleData",
        "members": [
          {
            "astId": 14935,
            "contract": "contracts/LiquidStaking.sol:LiquidStaking",
            "label": "members",
            "offset": 0,
            "slot": "0",
            "type": "t_mapping(t_address,t_bool)"
          },
          {
            "astId": 14937,
            "contract": "contracts/LiquidStaking.sol:LiquidStaking",
            "label": "adminRole",
            "offset": 0,
            "slot": "1",
            "type": "t_bytes32"
          }
        ],
        "numberOfBytes": "64"
      },
      "t_uint256": {
        "encoding": "inplace",
        "label": "uint256",
        "numberOfBytes": "32"
      },
      "t_uint8": {
        "encoding": "inplace",
        "label": "uint8",
        "numberOfBytes": "1"
      }
    }
  }
}