{
  "address": "0xcC2FfeFDd934b99d1083c603f52Ec3E16A693894",
  "abi": [
    {
      "inputs": [],
      "name": "InvalidAddress",
      "type": "error"
    },
    {
      "anonymous": false,
      "inputs": [
        {
          "indexed": false,
          "internalType": "bytes32",
          "name": "id",
          "type": "bytes32"
        },
        {
          "indexed": false,
          "internalType": "address",
          "name": "oldAddress",
          "type": "address"
        },
        {
          "indexed": false,
          "internalType": "address",
          "name": "newAddress",
          "type": "address"
        }
      ],
      "name": "AddressSet",
      "type": "event"
    },
    {
      "anonymous": false,
      "inputs": [
        {
          "indexed": false,
          "internalType": "address",
          "name": "previousAdmin",
          "type": "address"
        },
        {
          "indexed": false,
          "internalType": "address",
          "name": "newAdmin",
          "type": "address"
        }
      ],
      "name": "AdminChanged",
      "type": "event"
    },
    {
      "anonymous": false,
      "inputs": [
        {
          "indexed": true,
          "internalType": "address",
          "name": "beacon",
          "type": "address"
        }
      ],
      "name": "BeaconUpgraded",
      "type": "event"
    },
    {
      "anonymous": false,
      "inputs": [
        {
          "indexed": false,
          "internalType": "address",
          "name": "newAddress",
          "type": "address"
        }
      ],
      "name": "CollateralAddressUpdated",
      "type": "event"
    },
    {
      "anonymous": false,
      "inputs": [
        {
          "indexed": false,
          "internalType": "uint8",
          "name": "version",
          "type": "uint8"
        }
      ],
      "name": "Initialized",
      "type": "event"
    },
    {
      "anonymous": false,
      "inputs": [
        {
          "indexed": false,
          "internalType": "address",
          "name": "newAddress",
          "type": "address"
        }
      ],
      "name": "LiquidStakingAddressUpdated",
      "type": "event"
    },
    {
      "anonymous": false,
      "inputs": [
        {
          "indexed": false,
          "internalType": "address",
          "name": "newAddress",
          "type": "address"
        }
      ],
      "name": "LiquidStakingControllerAddressUpdated",
      "type": "event"
    },
    {
      "anonymous": false,
      "inputs": [
        {
          "indexed": true,
          "internalType": "address",
          "name": "previousOwner",
          "type": "address"
        },
        {
          "indexed": true,
          "internalType": "address",
          "name": "newOwner",
          "type": "address"
        }
      ],
      "name": "OwnershipTransferred",
      "type": "event"
    },
    {
      "anonymous": false,
      "inputs": [
        {
          "indexed": false,
          "internalType": "address",
          "name": "newAddress",
          "type": "address"
        }
      ],
      "name": "RegistryAddressUpdated",
      "type": "event"
    },
    {
      "anonymous": false,
      "inputs": [
        {
          "indexed": false,
          "internalType": "address",
          "name": "newAddress",
          "type": "address"
        }
      ],
      "name": "RewardCollectorAddressUpdated",
      "type": "event"
    },
    {
      "anonymous": false,
      "inputs": [
        {
          "indexed": true,
          "internalType": "address",
          "name": "implementation",
          "type": "address"
        }
      ],
      "name": "Upgraded",
      "type": "event"
    },
    {
      "inputs": [
        {
          "internalType": "bytes32",
          "name": "id",
          "type": "bytes32"
        }
      ],
      "name": "getAddress",
      "outputs": [
        {
          "internalType": "address",
          "name": "",
          "type": "address"
        }
      ],
      "stateMutability": "view",
      "type": "function"
    },
    {
      "inputs": [],
      "name": "getCollateral",
      "outputs": [
        {
          "internalType": "address",
          "name": "",
          "type": "address"
        }
      ],
      "stateMutability": "view",
      "type": "function"
    },
    {
      "inputs": [],
      "name": "getImplementation",
      "outputs": [
        {
          "internalType": "address",
          "name": "",
          "type": "address"
        }
      ],
      "stateMutability": "view",
      "type": "function"
    },
    {
      "inputs": [],
      "name": "getLiquidStaking",
      "outputs": [
        {
          "internalType": "address",
          "name": "",
          "type": "address"
        }
      ],
      "stateMutability": "view",
      "type": "function"
    },
    {
      "inputs": [],
      "name": "getLiquidStakingController",
      "outputs": [
        {
          "internalType": "address",
          "name": "",
          "type": "address"
        }
      ],
      "stateMutability": "view",
      "type": "function"
    },
    {
      "inputs": [],
      "name": "getRegistry",
      "outputs": [
        {
          "internalType": "address",
          "name": "",
          "type": "address"
        }
      ],
      "stateMutability": "view",
      "type": "function"
    },
    {
      "inputs": [],
      "name": "getRewardCollector",
      "outputs": [
        {
          "internalType": "address",
          "name": "",
          "type": "address"
        }
      ],
      "stateMutability": "view",
      "type": "function"
    },
    {
      "inputs": [],
      "name": "initialize",
      "outputs": [],
      "stateMutability": "nonpayable",
      "type": "function"
    },
    {
      "inputs": [],
      "name": "owner",
      "outputs": [
        {
          "internalType": "address",
          "name": "",
          "type": "address"
        }
      ],
      "stateMutability": "view",
      "type": "function"
    },
    {
      "inputs": [],
      "name": "proxiableUUID",
      "outputs": [
        {
          "internalType": "bytes32",
          "name": "",
          "type": "bytes32"
        }
      ],
      "stateMutability": "view",
      "type": "function"
    },
    {
      "inputs": [],
      "name": "renounceOwnership",
      "outputs": [],
      "stateMutability": "nonpayable",
      "type": "function"
    },
    {
      "inputs": [
        {
          "internalType": "bytes32",
          "name": "id",
          "type": "bytes32"
        },
        {
          "internalType": "address",
          "name": "newAddress",
          "type": "address"
        }
      ],
      "name": "setAddress",
      "outputs": [],
      "stateMutability": "nonpayable",
      "type": "function"
    },
    {
      "inputs": [
        {
          "internalType": "address",
          "name": "newAddress",
          "type": "address"
        }
      ],
      "name": "setCollateralAddress",
      "outputs": [],
      "stateMutability": "nonpayable",
      "type": "function"
    },
    {
      "inputs": [
        {
          "internalType": "address",
          "name": "newAddress",
          "type": "address"
        }
      ],
      "name": "setLiquidStakingAddress",
      "outputs": [],
      "stateMutability": "nonpayable",
      "type": "function"
    },
    {
      "inputs": [
        {
          "internalType": "address",
          "name": "newAddress",
          "type": "address"
        }
      ],
      "name": "setLiquidStakingControllerAddress",
      "outputs": [],
      "stateMutability": "nonpayable",
      "type": "function"
    },
    {
      "inputs": [
        {
          "internalType": "address",
          "name": "newAddress",
          "type": "address"
        }
      ],
      "name": "setRegistryAddress",
      "outputs": [],
      "stateMutability": "nonpayable",
      "type": "function"
    },
    {
      "inputs": [
        {
          "internalType": "address",
          "name": "newAddress",
          "type": "address"
        }
      ],
      "name": "setRewardCollectorAddress",
      "outputs": [],
      "stateMutability": "nonpayable",
      "type": "function"
    },
    {
      "inputs": [
        {
          "internalType": "address",
          "name": "newOwner",
          "type": "address"
        }
      ],
      "name": "transferOwnership",
      "outputs": [],
      "stateMutability": "nonpayable",
      "type": "function"
    },
    {
      "inputs": [
        {
          "internalType": "address",
          "name": "newImplementation",
          "type": "address"
        }
      ],
      "name": "upgradeTo",
      "outputs": [],
      "stateMutability": "nonpayable",
      "type": "function"
    },
    {
      "inputs": [
        {
          "internalType": "address",
          "name": "newImplementation",
          "type": "address"
        },
        {
          "internalType": "bytes",
          "name": "data",
          "type": "bytes"
        }
      ],
      "name": "upgradeToAndCall",
      "outputs": [],
      "stateMutability": "payable",
      "type": "function"
    },
    {
      "inputs": [],
      "name": "version",
      "outputs": [
        {
          "internalType": "string",
          "name": "",
          "type": "string"
        }
      ],
      "stateMutability": "pure",
      "type": "function"
    }
  ],
  "numDeployments": 1,
  "solcInputHash": "8a46af32103d9a2df7f250379b9d8927",
  "bytecode": "0x60a06040523060805234801561001457600080fd5b5060805161157061004c6000396000818161044b01528181610494015281816105430152818161058301526105ff01526115706000f3fe6080604052600436106100fa5760003560e01c8063029d262e146100ff5780630ee0deba1461012157806315d250461461014c57806321f8a7211461016c5780633659cfe61461018c5780634e1060fa146101ac5780634f1ef286146101c157806352d1902d146101d457806354fd4d50146101f65780635ab1bd53146102275780635c1548fb1461023c57806368e01df214610251578063715018a6146102715780638129fc1c146102865780638da5cb5b1461029b578063aaf10f42146102b0578063ab7b4993146102c5578063ca446dd9146102e5578063e1dda2a914610305578063f2fde38b1461031a578063ff904ba81461033a575b600080fd5b34801561010b57600080fd5b5061011f61011a366004610e17565b61035a565b005b34801561012d57600080fd5b506101366103b3565b6040516101439190610e4f565b60405180910390f35b34801561015857600080fd5b5061011f610167366004610e17565b6103d4565b34801561017857600080fd5b50610136610187366004610e6e565b610426565b34801561019857600080fd5b5061011f6101a7366004610e17565b610441565b3480156101b857600080fd5b50610136610512565b61011f6101cf366004610f94565b610539565b3480156101e057600080fd5b506101e96105f2565b6040516101439190610ff1565b34801561020257600080fd5b506040805180820182526002815261763160f01b602082015290516101439190611057565b34801561023357600080fd5b5061013661064f565b34801561024857600080fd5b50610136610665565b34801561025d57600080fd5b5061011f61026c366004610e17565b61067d565b34801561027d57600080fd5b5061011f6106da565b34801561029257600080fd5b5061011f6106ee565b3480156102a757600080fd5b506101366107c0565b3480156102bc57600080fd5b506101366107cf565b3480156102d157600080fd5b5061011f6102e0366004610e17565b6107d9565b3480156102f157600080fd5b5061011f610300366004611068565b610825565b34801561031157600080fd5b506101366108e4565b34801561032657600080fd5b5061011f610335366004610e17565b610902565b34801561034657600080fd5b5061011f610355366004610e17565b610939565b61036261098d565b6103796910d3d31310551154905360b21b826109bc565b7f823c58e2969bcdf1301b932fcbced62d5d4617880949dd434df13d001b3a1162816040516103a89190610e4f565b60405180910390a150565b60006103cf6d4c49515549445f5354414b494e4760901b610426565b905090565b6103dc61098d565b6103f76d4c49515549445f5354414b494e4760901b826109bc565b7f28eee4c16ee82f20af2f6bbce9099830336463276722abd296c37fa5596c67a6816040516103a89190610e4f565b600090815260c960205260409020546001600160a01b031690565b6001600160a01b037f00000000000000000000000000000000000000000000000000000000000000001630036104925760405162461bcd60e51b8152600401610489906110d5565b60405180910390fd5b7f00000000000000000000000000000000000000000000000000000000000000006001600160a01b03166104c4610a37565b6001600160a01b0316146104ea5760405162461bcd60e51b81526004016104899061111c565b6104f381610a53565b6040805160008082526020820190925261050f91839190610a5b565b50565b60006103cf782624a8aaa4a22fa9aa20a5a4a723afa1a7a72a2927a62622a960391b610426565b6001600160a01b037f00000000000000000000000000000000000000000000000000000000000000001630036105815760405162461bcd60e51b8152600401610489906110d5565b7f00000000000000000000000000000000000000000000000000000000000000006001600160a01b03166105b3610a37565b6001600160a01b0316146105d95760405162461bcd60e51b81526004016104899061111c565b6105e282610a53565b6105ee82826001610a5b565b5050565b6000306001600160a01b037f0000000000000000000000000000000000000000000000000000000000000000161461063c5760405162461bcd60e51b815260040161048990611181565b506000805160206114f483398151915290565b60006103cf67524547495354525960c01b610426565b60006103cf6910d3d31310551154905360b21b610426565b61068561098d565b6106ab782624a8aaa4a22fa9aa20a5a4a723afa1a7a72a2927a62622a960391b826109bc565b7f4ab24a8b7f91c7c94ba84b720a3a31ac1fddb8d9f0a95d3bc7ae681d94939b6c816040516103a89190610e4f565b6106e261098d565b6106ec6000610b42565b565b600054610100900460ff161580801561070e5750600054600160ff909116105b8061072f575061071d30610b94565b15801561072f575060005460ff166001145b61074b5760405162461bcd60e51b8152600401610489906111dc565b6000805460ff19166001179055801561076e576000805461ff0019166101001790555b610776610ba3565b61077e610bd2565b801561050f576000805461ff00191690556040517f7f26b83ff96e1f2b6a682f133852f6798a09c465da95921460cefb3847402498906103a890600190611200565b6033546001600160a01b031690565b60006103cf610a37565b6107e161098d565b6107f667524547495354525960c01b826109bc565b7fc533a624c353ec88e315b162298e52e2b02aa03d5fb5afdbf13445a26f1d10c7816040516103a89190610e4f565b61082d61098d565b600082815260c960205260409020546001600160a01b0390811690821681148061085e57506001600160a01b038216155b1561087c5760405163e6c4247b60e01b815260040160405180910390fd5b600083815260c960205260409081902080546001600160a01b0319166001600160a01b038516179055517f9ef0e8c8e52743bb38b83b17d9429141d494b8041ca6d616a6c77cebae9cd8b7906108d79085908490869061120e565b60405180910390a1505050565b60006103cf6f2922aba0a9222fa1a7a62622a1aa27a960811b610426565b61090a61098d565b6001600160a01b0381166109305760405162461bcd60e51b815260040161048990611279565b61050f81610b42565b61094161098d565b61095e6f2922aba0a9222fa1a7a62622a1aa27a960811b826109bc565b7f1bddb2a677915289a2247c53f1b129b2c0e3f267ef9bdbf00b9f59dd547e1317816040516103a89190610e4f565b336109966107c0565b6001600160a01b0316146106ec5760405162461bcd60e51b815260040161048990611289565b600082815260c960205260409020546001600160a01b03828116911614806109eb57506001600160a01b038116155b15610a095760405163e6c4247b60e01b815260040160405180910390fd5b600091825260c9602052604090912080546001600160a01b0319166001600160a01b03909216919091179055565b6000805160206114f4833981519152546001600160a01b031690565b61050f61098d565b7f4910fdfa16fed3260ed0e7147f7cc6da11a60208b5b9406d12a635614ffd91435460ff1615610a9357610a8e83610bf9565b505050565b826001600160a01b03166352d1902d6040518163ffffffff1660e01b8152600401602060405180830381865afa925050508015610aed575060408051601f3d908101601f19168201909252610aea918101906112ce565b60015b610b095760405162461bcd60e51b81526004016104899061133a565b6000805160206114f48339815191528114610b365760405162461bcd60e51b815260040161048990611390565b50610a8e838383610c4d565b603380546001600160a01b038381166001600160a01b0319831681179093556040519116919082907f8be0079c531659141344cd1fd0a4f28419497f9722a3daafe3b4186f6b6457e090600090a35050565b6001600160a01b03163b151590565b600054610100900460ff16610bca5760405162461bcd60e51b8152600401610489906113e8565b6106ec610c78565b600054610100900460ff166106ec5760405162461bcd60e51b8152600401610489906113e8565b610c0281610b94565b610c1e5760405162461bcd60e51b815260040161048990611442565b6000805160206114f483398151915280546001600160a01b0319166001600160a01b0392909216919091179055565b610c5683610ca8565b600082511180610c635750805b15610a8e57610c728383610ce8565b50505050565b600054610100900460ff16610c9f5760405162461bcd60e51b8152600401610489906113e8565b6106ec33610b42565b610cb181610bf9565b6040516001600160a01b038216907fbc7cd75a20ee27fd9adebab32041f755214dbc6bffa90cc0225b39da2e5c2d3b90600090a250565b6060610cf383610b94565b610d0f5760405162461bcd60e51b815260040161048990611495565b600080846001600160a01b031684604051610d2a91906114c7565b600060405180830381855af49150503d8060008114610d65576040519150601f19603f3d011682016040523d82523d6000602084013e610d6a565b606091505b5091509150610d92828260405180606001604052806027815260200161151460279139610d9d565b925050505b92915050565b60608315610dac575081610db6565b610db68383610dbd565b9392505050565b815115610dcd5781518083602001fd5b8060405162461bcd60e51b81526004016104899190611057565b60006001600160a01b038216610d97565b610e0181610de7565b811461050f57600080fd5b8035610d9781610df8565b600060208284031215610e2c57610e2c600080fd5b6000610e388484610e0c565b949350505050565b610e4981610de7565b82525050565b60208101610d978284610e40565b80610e01565b8035610d9781610e5d565b600060208284031215610e8357610e83600080fd5b6000610e388484610e63565b601f01601f191690565b634e487b7160e01b600052604160045260246000fd5b610eb882610e8f565b81018181106001600160401b0382111715610ed557610ed5610e99565b6040525050565b6000610ee760405190565b9050610ef38282610eaf565b919050565b60006001600160401b03821115610f1157610f11610e99565b610f1a82610e8f565b60200192915050565b82818337506000910152565b6000610f42610f3d84610ef8565b610edc565b905082815260208101848484011115610f5d57610f5d600080fd5b610f68848285610f23565b509392505050565b600082601f830112610f8457610f84600080fd5b8135610e38848260208601610f2f565b60008060408385031215610faa57610faa600080fd5b6000610fb68585610e0c565b92505060208301356001600160401b03811115610fd557610fd5600080fd5b610fe185828601610f70565b9150509250929050565b80610e49565b60208101610d978284610feb565b60005b8381101561101a578181015183820152602001611002565b50506000910152565b600061102d825190565b808452602084019350611044818560208601610fff565b61104d81610e8f565b9093019392505050565b60208082528101610db68184611023565b6000806040838503121561107e5761107e600080fd5b600061108a8585610e63565b9250506020610fe185828601610e0c565b602c81526000602082016000805160206114d483398151915281526b19195b1959d85d1958d85b1b60a21b602082015291505b5060400190565b60208082528101610d978161109b565b602c81526000602082016000805160206114d483398151915281526b6163746976652070726f787960a01b602082015291506110ce565b60208082528101610d97816110e5565b603881526000602082017f555550535570677261646561626c653a206d757374206e6f742062652063616c8152771b1959081d1a1c9bdd59da0819195b1959d85d1958d85b1b60421b602082015291506110ce565b60208082528101610d978161112c565b602e81526000602082017f496e697469616c697a61626c653a20636f6e747261637420697320616c72656181526d191e481a5b9a5d1a585b1a5e995960921b602082015291506110ce565b60208082528101610d9781611191565b600060ff8216610d97565b610e49816111ec565b60208101610d9782846111f7565b6060810161121c8286610feb565b6112296020830185610e40565b610e386040830184610e40565b602681526000602082017f4f776e61626c653a206e6577206f776e657220697320746865207a65726f206181526564647265737360d01b602082015291506110ce565b60208082528101610d9781611236565b60208082528181019081527f4f776e61626c653a2063616c6c6572206973206e6f7420746865206f776e6572604083015260608201610d97565b8051610d9781610e5d565b6000602082840312156112e3576112e3600080fd5b6000610e3884846112c3565b602e81526000602082017f45524331393637557067726164653a206e657720696d706c656d656e7461746981526d6f6e206973206e6f74205555505360901b602082015291506110ce565b60208082528101610d97816112ef565b602981526000602082017f45524331393637557067726164653a20756e737570706f727465642070726f788152681a58589b195555525160ba1b602082015291506110ce565b60208082528101610d978161134a565b602b81526000602082017f496e697469616c697a61626c653a20636f6e7472616374206973206e6f74206981526a6e697469616c697a696e6760a81b602082015291506110ce565b60208082528101610d97816113a0565b602d81526000602082017f455243313936373a206e657720696d706c656d656e746174696f6e206973206e81526c1bdd08184818dbdb9d1c9858dd609a1b602082015291506110ce565b60208082528101610d97816113f8565b602681526000602082017f416464726573733a2064656c65676174652063616c6c20746f206e6f6e2d636f8152651b9d1c9858dd60d21b602082015291506110ce565b60208082528101610d9781611452565b60006114af825190565b6114bd818560208601610fff565b9290920192915050565b6000610db682846114a556fe46756e6374696f6e206d7573742062652063616c6c6564207468726f75676820360894a13ba1a3210667c828492db98dca3e2076cc3735a920a3ca505d382bbc416464726573733a206c6f772d6c6576656c2064656c65676174652063616c6c206661696c6564a26469706673582212207de6764bc4c210d902175f51ca3a45cc9348e32ce30b9b1c415764bd6eef9f2764736f6c63430008110033",
  "devdoc": {
    "kind": "dev",
    "methods": {
      "getAddress(bytes32)": {
        "params": {
          "id": "Address identifier"
        }
      },
      "initialize()": {
        "details": "Contract initializer function."
      },
      "owner()": {
        "details": "Returns the address of the current owner."
      },
      "proxiableUUID()": {
        "details": "Implementation of the ERC1822 {proxiableUUID} function. This returns the storage slot used by the implementation. It is used to validate the implementation's compatibility when performing an upgrade. IMPORTANT: A proxy pointing at a proxiable contract should not be considered proxiable itself, because this risks bricking a proxy that upgrades to it, by delegating to itself until out of gas. Thus it is critical that this function revert if invoked through a proxy. This is guaranteed by the `notDelegated` modifier."
      },
      "renounceOwnership()": {
        "details": "Leaves the contract without owner. It will not be possible to call `onlyOwner` functions anymore. Can only be called by the current owner. NOTE: Renouncing ownership will leave the contract without an owner, thereby removing any functionality that is only available to the owner."
      },
      "setAddress(bytes32,address)": {
        "details": "Only triggered by resolver owner",
        "params": {
          "id": "Address Identifier",
          "newAddress": "Contract implementation address"
        }
      },
      "setCollateralAddress(address)": {
        "details": "Only triggered by resolver owner",
        "params": {
          "newAddress": "StorageProviderCollateral smart contract address"
        }
      },
      "setLiquidStakingAddress(address)": {
        "details": "Only triggered by resolver owner",
        "params": {
          "newAddress": "LiquidStaking smart contract address"
        }
      },
      "setLiquidStakingControllerAddress(address)": {
        "details": "Only triggered by resolver owner",
        "params": {
          "newAddress": "LiquidStakingController smart contract address"
        }
      },
      "setRegistryAddress(address)": {
        "details": "Only triggered by resolver owner",
        "params": {
          "newAddress": "StorageProviderRegistry smart contract address"
        }
      },
      "setRewardCollectorAddress(address)": {
        "details": "Only triggered by resolver owner",
        "params": {
          "newAddress": "RewardCollector address"
        }
      },
      "transferOwnership(address)": {
        "details": "Transfers ownership of the contract to a new account (`newOwner`). Can only be called by the current owner."
      },
      "upgradeTo(address)": {
        "details": "Upgrade the implementation of the proxy to `newImplementation`. Calls {_authorizeUpgrade}. Emits an {Upgraded} event."
      },
      "upgradeToAndCall(address,bytes)": {
        "details": "Upgrade the implementation of the proxy to `newImplementation`, and subsequently execute the function call encoded in `data`. Calls {_authorizeUpgrade}. Emits an {Upgraded} event."
      }
    },
    "title": "Resolver contract used to resolve registered addresses in the protocol by their identifiers",
    "version": 1
  },
  "userdoc": {
    "events": {
      "AddressSet(bytes32,address,address)": {
        "notice": "Emitted when new address set"
      },
      "CollateralAddressUpdated(address)": {
        "notice": "Emitted when StorageProviderCollateral address updated"
      },
      "LiquidStakingAddressUpdated(address)": {
        "notice": "Emitted when LiquidStaking address updated"
      },
      "LiquidStakingControllerAddressUpdated(address)": {
        "notice": "Emitted when LiquidStaking address updated"
      },
      "RegistryAddressUpdated(address)": {
        "notice": "Emitted when StorageProviderRegistry address updated"
      },
      "RewardCollectorAddressUpdated(address)": {
        "notice": "Emitted when RewardCollector address updated"
      }
    },
    "kind": "user",
    "methods": {
      "getAddress(bytes32)": {
        "notice": "Returns an address of a contract by its identifier"
      },
      "getCollateral()": {
        "notice": "Returns an address of a Storage Provider Collateral contract"
      },
      "getImplementation()": {
        "notice": "Returns the implementation contract"
      },
      "getLiquidStaking()": {
        "notice": "Returns an address of a Liquid Staking contract"
      },
      "getLiquidStakingController()": {
        "notice": "Returns an address of a Liquid Staking Controller contract"
      },
      "getRegistry()": {
        "notice": "Returns an address of a Storage Provider Registry contract"
      },
      "getRewardCollector()": {
        "notice": "Returns an address of a Reward Collector contract"
      },
      "setAddress(bytes32,address)": {
        "notice": "Sets a `newAddress` for a contract by `id`"
      },
      "setCollateralAddress(address)": {
        "notice": "Update StorageProviderCollateral smart contract address"
      },
      "setLiquidStakingAddress(address)": {
        "notice": "Update LiquidStaking smart contract address"
      },
      "setLiquidStakingControllerAddress(address)": {
        "notice": "Update LiquidStakingController address"
      },
      "setRegistryAddress(address)": {
        "notice": "Update StorageProviderRegistry smart contract address"
      },
      "setRewardCollectorAddress(address)": {
        "notice": "Update Reward Collector contract address"
      },
      "version()": {
        "notice": "Returns the version of clFIL token contract"
      }
    },
    "version": 1
  },
  "storageLayout": {
    "storage": [
      {
        "astId": 16015,
        "contract": "contracts/Resolver.sol:Resolver",
        "label": "_initialized",
        "offset": 0,
        "slot": "0",
        "type": "t_uint8"
      },
      {
        "astId": 16018,
        "contract": "contracts/Resolver.sol:Resolver",
        "label": "_initializing",
        "offset": 1,
        "slot": "0",
        "type": "t_bool"
      },
      {
        "astId": 17743,
        "contract": "contracts/Resolver.sol:Resolver",
        "label": "__gap",
        "offset": 0,
        "slot": "1",
        "type": "t_array(t_uint256)50_storage"
      },
      {
        "astId": 15323,
        "contract": "contracts/Resolver.sol:Resolver",
        "label": "_owner",
        "offset": 0,
        "slot": "51",
        "type": "t_address"
      },
      {
        "astId": 15443,
        "contract": "contracts/Resolver.sol:Resolver",
        "label": "__gap",
        "offset": 0,
        "slot": "52",
        "type": "t_array(t_uint256)49_storage"
      },
      {
        "astId": 15997,
        "contract": "contracts/Resolver.sol:Resolver",
        "label": "__gap",
        "offset": 0,
        "slot": "101",
        "type": "t_array(t_uint256)50_storage"
      },
      {
        "astId": 16312,
        "contract": "contracts/Resolver.sol:Resolver",
        "label": "__gap",
        "offset": 0,
        "slot": "151",
        "type": "t_array(t_uint256)50_storage"
      },
      {
        "astId": 1105,
        "contract": "contracts/Resolver.sol:Resolver",
        "label": "_addresses",
        "offset": 0,
        "slot": "201",
        "type": "t_mapping(t_bytes32,t_address)"
      }
    ],
    "types": {
      "t_address": {
        "encoding": "inplace",
        "label": "address",
        "numberOfBytes": "20"
      },
      "t_array(t_uint256)49_storage": {
        "base": "t_uint256",
        "encoding": "inplace",
        "label": "uint256[49]",
        "numberOfBytes": "1568"
      },
      "t_array(t_uint256)50_storage": {
        "base": "t_uint256",
        "encoding": "inplace",
        "label": "uint256[50]",
        "numberOfBytes": "1600"
      },
      "t_bool": {
        "encoding": "inplace",
        "label": "bool",
        "numberOfBytes": "1"
      },
      "t_bytes32": {
        "encoding": "inplace",
        "label": "bytes32",
        "numberOfBytes": "32"
      },
      "t_mapping(t_bytes32,t_address)": {
        "encoding": "mapping",
        "key": "t_bytes32",
        "label": "mapping(bytes32 => address)",
        "numberOfBytes": "32",
        "value": "t_address"
      },
      "t_uint256": {
        "encoding": "inplace",
        "label": "uint256",
        "numberOfBytes": "32"
      },
      "t_uint8": {
        "encoding": "inplace",
        "label": "uint8",
        "numberOfBytes": "1"
      }
    }
  }
}