{
  "address": "0x53e53cD0fcB86c287f73BCF77076849fd2F8662c",
  "abi": [
    {
      "inputs": [
        {
          "internalType": "int256",
          "name": "errorCode",
          "type": "int256"
        }
      ],
      "name": "ActorError",
      "type": "error"
    },
    {
      "inputs": [],
      "name": "ActorNotFound",
      "type": "error"
    },
    {
      "inputs": [],
      "name": "BigNumConversion",
      "type": "error"
    },
    {
      "inputs": [],
      "name": "FailToCallActor",
      "type": "error"
    },
    {
      "inputs": [],
      "name": "InactivePool",
      "type": "error"
    },
    {
      "inputs": [],
      "name": "IncorrectWithdrawal",
      "type": "error"
    },
    {
      "inputs": [],
      "name": "InvalidAccess",
      "type": "error"
    },
    {
      "inputs": [
        {
          "internalType": "CommonTypes.FilActorId",
          "name": "actorId",
          "type": "uint64"
        }
      ],
      "name": "InvalidActorID",
      "type": "error"
    },
    {
      "inputs": [
        {
          "internalType": "uint64",
          "name": "",
          "type": "uint64"
        }
      ],
      "name": "InvalidCodec",
      "type": "error"
    },
    {
      "inputs": [],
      "name": "InvalidParams",
      "type": "error"
    },
    {
      "inputs": [],
      "name": "InvalidResponseLength",
      "type": "error"
    },
    {
      "inputs": [],
      "name": "NegativeValueNotAllowed",
      "type": "error"
    },
    {
      "inputs": [
        {
          "internalType": "uint256",
          "name": "balance",
          "type": "uint256"
        },
        {
          "internalType": "uint256",
          "name": "value",
          "type": "uint256"
        }
      ],
      "name": "NotEnoughBalance",
      "type": "error"
    },
    {
      "anonymous": false,
      "inputs": [
        {
          "indexed": false,
          "internalType": "address",
          "name": "previousAdmin",
          "type": "address"
        },
        {
          "indexed": false,
          "internalType": "address",
          "name": "newAdmin",
          "type": "address"
        }
      ],
      "name": "AdminChanged",
      "type": "event"
    },
    {
      "anonymous": false,
      "inputs": [
        {
          "indexed": true,
          "internalType": "address",
          "name": "beacon",
          "type": "address"
        }
      ],
      "name": "BeaconUpgraded",
      "type": "event"
    },
    {
      "anonymous": false,
      "inputs": [
        {
          "indexed": false,
          "internalType": "address",
          "name": "beneficiary",
          "type": "address"
        },
        {
          "indexed": false,
          "internalType": "uint64",
          "name": "beneficiaryActorId",
          "type": "uint64"
        },
        {
          "indexed": false,
          "internalType": "uint64",
          "name": "minerId",
          "type": "uint64"
        },
        {
          "indexed": false,
          "internalType": "uint256",
          "name": "quota",
          "type": "uint256"
        },
        {
          "indexed": false,
          "internalType": "int64",
          "name": "expiration",
          "type": "int64"
        }
      ],
      "name": "BeneficiaryAddressUpdated",
      "type": "event"
    },
    {
      "anonymous": false,
      "inputs": [
        {
          "indexed": false,
          "internalType": "uint8",
          "name": "version",
          "type": "uint8"
        }
      ],
      "name": "Initialized",
      "type": "event"
    },
    {
      "anonymous": false,
      "inputs": [
        {
          "indexed": true,
          "internalType": "bytes32",
          "name": "role",
          "type": "bytes32"
        },
        {
          "indexed": true,
          "internalType": "bytes32",
          "name": "previousAdminRole",
          "type": "bytes32"
        },
        {
          "indexed": true,
          "internalType": "bytes32",
          "name": "newAdminRole",
          "type": "bytes32"
        }
      ],
      "name": "RoleAdminChanged",
      "type": "event"
    },
    {
      "anonymous": false,
      "inputs": [
        {
          "indexed": true,
          "internalType": "bytes32",
          "name": "role",
          "type": "bytes32"
        },
        {
          "indexed": true,
          "internalType": "address",
          "name": "account",
          "type": "address"
        },
        {
          "indexed": true,
          "internalType": "address",
          "name": "sender",
          "type": "address"
        }
      ],
      "name": "RoleGranted",
      "type": "event"
    },
    {
      "anonymous": false,
      "inputs": [
        {
          "indexed": true,
          "internalType": "bytes32",
          "name": "role",
          "type": "bytes32"
        },
        {
          "indexed": true,
          "internalType": "address",
          "name": "account",
          "type": "address"
        },
        {
          "indexed": true,
          "internalType": "address",
          "name": "sender",
          "type": "address"
        }
      ],
      "name": "RoleRevoked",
      "type": "event"
    },
    {
      "anonymous": false,
      "inputs": [
        {
          "indexed": true,
          "internalType": "address",
          "name": "implementation",
          "type": "address"
        }
      ],
      "name": "Upgraded",
      "type": "event"
    },
    {
      "anonymous": false,
      "inputs": [
        {
          "indexed": false,
          "internalType": "uint64",
          "name": "ownerId",
          "type": "uint64"
        },
        {
          "indexed": false,
          "internalType": "uint64",
          "name": "minerId",
          "type": "uint64"
        },
        {
          "indexed": false,
          "internalType": "uint256",
          "name": "amount",
          "type": "uint256"
        }
      ],
      "name": "WithdrawPledge",
      "type": "event"
    },
    {
      "anonymous": false,
      "inputs": [
        {
          "indexed": false,
          "internalType": "uint64",
          "name": "ownerId",
          "type": "uint64"
        },
        {
          "indexed": false,
          "internalType": "uint64",
          "name": "minerId",
          "type": "uint64"
        },
        {
          "indexed": false,
          "internalType": "uint256",
          "name": "spShare",
          "type": "uint256"
        },
        {
          "indexed": false,
          "internalType": "uint256",
          "name": "stakingProfit",
          "type": "uint256"
        },
        {
          "indexed": false,
          "internalType": "uint256",
          "name": "protocolRevenue",
          "type": "uint256"
        }
      ],
      "name": "WithdrawRewards",
      "type": "event"
    },
    {
      "stateMutability": "payable",
      "type": "fallback"
    },
    {
      "inputs": [],
      "name": "DEFAULT_ADMIN_ROLE",
      "outputs": [
        {
          "internalType": "bytes32",
          "name": "",
          "type": "bytes32"
        }
      ],
      "stateMutability": "view",
      "type": "function"
    },
    {
      "inputs": [],
      "name": "WFIL",
      "outputs": [
        {
          "internalType": "contract IWFIL",
          "name": "",
          "type": "address"
        }
      ],
      "stateMutability": "view",
      "type": "function"
    },
    {
      "inputs": [
        {
          "internalType": "uint64",
          "name": "minerId",
          "type": "uint64"
        },
        {
          "internalType": "uint64",
          "name": "beneficiaryActorId",
          "type": "uint64"
        },
        {
          "internalType": "uint256",
          "name": "quota",
          "type": "uint256"
        },
        {
          "internalType": "int64",
          "name": "expiration",
          "type": "int64"
        }
      ],
      "name": "forwardChangeBeneficiary",
      "outputs": [],
      "stateMutability": "nonpayable",
      "type": "function"
    },
    {
      "inputs": [],
      "name": "getImplementation",
      "outputs": [
        {
          "internalType": "address",
          "name": "",
          "type": "address"
        }
      ],
      "stateMutability": "view",
      "type": "function"
    },
    {
      "inputs": [
        {
          "internalType": "bytes32",
          "name": "role",
          "type": "bytes32"
        }
      ],
      "name": "getRoleAdmin",
      "outputs": [
        {
          "internalType": "bytes32",
          "name": "",
          "type": "bytes32"
        }
      ],
      "stateMutability": "view",
      "type": "function"
    },
    {
      "inputs": [
        {
          "internalType": "bytes32",
          "name": "role",
          "type": "bytes32"
        },
        {
          "internalType": "address",
          "name": "account",
          "type": "address"
        }
      ],
      "name": "grantRole",
      "outputs": [],
      "stateMutability": "nonpayable",
      "type": "function"
    },
    {
      "inputs": [
        {
          "internalType": "bytes32",
          "name": "role",
          "type": "bytes32"
        },
        {
          "internalType": "address",
          "name": "account",
          "type": "address"
        }
      ],
      "name": "hasRole",
      "outputs": [
        {
          "internalType": "bool",
          "name": "",
          "type": "bool"
        }
      ],
      "stateMutability": "view",
      "type": "function"
    },
    {
      "inputs": [
        {
          "internalType": "address",
          "name": "_wFIL",
          "type": "address"
        },
        {
          "internalType": "address",
          "name": "_resolver",
          "type": "address"
        }
      ],
      "name": "initialize",
      "outputs": [],
      "stateMutability": "nonpayable",
      "type": "function"
    },
    {
      "inputs": [],
      "name": "proxiableUUID",
      "outputs": [
        {
          "internalType": "bytes32",
          "name": "",
          "type": "bytes32"
        }
      ],
      "stateMutability": "view",
      "type": "function"
    },
    {
      "inputs": [
        {
          "internalType": "bytes32",
          "name": "role",
          "type": "bytes32"
        },
        {
          "internalType": "address",
          "name": "account",
          "type": "address"
        }
      ],
      "name": "renounceRole",
      "outputs": [],
      "stateMutability": "nonpayable",
      "type": "function"
    },
    {
      "inputs": [
        {
          "internalType": "bytes32",
          "name": "role",
          "type": "bytes32"
        },
        {
          "internalType": "address",
          "name": "account",
          "type": "address"
        }
      ],
      "name": "revokeRole",
      "outputs": [],
      "stateMutability": "nonpayable",
      "type": "function"
    },
    {
      "inputs": [
        {
          "internalType": "bytes4",
          "name": "interfaceId",
          "type": "bytes4"
        }
      ],
      "name": "supportsInterface",
      "outputs": [
        {
          "internalType": "bool",
          "name": "",
          "type": "bool"
        }
      ],
      "stateMutability": "view",
      "type": "function"
    },
    {
      "inputs": [
        {
          "internalType": "address",
          "name": "newImplementation",
          "type": "address"
        }
      ],
      "name": "upgradeTo",
      "outputs": [],
      "stateMutability": "nonpayable",
      "type": "function"
    },
    {
      "inputs": [
        {
          "internalType": "address",
          "name": "newImplementation",
          "type": "address"
        },
        {
          "internalType": "bytes",
          "name": "data",
          "type": "bytes"
        }
      ],
      "name": "upgradeToAndCall",
      "outputs": [],
      "stateMutability": "payable",
      "type": "function"
    },
    {
      "inputs": [],
      "name": "version",
      "outputs": [
        {
          "internalType": "string",
          "name": "",
          "type": "string"
        }
      ],
      "stateMutability": "pure",
      "type": "function"
    },
    {
      "inputs": [
        {
          "internalType": "uint64",
          "name": "ownerId",
          "type": "uint64"
        },
        {
          "internalType": "uint256",
          "name": "amount",
          "type": "uint256"
        }
      ],
      "name": "withdrawPledge",
      "outputs": [],
      "stateMutability": "nonpayable",
      "type": "function"
    },
    {
      "inputs": [
        {
          "internalType": "uint64",
          "name": "ownerId",
          "type": "uint64"
        },
        {
          "internalType": "uint256",
          "name": "amount",
          "type": "uint256"
        }
      ],
      "name": "withdrawRewards",
      "outputs": [],
      "stateMutability": "nonpayable",
      "type": "function"
    },
    {
      "stateMutability": "payable",
      "type": "receive"
    }
  ],
  "numDeployments": 1,
  "solcInputHash": "8a46af32103d9a2df7f250379b9d8927",
  "bytecode": "0x60a06040523060805234801561001457600080fd5b506080516143ab61004c600039600081816103de0152818161041e0152818161061d0152818161065d01526106d501526143ab6000f3fe6080604052600436106100cf5760003560e01c806301ffc9a7146100d857806309448a861461010e578063248a9ca31461013c5780632f2ff15d1461016957806336568abe146101895780633659cfe6146101a9578063485cc955146101c95780634f1ef286146101e957806352d1902d146101fc57806354fd4d50146102115780637b0b736b1461024e57806391d148541461026e57806396762a4a1461028e578063a217fddf146102ae578063aaf10f42146102c3578063b740a5f3146102e5578063d547741f1461030557005b366100d657005b005b3480156100e457600080fd5b506100f86100f336600461323c565b610325565b6040516101059190613267565b60405180910390f35b34801561011a57600080fd5b5061012f5461012f906001600160a01b031681565b60405161010591906132b9565b34801561014857600080fd5b5061015c6101573660046132d8565b61035c565b60405161010591906132ff565b34801561017557600080fd5b506100d661018436600461332c565b610374565b34801561019557600080fd5b506100d66101a436600461332c565b610395565b3480156101b557600080fd5b506100d66101c4366004613369565b6103d4565b3480156101d557600080fd5b506100d66101e436600461338a565b6104b8565b6100d66101f73660046134b0565b610613565b34801561020857600080fd5b5061015c6106c8565b34801561021d57600080fd5b506102416060604051604080820190526002815261763160f01b6020820152919050565b604051610105919061355b565b34801561025a57600080fd5b506100d661026936600461359b565b610725565b34801561027a57600080fd5b506100f861028936600461332c565b610835565b34801561029a57600080fd5b506100d66102a93660046135ff565b610867565b3480156102ba57600080fd5b5061015c600081565b3480156102cf57600080fd5b506102d8610ffe565b604051610105919061363b565b3480156102f157600080fd5b506100d66103003660046135ff565b61100d565b34801561031157600080fd5b506100d661032036600461332c565b611442565b60006001600160e01b03198216637965db0b60e01b148061035657506301ffc9a760e01b6001600160e01b03198316145b92915050565b60008181526097602052604081206001015492915050565b61037d8261035c565b6103868161145e565b6103908383611468565b505050565b6001600160a01b03811633146103c65760405162461bcd60e51b81526004016103bd90613698565b60405180910390fd5b6103d082826114f4565b5050565b6001600160a01b037f000000000000000000000000000000000000000000000000000000000000000016300361041c5760405162461bcd60e51b81526004016103bd906136df565b7f00000000000000000000000000000000000000000000000000000000000000006001600160a01b031661044e61157e565b6001600160a01b0316146104745760405162461bcd60e51b81526004016103bd90613726565b61047d8161159a565b6104b5816000604051818152601f19601f83011681016020016040529080156104ad576020820181803683370190505b5060006115cf565b50565b600054610100900460ff16158080156104d85750600054600160ff909116105b806104f957506104e7306116b1565b1580156104f9575060005460ff166001145b6105155760405162461bcd60e51b81526004016103bd90613781565b6000805460ff191660011790558015610538576000805461ff0019166101001790555b6105406116c0565b6105486116e9565b6105506116c0565b61271061012d5561012f80546001600160a01b038086166001600160a01b03199283161790925561012e805492851692909116919091179055610594600033611718565b6105ac60008051602061435683398151915233610374565b6105c56000805160206143568339815191526000611722565b8015610390576000805461ff00191690557f7f26b83ff96e1f2b6a682f133852f6798a09c465da95921460cefb3847402498600160405161060691906137a5565b60405180910390a1505050565b6001600160a01b037f000000000000000000000000000000000000000000000000000000000000000016300361065b5760405162461bcd60e51b81526004016103bd906136df565b7f00000000000000000000000000000000000000000000000000000000000000006001600160a01b031661068d61157e565b6001600160a01b0316146106b35760405162461bcd60e51b81526004016103bd90613726565b6106bc8261159a565b6103d0828260016115cf565b6000306001600160a01b037f000000000000000000000000000000000000000000000000000000000000000016146107125760405162461bcd60e51b81526004016103bd90613808565b5060008051602061430f83398151915290565b61012e546001600160a01b0316635ab1bd536040518163ffffffff1660e01b8152600401602060405180830381865afa158015610766573d6000803e3d6000fd5b50505050604051601f3d908101601f191682016040526107899190810190613827565b6001600160a01b0316336001600160a01b0316146107ba57604051633006171960e21b815260040160405180910390fd5b6107c2613186565b6107cb84611778565b81526107d6836117d0565b6020820152600782900b60408201526107ef8582611809565b7f77e95dc9673650bfaa97f9321052a349407217a72c147dbdd21cd72665667f223085878686604051610826959493929190613861565b60405180910390a15050505050565b60008281526097602052604081206001600160a01b0383166000908152602091909152604090205460ff169392505050565b61086f611854565b61088760008051602061435683398151915233610835565b6108a457604051633006171960e21b815260040160405180910390fd5b6109076040518061014001604052806000815260200160006001600160a01b031681526020016000815260200160001515815260200160001515815260200160008152602001600081526020016000815260200160008152602001600081525090565b61012e546000906001600160a01b0316635ab1bd536040518163ffffffff1660e01b8152600401602060405180830381865afa15801561094b573d6000803e3d6000fd5b50505050604051601f3d908101601f1916820160405261096e9190810190613827565b9050600080826001600160a01b031663b0298c31876040518263ffffffff1660e01b815260040161099f91906138a3565b608060405180830381865afa1580156109bc573d6000803e3d6000fd5b50505050604051601f3d908101601f191682016040526109df91908101906138e6565b50925092505060006109f9826109f4886117d0565b61187d565b9050610a04816118bc565b15156060870190815260408701919091525115610a3457604051631adafa3960e11b815260040160405180910390fd5b85856040015114610a585760405163b4b1515760e01b815260040160405180910390fd5b61012e546000906001600160a01b0316634e1060fa6040518163ffffffff1660e01b8152600401602060405180830381865afa158015610a9c573d6000803e3d6000fd5b50505050604051601f3d908101601f19168201604052610abf9190810190613827565b905061012d54816001600160a01b0316637e0612528a876040518363ffffffff1660e01b8152600401610af392919061393e565b602060405180830381865afa158015610b10573d6000803e3d6000fd5b50505050604051601f3d908101601f19168201604052610b339190810190613968565b8760400151610b42919061399f565b610b4c91906139d4565b60c087015261012d546001600160a01b03821663a0be06f96040518163ffffffff1660e01b8152600401602060405180830381865afa158015610b93573d6000803e3d6000fd5b50505050604051601f3d908101601f19168201604052610bb69190810190613968565b8760400151610bc5919061399f565b610bcf91906139d4565b60a08701526001600160a01b038516639e5c1399896040518263ffffffff1660e01b8152600401610c0091906138a3565b6040805180830381865afa158015610c1c573d6000803e3d6000fd5b50505050604051601f3d908101601f19168201604052610c3f91908101906139e8565b6001600160a01b03166020880152865260008651118015610c6e5750600060208701516001600160a01b031614155b1515608087019081525115610cc05761012d5486518760a001518860c001518960400151610c9c9190613a1b565b610ca69190613a1b565b610cb0919061399f565b610cba91906139d4565b60e08701525b8560e001518660a001518760c00151610cd99190613a2e565b610ce39190613a2e565b6101008701908152518660400151610cfb9190613a1b565b61012087015261012f546001600160a01b031663d0e30db06101008801516040518263ffffffff1660e01b81526004016000604051808303818588803b158015610d4457600080fd5b505af1158015610d58573d6000803e3d6000fd5b505061012f546001600160a01b0316925063a9059cbb915086905060a0890151896101000151610d889190613a1b565b6040518363ffffffff1660e01b8152600401610da5929190613a41565b6020604051808303816000875af1158015610dc4573d6000803e3d6000fd5b50505050604051601f3d908101601f19168201604052610de79190810190613a5c565b50610df78887610120015161193a565b846001600160a01b0316637f2d1a60898860c001516040518363ffffffff1660e01b8152600401610e29929190613a7d565b600060405180830381600087803b158015610e4357600080fd5b505af1158015610e57573d6000803e3d6000fd5b505061012e546001600160a01b03169150635c1548fb90506040518163ffffffff1660e01b8152600401602060405180830381865afa158015610e9e573d6000803e3d6000fd5b50505050604051601f3d908101601f19168201604052610ec19190810190613827565b6001600160a01b031663bea914e5896040518263ffffffff1660e01b8152600401610eec91906138a3565b600060405180830381600087803b158015610f0657600080fd5b505af1158015610f1a573d6000803e3d6000fd5b505050507f739b45d64077f15457e75656cc1fe5f43df37263b19c716adb2b58491b0e0b0688848861012001518960c001518a6101000151604051610f63959493929190613a8b565b60405180910390a1856080015115610fef57836001600160a01b031663413a885b8760e0015188602001516040518363ffffffff1660e01b8152600401610fab929190613acd565b6020604051808303816000875af1158015610fca573d6000803e3d6000fd5b50505050604051601f3d908101601f19168201604052610fed9190810190613968565b505b5050505050506103d060018055565b600061100861157e565b905090565b611015611854565b61102d60008051602061435683398151915233610835565b61104a57604051633006171960e21b815260040160405180910390fd5b8060000361106b57604051635435b28960e11b815260040160405180910390fd5b61012e546000906001600160a01b0316635ab1bd536040518163ffffffff1660e01b8152600401602060405180830381865afa1580156110af573d6000803e3d6000fd5b50505050604051601f3d908101601f191682016040526110d29190810190613827565b9050600080826001600160a01b031663b0298c31866040518263ffffffff1660e01b815260040161110391906138a3565b608060405180830381865afa158015611120573d6000803e3d6000fd5b50505050604051601f3d908101601f1916820160405261114391908101906138e6565b5092509250506000611158826109f4876117d0565b9050600080611166836118bc565b91509150801561118957604051631adafa3960e11b815260040160405180910390fd5b8682146111a95760405163b4b1515760e01b815260040160405180910390fd5b61012f546001600160a01b031663d0e30db0836040518263ffffffff1660e01b81526004016000604051808303818588803b1580156111e757600080fd5b505af11580156111fb573d6000803e3d6000fd5b505061012f546001600160a01b0316925063a9059cbb9150879050846040518363ffffffff1660e01b8152600401611234929190613a41565b6020604051808303816000875af1158015611253573d6000803e3d6000fd5b50505050604051601f3d908101601f191682016040526112769190810190613a5c565b50856001600160a01b031663261d831589896040518363ffffffff1660e01b81526004016112a5929190613a7d565b600060405180830381600087803b1580156112bf57600080fd5b505af11580156112d3573d6000803e3d6000fd5b50505050846001600160a01b031663d2a0460c886040518263ffffffff1660e01b815260040161130391906132ff565b600060405180830381600087803b15801561131d57600080fd5b505af1158015611331573d6000803e3d6000fd5b505061012e546001600160a01b03169150635c1548fb90506040518163ffffffff1660e01b8152600401602060405180830381865afa158015611378573d6000803e3d6000fd5b50505050604051601f3d908101601f1916820160405261139b9190810190613827565b6001600160a01b031663bea914e5896040518263ffffffff1660e01b81526004016113c691906138a3565b600060405180830381600087803b1580156113e057600080fd5b505af11580156113f4573d6000803e3d6000fd5b505050507f97289711cbab362dab51b0288e6ecb5dd4c6166a25b4968ee27422df85c0226688858960405161142b93929190613adb565b60405180910390a15050505050506103d060018055565b61144b8261035c565b6114548161145e565b61039083836114f4565b6104b5813361199e565b6114728282610835565b6103d05760008281526097602052600190604090206001600160a01b038316600090815260209190915260409020805460ff1916911515919091179055336001600160a01b0316816001600160a01b0316837f2f8788117e7eff1d82e926ec794901d17c78024a50270940304540a733656f0d60405160405180910390a45050565b6114fe8282610835565b156103d05760008281526097602052604081206001600160a01b038316600090815260209190915260409020805460ff1916911515919091179055336001600160a01b0316816001600160a01b0316837ff6391f5c32d9c69d2a47ea670b442974b53935d1edc7fd64eb21e047a839171b60405160405180910390a45050565b60008051602061430f833981519152546001600160a01b031690565b6115b260008051602061435683398151915233610835565b6104b557604051633006171960e21b815260040160405180910390fd5b7f4910fdfa16fed3260ed0e7147f7cc6da11a60208b5b9406d12a635614ffd91435460ff161561160257610390836119f9565b826001600160a01b03166352d1902d6040518163ffffffff1660e01b8152600401602060405180830381865afa92505050801561165c5750604051601f3d908101601f191682016040526116599190810190613968565b60015b6116785760405162461bcd60e51b81526004016103bd90613b4e565b60008051602061430f83398151915281146116a55760405162461bcd60e51b81526004016103bd90613ba4565b50610390838383611a4d565b6001600160a01b03163b151590565b600054610100900460ff166116e75760405162461bcd60e51b81526004016103bd90613bfc565b565b600054610100900460ff166117105760405162461bcd60e51b81526004016103bd90613bfc565b6116e7611a72565b6103d08282611468565b600061172d8361035c565b60008481526097602052909150829060409020600101558181847fbd79b86ffe0ab8e8776151514217cd7cacd52c909f66475c3af44e129f0b00ff60405160405180910390a4505050565b61178c604051602081016040526060815290565b600061179783611a99565b9050604051602081016040528082516040516020016117b69190613c41565b604051602081830303815290604052815250915050919050565b6117d86131bf565b60006117e5836000611ae6565b90506040516040808201905280825181526020018260200151151590529392505050565b600061181482611b20565b9050600061182c84635d9dfc2c605185600080611bd6565b905080511561184e57604051630e74990760e01b815260040160405180910390fd5b50505050565b6002600154036118765760405162461bcd60e51b81526004016103bd90613c8f565b6002600155565b6118856131bf565b600061189083611c20565b905060006118a8856387ed0a64605185600080611bd6565b90506118b381611c86565b95945050505050565b6000808260200151156118e2576040516341820e7560e11b815260040160405180910390fd5b60006118f16000196000611ae6565b9050600061190485518660200151611d0f565b90506119108183611d23565b1561192357506000946001945092505050565b805161192e90613ca9565b95600095509350505050565b600061197683828080604051818152601f19601f830116810160200160405290801561196d576020820181803683370190505b50866000611d4d565b905080511561039057604051630e74990760e01b815260040160405180910390fd5b60018055565b6119a88282610835565b6103d0576119b581611e29565b6119c0836020611e3b565b6040516020016119d1929190613cec565b60405160208183030381529060405260405162461bcd60e51b81526004016103bd919061355b565b611a02816116b1565b611a1e5760405162461bcd60e51b81526004016103bd90613d88565b60008051602061430f83398151915280546001600160a01b0319166001600160a01b0392909216919091179055565b611a5683611fa6565b600082511180611a635750805b156103905761184e8383611fe8565b600054610100900460ff166119985760405162461bcd60e51b81526004016103bd90613bfc565b611aa16131bf565b6001600160391b03600783901c1691607f166000839003611acd57611ac68282612090565b5050919050565b611ada8260808317612090565b5050611aa1565b919050565b611aee6131d7565b611b1983604051602001611b029190613d98565b6040516020818303038152906040528360006120f0565b9392505050565b6060600080611b3284602001516121a7565b9050611b3e60036122c5565b611b489083613a2e565b9150611b55845151612313565b611b5f9083613a2e565b9150611b6a81612313565b611b749083613a2e565b9150611b83846040015161232b565b611b8d9083613a2e565b91506000611b9a8361236e565b9050611ba781600361238e565b611bb4855151829061239a565b611bbe818361239a565b611bcd856040015182906123b3565b6118b3816123bd565b60606064876001600160401b03161015611c05578660405163a292827360e01b81526004016103bd9190613dc7565b611c13878787878787611d4d565b90505b9695505050505050565b6060600080611c2e846121a7565b9050611c3a60016122c5565b611c449083613a2e565b9150611c4f81612313565b611c599083613a2e565b91506000611c668361236e565b9050611c7381600161238e565b611bcd611c7f866121a7565b829061239a565b611c8e6131bf565b606060008084511115611cc557611ca584826123ea565b9092509050600082511115611cc557611cbd8261255c565b949350505050565b60405160408082019052806000604051818152601f19601f8301168101602001604052908015611cfc576020820181803683370190505b5081526000602090910152949350505050565b611d176131d7565b611b19838360006120f0565b600080611d32848460016126af565b905080600114611d43576000611cbd565b6001949350505050565b6060611d606005607f60991b01846127ef565b6000806005607f60991b01888686611d79576000611d7c565b60015b8a8a8e604051602001611d9496959493929190613dd5565b604051602081830303815290604052604051611db09190613e36565b600060405180830381855af49150503d8060008114611deb576040513d603f01601f191681016040523d815291503d6000602084013e611df0565b606091505b509150915081611e1357604051638a7db5bf60e01b815260040160405180910390fd5b611e1c81612837565b9998505050505050505050565b60606103566001600160a01b03831660145b60606000611e4a83600261399f565b611e55906002613a2e565b6001600160401b03811115611e6c57611e6c6133b6565b604051818152601f19601f8301168101602001604052908015611e96576020820181803683370190505b509050600360fc1b81600081518110611eb157611eb1613e42565b60200101906001600160f81b031916908160001a905350600f60fb1b81600181518110611ee057611ee0613e42565b60200101906001600160f81b031916908160001a9053506000611f0484600261399f565b611f0f906001613a2e565b90505b6001811115611f87576f181899199a1a9b1b9c1cb0b131b232b360811b85600f1660108110611f4357611f43613e42565b1a60f81b828281518110611f5957611f59613e42565b60200101906001600160f81b031916908160001a90535060049490941c93611f8081613e58565b9050611f12565b508315611b195760405162461bcd60e51b81526004016103bd90613ea1565b611faf816119f9565b806001600160a01b03167fbc7cd75a20ee27fd9adebab32041f755214dbc6bffa90cc0225b39da2e5c2d3b60405160405180910390a250565b6060611ff3836116b1565b61200f5760405162461bcd60e51b81526004016103bd90613ef4565b600080846001600160a01b03168460405161202a9190613e36565b600060405180830381855af49150503d8060008114612065576040513d603f01601f191681016040523d815291503d6000602084013e61206a565b606091505b50915091506118b3828260405160608101604052602780825261432f602083013961290e565b6120986131bf565b6000835151905060006120ac826001613a2e565b9050846020015182106120cd576120cd856120c883600261399f565b612927565b845160208382010185815381518311156120e5578282525b509495945050505050565b6120f86131d7565b602084018451600059601f8316156001811461212657601f8416602090810380860184528301019250612130565b6020820192508382525b508282848660046101c2fa506020815101810160405280515b60208114612177576000602083015114600181146121675750612177565b60208301925050601f1901612149565b81528452505050602081018390528115612191578161219b565b61219b8151612942565b60408201529392505050565b606060008251516121b9906001613a2e565b6001600160401b038111156121d0576121d06133b6565b604051818152601f19601f83011681016020016040529080156121fa576020820181803683370190505b50905082602001511515600114612212576000612218565b600160f81b5b8160008151811061222b5761222b613e42565b60200101906001600160f81b031916908160001a905350600160005b8451518110156122bc578451818151811061226457612264613e42565b60200101516001600160f81b03191683838151811061228557612285613e42565b60200101906001600160f81b031916908160001a905350816122a681613f04565b92505080806122b490613f04565b915050612247565b50909392505050565b6000601782116122d757506001919050565b60ff82116122e757506002919050565b61ffff82116122f857506003919050565b63ffffffff821161230b57506005919050565b506009919050565b6000815161232183516122c5565b6103569190613a2e565b600081600781900b821361234b57611b19816001600160401b03166122c5565b611b1961235a82600019613f17565b6001600160401b03166122c5565b50919050565b6123766131fa565b612381815183612980565b5060006020820152919050565b6103d0826004836129ea565b6123a782600283516129f1565b61039081835190612b0e565b6103d08282612b22565b60608160200151156123e15760405162461bcd60e51b81526004016103bd90613f7b565b81515192915050565b606060008060006123fb8686612b50565b96509092506001600160401b0316905060ff821660061480612420575060ff82166002145b61243c5760405162461bcd60e51b81526004016103bd90613fd6565b60051960ff831601612475576124528686612b50565b96509092506001600160401b0316905060ff821660021461247557612475613fe6565b60006124818287613a2e565b90506000826001600160401b0381111561249d5761249d6133b6565b604051818152601f19601f83011681016020016040529080156124c7576020820181803683370190505b5090506000875b83811015612540578981815181106124e8576124e8613e42565b60200101516001600160f81b03191683838151811061250957612509613e42565b60200101906001600160f81b031916908160001a9053508161252a81613f04565b925050808061253890613f04565b9150506124ce565b508161254c858a613a2e565b9650965050505050509250929050565b6125646131bf565b815160000361259c57604051806040016040528060405160408082019052600181526000602080830182905291835291015292915050565b6000600183516125ac9190613a1b565b6001600160401b038111156125c3576125c36133b6565b604051818152601f19601f83011681016020016040529080156125ed576020820181803683370190505b50905060008360008151811061260557612605613e42565b60200101516001600160f81b031916600160f81b03612622575060015b60015b84518110156126945784818151811061264057612640613e42565b60200101516001600160f81b0319168361265b600184613a1b565b8151811061266b5761266b613e42565b60200101906001600160f81b031916908160001a9053508061268c81613f04565b915050612625565b50604051604080820190529182521515602082015292915050565b60006001821561272857846020015180156126cb575083602001515b156126d95750600019612728565b84602001511580156126f15750836020015115156001145b15612700576001915050611b19565b84602001511515600114801561271857508360200151155b1561272857600019915050611b19565b83604001518560400151111561273f579050611b19565b8460400151846040015111156127635761275b81600019613ffc565b915050611b19565b600080808080895151905060208a510194506020895101935060005b818110156127de57808601519350808501519250828411156127aa5786975050505050505050611b19565b838311156127cc576127be87600019613ffc565b975050505050505050611b19565b6127d7602082613a2e565b905061277f565b5060009a9950505050505050505050565b4781811015612815578082604051634787a10360e11b81526004016103bd92919061402d565b823f15158061184e5760405163064d954b60e41b815260040160405180910390fd5b6060600080806020850185518101906128509190614093565b919450925090506001600160401b03821661288a5780511561288557604051630e74990760e01b815260040160405180910390fd5b6128ed565b6001600160401b038216605114806128ab57506001600160401b0382166071145b156128d257805160000361288557604051630e74990760e01b815260040160405180910390fd5b8160405163f1f6bced60e01b81526004016103bd91906138a3565b8215611cbd578260405163d4bb667160e01b81526004016103bd91906132ff565b6060831561291d575081611b19565b611b198383612ccd565b6000825190506129378383612980565b5061184e8382612b0e565b600061294d82612cfa565b1561295a57506000919050565b60006020830151905061296c81612d43565b915060086020845103028201915050919050565b6129886131bf565b6129936020836140fd565b156129bb576129a36020836140fd565b6129ae906020613a1b565b6129b89083613a2e565b91505b6020830182905260405180845260008152828101602001818110156129df57600080fd5b604052509192915050565b6103908383835b6017816001600160401b031611612a175761184e60e0600584901b168217845190612090565b60ff816001600160401b031611612a5857612a3f6018611fe0600585901b1617845190612090565b5061184e6001600160401b038216600185519190612f32565b61ffff816001600160401b031611612a9a57612a816019611fe0600585901b1617845190612090565b5061184e6001600160401b038216600285519190612f32565b63ffffffff816001600160401b031611612ade57612ac5601a611fe0600585901b1617845190612090565b5061184e6001600160401b038216600485519190612f32565b612af5601b611fe0600585901b1617845190612090565b5061184e6001600160401b038216600885519190612f32565b612b166131bf565b611b1983838451612fae565b60008160070b12612b39576103d0826000836129f1565b6103d0826001612b4b84600019613f17565b6129f1565b600080600080612b608686613075565b9050612b6d600186613a2e565b94506007600582901c16601f8216601c8110612b9b5760405162461bcd60e51b81526004016103bd90614153565b60188160ff161015612bb95790945060ff169250849150612cc69050565b8060ff16601803612c16576000612bd08989613075565b9050612bdd600189613a2e565b975060188160ff161015612c035760405162461bcd60e51b81526004016103bd90614186565b9195505060ff169250849150612cc69050565b8060ff16601903612c50576000612c2d89896130c3565b9050612c3a600289613a2e565b97509195505061ffff169250849150612cc69050565b8060ff16601a03612c8c576000612c678989613104565b9050612c74600489613a2e565b97509195505063ffffffff169250849150612cc69050565b8060ff16601b14612c9f57612c9f613fe6565b6000612cab8989613145565b9050612cb8600889613a2e565b975091955090935085925050505b9250925092565b600082511115612ce05781518083602001fd5b8060405162461bcd60e51b81526004016103bd919061355b565b60008060208301815b8451811015612d3857815192508215612d2157506000949350505050565b602091820191612d319082613a2e565b9050612d03565b506001949350505050565b6000811560018114612f2957600160801b600160401b600160201b620100006101006010600460026000198b019081041790810417908104179081041790810417908104179081041790810417600101926040517ff8f9cbfae6cc78fbefe7cdc3a1793dfcf4f0e8bbd8cec470b6a28a7a5a3e1efd81527ff5ecf1b3e9debc68e1d9cfabc5997135bfb7a7a3938b7b606b5b4b3f2f1f0ffe60208201527ff6e4ed9ff2d6b458eadcdf97bd91692de2d4da8fd2d0ac50c6ae9a827252361660408201527fc8c0b887b0a8a4489c948c7f847c6125746c645c544c444038302820181008ff60608201527ff7cae577eec2a03cf3bad76fb589591debb2dd67e0aa9834bea6925f6a4a2e0e60808201527fe39ed557db96902cd38ed14fad815115c786af479b7e8324736353433727170760a08201527fc976c13bb96e881cb166a933a55e490d9d56952b8d4e801485467d236242260660c08201527f753a6d1b65325d0c552a4d1345224105391a310b29122104190a11030902010060e082015261010081016040527e818283848586878898a8b8c8d8e8f929395969799a9b9d9e9faaeb6bedeeff600160f81b8082880204818160ff0385015104600160ff1b86116101000201965060001985018516612f1f576001870196505b5050505050612368565b50600092915050565b612f3a6131bf565b600084515190506000612f4d8285613a2e565b90508560200151811115612f6a57612f6a866120c883600261399f565b60006001612f7a866101006142a4565b612f849190613a1b565b905086518281018783198251161781528151841115612fa1578382525b5096979650505050505050565b612fb66131bf565b8251821115612fc457600080fd5b600084515190506000612fd78483613a2e565b90508560200151811115612ff457612ff4866120c883600261399f565b6000808751805185602083010193508085111561300f578482525b505050602086015b6020861061304f578051825261302e602083613a2e565b915061303b602082613a2e565b9050613048602087613a1b565b9550613017565b60001960208790036101000a018019825116818451161790925250959695505050505050565b6000613082826001613a2e565b835110156130a25760405162461bcd60e51b81526004016103bd906142de565b8282815181106130b4576130b4613e42565b602001015160f81c9392505050565b60006130d0826002613a2e565b835110156130f05760405162461bcd60e51b81526004016103bd906142de565b60008260200184015160f01c949350505050565b6000613111826004613a2e565b835110156131315760405162461bcd60e51b81526004016103bd906142de565b60008260200184015160e01c949350505050565b6000613152826008613a2e565b835110156131725760405162461bcd60e51b81526004016103bd906142de565b60008260200184015160c01c949350505050565b60405180606001604052806131a5604051602081016040526060815290565b81526020016131b26131bf565b8152600060209091015290565b60405160408082019052606081526000602082015290565b604051806060016040528060608152602001600015158152602001600081525090565b604051806040016040528061320d6131bf565b8152602001600081525090565b6001600160e01b031981165b81146104b557600080fd5b80356103568161321a565b60006020828403121561325157613251600080fd5b6000611cbd8484613231565b8015155b82525050565b60208101610356828461325d565b6001600160a01b031690565b600061035661329561329284613275565b90565b613275565b600061035682613281565b60006103568261329a565b613261816132a5565b6020810161035682846132b0565b80613226565b8035610356816132c7565b6000602082840312156132ed576132ed600080fd5b6000611cbd84846132cd565b80613261565b6020810161035682846132f9565b600061035682613275565b6132268161330d565b803561035681613318565b6000806040838503121561334257613342600080fd5b600061334e85856132cd565b925050602061335f85828601613321565b9150509250929050565b60006020828403121561337e5761337e600080fd5b6000611cbd8484613321565b600080604083850312156133a0576133a0600080fd5b600061334e8585613321565b601f01601f191690565b634e487b7160e01b600052604160045260246000fd5b6133d5826133ac565b81018181106001600160401b03821117156133f2576133f26133b6565b6040525050565b60006134086000604051905090565b9050611ae182826133cc565b60006001600160401b0382111561342d5761342d6133b6565b613436826133ac565b60200192915050565b82818337506000910152565b600061345e61345984613414565b6133f9565b90508281526020810184848401111561347957613479600080fd5b61348484828561343f565b509392505050565b600082601f8301126134a0576134a0600080fd5b8135611cbd84826020860161344b565b600080604083850312156134c6576134c6600080fd5b60006134d28585613321565b92505060208301356001600160401b038111156134f1576134f1600080fd5b61335f8582860161348c565b60005b83811015613518578082015183820152602001613500565b50506000910152565b6000613531826000815192915050565b8084526020840193506135488185602086016134fd565b613551816133ac565b9093019392505050565b60208082528101611b198184613521565b6001600160401b038116613226565b80356103568161356c565b6132268160070b90565b803561035681613586565b600080600080608085870312156135b4576135b4600080fd5b60006135c0878761357b565b94505060206135d18782880161357b565b93505060406135e2878288016132cd565b92505060606135f387828801613590565b91505092959194509250565b6000806040838503121561361557613615600080fd5b6000613621858561357b565b925050602061335f858286016132cd565b6132618161330d565b602081016103568284613632565b602f81526000602082017f416363657373436f6e74726f6c3a2063616e206f6e6c792072656e6f756e636581526e103937b632b9903337b91039b2b63360891b602082015291505b5060400190565b6020808252810161035681613649565b602c81526000602082016000805160206142ef83398151915281526b19195b1959d85d1958d85b1b60a21b60208201529150613691565b60208082528101610356816136a8565b602c81526000602082016000805160206142ef83398151915281526b6163746976652070726f787960a01b60208201529150613691565b60208082528101610356816136ef565b602e81526000602082017f496e697469616c697a61626c653a20636f6e747261637420697320616c72656181526d191e481a5b9a5d1a585b1a5e995960921b60208201529150613691565b6020808252810161035681613736565b600060ff8216610356565b61326181613791565b60208101610356828461379c565b603881526000602082017f555550535570677261646561626c653a206d757374206e6f742062652063616c8152771b1959081d1a1c9bdd59da0819195b1959d85d1958d85b1b60421b60208201529150613691565b60208082528101610356816137b3565b60008151905061035681613318565b60006020828403121561383c5761383c600080fd5b6000611cbd8484613818565b6001600160401b038116613261565b6132618160070b90565b60a0810161386f8288613632565b61387c6020830187613848565b6138896040830186613848565b61389660608301856132f9565b611c166080830184613857565b602081016103568284613848565b801515613226565b600081519050610356816138b1565b6000815190506103568161356c565b60008151905061035681613586565b600080600080608085870312156138ff576138ff600080fd5b600061390b87876138b9565b945050602061391c87828801613818565b935050604061392d878288016138c8565b92505060606135f3878288016138d7565b6040810161394c8285613848565b611b196020830184613632565b600081519050610356816132c7565b60006020828403121561397d5761397d600080fd5b6000611cbd8484613959565b634e487b7160e01b600052601160045260246000fd5b8181028082158382048514176139b7576139b7613989565b5092915050565b634e487b7160e01b600052601260045260246000fd5b6000826139e3576139e36139be565b500490565b600080604083850312156139fe576139fe600080fd5b6000613a0a8585613959565b925050602061335f85828601613818565b8181038181111561035657610356613989565b8082018082111561035657610356613989565b60408101613a4f8285613632565b611b1960208301846132f9565b600060208284031215613a7157613a71600080fd5b6000611cbd84846138b9565b60408101613a4f8285613848565b60a08101613a998288613848565b613aa66020830187613848565b613ab360408301866132f9565b613ac060608301856132f9565b611c1660808301846132f9565b6040810161394c82856132f9565b60608101613ae98286613848565b613af66020830185613848565b611cbd60408301846132f9565b602e81526000602082017f45524331393637557067726164653a206e657720696d706c656d656e7461746981526d6f6e206973206e6f74205555505360901b60208201529150613691565b6020808252810161035681613b03565b602981526000602082017f45524331393637557067726164653a20756e737570706f727465642070726f788152681a58589b195555525160ba1b60208201529150613691565b6020808252810161035681613b5e565b602b81526000602082017f496e697469616c697a61626c653a20636f6e7472616374206973206e6f74206981526a6e697469616c697a696e6760a81b60208201529150613691565b6020808252810161035681613bb4565b60008082525b5060010190565b6000613c29826000815192915050565b613c378185602086016134fd565b9290920192915050565b6000613c4c82613c0c565b9150611b198284613c19565b601f81526000602082017f5265656e7472616e637947756172643a207265656e7472616e742063616c6c00815291505b5060200190565b6020808252810161035681613c58565b6000610356825190565b6000613cb9826000815192915050565b60208301613cc681613c9f565b92506020821015611ac657613ce2600019836020036008021b90565b9092169392505050565b76020b1b1b2b9b9a1b7b73a3937b61d1030b1b1b7bab73a1604d1b81526017016000613d188285613c19565b7001034b99036b4b9b9b4b733903937b6329607d1b81526011019150611cbd8284613c19565b602d81526000602082017f455243313936373a206e657720696d706c656d656e746174696f6e206973206e81526c1bdd08184818dbdb9d1c9858dd609a1b60208201529150613691565b6020808252810161035681613d3e565b6000613da482846132f9565b50602001919050565b60006001600160401b038216610356565b61326181613dad565b602081016103568284613dbe565b60c08101613de38289613848565b613df060208301886132f9565b613dfd6040830187613848565b613e0a6060830186613848565b8181036080830152613e1c8185613521565b9050613e2b60a0830184613dbe565b979650505050505050565b6000611b198284613c19565b634e487b7160e01b600052603260045260246000fd5b600081613e6757613e67613989565b506000190190565b60208082527f537472696e67733a20686578206c656e67746820696e73756666696369656e7491019081526000613c88565b6020808252810161035681613e6f565b602681526000602082017f416464726573733a2064656c65676174652063616c6c20746f206e6f6e2d636f8152651b9d1c9858dd60d21b60208201529150613691565b6020808252810161035681613eb1565b60006000198203613c1257613c12613989565b6000613f238260070b90565b9150613f2f8360070b90565b92505081810360016001603f1b0319811260016001603f1b038213171561035657610356613989565b600c81526000602082016b24b73b30b634b21021a127a960a11b81529150613c88565b6020808252810161035681613f58565b602e81526000602082017f696e76616c6964206d616a20286578706563746564204d616a546167206f722081526d4d616a42797465537472696e672960901b60208201529150613691565b6020808252810161035681613f8b565b634e487b7160e01b600052600160045260246000fd5b8181028060008312600160ff1b8514161561401957614019613989565b82820584148315176139b7576139b7613989565b60408101613a4f82856132f9565b600061404961345984613414565b90508281526020810184848401111561406457614064600080fd5b6134848482856134fd565b600082601f83011261408357614083600080fd5b8151611cbd84826020860161403b565b6000806000606084860312156140ab576140ab600080fd5b60006140b78686613959565b93505060206140c8868287016138c8565b92505060408401516001600160401b038111156140e7576140e7600080fd5b6140f38682870161406f565b9150509250925092565b60008261410c5761410c6139be565b500690565b602581526000602082017f63616e6e6f742068616e646c6520686561646572732077697468206578747261815264203e20323760d81b60208201529150613691565b6020808252810161035681614111565b600c81526000602082016b34b73b30b634b21031b137b960a11b81529150613c88565b6020808252810161035681614163565b80825b60018511156141d5578086048111156141b4576141b4613989565b60018516156141c257908102905b80026141ce8560011c90565b9450614199565b94509492505050565b6000826141ed57506001611b19565b816141fa57506000611b19565b8160018114614210576002811461421a57614247565b6001915050611b19565b60ff84111561422b5761422b613989565b8360020a91508482111561424157614241613989565b50611b19565b5060208310610133831016604e8410600b841016171561427a575081810a8381111561427557614275613989565b611b19565b6142878484846001614196565b9250905081840481111561429d5761429d613989565b0292915050565b6000611b1960001984846141de565b6014815260006020820173736c6963696e67206f7574206f662072616e676560601b81529150613c88565b60208082528101610356816142b356fe46756e6374696f6e206d7573742062652063616c6c6564207468726f75676820360894a13ba1a3210667c828492db98dca3e2076cc3735a920a3ca505d382bbc416464726573733a206c6f772d6c6576656c2064656c65676174652063616c6c206661696c65642174eddbd3dd5d6d1f8771fcfe11e56dde5a1c380f4e4ee908e41262add3ef0ca2646970667358221220094677eafa17baff6ae282b4ecbde80bd9a1b252cd7e59d5a0f15d62ef993d2e64736f6c63430008110033",
  "devdoc": {
    "kind": "dev",
    "methods": {
      "forwardChangeBeneficiary(uint64,uint64,uint256,int64)": {
        "params": {
          "beneficiaryActorId": "Beneficiary address to be setup (Actor ID)",
          "expiration": "Expiration epoch",
          "minerId": "Miner actor ID",
          "quota": "Total beneficiary quota"
        }
      },
      "getRoleAdmin(bytes32)": {
        "details": "Returns the admin role that controls `role`. See {grantRole} and {revokeRole}. To change a role's admin, use {_setRoleAdmin}."
      },
      "grantRole(bytes32,address)": {
        "details": "Grants `role` to `account`. If `account` had not been already granted `role`, emits a {RoleGranted} event. Requirements: - the caller must have ``role``'s admin role. May emit a {RoleGranted} event."
      },
      "hasRole(bytes32,address)": {
        "details": "Returns `true` if `account` has been granted `role`."
      },
      "initialize(address,address)": {
        "details": "Contract initializer function.",
        "params": {
          "_resolver": "Resolver contract address"
        }
      },
      "proxiableUUID()": {
        "details": "Implementation of the ERC1822 {proxiableUUID} function. This returns the storage slot used by the implementation. It is used to validate the implementation's compatibility when performing an upgrade. IMPORTANT: A proxy pointing at a proxiable contract should not be considered proxiable itself, because this risks bricking a proxy that upgrades to it, by delegating to itself until out of gas. Thus it is critical that this function revert if invoked through a proxy. This is guaranteed by the `notDelegated` modifier."
      },
      "renounceRole(bytes32,address)": {
        "details": "Revokes `role` from the calling account. Roles are often managed via {grantRole} and {revokeRole}: this function's purpose is to provide a mechanism for accounts to lose their privileges if they are compromised (such as when a trusted device is misplaced). If the calling account had been revoked `role`, emits a {RoleRevoked} event. Requirements: - the caller must be `account`. May emit a {RoleRevoked} event."
      },
      "revokeRole(bytes32,address)": {
        "details": "Revokes `role` from `account`. If `account` had been granted `role`, emits a {RoleRevoked} event. Requirements: - the caller must have ``role``'s admin role. May emit a {RoleRevoked} event."
      },
      "supportsInterface(bytes4)": {
        "details": "See {IERC165-supportsInterface}."
      },
      "upgradeTo(address)": {
        "details": "Upgrade the implementation of the proxy to `newImplementation`. Calls {_authorizeUpgrade}. Emits an {Upgraded} event."
      },
      "upgradeToAndCall(address,bytes)": {
        "details": "Upgrade the implementation of the proxy to `newImplementation`, and subsequently execute the function call encoded in `data`. Calls {_authorizeUpgrade}. Emits an {Upgraded} event."
      },
      "withdrawPledge(uint64,uint256)": {
        "details": "Please note that pledge amount withdrawn couldn't exceed used allocation by SP",
        "params": {
          "amount": "Initial pledge amount",
          "ownerId": "Storage provider owner ID"
        }
      },
      "withdrawRewards(uint64,uint256)": {
        "params": {
          "amount": "Withdrawal amount",
          "ownerId": "Storage provider owner ID"
        }
      }
    },
    "title": "RewardCollector contract acts as beneficiary address for storage providers. It allows the protocol to collect fees and distribute them to the Liquid Staking pool",
    "version": 1
  },
  "userdoc": {
    "errors": {
      "ActorError(int256)": [
        {
          "notice": "the called actor returned an error as part of its expected behaviour"
        }
      ],
      "ActorNotFound()": [
        {
          "notice": "the actor is not found"
        }
      ],
      "FailToCallActor()": [
        {
          "notice": "an error happened trying to call the actor"
        }
      ],
      "InvalidActorID(uint64)": [
        {
          "notice": "the provided actor id is not valid"
        }
      ],
      "InvalidCodec(uint64)": [
        {
          "notice": "the codec received is not valid"
        }
      ],
      "InvalidResponseLength()": [
        {
          "notice": "the response received is not correct. In some case no response is expected and we received one, or a response was indeed expected and we received none."
        }
      ],
      "NotEnoughBalance(uint256,uint256)": [
        {
          "notice": "the smart contract has no enough balance to transfer"
        }
      ]
    },
    "events": {
      "BeneficiaryAddressUpdated(address,uint64,uint64,uint256,int64)": {
        "notice": "Emitted when beneficiary address is updated"
      },
      "WithdrawPledge(uint64,uint64,uint256)": {
        "notice": "Emitted when pledge has been withdrawn"
      },
      "WithdrawRewards(uint64,uint64,uint256,uint256,uint256)": {
        "notice": "Emitted when rewards has been withdrawn"
      }
    },
    "kind": "user",
    "methods": {
      "forwardChangeBeneficiary(uint64,uint64,uint256,int64)": {
        "notice": "Forwards the changeBeneficiary Miner actor call as Liquid Staking"
      },
      "getImplementation()": {
        "notice": "Returns the implementation contract"
      },
      "version()": {
        "notice": "Returns the version of clFIL token contract"
      },
      "withdrawPledge(uint64,uint256)": {
        "notice": "Withdraw initial pledge from Storage Provider's Miner Actor by `ownerId` This function is triggered when sector is not extended by miner actor and initial pledge unlocked"
      },
      "withdrawRewards(uint64,uint256)": {
        "notice": "Withdraw FIL assets from Storage Provider by `ownerId` and it's Miner actor and restake `restakeAmount` into the Storage Provider specified f4 address"
      }
    },
    "version": 1
  },
  "storageLayout": {
    "storage": [
      {
        "astId": 16015,
        "contract": "contracts/RewardCollector.sol:RewardCollector",
        "label": "_initialized",
        "offset": 0,
        "slot": "0",
        "type": "t_uint8"
      },
      {
        "astId": 16018,
        "contract": "contracts/RewardCollector.sol:RewardCollector",
        "label": "_initializing",
        "offset": 1,
        "slot": "0",
        "type": "t_bool"
      },
      {
        "astId": 16327,
        "contract": "contracts/RewardCollector.sol:RewardCollector",
        "label": "_status",
        "offset": 0,
        "slot": "1",
        "type": "t_uint256"
      },
      {
        "astId": 16385,
        "contract": "contracts/RewardCollector.sol:RewardCollector",
        "label": "__gap",
        "offset": 0,
        "slot": "2",
        "type": "t_array(t_uint256)49_storage"
      },
      {
        "astId": 17743,
        "contract": "contracts/RewardCollector.sol:RewardCollector",
        "label": "__gap",
        "offset": 0,
        "slot": "51",
        "type": "t_array(t_uint256)50_storage"
      },
      {
        "astId": 18022,
        "contract": "contracts/RewardCollector.sol:RewardCollector",
        "label": "__gap",
        "offset": 0,
        "slot": "101",
        "type": "t_array(t_uint256)50_storage"
      },
      {
        "astId": 14943,
        "contract": "contracts/RewardCollector.sol:RewardCollector",
        "label": "_roles",
        "offset": 0,
        "slot": "151",
        "type": "t_mapping(t_bytes32,t_struct(RoleData)14938_storage)"
      },
      {
        "astId": 15238,
        "contract": "contracts/RewardCollector.sol:RewardCollector",
        "label": "__gap",
        "offset": 0,
        "slot": "152",
        "type": "t_array(t_uint256)49_storage"
      },
      {
        "astId": 15997,
        "contract": "contracts/RewardCollector.sol:RewardCollector",
        "label": "__gap",
        "offset": 0,
        "slot": "201",
        "type": "t_array(t_uint256)50_storage"
      },
      {
        "astId": 16312,
        "contract": "contracts/RewardCollector.sol:RewardCollector",
        "label": "__gap",
        "offset": 0,
        "slot": "251",
        "type": "t_array(t_uint256)50_storage"
      },
      {
        "astId": 1467,
        "contract": "contracts/RewardCollector.sol:RewardCollector",
        "label": "BASIS_POINTS",
        "offset": 0,
        "slot": "301",
        "type": "t_uint256"
      },
      {
        "astId": 1470,
        "contract": "contracts/RewardCollector.sol:RewardCollector",
        "label": "resolver",
        "offset": 0,
        "slot": "302",
        "type": "t_contract(IResolverClient)5587"
      },
      {
        "astId": 1473,
        "contract": "contracts/RewardCollector.sol:RewardCollector",
        "label": "WFIL",
        "offset": 0,
        "slot": "303",
        "type": "t_contract(IWFIL)8001"
      }
    ],
    "types": {
      "t_address": {
        "encoding": "inplace",
        "label": "address",
        "numberOfBytes": "20"
      },
      "t_array(t_uint256)49_storage": {
        "base": "t_uint256",
        "encoding": "inplace",
        "label": "uint256[49]",
        "numberOfBytes": "1568"
      },
      "t_array(t_uint256)50_storage": {
        "base": "t_uint256",
        "encoding": "inplace",
        "label": "uint256[50]",
        "numberOfBytes": "1600"
      },
      "t_bool": {
        "encoding": "inplace",
        "label": "bool",
        "numberOfBytes": "1"
      },
      "t_bytes32": {
        "encoding": "inplace",
        "label": "bytes32",
        "numberOfBytes": "32"
      },
      "t_contract(IResolverClient)5587": {
        "encoding": "inplace",
        "label": "contract IResolverClient",
        "numberOfBytes": "20"
      },
      "t_contract(IWFIL)8001": {
        "encoding": "inplace",
        "label": "contract IWFIL",
        "numberOfBytes": "20"
      },
      "t_mapping(t_address,t_bool)": {
        "encoding": "mapping",
        "key": "t_address",
        "label": "mapping(address => bool)",
        "numberOfBytes": "32",
        "value": "t_bool"
      },
      "t_mapping(t_bytes32,t_struct(RoleData)14938_storage)": {
        "encoding": "mapping",
        "key": "t_bytes32",
        "label": "mapping(bytes32 => struct AccessControlUpgradeable.RoleData)",
        "numberOfBytes": "32",
        "value": "t_struct(RoleData)14938_storage"
      },
      "t_struct(RoleData)14938_storage": {
        "encoding": "inplace",
        "label": "struct AccessControlUpgradeable.RoleData",
        "members": [
          {
            "astId": 14935,
            "contract": "contracts/RewardCollector.sol:RewardCollector",
            "label": "members",
            "offset": 0,
            "slot": "0",
            "type": "t_mapping(t_address,t_bool)"
          },
          {
            "astId": 14937,
            "contract": "contracts/RewardCollector.sol:RewardCollector",
            "label": "adminRole",
            "offset": 0,
            "slot": "1",
            "type": "t_bytes32"
          }
        ],
        "numberOfBytes": "64"
      },
      "t_uint256": {
        "encoding": "inplace",
        "label": "uint256",
        "numberOfBytes": "32"
      },
      "t_uint8": {
        "encoding": "inplace",
        "label": "uint8",
        "numberOfBytes": "1"
      }
    }
  }
}