{
  "address": "0xe3C24e146b747Fb4B6763c13b386033D83D8e32E",
  "abi": [
    {
      "inputs": [],
      "name": "ActivePool",
      "type": "error"
    },
    {
      "inputs": [
        {
          "internalType": "int256",
          "name": "errorCode",
          "type": "int256"
        }
      ],
      "name": "ActorError",
      "type": "error"
    },
    {
      "inputs": [],
      "name": "ActorNotFound",
      "type": "error"
    },
    {
      "inputs": [],
      "name": "AllocationOverflow",
      "type": "error"
    },
    {
      "inputs": [],
      "name": "FailToCallActor",
      "type": "error"
    },
    {
      "inputs": [],
      "name": "FailToCallActor",
      "type": "error"
    },
    {
      "inputs": [],
      "name": "InactiveActor",
      "type": "error"
    },
    {
      "inputs": [],
      "name": "InactivePool",
      "type": "error"
    },
    {
      "inputs": [],
      "name": "InactiveSP",
      "type": "error"
    },
    {
      "inputs": [],
      "name": "InvalidAccess",
      "type": "error"
    },
    {
      "inputs": [
        {
          "internalType": "CommonTypes.FilActorId",
          "name": "actorId",
          "type": "uint64"
        }
      ],
      "name": "InvalidActorID",
      "type": "error"
    },
    {
      "inputs": [],
      "name": "InvalidAddress",
      "type": "error"
    },
    {
      "inputs": [],
      "name": "InvalidAllocation",
      "type": "error"
    },
    {
      "inputs": [
        {
          "internalType": "uint64",
          "name": "",
          "type": "uint64"
        }
      ],
      "name": "InvalidCodec",
      "type": "error"
    },
    {
      "inputs": [],
      "name": "InvalidDailyAllocation",
      "type": "error"
    },
    {
      "inputs": [],
      "name": "InvalidOwner",
      "type": "error"
    },
    {
      "inputs": [],
      "name": "InvalidParams",
      "type": "error"
    },
    {
      "inputs": [],
      "name": "InvalidRepayment",
      "type": "error"
    },
    {
      "inputs": [],
      "name": "InvalidResponseLength",
      "type": "error"
    },
    {
      "inputs": [
        {
          "internalType": "uint256",
          "name": "balance",
          "type": "uint256"
        },
        {
          "internalType": "uint256",
          "name": "value",
          "type": "uint256"
        }
      ],
      "name": "NotEnoughBalance",
      "type": "error"
    },
    {
      "inputs": [],
      "name": "OwnerProposed",
      "type": "error"
    },
    {
      "inputs": [],
      "name": "RegisteredSP",
      "type": "error"
    },
    {
      "anonymous": false,
      "inputs": [
        {
          "indexed": false,
          "internalType": "address",
          "name": "previousAdmin",
          "type": "address"
        },
        {
          "indexed": false,
          "internalType": "address",
          "name": "newAdmin",
          "type": "address"
        }
      ],
      "name": "AdminChanged",
      "type": "event"
    },
    {
      "anonymous": false,
      "inputs": [
        {
          "indexed": true,
          "internalType": "address",
          "name": "beacon",
          "type": "address"
        }
      ],
      "name": "BeaconUpgraded",
      "type": "event"
    },
    {
      "anonymous": false,
      "inputs": [
        {
          "indexed": false,
          "internalType": "address",
          "name": "collateral",
          "type": "address"
        }
      ],
      "name": "CollateralAddressUpdated",
      "type": "event"
    },
    {
      "anonymous": false,
      "inputs": [
        {
          "indexed": false,
          "internalType": "uint8",
          "name": "version",
          "type": "uint8"
        }
      ],
      "name": "Initialized",
      "type": "event"
    },
    {
      "anonymous": false,
      "inputs": [
        {
          "indexed": false,
          "internalType": "address",
          "name": "pool",
          "type": "address"
        }
      ],
      "name": "LiquidStakingPoolRegistered",
      "type": "event"
    },
    {
      "anonymous": false,
      "inputs": [
        {
          "indexed": true,
          "internalType": "bytes32",
          "name": "role",
          "type": "bytes32"
        },
        {
          "indexed": true,
          "internalType": "bytes32",
          "name": "previousAdminRole",
          "type": "bytes32"
        },
        {
          "indexed": true,
          "internalType": "bytes32",
          "name": "newAdminRole",
          "type": "bytes32"
        }
      ],
      "name": "RoleAdminChanged",
      "type": "event"
    },
    {
      "anonymous": false,
      "inputs": [
        {
          "indexed": true,
          "internalType": "bytes32",
          "name": "role",
          "type": "bytes32"
        },
        {
          "indexed": true,
          "internalType": "address",
          "name": "account",
          "type": "address"
        },
        {
          "indexed": true,
          "internalType": "address",
          "name": "sender",
          "type": "address"
        }
      ],
      "name": "RoleGranted",
      "type": "event"
    },
    {
      "anonymous": false,
      "inputs": [
        {
          "indexed": true,
          "internalType": "bytes32",
          "name": "role",
          "type": "bytes32"
        },
        {
          "indexed": true,
          "internalType": "address",
          "name": "account",
          "type": "address"
        },
        {
          "indexed": true,
          "internalType": "address",
          "name": "sender",
          "type": "address"
        }
      ],
      "name": "RoleRevoked",
      "type": "event"
    },
    {
      "anonymous": false,
      "inputs": [
        {
          "indexed": false,
          "internalType": "uint64",
          "name": "ownerId",
          "type": "uint64"
        },
        {
          "indexed": false,
          "internalType": "uint256",
          "name": "rewards",
          "type": "uint256"
        }
      ],
      "name": "StorageProviderAccruedRewards",
      "type": "event"
    },
    {
      "anonymous": false,
      "inputs": [
        {
          "indexed": false,
          "internalType": "uint64",
          "name": "ownerId",
          "type": "uint64"
        },
        {
          "indexed": false,
          "internalType": "uint256",
          "name": "allocationLimit",
          "type": "uint256"
        },
        {
          "indexed": false,
          "internalType": "uint256",
          "name": "dailyAllocation",
          "type": "uint256"
        }
      ],
      "name": "StorageProviderAllocationLimitRequest",
      "type": "event"
    },
    {
      "anonymous": false,
      "inputs": [
        {
          "indexed": false,
          "internalType": "uint64",
          "name": "ownerId",
          "type": "uint64"
        },
        {
          "indexed": false,
          "internalType": "uint256",
          "name": "allocationLimit",
          "type": "uint256"
        },
        {
          "indexed": false,
          "internalType": "uint256",
          "name": "dailyAllocation",
          "type": "uint256"
        },
        {
          "indexed": false,
          "internalType": "uint256",
          "name": "repayment",
          "type": "uint256"
        }
      ],
      "name": "StorageProviderAllocationLimitUpdate",
      "type": "event"
    },
    {
      "anonymous": false,
      "inputs": [
        {
          "indexed": false,
          "internalType": "uint64",
          "name": "ownerId",
          "type": "uint64"
        },
        {
          "indexed": false,
          "internalType": "uint256",
          "name": "usedAllocation",
          "type": "uint256"
        }
      ],
      "name": "StorageProviderAllocationUsed",
      "type": "event"
    },
    {
      "anonymous": false,
      "inputs": [
        {
          "indexed": false,
          "internalType": "uint64",
          "name": "ownerId",
          "type": "uint64"
        }
      ],
      "name": "StorageProviderBeneficiaryAddressAccepted",
      "type": "event"
    },
    {
      "anonymous": false,
      "inputs": [
        {
          "indexed": false,
          "internalType": "address",
          "name": "beneficiaryAddress",
          "type": "address"
        }
      ],
      "name": "StorageProviderBeneficiaryAddressUpdated",
      "type": "event"
    },
    {
      "anonymous": false,
      "inputs": [
        {
          "indexed": false,
          "internalType": "uint64",
          "name": "ownerId",
          "type": "uint64"
        }
      ],
      "name": "StorageProviderDeactivated",
      "type": "event"
    },
    {
      "anonymous": false,
      "inputs": [
        {
          "indexed": false,
          "internalType": "uint64",
          "name": "ownerId",
          "type": "uint64"
        },
        {
          "indexed": false,
          "internalType": "int64",
          "name": "lastEpoch",
          "type": "int64"
        }
      ],
      "name": "StorageProviderLastEpochUpdate",
      "type": "event"
    },
    {
      "anonymous": false,
      "inputs": [
        {
          "indexed": false,
          "internalType": "uint64",
          "name": "ownerId",
          "type": "uint64"
        },
        {
          "indexed": false,
          "internalType": "uint64",
          "name": "miner",
          "type": "uint64"
        }
      ],
      "name": "StorageProviderMinerAddressUpdate",
      "type": "event"
    },
    {
      "anonymous": false,
      "inputs": [
        {
          "indexed": false,
          "internalType": "uint64",
          "name": "ownerId",
          "type": "uint64"
        },
        {
          "indexed": false,
          "internalType": "uint256",
          "name": "restakingRatio",
          "type": "uint256"
        },
        {
          "indexed": false,
          "internalType": "address",
          "name": "restakingAddress",
          "type": "address"
        }
      ],
      "name": "StorageProviderMinerRestakingRatioUpdate",
      "type": "event"
    },
    {
      "anonymous": false,
      "inputs": [
        {
          "indexed": false,
          "internalType": "uint64",
          "name": "ownerId",
          "type": "uint64"
        },
        {
          "indexed": false,
          "internalType": "uint64",
          "name": "minerId",
          "type": "uint64"
        },
        {
          "indexed": false,
          "internalType": "uint256",
          "name": "allocationLimit",
          "type": "uint256"
        },
        {
          "indexed": false,
          "internalType": "uint256",
          "name": "dailyAllocation",
          "type": "uint256"
        },
        {
          "indexed": false,
          "internalType": "uint256",
          "name": "repayment",
          "type": "uint256"
        },
        {
          "indexed": false,
          "internalType": "int64",
          "name": "lastEpoch",
          "type": "int64"
        }
      ],
      "name": "StorageProviderOnboarded",
      "type": "event"
    },
    {
      "anonymous": false,
      "inputs": [
        {
          "indexed": false,
          "internalType": "bytes",
          "name": "owner",
          "type": "bytes"
        },
        {
          "indexed": false,
          "internalType": "uint64",
          "name": "ownerId",
          "type": "uint64"
        },
        {
          "indexed": false,
          "internalType": "uint64",
          "name": "minerId",
          "type": "uint64"
        },
        {
          "indexed": false,
          "internalType": "address",
          "name": "targetPool",
          "type": "address"
        },
        {
          "indexed": false,
          "internalType": "uint256",
          "name": "allocationLimit",
          "type": "uint256"
        },
        {
          "indexed": false,
          "internalType": "uint256",
          "name": "dailyAllocation",
          "type": "uint256"
        }
      ],
      "name": "StorageProviderRegistered",
      "type": "event"
    },
    {
      "anonymous": false,
      "inputs": [
        {
          "indexed": false,
          "internalType": "uint64",
          "name": "ownerId",
          "type": "uint64"
        },
        {
          "indexed": false,
          "internalType": "uint256",
          "name": "pledge",
          "type": "uint256"
        }
      ],
      "name": "StorageProviderRepaidPledge",
      "type": "event"
    },
    {
      "anonymous": false,
      "inputs": [
        {
          "indexed": false,
          "internalType": "uint256",
          "name": "maxAllocation",
          "type": "uint256"
        }
      ],
      "name": "UpdateMaxAllocation",
      "type": "event"
    },
    {
      "anonymous": false,
      "inputs": [
        {
          "indexed": true,
          "internalType": "address",
          "name": "implementation",
          "type": "address"
        }
      ],
      "name": "Upgraded",
      "type": "event"
    },
    {
      "inputs": [],
      "name": "DEFAULT_ADMIN_ROLE",
      "outputs": [
        {
          "internalType": "bytes32",
          "name": "",
          "type": "bytes32"
        }
      ],
      "stateMutability": "view",
      "type": "function"
    },
    {
      "inputs": [
        {
          "internalType": "uint64",
          "name": "_ownerId",
          "type": "uint64"
        }
      ],
      "name": "acceptBeneficiaryAddress",
      "outputs": [],
      "stateMutability": "nonpayable",
      "type": "function"
    },
    {
      "inputs": [
        {
          "internalType": "uint64",
          "name": "",
          "type": "uint64"
        }
      ],
      "name": "allocationRequests",
      "outputs": [
        {
          "internalType": "uint256",
          "name": "allocationLimit",
          "type": "uint256"
        },
        {
          "internalType": "uint256",
          "name": "dailyAllocation",
          "type": "uint256"
        }
      ],
      "stateMutability": "view",
      "type": "function"
    },
    {
      "inputs": [
        {
          "internalType": "uint64",
          "name": "",
          "type": "uint64"
        }
      ],
      "name": "allocations",
      "outputs": [
        {
          "internalType": "uint256",
          "name": "allocationLimit",
          "type": "uint256"
        },
        {
          "internalType": "uint256",
          "name": "repayment",
          "type": "uint256"
        },
        {
          "internalType": "uint256",
          "name": "usedAllocation",
          "type": "uint256"
        },
        {
          "internalType": "uint256",
          "name": "dailyAllocation",
          "type": "uint256"
        },
        {
          "internalType": "uint256",
          "name": "accruedRewards",
          "type": "uint256"
        },
        {
          "internalType": "uint256",
          "name": "repaidPledge",
          "type": "uint256"
        }
      ],
      "stateMutability": "view",
      "type": "function"
    },
    {
      "inputs": [
        {
          "internalType": "uint64",
          "name": "",
          "type": "uint64"
        }
      ],
      "name": "beneficiaryStatus",
      "outputs": [
        {
          "internalType": "bool",
          "name": "",
          "type": "bool"
        }
      ],
      "stateMutability": "view",
      "type": "function"
    },
    {
      "inputs": [
        {
          "internalType": "bytes32",
          "name": "",
          "type": "bytes32"
        }
      ],
      "name": "dailyUsages",
      "outputs": [
        {
          "internalType": "uint256",
          "name": "",
          "type": "uint256"
        }
      ],
      "stateMutability": "view",
      "type": "function"
    },
    {
      "inputs": [
        {
          "internalType": "uint64",
          "name": "_ownerId",
          "type": "uint64"
        }
      ],
      "name": "deactivateStorageProvider",
      "outputs": [],
      "stateMutability": "nonpayable",
      "type": "function"
    },
    {
      "inputs": [],
      "name": "getImplementation",
      "outputs": [
        {
          "internalType": "address",
          "name": "",
          "type": "address"
        }
      ],
      "stateMutability": "view",
      "type": "function"
    },
    {
      "inputs": [
        {
          "internalType": "uint64",
          "name": "_ownerId",
          "type": "uint64"
        }
      ],
      "name": "getRepayment",
      "outputs": [
        {
          "internalType": "uint256",
          "name": "",
          "type": "uint256"
        }
      ],
      "stateMutability": "view",
      "type": "function"
    },
    {
      "inputs": [
        {
          "internalType": "bytes32",
          "name": "role",
          "type": "bytes32"
        }
      ],
      "name": "getRoleAdmin",
      "outputs": [
        {
          "internalType": "bytes32",
          "name": "",
          "type": "bytes32"
        }
      ],
      "stateMutability": "view",
      "type": "function"
    },
    {
      "inputs": [
        {
          "internalType": "uint64",
          "name": "_ownerId",
          "type": "uint64"
        }
      ],
      "name": "getStorageProvider",
      "outputs": [
        {
          "internalType": "bool",
          "name": "",
          "type": "bool"
        },
        {
          "internalType": "address",
          "name": "",
          "type": "address"
        },
        {
          "internalType": "uint64",
          "name": "",
          "type": "uint64"
        },
        {
          "internalType": "int64",
          "name": "",
          "type": "int64"
        }
      ],
      "stateMutability": "view",
      "type": "function"
    },
    {
      "inputs": [
        {
          "internalType": "bytes32",
          "name": "role",
          "type": "bytes32"
        },
        {
          "internalType": "address",
          "name": "account",
          "type": "address"
        }
      ],
      "name": "grantRole",
      "outputs": [],
      "stateMutability": "nonpayable",
      "type": "function"
    },
    {
      "inputs": [
        {
          "internalType": "bytes32",
          "name": "role",
          "type": "bytes32"
        },
        {
          "internalType": "address",
          "name": "account",
          "type": "address"
        }
      ],
      "name": "hasRole",
      "outputs": [
        {
          "internalType": "bool",
          "name": "",
          "type": "bool"
        }
      ],
      "stateMutability": "view",
      "type": "function"
    },
    {
      "inputs": [
        {
          "internalType": "uint64",
          "name": "_ownerId",
          "type": "uint64"
        },
        {
          "internalType": "uint256",
          "name": "_repaidPledge",
          "type": "uint256"
        }
      ],
      "name": "increasePledgeRepayment",
      "outputs": [],
      "stateMutability": "nonpayable",
      "type": "function"
    },
    {
      "inputs": [
        {
          "internalType": "uint64",
          "name": "_ownerId",
          "type": "uint64"
        },
        {
          "internalType": "uint256",
          "name": "_accuredRewards",
          "type": "uint256"
        }
      ],
      "name": "increaseRewards",
      "outputs": [],
      "stateMutability": "nonpayable",
      "type": "function"
    },
    {
      "inputs": [
        {
          "internalType": "uint64",
          "name": "_ownerId",
          "type": "uint64"
        },
        {
          "internalType": "uint256",
          "name": "_allocated",
          "type": "uint256"
        },
        {
          "internalType": "uint256",
          "name": "_timestamp",
          "type": "uint256"
        }
      ],
      "name": "increaseUsedAllocation",
      "outputs": [],
      "stateMutability": "nonpayable",
      "type": "function"
    },
    {
      "inputs": [
        {
          "internalType": "uint256",
          "name": "_maxAllocation",
          "type": "uint256"
        },
        {
          "internalType": "address",
          "name": "_resolver",
          "type": "address"
        }
      ],
      "name": "initialize",
      "outputs": [],
      "stateMutability": "nonpayable",
      "type": "function"
    },
    {
      "inputs": [
        {
          "internalType": "address",
          "name": "_pool",
          "type": "address"
        }
      ],
      "name": "isActivePool",
      "outputs": [
        {
          "internalType": "bool",
          "name": "",
          "type": "bool"
        }
      ],
      "stateMutability": "view",
      "type": "function"
    },
    {
      "inputs": [
        {
          "internalType": "uint64",
          "name": "_ownerId",
          "type": "uint64"
        }
      ],
      "name": "isActiveProvider",
      "outputs": [
        {
          "internalType": "bool",
          "name": "status",
          "type": "bool"
        }
      ],
      "stateMutability": "view",
      "type": "function"
    },
    {
      "inputs": [],
      "name": "maxAllocation",
      "outputs": [
        {
          "internalType": "uint256",
          "name": "",
          "type": "uint256"
        }
      ],
      "stateMutability": "view",
      "type": "function"
    },
    {
      "inputs": [
        {
          "internalType": "uint64",
          "name": "_minerId",
          "type": "uint64"
        },
        {
          "internalType": "uint256",
          "name": "_allocationLimit",
          "type": "uint256"
        },
        {
          "internalType": "uint256",
          "name": "_dailyAllocation",
          "type": "uint256"
        },
        {
          "internalType": "uint256",
          "name": "_repayment",
          "type": "uint256"
        },
        {
          "internalType": "int64",
          "name": "_lastEpoch",
          "type": "int64"
        }
      ],
      "name": "onboardStorageProvider",
      "outputs": [],
      "stateMutability": "nonpayable",
      "type": "function"
    },
    {
      "inputs": [
        {
          "internalType": "address",
          "name": "",
          "type": "address"
        }
      ],
      "name": "pools",
      "outputs": [
        {
          "internalType": "bool",
          "name": "",
          "type": "bool"
        }
      ],
      "stateMutability": "view",
      "type": "function"
    },
    {
      "inputs": [],
      "name": "proxiableUUID",
      "outputs": [
        {
          "internalType": "bytes32",
          "name": "",
          "type": "bytes32"
        }
      ],
      "stateMutability": "view",
      "type": "function"
    },
    {
      "inputs": [
        {
          "internalType": "uint64",
          "name": "_minerId",
          "type": "uint64"
        },
        {
          "internalType": "uint256",
          "name": "_allocationLimit",
          "type": "uint256"
        },
        {
          "internalType": "uint256",
          "name": "_dailyAllocation",
          "type": "uint256"
        }
      ],
      "name": "register",
      "outputs": [],
      "stateMutability": "nonpayable",
      "type": "function"
    },
    {
      "inputs": [
        {
          "internalType": "address",
          "name": "_pool",
          "type": "address"
        }
      ],
      "name": "registerPool",
      "outputs": [],
      "stateMutability": "nonpayable",
      "type": "function"
    },
    {
      "inputs": [
        {
          "internalType": "bytes32",
          "name": "role",
          "type": "bytes32"
        },
        {
          "internalType": "address",
          "name": "account",
          "type": "address"
        }
      ],
      "name": "renounceRole",
      "outputs": [],
      "stateMutability": "nonpayable",
      "type": "function"
    },
    {
      "inputs": [
        {
          "internalType": "uint256",
          "name": "_allocationLimit",
          "type": "uint256"
        },
        {
          "internalType": "uint256",
          "name": "_dailyAllocation",
          "type": "uint256"
        }
      ],
      "name": "requestAllocationLimitUpdate",
      "outputs": [],
      "stateMutability": "nonpayable",
      "type": "function"
    },
    {
      "inputs": [
        {
          "internalType": "uint64",
          "name": "",
          "type": "uint64"
        }
      ],
      "name": "restakings",
      "outputs": [
        {
          "internalType": "uint256",
          "name": "restakingRatio",
          "type": "uint256"
        },
        {
          "internalType": "address",
          "name": "restakingAddress",
          "type": "address"
        }
      ],
      "stateMutability": "view",
      "type": "function"
    },
    {
      "inputs": [
        {
          "internalType": "bytes32",
          "name": "role",
          "type": "bytes32"
        },
        {
          "internalType": "address",
          "name": "account",
          "type": "address"
        }
      ],
      "name": "revokeRole",
      "outputs": [],
      "stateMutability": "nonpayable",
      "type": "function"
    },
    {
      "inputs": [
        {
          "internalType": "uint64",
          "name": "",
          "type": "uint64"
        }
      ],
      "name": "sectorSizes",
      "outputs": [
        {
          "internalType": "uint64",
          "name": "",
          "type": "uint64"
        }
      ],
      "stateMutability": "view",
      "type": "function"
    },
    {
      "inputs": [
        {
          "internalType": "uint64",
          "name": "_ownerId",
          "type": "uint64"
        },
        {
          "internalType": "uint64",
          "name": "_minerId",
          "type": "uint64"
        }
      ],
      "name": "setMinerAddress",
      "outputs": [],
      "stateMutability": "nonpayable",
      "type": "function"
    },
    {
      "inputs": [
        {
          "internalType": "uint256",
          "name": "_restakingRatio",
          "type": "uint256"
        },
        {
          "internalType": "address",
          "name": "_restakingAddress",
          "type": "address"
        }
      ],
      "name": "setRestaking",
      "outputs": [],
      "stateMutability": "nonpayable",
      "type": "function"
    },
    {
      "inputs": [
        {
          "internalType": "uint64",
          "name": "",
          "type": "uint64"
        }
      ],
      "name": "storageProviders",
      "outputs": [
        {
          "internalType": "bool",
          "name": "active",
          "type": "bool"
        },
        {
          "internalType": "bool",
          "name": "onboarded",
          "type": "bool"
        },
        {
          "internalType": "address",
          "name": "targetPool",
          "type": "address"
        },
        {
          "internalType": "uint64",
          "name": "minerId",
          "type": "uint64"
        },
        {
          "internalType": "int64",
          "name": "lastEpoch",
          "type": "int64"
        }
      ],
      "stateMutability": "view",
      "type": "function"
    },
    {
      "inputs": [
        {
          "internalType": "bytes4",
          "name": "interfaceId",
          "type": "bytes4"
        }
      ],
      "name": "supportsInterface",
      "outputs": [
        {
          "internalType": "bool",
          "name": "",
          "type": "bool"
        }
      ],
      "stateMutability": "view",
      "type": "function"
    },
    {
      "inputs": [
        {
          "internalType": "uint64",
          "name": "_ownerId",
          "type": "uint64"
        },
        {
          "internalType": "uint256",
          "name": "_allocationLimit",
          "type": "uint256"
        },
        {
          "internalType": "uint256",
          "name": "_dailyAllocation",
          "type": "uint256"
        },
        {
          "internalType": "uint256",
          "name": "_repaymentAmount",
          "type": "uint256"
        }
      ],
      "name": "updateAllocationLimit",
      "outputs": [],
      "stateMutability": "nonpayable",
      "type": "function"
    },
    {
      "inputs": [
        {
          "internalType": "uint256",
          "name": "allocation",
          "type": "uint256"
        }
      ],
      "name": "updateMaxAllocation",
      "outputs": [],
      "stateMutability": "nonpayable",
      "type": "function"
    },
    {
      "inputs": [
        {
          "internalType": "address",
          "name": "newImplementation",
          "type": "address"
        }
      ],
      "name": "upgradeTo",
      "outputs": [],
      "stateMutability": "nonpayable",
      "type": "function"
    },
    {
      "inputs": [
        {
          "internalType": "address",
          "name": "newImplementation",
          "type": "address"
        },
        {
          "internalType": "bytes",
          "name": "data",
          "type": "bytes"
        }
      ],
      "name": "upgradeToAndCall",
      "outputs": [],
      "stateMutability": "payable",
      "type": "function"
    },
    {
      "inputs": [],
      "name": "version",
      "outputs": [
        {
          "internalType": "string",
          "name": "",
          "type": "string"
        }
      ],
      "stateMutability": "pure",
      "type": "function"
    }
  ],
  "numDeployments": 4,
  "solcInputHash": "8a46af32103d9a2df7f250379b9d8927",
  "bytecode": "0x60a06040523060805234801561001457600080fd5b5060805161497a61004c60003960008181611475015281816114b5015281816117090152818161174901526118e6015261497a6000f3fe6080604052600436106101c05760003560e01c806301ffc9a7146101c55780630610f3ad146101fb5780630e2fc9e11461022c578063154caabb1461024e578063248a9ca31461028857806324da48a3146102b5578063261d8315146102d55780632d0c628a146102f55780632e54941e146103155780632f2ff15d1461037857806331ea602b1461039857806336568abe146103b85780633659cfe6146103d85780634978e4b7146103f85780634f1ef286146104185780634f85bf321461042b57806352d1902d1461044b57806354fd4d501461046057806367f47a941461049157806376246e33146104cb5780637aca42fe1461050f5780637f2d1a601461052f5780638097354f1461054f578063853d941d1461058957806391d14854146105cc5780639b3ba79f146105ec5780639e5c139914610603578063a217fddf1461064f578063a4063dbc14610664578063a93fbf8614610695578063aaf10f42146106b5578063abd90846146106d7578063b0298c31146106f7578063be7aebcd146107a4578063d2d3164b146107c4578063d547741f146107f2578063da35a26f14610812578063dd6460ce14610832578063fa2755c3146108ab575b600080fd5b3480156101d157600080fd5b506101e56101e0366004613735565b6108cb565b6040516101f29190613760565b60405180910390f35b34801561020757600080fd5b506101e561021636600461378e565b6101346020526000908152604090205460ff1681565b34801561023857600080fd5b5061024c6102473660046137d5565b610902565b005b34801561025a57600080fd5b506101e561026936600461378e565b6001600160401b0316600090815261012d602052604090205460ff1690565b34801561029457600080fd5b506102a86102a336600461384d565b610b02565b6040516101f29190613874565b3480156102c157600080fd5b5061024c6102d036600461384d565b610b17565b3480156102e157600080fd5b5061024c6102f0366004613882565b610bd1565b34801561030157600080fd5b5061024c6103103660046138bf565b610d0c565b34801561032157600080fd5b5061036661033036600461378e565b61012e60205260009081526040902080546001820154600283015460038401546004850154600590950154939492939192909186565b6040516101f2969594939291906138f2565b34801561038457600080fd5b5061024c610393366004613971565b610eda565b3480156103a457600080fd5b5061024c6103b33660046139a4565b610efb565b3480156103c457600080fd5b5061024c6103d3366004613971565b61142c565b3480156103e457600080fd5b5061024c6103f33660046139f4565b61146b565b34801561040457600080fd5b5061024c6104133660046139a4565b611533565b61024c610426366004613b1a565b6116ff565b34801561043757600080fd5b5061024c61044636600461378e565b6117b4565b34801561045757600080fd5b506102a86118d9565b34801561046c57600080fd5b506040805180820182526002815261763160f01b602082015290516101f29190613bbf565b34801561049d57600080fd5b506102a86104ac36600461378e565b6001600160401b0316600090815261012e602052604090206001015490565b3480156104d757600080fd5b506105026104e636600461378e565b610131602052600090815260409020546001600160401b031681565b6040516101f29190613bd9565b34801561051b57600080fd5b5061024c61052a366004613be7565b611936565b34801561053b57600080fd5b5061024c61054a366004613882565b611b41565b34801561055b57600080fd5b506101e561056a3660046139f4565b6001600160a01b03166000908152610133602052604090205460ff1690565b34801561059557600080fd5b506105be6105a436600461378e565b610130602052600090815260409020805460019091015482565b6040516101f2929190613c4b565b3480156105d857600080fd5b506101e56105e7366004613971565b611c4a565b3480156105f857600080fd5b506102a86101355481565b34801561060f57600080fd5b5061064161061e36600461378e565b61012f60205260009081526040902080546001909101546001600160a01b031682565b6040516101f2929190613c6f565b34801561065b57600080fd5b506102a8600081565b34801561067057600080fd5b506101e561067f3660046139f4565b6101336020526000908152604090205460ff1681565b3480156106a157600080fd5b5061024c6106b0366004613c8a565b611c75565b3480156106c157600080fd5b506106ca611e9c565b6040516101f29190613cac565b3480156106e357600080fd5b5061024c6106f23660046139f4565b611eab565b34801561070357600080fd5b5061079461071236600461378e565b6001600160401b03908116600090815261012d6020908152604091829020825160a081018452815460ff808216151580845261010083049091161515948301949094526201000081046001600160a01b0316948201859052600160b01b90049094166060850181905260019091015460070b6080909401849052909391929091565b6040516101f29493929190613cc4565b3480156107b057600080fd5b5061024c6107bf366004613971565b611f96565b3480156107d057600080fd5b506102a86107df36600461384d565b6101326020526000908152604090205481565b3480156107fe57600080fd5b5061024c61080d366004613971565b6120a1565b34801561081e57600080fd5b5061024c61082d366004613971565b6120bd565b34801561083e57600080fd5b5061089a61084d36600461378e565b61012d602052600090815260409020805460019091015460ff808316926101008104909116916201000082046001600160a01b031691600160b01b90046001600160401b03169060070b85565b6040516101f2959493929190613cf9565b3480156108b757600080fd5b5061024c6108c636600461378e565b6121f5565b60006001600160e01b03198216637965db0b60e01b14806108fc57506301ffc9a760e01b6001600160e01b03198316145b92915050565b61091a60008051602061492583398151915233611c4a565b61093757604051633006171960e21b815260040160405180910390fd5b61093f6124a7565b83158061094e57506101355484115b1561096c576040516305d7ba1960e11b815260040160405180910390fd5b82158061097857508383115b1561099657604051631c2eb60560e11b815260040160405180910390fd5b8382116109b65760405163166877a960e21b815260040160405180910390fd5b8460006109c2826124d0565b604080516020808201909252600090528082015151805191012090915060008051602061489e83398151915214610a0c5760405163e9917a0b60e01b815260040160405180910390fd5b6000610a1b826000015161250f565b6001600160401b038116600090815261012d6020818152604080842061012e8352932091905281549293509091610100900460ff1615610a6e5760405163d269946160e01b815260040160405180910390fd5b815461ff001916610100178255600182810180546001600160401b0389166001600160401b03199091161790558101879055888155600381018890556040517fa023ff258c2cf4bbb89ff7b29a652f01c9132b5ad8bca0f51767a4e972ec22a790610ae49085908d908d908d908d908d90613d3b565b60405180910390a15050505050610afb6001609755565b5050505050565b60009081526065602052604090206001015490565b610b2f60008051602061492583398151915233611c4a565b610b4c57604051633006171960e21b815260040160405180910390fd5b80600003610b6d576040516305d7ba1960e11b815260040160405180910390fd5b610135548103610b90576040516305d7ba1960e11b815260040160405180910390fd5b6101358190556040517f39db4c142f7363a2d6a0c4a06b5f53631194e27e1c9e1ee7996b7e0acc561ce390610bc6908390613874565b60405180910390a150565b61013660009054906101000a90046001600160a01b03166001600160a01b031663e1dda2a96040518163ffffffff1660e01b8152600401602060405180830381865afa158015610c25573d6000803e3d6000fd5b505050506040513d601f19601f82011682018060405250810190610c499190613d95565b6001600160a01b0316336001600160a01b031614610c7a57604051633006171960e21b815260040160405180910390fd5b6001600160401b038216600090815261012e602052604090206005810154610ca3908390613dcc565b6005820181905560028201541015610cce576040516305fcdf1560e31b815260040160405180910390fd5b7f1124506509059ae4a33548514242566cb78aeb3d1a720b18dbec366182bae5888383604051610cff929190613ddf565b60405180910390a1505050565b610d2460008051602061492583398151915233611c4a565b610d4157604051633006171960e21b815260040160405180910390fd5b6001600160401b038216600090815261012d6020526040902054829060ff16610d7d576040516363b397b960e01b815260040160405180910390fd5b6001600160401b03808416600090815261012d6020526040902054600160b01b900481169083168103610dc357604051635435b28960e11b815260040160405180910390fd5b826000610dcf826124d0565b604080516020808201909252600090528082015151805191012090915060008051602061489e83398151915214610e195760405163e9917a0b60e01b815260040160405180910390fd5b6000610e28826000015161250f565b9050866001600160401b0316816001600160401b031614610e5c576040516349e27cff60e01b815260040160405180910390fd5b6001600160401b03808816600090815261012d6020526040908190208054928916600160b01b02600160b01b600160f01b031990931692909217909155517f0ebad5580422e1bba5ee173f19698e506fd96a2d04253a0901c1db86f654c84990610ec99089908990613ded565b60405180910390a150505050505050565b610ee382610b02565b610eec816125c0565b610ef683836125ca565b505050565b610f036124a7565b811580610f1257506101355482115b15610f30576040516305d7ba1960e11b815260040160405180910390fd5b801580610f3c57508181115b15610f5a57604051631c2eb60560e11b815260040160405180910390fd5b6040805160a081018252600080825260208201819052918101829052606081018290526080810191909152610f8e33612650565b6001600160a01b0316808252610fa39061268e565b6001600160401b03166040830152151560208201819052610fd65760405162f08f6760e71b815260040160405180910390fd5b836000610fe2826124d0565b604080516020808201909252600090528082015151805191012090915060008051602061489e8339815191521461102c5760405163e9917a0b60e01b815260040160405180910390fd5b80516110379061250f565b6001600160401b039081166060850181905260408501519091161461106f576040516349e27cff60e01b815260040160405180910390fd5b60608301516001600160401b0316600090815261012d6020526040902054610100900460ff16156110b35760405163d269946160e01b815260040160405180910390fd5b61013654604080516307706f5d60e11b815290516000926001600160a01b031691630ee0deba9160048083019260209291908290030181865afa1580156110fe573d6000803e3d6000fd5b505050506040513d601f19601f820116820180604052508101906111229190613d95565b9050600061012d600086606001516001600160401b03166001600160401b031681526020019081526020016000209050878160000160166101000a8154816001600160401b0302191690836001600160401b03160217905550818160000160026101000a8154816001600160a01b0302191690836001600160a01b03160217905550600061012e600087606001516001600160401b03166001600160401b0316815260200190815260200160002090508781600001819055508681600301819055506111ed856126ff565b6001600160401b039081166080880181905260608801519091166000908152610131602090815260409182902080546001600160401b031916909317909255610136548151635c1548fb60e01b815291516001600160a01b0390911692635c1548fb92600480820193918290030181865afa158015611270573d6000803e3d6000fd5b505050506040513d601f19601f820116820180604052508101906112949190613d95565b6001600160a01b031663335f1839876060015160006040518363ffffffff1660e01b81526004016112c6929190613e20565b600060405180830381600087803b1580156112e057600080fd5b505af11580156112f4573d6000803e3d6000fd5b5050505061013660009054906101000a90046001600160a01b03166001600160a01b0316634e1060fa6040518163ffffffff1660e01b8152600401602060405180830381865afa15801561134c573d6000803e3d6000fd5b505050506040513d601f19601f820116820180604052508101906113709190613d95565b6001600160a01b03166345d2252b87606001516000866040518463ffffffff1660e01b81526004016113a493929190613e3b565b600060405180830381600087803b1580156113be57600080fd5b505af11580156113d2573d6000803e3d6000fd5b505085515160608901516040517f9346111d414b53e51a9c5d64a17479d23c5c981f0ae8f5ef3d211a91011ef4ae945061141493508d9088908e908e90613e63565b60405180910390a1505050505050610ef66001609755565b6001600160a01b038116331461145d5760405162461bcd60e51b815260040161145490613eec565b60405180910390fd5b6114678282612731565b5050565b6001600160a01b037f00000000000000000000000000000000000000000000000000000000000000001630036114b35760405162461bcd60e51b815260040161145490613f33565b7f00000000000000000000000000000000000000000000000000000000000000006001600160a01b03166114e5612798565b6001600160a01b03161461150b5760405162461bcd60e51b815260040161145490613f7a565b611514816127b4565b60408051600080825260208201909252611530918391906127e9565b50565b61013660009054906101000a90046001600160a01b03166001600160a01b0316635c1548fb6040518163ffffffff1660e01b8152600401602060405180830381865afa158015611587573d6000803e3d6000fd5b505050506040513d601f19601f820116820180604052508101906115ab9190613d95565b6001600160a01b0316336001600160a01b0316146115dc57604051633006171960e21b815260040160405180910390fd5b60008060006115ea846128cb565b9250925092506000838383896040516020016116099493929190613fa7565b60408051601f1981840301815291815281516020928301206000818152610132909352908220549092509061163e8883613dcc565b6001600160401b038a16600090815261012e60205260409020600381015491925090821115611680576040516305fcdf1560e31b815260040160405180910390fd5b8881600201546116909190613dcc565b600282015560008481526101326020526040812080548b92906116b4908490613dcc565b90915550506040517f5fc112892cdeb5d0ea544d634fb55a2eb4ba066d9ad730b67f34791462ebf51b906116eb908c908c90613ddf565b60405180910390a150505050505050505050565b6001600160a01b037f00000000000000000000000000000000000000000000000000000000000000001630036117475760405162461bcd60e51b815260040161145490613f33565b7f00000000000000000000000000000000000000000000000000000000000000006001600160a01b0316611779612798565b6001600160a01b03161461179f5760405162461bcd60e51b815260040161145490613f7a565b6117a8826127b4565b611467828260016127e9565b6117cc60008051602061492583398151915233611c4a565b6117e957604051633006171960e21b815260040160405180910390fd5b6001600160401b038116600090815261012d6020526040902054819060ff16611825576040516363b397b960e01b815260040160405180910390fd5b6001600160401b038216600090815261012e602052604090206001810154600490910154146118675760405163166877a960e21b815260040160405180910390fd5b6001600160401b038216600090815261012d60209081526040808320805460ff199081169091556101349092529182902080549091169055517fec36a8776cbb637a0a427dc03df67a0283f596365d3d127696243e82d612c88f906118cd908490613bd9565b60405180910390a15050565b6000306001600160a01b037f000000000000000000000000000000000000000000000000000000000000000016146119235760405162461bcd60e51b815260040161145490614044565b506000805160206148de83398151915290565b61194e60008051602061492583398151915233611c4a565b61196b57604051633006171960e21b815260040160405180910390fd5b6001600160401b038416600090815261012d6020526040902054849060ff166119a7576040516363b397b960e01b815260040160405180910390fd5b6119af6124a7565b8315806119be57506101355484115b156119dc576040516305d7ba1960e11b815260040160405180910390fd5b8215806119e857508383115b15611a0657604051631c2eb60560e11b815260040160405180910390fd5b838211611a265760405163166877a960e21b815260040160405180910390fd5b6001600160401b03851660009081526101306020908152604091829020825180840190935280548084526001909101549183019190915215611aa75780518514611a83576040516305d7ba1960e11b815260040160405180910390fd5b83816020015114611aa757604051631c2eb60560e11b815260040160405180910390fd5b6001600160401b038616600090815261012e602090815260408083208881556003810188905560018082018890556101348452828520805460ff191690556101309093528184208481559092019290925590517f6eaa57f14bb4acd5ffc19285fec33d57c58d9fdf748cc9502219d2bded72f61190611b2d908990899089908990614054565b60405180910390a15050610afb6001609755565b61013660009054906101000a90046001600160a01b03166001600160a01b031663e1dda2a96040518163ffffffff1660e01b8152600401602060405180830381865afa158015611b95573d6000803e3d6000fd5b505050506040513d601f19601f82011682018060405250810190611bb99190613d95565b6001600160a01b0316336001600160a01b031614611bea57604051633006171960e21b815260040160405180910390fd5b6001600160401b038216600090815261012e602052604090206004810154611c13908390613dcc565b60048201556040517fd3adca66167eaebe0bf908f97055d75ea826041f45a2ef406a2f03e07a65f75890610cff9085908590613ddf565b60009182526065602090815260408084206001600160a01b0393909316845291905290205460ff1690565b811580611c8457506101355482115b15611ca2576040516305d7ba1960e11b815260040160405180910390fd5b801580611cae57508181115b15611ccc57604051631c2eb60560e11b815260040160405180910390fd5b6000611cd733612650565b9050600080611cee836001600160a01b031661268e565b9150915081611d0f5760405162f08f6760e71b815260040160405180910390fd5b6001600160401b03808216600090815261012d6020908152604091829020825160a081018452815460ff808216151580845261010083049091161515948301949094526001600160a01b036201000082041694820194909452600160b01b909304909316606083015260019092015460070b608082015290611da4576040516363b397b960e01b815260040160405180910390fd5b6001600160401b038216600090815261012e6020908152604091829020825160c081018452815480825260018301549382019390935260028201549381019390935260038101546060840152600481015460808401526005015460a083015287148015611e145750858160600151145b15611e3257604051635435b28960e11b815260040160405180910390fd5b6001600160401b03831660009081526101306020526040908190208881556001810188905590517fd0198e2535194b2efbec973cb73349e6d1edd434a271491d44c2f620a997a3c390611e8a9086908b908b90614089565b60405180910390a15050505050505050565b6000611ea6612798565b905090565b611ec360008051602061492583398151915233611c4a565b611ee057604051633006171960e21b815260040160405180910390fd5b6001600160a01b038116611f075760405163e6c4247b60e01b815260040160405180910390fd5b6001600160a01b0381166000908152610133602052604090205460ff1615611f42576040516309aa982d60e01b815260040160405180910390fd5b6001600160a01b0381166000908152610133602052604090819020805460ff19166001179055517fbba7dd87057c9346bdb652d4c49948e76139a24eb1975262e98556f0455466ac90610bc6908390613cac565b6000611fa133612650565b9050600080611fb8836001600160a01b031661268e565b9150915081611fd95760405162f08f6760e71b815260040160405180910390fd5b612710851115611ffc57604051635435b28960e11b815260040160405180910390fd5b6001600160a01b0384166120235760405163e6c4247b60e01b815260040160405180910390fd5b6001600160401b038116600090815261012f6020526040908190208681556001810180546001600160a01b0319166001600160a01b03881617905590517ffec0818a0fae8fa0693f4ab6209e6ace854f156067b4069ebede3c8c0262251190612091908490899089906140b1565b60405180910390a1505050505050565b6120aa82610b02565b6120b3816125c0565b610ef68383612731565b600054610100900460ff16158080156120dd5750600054600160ff909116105b806120fe57506120ec306128f1565b1580156120fe575060005460ff166001145b61211a5760405162461bcd60e51b815260040161145490614117565b6000805460ff19166001179055801561213d576000805461ff0019166101001790555b612145612900565b61214d612929565b612155612900565b612160600033612958565b6121796000805160206149258339815191526000612962565b61219160008051602061492583398151915233610eda565b61013583905561013680546001600160a01b0319166001600160a01b0384161790558015610ef6576000805461ff00191690556040517f7f26b83ff96e1f2b6a682f133852f6798a09c465da95921460cefb384740249890610cff9060019061413b565b61220d60008051602061492583398151915233611c4a565b61222a57604051633006171960e21b815260040160405180910390fd5b6122326124a7565b6001600160401b038116600090815261012d602052604090208054610100900460ff16612272576040516363b397b960e01b815260040160405180910390fd5b6000806122fe61013660009054906101000a90046001600160a01b03166001600160a01b031663e1dda2a96040518163ffffffff1660e01b8152600401602060405180830381865afa1580156122cc573d6000803e3d6000fd5b505050506040513d601f19601f820116820180604052508101906122f09190613d95565b6001600160a01b031661268e565b915091508161231f5760405162f08f6760e71b815260040160405180910390fd5b61013660009054906101000a90046001600160a01b03166001600160a01b031663e1dda2a96040518163ffffffff1660e01b8152600401602060405180830381865afa158015612373573d6000803e3d6000fd5b505050506040513d601f19601f820116820180604052508101906123979190613d95565b83546001600160401b03868116600090815261012e602052604090819020600190810154908801549151637b0b736b60e01b81526001600160a01b039590951694637b0b736b946123fe94600160b01b909104169287929160079190910b90600401614149565b600060405180830381600087803b15801561241857600080fd5b505af115801561242c573d6000803e3d6000fd5b50508454600160ff19918216811787556001600160401b03881660009081526101346020526040908190208054909316909117909155517f5087366327b1aef4b5e946461225164c036e5dda2b25c458ea1bb444586b6a50925061249291508690613bd9565b60405180910390a15050506115306001609755565b6002609754036124c95760405162461bcd60e51b8152600401611454906141a8565b6002609755565b6124d86136eb565b60408051600080825260208201909252906124fc8463c33a1cc683858160016129b5565b9050612507816129ff565b949350505050565b60008060006001607f60991b016001600160a01b0316846000015160405161253791906141da565b600060405180830381855afa9150503d8060008114612572576040519150601f19603f3d011682016040523d82523d6000602084013e612577565b606091505b50915091508161259a57604051638a7db5bf60e01b815260040160405180910390fd5b6000818060200190518101906125b091906141f1565b95945050505050565b6001609755565b6115308133612a7f565b6125d48282611c4a565b6114675760008281526065602090815260408083206001600160a01b03851684529091529020805460ff1916600117905561260c3390565b6001600160a01b0316816001600160a01b0316837f2f8788117e7eff1d82e926ec794901d17c78024a50270940304540a733656f0d60405160405180910390a45050565b600080600061265e84612ad8565b915091508161266f57509192915050565b60008061267b83612b0a565b91509150816125b0575093949350505050565b60008061269a83612ad8565b909250905081156126aa57915091565b8260501b61040a60f01b178060005260206000601660006001607f60991b015afa92506000516001600160401b03169150508115806126ea57503d602014155b156126fa57506000928392509050565b915091565b6040805160008082526020820190925260006127268463e5f8de48600085600060016129b5565b905061250781612b6b565b61273b8282611c4a565b156114675760008281526065602090815260408083206001600160a01b0385168085529252808320805460ff1916905551339285917ff6391f5c32d9c69d2a47ea670b442974b53935d1edc7fd64eb21e047a839171b9190a45050565b6000805160206148de833981519152546001600160a01b031690565b6127cc60008051602061492583398151915233611c4a565b61153057604051633006171960e21b815260040160405180910390fd5b7f4910fdfa16fed3260ed0e7147f7cc6da11a60208b5b9406d12a635614ffd91435460ff161561281c57610ef683612b82565b826001600160a01b03166352d1902d6040518163ffffffff1660e01b8152600401602060405180830381865afa925050508015612876575060408051601f3d908101601f19168201909252612873918101906141f1565b60015b6128925760405162461bcd60e51b81526004016114549061425d565b6000805160206148de83398151915281146128bf5760405162461bcd60e51b8152600401611454906142b3565b50610ef6838383612bd6565b600080806128e46128df62015180866142d9565b612c01565b9196909550909350915050565b6001600160a01b03163b151590565b600054610100900460ff166129275760405162461bcd60e51b815260040161145490614335565b565b600054610100900460ff166129505760405162461bcd60e51b815260040161145490614335565b612927612d75565b61146782826125ca565b600061296d83610b02565b600084815260656020526040808220600101859055519192508391839186917fbd79b86ffe0ab8e8776151514217cd7cacd52c909f66475c3af44e129f0b00ff9190a4505050565b60606064876001600160401b031610156129e4578660405163a292827360e01b81526004016114549190614364565b6129f2878787878787612d9c565b90505b9695505050505050565b612a076136eb565b600080612a148482612e76565b9250905060028114612a2857612a28614372565b612a328483612ec2565b8451919091529150612a448483613030565b612a6257612a528483612ec2565b6020850151919091529150612a78565b6040805160008152602080820190925290840151525b5050919050565b612a898282611c4a565b61146757612a9681613061565b612aa1836020613073565b604051602001612ab2929190614388565b60408051601f198184030181529082905262461bcd60e51b825261145491600401613bbf565b600080600160401b600160a01b03831660ff60981b8103612b0457600192506001600160401b03841691505b50915091565b600080826000526016600a602060006002607f60991b015afa9150600051806001600160a01b031691508060a01c61ffff1661040a8114612b4e5760009350600092505b50508115806126ea57503d6016146126fa57506000928392509050565b60008080612b7984826131e5565b50949350505050565b612b8b816128f1565b612ba75760405162461bcd60e51b815260040161145490614424565b6000805160206148de83398151915280546001600160a01b0319166001600160a01b0392909216919091179055565b612bdf83613226565b600082511180612bec5750805b15610ef657612bfb8383613266565b50505050565b60008080838162253d8c612c188362010bd9614434565b612c229190614434565b9050600062023ab1612c35836004614457565b612c3f919061448f565b90506004612c508262023ab1614457565b612c5b906003614434565b612c65919061448f565b612c6f90836144bd565b9150600062164b09612c82846001614434565b612c8e90610fa0614457565b612c98919061448f565b90506004612ca8826105b5614457565b612cb2919061448f565b612cbc90846144bd565b612cc790601f614434565b9250600061098f612cd9856050614457565b612ce3919061448f565b905060006050612cf58361098f614457565b612cff919061448f565b612d0990866144bd565b9050612d16600b8361448f565b9450612d2385600c614457565b612d2e836002614434565b612d3891906144bd565b91508483612d476031876144bd565b612d52906064614457565b612d5c9190614434565b612d669190614434565b9a919950975095505050505050565b600054610100900460ff166125b95760405162461bcd60e51b815260040161145490614335565b6060612daf6005607f60991b0184613310565b6000806005607f60991b01888686612dc8576000612dcb565b60015b8a8a8e604051602001612de3969594939291906144df565b60408051601f1981840301815290829052612dfd916141da565b600060405180830381855af49150503d8060008114612e38576040519150601f19603f3d011682016040523d82523d6000602084013e612e3d565b606091505b509150915081612e6057604051638a7db5bf60e01b815260040160405180910390fd5b612e6981613358565b9998505050505050505050565b600080600080612e868686613431565b96509092506001600160401b0316905060ff8216600414612eb95760405162461bcd60e51b815260040161145490614569565b95939450505050565b60606000806000612ed38686613431565b96509092506001600160401b0316905060ff821660061480612ef8575060ff82166002145b612f145760405162461bcd60e51b8152600401611454906145c4565b60051960ff831601612f4d57612f2a8686613431565b96509092506001600160401b0316905060ff8216600214612f4d57612f4d614372565b6000612f598287613dcc565b90506000826001600160401b03811115612f7557612f75613a1f565b6040519080825280601f01601f191660200182016040528015612f9f576020820181803683370190505b5090506000875b8381101561301457898181518110612fc057612fc06145d4565b602001015160f81c60f81b838381518110612fdd57612fdd6145d4565b60200101906001600160f81b031916908160001a90535081612ffe816145ea565b925050808061300c906145ea565b915050612fa6565b5081613020858a613dcc565b9650965050505050509250929050565b6000828281518110613044576130446145d4565b6020910101516001600160f81b031916607b60f91b149392505050565b60606108fc6001600160a01b03831660145b60606000613082836002614604565b61308d906002613dcc565b6001600160401b038111156130a4576130a4613a1f565b6040519080825280601f01601f1916602001820160405280156130ce576020820181803683370190505b509050600360fc1b816000815181106130e9576130e96145d4565b60200101906001600160f81b031916908160001a905350600f60fb1b81600181518110613118576131186145d4565b60200101906001600160f81b031916908160001a905350600061313c846002614604565b613147906001613dcc565b90505b60018111156131bf576f181899199a1a9b1b9c1cb0b131b232b360811b85600f166010811061317b5761317b6145d4565b1a60f81b828281518110613191576131916145d4565b60200101906001600160f81b031916908160001a90535060049490941c936131b88161461c565b905061314a565b5083156131de5760405162461bcd60e51b815260040161145490614665565b9392505050565b6000806000806131f58686613431565b96509092506001600160401b0316905060ff821615612eb95760405162461bcd60e51b8152600401611454906146b7565b61322f81612b82565b6040516001600160a01b038216907fbc7cd75a20ee27fd9adebab32041f755214dbc6bffa90cc0225b39da2e5c2d3b90600090a250565b6060613271836128f1565b61328d5760405162461bcd60e51b81526004016114549061470a565b600080846001600160a01b0316846040516132a891906141da565b600060405180830381855af49150503d80600081146132e3576040519150601f19603f3d011682016040523d82523d6000602084013e6132e8565b606091505b50915091506125b082826040518060600160405280602781526020016148fe602791396135ae565b4781811015613336578082604051634787a10360e11b8152600401611454929190613c4b565b823f151580612bfb5760405163064d954b60e41b815260040160405180910390fd5b6060600080600084806020019051810190613373919061477d565b919450925090506001600160401b0382166133ad578051156133a857604051630e74990760e01b815260040160405180910390fd5b613410565b6001600160401b038216605114806133ce57506001600160401b0382166071145b156133f55780516000036133a857604051630e74990760e01b815260040160405180910390fd5b8160405163f1f6bced60e01b81526004016114549190613bd9565b8215612507578260405163d4bb667160e01b81526004016114549190613874565b60008060008061344186866135c7565b905061344e600186613dcc565b94506007600582901c16601f8216601c811061347c5760405162461bcd60e51b81526004016114549061481f565b60188160ff16101561349a5790945060ff1692508491506135a79050565b8060ff166018036134f75760006134b189896135c7565b90506134be600189613dcc565b975060188160ff1610156134e45760405162461bcd60e51b815260040161145490614852565b9195505060ff1692508491506135a79050565b8060ff1660190361353157600061350e8989613616565b905061351b600289613dcc565b97509195505061ffff1692508491506135a79050565b8060ff16601a0361356d576000613548898961364f565b9050613555600489613dcc565b97509195505063ffffffff1692508491506135a79050565b8060ff16601b1461358057613580614372565b600061358c8989613688565b9050613599600889613dcc565b975091955090935085925050505b9250925092565b606083156135bd5750816131de565b6131de83836136c1565b60006135d4826001613dcc565b835110156135f45760405162461bcd60e51b81526004016114549061488d565b828281518110613606576136066145d4565b016020015160f81c905092915050565b6000613623826002613dcc565b835110156136435760405162461bcd60e51b81526004016114549061488d565b50016020015160f01c90565b600061365c826004613dcc565b8351101561367c5760405162461bcd60e51b81526004016114549061488d565b50016020015160e01c90565b6000613695826008613dcc565b835110156136b55760405162461bcd60e51b81526004016114549061488d565b50016020015160c01c90565b8151156136d15781518083602001fd5b8060405162461bcd60e51b81526004016114549190613bbf565b6040805160608082018352818301818152825282516020818101909452908152909182015290565b6001600160e01b031981165b811461153057600080fd5b80356108fc81613713565b60006020828403121561374a5761374a600080fd5b6000612507848461372a565b8015155b82525050565b602081016108fc8284613756565b6001600160401b031690565b61371f8161376e565b80356108fc8161377a565b6000602082840312156137a3576137a3600080fd5b60006125078484613783565b8061371f565b80356108fc816137af565b61371f8160070b90565b80356108fc816137c0565b600080600080600060a086880312156137f0576137f0600080fd5b60006137fc8888613783565b955050602061380d888289016137b5565b945050604061381e888289016137b5565b935050606061382f888289016137b5565b9250506080613840888289016137ca565b9150509295509295909350565b60006020828403121561386257613862600080fd5b600061250784846137b5565b8061375a565b602081016108fc828461386e565b6000806040838503121561389857613898600080fd5b60006138a48585613783565b92505060206138b5858286016137b5565b9150509250929050565b600080604083850312156138d5576138d5600080fd5b60006138e18585613783565b92505060206138b585828601613783565b60c08101613900828961386e565b61390d602083018861386e565b61391a604083018761386e565b613927606083018661386e565b613934608083018561386e565b61394160a083018461386e565b979650505050505050565b60006001600160a01b0382166108fc565b61371f8161394c565b80356108fc8161395d565b6000806040838503121561398757613987600080fd5b600061399385856137b5565b92505060206138b585828601613966565b6000806000606084860312156139bc576139bc600080fd5b60006139c88686613783565b93505060206139d9868287016137b5565b92505060406139ea868287016137b5565b9150509250925092565b600060208284031215613a0957613a09600080fd5b60006125078484613966565b601f01601f191690565b634e487b7160e01b600052604160045260246000fd5b613a3e82613a15565b81018181106001600160401b0382111715613a5b57613a5b613a1f565b6040525050565b6000613a6d60405190565b9050613a798282613a35565b919050565b60006001600160401b03821115613a9757613a97613a1f565b613aa082613a15565b60200192915050565b82818337506000910152565b6000613ac8613ac384613a7e565b613a62565b905082815260208101848484011115613ae357613ae3600080fd5b613aee848285613aa9565b509392505050565b600082601f830112613b0a57613b0a600080fd5b8135612507848260208601613ab5565b60008060408385031215613b3057613b30600080fd5b6000613b3c8585613966565b92505060208301356001600160401b03811115613b5b57613b5b600080fd5b6138b585828601613af6565b60005b83811015613b82578181015183820152602001613b6a565b50506000910152565b6000613b95825190565b808452602084019350613bac818560208601613b67565b613bb581613a15565b9093019392505050565b602080825281016131de8184613b8b565b61375a8161376e565b602081016108fc8284613bd0565b60008060008060808587031215613c0057613c00600080fd5b6000613c0c8787613783565b9450506020613c1d878288016137b5565b9350506040613c2e878288016137b5565b9250506060613c3f878288016137b5565b91505092959194509250565b60408101613c59828561386e565b6131de602083018461386e565b61375a8161394c565b60408101613c7d828561386e565b6131de6020830184613c66565b60008060408385031215613ca057613ca0600080fd5b60006138a485856137b5565b602081016108fc8284613c66565b61375a8160070b90565b60808101613cd28287613756565b613cdf6020830186613c66565b613cec6040830185613bd0565b6125b06060830184613cba565b60a08101613d078288613756565b613d146020830187613756565b613d216040830186613c66565b613d2e6060830185613bd0565b6129f56080830184613cba565b60c08101613d498289613bd0565b613d566020830188613bd0565b613d63604083018761386e565b613d70606083018661386e565b613d7d608083018561386e565b61394160a0830184613cba565b80516108fc8161395d565b600060208284031215613daa57613daa600080fd5b60006125078484613d8a565b634e487b7160e01b600052601160045260246000fd5b808201808211156108fc576108fc613db6565b60408101613c598285613bd0565b60408101613dfb8285613bd0565b6131de6020830184613bd0565b60006108fc613e148381565b90565b61375a81613e08565b60408101613e2e8285613bd0565b6131de6020830184613e17565b60608101613e498286613bd0565b613e566020830185613e17565b6125076040830184613c66565b60c08082528101613e748189613b8b565b9050613e836020830188613bd0565b613e906040830187613bd0565b6139276060830186613c66565b602f81526000602082017f416363657373436f6e74726f6c3a2063616e206f6e6c792072656e6f756e636581526e103937b632b9903337b91039b2b63360891b602082015291505b5060400190565b602080825281016108fc81613e9d565b602c81526000602082016000805160206148be83398151915281526b19195b1959d85d1958d85b1b60a21b60208201529150613ee5565b602080825281016108fc81613efc565b602c81526000602082016000805160206148be83398151915281526b6163746976652070726f787960a01b60208201529150613ee5565b602080825281016108fc81613f43565b60006108fc8260c01b90565b61375a613fa28261376e565b613f8a565b6000613fb3828761386e565b602082019150613fc3828661386e565b602082019150613fd3828561386e565b602082019150613fe38284613f96565b50600801949350505050565b603881526000602082017f555550535570677261646561626c653a206d757374206e6f742062652063616c8152771b1959081d1a1c9bdd59da0819195b1959d85d1958d85b1b60421b60208201529150613ee5565b602080825281016108fc81613fef565b608081016140628287613bd0565b61406f602083018661386e565b61407c604083018561386e565b6125b0606083018461386e565b606081016140978286613bd0565b6140a4602083018561386e565b612507604083018461386e565b606081016140bf8286613bd0565b613e56602083018561386e565b602e81526000602082017f496e697469616c697a61626c653a20636f6e747261637420697320616c72656181526d191e481a5b9a5d1a585b1a5e995960921b60208201529150613ee5565b602080825281016108fc816140cc565b600060ff82166108fc565b61375a81614127565b602081016108fc8284614132565b608081016141578287613bd0565b6141646020830186613bd0565b613cec604083018561386e565b601f81526000602082017f5265656e7472616e637947756172643a207265656e7472616e742063616c6c00815291505b5060200190565b602080825281016108fc81614171565b60006141c2825190565b6141d0818560208601613b67565b9290920192915050565b60006131de82846141b8565b80516108fc816137af565b60006020828403121561420657614206600080fd5b600061250784846141e6565b602e81526000602082017f45524331393637557067726164653a206e657720696d706c656d656e7461746981526d6f6e206973206e6f74205555505360901b60208201529150613ee5565b602080825281016108fc81614212565b602981526000602082017f45524331393637557067726164653a20756e737570706f727465642070726f788152681a58589b195555525160ba1b60208201529150613ee5565b602080825281016108fc8161426d565b634e487b7160e01b600052601260045260246000fd5b6000826142e8576142e86142c3565b500490565b602b81526000602082017f496e697469616c697a61626c653a20636f6e7472616374206973206e6f74206981526a6e697469616c697a696e6760a81b60208201529150613ee5565b602080825281016108fc816142ed565b60006108fc614356613e148461376e565b61376e565b61375a81614345565b602081016108fc828461435b565b634e487b7160e01b600052600160045260246000fd5b76020b1b1b2b9b9a1b7b73a3937b61d1030b1b1b7bab73a1604d1b815260170160006143b482856141b8565b7001034b99036b4b9b9b4b733903937b6329607d1b8152601101915061250782846141b8565b602d81526000602082017f455243313936373a206e657720696d706c656d656e746174696f6e206973206e81526c1bdd08184818dbdb9d1c9858dd609a1b60208201529150613ee5565b602080825281016108fc816143da565b80820160008212801584831290811690159190911617156108fc576108fc613db6565b8181028060008312600160ff1b8514161561447457614474613db6565b828205841483151761448857614488613db6565b5092915050565b60008261449e5761449e6142c3565b600160ff1b8214600019841416156144b8576144b8613db6565b500590565b818103600083128015838313168383129190911617156108fc576108fc613db6565b60c081016144ed8289613bd0565b6144fa602083018861386e565b6145076040830187613bd0565b6145146060830186613bd0565b81810360808301526145268185613b8b565b905061394160a083018461435b565b601f81526000602082017f696e76616c6964206d616a20286578706563746564204d616a41727261792900815291506141a1565b602080825281016108fc81614535565b602e81526000602082017f696e76616c6964206d616a20286578706563746564204d616a546167206f722081526d4d616a42797465537472696e672960901b60208201529150613ee5565b602080825281016108fc81614579565b634e487b7160e01b600052603260045260246000fd5b600060001982036145fd576145fd613db6565b5060010190565b81810280821583820485141761448857614488613db6565b60008161462b5761462b613db6565b506000190190565b60208082527f537472696e67733a20686578206c656e67746820696e73756666696369656e74910190815260006141a1565b602080825281016108fc81614633565b602581526000602082017f696e76616c6964206d616a20286578706563746564204d616a556e7369676e6581526464496e742960d81b60208201529150613ee5565b602080825281016108fc81614675565b602681526000602082017f416464726573733a2064656c65676174652063616c6c20746f206e6f6e2d636f8152651b9d1c9858dd60d21b60208201529150613ee5565b602080825281016108fc816146c7565b80516108fc8161377a565b6000614733613ac384613a7e565b90508281526020810184848401111561474e5761474e600080fd5b613aee848285613b67565b600082601f83011261476d5761476d600080fd5b8151612507848260208601614725565b60008060006060848603121561479557614795600080fd5b60006147a186866141e6565b93505060206147b28682870161471a565b92505060408401516001600160401b038111156147d1576147d1600080fd5b6139ea86828701614759565b602581526000602082017f63616e6e6f742068616e646c6520686561646572732077697468206578747261815264203e20323760d81b60208201529150613ee5565b602080825281016108fc816147dd565b600c81526000602082016b34b73b30b634b21031b137b960a11b815291506141a1565b602080825281016108fc8161482f565b6014815260006020820173736c6963696e67206f7574206f662072616e676560601b815291506141a1565b602080825281016108fc8161486256fec5d2460186f7233c927e7db2dcc703c0e500b653ca82273b7bfad8045d85a47046756e6374696f6e206d7573742062652063616c6c6564207468726f75676820360894a13ba1a3210667c828492db98dca3e2076cc3735a920a3ca505d382bbc416464726573733a206c6f772d6c6576656c2064656c65676174652063616c6c206661696c6564bece676c514da111c8b3698f9a0424811c5c874fd0667943c7e3c04054274a3ea26469706673582212207be0499b5ad44cb6959e62defa7a02ca6dec15577caa479acdfb3d47bc47a02a64736f6c63430008110033",
  "devdoc": {
    "kind": "dev",
    "methods": {
      "acceptBeneficiaryAddress(uint64)": {
        "details": "Only triggered by registry admin",
        "params": {
          "_ownerId": "Storage Provider owner ID"
        }
      },
      "deactivateStorageProvider(uint64)": {
        "details": "Only triggered by registry admin",
        "params": {
          "_ownerId": "Storage Provider owner ID"
        }
      },
      "getRoleAdmin(bytes32)": {
        "details": "Returns the admin role that controls `role`. See {grantRole} and {revokeRole}. To change a role's admin, use {_setRoleAdmin}."
      },
      "grantRole(bytes32,address)": {
        "details": "Grants `role` to `account`. If `account` had not been already granted `role`, emits a {RoleGranted} event. Requirements: - the caller must have ``role``'s admin role. May emit a {RoleGranted} event."
      },
      "hasRole(bytes32,address)": {
        "details": "Returns `true` if `account` has been granted `role`."
      },
      "increasePledgeRepayment(uint64,uint256)": {
        "params": {
          "_ownerId": "Storage Provider owner ID",
          "_repaidPledge": "Withdrawn initial pledge after sector termination"
        }
      },
      "increaseRewards(uint64,uint256)": {
        "params": {
          "_accuredRewards": "Withdrawn rewards from SP's miner actor",
          "_ownerId": "Storage Provider owner ID"
        }
      },
      "increaseUsedAllocation(uint64,uint256,uint256)": {
        "params": {
          "_allocated": "FIL amount that is going to be pledged for Storage Provider",
          "_ownerId": "Storage Provider owner ID",
          "_timestamp": "Transaction timestamp"
        }
      },
      "initialize(uint256,address)": {
        "details": "Contract initializer function.",
        "params": {
          "_maxAllocation": "Number of maximum FIL allocated to a single storage provider"
        }
      },
      "onboardStorageProvider(uint64,uint256,uint256,uint256,int64)": {
        "details": "Only triggered by registry admin",
        "params": {
          "_allocationLimit": "FIL allocation for storage provider",
          "_dailyAllocation": "Daily FIL allocation for storage provider",
          "_lastEpoch": "Last epoch for FIL allocation utilization",
          "_minerId": "Storage Provider miner ID in Filecoin network",
          "_repayment": "FIL repayment for storage provider"
        }
      },
      "proxiableUUID()": {
        "details": "Implementation of the ERC1822 {proxiableUUID} function. This returns the storage slot used by the implementation. It is used to validate the implementation's compatibility when performing an upgrade. IMPORTANT: A proxy pointing at a proxiable contract should not be considered proxiable itself, because this risks bricking a proxy that upgrades to it, by delegating to itself until out of gas. Thus it is critical that this function revert if invoked through a proxy. This is guaranteed by the `notDelegated` modifier."
      },
      "register(uint64,uint256,uint256)": {
        "details": "Only triggered by Storage Provider owner",
        "params": {
          "_allocationLimit": "FIL allocation for storage provider",
          "_dailyAllocation": "Daily FIL allocation for storage provider",
          "_minerId": "Storage Provider miner ID in Filecoin network"
        }
      },
      "registerPool(address)": {
        "details": "Only triggered by registry admin",
        "params": {
          "_pool": "Address of pool smart contract"
        }
      },
      "renounceRole(bytes32,address)": {
        "details": "Revokes `role` from the calling account. Roles are often managed via {grantRole} and {revokeRole}: this function's purpose is to provide a mechanism for accounts to lose their privileges if they are compromised (such as when a trusted device is misplaced). If the calling account had been revoked `role`, emits a {RoleRevoked} event. Requirements: - the caller must be `account`. May emit a {RoleRevoked} event."
      },
      "requestAllocationLimitUpdate(uint256,uint256)": {
        "details": "Only triggered by Storage Provider owner",
        "params": {
          "_allocationLimit": "New FIL allocation for storage provider",
          "_dailyAllocation": "New daily FIL allocation for storage provider"
        }
      },
      "revokeRole(bytes32,address)": {
        "details": "Revokes `role` from `account`. If `account` had been granted `role`, emits a {RoleRevoked} event. Requirements: - the caller must have ``role``'s admin role. May emit a {RoleRevoked} event."
      },
      "setMinerAddress(uint64,uint64)": {
        "details": "Only triggered by registry admin",
        "params": {
          "_minerId": "Storage Provider new miner ID",
          "_ownerId": "Storage Provider owner ID"
        }
      },
      "setRestaking(uint256,address)": {
        "details": "Only triggered by Storage Provider",
        "params": {
          "_restakingAddress": "Restaking address (f4 address) for Storage Provider",
          "_restakingRatio": "Restaking ratio for Storage Provider"
        }
      },
      "supportsInterface(bytes4)": {
        "details": "See {IERC165-supportsInterface}."
      },
      "updateAllocationLimit(uint64,uint256,uint256,uint256)": {
        "details": "Only triggered by registry admin",
        "params": {
          "_allocationLimit": "New FIL allocation for storage provider",
          "_dailyAllocation": "New daily FIL allocation for storage provider",
          "_ownerId": "Storage provider owner ID",
          "_repaymentAmount": "New FIL repayment amount for storage provider"
        }
      },
      "updateMaxAllocation(uint256)": {
        "params": {
          "allocation": "New max allocation per SP"
        }
      },
      "upgradeTo(address)": {
        "details": "Upgrade the implementation of the proxy to `newImplementation`. Calls {_authorizeUpgrade}. Emits an {Upgraded} event."
      },
      "upgradeToAndCall(address,bytes)": {
        "details": "Upgrade the implementation of the proxy to `newImplementation`, and subsequently execute the function call encoded in `data`. Calls {_authorizeUpgrade}. Emits an {Upgraded} event."
      }
    },
    "title": "Storage Provider Registry contract allows storage providers to register in liquid staking protocol and ask for a FIL allocation. Once Storage Provider is registered and signaled their desired FIL allocation it needs to transfer",
    "version": 1
  },
  "userdoc": {
    "errors": {
      "ActorError(int256)": [
        {
          "notice": "the called actor returned an error as part of its expected behaviour"
        }
      ],
      "ActorNotFound()": [
        {
          "notice": "the actor is not found"
        }
      ],
      "FailToCallActor()": [
        {
          "notice": "an error happened trying to call the actor"
        },
        {
          "notice": "an error happened trying to call the actor"
        }
      ],
      "InvalidActorID(uint64)": [
        {
          "notice": "the provided actor id is not valid"
        }
      ],
      "InvalidCodec(uint64)": [
        {
          "notice": "the codec received is not valid"
        }
      ],
      "InvalidResponseLength()": [
        {
          "notice": "the response received is not correct. In some case no response is expected and we received one, or a response was indeed expected and we received none."
        }
      ],
      "NotEnoughBalance(uint256,uint256)": [
        {
          "notice": "the smart contract has no enough balance to transfer"
        }
      ]
    },
    "kind": "user",
    "methods": {
      "acceptBeneficiaryAddress(uint64)": {
        "notice": "Accept beneficiary address transfer and activate FIL allocation"
      },
      "allocations(uint64)": {
        "notice": "Return allocation information for a storage provider"
      },
      "deactivateStorageProvider(uint64)": {
        "notice": "Deactivate storage provider and transfer beneficiary back to the SP `_ownerId`"
      },
      "getRepayment(uint64)": {
        "notice": "Return a repayment amount for Storage Provider"
      },
      "getStorageProvider(uint64)": {
        "notice": "Return Storage Provider information with `_ownerId`"
      },
      "increasePledgeRepayment(uint64,uint256)": {
        "notice": "Increase repaid pledge by Storage Provider"
      },
      "increaseRewards(uint64,uint256)": {
        "notice": "Increase collected rewards by Storage Provider"
      },
      "increaseUsedAllocation(uint64,uint256,uint256)": {
        "notice": "Increase used allocation for Storage Provider"
      },
      "isActivePool(address)": {
        "notice": "Return a boolean flag whether `_pool` is active or not"
      },
      "isActiveProvider(uint64)": {
        "notice": "Return a boolean flag of Storage Provider activity"
      },
      "onboardStorageProvider(uint64,uint256,uint256,uint256,int64)": {
        "notice": "Onboard storage provider with `_minerId`, desired `_allocationLimit`, `_repayment` amount"
      },
      "register(uint64,uint256,uint256)": {
        "notice": "Register storage provider with `_minerId`, desired `_allocationLimit`"
      },
      "registerPool(address)": {
        "notice": "Register new liquid staking pool"
      },
      "requestAllocationLimitUpdate(uint256,uint256)": {
        "notice": "Request storage provider's FIL allocation update with `_allocationLimit`"
      },
      "restakings(uint64)": {
        "notice": "Return a restaking information for a storage provider"
      },
      "setMinerAddress(uint64,uint64)": {
        "notice": "Update storage provider miner ID with `_minerId`"
      },
      "setRestaking(uint256,address)": {
        "notice": "Update storage provider's restaking ratio"
      },
      "updateAllocationLimit(uint64,uint256,uint256,uint256)": {
        "notice": "Update storage provider FIL allocation with `_allocationLimit`"
      },
      "updateMaxAllocation(uint256)": {
        "notice": "Updates maximum allocation amount for SP"
      }
    },
    "version": 1
  },
  "storageLayout": {
    "storage": [
      {
        "astId": 16015,
        "contract": "contracts/StorageProviderRegistry.sol:StorageProviderRegistry",
        "label": "_initialized",
        "offset": 0,
        "slot": "0",
        "type": "t_uint8"
      },
      {
        "astId": 16018,
        "contract": "contracts/StorageProviderRegistry.sol:StorageProviderRegistry",
        "label": "_initializing",
        "offset": 1,
        "slot": "0",
        "type": "t_bool"
      },
      {
        "astId": 17743,
        "contract": "contracts/StorageProviderRegistry.sol:StorageProviderRegistry",
        "label": "__gap",
        "offset": 0,
        "slot": "1",
        "type": "t_array(t_uint256)50_storage"
      },
      {
        "astId": 18022,
        "contract": "contracts/StorageProviderRegistry.sol:StorageProviderRegistry",
        "label": "__gap",
        "offset": 0,
        "slot": "51",
        "type": "t_array(t_uint256)50_storage"
      },
      {
        "astId": 14943,
        "contract": "contracts/StorageProviderRegistry.sol:StorageProviderRegistry",
        "label": "_roles",
        "offset": 0,
        "slot": "101",
        "type": "t_mapping(t_bytes32,t_struct(RoleData)14938_storage)"
      },
      {
        "astId": 15238,
        "contract": "contracts/StorageProviderRegistry.sol:StorageProviderRegistry",
        "label": "__gap",
        "offset": 0,
        "slot": "102",
        "type": "t_array(t_uint256)49_storage"
      },
      {
        "astId": 16327,
        "contract": "contracts/StorageProviderRegistry.sol:StorageProviderRegistry",
        "label": "_status",
        "offset": 0,
        "slot": "151",
        "type": "t_uint256"
      },
      {
        "astId": 16385,
        "contract": "contracts/StorageProviderRegistry.sol:StorageProviderRegistry",
        "label": "__gap",
        "offset": 0,
        "slot": "152",
        "type": "t_array(t_uint256)49_storage"
      },
      {
        "astId": 15997,
        "contract": "contracts/StorageProviderRegistry.sol:StorageProviderRegistry",
        "label": "__gap",
        "offset": 0,
        "slot": "201",
        "type": "t_array(t_uint256)50_storage"
      },
      {
        "astId": 16312,
        "contract": "contracts/StorageProviderRegistry.sol:StorageProviderRegistry",
        "label": "__gap",
        "offset": 0,
        "slot": "251",
        "type": "t_array(t_uint256)50_storage"
      },
      {
        "astId": 3558,
        "contract": "contracts/StorageProviderRegistry.sol:StorageProviderRegistry",
        "label": "storageProviders",
        "offset": 0,
        "slot": "301",
        "type": "t_mapping(t_uint64,t_struct(StorageProvider)8015_storage)"
      },
      {
        "astId": 3563,
        "contract": "contracts/StorageProviderRegistry.sol:StorageProviderRegistry",
        "label": "allocations",
        "offset": 0,
        "slot": "302",
        "type": "t_mapping(t_uint64,t_struct(SPAllocation)8028_storage)"
      },
      {
        "astId": 3568,
        "contract": "contracts/StorageProviderRegistry.sol:StorageProviderRegistry",
        "label": "restakings",
        "offset": 0,
        "slot": "303",
        "type": "t_mapping(t_uint64,t_struct(SPRestaking)8033_storage)"
      },
      {
        "astId": 3573,
        "contract": "contracts/StorageProviderRegistry.sol:StorageProviderRegistry",
        "label": "allocationRequests",
        "offset": 0,
        "slot": "304",
        "type": "t_mapping(t_uint64,t_struct(AllocationRequest)8038_storage)"
      },
      {
        "astId": 3577,
        "contract": "contracts/StorageProviderRegistry.sol:StorageProviderRegistry",
        "label": "sectorSizes",
        "offset": 0,
        "slot": "305",
        "type": "t_mapping(t_uint64,t_uint64)"
      },
      {
        "astId": 3581,
        "contract": "contracts/StorageProviderRegistry.sol:StorageProviderRegistry",
        "label": "dailyUsages",
        "offset": 0,
        "slot": "306",
        "type": "t_mapping(t_bytes32,t_uint256)"
      },
      {
        "astId": 3585,
        "contract": "contracts/StorageProviderRegistry.sol:StorageProviderRegistry",
        "label": "pools",
        "offset": 0,
        "slot": "307",
        "type": "t_mapping(t_address,t_bool)"
      },
      {
        "astId": 3589,
        "contract": "contracts/StorageProviderRegistry.sol:StorageProviderRegistry",
        "label": "beneficiaryStatus",
        "offset": 0,
        "slot": "308",
        "type": "t_mapping(t_uint64,t_bool)"
      },
      {
        "astId": 3596,
        "contract": "contracts/StorageProviderRegistry.sol:StorageProviderRegistry",
        "label": "maxAllocation",
        "offset": 0,
        "slot": "309",
        "type": "t_uint256"
      },
      {
        "astId": 3599,
        "contract": "contracts/StorageProviderRegistry.sol:StorageProviderRegistry",
        "label": "resolver",
        "offset": 0,
        "slot": "310",
        "type": "t_contract(IResolverClient)5587"
      }
    ],
    "types": {
      "t_address": {
        "encoding": "inplace",
        "label": "address",
        "numberOfBytes": "20"
      },
      "t_array(t_uint256)49_storage": {
        "base": "t_uint256",
        "encoding": "inplace",
        "label": "uint256[49]",
        "numberOfBytes": "1568"
      },
      "t_array(t_uint256)50_storage": {
        "base": "t_uint256",
        "encoding": "inplace",
        "label": "uint256[50]",
        "numberOfBytes": "1600"
      },
      "t_bool": {
        "encoding": "inplace",
        "label": "bool",
        "numberOfBytes": "1"
      },
      "t_bytes32": {
        "encoding": "inplace",
        "label": "bytes32",
        "numberOfBytes": "32"
      },
      "t_contract(IResolverClient)5587": {
        "encoding": "inplace",
        "label": "contract IResolverClient",
        "numberOfBytes": "20"
      },
      "t_int64": {
        "encoding": "inplace",
        "label": "int64",
        "numberOfBytes": "8"
      },
      "t_mapping(t_address,t_bool)": {
        "encoding": "mapping",
        "key": "t_address",
        "label": "mapping(address => bool)",
        "numberOfBytes": "32",
        "value": "t_bool"
      },
      "t_mapping(t_bytes32,t_struct(RoleData)14938_storage)": {
        "encoding": "mapping",
        "key": "t_bytes32",
        "label": "mapping(bytes32 => struct AccessControlUpgradeable.RoleData)",
        "numberOfBytes": "32",
        "value": "t_struct(RoleData)14938_storage"
      },
      "t_mapping(t_bytes32,t_uint256)": {
        "encoding": "mapping",
        "key": "t_bytes32",
        "label": "mapping(bytes32 => uint256)",
        "numberOfBytes": "32",
        "value": "t_uint256"
      },
      "t_mapping(t_uint64,t_bool)": {
        "encoding": "mapping",
        "key": "t_uint64",
        "label": "mapping(uint64 => bool)",
        "numberOfBytes": "32",
        "value": "t_bool"
      },
      "t_mapping(t_uint64,t_struct(AllocationRequest)8038_storage)": {
        "encoding": "mapping",
        "key": "t_uint64",
        "label": "mapping(uint64 => struct StorageProviderTypes.AllocationRequest)",
        "numberOfBytes": "32",
        "value": "t_struct(AllocationRequest)8038_storage"
      },
      "t_mapping(t_uint64,t_struct(SPAllocation)8028_storage)": {
        "encoding": "mapping",
        "key": "t_uint64",
        "label": "mapping(uint64 => struct StorageProviderTypes.SPAllocation)",
        "numberOfBytes": "32",
        "value": "t_struct(SPAllocation)8028_storage"
      },
      "t_mapping(t_uint64,t_struct(SPRestaking)8033_storage)": {
        "encoding": "mapping",
        "key": "t_uint64",
        "label": "mapping(uint64 => struct StorageProviderTypes.SPRestaking)",
        "numberOfBytes": "32",
        "value": "t_struct(SPRestaking)8033_storage"
      },
      "t_mapping(t_uint64,t_struct(StorageProvider)8015_storage)": {
        "encoding": "mapping",
        "key": "t_uint64",
        "label": "mapping(uint64 => struct StorageProviderTypes.StorageProvider)",
        "numberOfBytes": "32",
        "value": "t_struct(StorageProvider)8015_storage"
      },
      "t_mapping(t_uint64,t_uint64)": {
        "encoding": "mapping",
        "key": "t_uint64",
        "label": "mapping(uint64 => uint64)",
        "numberOfBytes": "32",
        "value": "t_uint64"
      },
      "t_struct(AllocationRequest)8038_storage": {
        "encoding": "inplace",
        "label": "struct StorageProviderTypes.AllocationRequest",
        "members": [
          {
            "astId": 8035,
            "contract": "contracts/StorageProviderRegistry.sol:StorageProviderRegistry",
            "label": "allocationLimit",
            "offset": 0,
            "slot": "0",
            "type": "t_uint256"
          },
          {
            "astId": 8037,
            "contract": "contracts/StorageProviderRegistry.sol:StorageProviderRegistry",
            "label": "dailyAllocation",
            "offset": 0,
            "slot": "1",
            "type": "t_uint256"
          }
        ],
        "numberOfBytes": "64"
      },
      "t_struct(RoleData)14938_storage": {
        "encoding": "inplace",
        "label": "struct AccessControlUpgradeable.RoleData",
        "members": [
          {
            "astId": 14935,
            "contract": "contracts/StorageProviderRegistry.sol:StorageProviderRegistry",
            "label": "members",
            "offset": 0,
            "slot": "0",
            "type": "t_mapping(t_address,t_bool)"
          },
          {
            "astId": 14937,
            "contract": "contracts/StorageProviderRegistry.sol:StorageProviderRegistry",
            "label": "adminRole",
            "offset": 0,
            "slot": "1",
            "type": "t_bytes32"
          }
        ],
        "numberOfBytes": "64"
      },
      "t_struct(SPAllocation)8028_storage": {
        "encoding": "inplace",
        "label": "struct StorageProviderTypes.SPAllocation",
        "members": [
          {
            "astId": 8017,
            "contract": "contracts/StorageProviderRegistry.sol:StorageProviderRegistry",
            "label": "allocationLimit",
            "offset": 0,
            "slot": "0",
            "type": "t_uint256"
          },
          {
            "astId": 8019,
            "contract": "contracts/StorageProviderRegistry.sol:StorageProviderRegistry",
            "label": "repayment",
            "offset": 0,
            "slot": "1",
            "type": "t_uint256"
          },
          {
            "astId": 8021,
            "contract": "contracts/StorageProviderRegistry.sol:StorageProviderRegistry",
            "label": "usedAllocation",
            "offset": 0,
            "slot": "2",
            "type": "t_uint256"
          },
          {
            "astId": 8023,
            "contract": "contracts/StorageProviderRegistry.sol:StorageProviderRegistry",
            "label": "dailyAllocation",
            "offset": 0,
            "slot": "3",
            "type": "t_uint256"
          },
          {
            "astId": 8025,
            "contract": "contracts/StorageProviderRegistry.sol:StorageProviderRegistry",
            "label": "accruedRewards",
            "offset": 0,
            "slot": "4",
            "type": "t_uint256"
          },
          {
            "astId": 8027,
            "contract": "contracts/StorageProviderRegistry.sol:StorageProviderRegistry",
            "label": "repaidPledge",
            "offset": 0,
            "slot": "5",
            "type": "t_uint256"
          }
        ],
        "numberOfBytes": "192"
      },
      "t_struct(SPRestaking)8033_storage": {
        "encoding": "inplace",
        "label": "struct StorageProviderTypes.SPRestaking",
        "members": [
          {
            "astId": 8030,
            "contract": "contracts/StorageProviderRegistry.sol:StorageProviderRegistry",
            "label": "restakingRatio",
            "offset": 0,
            "slot": "0",
            "type": "t_uint256"
          },
          {
            "astId": 8032,
            "contract": "contracts/StorageProviderRegistry.sol:StorageProviderRegistry",
            "label": "restakingAddress",
            "offset": 0,
            "slot": "1",
            "type": "t_address"
          }
        ],
        "numberOfBytes": "64"
      },
      "t_struct(StorageProvider)8015_storage": {
        "encoding": "inplace",
        "label": "struct StorageProviderTypes.StorageProvider",
        "members": [
          {
            "astId": 8006,
            "contract": "contracts/StorageProviderRegistry.sol:StorageProviderRegistry",
            "label": "active",
            "offset": 0,
            "slot": "0",
            "type": "t_bool"
          },
          {
            "astId": 8008,
            "contract": "contracts/StorageProviderRegistry.sol:StorageProviderRegistry",
            "label": "onboarded",
            "offset": 1,
            "slot": "0",
            "type": "t_bool"
          },
          {
            "astId": 8010,
            "contract": "contracts/StorageProviderRegistry.sol:StorageProviderRegistry",
            "label": "targetPool",
            "offset": 2,
            "slot": "0",
            "type": "t_address"
          },
          {
            "astId": 8012,
            "contract": "contracts/StorageProviderRegistry.sol:StorageProviderRegistry",
            "label": "minerId",
            "offset": 22,
            "slot": "0",
            "type": "t_uint64"
          },
          {
            "astId": 8014,
            "contract": "contracts/StorageProviderRegistry.sol:StorageProviderRegistry",
            "label": "lastEpoch",
            "offset": 0,
            "slot": "1",
            "type": "t_int64"
          }
        ],
        "numberOfBytes": "64"
      },
      "t_uint256": {
        "encoding": "inplace",
        "label": "uint256",
        "numberOfBytes": "32"
      },
      "t_uint64": {
        "encoding": "inplace",
        "label": "uint64",
        "numberOfBytes": "8"
      },
      "t_uint8": {
        "encoding": "inplace",
        "label": "uint8",
        "numberOfBytes": "1"
      }
    }
  }
}