{
  "address": "0x80fE18b436314b7C8b68D4a981e9e9D6ad3d2D3c",
  "abi": [
    {
      "inputs": [
        {
          "internalType": "int256",
          "name": "errorCode",
          "type": "int256"
        }
      ],
      "name": "ActorError",
      "type": "error"
    },
    {
      "inputs": [],
      "name": "ActorNotFound",
      "type": "error"
    },
    {
      "inputs": [],
      "name": "FailToCallActor",
      "type": "error"
    },
    {
      "inputs": [],
      "name": "FailToCallActor",
      "type": "error"
    },
    {
      "inputs": [
        {
          "internalType": "CommonTypes.FilActorId",
          "name": "actorId",
          "type": "uint64"
        }
      ],
      "name": "InvalidActorID",
      "type": "error"
    },
    {
      "inputs": [
        {
          "internalType": "uint64",
          "name": "",
          "type": "uint64"
        }
      ],
      "name": "InvalidCodec",
      "type": "error"
    },
    {
      "inputs": [],
      "name": "InvalidResponseLength",
      "type": "error"
    },
    {
      "inputs": [
        {
          "internalType": "uint256",
          "name": "balance",
          "type": "uint256"
        },
        {
          "internalType": "uint256",
          "name": "value",
          "type": "uint256"
        }
      ],
      "name": "NotEnoughBalance",
      "type": "error"
    },
    {
      "anonymous": false,
      "inputs": [
        {
          "indexed": false,
          "internalType": "address",
          "name": "previousAdmin",
          "type": "address"
        },
        {
          "indexed": false,
          "internalType": "address",
          "name": "newAdmin",
          "type": "address"
        }
      ],
      "name": "AdminChanged",
      "type": "event"
    },
    {
      "anonymous": false,
      "inputs": [
        {
          "indexed": true,
          "internalType": "address",
          "name": "beacon",
          "type": "address"
        }
      ],
      "name": "BeaconUpgraded",
      "type": "event"
    },
    {
      "anonymous": false,
      "inputs": [
        {
          "indexed": false,
          "internalType": "address",
          "name": "collateral",
          "type": "address"
        }
      ],
      "name": "CollateralAddressUpdated",
      "type": "event"
    },
    {
      "anonymous": false,
      "inputs": [
        {
          "indexed": false,
          "internalType": "uint8",
          "name": "version",
          "type": "uint8"
        }
      ],
      "name": "Initialized",
      "type": "event"
    },
    {
      "anonymous": false,
      "inputs": [
        {
          "indexed": false,
          "internalType": "address",
          "name": "pool",
          "type": "address"
        }
      ],
      "name": "LiquidStakingPoolRegistered",
      "type": "event"
    },
    {
      "anonymous": false,
      "inputs": [
        {
          "indexed": true,
          "internalType": "bytes32",
          "name": "role",
          "type": "bytes32"
        },
        {
          "indexed": true,
          "internalType": "bytes32",
          "name": "previousAdminRole",
          "type": "bytes32"
        },
        {
          "indexed": true,
          "internalType": "bytes32",
          "name": "newAdminRole",
          "type": "bytes32"
        }
      ],
      "name": "RoleAdminChanged",
      "type": "event"
    },
    {
      "anonymous": false,
      "inputs": [
        {
          "indexed": true,
          "internalType": "bytes32",
          "name": "role",
          "type": "bytes32"
        },
        {
          "indexed": true,
          "internalType": "address",
          "name": "account",
          "type": "address"
        },
        {
          "indexed": true,
          "internalType": "address",
          "name": "sender",
          "type": "address"
        }
      ],
      "name": "RoleGranted",
      "type": "event"
    },
    {
      "anonymous": false,
      "inputs": [
        {
          "indexed": true,
          "internalType": "bytes32",
          "name": "role",
          "type": "bytes32"
        },
        {
          "indexed": true,
          "internalType": "address",
          "name": "account",
          "type": "address"
        },
        {
          "indexed": true,
          "internalType": "address",
          "name": "sender",
          "type": "address"
        }
      ],
      "name": "RoleRevoked",
      "type": "event"
    },
    {
      "anonymous": false,
      "inputs": [
        {
          "indexed": false,
          "internalType": "uint64",
          "name": "ownerId",
          "type": "uint64"
        },
        {
          "indexed": false,
          "internalType": "uint256",
          "name": "rewards",
          "type": "uint256"
        }
      ],
      "name": "StorageProviderAccruedRewards",
      "type": "event"
    },
    {
      "anonymous": false,
      "inputs": [
        {
          "indexed": false,
          "internalType": "uint64",
          "name": "ownerId",
          "type": "uint64"
        },
        {
          "indexed": false,
          "internalType": "uint256",
          "name": "allocationLimit",
          "type": "uint256"
        },
        {
          "indexed": false,
          "internalType": "uint256",
          "name": "dailyAllocation",
          "type": "uint256"
        }
      ],
      "name": "StorageProviderAllocationLimitRequest",
      "type": "event"
    },
    {
      "anonymous": false,
      "inputs": [
        {
          "indexed": false,
          "internalType": "uint64",
          "name": "ownerId",
          "type": "uint64"
        },
        {
          "indexed": false,
          "internalType": "uint256",
          "name": "allocationLimit",
          "type": "uint256"
        },
        {
          "indexed": false,
          "internalType": "uint256",
          "name": "dailyAllocation",
          "type": "uint256"
        },
        {
          "indexed": false,
          "internalType": "uint256",
          "name": "repayment",
          "type": "uint256"
        }
      ],
      "name": "StorageProviderAllocationLimitUpdate",
      "type": "event"
    },
    {
      "anonymous": false,
      "inputs": [
        {
          "indexed": false,
          "internalType": "uint64",
          "name": "ownerId",
          "type": "uint64"
        },
        {
          "indexed": false,
          "internalType": "uint256",
          "name": "usedAllocation",
          "type": "uint256"
        }
      ],
      "name": "StorageProviderAllocationUsed",
      "type": "event"
    },
    {
      "anonymous": false,
      "inputs": [
        {
          "indexed": false,
          "internalType": "uint64",
          "name": "ownerId",
          "type": "uint64"
        }
      ],
      "name": "StorageProviderBeneficiaryAddressAccepted",
      "type": "event"
    },
    {
      "anonymous": false,
      "inputs": [
        {
          "indexed": false,
          "internalType": "address",
          "name": "beneficiaryAddress",
          "type": "address"
        }
      ],
      "name": "StorageProviderBeneficiaryAddressUpdated",
      "type": "event"
    },
    {
      "anonymous": false,
      "inputs": [
        {
          "indexed": false,
          "internalType": "uint64",
          "name": "ownerId",
          "type": "uint64"
        }
      ],
      "name": "StorageProviderDeactivated",
      "type": "event"
    },
    {
      "anonymous": false,
      "inputs": [
        {
          "indexed": false,
          "internalType": "uint64",
          "name": "ownerId",
          "type": "uint64"
        },
        {
          "indexed": false,
          "internalType": "int64",
          "name": "lastEpoch",
          "type": "int64"
        }
      ],
      "name": "StorageProviderLastEpochUpdate",
      "type": "event"
    },
    {
      "anonymous": false,
      "inputs": [
        {
          "indexed": false,
          "internalType": "uint64",
          "name": "ownerId",
          "type": "uint64"
        },
        {
          "indexed": false,
          "internalType": "uint64",
          "name": "miner",
          "type": "uint64"
        }
      ],
      "name": "StorageProviderMinerAddressUpdate",
      "type": "event"
    },
    {
      "anonymous": false,
      "inputs": [
        {
          "indexed": false,
          "internalType": "uint64",
          "name": "ownerId",
          "type": "uint64"
        },
        {
          "indexed": false,
          "internalType": "uint256",
          "name": "restakingRatio",
          "type": "uint256"
        },
        {
          "indexed": false,
          "internalType": "address",
          "name": "restakingAddress",
          "type": "address"
        }
      ],
      "name": "StorageProviderMinerRestakingRatioUpdate",
      "type": "event"
    },
    {
      "anonymous": false,
      "inputs": [
        {
          "indexed": false,
          "internalType": "uint64",
          "name": "ownerId",
          "type": "uint64"
        },
        {
          "indexed": false,
          "internalType": "uint64",
          "name": "minerId",
          "type": "uint64"
        },
        {
          "indexed": false,
          "internalType": "uint256",
          "name": "allocationLimit",
          "type": "uint256"
        },
        {
          "indexed": false,
          "internalType": "uint256",
          "name": "dailyAllocation",
          "type": "uint256"
        },
        {
          "indexed": false,
          "internalType": "uint256",
          "name": "repayment",
          "type": "uint256"
        },
        {
          "indexed": false,
          "internalType": "int64",
          "name": "lastEpoch",
          "type": "int64"
        }
      ],
      "name": "StorageProviderOnboarded",
      "type": "event"
    },
    {
      "anonymous": false,
      "inputs": [
        {
          "indexed": false,
          "internalType": "bytes",
          "name": "owner",
          "type": "bytes"
        },
        {
          "indexed": false,
          "internalType": "uint64",
          "name": "ownerId",
          "type": "uint64"
        },
        {
          "indexed": false,
          "internalType": "uint64",
          "name": "minerId",
          "type": "uint64"
        },
        {
          "indexed": false,
          "internalType": "address",
          "name": "targetPool",
          "type": "address"
        },
        {
          "indexed": false,
          "internalType": "uint256",
          "name": "allocationLimit",
          "type": "uint256"
        },
        {
          "indexed": false,
          "internalType": "uint256",
          "name": "dailyAllocation",
          "type": "uint256"
        }
      ],
      "name": "StorageProviderRegistered",
      "type": "event"
    },
    {
      "anonymous": false,
      "inputs": [
        {
          "indexed": false,
          "internalType": "uint64",
          "name": "ownerId",
          "type": "uint64"
        },
        {
          "indexed": false,
          "internalType": "uint256",
          "name": "pledge",
          "type": "uint256"
        }
      ],
      "name": "StorageProviderRepaidPledge",
      "type": "event"
    },
    {
      "anonymous": false,
      "inputs": [
        {
          "indexed": false,
          "internalType": "uint256",
          "name": "maxAllocation",
          "type": "uint256"
        }
      ],
      "name": "UpdateMaxAllocation",
      "type": "event"
    },
    {
      "anonymous": false,
      "inputs": [
        {
          "indexed": true,
          "internalType": "address",
          "name": "implementation",
          "type": "address"
        }
      ],
      "name": "Upgraded",
      "type": "event"
    },
    {
      "inputs": [],
      "name": "DEFAULT_ADMIN_ROLE",
      "outputs": [
        {
          "internalType": "bytes32",
          "name": "",
          "type": "bytes32"
        }
      ],
      "stateMutability": "view",
      "type": "function"
    },
    {
      "inputs": [
        {
          "internalType": "uint64",
          "name": "_ownerId",
          "type": "uint64"
        }
      ],
      "name": "acceptBeneficiaryAddress",
      "outputs": [],
      "stateMutability": "nonpayable",
      "type": "function"
    },
    {
      "inputs": [
        {
          "internalType": "uint64",
          "name": "",
          "type": "uint64"
        }
      ],
      "name": "allocationRequests",
      "outputs": [
        {
          "internalType": "uint256",
          "name": "allocationLimit",
          "type": "uint256"
        },
        {
          "internalType": "uint256",
          "name": "dailyAllocation",
          "type": "uint256"
        }
      ],
      "stateMutability": "view",
      "type": "function"
    },
    {
      "inputs": [
        {
          "internalType": "uint64",
          "name": "",
          "type": "uint64"
        }
      ],
      "name": "allocations",
      "outputs": [
        {
          "internalType": "uint256",
          "name": "allocationLimit",
          "type": "uint256"
        },
        {
          "internalType": "uint256",
          "name": "repayment",
          "type": "uint256"
        },
        {
          "internalType": "uint256",
          "name": "usedAllocation",
          "type": "uint256"
        },
        {
          "internalType": "uint256",
          "name": "dailyAllocation",
          "type": "uint256"
        },
        {
          "internalType": "uint256",
          "name": "accruedRewards",
          "type": "uint256"
        },
        {
          "internalType": "uint256",
          "name": "repaidPledge",
          "type": "uint256"
        }
      ],
      "stateMutability": "view",
      "type": "function"
    },
    {
      "inputs": [],
      "name": "changeBeneficiaryAddress",
      "outputs": [],
      "stateMutability": "nonpayable",
      "type": "function"
    },
    {
      "inputs": [],
      "name": "collateral",
      "outputs": [
        {
          "internalType": "contract IStorageProviderCollateralClient",
          "name": "",
          "type": "address"
        }
      ],
      "stateMutability": "view",
      "type": "function"
    },
    {
      "inputs": [
        {
          "internalType": "bytes32",
          "name": "",
          "type": "bytes32"
        }
      ],
      "name": "dailyUsages",
      "outputs": [
        {
          "internalType": "uint256",
          "name": "",
          "type": "uint256"
        }
      ],
      "stateMutability": "view",
      "type": "function"
    },
    {
      "inputs": [
        {
          "internalType": "uint64",
          "name": "_ownerId",
          "type": "uint64"
        }
      ],
      "name": "deactivateStorageProvider",
      "outputs": [],
      "stateMutability": "nonpayable",
      "type": "function"
    },
    {
      "inputs": [],
      "name": "getImplementation",
      "outputs": [
        {
          "internalType": "address",
          "name": "",
          "type": "address"
        }
      ],
      "stateMutability": "view",
      "type": "function"
    },
    {
      "inputs": [
        {
          "internalType": "bytes32",
          "name": "role",
          "type": "bytes32"
        }
      ],
      "name": "getRoleAdmin",
      "outputs": [
        {
          "internalType": "bytes32",
          "name": "",
          "type": "bytes32"
        }
      ],
      "stateMutability": "view",
      "type": "function"
    },
    {
      "inputs": [
        {
          "internalType": "uint64",
          "name": "_ownerId",
          "type": "uint64"
        }
      ],
      "name": "getStorageProvider",
      "outputs": [
        {
          "internalType": "bool",
          "name": "",
          "type": "bool"
        },
        {
          "internalType": "address",
          "name": "",
          "type": "address"
        },
        {
          "internalType": "uint64",
          "name": "",
          "type": "uint64"
        },
        {
          "internalType": "int64",
          "name": "",
          "type": "int64"
        }
      ],
      "stateMutability": "view",
      "type": "function"
    },
    {
      "inputs": [
        {
          "internalType": "bytes32",
          "name": "role",
          "type": "bytes32"
        },
        {
          "internalType": "address",
          "name": "account",
          "type": "address"
        }
      ],
      "name": "grantRole",
      "outputs": [],
      "stateMutability": "nonpayable",
      "type": "function"
    },
    {
      "inputs": [
        {
          "internalType": "bytes32",
          "name": "role",
          "type": "bytes32"
        },
        {
          "internalType": "address",
          "name": "account",
          "type": "address"
        }
      ],
      "name": "hasRole",
      "outputs": [
        {
          "internalType": "bool",
          "name": "",
          "type": "bool"
        }
      ],
      "stateMutability": "view",
      "type": "function"
    },
    {
      "inputs": [
        {
          "internalType": "uint64",
          "name": "_ownerId",
          "type": "uint64"
        },
        {
          "internalType": "uint256",
          "name": "_repaidPledge",
          "type": "uint256"
        }
      ],
      "name": "increasePledgeRepayment",
      "outputs": [],
      "stateMutability": "nonpayable",
      "type": "function"
    },
    {
      "inputs": [
        {
          "internalType": "uint64",
          "name": "_ownerId",
          "type": "uint64"
        },
        {
          "internalType": "uint256",
          "name": "_accuredRewards",
          "type": "uint256"
        }
      ],
      "name": "increaseRewards",
      "outputs": [],
      "stateMutability": "nonpayable",
      "type": "function"
    },
    {
      "inputs": [
        {
          "internalType": "uint64",
          "name": "_ownerId",
          "type": "uint64"
        },
        {
          "internalType": "uint256",
          "name": "_allocated",
          "type": "uint256"
        },
        {
          "internalType": "uint256",
          "name": "_timestamp",
          "type": "uint256"
        }
      ],
      "name": "increaseUsedAllocation",
      "outputs": [],
      "stateMutability": "nonpayable",
      "type": "function"
    },
    {
      "inputs": [
        {
          "internalType": "uint256",
          "name": "_maxAllocation",
          "type": "uint256"
        }
      ],
      "name": "initialize",
      "outputs": [],
      "stateMutability": "nonpayable",
      "type": "function"
    },
    {
      "inputs": [
        {
          "internalType": "address",
          "name": "_pool",
          "type": "address"
        }
      ],
      "name": "isActivePool",
      "outputs": [
        {
          "internalType": "bool",
          "name": "",
          "type": "bool"
        }
      ],
      "stateMutability": "view",
      "type": "function"
    },
    {
      "inputs": [
        {
          "internalType": "uint64",
          "name": "_ownerId",
          "type": "uint64"
        }
      ],
      "name": "isActiveProvider",
      "outputs": [
        {
          "internalType": "bool",
          "name": "status",
          "type": "bool"
        }
      ],
      "stateMutability": "view",
      "type": "function"
    },
    {
      "inputs": [],
      "name": "maxAllocation",
      "outputs": [
        {
          "internalType": "uint256",
          "name": "",
          "type": "uint256"
        }
      ],
      "stateMutability": "view",
      "type": "function"
    },
    {
      "inputs": [
        {
          "internalType": "uint64",
          "name": "_minerId",
          "type": "uint64"
        },
        {
          "internalType": "uint256",
          "name": "_allocationLimit",
          "type": "uint256"
        },
        {
          "internalType": "uint256",
          "name": "_dailyAllocation",
          "type": "uint256"
        },
        {
          "internalType": "uint256",
          "name": "_repayment",
          "type": "uint256"
        },
        {
          "internalType": "int64",
          "name": "_lastEpoch",
          "type": "int64"
        }
      ],
      "name": "onboardStorageProvider",
      "outputs": [],
      "stateMutability": "nonpayable",
      "type": "function"
    },
    {
      "inputs": [
        {
          "internalType": "address",
          "name": "",
          "type": "address"
        }
      ],
      "name": "pools",
      "outputs": [
        {
          "internalType": "bool",
          "name": "",
          "type": "bool"
        }
      ],
      "stateMutability": "view",
      "type": "function"
    },
    {
      "inputs": [],
      "name": "proxiableUUID",
      "outputs": [
        {
          "internalType": "bytes32",
          "name": "",
          "type": "bytes32"
        }
      ],
      "stateMutability": "view",
      "type": "function"
    },
    {
      "inputs": [
        {
          "internalType": "uint64",
          "name": "_minerId",
          "type": "uint64"
        },
        {
          "internalType": "address",
          "name": "_targetPool",
          "type": "address"
        },
        {
          "internalType": "uint256",
          "name": "_allocationLimit",
          "type": "uint256"
        },
        {
          "internalType": "uint256",
          "name": "_dailyAllocation",
          "type": "uint256"
        }
      ],
      "name": "register",
      "outputs": [],
      "stateMutability": "nonpayable",
      "type": "function"
    },
    {
      "inputs": [
        {
          "internalType": "address",
          "name": "_pool",
          "type": "address"
        }
      ],
      "name": "registerPool",
      "outputs": [],
      "stateMutability": "nonpayable",
      "type": "function"
    },
    {
      "inputs": [
        {
          "internalType": "bytes32",
          "name": "role",
          "type": "bytes32"
        },
        {
          "internalType": "address",
          "name": "account",
          "type": "address"
        }
      ],
      "name": "renounceRole",
      "outputs": [],
      "stateMutability": "nonpayable",
      "type": "function"
    },
    {
      "inputs": [
        {
          "internalType": "uint256",
          "name": "_allocationLimit",
          "type": "uint256"
        },
        {
          "internalType": "uint256",
          "name": "_dailyAllocation",
          "type": "uint256"
        }
      ],
      "name": "requestAllocationLimitUpdate",
      "outputs": [],
      "stateMutability": "nonpayable",
      "type": "function"
    },
    {
      "inputs": [
        {
          "internalType": "uint64",
          "name": "",
          "type": "uint64"
        }
      ],
      "name": "restakings",
      "outputs": [
        {
          "internalType": "uint256",
          "name": "restakingRatio",
          "type": "uint256"
        },
        {
          "internalType": "address",
          "name": "restakingAddress",
          "type": "address"
        }
      ],
      "stateMutability": "view",
      "type": "function"
    },
    {
      "inputs": [
        {
          "internalType": "bytes32",
          "name": "role",
          "type": "bytes32"
        },
        {
          "internalType": "address",
          "name": "account",
          "type": "address"
        }
      ],
      "name": "revokeRole",
      "outputs": [],
      "stateMutability": "nonpayable",
      "type": "function"
    },
    {
      "inputs": [
        {
          "internalType": "uint64",
          "name": "",
          "type": "uint64"
        }
      ],
      "name": "sectorSizes",
      "outputs": [
        {
          "internalType": "uint64",
          "name": "",
          "type": "uint64"
        }
      ],
      "stateMutability": "view",
      "type": "function"
    },
    {
      "inputs": [
        {
          "internalType": "address",
          "name": "_collateral",
          "type": "address"
        }
      ],
      "name": "setCollateralAddress",
      "outputs": [],
      "stateMutability": "nonpayable",
      "type": "function"
    },
    {
      "inputs": [
        {
          "internalType": "uint64",
          "name": "_ownerId",
          "type": "uint64"
        },
        {
          "internalType": "uint64",
          "name": "_minerId",
          "type": "uint64"
        }
      ],
      "name": "setMinerAddress",
      "outputs": [],
      "stateMutability": "nonpayable",
      "type": "function"
    },
    {
      "inputs": [
        {
          "internalType": "uint256",
          "name": "_restakingRatio",
          "type": "uint256"
        },
        {
          "internalType": "address",
          "name": "_restakingAddress",
          "type": "address"
        }
      ],
      "name": "setRestaking",
      "outputs": [],
      "stateMutability": "nonpayable",
      "type": "function"
    },
    {
      "inputs": [
        {
          "internalType": "uint64",
          "name": "",
          "type": "uint64"
        }
      ],
      "name": "storageProviders",
      "outputs": [
        {
          "internalType": "bool",
          "name": "active",
          "type": "bool"
        },
        {
          "internalType": "bool",
          "name": "onboarded",
          "type": "bool"
        },
        {
          "internalType": "address",
          "name": "targetPool",
          "type": "address"
        },
        {
          "internalType": "uint64",
          "name": "minerId",
          "type": "uint64"
        },
        {
          "internalType": "int64",
          "name": "lastEpoch",
          "type": "int64"
        }
      ],
      "stateMutability": "view",
      "type": "function"
    },
    {
      "inputs": [
        {
          "internalType": "bytes4",
          "name": "interfaceId",
          "type": "bytes4"
        }
      ],
      "name": "supportsInterface",
      "outputs": [
        {
          "internalType": "bool",
          "name": "",
          "type": "bool"
        }
      ],
      "stateMutability": "view",
      "type": "function"
    },
    {
      "inputs": [
        {
          "internalType": "uint64",
          "name": "_ownerId",
          "type": "uint64"
        },
        {
          "internalType": "uint256",
          "name": "_allocationLimit",
          "type": "uint256"
        },
        {
          "internalType": "uint256",
          "name": "_dailyAllocation",
          "type": "uint256"
        },
        {
          "internalType": "uint256",
          "name": "_repaymentAmount",
          "type": "uint256"
        }
      ],
      "name": "updateAllocationLimit",
      "outputs": [],
      "stateMutability": "nonpayable",
      "type": "function"
    },
    {
      "inputs": [
        {
          "internalType": "uint256",
          "name": "allocation",
          "type": "uint256"
        }
      ],
      "name": "updateMaxAllocation",
      "outputs": [],
      "stateMutability": "nonpayable",
      "type": "function"
    },
    {
      "inputs": [
        {
          "internalType": "address",
          "name": "newImplementation",
          "type": "address"
        }
      ],
      "name": "upgradeTo",
      "outputs": [],
      "stateMutability": "nonpayable",
      "type": "function"
    },
    {
      "inputs": [
        {
          "internalType": "address",
          "name": "newImplementation",
          "type": "address"
        },
        {
          "internalType": "bytes",
          "name": "data",
          "type": "bytes"
        }
      ],
      "name": "upgradeToAndCall",
      "outputs": [],
      "stateMutability": "payable",
      "type": "function"
    },
    {
      "inputs": [],
      "name": "version",
      "outputs": [
        {
          "internalType": "string",
          "name": "",
          "type": "string"
        }
      ],
      "stateMutability": "pure",
      "type": "function"
    }
  ],
  "numDeployments": 3,
  "solcInputHash": "f60d41c239028915942e19e20fb1bf4f",
  "bytecode": "0x60a06040523060805234801561001457600080fd5b50608051614ed061004c60003960008181610f9e01528181610fde015281816111b1015281816111f101526113290152614ed06000f3fe6080604052600436106101cb5760003560e01c806301ffc9a7146101d0578063029d262e146102065780630e2fc9e114610228578063154caabb14610248578063248a9ca31461028257806324da48a3146102af578063261d8315146102cf5780632d0c628a146102ef5780632e54941e1461030f5780632f2ff15d1461037257806336568abe146103925780633659cfe6146103b25780634978e4b7146103d25780634f1ef286146103f25780634f85bf321461040557806352d1902d1461042557806354fd4d501461043a578063557a85261461046b57806376246e33146104805780637aca42fe146104c45780637ecfe05a146104e45780637f2d1a60146105045780638097354f14610524578063853d941d1461055e57806391d14854146105a15780639b3ba79f146105c15780639e5c1399146105d8578063a217fddf14610624578063a4063dbc14610639578063a93fbf861461066a578063aaf10f421461068a578063abd90846146106ac578063b0298c31146106cc578063be7aebcd14610779578063d2d3164b14610799578063d547741f146107c7578063d8dfeb45146107e7578063dd6460ce14610815578063fa2755c31461088e578063fe4b84df146108ae575b600080fd5b3480156101dc57600080fd5b506101f06101eb36600461370f565b6108ce565b6040516101fd919061373a565b60405180910390f35b34801561021257600080fd5b50610226610221366004613773565b610905565b005b34801561023457600080fd5b506102266102433660046137d4565b6109f0565b34801561025457600080fd5b506101f061026336600461384c565b6001600160401b0316600090815261012d602052604090205460ff1690565b34801561028e57600080fd5b506102a261029d36600461386d565b610bf1565b6040516101fd9190613894565b3480156102bb57600080fd5b506102266102ca36600461386d565b610c06565b3480156102db57600080fd5b506102266102ea3660046138a2565b610cb3565b3480156102fb57600080fd5b5061022661030a3660046138df565b610d74565b34801561031b57600080fd5b5061036061032a36600461384c565b61012e60205260009081526040902080546001820154600283015460038401546004850154600590950154939492939192909186565b6040516101fd96959493929190613912565b34801561037e57600080fd5b5061022661038d366004613961565b610f3d565b34801561039e57600080fd5b506102266103ad366004613961565b610f5e565b3480156103be57600080fd5b506102266103cd366004613773565b610f94565b3480156103de57600080fd5b506102266103ed366004613994565b61105c565b610226610400366004613ae9565b6111a7565b34801561041157600080fd5b5061022661042036600461384c565b61125c565b34801561043157600080fd5b506102a261131c565b34801561044657600080fd5b506040805180820182526002815261763160f01b602082015290516101fd9190613b8e565b34801561047757600080fd5b50610226611379565b34801561048c57600080fd5b506104b761049b36600461384c565b610131602052600090815260409020546001600160401b031681565b6040516101fd9190613bae565b3480156104d057600080fd5b506102266104df366004613bbc565b61153f565b3480156104f057600080fd5b506102266104ff366004613c20565b611812565b34801561051057600080fd5b5061022661051f3660046138a2565b611bdd565b34801561053057600080fd5b506101f061053f366004613773565b6001600160a01b03166000908152610133602052604090205460ff1690565b34801561056a57600080fd5b5061059361057936600461384c565b610130602052600090815260409020805460019091015482565b6040516101fd929190613c56565b3480156105ad57600080fd5b506101f06105bc366004613961565b611c6d565b3480156105cd57600080fd5b506102a26101345481565b3480156105e457600080fd5b506106166105f336600461384c565b61012f60205260009081526040902080546001909101546001600160a01b031682565b6040516101fd929190613c7a565b34801561063057600080fd5b506102a2600081565b34801561064557600080fd5b506101f0610654366004613773565b6101336020526000908152604090205460ff1681565b34801561067657600080fd5b50610226610685366004613c95565b611c98565b34801561069657600080fd5b5061069f611ee4565b6040516101fd9190613cb7565b3480156106b857600080fd5b506102266106c7366004613773565b611ef3565b3480156106d857600080fd5b506107696106e736600461384c565b6001600160401b03908116600090815261012d6020908152604091829020825160a081018452815460ff808216151580845261010083049091161515948301949094526201000081046001600160a01b0316948201859052600160b01b90049094166060850181905260019091015460070b6080909401849052909391929091565b6040516101fd9493929190613ccf565b34801561078557600080fd5b50610226610794366004613961565b611fe6565b3480156107a557600080fd5b506102a26107b436600461386d565b6101326020526000908152604090205481565b3480156107d357600080fd5b506102266107e2366004613961565b6120b7565b3480156107f357600080fd5b5061013554610808906001600160a01b031681565b6040516101fd9190613d3c565b34801561082157600080fd5b5061087d61083036600461384c565b61012d602052600090815260409020805460019091015460ff808316926101008104909116916201000082046001600160a01b031691600160b01b90046001600160401b03169060070b85565b6040516101fd959493929190613d4a565b34801561089a57600080fd5b506102266108a936600461384c565b6120d3565b3480156108ba57600080fd5b506102266108c936600461386d565b6122a6565b60006001600160e01b03198216637965db0b60e01b14806108ff57506301ffc9a760e01b6001600160e01b03198316145b92915050565b61091d600080516020614e7b83398151915233611c6d565b6109425760405162461bcd60e51b815260040161093990613db4565b60405180910390fd5b6001600160a01b0381166109685760405162461bcd60e51b815260040161093990613dea565b610135546001600160a01b0390811690821681036109985760405162461bcd60e51b815260040161093990613e1d565b61013580546001600160a01b0319166001600160a01b0384161790556040517f823c58e2969bcdf1301b932fcbced62d5d4617880949dd434df13d001b3a1162906109e4908490613cb7565b60405180910390a15050565b610a08600080516020614e7b83398151915233611c6d565b610a245760405162461bcd60e51b815260040161093990613db4565b610a2c6123c2565b600084118015610a3f5750610134548411155b610a5b5760405162461bcd60e51b815260040161093990613e58565b600083118015610a6b5750838311155b610a875760405162461bcd60e51b815260040161093990613e99565b838211610aa65760405162461bcd60e51b815260040161093990613ed3565b846000610ab2826123eb565b602080820151518051908201206040805192830190526000909152909150600080516020614df483398151915214610afc5760405162461bcd60e51b815260040161093990613f0c565b6000610b0b826000015161242a565b6001600160401b038116600090815261012d6020818152604080842061012e8352932091905281549293509091610100900460ff1615610b5d5760405162461bcd60e51b815260040161093990613f45565b815461ff001916610100178255600182810180546001600160401b0389166001600160401b03199091161790558101879055888155600381018890556040517fa023ff258c2cf4bbb89ff7b29a652f01c9132b5ad8bca0f51767a4e972ec22a790610bd39085908d908d908d908d908d90613f55565b60405180910390a15050505050610bea6001609755565b5050505050565b60009081526065602052604090206001015490565b610c1e600080516020614e7b83398151915233611c6d565b610c3a5760405162461bcd60e51b815260040161093990613db4565b60008111610c5a5760405162461bcd60e51b815260040161093990613fcd565b61013454808203610c7d5760405162461bcd60e51b815260040161093990614003565b6101348290556040517f39db4c142f7363a2d6a0c4a06b5f53631194e27e1c9e1ee7996b7e0acc561ce3906109e4908490613894565b336000908152610133602052604090205460ff16610ce35760405162461bcd60e51b815260040161093990613db4565b6001600160401b038216600090815261012e602052604090206005810154610d0c908390614029565b6005820181905560028201541015610d365760405162461bcd60e51b81526004016109399061406c565b7f1124506509059ae4a33548514242566cb78aeb3d1a720b18dbec366182bae5888383604051610d6792919061407c565b60405180910390a1505050565b610d8c600080516020614e7b83398151915233611c6d565b610da85760405162461bcd60e51b815260040161093990613db4565b6001600160401b038216600090815261012d6020526040902054829060ff16610de35760405162461bcd60e51b8152600401610939906140ba565b6001600160401b03808416600090815261012d6020526040902054600160b01b900481169083168103610e285760405162461bcd60e51b8152600401610939906140eb565b826000610e34826123eb565b6040805160208082019092526000905280820151518051910120909150600080516020614df483398151915214610e7d5760405162461bcd60e51b815260040161093990613f0c565b6000610e8c826000015161242a565b9050866001600160401b0316816001600160401b031614610ebf5760405162461bcd60e51b815260040161093990614129565b6001600160401b03808816600090815261012d6020526040908190208054928916600160b01b02600160b01b600160f01b031990931692909217909155517f0ebad5580422e1bba5ee173f19698e506fd96a2d04253a0901c1db86f654c84990610f2c9089908990614139565b60405180910390a150505050505050565b610f4682610bf1565b610f4f816124db565b610f5983836124e5565b505050565b6001600160a01b0381163314610f865760405162461bcd60e51b8152600401610939906141a3565b610f90828261256b565b5050565b6001600160a01b037f0000000000000000000000000000000000000000000000000000000000000000163003610fdc5760405162461bcd60e51b8152600401610939906141ea565b7f00000000000000000000000000000000000000000000000000000000000000006001600160a01b031661100e6125d2565b6001600160a01b0316146110345760405162461bcd60e51b815260040161093990614231565b61103d816125ee565b6040805160008082526020820190925261105991839190612622565b50565b610135546001600160a01b031633146110875760405162461bcd60e51b815260040161093990613db4565b600080600061109584612704565b92509250925060008383836040516020016110b293929190614241565b60408051601f198184030181529181528151602092830120600081815261013290935290822054909250906110e78883614029565b6001600160401b038a16600090815261012e602052604090206003810154919250908211156111285760405162461bcd60e51b8152600401610939906142a8565b8881600201546111389190614029565b600282015560008481526101326020526040812080548b929061115c908490614029565b90915550506040517f5fc112892cdeb5d0ea544d634fb55a2eb4ba066d9ad730b67f34791462ebf51b90611193908c908c9061407c565b60405180910390a150505050505050505050565b6001600160a01b037f00000000000000000000000000000000000000000000000000000000000000001630036111ef5760405162461bcd60e51b8152600401610939906141ea565b7f00000000000000000000000000000000000000000000000000000000000000006001600160a01b03166112216125d2565b6001600160a01b0316146112475760405162461bcd60e51b815260040161093990614231565b611250826125ee565b610f9082826001612622565b611274600080516020614e7b83398151915233611c6d565b6112905760405162461bcd60e51b815260040161093990613db4565b6001600160401b038116600090815261012d6020526040902054819060ff166112cb5760405162461bcd60e51b8152600401610939906140ba565b6001600160401b038216600090815261012d602052604090819020805460ff19169055517fec36a8776cbb637a0a427dc03df67a0283f596365d3d127696243e82d612c88f906109e4908490613bae565b6000306001600160a01b037f000000000000000000000000000000000000000000000000000000000000000016146113665760405162461bcd60e51b81526004016109399061430d565b50600080516020614e3483398151915290565b6113816123c2565b600061138c3361272a565b90506000806113a3836001600160a01b0316612768565b91509150816113c45760405162461bcd60e51b815260040161093990614345565b6001600160401b03808216600090815261012d6020908152604091829020825160a081018452815460ff8082161515835261010082041615159382018490526001600160a01b036201000082041694820194909452600160b01b909304909316606083015260019092015460070b6080820152906114545760405162461bcd60e51b81526004016109399061437c565b6001600160401b038216600090815261012d602090815260408083205460608501518583015161012e9094529382902060010154608086015192516321958b2b60e11b8152620100009092046001600160a01b03169463432b1656946114c29491939092919060040161438c565b600060405180830381600087803b1580156114dc57600080fd5b505af11580156114f0573d6000803e3d6000fd5b505050507f906cdab773befe815c0a81a3837dc4df80e433c0c26e4ee402007515bb777c1c81604001516040516115279190613cb7565b60405180910390a15050505061153d6001609755565b565b611557600080516020614e7b83398151915233611c6d565b6115735760405162461bcd60e51b815260040161093990613db4565b6001600160401b038416600090815261012d6020526040902054849060ff166115ae5760405162461bcd60e51b8152600401610939906140ba565b6115b66123c2565b6000841180156115c95750610134548411155b6115e55760405162461bcd60e51b815260040161093990613e58565b6000831180156115f55750838311155b6116115760405162461bcd60e51b815260040161093990613e99565b8382116116305760405162461bcd60e51b815260040161093990613ed3565b6001600160401b038516600090815261013060209081526040918290208251808401909352805480845260019091015491830191909152156116af578051851461168c5760405162461bcd60e51b815260040161093990613fcd565b838160200151146116af5760405162461bcd60e51b8152600401610939906143e3565b6001600160401b03808716600081815261012d60208181526040808420815160a081018352815460ff808216151583526101008204161515828601526001600160a01b0362010000820416828501818152600160b01b9092049099166060830190815260019093015460070b60808301908152979096529390925290519251935190516321958b2b60e11b815291949363432b1656936117559390928a9160040161438c565b600060405180830381600087803b15801561176f57600080fd5b505af1158015611783573d6000803e3d6000fd5b505050506001600160401b038716600090815261012e602090815260408083208981556003810189905560018082018990556101309093528184208481559092019290925590517f6eaa57f14bb4acd5ffc19285fec33d57c58d9fdf748cc9502219d2bded72f611906117fd908a908a908a908a906143f3565b60405180910390a1505050610bea6001609755565b61181a6123c2565b60008211801561182d5750610134548211155b6118495760405162461bcd60e51b815260040161093990613e58565b6000811180156118595750818111155b6118755760405162461bcd60e51b815260040161093990613e99565b6001600160a01b0383166000908152610133602052604090205460ff166118ae5760405162461bcd60e51b815260040161093990614452565b6040805160a0810182526000808252602082018190529181018290526060810182905260808101919091526118e23361272a565b6001600160a01b03168082526118f790612768565b6001600160401b0316604083015215156020820181905261192a5760405162461bcd60e51b815260040161093990614345565b846000611936826123eb565b6040805160208082019092526000905280820151518051910120909150600080516020614df48339815191521461197f5760405162461bcd60e51b815260040161093990613f0c565b805161198a9061242a565b6001600160401b03908116606085018190526040850151909116146119c15760405162461bcd60e51b815260040161093990614129565b60608301516001600160401b0316600090815261012d6020526040902054610100900460ff1615611a045760405162461bcd60e51b815260040161093990613f45565b6060830180516001600160401b03908116600090815261012d60209081526040808320805462010000600160f01b031916600160b01b8e87160262010000600160b01b03191617620100006001600160a01b038e16021781559451909316825261012e90522086815560038101869055611a7d846127d9565b6001600160401b03908116608087018190526060870180519092166000908152610131602052604080822080546001600160401b031916909317909255610135549251915163335f183960e01b81526001600160a01b039093169263335f183992611aec929091600401614477565b600060405180830381600087803b158015611b0657600080fd5b505af1158015611b1a573d6000803e3d6000fd5b505050606086015160405163f9737db960e01b81526001600160a01b038b16925063f9737db991611b5091600090600401614477565b600060405180830381600087803b158015611b6a57600080fd5b505af1158015611b7e573d6000803e3d6000fd5b505084515160608801516040517f9346111d414b53e51a9c5d64a17479d23c5c981f0ae8f5ef3d211a91011ef4ae9450611bc093508d908d908d908d90614492565b60405180910390a15050505050611bd76001609755565b50505050565b336000908152610133602052604090205460ff16611c0d5760405162461bcd60e51b815260040161093990613db4565b6001600160401b038216600090815261012e602052604090206004810154611c36908390614029565b60048201556040517fd3adca66167eaebe0bf908f97055d75ea826041f45a2ef406a2f03e07a65f75890610d67908590859061407c565b60009182526065602090815260408084206001600160a01b0393909316845291905290205460ff1690565b600082118015611cab5750610134548211155b611cc75760405162461bcd60e51b815260040161093990613e58565b600081118015611cd75750818111155b611cf35760405162461bcd60e51b815260040161093990613e99565b6000611cfe3361272a565b9050600080611d15836001600160a01b0316612768565b9150915081611d365760405162461bcd60e51b815260040161093990614345565b6001600160401b03808216600090815261012d6020908152604091829020825160a081018452815460ff808216151580845261010083049091161515948301949094526001600160a01b036201000082041694820194909452600160b01b909304909316606083015260019092015460070b608082015290611dca5760405162461bcd60e51b8152600401610939906140ba565b6001600160401b038216600090815261012e6020908152604091829020825160c081018452815480825260018301549382019390935260028201549381019390935260038101546060840152600481015460808401526005015460a083015287141580611e3b575085816060015114155b611e575760405162461bcd60e51b8152600401610939906144f8565b61013454871115611e7a5760405162461bcd60e51b815260040161093990614532565b6001600160401b03831660009081526101306020526040908190208881556001810188905590517fd0198e2535194b2efbec973cb73349e6d1edd434a271491d44c2f620a997a3c390611ed29086908b908b90614542565b60405180910390a15050505050505050565b6000611eee6125d2565b905090565b611f0b600080516020614e7b83398151915233611c6d565b611f275760405162461bcd60e51b815260040161093990613db4565b6001600160a01b038116611f4d5760405162461bcd60e51b815260040161093990613dea565b6001600160a01b0381166000908152610133602052604090205460ff1615611f875760405162461bcd60e51b815260040161093990614594565b6001600160a01b0381166000908152610133602052604090819020805460ff19166001179055517fbba7dd87057c9346bdb652d4c49948e76139a24eb1975262e98556f0455466ac90611fdb908390613cb7565b60405180910390a150565b6000611ff13361280b565b90506127108311156120155760405162461bcd60e51b8152600401610939906145d2565b6001600160a01b03821661203b5760405162461bcd60e51b815260040161093990613dea565b6001600160401b038116600090815261012f6020526040908190208481556001810180546001600160a01b0319166001600160a01b03861617905590517ffec0818a0fae8fa0693f4ab6209e6ace854f156067b4069ebede3c8c02622511906120a9908490879087906145e2565b60405180910390a150505050565b6120c082610bf1565b6120c9816124db565b610f59838361256b565b6120eb600080516020614e7b83398151915233611c6d565b6121075760405162461bcd60e51b815260040161093990613db4565b61210f6123c2565b6001600160401b03808216600090815261012d6020908152604091829020825160a081018452815460ff8082161515835261010082041615159382018490526001600160a01b036201000082041694820194909452600160b01b909304909316606083015260019092015460070b60808201529061219f5760405162461bcd60e51b81526004016109399061437c565b6001600160401b038216600090815261012d602090815260408083205460608501518583015161012e9094529382902060010154608086015192516321958b2b60e11b8152620100009092046001600160a01b03169463432b16569461220d9491939092919060040161438c565b600060405180830381600087803b15801561222757600080fd5b505af115801561223b573d6000803e3d6000fd5b5050506001600160401b038316600090815261012d602052604090819020805460ff19166001179055517f5087366327b1aef4b5e946461225164c036e5dda2b25c458ea1bb444586b6a509150612293908490613bae565b60405180910390a1506110596001609755565b600054610100900460ff16158080156122c65750600054600160ff909116105b806122e757506122d5306128d5565b1580156122e7575060005460ff166001145b6123035760405162461bcd60e51b815260040161093990614655565b6000805460ff191660011790558015612326576000805461ff0019166101001790555b61232e6128e4565b61233661290b565b61233e6128e4565b61234960003361293a565b612362600080516020614e7b8339815191526000612944565b61237a600080516020614e7b83398151915233610f3d565b6101348290558015610f90576000805461ff00191690556040517f7f26b83ff96e1f2b6a682f133852f6798a09c465da95921460cefb3847402498906109e490600190614679565b6002609754036123e45760405162461bcd60e51b8152600401610939906146bb565b6002609755565b6123f36136c5565b60408051600080825260208201909252906124178463c33a1cc68385816001612997565b9050612422816129df565b949350505050565b60008060006001607f60991b016001600160a01b0316846000015160405161245291906146ed565b600060405180830381855afa9150503d806000811461248d576040519150601f19603f3d011682016040523d82523d6000602084013e612492565b606091505b5091509150816124b557604051638a7db5bf60e01b815260040160405180910390fd5b6000818060200190518101906124cb9190614704565b95945050505050565b6001609755565b6110598133612a5f565b6124ef8282611c6d565b610f905760008281526065602090815260408083206001600160a01b03851684529091529020805460ff191660011790556125273390565b6001600160a01b0316816001600160a01b0316837f2f8788117e7eff1d82e926ec794901d17c78024a50270940304540a733656f0d60405160405180910390a45050565b6125758282611c6d565b15610f905760008281526065602090815260408083206001600160a01b0385168085529252808320805460ff1916905551339285917ff6391f5c32d9c69d2a47ea670b442974b53935d1edc7fd64eb21e047a839171b9190a45050565b600080516020614e34833981519152546001600160a01b031690565b612606600080516020614e7b83398151915233611c6d565b6110595760405162461bcd60e51b815260040161093990613db4565b7f4910fdfa16fed3260ed0e7147f7cc6da11a60208b5b9406d12a635614ffd91435460ff161561265557610f5983612ab8565b826001600160a01b03166352d1902d6040518163ffffffff1660e01b8152600401602060405180830381865afa9250505080156126af575060408051601f3d908101601f191682019092526126ac91810190614704565b60015b6126cb5760405162461bcd60e51b815260040161093990614770565b600080516020614e3483398151915281146126f85760405162461bcd60e51b8152600401610939906147c6565b50610f59838383612b0c565b6000808061271d61271862015180866147ec565b612b31565b9196909550909350915050565b600080600061273884612ca5565b915091508161274957509192915050565b60008061275583612cd7565b91509150816124cb575093949350505050565b60008061277483612ca5565b9092509050811561278457915091565b8260501b61040a60f01b178060005260206000601660006001607f60991b015afa92506000516001600160401b03169150508115806127c457503d602014155b156127d457506000928392509050565b915091565b6040805160008082526020820190925260006128008463e5f8de4860008560006001612997565b905061242281612d38565b6000808260405160200161281f9190614828565b60405160208183030381529060405290506000806001607f60991b016001600160a01b03168360405161285291906146ed565b600060405180830381855afa9150503d806000811461288d576040519150601f19603f3d011682016040523d82523d6000602084013e612892565b606091505b5091509150816128b557604051638a7db5bf60e01b815260040160405180910390fd5b6000818060200190518101906128cb9190614704565b9695505050505050565b6001600160a01b03163b151590565b600054610100900460ff1661153d5760405162461bcd60e51b815260040161093990614890565b600054610100900460ff166129325760405162461bcd60e51b815260040161093990614890565b61153d612d4f565b610f9082826124e5565b600061294f83610bf1565b600084815260656020526040808220600101859055519192508391839186917fbd79b86ffe0ab8e8776151514217cd7cacd52c909f66475c3af44e129f0b00ff9190a4505050565b60606064876001600160401b031610156129c6578660405163a292827360e01b815260040161093991906148ba565b6129d4878787878787612d76565b979650505050505050565b6129e76136c5565b6000806129f48482612e50565b9250905060028114612a0857612a086148c8565b612a128483612e9c565b8451919091529150612a24848361300a565b612a4257612a328483612e9c565b6020850151919091529150612a58565b6040805160008152602080820190925290840151525b5050919050565b612a698282611c6d565b610f9057612a768161303b565b612a8183602061304d565b604051602001612a929291906148de565b60408051601f198184030181529082905262461bcd60e51b825261093991600401613b8e565b612ac1816128d5565b612add5760405162461bcd60e51b81526004016109399061497a565b600080516020614e3483398151915280546001600160a01b0319166001600160a01b0392909216919091179055565b612b15836131bf565b600082511180612b225750805b15610f5957611bd783836131ff565b60008080838162253d8c612b488362010bd961498a565b612b52919061498a565b9050600062023ab1612b658360046149ad565b612b6f91906149e5565b90506004612b808262023ab16149ad565b612b8b90600361498a565b612b9591906149e5565b612b9f9083614a13565b9150600062164b09612bb284600161498a565b612bbe90610fa06149ad565b612bc891906149e5565b90506004612bd8826105b56149ad565b612be291906149e5565b612bec9084614a13565b612bf790601f61498a565b9250600061098f612c098560506149ad565b612c1391906149e5565b905060006050612c258361098f6149ad565b612c2f91906149e5565b612c399086614a13565b9050612c46600b836149e5565b9450612c5385600c6149ad565b612c5e83600261498a565b612c689190614a13565b91508483612c77603187614a13565b612c829060646149ad565b612c8c919061498a565b612c96919061498a565b9a919950975095505050505050565b600080600160401b600160a01b03831660ff60981b8103612cd157600192506001600160401b03841691505b50915091565b600080826000526016600a602060006002607f60991b015afa9150600051806001600160a01b031691508060a01c61ffff1661040a8114612d1b5760009350600092505b50508115806127c457503d6016146127d457506000928392509050565b60008080612d4684826132a9565b50949350505050565b600054610100900460ff166124d45760405162461bcd60e51b815260040161093990614890565b6060612d896005607f60991b01846132ea565b6000806005607f60991b01888686612da2576000612da5565b60015b8a8a8e604051602001612dbd96959493929190614a35565b60408051601f1981840301815290829052612dd7916146ed565b600060405180830381855af49150503d8060008114612e12576040519150601f19603f3d011682016040523d82523d6000602084013e612e17565b606091505b509150915081612e3a57604051638a7db5bf60e01b815260040160405180910390fd5b612e4381613332565b9998505050505050505050565b600080600080612e60868661340b565b96509092506001600160401b0316905060ff8216600414612e935760405162461bcd60e51b815260040161093990614abf565b95939450505050565b60606000806000612ead868661340b565b96509092506001600160401b0316905060ff821660061480612ed2575060ff82166002145b612eee5760405162461bcd60e51b815260040161093990614b1a565b60051960ff831601612f2757612f04868661340b565b96509092506001600160401b0316905060ff8216600214612f2757612f276148c8565b6000612f338287614029565b90506000826001600160401b03811115612f4f57612f4f6139ee565b6040519080825280601f01601f191660200182016040528015612f79576020820181803683370190505b5090506000875b83811015612fee57898181518110612f9a57612f9a614b2a565b602001015160f81c60f81b838381518110612fb757612fb7614b2a565b60200101906001600160f81b031916908160001a90535081612fd881614b40565b9250508080612fe690614b40565b915050612f80565b5081612ffa858a614029565b9650965050505050509250929050565b600082828151811061301e5761301e614b2a565b6020910101516001600160f81b031916607b60f91b149392505050565b60606108ff6001600160a01b03831660145b6060600061305c836002614b5a565b613067906002614029565b6001600160401b0381111561307e5761307e6139ee565b6040519080825280601f01601f1916602001820160405280156130a8576020820181803683370190505b509050600360fc1b816000815181106130c3576130c3614b2a565b60200101906001600160f81b031916908160001a905350600f60fb1b816001815181106130f2576130f2614b2a565b60200101906001600160f81b031916908160001a9053506000613116846002614b5a565b613121906001614029565b90505b6001811115613199576f181899199a1a9b1b9c1cb0b131b232b360811b85600f166010811061315557613155614b2a565b1a60f81b82828151811061316b5761316b614b2a565b60200101906001600160f81b031916908160001a90535060049490941c9361319281614b72565b9050613124565b5083156131b85760405162461bcd60e51b815260040161093990614bbb565b9392505050565b6131c881612ab8565b6040516001600160a01b038216907fbc7cd75a20ee27fd9adebab32041f755214dbc6bffa90cc0225b39da2e5c2d3b90600090a250565b606061320a836128d5565b6132265760405162461bcd60e51b815260040161093990614c0e565b600080846001600160a01b03168460405161324191906146ed565b600060405180830381855af49150503d806000811461327c576040519150601f19603f3d011682016040523d82523d6000602084013e613281565b606091505b50915091506124cb8282604051806060016040528060278152602001614e5460279139613588565b6000806000806132b9868661340b565b96509092506001600160401b0316905060ff821615612e935760405162461bcd60e51b815260040161093990614c60565b4781811015613310578082604051634787a10360e11b8152600401610939929190613c56565b823f151580611bd75760405163064d954b60e41b815260040160405180910390fd5b606060008060008480602001905181019061334d9190614cd3565b919450925090506001600160401b0382166133875780511561338257604051630e74990760e01b815260040160405180910390fd5b6133ea565b6001600160401b038216605114806133a857506001600160401b0382166071145b156133cf57805160000361338257604051630e74990760e01b815260040160405180910390fd5b8160405163f1f6bced60e01b81526004016109399190613bae565b8215612422578260405163d4bb667160e01b81526004016109399190613894565b60008060008061341b86866135a1565b9050613428600186614029565b94506007600582901c16601f8216601c81106134565760405162461bcd60e51b815260040161093990614d75565b60188160ff1610156134745790945060ff1692508491506135819050565b8060ff166018036134d157600061348b89896135a1565b9050613498600189614029565b975060188160ff1610156134be5760405162461bcd60e51b815260040161093990614da8565b9195505060ff1692508491506135819050565b8060ff1660190361350b5760006134e889896135f0565b90506134f5600289614029565b97509195505061ffff1692508491506135819050565b8060ff16601a036135475760006135228989613629565b905061352f600489614029565b97509195505063ffffffff1692508491506135819050565b8060ff16601b1461355a5761355a6148c8565b60006135668989613662565b9050613573600889614029565b975091955090935085925050505b9250925092565b606083156135975750816131b8565b6131b8838361369b565b60006135ae826001614029565b835110156135ce5760405162461bcd60e51b815260040161093990614de3565b8282815181106135e0576135e0614b2a565b016020015160f81c905092915050565b60006135fd826002614029565b8351101561361d5760405162461bcd60e51b815260040161093990614de3565b50016020015160f01c90565b6000613636826004614029565b835110156136565760405162461bcd60e51b815260040161093990614de3565b50016020015160e01c90565b600061366f826008614029565b8351101561368f5760405162461bcd60e51b815260040161093990614de3565b50016020015160c01c90565b8151156136ab5781518083602001fd5b8060405162461bcd60e51b81526004016109399190613b8e565b6040805160608082018352818301818152825282516020818101909452908152909182015290565b6001600160e01b031981165b811461105957600080fd5b80356108ff816136ed565b60006020828403121561372457613724600080fd5b60006124228484613704565b8015155b82525050565b602081016108ff8284613730565b6001600160a01b031690565b60006108ff82613748565b6136f981613754565b80356108ff8161375f565b60006020828403121561378857613788600080fd5b60006124228484613768565b6001600160401b0381166136f9565b80356108ff81613794565b806136f9565b80356108ff816137ae565b6136f98160070b90565b80356108ff816137bf565b600080600080600060a086880312156137ef576137ef600080fd5b60006137fb88886137a3565b955050602061380c888289016137b4565b945050604061381d888289016137b4565b935050606061382e888289016137b4565b925050608061383f888289016137c9565b9150509295509295909350565b60006020828403121561386157613861600080fd5b600061242284846137a3565b60006020828403121561388257613882600080fd5b600061242284846137b4565b80613734565b602081016108ff828461388e565b600080604083850312156138b8576138b8600080fd5b60006138c485856137a3565b92505060206138d5858286016137b4565b9150509250929050565b600080604083850312156138f5576138f5600080fd5b600061390185856137a3565b92505060206138d5858286016137a3565b60c08101613920828961388e565b61392d602083018861388e565b61393a604083018761388e565b613947606083018661388e565b613954608083018561388e565b6129d460a083018461388e565b6000806040838503121561397757613977600080fd5b600061398385856137b4565b92505060206138d585828601613768565b6000806000606084860312156139ac576139ac600080fd5b60006139b886866137a3565b93505060206139c9868287016137b4565b92505060406139da868287016137b4565b9150509250925092565b601f01601f191690565b634e487b7160e01b600052604160045260246000fd5b613a0d826139e4565b81018181106001600160401b0382111715613a2a57613a2a6139ee565b6040525050565b6000613a3c60405190565b9050613a488282613a04565b919050565b60006001600160401b03821115613a6657613a666139ee565b613a6f826139e4565b60200192915050565b82818337506000910152565b6000613a97613a9284613a4d565b613a31565b905082815260208101848484011115613ab257613ab2600080fd5b613abd848285613a78565b509392505050565b600082601f830112613ad957613ad9600080fd5b8135612422848260208601613a84565b60008060408385031215613aff57613aff600080fd5b6000613b0b8585613768565b92505060208301356001600160401b03811115613b2a57613b2a600080fd5b6138d585828601613ac5565b60005b83811015613b51578181015183820152602001613b39565b50506000910152565b6000613b64825190565b808452602084019350613b7b818560208601613b36565b613b84816139e4565b9093019392505050565b602080825281016131b88184613b5a565b6001600160401b038116613734565b602081016108ff8284613b9f565b60008060008060808587031215613bd557613bd5600080fd5b6000613be187876137a3565b9450506020613bf2878288016137b4565b9350506040613c03878288016137b4565b9250506060613c14878288016137b4565b91505092959194509250565b60008060008060808587031215613c3957613c39600080fd5b6000613c4587876137a3565b9450506020613bf287828801613768565b60408101613c64828561388e565b6131b8602083018461388e565b61373481613754565b60408101613c88828561388e565b6131b86020830184613c71565b60008060408385031215613cab57613cab600080fd5b60006138c485856137b4565b602081016108ff8284613c71565b6137348160070b90565b60808101613cdd8287613730565b613cea6020830186613c71565b613cf76040830185613b9f565b6124cb6060830184613cc5565b60006108ff613d18613d1584613748565b90565b613748565b60006108ff82613d04565b60006108ff82613d1d565b61373481613d28565b602081016108ff8284613d33565b60a08101613d588288613730565b613d656020830187613730565b613d726040830186613c71565b613d7f6060830185613b9f565b6128cb6080830184613cc5565b600e81526000602082016d494e56414c49445f41434345535360901b815291505b5060200190565b602080825281016108ff81613d8c565b600f81526000602082016e494e56414c49445f4144445245535360881b81529150613dad565b602080825281016108ff81613dc4565b600c81526000602082016b53414d455f4144445245535360a01b81529150613dad565b602080825281016108ff81613dfa565b601481526000602082017324a721a7a92922a1aa2fa0a62627a1a0aa24a7a760611b81529150613dad565b602080825281016108ff81613e2d565b601a81526000602082017924a721a7a92922a1aa2fa220a4a62cafa0a62627a1a0aa24a7a760311b81529150613dad565b602080825281016108ff81613e68565b6013815260006020820172125390d3d4949150d517d49154105653515395606a1b81529150613dad565b602080825281016108ff81613ea9565b6012815260006020820171282927a827a9a2a22fa722abafa7aba722a960711b81529150613dad565b602080825281016108ff81613ee3565b60128152600060208201711053149150511657d49151d254d51154915160721b81529150613dad565b602080825281016108ff81613f1c565b60c08101613f638289613b9f565b613f706020830188613b9f565b613f7d604083018761388e565b613f8a606083018661388e565b613f97608083018561388e565b6129d460a0830184613cc5565b601281526000602082017124a72b20a624a22fa0a62627a1a0aa24a7a760711b81529150613dad565b602080825281016108ff81613fa4565b600f81526000602082016e29a0a6a2afa0a62627a1a0aa24a7a760891b81529150613dad565b602080825281016108ff81613fdd565b634e487b7160e01b600052601160045260246000fd5b808201808211156108ff576108ff614013565b6019815260006020820178504c454447455f52455041594d454e545f4f564552464c4f5760381b81529150613dad565b602080825281016108ff8161403c565b60408101613c648285613b9f565b601981526000602082017824a720a1aa24ab22afa9aa27a920a3a2afa82927ab24a222a960391b81529150613dad565b602080825281016108ff8161408a565b600a81526000602082016929a0a6a2afa6a4a722a960b11b81529150613dad565b602080825281016108ff816140ca565b60178152600060208201760494e56414c49445f4d494e45525f4f574e45525348495604c1b81529150613dad565b602080825281016108ff816140fb565b604081016141478285613b9f565b6131b86020830184613b9f565b602f81526000602082017f416363657373436f6e74726f6c3a2063616e206f6e6c792072656e6f756e636581526e103937b632b9903337b91039b2b63360891b602082015291505b5060400190565b602080825281016108ff81614154565b602c8152600060208201600080516020614e1483398151915281526b19195b1959d85d1958d85b1b60a21b6020820152915061419c565b602080825281016108ff816141b3565b602c8152600060208201600080516020614e1483398151915281526b6163746976652070726f787960a01b6020820152915061419c565b602080825281016108ff816141fa565b600061424d828661388e565b60208201915061425d828561388e565b60208201915061426d828461388e565b506020019392505050565b60198152600060208201784441494c595f414c4c4f434154494f4e5f4f564552464c4f5760381b81529150613dad565b602080825281016108ff81614278565b603881526000602082017f555550535570677261646561626c653a206d757374206e6f742062652063616c8152771b1959081d1a1c9bdd59da0819195b1959d85d1958d85b1b60421b6020820152915061419c565b602080825281016108ff816142b8565b601181526000602082017012539050d512559157d050d513d497d251607a1b81529150613dad565b602080825281016108ff8161431d565b601081526000602082016f04e4f4e5f4f4e424f41524445445f53560841b81529150613dad565b602080825281016108ff81614355565b6080810161439a8287613b9f565b6143a76020830186613c71565b613cf7604083018561388e565b601881526000602082017724a72b20a624a22fa220a4a62cafa0a62627a1a0aa24a7a760411b81529150613dad565b602080825281016108ff816143b4565b608081016144018287613b9f565b61440e602083018661388e565b61441b604083018561388e565b6124cb606083018461388e565b60138152600060208201721253959053125117d5105491d15517d413d3d3606a1b81529150613dad565b602080825281016108ff81614428565b60006108ff613d158381565b61373481614462565b604081016144858285613b9f565b6131b8602083018461446e565b60c080825281016144a38189613b5a565b90506144b26020830188613b9f565b6144bf6040830187613b9f565b6139476060830186613c71565b601581526000602082017414d0535157d0531313d0d0551253d397d312535255605a1b81529150613dad565b602080825281016108ff816144cc565b6013815260006020820172414c4c4f434154494f4e5f4f564552464c4f5760681b81529150613dad565b602080825281016108ff81614508565b606081016145508286613b9f565b61455d602083018561388e565b612422604083018461388e565b60138152600060208201721053149150511657d050d512559157d413d3d3606a1b81529150613dad565b602080825281016108ff8161456a565b6017815260006020820176494e56414c49445f52455354414b494e475f524154494f60481b81529150613dad565b602080825281016108ff816145a4565b606081016145f08286613b9f565b6145fd602083018561388e565b6124226040830184613c71565b602e81526000602082017f496e697469616c697a61626c653a20636f6e747261637420697320616c72656181526d191e481a5b9a5d1a585b1a5e995960921b6020820152915061419c565b602080825281016108ff8161460a565b600060ff82166108ff565b61373481614665565b602081016108ff8284614670565b601f81526000602082017f5265656e7472616e637947756172643a207265656e7472616e742063616c6c0081529150613dad565b602080825281016108ff81614687565b60006146d5825190565b6146e3818560208601613b36565b9290920192915050565b60006131b882846146cb565b80516108ff816137ae565b60006020828403121561471957614719600080fd5b600061242284846146f9565b602e81526000602082017f45524331393637557067726164653a206e657720696d706c656d656e7461746981526d6f6e206973206e6f74205555505360901b6020820152915061419c565b602080825281016108ff81614725565b602981526000602082017f45524331393637557067726164653a20756e737570706f727465642070726f788152681a58589b195555525160ba1b6020820152915061419c565b602080825281016108ff81614780565b634e487b7160e01b600052601260045260246000fd5b6000826147fb576147fb6147d6565b500490565b60006108ff8260601b90565b60006108ff82614800565b61373461482382613754565b61480c565b61020560f11b8152600201600061483f8284614817565b50601401919050565b602b81526000602082017f496e697469616c697a61626c653a20636f6e7472616374206973206e6f74206981526a6e697469616c697a696e6760a81b6020820152915061419c565b602080825281016108ff81614848565b60006001600160401b0382166108ff565b613734816148a0565b602081016108ff82846148b1565b634e487b7160e01b600052600160045260246000fd5b76020b1b1b2b9b9a1b7b73a3937b61d1030b1b1b7bab73a1604d1b8152601701600061490a82856146cb565b7001034b99036b4b9b9b4b733903937b6329607d1b8152601101915061242282846146cb565b602d81526000602082017f455243313936373a206e657720696d706c656d656e746174696f6e206973206e81526c1bdd08184818dbdb9d1c9858dd609a1b6020820152915061419c565b602080825281016108ff81614930565b80820160008212801584831290811690159190911617156108ff576108ff614013565b8181028060008312600160ff1b851416156149ca576149ca614013565b82820584148315176149de576149de614013565b5092915050565b6000826149f4576149f46147d6565b600160ff1b821460001984141615614a0e57614a0e614013565b500590565b818103600083128015838313168383129190911617156108ff576108ff614013565b60c08101614a438289613b9f565b614a50602083018861388e565b614a5d6040830187613b9f565b614a6a6060830186613b9f565b8181036080830152614a7c8185613b5a565b90506129d460a08301846148b1565b601f81526000602082017f696e76616c6964206d616a20286578706563746564204d616a4172726179290081529150613dad565b602080825281016108ff81614a8b565b602e81526000602082017f696e76616c6964206d616a20286578706563746564204d616a546167206f722081526d4d616a42797465537472696e672960901b6020820152915061419c565b602080825281016108ff81614acf565b634e487b7160e01b600052603260045260246000fd5b60006000198203614b5357614b53614013565b5060010190565b8181028082158382048514176149de576149de614013565b600081614b8157614b81614013565b506000190190565b60208082527f537472696e67733a20686578206c656e67746820696e73756666696369656e7491019081526000613dad565b602080825281016108ff81614b89565b602681526000602082017f416464726573733a2064656c65676174652063616c6c20746f206e6f6e2d636f8152651b9d1c9858dd60d21b6020820152915061419c565b602080825281016108ff81614bcb565b602581526000602082017f696e76616c6964206d616a20286578706563746564204d616a556e7369676e6581526464496e742960d81b6020820152915061419c565b602080825281016108ff81614c1e565b80516108ff81613794565b6000614c89613a9284613a4d565b905082815260208101848484011115614ca457614ca4600080fd5b613abd848285613b36565b600082601f830112614cc357614cc3600080fd5b8151612422848260208601614c7b565b600080600060608486031215614ceb57614ceb600080fd5b6000614cf786866146f9565b9350506020614d0886828701614c70565b92505060408401516001600160401b03811115614d2757614d27600080fd5b6139da86828701614caf565b602581526000602082017f63616e6e6f742068616e646c6520686561646572732077697468206578747261815264203e20323760d81b6020820152915061419c565b602080825281016108ff81614d33565b600c81526000602082016b34b73b30b634b21031b137b960a11b81529150613dad565b602080825281016108ff81614d85565b6014815260006020820173736c6963696e67206f7574206f662072616e676560601b81529150613dad565b602080825281016108ff81614db856fec5d2460186f7233c927e7db2dcc703c0e500b653ca82273b7bfad8045d85a47046756e6374696f6e206d7573742062652063616c6c6564207468726f75676820360894a13ba1a3210667c828492db98dca3e2076cc3735a920a3ca505d382bbc416464726573733a206c6f772d6c6576656c2064656c65676174652063616c6c206661696c6564bece676c514da111c8b3698f9a0424811c5c874fd0667943c7e3c04054274a3ea2646970667358221220ad5fee8fbd7a95ec9b88cd5b8e7b764f75d6670547017150f0132a4288f7bfc564736f6c63430008110033",
  "devdoc": {
    "kind": "dev",
    "methods": {
      "acceptBeneficiaryAddress(uint64)": {
        "details": "Only triggered by registry admin",
        "params": {
          "_ownerId": "Storage Provider owner ID"
        }
      },
      "deactivateStorageProvider(uint64)": {
        "details": "Only triggered by registry admin",
        "params": {
          "_ownerId": "Storage Provider owner ID"
        }
      },
      "getRoleAdmin(bytes32)": {
        "details": "Returns the admin role that controls `role`. See {grantRole} and {revokeRole}. To change a role's admin, use {_setRoleAdmin}."
      },
      "grantRole(bytes32,address)": {
        "details": "Grants `role` to `account`. If `account` had not been already granted `role`, emits a {RoleGranted} event. Requirements: - the caller must have ``role``'s admin role. May emit a {RoleGranted} event."
      },
      "hasRole(bytes32,address)": {
        "details": "Returns `true` if `account` has been granted `role`."
      },
      "increasePledgeRepayment(uint64,uint256)": {
        "params": {
          "_ownerId": "Storage Provider owner ID",
          "_repaidPledge": "Withdrawn initial pledge after sector termination"
        }
      },
      "increaseRewards(uint64,uint256)": {
        "params": {
          "_accuredRewards": "Withdrawn rewards from SP's miner actor",
          "_ownerId": "Storage Provider owner ID"
        }
      },
      "increaseUsedAllocation(uint64,uint256,uint256)": {
        "params": {
          "_allocated": "FIL amount that is going to be pledged for Storage Provider",
          "_ownerId": "Storage Provider owner ID",
          "_timestamp": "Transaction timestamp"
        }
      },
      "initialize(uint256)": {
        "details": "Contract initializer function.",
        "params": {
          "_maxAllocation": "Number of maximum FIL allocated to a single storage provider"
        }
      },
      "onboardStorageProvider(uint64,uint256,uint256,uint256,int64)": {
        "details": "Only triggered by registry admin",
        "params": {
          "_allocationLimit": "FIL allocation for storage provider",
          "_dailyAllocation": "Daily FIL allocation for storage provider",
          "_lastEpoch": "Last epoch for FIL allocation utilization",
          "_minerId": "Storage Provider miner ID in Filecoin network",
          "_repayment": "FIL repayment for storage provider"
        }
      },
      "proxiableUUID()": {
        "details": "Implementation of the ERC1822 {proxiableUUID} function. This returns the storage slot used by the implementation. It is used to validate the implementation's compatibility when performing an upgrade. IMPORTANT: A proxy pointing at a proxiable contract should not be considered proxiable itself, because this risks bricking a proxy that upgrades to it, by delegating to itself until out of gas. Thus it is critical that this function revert if invoked through a proxy. This is guaranteed by the `notDelegated` modifier."
      },
      "register(uint64,address,uint256,uint256)": {
        "details": "Only triggered by Storage Provider owner",
        "params": {
          "_allocationLimit": "FIL allocation for storage provider",
          "_dailyAllocation": "Daily FIL allocation for storage provider",
          "_minerId": "Storage Provider miner ID in Filecoin network",
          "_targetPool": "Target liquid staking strategy"
        }
      },
      "registerPool(address)": {
        "details": "Only triggered by registry admin",
        "params": {
          "_pool": "Address of pool smart contract"
        }
      },
      "renounceRole(bytes32,address)": {
        "details": "Revokes `role` from the calling account. Roles are often managed via {grantRole} and {revokeRole}: this function's purpose is to provide a mechanism for accounts to lose their privileges if they are compromised (such as when a trusted device is misplaced). If the calling account had been revoked `role`, emits a {RoleRevoked} event. Requirements: - the caller must be `account`. May emit a {RoleRevoked} event."
      },
      "requestAllocationLimitUpdate(uint256,uint256)": {
        "details": "Only triggered by Storage Provider owner",
        "params": {
          "_allocationLimit": "New FIL allocation for storage provider",
          "_dailyAllocation": "New daily FIL allocation for storage provider"
        }
      },
      "revokeRole(bytes32,address)": {
        "details": "Revokes `role` from `account`. If `account` had been granted `role`, emits a {RoleRevoked} event. Requirements: - the caller must have ``role``'s admin role. May emit a {RoleRevoked} event."
      },
      "setCollateralAddress(address)": {
        "details": "Only triggered by registry admin",
        "params": {
          "_collateral": "StorageProviderCollateral smart contract address"
        }
      },
      "setMinerAddress(uint64,uint64)": {
        "details": "Only triggered by registry admin",
        "params": {
          "_minerId": "Storage Provider new miner ID",
          "_ownerId": "Storage Provider owner ID"
        }
      },
      "setRestaking(uint256,address)": {
        "details": "Only triggered by Storage Provider",
        "params": {
          "_restakingAddress": "Restaking address (f4 address) for Storage Provider",
          "_restakingRatio": "Restaking ratio for Storage Provider"
        }
      },
      "supportsInterface(bytes4)": {
        "details": "See {IERC165-supportsInterface}."
      },
      "updateAllocationLimit(uint64,uint256,uint256,uint256)": {
        "details": "Only triggered by registry admin",
        "params": {
          "_allocationLimit": "New FIL allocation for storage provider",
          "_dailyAllocation": "New daily FIL allocation for storage provider",
          "_ownerId": "Storage provider owner ID",
          "_repaymentAmount": "New FIL repayment amount for storage provider"
        }
      },
      "updateMaxAllocation(uint256)": {
        "params": {
          "allocation": "New max allocation per SP"
        }
      },
      "upgradeTo(address)": {
        "details": "Upgrade the implementation of the proxy to `newImplementation`. Calls {_authorizeUpgrade}. Emits an {Upgraded} event."
      },
      "upgradeToAndCall(address,bytes)": {
        "details": "Upgrade the implementation of the proxy to `newImplementation`, and subsequently execute the function call encoded in `data`. Calls {_authorizeUpgrade}. Emits an {Upgraded} event."
      }
    },
    "title": "Storage Provider Registry contract allows storage providers to register in liquid staking protocol and ask for a FIL allocation. Once Storage Provider is registered and signaled their desired FIL allocation it needs to transfer",
    "version": 1
  },
  "userdoc": {
    "errors": {
      "ActorError(int256)": [
        {
          "notice": "the called actor returned an error as part of its expected behaviour"
        }
      ],
      "ActorNotFound()": [
        {
          "notice": "the actor is not found"
        }
      ],
      "FailToCallActor()": [
        {
          "notice": "an error happened trying to call the actor"
        },
        {
          "notice": "an error happened trying to call the actor"
        }
      ],
      "InvalidActorID(uint64)": [
        {
          "notice": "the provided actor id is not valid"
        }
      ],
      "InvalidCodec(uint64)": [
        {
          "notice": "the codec received is not valid"
        }
      ],
      "InvalidResponseLength()": [
        {
          "notice": "the response received is not correct. In some case no response is expected and we received one, or a response was indeed expected and we received none."
        }
      ],
      "NotEnoughBalance(uint256,uint256)": [
        {
          "notice": "the smart contract has no enough balance to transfer"
        }
      ]
    },
    "kind": "user",
    "methods": {
      "acceptBeneficiaryAddress(uint64)": {
        "notice": "Accept beneficiary address transfer and activate FIL allocation"
      },
      "allocations(uint64)": {
        "notice": "Return allocation information for a storage provider"
      },
      "changeBeneficiaryAddress()": {
        "notice": "Transfer beneficiary address of a miner to the target pool"
      },
      "deactivateStorageProvider(uint64)": {
        "notice": "Deactive storage provider with ID `_ownerId`"
      },
      "getStorageProvider(uint64)": {
        "notice": "Return Storage Provider information with `_ownerId`"
      },
      "increasePledgeRepayment(uint64,uint256)": {
        "notice": "Increase repaid pledge by Storage Provider"
      },
      "increaseRewards(uint64,uint256)": {
        "notice": "Increase collected rewards by Storage Provider"
      },
      "increaseUsedAllocation(uint64,uint256,uint256)": {
        "notice": "Increase used allocation for Storage Provider"
      },
      "isActivePool(address)": {
        "notice": "Return a boolean flag whether `_pool` is active or not"
      },
      "isActiveProvider(uint64)": {
        "notice": "Return a boolean flag of Storage Provider activity"
      },
      "onboardStorageProvider(uint64,uint256,uint256,uint256,int64)": {
        "notice": "Onboard storage provider with `_minerId`, desired `_allocationLimit`, `_repayment` amount"
      },
      "register(uint64,address,uint256,uint256)": {
        "notice": "Register storage provider with `_minerId`, desired `_allocationLimit` and `_targetPool`"
      },
      "registerPool(address)": {
        "notice": "Register new liquid staking pool"
      },
      "requestAllocationLimitUpdate(uint256,uint256)": {
        "notice": "Request storage provider's FIL allocation update with `_allocationLimit`"
      },
      "restakings(uint64)": {
        "notice": "Return a restaking information for a storage provider"
      },
      "setCollateralAddress(address)": {
        "notice": "Update StorageProviderCollateral smart contract"
      },
      "setMinerAddress(uint64,uint64)": {
        "notice": "Update storage provider miner ID with `_minerId`"
      },
      "setRestaking(uint256,address)": {
        "notice": "Update storage provider's restaking ratio"
      },
      "updateAllocationLimit(uint64,uint256,uint256,uint256)": {
        "notice": "Update storage provider FIL allocation with `_allocationLimit`"
      },
      "updateMaxAllocation(uint256)": {
        "notice": "Updates maximum allocation amount for SP"
      }
    },
    "version": 1
  },
  "storageLayout": {
    "storage": [
      {
        "astId": 14033,
        "contract": "contracts/StorageProviderRegistry.sol:StorageProviderRegistry",
        "label": "_initialized",
        "offset": 0,
        "slot": "0",
        "type": "t_uint8"
      },
      {
        "astId": 14036,
        "contract": "contracts/StorageProviderRegistry.sol:StorageProviderRegistry",
        "label": "_initializing",
        "offset": 1,
        "slot": "0",
        "type": "t_bool"
      },
      {
        "astId": 16467,
        "contract": "contracts/StorageProviderRegistry.sol:StorageProviderRegistry",
        "label": "__gap",
        "offset": 0,
        "slot": "1",
        "type": "t_array(t_uint256)50_storage"
      },
      {
        "astId": 16746,
        "contract": "contracts/StorageProviderRegistry.sol:StorageProviderRegistry",
        "label": "__gap",
        "offset": 0,
        "slot": "51",
        "type": "t_array(t_uint256)50_storage"
      },
      {
        "astId": 13093,
        "contract": "contracts/StorageProviderRegistry.sol:StorageProviderRegistry",
        "label": "_roles",
        "offset": 0,
        "slot": "101",
        "type": "t_mapping(t_bytes32,t_struct(RoleData)13088_storage)"
      },
      {
        "astId": 13388,
        "contract": "contracts/StorageProviderRegistry.sol:StorageProviderRegistry",
        "label": "__gap",
        "offset": 0,
        "slot": "102",
        "type": "t_array(t_uint256)49_storage"
      },
      {
        "astId": 14345,
        "contract": "contracts/StorageProviderRegistry.sol:StorageProviderRegistry",
        "label": "_status",
        "offset": 0,
        "slot": "151",
        "type": "t_uint256"
      },
      {
        "astId": 14403,
        "contract": "contracts/StorageProviderRegistry.sol:StorageProviderRegistry",
        "label": "__gap",
        "offset": 0,
        "slot": "152",
        "type": "t_array(t_uint256)49_storage"
      },
      {
        "astId": 14015,
        "contract": "contracts/StorageProviderRegistry.sol:StorageProviderRegistry",
        "label": "__gap",
        "offset": 0,
        "slot": "201",
        "type": "t_array(t_uint256)50_storage"
      },
      {
        "astId": 14330,
        "contract": "contracts/StorageProviderRegistry.sol:StorageProviderRegistry",
        "label": "__gap",
        "offset": 0,
        "slot": "251",
        "type": "t_array(t_uint256)50_storage"
      },
      {
        "astId": 3434,
        "contract": "contracts/StorageProviderRegistry.sol:StorageProviderRegistry",
        "label": "storageProviders",
        "offset": 0,
        "slot": "301",
        "type": "t_mapping(t_uint64,t_struct(StorageProvider)6165_storage)"
      },
      {
        "astId": 3439,
        "contract": "contracts/StorageProviderRegistry.sol:StorageProviderRegistry",
        "label": "allocations",
        "offset": 0,
        "slot": "302",
        "type": "t_mapping(t_uint64,t_struct(SPAllocation)6178_storage)"
      },
      {
        "astId": 3444,
        "contract": "contracts/StorageProviderRegistry.sol:StorageProviderRegistry",
        "label": "restakings",
        "offset": 0,
        "slot": "303",
        "type": "t_mapping(t_uint64,t_struct(SPRestaking)6183_storage)"
      },
      {
        "astId": 3449,
        "contract": "contracts/StorageProviderRegistry.sol:StorageProviderRegistry",
        "label": "allocationRequests",
        "offset": 0,
        "slot": "304",
        "type": "t_mapping(t_uint64,t_struct(AllocationRequest)6188_storage)"
      },
      {
        "astId": 3453,
        "contract": "contracts/StorageProviderRegistry.sol:StorageProviderRegistry",
        "label": "sectorSizes",
        "offset": 0,
        "slot": "305",
        "type": "t_mapping(t_uint64,t_uint64)"
      },
      {
        "astId": 3457,
        "contract": "contracts/StorageProviderRegistry.sol:StorageProviderRegistry",
        "label": "dailyUsages",
        "offset": 0,
        "slot": "306",
        "type": "t_mapping(t_bytes32,t_uint256)"
      },
      {
        "astId": 3461,
        "contract": "contracts/StorageProviderRegistry.sol:StorageProviderRegistry",
        "label": "pools",
        "offset": 0,
        "slot": "307",
        "type": "t_mapping(t_address,t_bool)"
      },
      {
        "astId": 3468,
        "contract": "contracts/StorageProviderRegistry.sol:StorageProviderRegistry",
        "label": "maxAllocation",
        "offset": 0,
        "slot": "308",
        "type": "t_uint256"
      },
      {
        "astId": 3471,
        "contract": "contracts/StorageProviderRegistry.sol:StorageProviderRegistry",
        "label": "collateral",
        "offset": 0,
        "slot": "309",
        "type": "t_contract(IStorageProviderCollateralClient)5386"
      }
    ],
    "types": {
      "t_address": {
        "encoding": "inplace",
        "label": "address",
        "numberOfBytes": "20"
      },
      "t_array(t_uint256)49_storage": {
        "base": "t_uint256",
        "encoding": "inplace",
        "label": "uint256[49]",
        "numberOfBytes": "1568"
      },
      "t_array(t_uint256)50_storage": {
        "base": "t_uint256",
        "encoding": "inplace",
        "label": "uint256[50]",
        "numberOfBytes": "1600"
      },
      "t_bool": {
        "encoding": "inplace",
        "label": "bool",
        "numberOfBytes": "1"
      },
      "t_bytes32": {
        "encoding": "inplace",
        "label": "bytes32",
        "numberOfBytes": "32"
      },
      "t_contract(IStorageProviderCollateralClient)5386": {
        "encoding": "inplace",
        "label": "contract IStorageProviderCollateralClient",
        "numberOfBytes": "20"
      },
      "t_int64": {
        "encoding": "inplace",
        "label": "int64",
        "numberOfBytes": "8"
      },
      "t_mapping(t_address,t_bool)": {
        "encoding": "mapping",
        "key": "t_address",
        "label": "mapping(address => bool)",
        "numberOfBytes": "32",
        "value": "t_bool"
      },
      "t_mapping(t_bytes32,t_struct(RoleData)13088_storage)": {
        "encoding": "mapping",
        "key": "t_bytes32",
        "label": "mapping(bytes32 => struct AccessControlUpgradeable.RoleData)",
        "numberOfBytes": "32",
        "value": "t_struct(RoleData)13088_storage"
      },
      "t_mapping(t_bytes32,t_uint256)": {
        "encoding": "mapping",
        "key": "t_bytes32",
        "label": "mapping(bytes32 => uint256)",
        "numberOfBytes": "32",
        "value": "t_uint256"
      },
      "t_mapping(t_uint64,t_struct(AllocationRequest)6188_storage)": {
        "encoding": "mapping",
        "key": "t_uint64",
        "label": "mapping(uint64 => struct StorageProviderTypes.AllocationRequest)",
        "numberOfBytes": "32",
        "value": "t_struct(AllocationRequest)6188_storage"
      },
      "t_mapping(t_uint64,t_struct(SPAllocation)6178_storage)": {
        "encoding": "mapping",
        "key": "t_uint64",
        "label": "mapping(uint64 => struct StorageProviderTypes.SPAllocation)",
        "numberOfBytes": "32",
        "value": "t_struct(SPAllocation)6178_storage"
      },
      "t_mapping(t_uint64,t_struct(SPRestaking)6183_storage)": {
        "encoding": "mapping",
        "key": "t_uint64",
        "label": "mapping(uint64 => struct StorageProviderTypes.SPRestaking)",
        "numberOfBytes": "32",
        "value": "t_struct(SPRestaking)6183_storage"
      },
      "t_mapping(t_uint64,t_struct(StorageProvider)6165_storage)": {
        "encoding": "mapping",
        "key": "t_uint64",
        "label": "mapping(uint64 => struct StorageProviderTypes.StorageProvider)",
        "numberOfBytes": "32",
        "value": "t_struct(StorageProvider)6165_storage"
      },
      "t_mapping(t_uint64,t_uint64)": {
        "encoding": "mapping",
        "key": "t_uint64",
        "label": "mapping(uint64 => uint64)",
        "numberOfBytes": "32",
        "value": "t_uint64"
      },
      "t_struct(AllocationRequest)6188_storage": {
        "encoding": "inplace",
        "label": "struct StorageProviderTypes.AllocationRequest",
        "members": [
          {
            "astId": 6185,
            "contract": "contracts/StorageProviderRegistry.sol:StorageProviderRegistry",
            "label": "allocationLimit",
            "offset": 0,
            "slot": "0",
            "type": "t_uint256"
          },
          {
            "astId": 6187,
            "contract": "contracts/StorageProviderRegistry.sol:StorageProviderRegistry",
            "label": "dailyAllocation",
            "offset": 0,
            "slot": "1",
            "type": "t_uint256"
          }
        ],
        "numberOfBytes": "64"
      },
      "t_struct(RoleData)13088_storage": {
        "encoding": "inplace",
        "label": "struct AccessControlUpgradeable.RoleData",
        "members": [
          {
            "astId": 13085,
            "contract": "contracts/StorageProviderRegistry.sol:StorageProviderRegistry",
            "label": "members",
            "offset": 0,
            "slot": "0",
            "type": "t_mapping(t_address,t_bool)"
          },
          {
            "astId": 13087,
            "contract": "contracts/StorageProviderRegistry.sol:StorageProviderRegistry",
            "label": "adminRole",
            "offset": 0,
            "slot": "1",
            "type": "t_bytes32"
          }
        ],
        "numberOfBytes": "64"
      },
      "t_struct(SPAllocation)6178_storage": {
        "encoding": "inplace",
        "label": "struct StorageProviderTypes.SPAllocation",
        "members": [
          {
            "astId": 6167,
            "contract": "contracts/StorageProviderRegistry.sol:StorageProviderRegistry",
            "label": "allocationLimit",
            "offset": 0,
            "slot": "0",
            "type": "t_uint256"
          },
          {
            "astId": 6169,
            "contract": "contracts/StorageProviderRegistry.sol:StorageProviderRegistry",
            "label": "repayment",
            "offset": 0,
            "slot": "1",
            "type": "t_uint256"
          },
          {
            "astId": 6171,
            "contract": "contracts/StorageProviderRegistry.sol:StorageProviderRegistry",
            "label": "usedAllocation",
            "offset": 0,
            "slot": "2",
            "type": "t_uint256"
          },
          {
            "astId": 6173,
            "contract": "contracts/StorageProviderRegistry.sol:StorageProviderRegistry",
            "label": "dailyAllocation",
            "offset": 0,
            "slot": "3",
            "type": "t_uint256"
          },
          {
            "astId": 6175,
            "contract": "contracts/StorageProviderRegistry.sol:StorageProviderRegistry",
            "label": "accruedRewards",
            "offset": 0,
            "slot": "4",
            "type": "t_uint256"
          },
          {
            "astId": 6177,
            "contract": "contracts/StorageProviderRegistry.sol:StorageProviderRegistry",
            "label": "repaidPledge",
            "offset": 0,
            "slot": "5",
            "type": "t_uint256"
          }
        ],
        "numberOfBytes": "192"
      },
      "t_struct(SPRestaking)6183_storage": {
        "encoding": "inplace",
        "label": "struct StorageProviderTypes.SPRestaking",
        "members": [
          {
            "astId": 6180,
            "contract": "contracts/StorageProviderRegistry.sol:StorageProviderRegistry",
            "label": "restakingRatio",
            "offset": 0,
            "slot": "0",
            "type": "t_uint256"
          },
          {
            "astId": 6182,
            "contract": "contracts/StorageProviderRegistry.sol:StorageProviderRegistry",
            "label": "restakingAddress",
            "offset": 0,
            "slot": "1",
            "type": "t_address"
          }
        ],
        "numberOfBytes": "64"
      },
      "t_struct(StorageProvider)6165_storage": {
        "encoding": "inplace",
        "label": "struct StorageProviderTypes.StorageProvider",
        "members": [
          {
            "astId": 6156,
            "contract": "contracts/StorageProviderRegistry.sol:StorageProviderRegistry",
            "label": "active",
            "offset": 0,
            "slot": "0",
            "type": "t_bool"
          },
          {
            "astId": 6158,
            "contract": "contracts/StorageProviderRegistry.sol:StorageProviderRegistry",
            "label": "onboarded",
            "offset": 1,
            "slot": "0",
            "type": "t_bool"
          },
          {
            "astId": 6160,
            "contract": "contracts/StorageProviderRegistry.sol:StorageProviderRegistry",
            "label": "targetPool",
            "offset": 2,
            "slot": "0",
            "type": "t_address"
          },
          {
            "astId": 6162,
            "contract": "contracts/StorageProviderRegistry.sol:StorageProviderRegistry",
            "label": "minerId",
            "offset": 22,
            "slot": "0",
            "type": "t_uint64"
          },
          {
            "astId": 6164,
            "contract": "contracts/StorageProviderRegistry.sol:StorageProviderRegistry",
            "label": "lastEpoch",
            "offset": 0,
            "slot": "1",
            "type": "t_int64"
          }
        ],
        "numberOfBytes": "64"
      },
      "t_uint256": {
        "encoding": "inplace",
        "label": "uint256",
        "numberOfBytes": "32"
      },
      "t_uint64": {
        "encoding": "inplace",
        "label": "uint64",
        "numberOfBytes": "8"
      },
      "t_uint8": {
        "encoding": "inplace",
        "label": "uint8",
        "numberOfBytes": "1"
      }
    }
  }
}