{
  "address": "0xd78368beB78fdF2198CF804ebC06c05751766d2A",
  "abi": [
    {
      "inputs": [
        {
          "internalType": "contract IWFIL",
          "name": "_wFIL",
          "type": "address"
        },
        {
          "internalType": "address",
          "name": "_registry",
          "type": "address"
        },
        {
          "internalType": "uint256",
          "name": "_baseRequirements",
          "type": "uint256"
        }
      ],
      "stateMutability": "nonpayable",
      "type": "constructor"
    },
    {
      "anonymous": false,
      "inputs": [
        {
          "indexed": true,
          "internalType": "bytes32",
          "name": "role",
          "type": "bytes32"
        },
        {
          "indexed": true,
          "internalType": "bytes32",
          "name": "previousAdminRole",
          "type": "bytes32"
        },
        {
          "indexed": true,
          "internalType": "bytes32",
          "name": "newAdminRole",
          "type": "bytes32"
        }
      ],
      "name": "RoleAdminChanged",
      "type": "event"
    },
    {
      "anonymous": false,
      "inputs": [
        {
          "indexed": true,
          "internalType": "bytes32",
          "name": "role",
          "type": "bytes32"
        },
        {
          "indexed": true,
          "internalType": "address",
          "name": "account",
          "type": "address"
        },
        {
          "indexed": true,
          "internalType": "address",
          "name": "sender",
          "type": "address"
        }
      ],
      "name": "RoleGranted",
      "type": "event"
    },
    {
      "anonymous": false,
      "inputs": [
        {
          "indexed": true,
          "internalType": "bytes32",
          "name": "role",
          "type": "bytes32"
        },
        {
          "indexed": true,
          "internalType": "address",
          "name": "account",
          "type": "address"
        },
        {
          "indexed": true,
          "internalType": "address",
          "name": "sender",
          "type": "address"
        }
      ],
      "name": "RoleRevoked",
      "type": "event"
    },
    {
      "anonymous": false,
      "inputs": [
        {
          "indexed": false,
          "internalType": "address",
          "name": "registry",
          "type": "address"
        }
      ],
      "name": "SetRegistryAddress",
      "type": "event"
    },
    {
      "anonymous": false,
      "inputs": [
        {
          "indexed": false,
          "internalType": "uint64",
          "name": "_ownerId",
          "type": "uint64"
        },
        {
          "indexed": false,
          "internalType": "uint256",
          "name": "amount",
          "type": "uint256"
        }
      ],
      "name": "StorageProviderCollateralDeposit",
      "type": "event"
    },
    {
      "anonymous": false,
      "inputs": [
        {
          "indexed": false,
          "internalType": "uint64",
          "name": "_ownerId",
          "type": "uint64"
        },
        {
          "indexed": false,
          "internalType": "uint256",
          "name": "lockedCollateral",
          "type": "uint256"
        },
        {
          "indexed": false,
          "internalType": "uint256",
          "name": "availableCollateral",
          "type": "uint256"
        },
        {
          "indexed": false,
          "internalType": "bool",
          "name": "isUnlock",
          "type": "bool"
        }
      ],
      "name": "StorageProviderCollateralRebalance",
      "type": "event"
    },
    {
      "anonymous": false,
      "inputs": [
        {
          "indexed": false,
          "internalType": "uint64",
          "name": "_ownerId",
          "type": "uint64"
        },
        {
          "indexed": false,
          "internalType": "uint256",
          "name": "slashingAmt",
          "type": "uint256"
        },
        {
          "indexed": false,
          "internalType": "address",
          "name": "pool",
          "type": "address"
        }
      ],
      "name": "StorageProviderCollateralSlash",
      "type": "event"
    },
    {
      "anonymous": false,
      "inputs": [
        {
          "indexed": false,
          "internalType": "uint64",
          "name": "_ownerId",
          "type": "uint64"
        },
        {
          "indexed": false,
          "internalType": "uint256",
          "name": "prevRequirements",
          "type": "uint256"
        },
        {
          "indexed": false,
          "internalType": "uint256",
          "name": "requirements",
          "type": "uint256"
        }
      ],
      "name": "StorageProviderCollateralUpdate",
      "type": "event"
    },
    {
      "anonymous": false,
      "inputs": [
        {
          "indexed": false,
          "internalType": "uint64",
          "name": "_ownerId",
          "type": "uint64"
        },
        {
          "indexed": false,
          "internalType": "uint256",
          "name": "amount",
          "type": "uint256"
        }
      ],
      "name": "StorageProviderCollateralWithdraw",
      "type": "event"
    },
    {
      "anonymous": false,
      "inputs": [
        {
          "indexed": false,
          "internalType": "uint256",
          "name": "baseCollateralRequirements",
          "type": "uint256"
        }
      ],
      "name": "UpdateBaseCollateralRequirements",
      "type": "event"
    },
    {
      "stateMutability": "payable",
      "type": "fallback"
    },
    {
      "inputs": [],
      "name": "BASIS_POINTS",
      "outputs": [
        {
          "internalType": "uint256",
          "name": "",
          "type": "uint256"
        }
      ],
      "stateMutability": "view",
      "type": "function"
    },
    {
      "inputs": [],
      "name": "DEFAULT_ADMIN_ROLE",
      "outputs": [
        {
          "internalType": "bytes32",
          "name": "",
          "type": "bytes32"
        }
      ],
      "stateMutability": "view",
      "type": "function"
    },
    {
      "inputs": [],
      "name": "WFIL",
      "outputs": [
        {
          "internalType": "contract IWFIL",
          "name": "",
          "type": "address"
        }
      ],
      "stateMutability": "view",
      "type": "function"
    },
    {
      "inputs": [],
      "name": "baseRequirements",
      "outputs": [
        {
          "internalType": "uint256",
          "name": "",
          "type": "uint256"
        }
      ],
      "stateMutability": "view",
      "type": "function"
    },
    {
      "inputs": [
        {
          "internalType": "uint64",
          "name": "",
          "type": "uint64"
        }
      ],
      "name": "collateralRequirements",
      "outputs": [
        {
          "internalType": "uint256",
          "name": "",
          "type": "uint256"
        }
      ],
      "stateMutability": "view",
      "type": "function"
    },
    {
      "inputs": [
        {
          "internalType": "uint64",
          "name": "",
          "type": "uint64"
        }
      ],
      "name": "collaterals",
      "outputs": [
        {
          "internalType": "uint256",
          "name": "availableCollateral",
          "type": "uint256"
        },
        {
          "internalType": "uint256",
          "name": "lockedCollateral",
          "type": "uint256"
        }
      ],
      "stateMutability": "view",
      "type": "function"
    },
    {
      "inputs": [],
      "name": "deposit",
      "outputs": [],
      "stateMutability": "payable",
      "type": "function"
    },
    {
      "inputs": [
        {
          "internalType": "uint64",
          "name": "_ownerId",
          "type": "uint64"
        }
      ],
      "name": "fit",
      "outputs": [],
      "stateMutability": "nonpayable",
      "type": "function"
    },
    {
      "inputs": [
        {
          "internalType": "uint64",
          "name": "_ownerId",
          "type": "uint64"
        }
      ],
      "name": "getAvailableCollateral",
      "outputs": [
        {
          "internalType": "uint256",
          "name": "",
          "type": "uint256"
        }
      ],
      "stateMutability": "view",
      "type": "function"
    },
    {
      "inputs": [
        {
          "internalType": "uint64",
          "name": "_ownerId",
          "type": "uint64"
        }
      ],
      "name": "getCollateral",
      "outputs": [
        {
          "internalType": "uint256",
          "name": "",
          "type": "uint256"
        },
        {
          "internalType": "uint256",
          "name": "",
          "type": "uint256"
        }
      ],
      "stateMutability": "view",
      "type": "function"
    },
    {
      "inputs": [
        {
          "internalType": "uint64",
          "name": "_ownerId",
          "type": "uint64"
        }
      ],
      "name": "getDebt",
      "outputs": [
        {
          "internalType": "uint256",
          "name": "",
          "type": "uint256"
        }
      ],
      "stateMutability": "view",
      "type": "function"
    },
    {
      "inputs": [
        {
          "internalType": "uint64",
          "name": "_ownerId",
          "type": "uint64"
        }
      ],
      "name": "getLockedCollateral",
      "outputs": [
        {
          "internalType": "uint256",
          "name": "",
          "type": "uint256"
        }
      ],
      "stateMutability": "view",
      "type": "function"
    },
    {
      "inputs": [
        {
          "internalType": "bytes32",
          "name": "role",
          "type": "bytes32"
        }
      ],
      "name": "getRoleAdmin",
      "outputs": [
        {
          "internalType": "bytes32",
          "name": "",
          "type": "bytes32"
        }
      ],
      "stateMutability": "view",
      "type": "function"
    },
    {
      "inputs": [
        {
          "internalType": "bytes32",
          "name": "role",
          "type": "bytes32"
        },
        {
          "internalType": "address",
          "name": "account",
          "type": "address"
        }
      ],
      "name": "grantRole",
      "outputs": [],
      "stateMutability": "nonpayable",
      "type": "function"
    },
    {
      "inputs": [
        {
          "internalType": "bytes32",
          "name": "role",
          "type": "bytes32"
        },
        {
          "internalType": "address",
          "name": "account",
          "type": "address"
        }
      ],
      "name": "hasRole",
      "outputs": [
        {
          "internalType": "bool",
          "name": "",
          "type": "bool"
        }
      ],
      "stateMutability": "view",
      "type": "function"
    },
    {
      "inputs": [
        {
          "internalType": "uint64",
          "name": "_ownerId",
          "type": "uint64"
        },
        {
          "internalType": "uint256",
          "name": "_allocated",
          "type": "uint256"
        }
      ],
      "name": "lock",
      "outputs": [],
      "stateMutability": "nonpayable",
      "type": "function"
    },
    {
      "inputs": [],
      "name": "registry",
      "outputs": [
        {
          "internalType": "contract IStorageProviderRegistryClient",
          "name": "",
          "type": "address"
        }
      ],
      "stateMutability": "view",
      "type": "function"
    },
    {
      "inputs": [
        {
          "internalType": "bytes32",
          "name": "role",
          "type": "bytes32"
        },
        {
          "internalType": "address",
          "name": "account",
          "type": "address"
        }
      ],
      "name": "renounceRole",
      "outputs": [],
      "stateMutability": "nonpayable",
      "type": "function"
    },
    {
      "inputs": [
        {
          "internalType": "bytes32",
          "name": "role",
          "type": "bytes32"
        },
        {
          "internalType": "address",
          "name": "account",
          "type": "address"
        }
      ],
      "name": "revokeRole",
      "outputs": [],
      "stateMutability": "nonpayable",
      "type": "function"
    },
    {
      "inputs": [
        {
          "internalType": "address",
          "name": "newAddr",
          "type": "address"
        }
      ],
      "name": "setRegistryAddress",
      "outputs": [],
      "stateMutability": "nonpayable",
      "type": "function"
    },
    {
      "inputs": [
        {
          "internalType": "uint64",
          "name": "_ownerId",
          "type": "uint64"
        },
        {
          "internalType": "uint256",
          "name": "_slashingAmt",
          "type": "uint256"
        }
      ],
      "name": "slash",
      "outputs": [],
      "stateMutability": "nonpayable",
      "type": "function"
    },
    {
      "inputs": [
        {
          "internalType": "uint64",
          "name": "",
          "type": "uint64"
        }
      ],
      "name": "slashings",
      "outputs": [
        {
          "internalType": "uint256",
          "name": "",
          "type": "uint256"
        }
      ],
      "stateMutability": "view",
      "type": "function"
    },
    {
      "inputs": [
        {
          "internalType": "bytes4",
          "name": "interfaceId",
          "type": "bytes4"
        }
      ],
      "name": "supportsInterface",
      "outputs": [
        {
          "internalType": "bool",
          "name": "",
          "type": "bool"
        }
      ],
      "stateMutability": "view",
      "type": "function"
    },
    {
      "inputs": [
        {
          "internalType": "uint256",
          "name": "requirements",
          "type": "uint256"
        }
      ],
      "name": "updateBaseCollateralRequirements",
      "outputs": [],
      "stateMutability": "nonpayable",
      "type": "function"
    },
    {
      "inputs": [
        {
          "internalType": "uint64",
          "name": "_ownerId",
          "type": "uint64"
        },
        {
          "internalType": "uint256",
          "name": "requirements",
          "type": "uint256"
        }
      ],
      "name": "updateCollateralRequirements",
      "outputs": [],
      "stateMutability": "nonpayable",
      "type": "function"
    },
    {
      "inputs": [
        {
          "internalType": "uint256",
          "name": "_amount",
          "type": "uint256"
        }
      ],
      "name": "withdraw",
      "outputs": [],
      "stateMutability": "nonpayable",
      "type": "function"
    },
    {
      "stateMutability": "payable",
      "type": "receive"
    }
  ],
  "transactionHash": "0x15687bcbcbcf83c3ae86f36eff4ca8ae27239cd45d9b8d7ef46f774e808b7167",
  "args": [
    "0x6C297AeD654816dc5d211c956DE816Ba923475D2",
    "0x55fed7f0b7222769f07CBF9cf20f318936E11687",
    2725
  ],
  "numDeployments": 2,
  "solcInputHash": "ace9ef673aa915ddbb11c2ca6b8ce85c",
  "bytecode": "0x60a0604052600180553480156200001557600080fd5b506040516200307338038062003073833981016040819052620000389162000468565b6001600160a01b03838116608052600680546001600160a01b031916918416919091179055801515806200006e57506127108111155b620000965760405162461bcd60e51b81526004016200008d90620004f7565b60405180910390fd5b6005819055620000a8600033620000dd565b620000d47fbd162f0ed5d9ba0d62460e28548c2d494e547f6a13b10c140ac720c9196c50f933620000ed565b505050620006d9565b620000e982826200011b565b5050565b6000828152602081905260409020600101546200010a81620001a3565b6200011683836200011b565b505050565b620001278282620001b2565b620000e9576000828152602081815260408083206001600160a01b03851684529091529020805460ff191660011790556200015f3390565b6001600160a01b0316816001600160a01b0316837f2f8788117e7eff1d82e926ec794901d17c78024a50270940304540a733656f0d60405160405180910390a45050565b620001af8133620001dd565b50565b6000828152602081815260408083206001600160a01b038516845290915290205460ff165b92915050565b620001e98282620001b2565b620000e95762000204816200025560201b620013861760201c565b6200021a8360206200139862000268821b17811c565b6040516020016200022d92919062000554565b60408051601f198184030181529082905262461bcd60e51b82526200008d91600401620005ed565b6060620001d76001600160a01b03831660145b606060006200027983600262000616565b6200028690600262000638565b6001600160401b03811115620002a057620002a06200064e565b6040519080825280601f01601f191660200182016040528015620002cb576020820181803683370190505b509050600360fc1b81600081518110620002e957620002e962000664565b60200101906001600160f81b031916908160001a905350600f60fb1b816001815181106200031b576200031b62000664565b60200101906001600160f81b031916908160001a90535060006200034184600262000616565b6200034e90600162000638565b90505b6001811115620003d0576f181899199a1a9b1b9c1cb0b131b232b360811b85600f166010811062000386576200038662000664565b1a60f81b8282815181106200039f576200039f62000664565b60200101906001600160f81b031916908160001a90535060049490941c93620003c8816200067a565b905062000351565b508315620003f25760405162461bcd60e51b81526004016200008d90620006c7565b9392505050565b60006001600160a01b038216620001d7565b6000620001d782620003f9565b62000423816200040b565b8114620001af57600080fd5b8051620001d78162000418565b6200042381620003f9565b8051620001d7816200043c565b8062000423565b8051620001d78162000454565b600080600060608486031215620004825762000482600080fd5b60006200049086866200042f565b9350506020620004a38682870162000447565b9250506040620004b6868287016200045b565b9150509250925092565b601a81526000602082017f424153455f524551554952454d454e54535f4f564552464c4f57000000000000815291505b5060200190565b60208082528101620001d781620004c0565b60005b83811015620005265781810151838201526020016200050c565b50506000910152565b60006200053a825190565b6200054a81856020860162000509565b9290920192915050565b7f416363657373436f6e74726f6c3a206163636f756e7420000000000000000000815260170160006200058882856200052f565b7001034b99036b4b9b9b4b733903937b6329607d1b81526011019150620005b082846200052f565b949350505050565b6000620005c3825190565b808452602084019350620005dc81856020860162000509565b601f01601f19169290920192915050565b60208082528101620003f28184620005b8565b634e487b7160e01b600052601160045260246000fd5b81810280821583820485141762000631576200063162000600565b5092915050565b80820180821115620001d757620001d762000600565b634e487b7160e01b600052604160045260246000fd5b634e487b7160e01b600052603260045260246000fd5b6000816200068c576200068c62000600565b506000190190565b60208082527f537472696e67733a20686578206c656e67746820696e73756666696369656e7491019081526000620004f0565b60208082528101620001d78162000694565b60805161295b6200071860003960008181610183015281816112ca01528181611940015281816119f501528181611c690152611cef015261295b6000f3fe6080604052600436106101325760003560e01c806301ffc9a71461013b57806309448a8614610171578063248a9ca3146101b25780632a800e88146101df5780632e1a7d4d146101ff5780632f2ff15d1461021f578063335f18391461023f57806336568abe1461025f5780634184acd51461027f5780634eaf14a6146102ac5780636ef2dafc1461030d5780637b103999146103465780637efedebe146103665780638199b6681461039a57806391d14854146103b0578063a217fddf146103d0578063ab7b4993146103e5578063bea914e514610405578063c7d3ebf814610425578063c8025dda14610445578063ce09611014610465578063d0e30db014610492578063d547741f1461049a578063e1f1c4a7146104ba578063e460512e146104d0578063fec257141461050657005b3661013957005b005b34801561014757600080fd5b5061015b610156366004611ec3565b610526565b6040516101689190611eee565b60405180910390f35b34801561017d57600080fd5b506101a57f000000000000000000000000000000000000000000000000000000000000000081565b6040516101689190611f40565b3480156101be57600080fd5b506101d26101cd366004611f5f565b61055d565b6040516101689190611f86565b3480156101eb57600080fd5b506101396101fa366004611fae565b610572565b34801561020b57600080fd5b5061013961021a366004611f5f565b61072a565b34801561022b57600080fd5b5061013961023a36600461200a565b61098b565b34801561024b57600080fd5b5061013961025a366004611fae565b6109ac565b34801561026b57600080fd5b5061013961027a36600461200a565b610aec565b34801561028b57600080fd5b506101d261029a36600461203d565b60036020526000908152604090205481565b3480156102b857600080fd5b506102ff6102c736600461203d565b6001600160401b0316600090815260026020908152604091829020825180840190935280548084526001909101549290910182905291565b60405161016892919061205e565b34801561031957600080fd5b506101d261032836600461203d565b6001600160401b031660009081526002602052604090206001015490565b34801561035257600080fd5b506006546101a5906001600160a01b031681565b34801561037257600080fd5b506102ff61038136600461203d565b6002602052600090815260409020805460019091015482565b3480156103a657600080fd5b506101d260055481565b3480156103bc57600080fd5b5061015b6103cb36600461200a565b610b1e565b3480156103dc57600080fd5b506101d2600081565b3480156103f157600080fd5b50610139610400366004612079565b610b47565b34801561041157600080fd5b5061013961042036600461203d565b610c1b565b34801561043157600080fd5b50610139610440366004611f5f565b610d40565b34801561045157600080fd5b506101d261046036600461203d565b610deb565b34801561047157600080fd5b506101d261048036600461203d565b60046020526000908152604090205481565b610139610efa565b3480156104a657600080fd5b506101396104b536600461200a565b611083565b3480156104c657600080fd5b506101d261271081565b3480156104dc57600080fd5b506101d26104eb36600461203d565b6001600160401b031660009081526002602052604090205490565b34801561051257600080fd5b50610139610521366004611fae565b61109f565b60006001600160e01b03198216637965db0b60e01b148061055757506301ffc9a760e01b6001600160e01b03198316145b92915050565b60009081526020819052604090206001015490565b60065460405163154caabb60e01b815283916001600160a01b03169063154caabb906105a29084906004016120a9565b602060405180830381865afa1580156105bf573d6000803e3d6000fd5b505050506040513d601f19601f820116820180604052508101906105e391906120ca565b6106085760405162461bcd60e51b81526004016105ff9061211e565b60405180910390fd5b600654604051638097354f60e01b81526001600160a01b0390911690638097354f90610638903390600401612137565b602060405180830381865afa158015610655573d6000803e3d6000fd5b505050506040513d601f19601f8201168201806040525081019061067991906120ca565b6106955760405162461bcd60e51b81526004016105ff9061216a565b600082116106b55760405162461bcd60e51b81526004016105ff906121a0565b6106bf838361150a565b600654604051634978e4b760e01b81526001600160a01b0390911690634978e4b7906106f3908690869042906004016121b0565b600060405180830381600087803b15801561070d57600080fd5b505af1158015610721573d6000803e3d6000fd5b50505050505050565b60015460011461074c5760405162461bcd60e51b81526004016105ff906121f9565b60026001558061076e5760405162461bcd60e51b81526004016105ff9061222b565b60006107793361173b565b9050600080610790836001600160a01b0316611782565b91509150816107b15760405162461bcd60e51b81526004016105ff90612263565b60065460405163154caabb60e01b81526001600160a01b039091169063154caabb906107e19084906004016120a9565b602060405180830381865afa1580156107fe573d6000803e3d6000fd5b505050506040513d601f19601f8201168201806040525081019061082291906120ca565b61083e5760405162461bcd60e51b81526004016105ff9061211e565b600080600061084c846117f3565b91945092509050600061085f8385612289565b905060008189116108705788610872565b815b90506000831561090457610886868361229c565b6001600160401b0388166000908152600260205260409020600101549091506108b090879061229c565b6001600160401b03881660009081526002602052604090206001810191909155546108dc90829061229c565b6001600160401b0388166000908152600260205260409020556108ff3383611926565b610942565b6001600160401b03871660009081526002602052604090205461092890839061229c565b6001600160401b0388166000908152600260205260409020555b7fe4b3039f013ad4f4d16ea3537d0ee0ae75dad7fb7c97f1ff24fd9f10bd85b89b87836040516109739291906122af565b60405180910390a15050600180555050505050505050565b6109948261055d565b61099d81611a70565b6109a78383611a7d565b505050565b6109c46000805160206128c683398151915233610b1e565b806109d957506006546001600160a01b031633145b6109f55760405162461bcd60e51b81526004016105ff9061216a565b80600003610a47576005546001600160401b0383166000908152600460205260408082208390555160008051602061290683398151915292610a3b9286929091906122d2565b60405180910390a15050565b6001600160401b038216600090815260046020526040902054612710821115610a825760405162461bcd60e51b81526004016105ff9061231f565b808203610aa15760405162461bcd60e51b81526004016105ff90612362565b6001600160401b038316600090815260046020526040908190208390555160008051602061290683398151915290610ade908590849086906121b0565b60405180910390a1505b5050565b6001600160a01b0381163314610b145760405162461bcd60e51b81526004016105ff90612372565b610ae88282611b01565b6000918252602082815260408084206001600160a01b0393909316845291905290205460ff1690565b610b5f6000805160206128c683398151915233610b1e565b610b7b5760405162461bcd60e51b81526004016105ff9061216a565b6001600160a01b038116610ba15760405162461bcd60e51b81526004016105ff906123eb565b6006546001600160a01b039081169082168103610bd05760405162461bcd60e51b81526004016105ff9061241e565b600680546001600160a01b0319166001600160a01b0384161790556040517f3e06c035fbf29a3956dd07cbab527255f029751c95add41cc26990b28ed7179b90610a3b908490612137565b60065460405163154caabb60e01b815282916001600160a01b03169063154caabb90610c4b9084906004016120a9565b602060405180830381865afa158015610c68573d6000803e3d6000fd5b505050506040513d601f19601f82011682018060405250810190610c8c91906120ca565b610ca85760405162461bcd60e51b81526004016105ff9061211e565b600654604051638097354f60e01b81526001600160a01b0390911690638097354f90610cd8903390600401612137565b602060405180830381865afa158015610cf5573d6000803e3d6000fd5b505050506040513d601f19601f82011682018060405250810190610d1991906120ca565b610d355760405162461bcd60e51b81526004016105ff9061216a565b610ae882600061150a565b610d586000805160206128c683398151915233610b1e565b610d745760405162461bcd60e51b81526004016105ff9061216a565b60008111610d945760405162461bcd60e51b81526004016105ff90612459565b600554808203610db65760405162461bcd60e51b81526004016105ff90612491565b60058290556040517fe49b6558d30d6f2b9c3bb53bb6bedb636cf1dd53419057f0ab65812a7739639e90610a3b908490611f86565b60065460405163172a4a0f60e11b8152600091829182916001600160a01b031690632e54941e90610e209087906004016120a9565b60c060405180830381865afa158015610e3d573d6000803e3d6000fd5b505050506040513d601f19601f82011682018060405250810190610e6191906124ac565b6001600160401b038a16600090815260046020526040812054949850909650929450919250610e969150859050848385611b66565b6001600160401b0387166000908152600260209081526040808320815180830190925280548252600101549181018290529293508190610ed69085611bbc565b9150915080610eeb5750979650505050505050565b50600098975050505050505050565b600154600114610f1c5760405162461bcd60e51b81526004016105ff906121f9565b60026001553480610f3f5760405162461bcd60e51b81526004016105ff9061255b565b6000610f4a3361173b565b9050600080610f61836001600160a01b0316611782565b9150915081610f825760405162461bcd60e51b81526004016105ff90612263565b60065460405163154caabb60e01b81526001600160a01b039091169063154caabb90610fb29084906004016120a9565b602060405180830381865afa158015610fcf573d6000803e3d6000fd5b505050506040513d601f19601f82011682018060405250810190610ff391906120ca565b61100f5760405162461bcd60e51b81526004016105ff9061211e565b6001600160401b03811660009081526002602052604090208054611034908690612289565b815561103f30611c62565b7f73dee9c602a838e7139b8ea81aab0fa49d1da28733bb0481f9ea4b512bdfda7d82866040516110709291906122af565b60405180910390a1505060018055505050565b61108c8261055d565b61109581611a70565b6109a78383611b01565b60065460405163154caabb60e01b815283916001600160a01b03169063154caabb906110cf9084906004016120a9565b602060405180830381865afa1580156110ec573d6000803e3d6000fd5b505050506040513d601f19601f8201168201806040525081019061111091906120ca565b61112c5760405162461bcd60e51b81526004016105ff9061211e565b600654604051638097354f60e01b81526001600160a01b0390911690638097354f9061115c903390600401612137565b602060405180830381865afa158015611179573d6000803e3d6000fd5b505050506040513d601f19601f8201168201806040525081019061119d91906120ca565b6111b95760405162461bcd60e51b81526004016105ff9061216a565b6001600160401b03831660009081526002602090815260409182902082518084019093528054835260010154908201819052831161120b57828160200151611201919061229c565b602082015261126e565b8051602082015160009161121e91612289565b9050808411156112405760405162461bcd60e51b81526004016105ff90612597565b6000826020015185611252919061229c565b60006020850152835190915061126990829061229c565b835250505b6001600160401b038416600090815260026020908152604080832084518155828501516001909101556003909152812080548592906112ae908490612289565b909155505060405163a9059cbb60e01b81526001600160a01b037f0000000000000000000000000000000000000000000000000000000000000000169063a9059cbb9061130190339087906004016125a7565b6020604051808303816000875af1158015611320573d6000803e3d6000fd5b505050506040513d601f19601f8201168201806040525081019061134491906120ca565b507f243212650e99fb205ebebf8fcde07325988e08f3f0501f252c2dc0aaef6f39cb848433604051611378939291906125b5565b60405180910390a150505050565b60606105576001600160a01b03831660145b606060006113a78360026125dd565b6113b2906002612289565b6001600160401b038111156113c9576113c96125fc565b6040519080825280601f01601f1916602001820160405280156113f3576020820181803683370190505b509050600360fc1b8160008151811061140e5761140e612612565b60200101906001600160f81b031916908160001a905350600f60fb1b8160018151811061143d5761143d612612565b60200101906001600160f81b031916908160001a90535060006114618460026125dd565b61146c906001612289565b90505b60018111156114e4576f181899199a1a9b1b9c1cb0b131b232b360811b85600f16601081106114a0576114a0612612565b1a60f81b8282815181106114b6576114b6612612565b60200101906001600160f81b031916908160001a90535060049490941c936114dd81612628565b905061146f565b5083156115035760405162461bcd60e51b81526004016105ff90612671565b9392505050565b60065460405163172a4a0f60e11b8152600091829182916001600160a01b031690632e54941e9061153f9088906004016120a9565b60c060405180830381865afa15801561155c573d6000803e3d6000fd5b505050506040513d601f19601f8201168201806040525081019061158091906124ac565b95505050935050925060008411156115bb578261159d8584612289565b11156115bb5760405162461bcd60e51b81526004016105ff906126ab565b6001600160401b038516600090815260046020526040812054906115e184848885611b66565b6001600160401b03881660009081526002602090815260409182902082518084019093528054808452600190910154918301829052929350909161162491612289565b8211156116435760405162461bcd60e51b81526004016105ff906126e9565b600080611654836020015185611bbc565b91509150806116b35781836020015161166d9190612289565b6020840152825161167f90839061229c565b83526040516000805160206128e6833981519152906116a6908c90859060009086906126f9565b60405180910390a1611705565b8183602001516116c3919061229c565b602084015282516116d5908390612289565b83526040516000805160206128e6833981519152906116fc908c906000908690869061272e565b60405180910390a15b50506001600160401b03909716600090815260026020908152604090912088518155970151600190970196909655505050505050565b600080600061174984611d6c565b915091508161175a57509192915050565b60008061176683611d9e565b9150915081611779575093949350505050565b95945050505050565b60008061178e83611d6c565b9092509050811561179e57915091565b8260501b61040a60f01b178060005260206000601660006001607f60991b015afa92506000516001600160401b03169150508115806117de57503d602014155b156117ee57506000928392509050565b915091565b60065460405163172a4a0f60e11b815260009182918291829182916001600160a01b031690632e54941e9061182c9089906004016120a9565b60c060405180830381865afa158015611849573d6000803e3d6000fd5b505050506040513d601f19601f8201168201806040525081019061186d91906124ac565b6001600160401b038c166000908152600460205260408120549498509096509294509192506118a29150859050848385611b66565b6001600160401b03891660009081526002602090815260408083208151808301909252805482526001015491810182905292935081906118e29085611bbc565b915091508061190c5782516118f890839061229c565b60009a509850965061191f95505050505050565b91519098509650945061191f9350505050565b9193909250565b6040516370a0823160e01b81526000906001600160a01b037f000000000000000000000000000000000000000000000000000000000000000016906370a0823190611975903090600401612137565b602060405180830381865afa158015611992573d6000803e3d6000fd5b505050506040513d601f19601f820116820180604052508101906119b69190612756565b9050818110156119d85760405162461bcd60e51b81526004016105ff906127a0565b80156109a757604051632e1a7d4d60e01b81526001600160a01b037f00000000000000000000000000000000000000000000000000000000000000001690632e1a7d4d90611a2a908590600401611f86565b600060405180830381600087803b158015611a4457600080fd5b505af1158015611a58573d6000803e3d6000fd5b506109a7925050506001600160a01b03841683611dff565b611a7a8133611e2a565b50565b611a878282610b1e565b610ae8576000828152602081815260408083206001600160a01b03851684529091529020805460ff19166001179055611abd3390565b6001600160a01b0316816001600160a01b0316837f2f8788117e7eff1d82e926ec794901d17c78024a50270940304540a733656f0d60405160405180910390a45050565b611b0b8282610b1e565b15610ae8576000828152602081815260408083206001600160a01b0385168085529252808320805460ff1916905551339285917ff6391f5c32d9c69d2a47ea670b442974b53935d1edc7fd64eb21e047a839171b9190a45050565b60008060008411611b775785611b81565b611b818487612289565b90506000611b8f868361229c565b90508015611bad57611ba48185612710611e83565b92505050611bb4565b6000925050505b949350505050565b600080600084118015611bcf5750600083115b15611c065782841115611bf157611be6838561229c565b600191509150611c5b565b611bfb848461229c565b600091509150611c5b565b600084118015611c14575082155b15611c2457508290506001611c5b565b83158015611c325750600083115b15611c4257508190506000611c5b565b83158015611c4e575082155b15611c5b57506000905060015b9250929050565b60003490507f00000000000000000000000000000000000000000000000000000000000000006001600160a01b031663d0e30db0826040518263ffffffff1660e01b81526004016000604051808303818588803b158015611cc257600080fd5b505af1158015611cd6573d6000803e3d6000fd5b505060405163a9059cbb60e01b81526001600160a01b037f000000000000000000000000000000000000000000000000000000000000000016935063a9059cbb9250611d299150859085906004016125a7565b6020604051808303816000875af1158015611d48573d6000803e3d6000fd5b505050506040513d601f19601f820116820180604052508101906109a791906120ca565b600080600160401b600160a01b03831660ff60981b8103611d9857600192506001600160401b03841691505b50915091565b600080826000526016600a602060006002607f60991b015afa9150600051806001600160a01b031691508060a01c61ffff1661040a8114611de25760009350600092505b50508115806117de57503d6016146117ee57506000928392509050565b600080600080600085875af19050806109a75760405162461bcd60e51b81526004016105ff906127da565b611e348282610b1e565b610ae857611e4181611386565b611e4c836020611398565b604051602001611e5d929190612830565b60408051601f198184030181529082905262461bcd60e51b82526105ff916004016128b4565b6000826000190484118302158202611e9a57600080fd5b5091020490565b6001600160e01b031981165b8114611a7a57600080fd5b803561055781611ea1565b600060208284031215611ed857611ed8600080fd5b6000611bb48484611eb8565b8015155b82525050565b602081016105578284611ee4565b6001600160a01b031690565b6000610557611f1c611f1984611efc565b90565b611efc565b600061055782611f08565b600061055782611f21565b611ee881611f2c565b602081016105578284611f37565b80611ead565b803561055781611f4e565b600060208284031215611f7457611f74600080fd5b6000611bb48484611f54565b80611ee8565b602081016105578284611f80565b6001600160401b038116611ead565b803561055781611f94565b60008060408385031215611fc457611fc4600080fd5b6000611fd08585611fa3565b9250506020611fe185828601611f54565b9150509250929050565b600061055782611efc565b611ead81611feb565b803561055781611ff6565b6000806040838503121561202057612020600080fd5b600061202c8585611f54565b9250506020611fe185828601611fff565b60006020828403121561205257612052600080fd5b6000611bb48484611fa3565b6040810161206c8285611f80565b6115036020830184611f80565b60006020828403121561208e5761208e600080fd5b6000611bb48484611fff565b6001600160401b038116611ee8565b60208101610557828461209a565b801515611ead565b8051610557816120b7565b6000602082840312156120df576120df600080fd5b6000611bb484846120bf565b601981526000602082017824a720a1aa24ab22afa9aa27a920a3a2afa82927ab24a222a960391b815291505b5060200190565b60208082528101610557816120eb565b611ee881611feb565b60208101610557828461212e565b600e81526000602082016d494e56414c49445f41434345535360901b81529150612117565b6020808252810161055781612145565b600f81526000602082016e2d22a927afa0a62627a1a0aa24a7a760891b81529150612117565b602080825281016105578161217a565b606081016121be828661209a565b6121cb6020830185611f80565b611bb46040830184611f80565b600a8152600060208201695245454e5452414e435960b01b81529150612117565b60208082528101610557816121d8565b600b81526000602082016a16915493d7d05353d5539560aa1b81529150612117565b6020808252810161055781612209565b601181526000602082017012539050d512559157d050d513d497d251607a1b81529150612117565b602080825281016105578161223b565b634e487b7160e01b600052601160045260246000fd5b8082018082111561055757610557612273565b8181038181111561055757610557612273565b6040810161206c828561209a565b6000610557611f198381565b611ee8816122bd565b606081016122e0828661209a565b6121cb60208301856122c9565b60208082527f434f4c4c41544552414c5f524551554952454d454e54535f4f564552464c4f5791019081526000612117565b60208082528101610557816122ed565b601c81526000602082017b53414d455f434f4c4c41544552414c5f524551554952454d454e545360201b81529150612117565b602080825281016105578161232f565b6020808252810161055781602f81527f416363657373436f6e74726f6c3a2063616e206f6e6c792072656e6f756e636560208201526e103937b632b9903337b91039b2b63360891b604082015260600190565b600f81526000602082016e494e56414c49445f4144445245535360881b81529150612117565b60208082528101610557816123c5565b600c81526000602082016b53414d455f4144445245535360a01b81529150612117565b60208082528101610557816123fb565b6014815260006020820173494e56414c49445f524551554952454d454e545360601b81529150612117565b602080825281016105578161242e565b601181526000602082017053414d455f524551554952454d454e545360781b81529150612117565b6020808252810161055781612469565b805161055781611f4e565b60008060008060008060c087890312156124c8576124c8600080fd5b60006124d489896124a1565b96505060206124e589828a016124a1565b95505060406124f689828a016124a1565b945050606061250789828a016124a1565b935050608061251889828a016124a1565b92505060a061252989828a016124a1565b9150509295509295509295565b600e81526000602082016d1253959053125117d05353d5539560921b81529150612117565b6020808252810161055781612536565b60158152600060208201741393d517d15393d551d217d0d3d313105511549053605a1b81529150612117565b602080825281016105578161256b565b6040810161206c828561212e565b606081016125c3828661209a565b6125d06020830185611f80565b611bb4604083018461212e565b8181028082158382048514176125f5576125f5612273565b5092915050565b634e487b7160e01b600052604160045260246000fd5b634e487b7160e01b600052603260045260246000fd5b60008161263757612637612273565b506000190190565b60208082527f537472696e67733a20686578206c656e67746820696e73756666696369656e7491019081526000612117565b602080825281016105578161263f565b6013815260006020820172414c4c4f434154494f4e5f4f564552464c4f5760681b81529150612117565b6020808252810161055781612681565b6017815260006020820176125394d551919250d251539517d0d3d313105511549053604a1b81529150612117565b60208082528101610557816126bb565b60808101612707828761209a565b6127146020830186611f80565b61272160408301856122c9565b6117796060830184611ee4565b6080810161273c828761209a565b61274960208301866122c9565b6127216040830185611f80565b60006020828403121561276b5761276b600080fd5b6000611bb484846124a1565b6012815260006020820171496e73756666696369656e7420574554483960701b81529150612117565b6020808252810161055781612777565b601381526000602082017211551217d514905394d1915497d19052531151606a1b81529150612117565b60208082528101610557816127b0565b60005b838110156128055781810151838201526020016127ed565b50506000910152565b6000612818825190565b6128268185602086016127ea565b9290920192915050565b76020b1b1b2b9b9a1b7b73a3937b61d1030b1b1b7bab73a1604d1b8152601701600061285c828561280e565b7001034b99036b4b9b9b4b733903937b6329607d1b81526011019150611bb4828461280e565b600061288c825190565b8084526020840193506128a38185602086016127ea565b601f01601f19169290920192915050565b60208082528101611503818461288256febd162f0ed5d9ba0d62460e28548c2d494e547f6a13b10c140ac720c9196c50f9772d8d1c74df48b2a983c30ed06fb65bb4819c7e61c7d97766a825bbee5a596f91147ad9b4ecd1955cddf8d3a9c61eb67a1b97c9411912f17865e356b304bd6da2646970667358221220586bb0415884ba289bbb2ded7635c086d1b9a00c2e19b2f179b62f9689990e1164736f6c63430008110033",
  "devdoc": {
    "kind": "dev",
    "methods": {
      "constructor": {
        "details": "Contract constructor function.",
        "params": {
          "_wFIL": "WFIL token implementation"
        }
      },
      "deposit()": {
        "details": "Deposit `msg.value` FIL funds by the msg.sender into collateral"
      },
      "fit(uint64)": {
        "details": "Fits collateral amounts based on SP pledge usage, distributed rewards and pledge paybacks",
        "params": {
          "_ownerId": "Storage provider owner ID"
        }
      },
      "getRoleAdmin(bytes32)": {
        "details": "Returns the admin role that controls `role`. See {grantRole} and {revokeRole}. To change a role's admin, use {_setRoleAdmin}."
      },
      "grantRole(bytes32,address)": {
        "details": "Grants `role` to `account`. If `account` had not been already granted `role`, emits a {RoleGranted} event. Requirements: - the caller must have ``role``'s admin role. May emit a {RoleGranted} event."
      },
      "hasRole(bytes32,address)": {
        "details": "Returns `true` if `account` has been granted `role`."
      },
      "lock(uint64,uint256)": {
        "details": "Locks required collateral amount based on `_allocated` FIL to pledge",
        "params": {
          "_allocated": "FIL amount that is going to be pledged for Storage Provider",
          "_ownerId": "Storage provider owner ID"
        }
      },
      "renounceRole(bytes32,address)": {
        "details": "Revokes `role` from the calling account. Roles are often managed via {grantRole} and {revokeRole}: this function's purpose is to provide a mechanism for accounts to lose their privileges if they are compromised (such as when a trusted device is misplaced). If the calling account had been revoked `role`, emits a {RoleRevoked} event. Requirements: - the caller must be `account`. May emit a {RoleRevoked} event."
      },
      "revokeRole(bytes32,address)": {
        "details": "Revokes `role` from `account`. If `account` had been granted `role`, emits a {RoleRevoked} event. Requirements: - the caller must have ``role``'s admin role. May emit a {RoleRevoked} event."
      },
      "setRegistryAddress(address)": {
        "params": {
          "newAddr": "StorageProviderRegistry contract address"
        }
      },
      "slash(uint64,uint256)": {
        "details": "Slashes SP for a `_slashingAmt` and delivers WFIL amount to the `msg.sender` LSP",
        "params": {
          "_ownerId": "Storage provider owner ID",
          "_slashingAmt": "Slashing amount for SP"
        }
      },
      "supportsInterface(bytes4)": {
        "details": "See {IERC165-supportsInterface}."
      },
      "updateBaseCollateralRequirements(uint256)": {
        "params": {
          "requirements": "New base collateral requirements for SP"
        }
      },
      "updateCollateralRequirements(uint64,uint256)": {
        "details": "Updates collateral requirements for SP with `_ownerId` by `requirements` percentage",
        "params": {
          "_ownerId": "Storage provider owner ID",
          "requirements": "Percentage of collateral requirements"
        }
      },
      "withdraw(uint256)": {
        "details": "Withdraw `_amount` of FIL funds by the `msg.sender` from the collateral system"
      }
    },
    "title": "Storage Provider Collateral stores collateral for covering potential slashing risks by SPs (Storage Providers) in liquid staking protocol. The basis coverage is expected to be around 15% of the total FIL allocation requested by SP. Over time as SPs earn FIL rewards, a locked portion of rewards would be exchanged for the collateral provided upfront. Therefore locked SPs collateral becomes accessible for withdrawals by stakers. This mechanism doesn't create additional slashing risks as SPs are slashed by the locked rewards first, making it a good option for collateralization in the system.",
    "version": 1
  },
  "userdoc": {
    "kind": "user",
    "methods": {
      "deposit()": {
        "notice": "Wrapps of FIL into WFIL token internally"
      },
      "fit(uint64)": {
        "notice": "Rebalances the total locked and available collateral amounts"
      },
      "getAvailableCollateral(uint64)": {
        "notice": "Return Storage Provider Available Collateral information with `_provider` address"
      },
      "getCollateral(uint64)": {
        "notice": "Return Storage Provider Collateral information with `_provider` address"
      },
      "getLockedCollateral(uint64)": {
        "notice": "Return Storage Provider Locked Collateral information with `_provider` address"
      },
      "lock(uint64,uint256)": {
        "notice": "Increases the total amount of locked collateral for storage provider"
      },
      "setRegistryAddress(address)": {
        "notice": "Updates StorageProviderRegistry contract address"
      },
      "slash(uint64,uint256)": {
        "notice": "Doesn't perform a rebalancing checks"
      },
      "updateBaseCollateralRequirements(uint256)": {
        "notice": "Updates base collateral requirements amount for Storage Providers"
      },
      "updateCollateralRequirements(uint64,uint256)": {
        "notice": "Only triggered by Collateral admin or registry contract while registering SP"
      },
      "withdraw(uint256)": {
        "notice": "Unwraps of FIL into WFIL token internally and delivers maximum amount of FIL available for withdrawal if `_amount` is bigger."
      }
    },
    "version": 1
  },
  "storageLayout": {
    "storage": [
      {
        "astId": 18284,
        "contract": "contracts/StorageProviderCollateral.sol:StorageProviderCollateral",
        "label": "_roles",
        "offset": 0,
        "slot": "0",
        "type": "t_mapping(t_bytes32,t_struct(RoleData)18279_storage)"
      },
      {
        "astId": 18239,
        "contract": "contracts/StorageProviderCollateral.sol:StorageProviderCollateral",
        "label": "locked",
        "offset": 0,
        "slot": "1",
        "type": "t_uint256"
      },
      {
        "astId": 1579,
        "contract": "contracts/StorageProviderCollateral.sol:StorageProviderCollateral",
        "label": "collaterals",
        "offset": 0,
        "slot": "2",
        "type": "t_mapping(t_uint64,t_struct(SPCollateral)1608_storage)"
      },
      {
        "astId": 1583,
        "contract": "contracts/StorageProviderCollateral.sol:StorageProviderCollateral",
        "label": "slashings",
        "offset": 0,
        "slot": "3",
        "type": "t_mapping(t_uint64,t_uint256)"
      },
      {
        "astId": 1587,
        "contract": "contracts/StorageProviderCollateral.sol:StorageProviderCollateral",
        "label": "collateralRequirements",
        "offset": 0,
        "slot": "4",
        "type": "t_mapping(t_uint64,t_uint256)"
      },
      {
        "astId": 1594,
        "contract": "contracts/StorageProviderCollateral.sol:StorageProviderCollateral",
        "label": "baseRequirements",
        "offset": 0,
        "slot": "5",
        "type": "t_uint256"
      },
      {
        "astId": 1600,
        "contract": "contracts/StorageProviderCollateral.sol:StorageProviderCollateral",
        "label": "registry",
        "offset": 0,
        "slot": "6",
        "type": "t_contract(IStorageProviderRegistryClient)5130"
      }
    ],
    "types": {
      "t_address": {
        "encoding": "inplace",
        "label": "address",
        "numberOfBytes": "20"
      },
      "t_bool": {
        "encoding": "inplace",
        "label": "bool",
        "numberOfBytes": "1"
      },
      "t_bytes32": {
        "encoding": "inplace",
        "label": "bytes32",
        "numberOfBytes": "32"
      },
      "t_contract(IStorageProviderRegistryClient)5130": {
        "encoding": "inplace",
        "label": "contract IStorageProviderRegistryClient",
        "numberOfBytes": "20"
      },
      "t_mapping(t_address,t_bool)": {
        "encoding": "mapping",
        "key": "t_address",
        "label": "mapping(address => bool)",
        "numberOfBytes": "32",
        "value": "t_bool"
      },
      "t_mapping(t_bytes32,t_struct(RoleData)18279_storage)": {
        "encoding": "mapping",
        "key": "t_bytes32",
        "label": "mapping(bytes32 => struct AccessControl.RoleData)",
        "numberOfBytes": "32",
        "value": "t_struct(RoleData)18279_storage"
      },
      "t_mapping(t_uint64,t_struct(SPCollateral)1608_storage)": {
        "encoding": "mapping",
        "key": "t_uint64",
        "label": "mapping(uint64 => struct StorageProviderCollateral.SPCollateral)",
        "numberOfBytes": "32",
        "value": "t_struct(SPCollateral)1608_storage"
      },
      "t_mapping(t_uint64,t_uint256)": {
        "encoding": "mapping",
        "key": "t_uint64",
        "label": "mapping(uint64 => uint256)",
        "numberOfBytes": "32",
        "value": "t_uint256"
      },
      "t_struct(RoleData)18279_storage": {
        "encoding": "inplace",
        "label": "struct AccessControl.RoleData",
        "members": [
          {
            "astId": 18276,
            "contract": "contracts/StorageProviderCollateral.sol:StorageProviderCollateral",
            "label": "members",
            "offset": 0,
            "slot": "0",
            "type": "t_mapping(t_address,t_bool)"
          },
          {
            "astId": 18278,
            "contract": "contracts/StorageProviderCollateral.sol:StorageProviderCollateral",
            "label": "adminRole",
            "offset": 0,
            "slot": "1",
            "type": "t_bytes32"
          }
        ],
        "numberOfBytes": "64"
      },
      "t_struct(SPCollateral)1608_storage": {
        "encoding": "inplace",
        "label": "struct StorageProviderCollateral.SPCollateral",
        "members": [
          {
            "astId": 1605,
            "contract": "contracts/StorageProviderCollateral.sol:StorageProviderCollateral",
            "label": "availableCollateral",
            "offset": 0,
            "slot": "0",
            "type": "t_uint256"
          },
          {
            "astId": 1607,
            "contract": "contracts/StorageProviderCollateral.sol:StorageProviderCollateral",
            "label": "lockedCollateral",
            "offset": 0,
            "slot": "1",
            "type": "t_uint256"
          }
        ],
        "numberOfBytes": "64"
      },
      "t_uint256": {
        "encoding": "inplace",
        "label": "uint256",
        "numberOfBytes": "32"
      },
      "t_uint64": {
        "encoding": "inplace",
        "label": "uint64",
        "numberOfBytes": "8"
      }
    }
  }
}