{
  "address": "0x9109d818691db603312fac9092f4F28b4faC655F",
  "abi": [
    {
      "inputs": [
        {
          "internalType": "address",
          "name": "_owner",
          "type": "address"
        }
      ],
      "stateMutability": "nonpayable",
      "type": "constructor"
    },
    {
      "inputs": [],
      "name": "CallFailed",
      "type": "error"
    },
    {
      "inputs": [],
      "name": "InsufficientFunds",
      "type": "error"
    },
    {
      "inputs": [],
      "name": "InvalidAddress",
      "type": "error"
    },
    {
      "inputs": [],
      "name": "TimelockActive",
      "type": "error"
    },
    {
      "inputs": [],
      "name": "Unauthorized",
      "type": "error"
    },
    {
      "anonymous": false,
      "inputs": [
        {
          "indexed": true,
          "internalType": "address",
          "name": "owner",
          "type": "address"
        },
        {
          "indexed": true,
          "internalType": "address",
          "name": "spender",
          "type": "address"
        },
        {
          "indexed": false,
          "internalType": "uint256",
          "name": "amount",
          "type": "uint256"
        }
      ],
      "name": "Approval",
      "type": "event"
    },
    {
      "anonymous": false,
      "inputs": [
        {
          "indexed": true,
          "internalType": "address",
          "name": "from",
          "type": "address"
        },
        {
          "indexed": false,
          "internalType": "uint256",
          "name": "amount",
          "type": "uint256"
        }
      ],
      "name": "Deposit",
      "type": "event"
    },
    {
      "anonymous": false,
      "inputs": [
        {
          "indexed": true,
          "internalType": "address",
          "name": "currentOwner",
          "type": "address"
        },
        {
          "indexed": true,
          "internalType": "address",
          "name": "pendingOwner",
          "type": "address"
        }
      ],
      "name": "OwnershipPending",
      "type": "event"
    },
    {
      "anonymous": false,
      "inputs": [
        {
          "indexed": true,
          "internalType": "address",
          "name": "oldOwner",
          "type": "address"
        },
        {
          "indexed": true,
          "internalType": "address",
          "name": "newOwner",
          "type": "address"
        }
      ],
      "name": "OwnershipTransferred",
      "type": "event"
    },
    {
      "anonymous": false,
      "inputs": [
        {
          "indexed": true,
          "internalType": "address",
          "name": "from",
          "type": "address"
        },
        {
          "indexed": true,
          "internalType": "address",
          "name": "to",
          "type": "address"
        },
        {
          "indexed": false,
          "internalType": "uint256",
          "name": "amount",
          "type": "uint256"
        }
      ],
      "name": "Transfer",
      "type": "event"
    },
    {
      "anonymous": false,
      "inputs": [
        {
          "indexed": true,
          "internalType": "address",
          "name": "to",
          "type": "address"
        },
        {
          "indexed": false,
          "internalType": "uint256",
          "name": "amount",
          "type": "uint256"
        }
      ],
      "name": "Withdrawal",
      "type": "event"
    },
    {
      "inputs": [],
      "name": "acceptOwnership",
      "outputs": [],
      "stateMutability": "nonpayable",
      "type": "function"
    },
    {
      "inputs": [
        {
          "internalType": "address",
          "name": "_owner",
          "type": "address"
        },
        {
          "internalType": "address",
          "name": "_spender",
          "type": "address"
        }
      ],
      "name": "allowance",
      "outputs": [
        {
          "internalType": "uint256",
          "name": "",
          "type": "uint256"
        }
      ],
      "stateMutability": "view",
      "type": "function"
    },
    {
      "inputs": [
        {
          "internalType": "address",
          "name": "_spender",
          "type": "address"
        },
        {
          "internalType": "uint256",
          "name": "_amount",
          "type": "uint256"
        }
      ],
      "name": "approve",
      "outputs": [
        {
          "internalType": "bool",
          "name": "",
          "type": "bool"
        }
      ],
      "stateMutability": "nonpayable",
      "type": "function"
    },
    {
      "inputs": [
        {
          "internalType": "address",
          "name": "_a",
          "type": "address"
        }
      ],
      "name": "balanceOf",
      "outputs": [
        {
          "internalType": "uint256",
          "name": "",
          "type": "uint256"
        }
      ],
      "stateMutability": "view",
      "type": "function"
    },
    {
      "inputs": [],
      "name": "decimals",
      "outputs": [
        {
          "internalType": "uint8",
          "name": "",
          "type": "uint8"
        }
      ],
      "stateMutability": "view",
      "type": "function"
    },
    {
      "inputs": [],
      "name": "deposit",
      "outputs": [],
      "stateMutability": "payable",
      "type": "function"
    },
    {
      "inputs": [],
      "name": "name",
      "outputs": [
        {
          "internalType": "string",
          "name": "",
          "type": "string"
        }
      ],
      "stateMutability": "view",
      "type": "function"
    },
    {
      "inputs": [],
      "name": "owner",
      "outputs": [
        {
          "internalType": "address",
          "name": "",
          "type": "address"
        }
      ],
      "stateMutability": "view",
      "type": "function"
    },
    {
      "inputs": [
        {
          "internalType": "address",
          "name": "_depositor",
          "type": "address"
        },
        {
          "internalType": "uint256",
          "name": "_amount",
          "type": "uint256"
        }
      ],
      "name": "recoverDeposit",
      "outputs": [],
      "stateMutability": "nonpayable",
      "type": "function"
    },
    {
      "inputs": [],
      "name": "recoveryTimelock",
      "outputs": [
        {
          "internalType": "uint256",
          "name": "",
          "type": "uint256"
        }
      ],
      "stateMutability": "view",
      "type": "function"
    },
    {
      "inputs": [],
      "name": "revokeOwnership",
      "outputs": [],
      "stateMutability": "nonpayable",
      "type": "function"
    },
    {
      "inputs": [],
      "name": "symbol",
      "outputs": [
        {
          "internalType": "string",
          "name": "",
          "type": "string"
        }
      ],
      "stateMutability": "view",
      "type": "function"
    },
    {
      "inputs": [],
      "name": "totalSupply",
      "outputs": [
        {
          "internalType": "uint256",
          "name": "",
          "type": "uint256"
        }
      ],
      "stateMutability": "view",
      "type": "function"
    },
    {
      "inputs": [
        {
          "internalType": "address",
          "name": "_to",
          "type": "address"
        },
        {
          "internalType": "uint256",
          "name": "_amount",
          "type": "uint256"
        }
      ],
      "name": "transfer",
      "outputs": [
        {
          "internalType": "bool",
          "name": "",
          "type": "bool"
        }
      ],
      "stateMutability": "nonpayable",
      "type": "function"
    },
    {
      "inputs": [
        {
          "internalType": "address",
          "name": "_owner",
          "type": "address"
        },
        {
          "internalType": "address",
          "name": "_to",
          "type": "address"
        },
        {
          "internalType": "uint256",
          "name": "_amount",
          "type": "uint256"
        }
      ],
      "name": "transferFrom",
      "outputs": [
        {
          "internalType": "bool",
          "name": "",
          "type": "bool"
        }
      ],
      "stateMutability": "nonpayable",
      "type": "function"
    },
    {
      "inputs": [
        {
          "internalType": "address",
          "name": "_newOwner",
          "type": "address"
        }
      ],
      "name": "transferOwnership",
      "outputs": [],
      "stateMutability": "nonpayable",
      "type": "function"
    },
    {
      "inputs": [
        {
          "internalType": "uint256",
          "name": "_amount",
          "type": "uint256"
        }
      ],
      "name": "withdraw",
      "outputs": [],
      "stateMutability": "nonpayable",
      "type": "function"
    },
    {
      "stateMutability": "payable",
      "type": "receive"
    }
  ],
  "transactionHash": "0xc2ffc2c8690afb656cd9a3a61b6c47039df863d2eca83f10aab30e2006b3f305",
  "args": [
    "0xe975146D08609310Ed4DB354233533Ad07dDc2F5"
  ],
  "numDeployments": 1,
  "solcInputHash": "a9e38262b2c08d893304a31da3aa4e9b",
  "bytecode": "0x60a060405262dd7c0042620000159190620003e1565b6080908152503480156200002857600080fd5b50604051620023103803806200231083398181016040528101906200004e919062000486565b806040518060400160405280600b81526020017f577261707065642046494c0000000000000000000000000000000000000000008152506040518060400160405280600481526020017f5746494c0000000000000000000000000000000000000000000000000000000081525060128260009081620000ce919062000728565b508160019081620000e0919062000728565b5080600260006101000a81548160ff021916908360ff160217905550505050600073ffffffffffffffffffffffffffffffffffffffff168173ffffffffffffffffffffffffffffffffffffffff160362000166576040517fe6c4247b00000000000000000000000000000000000000000000000000000000815260040160405180910390fd5b620001928173ffffffffffffffffffffffffffffffffffffffff166200025760201b6200122c1760201c565b600660006101000a81548173ffffffffffffffffffffffffffffffffffffffff021916908373ffffffffffffffffffffffffffffffffffffffff160217905550600660009054906101000a900473ffffffffffffffffffffffffffffffffffffffff1673ffffffffffffffffffffffffffffffffffffffff16600073ffffffffffffffffffffffffffffffffffffffff167f8be0079c531659141344cd1fd0a4f28419497f9722a3daafe3b4186f6b6457e060405160405180910390a350506200080f565b60008060006200026d84620002ba60201b60201c565b915091508162000282578392505050620002b5565b60008062000296836200030860201b60201c565b9150915081620002ad5785945050505050620002b5565b809450505050505b919050565b60008073ffffffffffffffffffffffff0000000000000000831673ff00000000000000000000000000000000000000810362000302576001925067ffffffffffffffff841691505b50915091565b600080826000526016600a6020600073fe000000000000000000000000000000000000025afa91506000518073ffffffffffffffffffffffffffffffffffffffff1691508060a01c61ffff1661040a8114620003675760009350600092505b5050811580620003875750601662000384620003a060201b60201c565b14155b156200039a57600080915091506200039b565b5b915091565b60003d905090565b6000819050919050565b7f4e487b7100000000000000000000000000000000000000000000000000000000600052601160045260246000fd5b6000620003ee82620003a8565b9150620003fb83620003a8565b9250828201905080821115620004165762000415620003b2565b5b92915050565b600080fd5b600073ffffffffffffffffffffffffffffffffffffffff82169050919050565b60006200044e8262000421565b9050919050565b620004608162000441565b81146200046c57600080fd5b50565b600081519050620004808162000455565b92915050565b6000602082840312156200049f576200049e6200041c565b5b6000620004af848285016200046f565b91505092915050565b600081519050919050565b7f4e487b7100000000000000000000000000000000000000000000000000000000600052604160045260246000fd5b7f4e487b7100000000000000000000000000000000000000000000000000000000600052602260045260246000fd5b600060028204905060018216806200053a57607f821691505b60208210810362000550576200054f620004f2565b5b50919050565b60008190508160005260206000209050919050565b60006020601f8301049050919050565b600082821b905092915050565b600060088302620005ba7fffffffffffffffffffffffffffffffffffffffffffffffffffffffffffffffff826200057b565b620005c686836200057b565b95508019841693508086168417925050509392505050565b6000819050919050565b60006200060962000603620005fd84620003a8565b620005de565b620003a8565b9050919050565b6000819050919050565b6200062583620005e8565b6200063d620006348262000610565b84845462000588565b825550505050565b600090565b6200065462000645565b620006618184846200061a565b505050565b5b8181101562000689576200067d6000826200064a565b60018101905062000667565b5050565b601f821115620006d857620006a28162000556565b620006ad846200056b565b81016020851015620006bd578190505b620006d5620006cc856200056b565b83018262000666565b50505b505050565b600082821c905092915050565b6000620006fd60001984600802620006dd565b1980831691505092915050565b6000620007188383620006ea565b9150826002028217905092915050565b6200073382620004b8565b67ffffffffffffffff8111156200074f576200074e620004c3565b5b6200075b825462000521565b620007688282856200068d565b600060209050601f831160018114620007a057600084156200078b578287015190505b6200079785826200070a565b86555062000807565b601f198416620007b08662000556565b60005b82811015620007da57848901518255600182019150602085019450602081019050620007b3565b86831015620007fa5784890151620007f6601f891682620006ea565b8355505b6001600288020188555050505b505050505050565b608051611ade6200083260003960008181610b610152610c580152611ade6000f3fe6080604052600436106101025760003560e01c8063670a43c41161009557806395d89b411161006457806395d89b4114610324578063a9059cbb1461034f578063d0e30db01461038c578063dd62ed3e14610396578063f2fde38b146103d357610111565b8063670a43c41461027a57806370a08231146102a557806379ba5097146102e25780638da5cb5b146102f957610111565b80632b968958116100d15780632b968958146101e65780632e1a7d4d146101fd578063313ce56714610226578063436f3b601461025157610111565b806306fdde0314610116578063095ea7b31461014157806318160ddd1461017e57806323b872dd146101a957610111565b366101115761010f6103fc565b005b600080fd5b34801561012257600080fd5b5061012b610456565b60405161013891906116c2565b60405180910390f35b34801561014d57600080fd5b506101686004803603810190610163919061177d565b6104e4565b60405161017591906117d8565b60405180910390f35b34801561018a57600080fd5b506101936105f7565b6040516101a09190611802565b60405180910390f35b3480156101b557600080fd5b506101d060048036038101906101cb919061181d565b6105fd565b6040516101dd91906117d8565b60405180910390f35b3480156101f257600080fd5b506101fb610893565b005b34801561020957600080fd5b50610224600480360381019061021f9190611870565b610a41565b005b34801561023257600080fd5b5061023b610ac5565b60405161024891906118b9565b60405180910390f35b34801561025d57600080fd5b506102786004803603810190610273919061177d565b610ad8565b005b34801561028657600080fd5b5061028f610c56565b60405161029c9190611802565b60405180910390f35b3480156102b157600080fd5b506102cc60048036038101906102c791906118d4565b610c7a565b6040516102d99190611802565b60405180910390f35b3480156102ee57600080fd5b506102f7610ce1565b005b34801561030557600080fd5b5061030e610e52565b60405161031b9190611910565b60405180910390f35b34801561033057600080fd5b50610339610e78565b60405161034691906116c2565b60405180910390f35b34801561035b57600080fd5b506103766004803603810190610371919061177d565b610f06565b60405161038391906117d8565b60405180910390f35b6103946103fc565b005b3480156103a257600080fd5b506103bd60048036038101906103b8919061192b565b611044565b6040516103ca9190611802565b60405180910390f35b3480156103df57600080fd5b506103fa60048036038101906103f591906118d4565b611107565b005b610406333461127b565b3373ffffffffffffffffffffffffffffffffffffffff167fe1fffcc4923d04b559f4d29a8bfc6cda04eb5b0d3c460751c2402c5c5cc9109c3460405161044c9190611802565b60405180910390a2565b600080546104639061199a565b80601f016020809104026020016040519081016040528092919081815260200182805461048f9061199a565b80156104dc5780601f106104b1576101008083540402835291602001916104dc565b820191906000526020600020905b8154815290600101906020018083116104bf57829003601f168201915b505050505081565b60006105058373ffffffffffffffffffffffffffffffffffffffff1661122c565b925081600560003373ffffffffffffffffffffffffffffffffffffffff1673ffffffffffffffffffffffffffffffffffffffff16815260200190815260200160002060008573ffffffffffffffffffffffffffffffffffffffff1673ffffffffffffffffffffffffffffffffffffffff168152602001908152602001600020819055508273ffffffffffffffffffffffffffffffffffffffff163373ffffffffffffffffffffffffffffffffffffffff167f8c5be1e5ebec7d5bd14f71427d1e84f3dd0314c0f7b2291e5b200ac8c7c3b925846040516105e59190611802565b60405180910390a36001905092915050565b60035481565b600061061e8473ffffffffffffffffffffffffffffffffffffffff1661122c565b935061063f8373ffffffffffffffffffffffffffffffffffffffff1661122c565b92506000600560008673ffffffffffffffffffffffffffffffffffffffff1673ffffffffffffffffffffffffffffffffffffffff16815260200190815260200160002060003373ffffffffffffffffffffffffffffffffffffffff1673ffffffffffffffffffffffffffffffffffffffff1681526020019081526020016000205490507fffffffffffffffffffffffffffffffffffffffffffffffffffffffffffffffff81146107765782816106f591906119fa565b600560008773ffffffffffffffffffffffffffffffffffffffff1673ffffffffffffffffffffffffffffffffffffffff16815260200190815260200160002060003373ffffffffffffffffffffffffffffffffffffffff1673ffffffffffffffffffffffffffffffffffffffff168152602001908152602001600020819055505b82600460008773ffffffffffffffffffffffffffffffffffffffff1673ffffffffffffffffffffffffffffffffffffffff16815260200190815260200160002060008282546107c591906119fa565b9250508190555082600460008673ffffffffffffffffffffffffffffffffffffffff1673ffffffffffffffffffffffffffffffffffffffff168152602001908152602001600020600082825461081b9190611a2e565b925050819055508373ffffffffffffffffffffffffffffffffffffffff168573ffffffffffffffffffffffffffffffffffffffff167fddf252ad1be2c89b69c2b068fc378daa952ba7f163c4a11628f55a4df523b3ef8560405161087f9190611802565b60405180910390a360019150509392505050565b600660009054906101000a900473ffffffffffffffffffffffffffffffffffffffff1673ffffffffffffffffffffffffffffffffffffffff163373ffffffffffffffffffffffffffffffffffffffff161461091a576040517f82b4290000000000000000000000000000000000000000000000000000000000815260040160405180910390fd5b600073ffffffffffffffffffffffffffffffffffffffff16600760009054906101000a900473ffffffffffffffffffffffffffffffffffffffff1673ffffffffffffffffffffffffffffffffffffffff16146109a2576040517f82b4290000000000000000000000000000000000000000000000000000000000815260040160405180910390fd5b6000600660006101000a81548173ffffffffffffffffffffffffffffffffffffffff021916908373ffffffffffffffffffffffffffffffffffffffff160217905550600073ffffffffffffffffffffffffffffffffffffffff163373ffffffffffffffffffffffffffffffffffffffff167f8be0079c531659141344cd1fd0a4f28419497f9722a3daafe3b4186f6b6457e060405160405180910390a3565b610a4b3382611375565b3373ffffffffffffffffffffffffffffffffffffffff167f7fcf532c15f0a6db0bd6d0e038bea71d30d808c7d98cb3bf7268a95bf5081b6582604051610a919190611802565b60405180910390a2610ac2813373ffffffffffffffffffffffffffffffffffffffff1661146f90919063ffffffff16565b50565b600260009054906101000a900460ff1681565b600660009054906101000a900473ffffffffffffffffffffffffffffffffffffffff1673ffffffffffffffffffffffffffffffffffffffff163373ffffffffffffffffffffffffffffffffffffffff1614610b5f576040517f82b4290000000000000000000000000000000000000000000000000000000000815260040160405180910390fd5b7f0000000000000000000000000000000000000000000000000000000000000000421015610bb9576040517f7d857b6700000000000000000000000000000000000000000000000000000000815260040160405180910390fd5b600060035447610bc991906119fa565b905080821115610bd857600080fd5b610bf78373ffffffffffffffffffffffffffffffffffffffff1661122c565b9250610c03838361127b565b8273ffffffffffffffffffffffffffffffffffffffff167fe1fffcc4923d04b559f4d29a8bfc6cda04eb5b0d3c460751c2402c5c5cc9109c83604051610c499190611802565b60405180910390a2505050565b7f000000000000000000000000000000000000000000000000000000000000000081565b600060046000610c9f8473ffffffffffffffffffffffffffffffffffffffff1661122c565b73ffffffffffffffffffffffffffffffffffffffff1673ffffffffffffffffffffffffffffffffffffffff168152602001908152602001600020549050919050565b600760009054906101000a900473ffffffffffffffffffffffffffffffffffffffff1673ffffffffffffffffffffffffffffffffffffffff163373ffffffffffffffffffffffffffffffffffffffff1614610d68576040517f82b4290000000000000000000000000000000000000000000000000000000000815260040160405180910390fd5b6000600660009054906101000a900473ffffffffffffffffffffffffffffffffffffffff16905033600660006101000a81548173ffffffffffffffffffffffffffffffffffffffff021916908373ffffffffffffffffffffffffffffffffffffffff160217905550600760006101000a81549073ffffffffffffffffffffffffffffffffffffffff02191690553373ffffffffffffffffffffffffffffffffffffffff168173ffffffffffffffffffffffffffffffffffffffff167f8be0079c531659141344cd1fd0a4f28419497f9722a3daafe3b4186f6b6457e060405160405180910390a350565b600660009054906101000a900473ffffffffffffffffffffffffffffffffffffffff1681565b60018054610e859061199a565b80601f0160208091040260200160405190810160405280929190818152602001828054610eb19061199a565b8015610efe5780601f10610ed357610100808354040283529160200191610efe565b820191906000526020600020905b815481529060010190602001808311610ee157829003601f168201915b505050505081565b6000610f278373ffffffffffffffffffffffffffffffffffffffff1661122c565b925081600460003373ffffffffffffffffffffffffffffffffffffffff1673ffffffffffffffffffffffffffffffffffffffff1681526020019081526020016000206000828254610f7891906119fa565b9250508190555081600460008573ffffffffffffffffffffffffffffffffffffffff1673ffffffffffffffffffffffffffffffffffffffff1681526020019081526020016000206000828254610fce9190611a2e565b925050819055508273ffffffffffffffffffffffffffffffffffffffff163373ffffffffffffffffffffffffffffffffffffffff167fddf252ad1be2c89b69c2b068fc378daa952ba7f163c4a11628f55a4df523b3ef846040516110329190611802565b60405180910390a36001905092915050565b6000600560006110698573ffffffffffffffffffffffffffffffffffffffff1661122c565b73ffffffffffffffffffffffffffffffffffffffff1673ffffffffffffffffffffffffffffffffffffffff16815260200190815260200160002060006110c48473ffffffffffffffffffffffffffffffffffffffff1661122c565b73ffffffffffffffffffffffffffffffffffffffff1673ffffffffffffffffffffffffffffffffffffffff16815260200190815260200160002054905092915050565b600660009054906101000a900473ffffffffffffffffffffffffffffffffffffffff1673ffffffffffffffffffffffffffffffffffffffff163373ffffffffffffffffffffffffffffffffffffffff161461118e576040517f82b4290000000000000000000000000000000000000000000000000000000000815260040160405180910390fd5b80600760006101000a81548173ffffffffffffffffffffffffffffffffffffffff021916908373ffffffffffffffffffffffffffffffffffffffff1602179055508073ffffffffffffffffffffffffffffffffffffffff163373ffffffffffffffffffffffffffffffffffffffff167f3c672e6c16e239c29e969deaf4eae15d7002350bf5490175e7481155af04c83a60405160405180910390a350565b600080600061123a84611551565b915091508161124d578392505050611276565b6000806112598361159e565b915091508161126e5785945050505050611276565b809450505050505b919050565b61129a8273ffffffffffffffffffffffffffffffffffffffff1661122c565b915080600360008282546112ae9190611a2e565b9250508190555080600460008473ffffffffffffffffffffffffffffffffffffffff1673ffffffffffffffffffffffffffffffffffffffff16815260200190815260200160002060008282546113049190611a2e565b925050819055508173ffffffffffffffffffffffffffffffffffffffff16600073ffffffffffffffffffffffffffffffffffffffff167fddf252ad1be2c89b69c2b068fc378daa952ba7f163c4a11628f55a4df523b3ef836040516113699190611802565b60405180910390a35050565b6113948273ffffffffffffffffffffffffffffffffffffffff1661122c565b915080600460008473ffffffffffffffffffffffffffffffffffffffff1673ffffffffffffffffffffffffffffffffffffffff16815260200190815260200160002060008282546113e591906119fa565b9250508190555080600360008282546113fe91906119fa565b92505081905550600073ffffffffffffffffffffffffffffffffffffffff168273ffffffffffffffffffffffffffffffffffffffff167fddf252ad1be2c89b69c2b068fc378daa952ba7f163c4a11628f55a4df523b3ef836040516114639190611802565b60405180910390a35050565b804710156114a9576040517f356680b700000000000000000000000000000000000000000000000000000000815260040160405180910390fd5b60008273ffffffffffffffffffffffffffffffffffffffff16826040516114cf90611a93565b60006040518083038185875af1925050503d806000811461150c576040519150601f19603f3d011682016040523d82523d6000602084013e611511565b606091505b505090508061154c576040517f3204506f00000000000000000000000000000000000000000000000000000000815260040160405180910390fd5b505050565b60008073ffffffffffffffffffffffff0000000000000000831673ff000000000000000000000000000000000000008103611598576001925067ffffffffffffffff841691505b50915091565b600080826000526016600a6020600073fe000000000000000000000000000000000000025afa91506000518073ffffffffffffffffffffffffffffffffffffffff1691508060a01c61ffff1661040a81146115fc5760009350600092505b50508115806116135750601661161061162a565b14155b156116245760008091509150611625565b5b915091565b60003d905090565b600081519050919050565b600082825260208201905092915050565b60005b8381101561166c578082015181840152602081019050611651565b60008484015250505050565b6000601f19601f8301169050919050565b600061169482611632565b61169e818561163d565b93506116ae81856020860161164e565b6116b781611678565b840191505092915050565b600060208201905081810360008301526116dc8184611689565b905092915050565b600080fd5b600073ffffffffffffffffffffffffffffffffffffffff82169050919050565b6000611714826116e9565b9050919050565b61172481611709565b811461172f57600080fd5b50565b6000813590506117418161171b565b92915050565b6000819050919050565b61175a81611747565b811461176557600080fd5b50565b60008135905061177781611751565b92915050565b60008060408385031215611794576117936116e4565b5b60006117a285828601611732565b92505060206117b385828601611768565b9150509250929050565b60008115159050919050565b6117d2816117bd565b82525050565b60006020820190506117ed60008301846117c9565b92915050565b6117fc81611747565b82525050565b600060208201905061181760008301846117f3565b92915050565b600080600060608486031215611836576118356116e4565b5b600061184486828701611732565b935050602061185586828701611732565b925050604061186686828701611768565b9150509250925092565b600060208284031215611886576118856116e4565b5b600061189484828501611768565b91505092915050565b600060ff82169050919050565b6118b38161189d565b82525050565b60006020820190506118ce60008301846118aa565b92915050565b6000602082840312156118ea576118e96116e4565b5b60006118f884828501611732565b91505092915050565b61190a81611709565b82525050565b60006020820190506119256000830184611901565b92915050565b60008060408385031215611942576119416116e4565b5b600061195085828601611732565b925050602061196185828601611732565b9150509250929050565b7f4e487b7100000000000000000000000000000000000000000000000000000000600052602260045260246000fd5b600060028204905060018216806119b257607f821691505b6020821081036119c5576119c461196b565b5b50919050565b7f4e487b7100000000000000000000000000000000000000000000000000000000600052601160045260246000fd5b6000611a0582611747565b9150611a1083611747565b9250828203905081811115611a2857611a276119cb565b5b92915050565b6000611a3982611747565b9150611a4483611747565b9250828201905080821115611a5c57611a5b6119cb565b5b92915050565b600081905092915050565b50565b6000611a7d600083611a62565b9150611a8882611a6d565b600082019050919050565b6000611a9e82611a70565b915081905091905056fea2646970667358221220b4ddcff21570efd4ffb9db5828915323f9e5aff6eb72aa3b9f71b5e3348f65ab64736f6c63430008110033",
  "devdoc": {
    "author": "fevmate (https://github.com/wadealexc/fevmate)",
    "kind": "dev",
    "methods": {},
    "version": 1
  },
  "userdoc": {
    "kind": "user",
    "methods": {
      "acceptOwnership()": {
        "notice": "Used by the pending owner to accept the ownership transfer. Note: If this fails unexpectedly, check that the pendingOwner is not an ID address. The pending owner address should match the pending owner's msg.sender address.         "
      },
      "deposit()": {
        "notice": "Deposit Fil into the contract, and mint WFIL 1:1."
      },
      "recoverDeposit(address,uint256)": {
        "notice": "Used by owner to unstick Fil that was directly transferred to the contract without triggering the deposit/receive functions. When called, _amount stuck Fil is converted to WFIL on behalf of the passed-in _depositor. This method ONLY converts Fil that would otherwise be permanently lost. --- About --- In the event someone accidentally sends Fil to this contract via FVM method METHOD_SEND (or via selfdestruct), the Fil will be lost rather than being converted to WFIL. This is because METHOD_SEND  transfers value without invoking the recipient's code. If this occurs, the contract's Fil balance will go up, but no WFIL will be minted. Luckily, this means we can calculate the number of   stuck tokens as the contract's Fil balance minus WFIL totalSupply,  and ensure we're only touching stuck tokens with this method. Please ensure you only ever send funds to this contract using the FVM method InvokeEVM! This method is not a get-out-of-jail free card, and comes with no guarantees. (If you're a lost EVM dev, address.call uses InvokeEVM under the hood. So in a purely contract-contract context, you don't need to do anything special - use address.call, or call the WFIL.deposit method as you would normally.)"
      },
      "revokeOwnership()": {
        "notice": "Allows the current owner to revoke the owner role, locking any onlyOwner functions. Note: this method requires that there is not currently a pending owner. To revoke ownership while there is a pending owner, the current owner must first set a new pending owner to address(0). Alternatively, the pending owner can claim ownership and then revoke it."
      },
      "transferOwnership(address)": {
        "notice": "Works like most 2-step ownership transfer methods. The current owner can call this to set a new pending owner.  Note: the new owner address is NOT normalized - it is stored as-is. This is safe, because the acceptOwnership method enforces that the new owner can make a transaction as msg.sender."
      },
      "withdraw(uint256)": {
        "notice": "Burns _amount WFIL from caller's balance, and transfers them the unwrapped Fil 1:1. Note: The fund transfer used here is address.call{value: _amount}(\"\"), which does NOT work with the FVM's builtin Multisig actor. This is because, under the hood, address.call acts like a message to an actor's InvokeEVM method. The Multisig actor does not implement this method.  This is a known issue, but we've decided to keep the method as-is, because it's likely that the Multisig actor is eventually upgraded to support this method. Even though a Multisig actor cannot directly withdraw, it is still possible for Multisigs to deposit, transfer, etc WFIL. So, if your Multisig actor needs to withdraw, you can transfer your WFIL to another contract, which can perform the withdrawal for you. (Though Multisig actors are not supported, BLS/SECPK/EthAccounts and EVM contracts can use this method normally)"
      }
    },
    "notice": "Wrapped filecoin implementation, using ERC20-FEVM mixin.",
    "version": 1
  },
  "storageLayout": {
    "storage": [
      {
        "astId": 25061,
        "contract": "lib/fevmate/contracts/token/WFIL.sol:WFIL",
        "label": "name",
        "offset": 0,
        "slot": "0",
        "type": "t_string_storage"
      },
      {
        "astId": 25063,
        "contract": "lib/fevmate/contracts/token/WFIL.sol:WFIL",
        "label": "symbol",
        "offset": 0,
        "slot": "1",
        "type": "t_string_storage"
      },
      {
        "astId": 25065,
        "contract": "lib/fevmate/contracts/token/WFIL.sol:WFIL",
        "label": "decimals",
        "offset": 0,
        "slot": "2",
        "type": "t_uint8"
      },
      {
        "astId": 25067,
        "contract": "lib/fevmate/contracts/token/WFIL.sol:WFIL",
        "label": "totalSupply",
        "offset": 0,
        "slot": "3",
        "type": "t_uint256"
      },
      {
        "astId": 25071,
        "contract": "lib/fevmate/contracts/token/WFIL.sol:WFIL",
        "label": "balances",
        "offset": 0,
        "slot": "4",
        "type": "t_mapping(t_address,t_uint256)"
      },
      {
        "astId": 25077,
        "contract": "lib/fevmate/contracts/token/WFIL.sol:WFIL",
        "label": "allowances",
        "offset": 0,
        "slot": "5",
        "type": "t_mapping(t_address,t_mapping(t_address,t_uint256))"
      },
      {
        "astId": 24913,
        "contract": "lib/fevmate/contracts/token/WFIL.sol:WFIL",
        "label": "owner",
        "offset": 0,
        "slot": "6",
        "type": "t_address"
      },
      {
        "astId": 24915,
        "contract": "lib/fevmate/contracts/token/WFIL.sol:WFIL",
        "label": "pendingOwner",
        "offset": 0,
        "slot": "7",
        "type": "t_address"
      }
    ],
    "types": {
      "t_address": {
        "encoding": "inplace",
        "label": "address",
        "numberOfBytes": "20"
      },
      "t_mapping(t_address,t_mapping(t_address,t_uint256))": {
        "encoding": "mapping",
        "key": "t_address",
        "label": "mapping(address => mapping(address => uint256))",
        "numberOfBytes": "32",
        "value": "t_mapping(t_address,t_uint256)"
      },
      "t_mapping(t_address,t_uint256)": {
        "encoding": "mapping",
        "key": "t_address",
        "label": "mapping(address => uint256)",
        "numberOfBytes": "32",
        "value": "t_uint256"
      },
      "t_string_storage": {
        "encoding": "bytes",
        "label": "string",
        "numberOfBytes": "32"
      },
      "t_uint256": {
        "encoding": "inplace",
        "label": "uint256",
        "numberOfBytes": "32"
      },
      "t_uint8": {
        "encoding": "inplace",
        "label": "uint8",
        "numberOfBytes": "1"
      }
    }
  }
}