{
  "address": "0x404490091F1DED4D99A947f996e1Ef967F5A288c",
  "abi": [
    {
      "inputs": [
        {
          "internalType": "uint256",
          "name": "_maxAllocation",
          "type": "uint256"
        }
      ],
      "stateMutability": "nonpayable",
      "type": "constructor"
    },
    {
      "inputs": [
        {
          "internalType": "int256",
          "name": "errorCode",
          "type": "int256"
        }
      ],
      "name": "ActorError",
      "type": "error"
    },
    {
      "inputs": [],
      "name": "ActorNotFound",
      "type": "error"
    },
    {
      "inputs": [],
      "name": "FailToCallActor",
      "type": "error"
    },
    {
      "inputs": [],
      "name": "FailToCallActor",
      "type": "error"
    },
    {
      "inputs": [
        {
          "internalType": "CommonTypes.FilActorId",
          "name": "actorId",
          "type": "uint64"
        }
      ],
      "name": "InvalidActorID",
      "type": "error"
    },
    {
      "inputs": [
        {
          "internalType": "uint64",
          "name": "",
          "type": "uint64"
        }
      ],
      "name": "InvalidCodec",
      "type": "error"
    },
    {
      "inputs": [],
      "name": "InvalidResponseLength",
      "type": "error"
    },
    {
      "inputs": [
        {
          "internalType": "uint256",
          "name": "balance",
          "type": "uint256"
        },
        {
          "internalType": "uint256",
          "name": "value",
          "type": "uint256"
        }
      ],
      "name": "NotEnoughBalance",
      "type": "error"
    },
    {
      "anonymous": false,
      "inputs": [
        {
          "indexed": false,
          "internalType": "address",
          "name": "collateral",
          "type": "address"
        }
      ],
      "name": "CollateralAddressUpdated",
      "type": "event"
    },
    {
      "anonymous": false,
      "inputs": [
        {
          "indexed": false,
          "internalType": "address",
          "name": "pool",
          "type": "address"
        }
      ],
      "name": "LiquidStakingPoolRegistered",
      "type": "event"
    },
    {
      "anonymous": false,
      "inputs": [
        {
          "indexed": true,
          "internalType": "bytes32",
          "name": "role",
          "type": "bytes32"
        },
        {
          "indexed": true,
          "internalType": "bytes32",
          "name": "previousAdminRole",
          "type": "bytes32"
        },
        {
          "indexed": true,
          "internalType": "bytes32",
          "name": "newAdminRole",
          "type": "bytes32"
        }
      ],
      "name": "RoleAdminChanged",
      "type": "event"
    },
    {
      "anonymous": false,
      "inputs": [
        {
          "indexed": true,
          "internalType": "bytes32",
          "name": "role",
          "type": "bytes32"
        },
        {
          "indexed": true,
          "internalType": "address",
          "name": "account",
          "type": "address"
        },
        {
          "indexed": true,
          "internalType": "address",
          "name": "sender",
          "type": "address"
        }
      ],
      "name": "RoleGranted",
      "type": "event"
    },
    {
      "anonymous": false,
      "inputs": [
        {
          "indexed": true,
          "internalType": "bytes32",
          "name": "role",
          "type": "bytes32"
        },
        {
          "indexed": true,
          "internalType": "address",
          "name": "account",
          "type": "address"
        },
        {
          "indexed": true,
          "internalType": "address",
          "name": "sender",
          "type": "address"
        }
      ],
      "name": "RoleRevoked",
      "type": "event"
    },
    {
      "anonymous": false,
      "inputs": [
        {
          "indexed": false,
          "internalType": "uint64",
          "name": "ownerId",
          "type": "uint64"
        },
        {
          "indexed": false,
          "internalType": "uint256",
          "name": "rewards",
          "type": "uint256"
        }
      ],
      "name": "StorageProviderAccruedRewards",
      "type": "event"
    },
    {
      "anonymous": false,
      "inputs": [
        {
          "indexed": false,
          "internalType": "uint64",
          "name": "ownerId",
          "type": "uint64"
        },
        {
          "indexed": false,
          "internalType": "uint256",
          "name": "allocationLimit",
          "type": "uint256"
        },
        {
          "indexed": false,
          "internalType": "uint256",
          "name": "dailyAllocation",
          "type": "uint256"
        }
      ],
      "name": "StorageProviderAllocationLimitRequest",
      "type": "event"
    },
    {
      "anonymous": false,
      "inputs": [
        {
          "indexed": false,
          "internalType": "uint64",
          "name": "ownerId",
          "type": "uint64"
        },
        {
          "indexed": false,
          "internalType": "uint256",
          "name": "allocationLimit",
          "type": "uint256"
        },
        {
          "indexed": false,
          "internalType": "uint256",
          "name": "dailyAllocation",
          "type": "uint256"
        },
        {
          "indexed": false,
          "internalType": "uint256",
          "name": "repayment",
          "type": "uint256"
        }
      ],
      "name": "StorageProviderAllocationLimitUpdate",
      "type": "event"
    },
    {
      "anonymous": false,
      "inputs": [
        {
          "indexed": false,
          "internalType": "uint64",
          "name": "ownerId",
          "type": "uint64"
        },
        {
          "indexed": false,
          "internalType": "uint256",
          "name": "usedAllocation",
          "type": "uint256"
        }
      ],
      "name": "StorageProviderAllocationUsed",
      "type": "event"
    },
    {
      "anonymous": false,
      "inputs": [
        {
          "indexed": false,
          "internalType": "uint64",
          "name": "ownerId",
          "type": "uint64"
        }
      ],
      "name": "StorageProviderBeneficiaryAddressAccepted",
      "type": "event"
    },
    {
      "anonymous": false,
      "inputs": [
        {
          "indexed": false,
          "internalType": "address",
          "name": "beneficiaryAddress",
          "type": "address"
        }
      ],
      "name": "StorageProviderBeneficiaryAddressUpdated",
      "type": "event"
    },
    {
      "anonymous": false,
      "inputs": [
        {
          "indexed": false,
          "internalType": "uint64",
          "name": "ownerId",
          "type": "uint64"
        }
      ],
      "name": "StorageProviderDeactivated",
      "type": "event"
    },
    {
      "anonymous": false,
      "inputs": [
        {
          "indexed": false,
          "internalType": "uint64",
          "name": "ownerId",
          "type": "uint64"
        },
        {
          "indexed": false,
          "internalType": "int64",
          "name": "lastEpoch",
          "type": "int64"
        }
      ],
      "name": "StorageProviderLastEpochUpdate",
      "type": "event"
    },
    {
      "anonymous": false,
      "inputs": [
        {
          "indexed": false,
          "internalType": "uint64",
          "name": "ownerId",
          "type": "uint64"
        },
        {
          "indexed": false,
          "internalType": "uint64",
          "name": "miner",
          "type": "uint64"
        }
      ],
      "name": "StorageProviderMinerAddressUpdate",
      "type": "event"
    },
    {
      "anonymous": false,
      "inputs": [
        {
          "indexed": false,
          "internalType": "uint64",
          "name": "ownerId",
          "type": "uint64"
        },
        {
          "indexed": false,
          "internalType": "uint256",
          "name": "restakingRatio",
          "type": "uint256"
        },
        {
          "indexed": false,
          "internalType": "address",
          "name": "restakingAddress",
          "type": "address"
        }
      ],
      "name": "StorageProviderMinerRestakingRatioUpdate",
      "type": "event"
    },
    {
      "anonymous": false,
      "inputs": [
        {
          "indexed": false,
          "internalType": "uint64",
          "name": "ownerId",
          "type": "uint64"
        },
        {
          "indexed": false,
          "internalType": "uint64",
          "name": "minerId",
          "type": "uint64"
        },
        {
          "indexed": false,
          "internalType": "uint256",
          "name": "allocationLimit",
          "type": "uint256"
        },
        {
          "indexed": false,
          "internalType": "uint256",
          "name": "dailyAllocation",
          "type": "uint256"
        },
        {
          "indexed": false,
          "internalType": "uint256",
          "name": "repayment",
          "type": "uint256"
        },
        {
          "indexed": false,
          "internalType": "int64",
          "name": "lastEpoch",
          "type": "int64"
        }
      ],
      "name": "StorageProviderOnboarded",
      "type": "event"
    },
    {
      "anonymous": false,
      "inputs": [
        {
          "indexed": false,
          "internalType": "bytes",
          "name": "owner",
          "type": "bytes"
        },
        {
          "indexed": false,
          "internalType": "uint64",
          "name": "ownerId",
          "type": "uint64"
        },
        {
          "indexed": false,
          "internalType": "uint64",
          "name": "minerId",
          "type": "uint64"
        },
        {
          "indexed": false,
          "internalType": "address",
          "name": "targetPool",
          "type": "address"
        },
        {
          "indexed": false,
          "internalType": "uint256",
          "name": "allocationLimit",
          "type": "uint256"
        },
        {
          "indexed": false,
          "internalType": "uint256",
          "name": "dailyAllocation",
          "type": "uint256"
        }
      ],
      "name": "StorageProviderRegistered",
      "type": "event"
    },
    {
      "anonymous": false,
      "inputs": [
        {
          "indexed": false,
          "internalType": "uint64",
          "name": "ownerId",
          "type": "uint64"
        },
        {
          "indexed": false,
          "internalType": "uint256",
          "name": "pledge",
          "type": "uint256"
        }
      ],
      "name": "StorageProviderRepaidPledge",
      "type": "event"
    },
    {
      "anonymous": false,
      "inputs": [
        {
          "indexed": false,
          "internalType": "uint256",
          "name": "maxAllocation",
          "type": "uint256"
        }
      ],
      "name": "UpdateMaxAllocation",
      "type": "event"
    },
    {
      "inputs": [],
      "name": "DEFAULT_ADMIN_ROLE",
      "outputs": [
        {
          "internalType": "bytes32",
          "name": "",
          "type": "bytes32"
        }
      ],
      "stateMutability": "view",
      "type": "function"
    },
    {
      "inputs": [
        {
          "internalType": "uint64",
          "name": "_ownerId",
          "type": "uint64"
        }
      ],
      "name": "acceptBeneficiaryAddress",
      "outputs": [],
      "stateMutability": "nonpayable",
      "type": "function"
    },
    {
      "inputs": [
        {
          "internalType": "uint64",
          "name": "",
          "type": "uint64"
        }
      ],
      "name": "allocationRequests",
      "outputs": [
        {
          "internalType": "uint256",
          "name": "allocationLimit",
          "type": "uint256"
        },
        {
          "internalType": "uint256",
          "name": "dailyAllocation",
          "type": "uint256"
        }
      ],
      "stateMutability": "view",
      "type": "function"
    },
    {
      "inputs": [
        {
          "internalType": "uint64",
          "name": "",
          "type": "uint64"
        }
      ],
      "name": "allocations",
      "outputs": [
        {
          "internalType": "uint256",
          "name": "allocationLimit",
          "type": "uint256"
        },
        {
          "internalType": "uint256",
          "name": "repayment",
          "type": "uint256"
        },
        {
          "internalType": "uint256",
          "name": "usedAllocation",
          "type": "uint256"
        },
        {
          "internalType": "uint256",
          "name": "dailyAllocation",
          "type": "uint256"
        },
        {
          "internalType": "uint256",
          "name": "accruedRewards",
          "type": "uint256"
        },
        {
          "internalType": "uint256",
          "name": "repaidPledge",
          "type": "uint256"
        }
      ],
      "stateMutability": "view",
      "type": "function"
    },
    {
      "inputs": [],
      "name": "changeBeneficiaryAddress",
      "outputs": [],
      "stateMutability": "nonpayable",
      "type": "function"
    },
    {
      "inputs": [],
      "name": "collateral",
      "outputs": [
        {
          "internalType": "contract IStorageProviderCollateralClient",
          "name": "",
          "type": "address"
        }
      ],
      "stateMutability": "view",
      "type": "function"
    },
    {
      "inputs": [
        {
          "internalType": "bytes32",
          "name": "",
          "type": "bytes32"
        }
      ],
      "name": "dailyUsages",
      "outputs": [
        {
          "internalType": "uint256",
          "name": "",
          "type": "uint256"
        }
      ],
      "stateMutability": "view",
      "type": "function"
    },
    {
      "inputs": [
        {
          "internalType": "uint64",
          "name": "_ownerId",
          "type": "uint64"
        }
      ],
      "name": "deactivateStorageProvider",
      "outputs": [],
      "stateMutability": "nonpayable",
      "type": "function"
    },
    {
      "inputs": [
        {
          "internalType": "bytes32",
          "name": "role",
          "type": "bytes32"
        }
      ],
      "name": "getRoleAdmin",
      "outputs": [
        {
          "internalType": "bytes32",
          "name": "",
          "type": "bytes32"
        }
      ],
      "stateMutability": "view",
      "type": "function"
    },
    {
      "inputs": [
        {
          "internalType": "uint64",
          "name": "_ownerId",
          "type": "uint64"
        }
      ],
      "name": "getStorageProvider",
      "outputs": [
        {
          "internalType": "bool",
          "name": "",
          "type": "bool"
        },
        {
          "internalType": "address",
          "name": "",
          "type": "address"
        },
        {
          "internalType": "uint64",
          "name": "",
          "type": "uint64"
        },
        {
          "internalType": "int64",
          "name": "",
          "type": "int64"
        }
      ],
      "stateMutability": "view",
      "type": "function"
    },
    {
      "inputs": [],
      "name": "getTotalActiveStorageProviders",
      "outputs": [
        {
          "internalType": "uint256",
          "name": "",
          "type": "uint256"
        }
      ],
      "stateMutability": "view",
      "type": "function"
    },
    {
      "inputs": [],
      "name": "getTotalStorageProviders",
      "outputs": [
        {
          "internalType": "uint256",
          "name": "",
          "type": "uint256"
        }
      ],
      "stateMutability": "view",
      "type": "function"
    },
    {
      "inputs": [
        {
          "internalType": "bytes32",
          "name": "role",
          "type": "bytes32"
        },
        {
          "internalType": "address",
          "name": "account",
          "type": "address"
        }
      ],
      "name": "grantRole",
      "outputs": [],
      "stateMutability": "nonpayable",
      "type": "function"
    },
    {
      "inputs": [
        {
          "internalType": "bytes32",
          "name": "role",
          "type": "bytes32"
        },
        {
          "internalType": "address",
          "name": "account",
          "type": "address"
        }
      ],
      "name": "hasRole",
      "outputs": [
        {
          "internalType": "bool",
          "name": "",
          "type": "bool"
        }
      ],
      "stateMutability": "view",
      "type": "function"
    },
    {
      "inputs": [
        {
          "internalType": "uint64",
          "name": "_ownerId",
          "type": "uint64"
        },
        {
          "internalType": "uint256",
          "name": "_repaidPledge",
          "type": "uint256"
        }
      ],
      "name": "increasePledgeRepayment",
      "outputs": [],
      "stateMutability": "nonpayable",
      "type": "function"
    },
    {
      "inputs": [
        {
          "internalType": "uint64",
          "name": "_ownerId",
          "type": "uint64"
        },
        {
          "internalType": "uint256",
          "name": "_accuredRewards",
          "type": "uint256"
        }
      ],
      "name": "increaseRewards",
      "outputs": [],
      "stateMutability": "nonpayable",
      "type": "function"
    },
    {
      "inputs": [
        {
          "internalType": "uint64",
          "name": "_ownerId",
          "type": "uint64"
        },
        {
          "internalType": "uint256",
          "name": "_allocated",
          "type": "uint256"
        },
        {
          "internalType": "uint256",
          "name": "_timestamp",
          "type": "uint256"
        }
      ],
      "name": "increaseUsedAllocation",
      "outputs": [],
      "stateMutability": "nonpayable",
      "type": "function"
    },
    {
      "inputs": [
        {
          "internalType": "address",
          "name": "_pool",
          "type": "address"
        }
      ],
      "name": "isActivePool",
      "outputs": [
        {
          "internalType": "bool",
          "name": "",
          "type": "bool"
        }
      ],
      "stateMutability": "view",
      "type": "function"
    },
    {
      "inputs": [
        {
          "internalType": "uint64",
          "name": "_ownerId",
          "type": "uint64"
        }
      ],
      "name": "isActiveProvider",
      "outputs": [
        {
          "internalType": "bool",
          "name": "status",
          "type": "bool"
        }
      ],
      "stateMutability": "view",
      "type": "function"
    },
    {
      "inputs": [],
      "name": "maxAllocation",
      "outputs": [
        {
          "internalType": "uint256",
          "name": "",
          "type": "uint256"
        }
      ],
      "stateMutability": "view",
      "type": "function"
    },
    {
      "inputs": [
        {
          "internalType": "uint64",
          "name": "_minerId",
          "type": "uint64"
        },
        {
          "internalType": "uint256",
          "name": "_allocationLimit",
          "type": "uint256"
        },
        {
          "internalType": "uint256",
          "name": "_dailyAllocation",
          "type": "uint256"
        },
        {
          "internalType": "uint256",
          "name": "_repayment",
          "type": "uint256"
        },
        {
          "internalType": "int64",
          "name": "_lastEpoch",
          "type": "int64"
        }
      ],
      "name": "onboardStorageProvider",
      "outputs": [],
      "stateMutability": "nonpayable",
      "type": "function"
    },
    {
      "inputs": [
        {
          "internalType": "address",
          "name": "",
          "type": "address"
        }
      ],
      "name": "pools",
      "outputs": [
        {
          "internalType": "bool",
          "name": "",
          "type": "bool"
        }
      ],
      "stateMutability": "view",
      "type": "function"
    },
    {
      "inputs": [
        {
          "internalType": "uint64",
          "name": "_minerId",
          "type": "uint64"
        },
        {
          "internalType": "address",
          "name": "_targetPool",
          "type": "address"
        },
        {
          "internalType": "uint256",
          "name": "_allocationLimit",
          "type": "uint256"
        },
        {
          "internalType": "uint256",
          "name": "_dailyAllocation",
          "type": "uint256"
        }
      ],
      "name": "register",
      "outputs": [],
      "stateMutability": "nonpayable",
      "type": "function"
    },
    {
      "inputs": [
        {
          "internalType": "address",
          "name": "_pool",
          "type": "address"
        }
      ],
      "name": "registerPool",
      "outputs": [],
      "stateMutability": "nonpayable",
      "type": "function"
    },
    {
      "inputs": [
        {
          "internalType": "bytes32",
          "name": "role",
          "type": "bytes32"
        },
        {
          "internalType": "address",
          "name": "account",
          "type": "address"
        }
      ],
      "name": "renounceRole",
      "outputs": [],
      "stateMutability": "nonpayable",
      "type": "function"
    },
    {
      "inputs": [
        {
          "internalType": "uint256",
          "name": "_allocationLimit",
          "type": "uint256"
        },
        {
          "internalType": "uint256",
          "name": "_dailyAllocation",
          "type": "uint256"
        }
      ],
      "name": "requestAllocationLimitUpdate",
      "outputs": [],
      "stateMutability": "nonpayable",
      "type": "function"
    },
    {
      "inputs": [
        {
          "internalType": "uint64",
          "name": "",
          "type": "uint64"
        }
      ],
      "name": "restakings",
      "outputs": [
        {
          "internalType": "uint256",
          "name": "restakingRatio",
          "type": "uint256"
        },
        {
          "internalType": "address",
          "name": "restakingAddress",
          "type": "address"
        }
      ],
      "stateMutability": "view",
      "type": "function"
    },
    {
      "inputs": [
        {
          "internalType": "bytes32",
          "name": "role",
          "type": "bytes32"
        },
        {
          "internalType": "address",
          "name": "account",
          "type": "address"
        }
      ],
      "name": "revokeRole",
      "outputs": [],
      "stateMutability": "nonpayable",
      "type": "function"
    },
    {
      "inputs": [
        {
          "internalType": "uint64",
          "name": "",
          "type": "uint64"
        }
      ],
      "name": "sectorSizes",
      "outputs": [
        {
          "internalType": "uint64",
          "name": "",
          "type": "uint64"
        }
      ],
      "stateMutability": "view",
      "type": "function"
    },
    {
      "inputs": [
        {
          "internalType": "address",
          "name": "_collateral",
          "type": "address"
        }
      ],
      "name": "setCollateralAddress",
      "outputs": [],
      "stateMutability": "nonpayable",
      "type": "function"
    },
    {
      "inputs": [
        {
          "internalType": "uint64",
          "name": "_ownerId",
          "type": "uint64"
        },
        {
          "internalType": "uint64",
          "name": "_minerId",
          "type": "uint64"
        }
      ],
      "name": "setMinerAddress",
      "outputs": [],
      "stateMutability": "nonpayable",
      "type": "function"
    },
    {
      "inputs": [
        {
          "internalType": "uint256",
          "name": "_restakingRatio",
          "type": "uint256"
        },
        {
          "internalType": "address",
          "name": "_restakingAddress",
          "type": "address"
        }
      ],
      "name": "setRestaking",
      "outputs": [],
      "stateMutability": "nonpayable",
      "type": "function"
    },
    {
      "inputs": [
        {
          "internalType": "uint64",
          "name": "",
          "type": "uint64"
        }
      ],
      "name": "storageProviders",
      "outputs": [
        {
          "internalType": "bool",
          "name": "active",
          "type": "bool"
        },
        {
          "internalType": "bool",
          "name": "onboarded",
          "type": "bool"
        },
        {
          "internalType": "address",
          "name": "targetPool",
          "type": "address"
        },
        {
          "internalType": "uint64",
          "name": "minerId",
          "type": "uint64"
        },
        {
          "internalType": "int64",
          "name": "lastEpoch",
          "type": "int64"
        }
      ],
      "stateMutability": "view",
      "type": "function"
    },
    {
      "inputs": [
        {
          "internalType": "bytes4",
          "name": "interfaceId",
          "type": "bytes4"
        }
      ],
      "name": "supportsInterface",
      "outputs": [
        {
          "internalType": "bool",
          "name": "",
          "type": "bool"
        }
      ],
      "stateMutability": "view",
      "type": "function"
    },
    {
      "inputs": [],
      "name": "totalInactiveStorageProviders",
      "outputs": [
        {
          "internalType": "uint256",
          "name": "_value",
          "type": "uint256"
        }
      ],
      "stateMutability": "view",
      "type": "function"
    },
    {
      "inputs": [],
      "name": "totalStorageProviders",
      "outputs": [
        {
          "internalType": "uint256",
          "name": "_value",
          "type": "uint256"
        }
      ],
      "stateMutability": "view",
      "type": "function"
    },
    {
      "inputs": [
        {
          "internalType": "uint64",
          "name": "_ownerId",
          "type": "uint64"
        },
        {
          "internalType": "uint256",
          "name": "_allocationLimit",
          "type": "uint256"
        },
        {
          "internalType": "uint256",
          "name": "_dailyAllocation",
          "type": "uint256"
        },
        {
          "internalType": "uint256",
          "name": "_repaymentAmount",
          "type": "uint256"
        }
      ],
      "name": "updateAllocationLimit",
      "outputs": [],
      "stateMutability": "nonpayable",
      "type": "function"
    },
    {
      "inputs": [
        {
          "internalType": "uint256",
          "name": "allocation",
          "type": "uint256"
        }
      ],
      "name": "updateMaxAllocation",
      "outputs": [],
      "stateMutability": "nonpayable",
      "type": "function"
    }
  ],
  "transactionHash": "0x4c160f9835c8632057c770b508eba49f9e6547fda3fe50d38358abddb34e1ff9",
  "args": [
    "1000000000000000000000000"
  ],
  "numDeployments": 1,
  "solcInputHash": "33ba213cbc05a36285b1e9f64d98074b",
  "bytecode": "0x6080604052600180553480156200001557600080fd5b5060405162004678380380620046788339810160408190526200003891620003a7565b620000456000336200007a565b620000717fbece676c514da111c8b3698f9a0424811c5c874fd0667943c7e3c04054274a3e336200008a565b600b5562000592565b620000868282620000b8565b5050565b600082815260208190526040902060010154620000a78162000140565b620000b38383620000b8565b505050565b620000c482826200014f565b62000086576000828152602081815260408083206001600160a01b03851684529091529020805460ff19166001179055620000fc3390565b6001600160a01b0316816001600160a01b0316837f2f8788117e7eff1d82e926ec794901d17c78024a50270940304540a733656f0d60405160405180910390a45050565b6200014c81336200017a565b50565b6000828152602081815260408083206001600160a01b038516845290915290205460ff165b92915050565b6200018682826200014f565b6200008657620001a181620001fb60201b62001dca1760201c565b620001b783602062001ddc6200020e821b17811c565b604051602001620001ca9291906200041f565b60408051601f198184030181529082905262461bcd60e51b8252620001f291600401620004b0565b60405180910390fd5b6060620001746001600160a01b03831660145b606060006200021f836002620004d9565b6200022c906002620004fb565b6001600160401b0381111562000246576200024662000511565b6040519080825280601f01601f19166020018201604052801562000271576020820181803683370190505b509050600360fc1b816000815181106200028f576200028f62000527565b60200101906001600160f81b031916908160001a905350600f60fb1b81600181518110620002c157620002c162000527565b60200101906001600160f81b031916908160001a9053506000620002e7846002620004d9565b620002f4906001620004fb565b90505b600181111562000376576f181899199a1a9b1b9c1cb0b131b232b360811b85600f16601081106200032c576200032c62000527565b1a60f81b82828151811062000345576200034562000527565b60200101906001600160f81b031916908160001a90535060049490941c936200036e816200053d565b9050620002f7565b508315620003985760405162461bcd60e51b8152600401620001f29062000557565b9392505050565b805162000174565b600060208284031215620003be57620003be600080fd5b6000620003cc84846200039f565b949350505050565b60005b83811015620003f1578181015183820152602001620003d7565b50506000910152565b600062000405825190565b62000415818560208601620003d4565b9290920192915050565b7f416363657373436f6e74726f6c3a206163636f756e742000000000000000000081526017016000620004538285620003fa565b7001034b99036b4b9b9b4b733903937b6329607d1b81526011019150620003cc8284620003fa565b600062000486825190565b8084526020840193506200049f818560208601620003d4565b601f01601f19169290920192915050565b602080825281016200039881846200047b565b634e487b7160e01b600052601160045260246000fd5b818102808215838204851417620004f457620004f4620004c3565b5092915050565b80820180821115620001745762000174620004c3565b634e487b7160e01b600052604160045260246000fd5b634e487b7160e01b600052603260045260246000fd5b6000816200054f576200054f620004c3565b506000190190565b60208082528181019081527f537472696e67733a20686578206c656e67746820696e73756666696369656e7460408301526060820162000174565b6140d680620005a26000396000f3fe608060405234801561001057600080fd5b50600436106101c25760003560e01c806301ffc9a7146101c7578063029d262e146101f05780630e2fc9e1146102055780630ecce72014610218578063154caabb1461022d578063248a9ca31461025957806324da48a31461026c578063261d83151461027f5780632d0c628a146102925780632e54941e146102a55780632f2ff15d1461030157806336568abe146103145780634978e4b7146103275780634f85bf321461033a578063557a85261461034d57806376246e33146103555780637aca42fe1461038b5780637b5ae0cd1461039e5780637ecfe05a146103a65780637f2d1a60146103b95780638097354f146103cc578063853d941d146103f857806391d148541461042d5780639b3ba79f146104405780639e5c139914610449578063a1e25bd014610487578063a217fddf14610491578063a4063dbc14610499578063a93fbf86146104bc578063abd90846146104cf578063b0298c31146104e2578063b2f7be7614610581578063be7aebcd1461058b578063d2d3164b1461059e578063d547741f146105be578063d8dfeb45146105d1578063dd6460ce146105f1578063fa2755c31461065c575b600080fd5b6101da6101d5366004612d52565b61066f565b6040516101e79190612d7d565b60405180910390f35b6102036101fe366004612db6565b6106a6565b005b610203610213366004612e17565b61078f565b61022061096e565b6040516101e79190612e95565b6101da61023b366004612ea3565b6001600160401b031660009081526002602052604090205460ff1690565b610220610267366004612ec4565b61098b565b61020361027a366004612ec4565b6109a0565b61020361028d366004612ee5565b610a4b565b6102036102a0366004612f22565b610b0a565b6102ef6102b3366004612ea3565b60036020528060005260406000206000915090508060000154908060010154908060020154908060030154908060040154908060050154905086565b6040516101e796959493929190612f55565b61020361030f366004612fa4565b610cd0565b610203610322366004612fa4565b610cf1565b610203610335366004612fd7565b610d27565b610203610348366004612ea3565b610e70565b610203610f3b565b61037e610363366004612ea3565b6006602052600090815260409020546001600160401b031681565b6040516101e79190613036565b610203610399366004613044565b611117565b610220611383565b6102036103b43660046130a8565b61138e565b6102036103c7366004612ee5565b611754565b6101da6103da366004612db6565b6001600160a01b031660009081526008602052604090205460ff1690565b61041f610406366004612ea3565b6005602052600090815260409020805460019091015482565b6040516101e79291906130de565b6101da61043b366004612fa4565b6117e2565b610220600b5481565b610479610457366004612ea3565b600460205260009081526040902080546001909101546001600160a01b031682565b6040516101e7929190613102565b6009546102209081565b610220600081565b6101da6104a7366004612db6565b60086020526000908152604090205460ff1681565b6102036104ca36600461311d565b61180b565b6102036104dd366004612db6565b6119f9565b6105716104f0366004612ea3565b6001600160401b03908116600090815260026020908152604091829020825160a081018452815460ff808216151580845261010083049091161515948301949094526201000081046001600160a01b0316948201859052600160b01b90049094166060850181905260019091015460070b6080909401849052909391929091565b6040516101e79493929190613149565b600a546102209081565b610203610599366004612fa4565b611aea565b6102206105ac366004612ec4565b60076020526000908152604090205481565b6102036105cc366004612fa4565b611bba565b600c546105e4906001600160a01b031681565b6040516101e791906131b6565b61064b6105ff366004612ea3565b6002602052600090815260409020805460019091015460ff808316926101008104909116916201000082046001600160a01b031691600160b01b90046001600160401b03169060070b85565b6040516101e79594939291906131c4565b61020361066a366004612ea3565b611bd6565b60006001600160e01b03198216637965db0b60e01b14806106a057506301ffc9a760e01b6001600160e01b03198316145b92915050565b6106be600080516020614081833981519152336117e2565b6106e35760405162461bcd60e51b81526004016106da9061322e565b60405180910390fd5b6001600160a01b0381166107095760405162461bcd60e51b81526004016106da90613264565b600c546001600160a01b0390811690821681036107385760405162461bcd60e51b81526004016106da90613297565b600c80546001600160a01b0319166001600160a01b0384161790556040517f823c58e2969bcdf1301b932fcbced62d5d4617880949dd434df13d001b3a1162906107839084906132a7565b60405180910390a15050565b6001546001146107b15760405162461bcd60e51b81526004016106da906132d6565b60026001556107ce600080516020614081833981519152336117e2565b6107ea5760405162461bcd60e51b81526004016106da9061322e565b8382116108095760405162461bcd60e51b81526004016106da90613310565b600b5484111561082b5760405162461bcd60e51b81526004016106da9061334b565b84600061083782611f4e565b602080820151518051908201206040805192830190526000909152909150600080516020614061833981519152146108815760405162461bcd60e51b81526004016106da90613384565b60006108908260000151611f8d565b6001600160401b038116600090815260026020818152604080842060038352932091905281549293509091610100900460ff16156108e05760405162461bcd60e51b81526004016106da906133bd565b815461ff001916610100178255600182810180546001600160401b0389166001600160401b03199091161790558101879055888155600381018890556040517fa023ff258c2cf4bbb89ff7b29a652f01c9132b5ad8bca0f51767a4e972ec22a7906109569085908d908d908d908d908d906133cd565b60405180910390a15050600180555050505050505050565b6000610979600a5490565b6009546109869190613432565b905090565b60009081526020819052604090206001015490565b6109b8600080516020614081833981519152336117e2565b6109d45760405162461bcd60e51b81526004016106da9061322e565b600081116109f45760405162461bcd60e51b81526004016106da9061346e565b600b54808203610a165760405162461bcd60e51b81526004016106da906134a4565b600b8290556040517f39db4c142f7363a2d6a0c4a06b5f53631194e27e1c9e1ee7996b7e0acc561ce390610783908490612e95565b3360009081526008602052604090205460ff16610a7a5760405162461bcd60e51b81526004016106da9061322e565b6001600160401b03821660009081526003602052604090206005810154610aa29083906134b4565b6005820181905560028201541015610acc5760405162461bcd60e51b81526004016106da906134f7565b7f1124506509059ae4a33548514242566cb78aeb3d1a720b18dbec366182bae5888383604051610afd929190613507565b60405180910390a1505050565b6001600160401b038216600090815260026020526040902054829060ff16610b445760405162461bcd60e51b81526004016106da90613545565b610b5c600080516020614081833981519152336117e2565b610b785760405162461bcd60e51b81526004016106da9061322e565b6001600160401b03808416600090815260026020526040902054600160b01b900481169083168103610bbc5760405162461bcd60e51b81526004016106da90613576565b826000610bc882611f4e565b604080516020808201909252600090528082015151805191012090915060008051602061406183398151915214610c115760405162461bcd60e51b81526004016106da90613384565b6000610c208260000151611f8d565b9050866001600160401b0316816001600160401b031614610c535760405162461bcd60e51b81526004016106da906135b4565b6001600160401b03808816600090815260026020526040908190208054928916600160b01b02600160b01b600160f01b031990931692909217909155517f0ebad5580422e1bba5ee173f19698e506fd96a2d04253a0901c1db86f654c84990610cbf90899089906135c4565b60405180910390a150505050505050565b610cd98261098b565b610ce281612037565b610cec8383612044565b505050565b6001600160a01b0381163314610d195760405162461bcd60e51b81526004016106da9061362e565b610d2382826120c8565b5050565b600c546001600160a01b03163314610d515760405162461bcd60e51b81526004016106da9061322e565b6000806000610d5f8461212d565b9250925092506000838383604051602001610d7c9392919061363e565b60408051601f198184030181529181528151602092830120600081815260079093529082205490925090610db088836134b4565b6001600160401b038a1660009081526003602081905260409091209081015491925090821115610df25760405162461bcd60e51b81526004016106da906136a5565b888160020154610e0291906134b4565b6002820155600084815260076020526040812080548b9290610e259084906134b4565b90915550506040517f5fc112892cdeb5d0ea544d634fb55a2eb4ba066d9ad730b67f34791462ebf51b90610e5c908c908c90613507565b60405180910390a150505050505050505050565b6001600160401b038116600090815260026020526040902054819060ff16610eaa5760405162461bcd60e51b81526004016106da90613545565b610ec2600080516020614081833981519152336117e2565b610ede5760405162461bcd60e51b81526004016106da9061322e565b6001600160401b0382166000908152600260205260409020805460ff19169055610f0c600a80546001019055565b7fec36a8776cbb637a0a427dc03df67a0283f596365d3d127696243e82d612c88f826040516107839190613036565b600154600114610f5d5760405162461bcd60e51b81526004016106da906132d6565b60026001556000610f6d33612153565b9050600080610f84836001600160a01b0316612191565b9150915081610fa55760405162461bcd60e51b81526004016106da906136dd565b6001600160401b03808216600090815260026020908152604091829020825160a081018452815460ff8082161515835261010082041615159382018490526001600160a01b036201000082041694820194909452600160b01b909304909316606083015260019092015460070b6080820152906110345760405162461bcd60e51b81526004016106da90613714565b6001600160401b03821660009081526002602090815260408083205460608501518583015160039094529382902060010154608086015192516321958b2b60e11b8152620100009092046001600160a01b03169463432b1656946110a094919390929190600401613724565b600060405180830381600087803b1580156110ba57600080fd5b505af11580156110ce573d6000803e3d6000fd5b505050507f906cdab773befe815c0a81a3837dc4df80e433c0c26e4ee402007515bb777c1c816040015160405161110591906132a7565b60405180910390a15050600180555050565b6001600160401b038416600090815260026020526040902054849060ff166111515760405162461bcd60e51b81526004016106da90613545565b6001546001146111735760405162461bcd60e51b81526004016106da906132d6565b6002600155611190600080516020614081833981519152336117e2565b6111ac5760405162461bcd60e51b81526004016106da9061322e565b6001600160401b038516600090815260056020908152604091829020825180840190935280548084526001909101549183019190915285146112005760405162461bcd60e51b81526004016106da9061346e565b838160200151146112235760405162461bcd60e51b81526004016106da9061377b565b6001600160401b038087166000818152600260208181526040808420815160a081018352815460ff808216151583526101008204161515828601526001600160a01b0362010000820416828501818152600160b01b9092049099166060830190815260019093015460070b60808301908152979096529390925290519251935190516321958b2b60e11b815291949363432b1656936112c89390928a91600401613724565b600060405180830381600087803b1580156112e257600080fd5b505af11580156112f6573d6000803e3d6000fd5b505050506001600160401b03871660009081526003602081815260408084208a8155928301899055600180840189905560059092528084208481559091019290925590517f6eaa57f14bb4acd5ffc19285fec33d57c58d9fdf748cc9502219d2bded72f6119061136d908a908a908a908a9061378b565b60405180910390a1505060018055505050505050565b600061098660095490565b6001546001146113b05760405162461bcd60e51b81526004016106da906132d6565b6002600155600b548211156113d75760405162461bcd60e51b81526004016106da9061346e565b6001600160a01b03831660009081526008602052604090205460ff1661140f5760405162461bcd60e51b81526004016106da906137ea565b6040805160a08101825260008082526020820181905291810182905260608101829052608081019190915261144333612153565b6001600160a01b031680825261145890612191565b6001600160401b0316604083015215156020820181905261148b5760405162461bcd60e51b81526004016106da906136dd565b84600061149782611f4e565b6040805160208082019092526000905280820151518051910120909150600080516020614061833981519152146114e05760405162461bcd60e51b81526004016106da90613384565b80516114eb90611f8d565b6001600160401b03908116606085018190526040850151909116146115225760405162461bcd60e51b81526004016106da906135b4565b60608301516001600160401b0316600090815260026020526040902054610100900460ff16156115645760405162461bcd60e51b81526004016106da906133bd565b6060830180516001600160401b039081166000908152600260209081526040808320805462010000600160f01b031916600160b01b8e87160262010000600160b01b03191617620100006001600160a01b038e1602178155945190931682526003908190529190208781559081018690556115de84612202565b6001600160401b03908116608087018190526060870151909116600090815260066020526040902080546001600160401b0319169091179055611625600980546001019055565b611633600a80546001019055565b600c54606086015160405163335f183960e01b81526001600160a01b039092169163335f1839916116699160009060040161380f565b600060405180830381600087803b15801561168357600080fd5b505af1158015611697573d6000803e3d6000fd5b505050606086015160405163f9737db960e01b81526001600160a01b038b16925063f9737db9916116cd9160009060040161380f565b600060405180830381600087803b1580156116e757600080fd5b505af11580156116fb573d6000803e3d6000fd5b505084515160608801516040517f9346111d414b53e51a9c5d64a17479d23c5c981f0ae8f5ef3d211a91011ef4ae945061173d93508d908d908d908d9061388c565b60405180910390a150506001805550505050505050565b3360009081526008602052604090205460ff166117835760405162461bcd60e51b81526004016106da9061322e565b6001600160401b038216600090815260036020526040902060048101546117ab9083906134b4565b60048201556040517fd3adca66167eaebe0bf908f97055d75ea826041f45a2ef406a2f03e07a65f75890610afd9085908590613507565b6000918252602082815260408084206001600160a01b0393909316845291905290205460ff1690565b600061181633612153565b905060008061182d836001600160a01b0316612191565b915091508161184e5760405162461bcd60e51b81526004016106da906136dd565b6001600160401b03808216600090815260026020908152604091829020825160a081018452815460ff808216151580845261010083049091161515948301949094526001600160a01b036201000082041694820194909452600160b01b909304909316606083015260019092015460070b6080820152906118e15760405162461bcd60e51b81526004016106da90613545565b6001600160401b038216600090815260036020818152604092839020835160c08101855281548082526001830154938201939093526002820154948101949094529182015460608401526004820154608084015260059091015460a083015287141580611952575085816060015114155b61196e5760405162461bcd60e51b81526004016106da906138f2565b600b548711156119905760405162461bcd60e51b81526004016106da9061392c565b6001600160401b038316600090815260056020526040908190208881556001810188905590517fd0198e2535194b2efbec973cb73349e6d1edd434a271491d44c2f620a997a3c3906119e79086908b908b9061393c565b60405180910390a15050505050505050565b611a11600080516020614081833981519152336117e2565b611a2d5760405162461bcd60e51b81526004016106da9061322e565b6001600160a01b038116611a535760405162461bcd60e51b81526004016106da90613264565b6001600160a01b03811660009081526008602052604090205460ff1615611a8c5760405162461bcd60e51b81526004016106da9061398e565b6001600160a01b03811660009081526008602052604090819020805460ff19166001179055517fbba7dd87057c9346bdb652d4c49948e76139a24eb1975262e98556f0455466ac90611adf9083906132a7565b60405180910390a150565b6000611af533612234565b9050612710831115611b195760405162461bcd60e51b81526004016106da906139cc565b6001600160a01b038216611b3f5760405162461bcd60e51b81526004016106da90613264565b6001600160401b038116600090815260046020526040908190208481556001810180546001600160a01b0319166001600160a01b03861617905590517ffec0818a0fae8fa0693f4ab6209e6ace854f156067b4069ebede3c8c0262251190611bac908490879087906139dc565b60405180910390a150505050565b611bc38261098b565b611bcc81612037565b610cec83836120c8565b600154600114611bf85760405162461bcd60e51b81526004016106da906132d6565b6002600155611c15600080516020614081833981519152336117e2565b611c315760405162461bcd60e51b81526004016106da9061322e565b6001600160401b03808216600090815260026020908152604091829020825160a081018452815460ff8082161515835261010082041615159382018490526001600160a01b036201000082041694820194909452600160b01b909304909316606083015260019092015460070b608082015290611cc05760405162461bcd60e51b81526004016106da90613714565b6001600160401b03821660009081526002602090815260408083205460608501518583015160039094529382902060010154608086015192516321958b2b60e11b8152620100009092046001600160a01b03169463432b165694611d2c94919390929190600401613724565b600060405180830381600087803b158015611d4657600080fd5b505af1158015611d5a573d6000803e3d6000fd5b5050506001600160401b0383166000908152600260205260409020805460ff1916600117905550611d8b600a6122fe565b7f5087366327b1aef4b5e946461225164c036e5dda2b25c458ea1bb444586b6a5082604051611dba9190613036565b60405180910390a1505060018055565b60606106a06001600160a01b03831660145b60606000611deb836002613a04565b611df69060026134b4565b6001600160401b03811115611e0d57611e0d613a23565b6040519080825280601f01601f191660200182016040528015611e37576020820181803683370190505b509050600360fc1b81600081518110611e5257611e52613a39565b60200101906001600160f81b031916908160001a905350600f60fb1b81600181518110611e8157611e81613a39565b60200101906001600160f81b031916908160001a9053506000611ea5846002613a04565b611eb09060016134b4565b90505b6001811115611f28576f181899199a1a9b1b9c1cb0b131b232b360811b85600f1660108110611ee457611ee4613a39565b1a60f81b828281518110611efa57611efa613a39565b60200101906001600160f81b031916908160001a90535060049490941c93611f2181613a4f565b9050611eb3565b508315611f475760405162461bcd60e51b81526004016106da90613a98565b9392505050565b611f56612d08565b6040805160008082526020820190925290611f7a8463c33a1cc68385816001612325565b9050611f858161236d565b949350505050565b60008060006001607f60991b016001600160a01b03168460000151604051611fb59190613aca565b600060405180830381855afa9150503d8060008114611ff0576040519150601f19603f3d011682016040523d82523d6000602084013e611ff5565b606091505b50915091508161201857604051638a7db5bf60e01b815260040160405180910390fd5b60008180602001905181019061202e9190613ae1565b95945050505050565b61204181336123ed565b50565b61204e82826117e2565b610d23576000828152602081815260408083206001600160a01b03851684529091529020805460ff191660011790556120843390565b6001600160a01b0316816001600160a01b0316837f2f8788117e7eff1d82e926ec794901d17c78024a50270940304540a733656f0d60405160405180910390a45050565b6120d282826117e2565b15610d23576000828152602081815260408083206001600160a01b0385168085529252808320805460ff1916905551339285917ff6391f5c32d9c69d2a47ea670b442974b53935d1edc7fd64eb21e047a839171b9190a45050565b600080806121466121416201518086613b18565b612446565b9196909550909350915050565b6000806000612161846125ba565b915091508161217257509192915050565b60008061217e836125ec565b915091508161202e575093949350505050565b60008061219d836125ba565b909250905081156121ad57915091565b8260501b61040a60f01b178060005260206000601660006001607f60991b015afa92506000516001600160401b03169150508115806121ed57503d602014155b156121fd57506000928392509050565b915091565b6040805160008082526020820190925260006122298463e5f8de4860008560006001612325565b9050611f858161264d565b600080826040516020016122489190613b54565b60405160208183030381529060405290506000806001607f60991b016001600160a01b03168360405161227b9190613aca565b600060405180830381855afa9150503d80600081146122b6576040519150601f19603f3d011682016040523d82523d6000602084013e6122bb565b606091505b5091509150816122de57604051638a7db5bf60e01b815260040160405180910390fd5b6000818060200190518101906122f49190613ae1565b9695505050505050565b80548061231d5760405162461bcd60e51b81526004016106da90613ba6565b600019019055565b60606064876001600160401b03161015612354578660405163a292827360e01b81526004016106da9190613bd0565b612362878787878787612664565b979650505050505050565b612375612d08565b600080612382848261273e565b925090506002811461239657612396613bde565b6123a0848361278a565b84519190915291506123b284836128f8565b6123d0576123c0848361278a565b60208501519190915291506123e6565b6040805160008152602080820190925290840151525b5050919050565b6123f782826117e2565b610d235761240481611dca565b61240f836020611ddc565b604051602001612420929190613bf4565b60408051601f198184030181529082905262461bcd60e51b82526106da91600401613c46565b60008080838162253d8c61245d8362010bd9613c57565b6124679190613c57565b9050600062023ab161247a836004613c7a565b6124849190613cab565b905060046124958262023ab1613c7a565b6124a0906003613c57565b6124aa9190613cab565b6124b49083613cd9565b9150600062164b096124c7846001613c57565b6124d390610fa0613c7a565b6124dd9190613cab565b905060046124ed826105b5613c7a565b6124f79190613cab565b6125019084613cd9565b61250c90601f613c57565b9250600061098f61251e856050613c7a565b6125289190613cab565b90506000605061253a8361098f613c7a565b6125449190613cab565b61254e9086613cd9565b905061255b600b83613cab565b945061256885600c613c7a565b612573836002613c57565b61257d9190613cd9565b9150848361258c603187613cd9565b612597906064613c7a565b6125a19190613c57565b6125ab9190613c57565b9a919950975095505050505050565b600080600160401b600160a01b03831660ff60981b81036125e657600192506001600160401b03841691505b50915091565b600080826000526016600a602060006002607f60991b015afa9150600051806001600160a01b031691508060a01c61ffff1661040a81146126305760009350600092505b50508115806121ed57503d6016146121fd57506000928392509050565b6000808061265b8482612929565b50949350505050565b60606126776005607f60991b018461296a565b6000806005607f60991b01888686612690576000612693565b60015b8a8a8e6040516020016126ab96959493929190613cfb565b60408051601f19818403018152908290526126c591613aca565b600060405180830381855af49150503d8060008114612700576040519150601f19603f3d011682016040523d82523d6000602084013e612705565b606091505b50915091508161272857604051638a7db5bf60e01b815260040160405180910390fd5b612731816129b8565b9998505050505050505050565b60008060008061274e8686612a91565b96509092506001600160401b0316905060ff82166004146127815760405162461bcd60e51b81526004016106da90613d85565b95939450505050565b6060600080600061279b8686612a91565b96509092506001600160401b0316905060ff8216600614806127c0575060ff82166002145b6127dc5760405162461bcd60e51b81526004016106da90613de0565b60051960ff831601612815576127f28686612a91565b96509092506001600160401b0316905060ff821660021461281557612815613bde565b600061282182876134b4565b90506000826001600160401b0381111561283d5761283d613a23565b6040519080825280601f01601f191660200182016040528015612867576020820181803683370190505b5090506000875b838110156128dc5789818151811061288857612888613a39565b602001015160f81c60f81b8383815181106128a5576128a5613a39565b60200101906001600160f81b031916908160001a905350816128c681613df0565b92505080806128d490613df0565b91505061286e565b50816128e8858a6134b4565b9650965050505050509250929050565b600082828151811061290c5761290c613a39565b6020910101516001600160f81b031916607b60f91b149392505050565b6000806000806129398686612a91565b96509092506001600160401b0316905060ff8216156127815760405162461bcd60e51b81526004016106da90613e4c565b4781811015612990578082604051634787a10360e11b81526004016106da9291906130de565b823f1515806129b25760405163064d954b60e41b815260040160405180910390fd5b50505050565b60606000806000848060200190518101906129d39190613f40565b919450925090506001600160401b038216612a0d57805115612a0857604051630e74990760e01b815260040160405180910390fd5b612a70565b6001600160401b03821660511480612a2e57506001600160401b0382166071145b15612a55578051600003612a0857604051630e74990760e01b815260040160405180910390fd5b8160405163f1f6bced60e01b81526004016106da9190613036565b8215611f85578260405163d4bb667160e01b81526004016106da9190612e95565b600080600080612aa18686612c0e565b9050612aae6001866134b4565b94506007600582901c16601f8216601c8110612adc5760405162461bcd60e51b81526004016106da90613fe2565b60188160ff161015612afa5790945060ff169250849150612c079050565b8060ff16601803612b57576000612b118989612c0e565b9050612b1e6001896134b4565b975060188160ff161015612b445760405162461bcd60e51b81526004016106da90614015565b9195505060ff169250849150612c079050565b8060ff16601903612b91576000612b6e8989612c5d565b9050612b7b6002896134b4565b97509195505061ffff169250849150612c079050565b8060ff16601a03612bcd576000612ba88989612c96565b9050612bb56004896134b4565b97509195505063ffffffff169250849150612c079050565b8060ff16601b14612be057612be0613bde565b6000612bec8989612ccf565b9050612bf96008896134b4565b975091955090935085925050505b9250925092565b6000612c1b8260016134b4565b83511015612c3b5760405162461bcd60e51b81526004016106da90614050565b828281518110612c4d57612c4d613a39565b016020015160f81c905092915050565b6000612c6a8260026134b4565b83511015612c8a5760405162461bcd60e51b81526004016106da90614050565b50016020015160f01c90565b6000612ca38260046134b4565b83511015612cc35760405162461bcd60e51b81526004016106da90614050565b50016020015160e01c90565b6000612cdc8260086134b4565b83511015612cfc5760405162461bcd60e51b81526004016106da90614050565b50016020015160c01c90565b6040805160608082018352818301818152825282516020818101909452908152909182015290565b6001600160e01b031981165b811461204157600080fd5b80356106a081612d30565b600060208284031215612d6757612d67600080fd5b6000611f858484612d47565b8015155b82525050565b602081016106a08284612d73565b6001600160a01b031690565b60006106a082612d8b565b612d3c81612d97565b80356106a081612da2565b600060208284031215612dcb57612dcb600080fd5b6000611f858484612dab565b6001600160401b038116612d3c565b80356106a081612dd7565b80612d3c565b80356106a081612df1565b612d3c8160070b90565b80356106a081612e02565b600080600080600060a08688031215612e3257612e32600080fd5b6000612e3e8888612de6565b9550506020612e4f88828901612df7565b9450506040612e6088828901612df7565b9350506060612e7188828901612df7565b9250506080612e8288828901612e0c565b9150509295509295909350565b80612d77565b602081016106a08284612e8f565b600060208284031215612eb857612eb8600080fd5b6000611f858484612de6565b600060208284031215612ed957612ed9600080fd5b6000611f858484612df7565b60008060408385031215612efb57612efb600080fd5b6000612f078585612de6565b9250506020612f1885828601612df7565b9150509250929050565b60008060408385031215612f3857612f38600080fd5b6000612f448585612de6565b9250506020612f1885828601612de6565b60c08101612f638289612e8f565b612f706020830188612e8f565b612f7d6040830187612e8f565b612f8a6060830186612e8f565b612f976080830185612e8f565b61236260a0830184612e8f565b60008060408385031215612fba57612fba600080fd5b6000612fc68585612df7565b9250506020612f1885828601612dab565b600080600060608486031215612fef57612fef600080fd5b6000612ffb8686612de6565b935050602061300c86828701612df7565b925050604061301d86828701612df7565b9150509250925092565b6001600160401b038116612d77565b602081016106a08284613027565b6000806000806080858703121561305d5761305d600080fd5b60006130698787612de6565b945050602061307a87828801612df7565b935050604061308b87828801612df7565b925050606061309c87828801612df7565b91505092959194509250565b600080600080608085870312156130c1576130c1600080fd5b60006130cd8787612de6565b945050602061307a87828801612dab565b604081016130ec8285612e8f565b611f476020830184612e8f565b612d7781612d97565b604081016131108285612e8f565b611f4760208301846130f9565b6000806040838503121561313357613133600080fd5b6000612f078585612df7565b612d778160070b90565b608081016131578287612d73565b61316460208301866130f9565b6131716040830185613027565b61202e606083018461313f565b60006106a061319261318f84612d8b565b90565b612d8b565b60006106a08261317e565b60006106a082613197565b612d77816131a2565b602081016106a082846131ad565b60a081016131d28288612d73565b6131df6020830187612d73565b6131ec60408301866130f9565b6131f96060830185613027565b6122f4608083018461313f565b600e81526000602082016d494e56414c49445f41434345535360901b815291505b5060200190565b602080825281016106a081613206565b600f81526000602082016e494e56414c49445f4144445245535360881b81529150613227565b602080825281016106a08161323e565b600c81526000602082016b53414d455f4144445245535360a01b81529150613227565b602080825281016106a081613274565b602081016106a082846130f9565b600a8152600060208201695245454e5452414e435960b01b81529150613227565b602080825281016106a0816132b5565b6013815260006020820172125390d3d4949150d517d49154105653515395606a1b81529150613227565b602080825281016106a0816132e6565b601481526000602082017324a721a7a92922a1aa2fa0a62627a1a0aa24a7a760611b81529150613227565b602080825281016106a081613320565b6012815260006020820171282927a827a9a2a22fa722abafa7aba722a960711b81529150613227565b602080825281016106a08161335b565b60128152600060208201711053149150511657d49151d254d51154915160721b81529150613227565b602080825281016106a081613394565b60c081016133db8289613027565b6133e86020830188613027565b6133f56040830187612e8f565b6134026060830186612e8f565b61340f6080830185612e8f565b61236260a083018461313f565b634e487b7160e01b600052601160045260246000fd5b818103818111156106a0576106a061341c565b601281526000602082017124a72b20a624a22fa0a62627a1a0aa24a7a760711b81529150613227565b602080825281016106a081613445565b600f81526000602082016e29a0a6a2afa0a62627a1a0aa24a7a760891b81529150613227565b602080825281016106a08161347e565b808201808211156106a0576106a061341c565b6019815260006020820178504c454447455f52455041594d454e545f4f564552464c4f5760381b81529150613227565b602080825281016106a0816134c7565b604081016130ec8285613027565b601981526000602082017824a720a1aa24ab22afa9aa27a920a3a2afa82927ab24a222a960391b81529150613227565b602080825281016106a081613515565b600a81526000602082016929a0a6a2afa6a4a722a960b11b81529150613227565b602080825281016106a081613555565b60178152600060208201760494e56414c49445f4d494e45525f4f574e45525348495604c1b81529150613227565b602080825281016106a081613586565b604081016135d28285613027565b611f476020830184613027565b602f81526000602082017f416363657373436f6e74726f6c3a2063616e206f6e6c792072656e6f756e636581526e103937b632b9903337b91039b2b63360891b602082015291505b5060400190565b602080825281016106a0816135df565b600061364a8286612e8f565b60208201915061365a8285612e8f565b60208201915061366a8284612e8f565b506020019392505050565b60198152600060208201784441494c595f414c4c4f434154494f4e5f4f564552464c4f5760381b81529150613227565b602080825281016106a081613675565b601181526000602082017012539050d512559157d050d513d497d251607a1b81529150613227565b602080825281016106a0816136b5565b601081526000602082016f04e4f4e5f4f4e424f41524445445f53560841b81529150613227565b602080825281016106a0816136ed565b608081016137328287613027565b61373f60208301866130f9565b6131716040830185612e8f565b601881526000602082017724a72b20a624a22fa220a4a62cafa0a62627a1a0aa24a7a760411b81529150613227565b602080825281016106a08161374c565b608081016137998287613027565b6137a66020830186612e8f565b6137b36040830185612e8f565b61202e6060830184612e8f565b60138152600060208201721253959053125117d5105491d15517d413d3d3606a1b81529150613227565b602080825281016106a0816137c0565b60006106a061318f8381565b612d77816137fa565b6040810161381d8285613027565b611f476020830184613806565b60005b8381101561384557818101518382015260200161382d565b50506000910152565b601f01601f191690565b6000613862825190565b80845260208401935061387981856020860161382a565b6138828161384e565b9093019392505050565b60c0808252810161389d8189613858565b90506138ac6020830188613027565b6138b96040830187613027565b612f8a60608301866130f9565b601581526000602082017414d0535157d0531313d0d0551253d397d312535255605a1b81529150613227565b602080825281016106a0816138c6565b6013815260006020820172414c4c4f434154494f4e5f4f564552464c4f5760681b81529150613227565b602080825281016106a081613902565b6060810161394a8286613027565b6139576020830185612e8f565b611f856040830184612e8f565b60138152600060208201721053149150511657d050d512559157d413d3d3606a1b81529150613227565b602080825281016106a081613964565b6017815260006020820176494e56414c49445f52455354414b494e475f524154494f60481b81529150613227565b602080825281016106a08161399e565b606081016139ea8286613027565b6139f76020830185612e8f565b611f8560408301846130f9565b818102808215838204851417613a1c57613a1c61341c565b5092915050565b634e487b7160e01b600052604160045260246000fd5b634e487b7160e01b600052603260045260246000fd5b600081613a5e57613a5e61341c565b506000190190565b60208082527f537472696e67733a20686578206c656e67746820696e73756666696369656e7491019081526000613227565b602080825281016106a081613a66565b6000613ab2825190565b613ac081856020860161382a565b9290920192915050565b6000611f478284613aa8565b80516106a081612df1565b600060208284031215613af657613af6600080fd5b6000611f858484613ad6565b634e487b7160e01b600052601260045260246000fd5b600082613b2757613b27613b02565b500490565b60006106a08260601b90565b60006106a082613b2c565b612d77613b4f82612d97565b613b38565b61020560f11b81526002016000613b6b8284613b43565b50601401919050565b601b81526000602082017a436f756e7465723a2064656372656d656e74206f766572666c6f7760281b81529150613227565b602080825281016106a081613b74565b60006001600160401b0382166106a0565b612d7781613bb6565b602081016106a08284613bc7565b634e487b7160e01b600052600160045260246000fd5b76020b1b1b2b9b9a1b7b73a3937b61d1030b1b1b7bab73a1604d1b81526017016000613c208285613aa8565b7001034b99036b4b9b9b4b733903937b6329607d1b81526011019150611f858284613aa8565b60208082528101611f478184613858565b80820160008212801584831290811690159190911617156106a0576106a061341c565b8181028060008312600160ff1b85141615613c9757613c9761341c565b8282058414831517613a1c57613a1c61341c565b600082613cba57613cba613b02565b600160ff1b821460001984141615613cd457613cd461341c565b500590565b818103600083128015838313168383129190911617156106a0576106a061341c565b60c08101613d098289613027565b613d166020830188612e8f565b613d236040830187613027565b613d306060830186613027565b8181036080830152613d428185613858565b905061236260a0830184613bc7565b601f81526000602082017f696e76616c6964206d616a20286578706563746564204d616a4172726179290081529150613227565b602080825281016106a081613d51565b602e81526000602082017f696e76616c6964206d616a20286578706563746564204d616a546167206f722081526d4d616a42797465537472696e672960901b60208201529150613627565b602080825281016106a081613d95565b60006000198203613e0357613e0361341c565b5060010190565b602581526000602082017f696e76616c6964206d616a20286578706563746564204d616a556e7369676e6581526464496e742960d81b60208201529150613627565b602080825281016106a081613e0a565b80516106a081612dd7565b613e708261384e565b81018181106001600160401b0382111715613e8d57613e8d613a23565b6040525050565b6000613e9f60405190565b9050613eab8282613e67565b919050565b60006001600160401b03821115613ec957613ec9613a23565b613ed28261384e565b60200192915050565b6000613eee613ee984613eb0565b613e94565b905082815260208101848484011115613f0957613f09600080fd5b613f1484828561382a565b509392505050565b600082601f830112613f3057613f30600080fd5b8151611f85848260208601613edb565b600080600060608486031215613f5857613f58600080fd5b6000613f648686613ad6565b9350506020613f7586828701613e5c565b92505060408401516001600160401b03811115613f9457613f94600080fd5b61301d86828701613f1c565b602581526000602082017f63616e6e6f742068616e646c6520686561646572732077697468206578747261815264203e20323760d81b60208201529150613627565b602080825281016106a081613fa0565b600c81526000602082016b34b73b30b634b21031b137b960a11b81529150613227565b602080825281016106a081613ff2565b6014815260006020820173736c6963696e67206f7574206f662072616e676560601b81529150613227565b602080825281016106a08161402556fec5d2460186f7233c927e7db2dcc703c0e500b653ca82273b7bfad8045d85a470bece676c514da111c8b3698f9a0424811c5c874fd0667943c7e3c04054274a3ea26469706673582212209d1a9ea72309818304657d47108a4cc75c270ee8fa70ec818d8d75d53656d95164736f6c63430008110033",
  "devdoc": {
    "kind": "dev",
    "methods": {
      "acceptBeneficiaryAddress(uint64)": {
        "details": "Only triggered by registry admin",
        "params": {
          "_ownerId": "Storage Provider owner ID"
        }
      },
      "constructor": {
        "details": "Contract constructor function.",
        "params": {
          "_maxAllocation": "Number of maximum FIL allocated to a single storage provider"
        }
      },
      "deactivateStorageProvider(uint64)": {
        "details": "Only triggered by registry admin",
        "params": {
          "_ownerId": "Storage Provider owner ID"
        }
      },
      "getRoleAdmin(bytes32)": {
        "details": "Returns the admin role that controls `role`. See {grantRole} and {revokeRole}. To change a role's admin, use {_setRoleAdmin}."
      },
      "grantRole(bytes32,address)": {
        "details": "Grants `role` to `account`. If `account` had not been already granted `role`, emits a {RoleGranted} event. Requirements: - the caller must have ``role``'s admin role. May emit a {RoleGranted} event."
      },
      "hasRole(bytes32,address)": {
        "details": "Returns `true` if `account` has been granted `role`."
      },
      "increasePledgeRepayment(uint64,uint256)": {
        "params": {
          "_ownerId": "Storage Provider owner ID",
          "_repaidPledge": "Withdrawn initial pledge after sector termination"
        }
      },
      "increaseRewards(uint64,uint256)": {
        "params": {
          "_accuredRewards": "Withdrawn rewards from SP's miner actor",
          "_ownerId": "Storage Provider owner ID"
        }
      },
      "increaseUsedAllocation(uint64,uint256,uint256)": {
        "params": {
          "_allocated": "FIL amount that is going to be pledged for Storage Provider",
          "_ownerId": "Storage Provider owner ID",
          "_timestamp": "Transaction timestamp"
        }
      },
      "onboardStorageProvider(uint64,uint256,uint256,uint256,int64)": {
        "details": "Only triggered by registry admin",
        "params": {
          "_allocationLimit": "FIL allocation for storage provider",
          "_dailyAllocation": "Daily FIL allocation for storage provider",
          "_lastEpoch": "Last epoch for FIL allocation utilization",
          "_minerId": "Storage Provider miner ID in Filecoin network",
          "_repayment": "FIL repayment for storage provider"
        }
      },
      "register(uint64,address,uint256,uint256)": {
        "details": "Only triggered by Storage Provider owner",
        "params": {
          "_allocationLimit": "FIL allocation for storage provider",
          "_dailyAllocation": "Daily FIL allocation for storage provider",
          "_minerId": "Storage Provider miner ID in Filecoin network",
          "_targetPool": "Target liquid staking strategy"
        }
      },
      "registerPool(address)": {
        "details": "Only triggered by registry admin",
        "params": {
          "_pool": "Address of pool smart contract"
        }
      },
      "renounceRole(bytes32,address)": {
        "details": "Revokes `role` from the calling account. Roles are often managed via {grantRole} and {revokeRole}: this function's purpose is to provide a mechanism for accounts to lose their privileges if they are compromised (such as when a trusted device is misplaced). If the calling account had been revoked `role`, emits a {RoleRevoked} event. Requirements: - the caller must be `account`. May emit a {RoleRevoked} event."
      },
      "requestAllocationLimitUpdate(uint256,uint256)": {
        "details": "Only triggered by Storage Provider owner",
        "params": {
          "_allocationLimit": "New FIL allocation for storage provider",
          "_dailyAllocation": "New daily FIL allocation for storage provider"
        }
      },
      "revokeRole(bytes32,address)": {
        "details": "Revokes `role` from `account`. If `account` had been granted `role`, emits a {RoleRevoked} event. Requirements: - the caller must have ``role``'s admin role. May emit a {RoleRevoked} event."
      },
      "setCollateralAddress(address)": {
        "details": "Only triggered by registry admin",
        "params": {
          "_collateral": "StorageProviderCollateral smart contract address"
        }
      },
      "setMinerAddress(uint64,uint64)": {
        "details": "Only triggered by registry admin",
        "params": {
          "_minerId": "Storage Provider new miner ID",
          "_ownerId": "Storage Provider owner ID"
        }
      },
      "setRestaking(uint256,address)": {
        "details": "Only triggered by Storage Provider",
        "params": {
          "_restakingAddress": "Restaking address (f4 address) for Storage Provider",
          "_restakingRatio": "Restaking ratio for Storage Provider"
        }
      },
      "supportsInterface(bytes4)": {
        "details": "See {IERC165-supportsInterface}."
      },
      "updateAllocationLimit(uint64,uint256,uint256,uint256)": {
        "details": "Only triggered by registry admin",
        "params": {
          "_allocationLimit": "New FIL allocation for storage provider",
          "_dailyAllocation": "New daily FIL allocation for storage provider",
          "_ownerId": "Storage provider owner ID",
          "_repaymentAmount": "New FIL repayment amount for storage provider"
        }
      },
      "updateMaxAllocation(uint256)": {
        "params": {
          "allocation": "New max allocation per SP"
        }
      }
    },
    "title": "Storage Provider Registry contract allows storage providers to register in liquid staking protocol and ask for a FIL allocation. Once Storage Provider is registered and signaled their desired FIL allocation it needs to transfer",
    "version": 1
  },
  "userdoc": {
    "errors": {
      "ActorError(int256)": [
        {
          "notice": "the called actor returned an error as part of its expected behaviour"
        }
      ],
      "ActorNotFound()": [
        {
          "notice": "the actor is not found"
        }
      ],
      "FailToCallActor()": [
        {
          "notice": "an error happened trying to call the actor"
        },
        {
          "notice": "an error happened trying to call the actor"
        }
      ],
      "InvalidActorID(uint64)": [
        {
          "notice": "the provided actor id is not valid"
        }
      ],
      "InvalidCodec(uint64)": [
        {
          "notice": "the codec received is not valid"
        }
      ],
      "InvalidResponseLength()": [
        {
          "notice": "the response received is not correct. In some case no response is expected and we received one, or a response was indeed expected and we received none."
        }
      ],
      "NotEnoughBalance(uint256,uint256)": [
        {
          "notice": "the smart contract has no enough balance to transfer"
        }
      ]
    },
    "kind": "user",
    "methods": {
      "acceptBeneficiaryAddress(uint64)": {
        "notice": "Accept beneficiary address transfer and activate FIL allocation"
      },
      "allocations(uint64)": {
        "notice": "Return allocation information for a storage provider"
      },
      "changeBeneficiaryAddress()": {
        "notice": "Transfer beneficiary address of a miner to the target pool"
      },
      "deactivateStorageProvider(uint64)": {
        "notice": "Deactive storage provider with ID `_ownerId`"
      },
      "getStorageProvider(uint64)": {
        "notice": "Return Storage Provider information with `_ownerId`"
      },
      "getTotalActiveStorageProviders()": {
        "notice": "Return total number of currently active storage providers"
      },
      "getTotalStorageProviders()": {
        "notice": "Return total number of storage providers in liquid staking"
      },
      "increasePledgeRepayment(uint64,uint256)": {
        "notice": "Increase repaid pledge by Storage Provider"
      },
      "increaseRewards(uint64,uint256)": {
        "notice": "Increase collected rewards by Storage Provider"
      },
      "increaseUsedAllocation(uint64,uint256,uint256)": {
        "notice": "Increase used allocation for Storage Provider"
      },
      "isActivePool(address)": {
        "notice": "Return a boolean flag whether `_pool` is active or not"
      },
      "isActiveProvider(uint64)": {
        "notice": "Return a boolean flag of Storage Provider activity"
      },
      "onboardStorageProvider(uint64,uint256,uint256,uint256,int64)": {
        "notice": "Onboard storage provider with `_minerId`, desired `_allocationLimit`, `_repayment` amount"
      },
      "register(uint64,address,uint256,uint256)": {
        "notice": "Register storage provider with `_minerId`, desired `_allocationLimit` and `_targetPool`"
      },
      "registerPool(address)": {
        "notice": "Register new liquid staking pool"
      },
      "requestAllocationLimitUpdate(uint256,uint256)": {
        "notice": "Request storage provider's FIL allocation update with `_allocationLimit`"
      },
      "restakings(uint64)": {
        "notice": "Return a restaking information for a storage provider"
      },
      "setCollateralAddress(address)": {
        "notice": "Update StorageProviderCollateral smart contract"
      },
      "setMinerAddress(uint64,uint64)": {
        "notice": "Update storage provider miner ID with `_minerId`"
      },
      "setRestaking(uint256,address)": {
        "notice": "Update storage provider's restaking ratio"
      },
      "updateAllocationLimit(uint64,uint256,uint256,uint256)": {
        "notice": "Update storage provider FIL allocation with `_allocationLimit`"
      },
      "updateMaxAllocation(uint256)": {
        "notice": "Updates maximum allocation amount for SP"
      }
    },
    "version": 1
  },
  "storageLayout": {
    "storage": [
      {
        "astId": 13294,
        "contract": "contracts/StorageProviderRegistry.sol:StorageProviderRegistry",
        "label": "_roles",
        "offset": 0,
        "slot": "0",
        "type": "t_mapping(t_bytes32,t_struct(RoleData)13289_storage)"
      },
      {
        "astId": 18239,
        "contract": "contracts/StorageProviderRegistry.sol:StorageProviderRegistry",
        "label": "locked",
        "offset": 0,
        "slot": "1",
        "type": "t_uint256"
      },
      {
        "astId": 2789,
        "contract": "contracts/StorageProviderRegistry.sol:StorageProviderRegistry",
        "label": "storageProviders",
        "offset": 0,
        "slot": "2",
        "type": "t_mapping(t_uint64,t_struct(StorageProvider)6825_storage)"
      },
      {
        "astId": 2794,
        "contract": "contracts/StorageProviderRegistry.sol:StorageProviderRegistry",
        "label": "allocations",
        "offset": 0,
        "slot": "3",
        "type": "t_mapping(t_uint64,t_struct(SPAllocation)6838_storage)"
      },
      {
        "astId": 2799,
        "contract": "contracts/StorageProviderRegistry.sol:StorageProviderRegistry",
        "label": "restakings",
        "offset": 0,
        "slot": "4",
        "type": "t_mapping(t_uint64,t_struct(SPRestaking)6843_storage)"
      },
      {
        "astId": 2804,
        "contract": "contracts/StorageProviderRegistry.sol:StorageProviderRegistry",
        "label": "allocationRequests",
        "offset": 0,
        "slot": "5",
        "type": "t_mapping(t_uint64,t_struct(AllocationRequest)6848_storage)"
      },
      {
        "astId": 2808,
        "contract": "contracts/StorageProviderRegistry.sol:StorageProviderRegistry",
        "label": "sectorSizes",
        "offset": 0,
        "slot": "6",
        "type": "t_mapping(t_uint64,t_uint64)"
      },
      {
        "astId": 2812,
        "contract": "contracts/StorageProviderRegistry.sol:StorageProviderRegistry",
        "label": "dailyUsages",
        "offset": 0,
        "slot": "7",
        "type": "t_mapping(t_bytes32,t_uint256)"
      },
      {
        "astId": 2816,
        "contract": "contracts/StorageProviderRegistry.sol:StorageProviderRegistry",
        "label": "pools",
        "offset": 0,
        "slot": "8",
        "type": "t_mapping(t_address,t_bool)"
      },
      {
        "astId": 2819,
        "contract": "contracts/StorageProviderRegistry.sol:StorageProviderRegistry",
        "label": "totalStorageProviders",
        "offset": 0,
        "slot": "9",
        "type": "t_struct(Counter)13686_storage"
      },
      {
        "astId": 2822,
        "contract": "contracts/StorageProviderRegistry.sol:StorageProviderRegistry",
        "label": "totalInactiveStorageProviders",
        "offset": 0,
        "slot": "10",
        "type": "t_struct(Counter)13686_storage"
      },
      {
        "astId": 2829,
        "contract": "contracts/StorageProviderRegistry.sol:StorageProviderRegistry",
        "label": "maxAllocation",
        "offset": 0,
        "slot": "11",
        "type": "t_uint256"
      },
      {
        "astId": 2832,
        "contract": "contracts/StorageProviderRegistry.sol:StorageProviderRegistry",
        "label": "collateral",
        "offset": 0,
        "slot": "12",
        "type": "t_contract(IStorageProviderCollateralClient)4740"
      }
    ],
    "types": {
      "t_address": {
        "encoding": "inplace",
        "label": "address",
        "numberOfBytes": "20"
      },
      "t_bool": {
        "encoding": "inplace",
        "label": "bool",
        "numberOfBytes": "1"
      },
      "t_bytes32": {
        "encoding": "inplace",
        "label": "bytes32",
        "numberOfBytes": "32"
      },
      "t_contract(IStorageProviderCollateralClient)4740": {
        "encoding": "inplace",
        "label": "contract IStorageProviderCollateralClient",
        "numberOfBytes": "20"
      },
      "t_int64": {
        "encoding": "inplace",
        "label": "int64",
        "numberOfBytes": "8"
      },
      "t_mapping(t_address,t_bool)": {
        "encoding": "mapping",
        "key": "t_address",
        "label": "mapping(address => bool)",
        "numberOfBytes": "32",
        "value": "t_bool"
      },
      "t_mapping(t_bytes32,t_struct(RoleData)13289_storage)": {
        "encoding": "mapping",
        "key": "t_bytes32",
        "label": "mapping(bytes32 => struct AccessControl.RoleData)",
        "numberOfBytes": "32",
        "value": "t_struct(RoleData)13289_storage"
      },
      "t_mapping(t_bytes32,t_uint256)": {
        "encoding": "mapping",
        "key": "t_bytes32",
        "label": "mapping(bytes32 => uint256)",
        "numberOfBytes": "32",
        "value": "t_uint256"
      },
      "t_mapping(t_uint64,t_struct(AllocationRequest)6848_storage)": {
        "encoding": "mapping",
        "key": "t_uint64",
        "label": "mapping(uint64 => struct StorageProviderTypes.AllocationRequest)",
        "numberOfBytes": "32",
        "value": "t_struct(AllocationRequest)6848_storage"
      },
      "t_mapping(t_uint64,t_struct(SPAllocation)6838_storage)": {
        "encoding": "mapping",
        "key": "t_uint64",
        "label": "mapping(uint64 => struct StorageProviderTypes.SPAllocation)",
        "numberOfBytes": "32",
        "value": "t_struct(SPAllocation)6838_storage"
      },
      "t_mapping(t_uint64,t_struct(SPRestaking)6843_storage)": {
        "encoding": "mapping",
        "key": "t_uint64",
        "label": "mapping(uint64 => struct StorageProviderTypes.SPRestaking)",
        "numberOfBytes": "32",
        "value": "t_struct(SPRestaking)6843_storage"
      },
      "t_mapping(t_uint64,t_struct(StorageProvider)6825_storage)": {
        "encoding": "mapping",
        "key": "t_uint64",
        "label": "mapping(uint64 => struct StorageProviderTypes.StorageProvider)",
        "numberOfBytes": "32",
        "value": "t_struct(StorageProvider)6825_storage"
      },
      "t_mapping(t_uint64,t_uint64)": {
        "encoding": "mapping",
        "key": "t_uint64",
        "label": "mapping(uint64 => uint64)",
        "numberOfBytes": "32",
        "value": "t_uint64"
      },
      "t_struct(AllocationRequest)6848_storage": {
        "encoding": "inplace",
        "label": "struct StorageProviderTypes.AllocationRequest",
        "members": [
          {
            "astId": 6845,
            "contract": "contracts/StorageProviderRegistry.sol:StorageProviderRegistry",
            "label": "allocationLimit",
            "offset": 0,
            "slot": "0",
            "type": "t_uint256"
          },
          {
            "astId": 6847,
            "contract": "contracts/StorageProviderRegistry.sol:StorageProviderRegistry",
            "label": "dailyAllocation",
            "offset": 0,
            "slot": "1",
            "type": "t_uint256"
          }
        ],
        "numberOfBytes": "64"
      },
      "t_struct(Counter)13686_storage": {
        "encoding": "inplace",
        "label": "struct Counters.Counter",
        "members": [
          {
            "astId": 13685,
            "contract": "contracts/StorageProviderRegistry.sol:StorageProviderRegistry",
            "label": "_value",
            "offset": 0,
            "slot": "0",
            "type": "t_uint256"
          }
        ],
        "numberOfBytes": "32"
      },
      "t_struct(RoleData)13289_storage": {
        "encoding": "inplace",
        "label": "struct AccessControl.RoleData",
        "members": [
          {
            "astId": 13286,
            "contract": "contracts/StorageProviderRegistry.sol:StorageProviderRegistry",
            "label": "members",
            "offset": 0,
            "slot": "0",
            "type": "t_mapping(t_address,t_bool)"
          },
          {
            "astId": 13288,
            "contract": "contracts/StorageProviderRegistry.sol:StorageProviderRegistry",
            "label": "adminRole",
            "offset": 0,
            "slot": "1",
            "type": "t_bytes32"
          }
        ],
        "numberOfBytes": "64"
      },
      "t_struct(SPAllocation)6838_storage": {
        "encoding": "inplace",
        "label": "struct StorageProviderTypes.SPAllocation",
        "members": [
          {
            "astId": 6827,
            "contract": "contracts/StorageProviderRegistry.sol:StorageProviderRegistry",
            "label": "allocationLimit",
            "offset": 0,
            "slot": "0",
            "type": "t_uint256"
          },
          {
            "astId": 6829,
            "contract": "contracts/StorageProviderRegistry.sol:StorageProviderRegistry",
            "label": "repayment",
            "offset": 0,
            "slot": "1",
            "type": "t_uint256"
          },
          {
            "astId": 6831,
            "contract": "contracts/StorageProviderRegistry.sol:StorageProviderRegistry",
            "label": "usedAllocation",
            "offset": 0,
            "slot": "2",
            "type": "t_uint256"
          },
          {
            "astId": 6833,
            "contract": "contracts/StorageProviderRegistry.sol:StorageProviderRegistry",
            "label": "dailyAllocation",
            "offset": 0,
            "slot": "3",
            "type": "t_uint256"
          },
          {
            "astId": 6835,
            "contract": "contracts/StorageProviderRegistry.sol:StorageProviderRegistry",
            "label": "accruedRewards",
            "offset": 0,
            "slot": "4",
            "type": "t_uint256"
          },
          {
            "astId": 6837,
            "contract": "contracts/StorageProviderRegistry.sol:StorageProviderRegistry",
            "label": "repaidPledge",
            "offset": 0,
            "slot": "5",
            "type": "t_uint256"
          }
        ],
        "numberOfBytes": "192"
      },
      "t_struct(SPRestaking)6843_storage": {
        "encoding": "inplace",
        "label": "struct StorageProviderTypes.SPRestaking",
        "members": [
          {
            "astId": 6840,
            "contract": "contracts/StorageProviderRegistry.sol:StorageProviderRegistry",
            "label": "restakingRatio",
            "offset": 0,
            "slot": "0",
            "type": "t_uint256"
          },
          {
            "astId": 6842,
            "contract": "contracts/StorageProviderRegistry.sol:StorageProviderRegistry",
            "label": "restakingAddress",
            "offset": 0,
            "slot": "1",
            "type": "t_address"
          }
        ],
        "numberOfBytes": "64"
      },
      "t_struct(StorageProvider)6825_storage": {
        "encoding": "inplace",
        "label": "struct StorageProviderTypes.StorageProvider",
        "members": [
          {
            "astId": 6816,
            "contract": "contracts/StorageProviderRegistry.sol:StorageProviderRegistry",
            "label": "active",
            "offset": 0,
            "slot": "0",
            "type": "t_bool"
          },
          {
            "astId": 6818,
            "contract": "contracts/StorageProviderRegistry.sol:StorageProviderRegistry",
            "label": "onboarded",
            "offset": 1,
            "slot": "0",
            "type": "t_bool"
          },
          {
            "astId": 6820,
            "contract": "contracts/StorageProviderRegistry.sol:StorageProviderRegistry",
            "label": "targetPool",
            "offset": 2,
            "slot": "0",
            "type": "t_address"
          },
          {
            "astId": 6822,
            "contract": "contracts/StorageProviderRegistry.sol:StorageProviderRegistry",
            "label": "minerId",
            "offset": 22,
            "slot": "0",
            "type": "t_uint64"
          },
          {
            "astId": 6824,
            "contract": "contracts/StorageProviderRegistry.sol:StorageProviderRegistry",
            "label": "lastEpoch",
            "offset": 0,
            "slot": "1",
            "type": "t_int64"
          }
        ],
        "numberOfBytes": "64"
      },
      "t_uint256": {
        "encoding": "inplace",
        "label": "uint256",
        "numberOfBytes": "32"
      },
      "t_uint64": {
        "encoding": "inplace",
        "label": "uint64",
        "numberOfBytes": "8"
      }
    }
  }
}