{
  "address": "0x577AA248DeB2EAaAfDb1137339F367C54cAf9B3d",
  "abi": [
    {
      "inputs": [],
      "name": "InvalidAddress",
      "type": "error"
    },
    {
      "anonymous": false,
      "inputs": [
        {
          "indexed": false,
          "internalType": "bytes32",
          "name": "id",
          "type": "bytes32"
        },
        {
          "indexed": false,
          "internalType": "address",
          "name": "oldAddress",
          "type": "address"
        },
        {
          "indexed": false,
          "internalType": "address",
          "name": "newAddress",
          "type": "address"
        }
      ],
      "name": "AddressSet",
      "type": "event"
    },
    {
      "anonymous": false,
      "inputs": [
        {
          "indexed": false,
          "internalType": "address",
          "name": "previousAdmin",
          "type": "address"
        },
        {
          "indexed": false,
          "internalType": "address",
          "name": "newAdmin",
          "type": "address"
        }
      ],
      "name": "AdminChanged",
      "type": "event"
    },
    {
      "anonymous": false,
      "inputs": [
        {
          "indexed": true,
          "internalType": "address",
          "name": "beacon",
          "type": "address"
        }
      ],
      "name": "BeaconUpgraded",
      "type": "event"
    },
    {
      "anonymous": false,
      "inputs": [
        {
          "indexed": false,
          "internalType": "address",
          "name": "newAddress",
          "type": "address"
        }
      ],
      "name": "CollateralAddressUpdated",
      "type": "event"
    },
    {
      "anonymous": false,
      "inputs": [
        {
          "indexed": false,
          "internalType": "uint8",
          "name": "version",
          "type": "uint8"
        }
      ],
      "name": "Initialized",
      "type": "event"
    },
    {
      "anonymous": false,
      "inputs": [
        {
          "indexed": false,
          "internalType": "address",
          "name": "newAddress",
          "type": "address"
        }
      ],
      "name": "LiquidStakingAddressUpdated",
      "type": "event"
    },
    {
      "anonymous": false,
      "inputs": [
        {
          "indexed": false,
          "internalType": "address",
          "name": "newAddress",
          "type": "address"
        }
      ],
      "name": "LiquidStakingControllerAddressUpdated",
      "type": "event"
    },
    {
      "anonymous": false,
      "inputs": [
        {
          "indexed": true,
          "internalType": "address",
          "name": "previousOwner",
          "type": "address"
        },
        {
          "indexed": true,
          "internalType": "address",
          "name": "newOwner",
          "type": "address"
        }
      ],
      "name": "OwnershipTransferred",
      "type": "event"
    },
    {
      "anonymous": false,
      "inputs": [
        {
          "indexed": false,
          "internalType": "address",
          "name": "newAddress",
          "type": "address"
        }
      ],
      "name": "ProtocolRewardsAddressUpdated",
      "type": "event"
    },
    {
      "anonymous": false,
      "inputs": [
        {
          "indexed": false,
          "internalType": "address",
          "name": "newAddress",
          "type": "address"
        }
      ],
      "name": "RegistryAddressUpdated",
      "type": "event"
    },
    {
      "anonymous": false,
      "inputs": [
        {
          "indexed": false,
          "internalType": "address",
          "name": "newAddress",
          "type": "address"
        }
      ],
      "name": "RewardCollectorAddressUpdated",
      "type": "event"
    },
    {
      "anonymous": false,
      "inputs": [
        {
          "indexed": true,
          "internalType": "address",
          "name": "implementation",
          "type": "address"
        }
      ],
      "name": "Upgraded",
      "type": "event"
    },
    {
      "inputs": [
        {
          "internalType": "bytes32",
          "name": "id",
          "type": "bytes32"
        }
      ],
      "name": "getAddress",
      "outputs": [
        {
          "internalType": "address",
          "name": "",
          "type": "address"
        }
      ],
      "stateMutability": "view",
      "type": "function"
    },
    {
      "inputs": [],
      "name": "getCollateral",
      "outputs": [
        {
          "internalType": "address",
          "name": "",
          "type": "address"
        }
      ],
      "stateMutability": "view",
      "type": "function"
    },
    {
      "inputs": [],
      "name": "getImplementation",
      "outputs": [
        {
          "internalType": "address",
          "name": "",
          "type": "address"
        }
      ],
      "stateMutability": "view",
      "type": "function"
    },
    {
      "inputs": [],
      "name": "getLiquidStaking",
      "outputs": [
        {
          "internalType": "address",
          "name": "",
          "type": "address"
        }
      ],
      "stateMutability": "view",
      "type": "function"
    },
    {
      "inputs": [],
      "name": "getLiquidStakingController",
      "outputs": [
        {
          "internalType": "address",
          "name": "",
          "type": "address"
        }
      ],
      "stateMutability": "view",
      "type": "function"
    },
    {
      "inputs": [],
      "name": "getProtocolRewards",
      "outputs": [
        {
          "internalType": "address",
          "name": "",
          "type": "address"
        }
      ],
      "stateMutability": "view",
      "type": "function"
    },
    {
      "inputs": [],
      "name": "getRegistry",
      "outputs": [
        {
          "internalType": "address",
          "name": "",
          "type": "address"
        }
      ],
      "stateMutability": "view",
      "type": "function"
    },
    {
      "inputs": [],
      "name": "getRewardCollector",
      "outputs": [
        {
          "internalType": "address",
          "name": "",
          "type": "address"
        }
      ],
      "stateMutability": "view",
      "type": "function"
    },
    {
      "inputs": [],
      "name": "initialize",
      "outputs": [],
      "stateMutability": "nonpayable",
      "type": "function"
    },
    {
      "inputs": [],
      "name": "owner",
      "outputs": [
        {
          "internalType": "address",
          "name": "",
          "type": "address"
        }
      ],
      "stateMutability": "view",
      "type": "function"
    },
    {
      "inputs": [],
      "name": "proxiableUUID",
      "outputs": [
        {
          "internalType": "bytes32",
          "name": "",
          "type": "bytes32"
        }
      ],
      "stateMutability": "view",
      "type": "function"
    },
    {
      "inputs": [],
      "name": "renounceOwnership",
      "outputs": [],
      "stateMutability": "nonpayable",
      "type": "function"
    },
    {
      "inputs": [
        {
          "internalType": "bytes32",
          "name": "id",
          "type": "bytes32"
        },
        {
          "internalType": "address",
          "name": "newAddress",
          "type": "address"
        }
      ],
      "name": "setAddress",
      "outputs": [],
      "stateMutability": "nonpayable",
      "type": "function"
    },
    {
      "inputs": [
        {
          "internalType": "address",
          "name": "newAddress",
          "type": "address"
        }
      ],
      "name": "setCollateralAddress",
      "outputs": [],
      "stateMutability": "nonpayable",
      "type": "function"
    },
    {
      "inputs": [
        {
          "internalType": "address",
          "name": "newAddress",
          "type": "address"
        }
      ],
      "name": "setLiquidStakingAddress",
      "outputs": [],
      "stateMutability": "nonpayable",
      "type": "function"
    },
    {
      "inputs": [
        {
          "internalType": "address",
          "name": "newAddress",
          "type": "address"
        }
      ],
      "name": "setLiquidStakingControllerAddress",
      "outputs": [],
      "stateMutability": "nonpayable",
      "type": "function"
    },
    {
      "inputs": [
        {
          "internalType": "address",
          "name": "newAddress",
          "type": "address"
        }
      ],
      "name": "setProtocolRewardsAddress",
      "outputs": [],
      "stateMutability": "nonpayable",
      "type": "function"
    },
    {
      "inputs": [
        {
          "internalType": "address",
          "name": "newAddress",
          "type": "address"
        }
      ],
      "name": "setRegistryAddress",
      "outputs": [],
      "stateMutability": "nonpayable",
      "type": "function"
    },
    {
      "inputs": [
        {
          "internalType": "address",
          "name": "newAddress",
          "type": "address"
        }
      ],
      "name": "setRewardCollectorAddress",
      "outputs": [],
      "stateMutability": "nonpayable",
      "type": "function"
    },
    {
      "inputs": [
        {
          "internalType": "address",
          "name": "newOwner",
          "type": "address"
        }
      ],
      "name": "transferOwnership",
      "outputs": [],
      "stateMutability": "nonpayable",
      "type": "function"
    },
    {
      "inputs": [
        {
          "internalType": "address",
          "name": "newImplementation",
          "type": "address"
        }
      ],
      "name": "upgradeTo",
      "outputs": [],
      "stateMutability": "nonpayable",
      "type": "function"
    },
    {
      "inputs": [
        {
          "internalType": "address",
          "name": "newImplementation",
          "type": "address"
        },
        {
          "internalType": "bytes",
          "name": "data",
          "type": "bytes"
        }
      ],
      "name": "upgradeToAndCall",
      "outputs": [],
      "stateMutability": "payable",
      "type": "function"
    },
    {
      "inputs": [],
      "name": "version",
      "outputs": [
        {
          "internalType": "string",
          "name": "",
          "type": "string"
        }
      ],
      "stateMutability": "pure",
      "type": "function"
    }
  ],
  "numDeployments": 1,
  "solcInputHash": "05b76b7a0e8a6fda74467c296a8f93e8",
  "bytecode": "0x60a06040523060805234801561001457600080fd5b5060805161164861004c60003960008181610496015281816104df0152818161058e015281816105ce015261064a01526116486000f3fe6080604052600436106101105760003560e01c8063029d262e146101155780630ee0deba1461013757806315d250461461016257806321f8a721146101825780633659cfe6146101a25780634e1060fa146101c25780634f1ef286146101d757806352d1902d146101ea57806354fd4d501461020c5780635ab1bd531461023d5780635c1548fb1461025257806368e01df214610267578063715018a6146102875780638129fc1c1461029c5780638da5cb5b146102b15780639b6aaa47146102c6578063aaf10f42146102db578063ab7b4993146102f0578063c4b00e3a14610310578063ca446dd914610330578063e1dda2a914610350578063f2fde38b14610365578063ff904ba814610385575b600080fd5b34801561012157600080fd5b50610135610130366004610ef4565b6103a5565b005b34801561014357600080fd5b5061014c6103fe565b6040516101599190610f24565b60405180910390f35b34801561016e57600080fd5b5061013561017d366004610ef4565b61041f565b34801561018e57600080fd5b5061014c61019d366004610f43565b610471565b3480156101ae57600080fd5b506101356101bd366004610ef4565b61048c565b3480156101ce57600080fd5b5061014c61055d565b6101356101e5366004611069565b610584565b3480156101f657600080fd5b506101ff61063d565b60405161015991906110c6565b34801561021857600080fd5b506040805180820182526002815261763160f01b60208201529051610159919061112c565b34801561024957600080fd5b5061014c61069a565b34801561025e57600080fd5b5061014c6106b0565b34801561027357600080fd5b50610135610282366004610ef4565b6106c8565b34801561029357600080fd5b50610135610725565b3480156102a857600080fd5b50610135610739565b3480156102bd57600080fd5b5061014c61080b565b3480156102d257600080fd5b5061014c61081a565b3480156102e757600080fd5b5061014c610838565b3480156102fc57600080fd5b5061013561030b366004610ef4565b610842565b34801561031c57600080fd5b5061013561032b366004610ef4565b61088e565b34801561033c57600080fd5b5061013561034b36600461113d565b6108e2565b34801561035c57600080fd5b5061014c6109a1565b34801561037157600080fd5b50610135610380366004610ef4565b6109bf565b34801561039157600080fd5b506101356103a0366004610ef4565b6109f6565b6103ad610a4a565b6103c46910d3d31310551154905360b21b82610a79565b7f823c58e2969bcdf1301b932fcbced62d5d4617880949dd434df13d001b3a1162816040516103f39190610f24565b60405180910390a150565b600061041a6d4c49515549445f5354414b494e4760901b610471565b905090565b610427610a4a565b6104426d4c49515549445f5354414b494e4760901b82610a79565b7f28eee4c16ee82f20af2f6bbce9099830336463276722abd296c37fa5596c67a6816040516103f39190610f24565b600090815260c960205260409020546001600160a01b031690565b6001600160a01b037f00000000000000000000000000000000000000000000000000000000000000001630036104dd5760405162461bcd60e51b81526004016104d4906111aa565b60405180910390fd5b7f00000000000000000000000000000000000000000000000000000000000000006001600160a01b031661050f610af4565b6001600160a01b0316146105355760405162461bcd60e51b81526004016104d4906111f1565b61053e81610b10565b6040805160008082526020820190925261055a91839190610b18565b50565b600061041a782624a8aaa4a22fa9aa20a5a4a723afa1a7a72a2927a62622a960391b610471565b6001600160a01b037f00000000000000000000000000000000000000000000000000000000000000001630036105cc5760405162461bcd60e51b81526004016104d4906111aa565b7f00000000000000000000000000000000000000000000000000000000000000006001600160a01b03166105fe610af4565b6001600160a01b0316146106245760405162461bcd60e51b81526004016104d4906111f1565b61062d82610b10565b61063982826001610b18565b5050565b6000306001600160a01b037f000000000000000000000000000000000000000000000000000000000000000016146106875760405162461bcd60e51b81526004016104d490611256565b506000805160206115cc83398151915290565b600061041a67524547495354525960c01b610471565b600061041a6910d3d31310551154905360b21b610471565b6106d0610a4a565b6106f6782624a8aaa4a22fa9aa20a5a4a723afa1a7a72a2927a62622a960391b82610a79565b7f4ab24a8b7f91c7c94ba84b720a3a31ac1fddb8d9f0a95d3bc7ae681d94939b6c816040516103f39190610f24565b61072d610a4a565b6107376000610bff565b565b600054610100900460ff16158080156107595750600054600160ff909116105b8061077a575061076830610c51565b15801561077a575060005460ff166001145b6107965760405162461bcd60e51b81526004016104d4906112b1565b6000805460ff1916600117905580156107b9576000805461ff0019166101001790555b6107c1610c60565b6107c9610c8f565b801561055a576000805461ff00191690556040517f7f26b83ff96e1f2b6a682f133852f6798a09c465da95921460cefb3847402498906103f3906001906112d5565b6033546001600160a01b031690565b600061041a6f50524f544f434f4c5f5245574152445360801b610471565b600061041a610af4565b61084a610a4a565b61085f67524547495354525960c01b82610a79565b7fc533a624c353ec88e315b162298e52e2b02aa03d5fb5afdbf13445a26f1d10c7816040516103f39190610f24565b610896610a4a565b6108b36f50524f544f434f4c5f5245574152445360801b82610a79565b7f844c5b5e7a57c0a3f6ba450d4bd80548e696a994818c86029f517e0dbba50660816040516103f39190610f24565b6108ea610a4a565b600082815260c960205260409020546001600160a01b0390811690821681148061091b57506001600160a01b038216155b156109395760405163e6c4247b60e01b815260040160405180910390fd5b600083815260c960205260409081902080546001600160a01b0319166001600160a01b038516179055517f9ef0e8c8e52743bb38b83b17d9429141d494b8041ca6d616a6c77cebae9cd8b790610994908590849086906112e3565b60405180910390a1505050565b600061041a6f2922aba0a9222fa1a7a62622a1aa27a960811b610471565b6109c7610a4a565b6001600160a01b0381166109ed5760405162461bcd60e51b81526004016104d49061134e565b61055a81610bff565b6109fe610a4a565b610a1b6f2922aba0a9222fa1a7a62622a1aa27a960811b82610a79565b7f1bddb2a677915289a2247c53f1b129b2c0e3f267ef9bdbf00b9f59dd547e1317816040516103f39190610f24565b33610a5361080b565b6001600160a01b0316146107375760405162461bcd60e51b81526004016104d490611393565b600082815260c960205260409020546001600160a01b0382811691161480610aa857506001600160a01b038116155b15610ac65760405163e6c4247b60e01b815260040160405180910390fd5b600091825260c9602052604090912080546001600160a01b0319166001600160a01b03909216919091179055565b6000805160206115cc833981519152546001600160a01b031690565b61055a610a4a565b7f4910fdfa16fed3260ed0e7147f7cc6da11a60208b5b9406d12a635614ffd91435460ff1615610b5057610b4b83610cb6565b505050565b826001600160a01b03166352d1902d6040518163ffffffff1660e01b8152600401602060405180830381865afa925050508015610baa575060408051601f3d908101601f19168201909252610ba7918101906113ae565b60015b610bc65760405162461bcd60e51b81526004016104d49061141a565b6000805160206115cc8339815191528114610bf35760405162461bcd60e51b81526004016104d490611470565b50610b4b838383610d0a565b603380546001600160a01b038381166001600160a01b0319831681179093556040519116919082907f8be0079c531659141344cd1fd0a4f28419497f9722a3daafe3b4186f6b6457e090600090a35050565b6001600160a01b03163b151590565b600054610100900460ff16610c875760405162461bcd60e51b81526004016104d4906114c8565b610737610d35565b600054610100900460ff166107375760405162461bcd60e51b81526004016104d4906114c8565b610cbf81610c51565b610cdb5760405162461bcd60e51b81526004016104d490611522565b6000805160206115cc83398151915280546001600160a01b0319166001600160a01b0392909216919091179055565b610d1383610d65565b600082511180610d205750805b15610b4b57610d2f8383610da5565b50505050565b600054610100900460ff16610d5c5760405162461bcd60e51b81526004016104d4906114c8565b61073733610bff565b610d6e81610cb6565b6040516001600160a01b038216907fbc7cd75a20ee27fd9adebab32041f755214dbc6bffa90cc0225b39da2e5c2d3b90600090a250565b6060610dca83836040518060600160405280602781526020016115ec60279139610dd3565b90505b92915050565b6060600080856001600160a01b031685604051610df09190611554565b600060405180830381855af49150503d8060008114610e2b576040519150601f19603f3d011682016040523d82523d6000602084013e610e30565b606091505b5091509150610e4186838387610e4b565b9695505050505050565b60608315610e88578251600003610e8157610e6585610c51565b610e815760405162461bcd60e51b81526004016104d49061159b565b5081610e92565b610e928383610e9a565b949350505050565b815115610eaa5781518083602001fd5b8060405162461bcd60e51b81526004016104d4919061112c565b60006001600160a01b038216610dcd565b610ede81610ec4565b811461055a57600080fd5b8035610dcd81610ed5565b600060208284031215610f0957610f09600080fd5b6000610e928484610ee9565b610f1e81610ec4565b82525050565b60208101610dcd8284610f15565b80610ede565b8035610dcd81610f32565b600060208284031215610f5857610f58600080fd5b6000610e928484610f38565b601f01601f191690565b634e487b7160e01b600052604160045260246000fd5b610f8d82610f64565b81018181106001600160401b0382111715610faa57610faa610f6e565b6040525050565b6000610fbc60405190565b9050610fc88282610f84565b919050565b60006001600160401b03821115610fe657610fe6610f6e565b610fef82610f64565b60200192915050565b82818337506000910152565b600061101761101284610fcd565b610fb1565b90508281526020810184848401111561103257611032600080fd5b61103d848285610ff8565b509392505050565b600082601f83011261105957611059600080fd5b8135610e92848260208601611004565b6000806040838503121561107f5761107f600080fd5b600061108b8585610ee9565b92505060208301356001600160401b038111156110aa576110aa600080fd5b6110b685828601611045565b9150509250929050565b80610f1e565b60208101610dcd82846110c0565b60005b838110156110ef5781810151838201526020016110d7565b50506000910152565b6000611102825190565b8084526020840193506111198185602086016110d4565b61112281610f64565b9093019392505050565b60208082528101610dca81846110f8565b6000806040838503121561115357611153600080fd5b600061115f8585610f38565b92505060206110b685828601610ee9565b602c81526000602082016000805160206115ac83398151915281526b19195b1959d85d1958d85b1b60a21b602082015291505b5060400190565b60208082528101610dcd81611170565b602c81526000602082016000805160206115ac83398151915281526b6163746976652070726f787960a01b602082015291506111a3565b60208082528101610dcd816111ba565b603881526000602082017f555550535570677261646561626c653a206d757374206e6f742062652063616c8152771b1959081d1a1c9bdd59da0819195b1959d85d1958d85b1b60421b602082015291506111a3565b60208082528101610dcd81611201565b602e81526000602082017f496e697469616c697a61626c653a20636f6e747261637420697320616c72656181526d191e481a5b9a5d1a585b1a5e995960921b602082015291506111a3565b60208082528101610dcd81611266565b600060ff8216610dcd565b610f1e816112c1565b60208101610dcd82846112cc565b606081016112f182866110c0565b6112fe6020830185610f15565b610e926040830184610f15565b602681526000602082017f4f776e61626c653a206e6577206f776e657220697320746865207a65726f206181526564647265737360d01b602082015291506111a3565b60208082528101610dcd8161130b565b60208082527f4f776e61626c653a2063616c6c6572206973206e6f7420746865206f776e6572910190815260005b5060200190565b60208082528101610dcd8161135e565b8051610dcd81610f32565b6000602082840312156113c3576113c3600080fd5b6000610e9284846113a3565b602e81526000602082017f45524331393637557067726164653a206e657720696d706c656d656e7461746981526d6f6e206973206e6f74205555505360901b602082015291506111a3565b60208082528101610dcd816113cf565b602981526000602082017f45524331393637557067726164653a20756e737570706f727465642070726f788152681a58589b195555525160ba1b602082015291506111a3565b60208082528101610dcd8161142a565b602b81526000602082017f496e697469616c697a61626c653a20636f6e7472616374206973206e6f74206981526a6e697469616c697a696e6760a81b602082015291506111a3565b60208082528101610dcd81611480565b602d81526000602082017f455243313936373a206e657720696d706c656d656e746174696f6e206973206e81526c1bdd08184818dbdb9d1c9858dd609a1b602082015291506111a3565b60208082528101610dcd816114d8565b600061153c825190565b61154a8185602086016110d4565b9290920192915050565b60006115608284611532565b9392505050565b601d81526000602082017f416464726573733a2063616c6c20746f206e6f6e2d636f6e74726163740000008152915061138c565b60208082528101610dcd8161156756fe46756e6374696f6e206d7573742062652063616c6c6564207468726f75676820360894a13ba1a3210667c828492db98dca3e2076cc3735a920a3ca505d382bbc416464726573733a206c6f772d6c6576656c2064656c65676174652063616c6c206661696c6564a264697066735822122092e7f4b1a75701af522718bd2b2cb8d99bb3beca4c278f1e845938f0915b331964736f6c63430008110033",
  "devdoc": {
    "kind": "dev",
    "methods": {
      "getAddress(bytes32)": {
        "params": {
          "id": "Address identifier"
        }
      },
      "initialize()": {
        "details": "Contract initializer function."
      },
      "owner()": {
        "details": "Returns the address of the current owner."
      },
      "proxiableUUID()": {
        "details": "Implementation of the ERC1822 {proxiableUUID} function. This returns the storage slot used by the implementation. It is used to validate the implementation's compatibility when performing an upgrade. IMPORTANT: A proxy pointing at a proxiable contract should not be considered proxiable itself, because this risks bricking a proxy that upgrades to it, by delegating to itself until out of gas. Thus it is critical that this function revert if invoked through a proxy. This is guaranteed by the `notDelegated` modifier."
      },
      "renounceOwnership()": {
        "details": "Leaves the contract without owner. It will not be possible to call `onlyOwner` functions. Can only be called by the current owner. NOTE: Renouncing ownership will leave the contract without an owner, thereby disabling any functionality that is only available to the owner."
      },
      "setAddress(bytes32,address)": {
        "details": "Only triggered by resolver owner",
        "params": {
          "id": "Address Identifier",
          "newAddress": "Contract implementation address"
        }
      },
      "setCollateralAddress(address)": {
        "details": "Only triggered by resolver owner",
        "params": {
          "newAddress": "StorageProviderCollateral smart contract address"
        }
      },
      "setLiquidStakingAddress(address)": {
        "details": "Only triggered by resolver owner",
        "params": {
          "newAddress": "LiquidStaking smart contract address"
        }
      },
      "setLiquidStakingControllerAddress(address)": {
        "details": "Only triggered by resolver owner",
        "params": {
          "newAddress": "LiquidStakingController smart contract address"
        }
      },
      "setProtocolRewardsAddress(address)": {
        "details": "Only triggered by resolver owner",
        "params": {
          "newAddress": "Protocol Rewards address"
        }
      },
      "setRegistryAddress(address)": {
        "details": "Only triggered by resolver owner",
        "params": {
          "newAddress": "StorageProviderRegistry smart contract address"
        }
      },
      "setRewardCollectorAddress(address)": {
        "details": "Only triggered by resolver owner",
        "params": {
          "newAddress": "RewardCollector address"
        }
      },
      "transferOwnership(address)": {
        "details": "Transfers ownership of the contract to a new account (`newOwner`). Can only be called by the current owner."
      },
      "upgradeTo(address)": {
        "custom:oz-upgrades-unsafe-allow-reachable": "delegatecall",
        "details": "Upgrade the implementation of the proxy to `newImplementation`. Calls {_authorizeUpgrade}. Emits an {Upgraded} event."
      },
      "upgradeToAndCall(address,bytes)": {
        "custom:oz-upgrades-unsafe-allow-reachable": "delegatecall",
        "details": "Upgrade the implementation of the proxy to `newImplementation`, and subsequently execute the function call encoded in `data`. Calls {_authorizeUpgrade}. Emits an {Upgraded} event."
      }
    },
    "title": "Resolver contract used to resolve registered addresses in the protocol by their identifiers",
    "version": 1
  },
  "userdoc": {
    "events": {
      "AddressSet(bytes32,address,address)": {
        "notice": "Emitted when new address set"
      },
      "CollateralAddressUpdated(address)": {
        "notice": "Emitted when StorageProviderCollateral address updated"
      },
      "LiquidStakingAddressUpdated(address)": {
        "notice": "Emitted when LiquidStaking address updated"
      },
      "LiquidStakingControllerAddressUpdated(address)": {
        "notice": "Emitted when LiquidStaking address updated"
      },
      "ProtocolRewardsAddressUpdated(address)": {
        "notice": "Emitted when Protocol Rewards address updated"
      },
      "RegistryAddressUpdated(address)": {
        "notice": "Emitted when StorageProviderRegistry address updated"
      },
      "RewardCollectorAddressUpdated(address)": {
        "notice": "Emitted when RewardCollector address updated"
      }
    },
    "kind": "user",
    "methods": {
      "getAddress(bytes32)": {
        "notice": "Returns an address of a contract by its identifier"
      },
      "getCollateral()": {
        "notice": "Returns an address of a Storage Provider Collateral contract"
      },
      "getImplementation()": {
        "notice": "Returns the implementation contract"
      },
      "getLiquidStaking()": {
        "notice": "Returns an address of a Liquid Staking contract"
      },
      "getLiquidStakingController()": {
        "notice": "Returns an address of a Liquid Staking Controller contract"
      },
      "getProtocolRewards()": {
        "notice": "Returns a ProtocolRewards address"
      },
      "getRegistry()": {
        "notice": "Returns an address of a Storage Provider Registry contract"
      },
      "getRewardCollector()": {
        "notice": "Returns an address of a Reward Collector contract"
      },
      "setAddress(bytes32,address)": {
        "notice": "Sets a `newAddress` for a contract by `id`"
      },
      "setCollateralAddress(address)": {
        "notice": "Update StorageProviderCollateral smart contract address"
      },
      "setLiquidStakingAddress(address)": {
        "notice": "Update LiquidStaking smart contract address"
      },
      "setLiquidStakingControllerAddress(address)": {
        "notice": "Update LiquidStakingController address"
      },
      "setProtocolRewardsAddress(address)": {
        "notice": "Update Protocol Rewards address"
      },
      "setRegistryAddress(address)": {
        "notice": "Update StorageProviderRegistry smart contract address"
      },
      "setRewardCollectorAddress(address)": {
        "notice": "Update Reward Collector contract address"
      },
      "version()": {
        "notice": "Returns the version of clFIL token contract"
      }
    },
    "version": 1
  },
  "storageLayout": {
    "storage": [
      {
        "astId": 16433,
        "contract": "contracts/Resolver.sol:Resolver",
        "label": "_initialized",
        "offset": 0,
        "slot": "0",
        "type": "t_uint8"
      },
      {
        "astId": 16436,
        "contract": "contracts/Resolver.sol:Resolver",
        "label": "_initializing",
        "offset": 1,
        "slot": "0",
        "type": "t_bool"
      },
      {
        "astId": 18313,
        "contract": "contracts/Resolver.sol:Resolver",
        "label": "__gap",
        "offset": 0,
        "slot": "1",
        "type": "t_array(t_uint256)50_storage"
      },
      {
        "astId": 15772,
        "contract": "contracts/Resolver.sol:Resolver",
        "label": "_owner",
        "offset": 0,
        "slot": "51",
        "type": "t_address"
      },
      {
        "astId": 15892,
        "contract": "contracts/Resolver.sol:Resolver",
        "label": "__gap",
        "offset": 0,
        "slot": "52",
        "type": "t_array(t_uint256)49_storage"
      },
      {
        "astId": 16415,
        "contract": "contracts/Resolver.sol:Resolver",
        "label": "__gap",
        "offset": 0,
        "slot": "101",
        "type": "t_array(t_uint256)50_storage"
      },
      {
        "astId": 16730,
        "contract": "contracts/Resolver.sol:Resolver",
        "label": "__gap",
        "offset": 0,
        "slot": "151",
        "type": "t_array(t_uint256)50_storage"
      },
      {
        "astId": 1317,
        "contract": "contracts/Resolver.sol:Resolver",
        "label": "_addresses",
        "offset": 0,
        "slot": "201",
        "type": "t_mapping(t_bytes32,t_address)"
      }
    ],
    "types": {
      "t_address": {
        "encoding": "inplace",
        "label": "address",
        "numberOfBytes": "20"
      },
      "t_array(t_uint256)49_storage": {
        "base": "t_uint256",
        "encoding": "inplace",
        "label": "uint256[49]",
        "numberOfBytes": "1568"
      },
      "t_array(t_uint256)50_storage": {
        "base": "t_uint256",
        "encoding": "inplace",
        "label": "uint256[50]",
        "numberOfBytes": "1600"
      },
      "t_bool": {
        "encoding": "inplace",
        "label": "bool",
        "numberOfBytes": "1"
      },
      "t_bytes32": {
        "encoding": "inplace",
        "label": "bytes32",
        "numberOfBytes": "32"
      },
      "t_mapping(t_bytes32,t_address)": {
        "encoding": "mapping",
        "key": "t_bytes32",
        "label": "mapping(bytes32 => address)",
        "numberOfBytes": "32",
        "value": "t_address"
      },
      "t_uint256": {
        "encoding": "inplace",
        "label": "uint256",
        "numberOfBytes": "32"
      },
      "t_uint8": {
        "encoding": "inplace",
        "label": "uint8",
        "numberOfBytes": "1"
      }
    }
  }
}