{
  "address": "0x57f5cbca75C410589ae88Fab5ED2e9dA32a0b306",
  "abi": [
    {
      "inputs": [
        {
          "internalType": "int256",
          "name": "errorCode",
          "type": "int256"
        }
      ],
      "name": "ActorError",
      "type": "error"
    },
    {
      "inputs": [],
      "name": "ActorNotFound",
      "type": "error"
    },
    {
      "inputs": [],
      "name": "BigNumConversion",
      "type": "error"
    },
    {
      "inputs": [],
      "name": "FailToCallActor",
      "type": "error"
    },
    {
      "inputs": [],
      "name": "InactivePool",
      "type": "error"
    },
    {
      "inputs": [],
      "name": "IncorrectWithdrawal",
      "type": "error"
    },
    {
      "inputs": [],
      "name": "InvalidAccess",
      "type": "error"
    },
    {
      "inputs": [
        {
          "internalType": "CommonTypes.FilActorId",
          "name": "actorId",
          "type": "uint64"
        }
      ],
      "name": "InvalidActorID",
      "type": "error"
    },
    {
      "inputs": [
        {
          "internalType": "uint64",
          "name": "",
          "type": "uint64"
        }
      ],
      "name": "InvalidCodec",
      "type": "error"
    },
    {
      "inputs": [],
      "name": "InvalidParams",
      "type": "error"
    },
    {
      "inputs": [],
      "name": "InvalidResponseLength",
      "type": "error"
    },
    {
      "inputs": [],
      "name": "NegativeValueNotAllowed",
      "type": "error"
    },
    {
      "inputs": [
        {
          "internalType": "uint256",
          "name": "balance",
          "type": "uint256"
        },
        {
          "internalType": "uint256",
          "name": "value",
          "type": "uint256"
        }
      ],
      "name": "NotEnoughBalance",
      "type": "error"
    },
    {
      "anonymous": false,
      "inputs": [
        {
          "indexed": false,
          "internalType": "address",
          "name": "previousAdmin",
          "type": "address"
        },
        {
          "indexed": false,
          "internalType": "address",
          "name": "newAdmin",
          "type": "address"
        }
      ],
      "name": "AdminChanged",
      "type": "event"
    },
    {
      "anonymous": false,
      "inputs": [
        {
          "indexed": true,
          "internalType": "address",
          "name": "beacon",
          "type": "address"
        }
      ],
      "name": "BeaconUpgraded",
      "type": "event"
    },
    {
      "anonymous": false,
      "inputs": [
        {
          "indexed": false,
          "internalType": "address",
          "name": "beneficiary",
          "type": "address"
        },
        {
          "indexed": false,
          "internalType": "uint64",
          "name": "beneficiaryActorId",
          "type": "uint64"
        },
        {
          "indexed": false,
          "internalType": "uint64",
          "name": "minerId",
          "type": "uint64"
        },
        {
          "indexed": false,
          "internalType": "uint256",
          "name": "quota",
          "type": "uint256"
        },
        {
          "indexed": false,
          "internalType": "int64",
          "name": "expiration",
          "type": "int64"
        }
      ],
      "name": "BeneficiaryAddressUpdated",
      "type": "event"
    },
    {
      "anonymous": false,
      "inputs": [
        {
          "indexed": false,
          "internalType": "uint8",
          "name": "version",
          "type": "uint8"
        }
      ],
      "name": "Initialized",
      "type": "event"
    },
    {
      "anonymous": false,
      "inputs": [
        {
          "indexed": true,
          "internalType": "bytes32",
          "name": "role",
          "type": "bytes32"
        },
        {
          "indexed": true,
          "internalType": "bytes32",
          "name": "previousAdminRole",
          "type": "bytes32"
        },
        {
          "indexed": true,
          "internalType": "bytes32",
          "name": "newAdminRole",
          "type": "bytes32"
        }
      ],
      "name": "RoleAdminChanged",
      "type": "event"
    },
    {
      "anonymous": false,
      "inputs": [
        {
          "indexed": true,
          "internalType": "bytes32",
          "name": "role",
          "type": "bytes32"
        },
        {
          "indexed": true,
          "internalType": "address",
          "name": "account",
          "type": "address"
        },
        {
          "indexed": true,
          "internalType": "address",
          "name": "sender",
          "type": "address"
        }
      ],
      "name": "RoleGranted",
      "type": "event"
    },
    {
      "anonymous": false,
      "inputs": [
        {
          "indexed": true,
          "internalType": "bytes32",
          "name": "role",
          "type": "bytes32"
        },
        {
          "indexed": true,
          "internalType": "address",
          "name": "account",
          "type": "address"
        },
        {
          "indexed": true,
          "internalType": "address",
          "name": "sender",
          "type": "address"
        }
      ],
      "name": "RoleRevoked",
      "type": "event"
    },
    {
      "anonymous": false,
      "inputs": [
        {
          "indexed": true,
          "internalType": "address",
          "name": "implementation",
          "type": "address"
        }
      ],
      "name": "Upgraded",
      "type": "event"
    },
    {
      "anonymous": false,
      "inputs": [
        {
          "indexed": false,
          "internalType": "uint64",
          "name": "ownerId",
          "type": "uint64"
        },
        {
          "indexed": false,
          "internalType": "uint64",
          "name": "minerId",
          "type": "uint64"
        },
        {
          "indexed": false,
          "internalType": "uint256",
          "name": "amount",
          "type": "uint256"
        }
      ],
      "name": "WithdrawPledge",
      "type": "event"
    },
    {
      "anonymous": false,
      "inputs": [
        {
          "indexed": false,
          "internalType": "uint256",
          "name": "amount",
          "type": "uint256"
        }
      ],
      "name": "WithdrawProtocolRewards",
      "type": "event"
    },
    {
      "anonymous": false,
      "inputs": [
        {
          "indexed": false,
          "internalType": "uint64",
          "name": "ownerId",
          "type": "uint64"
        },
        {
          "indexed": false,
          "internalType": "uint64",
          "name": "minerId",
          "type": "uint64"
        },
        {
          "indexed": false,
          "internalType": "uint256",
          "name": "spShare",
          "type": "uint256"
        },
        {
          "indexed": false,
          "internalType": "uint256",
          "name": "stakingProfit",
          "type": "uint256"
        },
        {
          "indexed": false,
          "internalType": "uint256",
          "name": "protocolRevenue",
          "type": "uint256"
        }
      ],
      "name": "WithdrawRewards",
      "type": "event"
    },
    {
      "stateMutability": "payable",
      "type": "fallback"
    },
    {
      "inputs": [],
      "name": "DEFAULT_ADMIN_ROLE",
      "outputs": [
        {
          "internalType": "bytes32",
          "name": "",
          "type": "bytes32"
        }
      ],
      "stateMutability": "view",
      "type": "function"
    },
    {
      "inputs": [],
      "name": "WFIL",
      "outputs": [
        {
          "internalType": "contract IWFIL",
          "name": "",
          "type": "address"
        }
      ],
      "stateMutability": "view",
      "type": "function"
    },
    {
      "inputs": [
        {
          "internalType": "uint64",
          "name": "minerId",
          "type": "uint64"
        },
        {
          "internalType": "uint64",
          "name": "beneficiaryActorId",
          "type": "uint64"
        },
        {
          "internalType": "uint256",
          "name": "quota",
          "type": "uint256"
        },
        {
          "internalType": "int64",
          "name": "expiration",
          "type": "int64"
        }
      ],
      "name": "forwardChangeBeneficiary",
      "outputs": [],
      "stateMutability": "nonpayable",
      "type": "function"
    },
    {
      "inputs": [],
      "name": "getImplementation",
      "outputs": [
        {
          "internalType": "address",
          "name": "",
          "type": "address"
        }
      ],
      "stateMutability": "view",
      "type": "function"
    },
    {
      "inputs": [
        {
          "internalType": "bytes32",
          "name": "role",
          "type": "bytes32"
        }
      ],
      "name": "getRoleAdmin",
      "outputs": [
        {
          "internalType": "bytes32",
          "name": "",
          "type": "bytes32"
        }
      ],
      "stateMutability": "view",
      "type": "function"
    },
    {
      "inputs": [
        {
          "internalType": "bytes32",
          "name": "role",
          "type": "bytes32"
        },
        {
          "internalType": "address",
          "name": "account",
          "type": "address"
        }
      ],
      "name": "grantRole",
      "outputs": [],
      "stateMutability": "nonpayable",
      "type": "function"
    },
    {
      "inputs": [
        {
          "internalType": "bytes32",
          "name": "role",
          "type": "bytes32"
        },
        {
          "internalType": "address",
          "name": "account",
          "type": "address"
        }
      ],
      "name": "hasRole",
      "outputs": [
        {
          "internalType": "bool",
          "name": "",
          "type": "bool"
        }
      ],
      "stateMutability": "view",
      "type": "function"
    },
    {
      "inputs": [
        {
          "internalType": "address",
          "name": "_wFIL",
          "type": "address"
        },
        {
          "internalType": "address",
          "name": "_resolver",
          "type": "address"
        }
      ],
      "name": "initialize",
      "outputs": [],
      "stateMutability": "nonpayable",
      "type": "function"
    },
    {
      "inputs": [],
      "name": "proxiableUUID",
      "outputs": [
        {
          "internalType": "bytes32",
          "name": "",
          "type": "bytes32"
        }
      ],
      "stateMutability": "view",
      "type": "function"
    },
    {
      "inputs": [
        {
          "internalType": "bytes32",
          "name": "role",
          "type": "bytes32"
        },
        {
          "internalType": "address",
          "name": "account",
          "type": "address"
        }
      ],
      "name": "renounceRole",
      "outputs": [],
      "stateMutability": "nonpayable",
      "type": "function"
    },
    {
      "inputs": [
        {
          "internalType": "bytes32",
          "name": "role",
          "type": "bytes32"
        },
        {
          "internalType": "address",
          "name": "account",
          "type": "address"
        }
      ],
      "name": "revokeRole",
      "outputs": [],
      "stateMutability": "nonpayable",
      "type": "function"
    },
    {
      "inputs": [
        {
          "internalType": "bytes4",
          "name": "interfaceId",
          "type": "bytes4"
        }
      ],
      "name": "supportsInterface",
      "outputs": [
        {
          "internalType": "bool",
          "name": "",
          "type": "bool"
        }
      ],
      "stateMutability": "view",
      "type": "function"
    },
    {
      "inputs": [
        {
          "internalType": "address",
          "name": "newImplementation",
          "type": "address"
        }
      ],
      "name": "upgradeTo",
      "outputs": [],
      "stateMutability": "nonpayable",
      "type": "function"
    },
    {
      "inputs": [
        {
          "internalType": "address",
          "name": "newImplementation",
          "type": "address"
        },
        {
          "internalType": "bytes",
          "name": "data",
          "type": "bytes"
        }
      ],
      "name": "upgradeToAndCall",
      "outputs": [],
      "stateMutability": "payable",
      "type": "function"
    },
    {
      "inputs": [],
      "name": "version",
      "outputs": [
        {
          "internalType": "string",
          "name": "",
          "type": "string"
        }
      ],
      "stateMutability": "pure",
      "type": "function"
    },
    {
      "inputs": [
        {
          "internalType": "uint64",
          "name": "minerId",
          "type": "uint64"
        },
        {
          "internalType": "uint256",
          "name": "amount",
          "type": "uint256"
        }
      ],
      "name": "withdrawPledge",
      "outputs": [],
      "stateMutability": "nonpayable",
      "type": "function"
    },
    {
      "inputs": [
        {
          "internalType": "uint256",
          "name": "_amount",
          "type": "uint256"
        }
      ],
      "name": "withdrawProtocolRewards",
      "outputs": [],
      "stateMutability": "nonpayable",
      "type": "function"
    },
    {
      "inputs": [
        {
          "internalType": "uint64",
          "name": "minerId",
          "type": "uint64"
        },
        {
          "internalType": "uint256",
          "name": "amount",
          "type": "uint256"
        }
      ],
      "name": "withdrawRewards",
      "outputs": [],
      "stateMutability": "nonpayable",
      "type": "function"
    },
    {
      "stateMutability": "payable",
      "type": "receive"
    }
  ],
  "numDeployments": 1,
  "solcInputHash": "05b76b7a0e8a6fda74467c296a8f93e8",
  "bytecode": "0x60a06040523060805234801561001457600080fd5b5060805161461e61004c6000396000818161040901528181610449015281816106410152818161068101526106f9015261461e6000f3fe6080604052600436106100da5760003560e01c806301ffc9a7146100e357806309448a8614610119578063248a9ca3146101475780632f2ff15d1461017457806336568abe146101945780633659cfe6146101b4578063485cc955146101d45780634f1ef286146101f457806352d1902d1461020757806354fd4d501461021c5780637b0b736b1461025957806391d148541461027957806396762a4a14610299578063a217fddf146102b9578063aaf10f42146102ce578063b740a5f3146102f0578063d547741f14610310578063f013460e1461033057005b366100e157005b005b3480156100ef57600080fd5b506101036100fe366004613484565b610350565b60405161011091906134af565b60405180910390f35b34801561012557600080fd5b5061012e5461013a906001600160a01b031681565b6040516101109190613501565b34801561015357600080fd5b50610167610162366004613520565b610387565b6040516101109190613547565b34801561018057600080fd5b506100e161018f366004613574565b61039f565b3480156101a057600080fd5b506100e16101af366004613574565b6103c0565b3480156101c057600080fd5b506100e16101cf3660046135b1565b6103ff565b3480156101e057600080fd5b506100e16101ef3660046135d2565b6104e3565b6100e16102023660046136f8565b610637565b34801561021357600080fd5b506101676106ec565b34801561022857600080fd5b5061024c6060604051604080820190526002815261763160f01b6020820152919050565b60405161011091906137a3565b34801561026557600080fd5b506100e16102743660046137e3565b610749565b34801561028557600080fd5b50610103610294366004613574565b610859565b3480156102a557600080fd5b506100e16102b4366004613847565b61088b565b3480156102c557600080fd5b50610167600081565b3480156102da57600080fd5b506102e361101f565b6040516101109190613883565b3480156102fc57600080fd5b506100e161030b366004613847565b61102e565b34801561031c57600080fd5b506100e161032b366004613574565b611463565b34801561033c57600080fd5b506100e161034b366004613520565b61147f565b60006001600160e01b03198216637965db0b60e01b148061038157506301ffc9a760e01b6001600160e01b03198316145b92915050565b60008181526097602052604081206001015492915050565b6103a882610387565b6103b181611664565b6103bb838361166e565b505050565b6001600160a01b03811633146103f15760405162461bcd60e51b81526004016103e8906138e0565b60405180910390fd5b6103fb82826116fa565b5050565b6001600160a01b037f00000000000000000000000000000000000000000000000000000000000000001630036104475760405162461bcd60e51b81526004016103e890613927565b7f00000000000000000000000000000000000000000000000000000000000000006001600160a01b0316610479611784565b6001600160a01b03161461049f5760405162461bcd60e51b81526004016103e89061396e565b6104a8816117a0565b6104e0816000604051818152601f19601f83011681016020016040529080156104d8576020820181803683370190505b5060006117d5565b50565b600054610100900460ff16158080156105035750600054600160ff909116105b806105245750610512306118b7565b158015610524575060005460ff166001145b6105405760405162461bcd60e51b81526004016103e8906139c9565b6000805460ff191660011790558015610563576000805461ff0019166101001790555b61056b6118c6565b6105736118ef565b61057b6118c6565b61012e80546001600160a01b038086166001600160a01b03199283161790925561012d8054928516929091169190911790556105b860003361191e565b6105d06000805160206145c98339815191523361039f565b6105e96000805160206145c98339815191526000611928565b80156103bb576000805461ff00191690557f7f26b83ff96e1f2b6a682f133852f6798a09c465da95921460cefb3847402498600160405161062a91906139ed565b60405180910390a1505050565b6001600160a01b037f000000000000000000000000000000000000000000000000000000000000000016300361067f5760405162461bcd60e51b81526004016103e890613927565b7f00000000000000000000000000000000000000000000000000000000000000006001600160a01b03166106b1611784565b6001600160a01b0316146106d75760405162461bcd60e51b81526004016103e89061396e565b6106e0826117a0565b6103fb828260016117d5565b6000306001600160a01b037f000000000000000000000000000000000000000000000000000000000000000016146107365760405162461bcd60e51b81526004016103e890613a50565b5060008051602061458283398151915290565b61012d546001600160a01b0316635ab1bd536040518163ffffffff1660e01b8152600401602060405180830381865afa15801561078a573d6000803e3d6000fd5b50505050604051601f3d908101601f191682016040526107ad9190810190613a6f565b6001600160a01b0316336001600160a01b0316146107de57604051633006171960e21b815260040160405180910390fd5b6107e66133ce565b6107ef8461197e565b81526107fa836119d6565b6020820152600782900b60408201526108138582611a0f565b7f77e95dc9673650bfaa97f9321052a349407217a72c147dbdd21cd72665667f22308587868660405161084a959493929190613aa9565b60405180910390a15050505050565b60008281526097602052604081206001600160a01b0383166000908152602091909152604090205460ff169392505050565b610893611a5a565b6108ab6000805160206145c983398151915233610859565b6108c857604051633006171960e21b815260040160405180910390fd5b61092b6040518061014001604052806000815260200160006001600160a01b031681526020016000815260200160001515815260200160001515815260200160008152602001600081526020016000815260200160008152602001600081525090565b61012d546000906001600160a01b0316635ab1bd536040518163ffffffff1660e01b8152600401602060405180830381865afa15801561096f573d6000803e3d6000fd5b50505050604051601f3d908101601f191682016040526109929190810190613a6f565b9050600080826001600160a01b031663b0298c31876040518263ffffffff1660e01b81526004016109c39190613aeb565b608060405180830381865afa1580156109e0573d6000803e3d6000fd5b50505050604051601f3d908101601f19168201604052610a039190810190613b2e565b5092509250506000610a1d87610a18886119d6565b611a83565b9050610a2881611ac2565b15156060870190815260408701919091525115610a5857604051631adafa3960e11b815260040160405180910390fd5b85856040015114610a7c5760405163b4b1515760e01b815260040160405180910390fd5b61012d546000906001600160a01b0316634e1060fa6040518163ffffffff1660e01b8152600401602060405180830381865afa158015610ac0573d6000803e3d6000fd5b50505050604051601f3d908101601f19168201604052610ae39190810190613a6f565b9050612710816001600160a01b0316637e06125285876040518363ffffffff1660e01b8152600401610b16929190613b86565b602060405180830381865afa158015610b33573d6000803e3d6000fd5b50505050604051601f3d908101601f19168201604052610b569190810190613bb0565b8760400151610b659190613be7565b610b6f9190613c1c565b60c08701526127106001600160a01b03821663a0be06f96040518163ffffffff1660e01b8152600401602060405180830381865afa158015610bb5573d6000803e3d6000fd5b50505050604051601f3d908101601f19168201604052610bd89190810190613bb0565b8760400151610be79190613be7565b610bf19190613c1c565b60a08701526001600160a01b038516639e5c1399846040518263ffffffff1660e01b8152600401610c229190613aeb565b6040805180830381865afa158015610c3e573d6000803e3d6000fd5b50505050604051601f3d908101601f19168201604052610c619190810190613c30565b6001600160a01b03166020880152865260008651118015610c905750600060208701516001600160a01b031614155b1515608087019081525115610ce15761271086518760a001518860c001518960400151610cbd9190613c63565b610cc79190613c63565b610cd19190613be7565b610cdb9190613c1c565b60e08701525b8560e001518660a001518760c00151610cfa9190613c76565b610d049190613c76565b6101008701908152518660400151610d1c9190613c63565b61012087015261012e546001600160a01b031663d0e30db06101008801516040518263ffffffff1660e01b81526004016000604051808303818588803b158015610d6557600080fd5b505af1158015610d79573d6000803e3d6000fd5b505061012e546001600160a01b0316925063a9059cbb915086905060a0890151896101000151610da99190613c63565b6040518363ffffffff1660e01b8152600401610dc6929190613c89565b6020604051808303816000875af1158015610de5573d6000803e3d6000fd5b50505050604051601f3d908101601f19168201604052610e089190810190613ca4565b50610e1888876101200151611b40565b846001600160a01b0316637f2d1a60898860c001516040518363ffffffff1660e01b8152600401610e4a929190613cc5565b600060405180830381600087803b158015610e6457600080fd5b505af1158015610e78573d6000803e3d6000fd5b505061012d546001600160a01b03169150635c1548fb90506040518163ffffffff1660e01b8152600401602060405180830381865afa158015610ebf573d6000803e3d6000fd5b50505050604051601f3d908101601f19168201604052610ee29190810190613a6f565b6001600160a01b031663bea914e5846040518263ffffffff1660e01b8152600401610f0d9190613aeb565b600060405180830381600087803b158015610f2757600080fd5b505af1158015610f3b573d6000803e3d6000fd5b505050507f739b45d64077f15457e75656cc1fe5f43df37263b19c716adb2b58491b0e0b0683898861012001518960c001518a6101000151604051610f84959493929190613cd3565b60405180910390a185608001511561101057836001600160a01b031663413a885b8760e0015188602001516040518363ffffffff1660e01b8152600401610fcc929190613d15565b6020604051808303816000875af1158015610feb573d6000803e3d6000fd5b50505050604051601f3d908101601f1916820160405261100e9190810190613bb0565b505b5050505050506103fb60018055565b6000611029611784565b905090565b611036611a5a565b61104e6000805160206145c983398151915233610859565b61106b57604051633006171960e21b815260040160405180910390fd5b8060000361108c57604051635435b28960e11b815260040160405180910390fd5b61012d546000906001600160a01b0316635ab1bd536040518163ffffffff1660e01b8152600401602060405180830381865afa1580156110d0573d6000803e3d6000fd5b50505050604051601f3d908101601f191682016040526110f39190810190613a6f565b9050600080826001600160a01b031663b0298c31866040518263ffffffff1660e01b81526004016111249190613aeb565b608060405180830381865afa158015611141573d6000803e3d6000fd5b50505050604051601f3d908101601f191682016040526111649190810190613b2e565b509250925050600061117986610a18876119d6565b905060008061118783611ac2565b9150915080156111aa57604051631adafa3960e11b815260040160405180910390fd5b8682146111ca5760405163b4b1515760e01b815260040160405180910390fd5b61012e546001600160a01b031663d0e30db0836040518263ffffffff1660e01b81526004016000604051808303818588803b15801561120857600080fd5b505af115801561121c573d6000803e3d6000fd5b505061012e546001600160a01b0316925063a9059cbb9150879050846040518363ffffffff1660e01b8152600401611255929190613c89565b6020604051808303816000875af1158015611274573d6000803e3d6000fd5b50505050604051601f3d908101601f191682016040526112979190810190613ca4565b50856001600160a01b031663261d831589896040518363ffffffff1660e01b81526004016112c6929190613cc5565b600060405180830381600087803b1580156112e057600080fd5b505af11580156112f4573d6000803e3d6000fd5b50505050846001600160a01b031663d2a0460c886040518263ffffffff1660e01b81526004016113249190613547565b600060405180830381600087803b15801561133e57600080fd5b505af1158015611352573d6000803e3d6000fd5b505061012d546001600160a01b03169150635c1548fb90506040518163ffffffff1660e01b8152600401602060405180830381865afa158015611399573d6000803e3d6000fd5b50505050604051601f3d908101601f191682016040526113bc9190810190613a6f565b6001600160a01b031663bea914e5856040518263ffffffff1660e01b81526004016113e79190613aeb565b600060405180830381600087803b15801561140157600080fd5b505af1158015611415573d6000803e3d6000fd5b505050507f97289711cbab362dab51b0288e6ecb5dd4c6166a25b4968ee27422df85c0226684898960405161144c93929190613d23565b60405180910390a15050505050506103fb60018055565b61146c82610387565b61147581611664565b6103bb83836116fa565b6114976000805160206145c983398151915233610859565b6114b457604051633006171960e21b815260040160405180910390fd5b61012e546000906001600160a01b03166370a08231306040518263ffffffff1660e01b81526004016114e69190613883565b602060405180830381865afa158015611503573d6000803e3d6000fd5b50505050604051601f3d908101601f191682016040526115269190810190613bb0565b9050818110156115495760405163b4b1515760e01b815260040160405180910390fd5b80156103fb5761012e546001600160a01b0316632e1a7d4d836040518263ffffffff1660e01b815260040161157e9190613547565b600060405180830381600087803b15801561159857600080fd5b505af11580156115ac573d6000803e3d6000fd5b505061012d5461162992508491506001600160a01b0316639b6aaa476040518163ffffffff1660e01b8152600401602060405180830381865afa1580156115f7573d6000803e3d6000fd5b50505050604051601f3d908101601f1916820160405261161a9190810190613a6f565b6001600160a01b031690611ba4565b7fda404f981629b88a5f631e53336a7ab648b830ed422e5549f09c079942255bf0826040516116589190613547565b60405180910390a15050565b6104e08133611bcf565b6116788282610859565b6103fb5760008281526097602052600190604090206001600160a01b038316600090815260209190915260409020805460ff1916911515919091179055336001600160a01b0316816001600160a01b0316837f2f8788117e7eff1d82e926ec794901d17c78024a50270940304540a733656f0d60405160405180910390a45050565b6117048282610859565b156103fb5760008281526097602052604081206001600160a01b038316600090815260209190915260409020805460ff1916911515919091179055336001600160a01b0316816001600160a01b0316837ff6391f5c32d9c69d2a47ea670b442974b53935d1edc7fd64eb21e047a839171b60405160405180910390a45050565b600080516020614582833981519152546001600160a01b031690565b6117b86000805160206145c983398151915233610859565b6104e057604051633006171960e21b815260040160405180910390fd5b7f4910fdfa16fed3260ed0e7147f7cc6da11a60208b5b9406d12a635614ffd91435460ff1615611808576103bb83611c2a565b826001600160a01b03166352d1902d6040518163ffffffff1660e01b8152600401602060405180830381865afa9250505080156118625750604051601f3d908101601f1916820160405261185f9190810190613bb0565b60015b61187e5760405162461bcd60e51b81526004016103e890613d96565b60008051602061458283398151915281146118ab5760405162461bcd60e51b81526004016103e890613dec565b506103bb838383611c7e565b6001600160a01b03163b151590565b600054610100900460ff166118ed5760405162461bcd60e51b81526004016103e890613e44565b565b600054610100900460ff166119165760405162461bcd60e51b81526004016103e890613e44565b6118ed611ca3565b6103fb828261166e565b600061193383610387565b60008481526097602052909150829060409020600101558181847fbd79b86ffe0ab8e8776151514217cd7cacd52c909f66475c3af44e129f0b00ff60405160405180910390a4505050565b611992604051602081016040526060815290565b600061199d83611cca565b9050604051602081016040528082516040516020016119bc9190613e89565b604051602081830303815290604052815250915050919050565b6119de613407565b60006119eb836000611d17565b90506040516040808201905280825181526020018260200151151590529392505050565b6000611a1a82611d51565b90506000611a3284635d9dfc2c605185600080611e07565b9050805115611a5457604051630e74990760e01b815260040160405180910390fd5b50505050565b600260015403611a7c5760405162461bcd60e51b81526004016103e890613ed7565b6002600155565b611a8b613407565b6000611a9683611e51565b90506000611aae856387ed0a64605185600080611e07565b9050611ab981611eb7565b95945050505050565b600080826020015115611ae8576040516341820e7560e11b815260040160405180910390fd5b6000611af76000196000611d17565b90506000611b0a85518660200151611f40565b9050611b168183611f54565b15611b2957506000946001945092505050565b8051611b3490613ef1565b95600095509350505050565b6000611b7c83828080604051818152601f19601f8301168101602001604052908015611b73576020820181803683370190505b50866000611f7e565b90508051156103bb57604051630e74990760e01b815260040160405180910390fd5b60018055565b600080600080600085875af19050806103bb5760405162461bcd60e51b81526004016103e890613f5e565b611bd98282610859565b6103fb57611be68161205a565b611bf183602061206c565b604051602001611c02929190613f6e565b60405160208183030381529060405260405162461bcd60e51b81526004016103e891906137a3565b611c33816118b7565b611c4f5760405162461bcd60e51b81526004016103e89061400a565b60008051602061458283398151915280546001600160a01b0319166001600160a01b0392909216919091179055565b611c87836121d7565b600082511180611c945750805b156103bb57611a548383612219565b600054610100900460ff16611b9e5760405162461bcd60e51b81526004016103e890613e44565b611cd2613407565b6001600160391b03600783901c1691607f166000839003611cfe57611cf7828261223c565b5050919050565b611d0b826080831761223c565b5050611cd2565b919050565b611d1f61341f565b611d4a83604051602001611d33919061401a565b60405160208183030381529060405283600061229c565b9392505050565b6060600080611d638460200151612353565b9050611d6f6003612471565b611d799083613c76565b9150611d868451516124bf565b611d909083613c76565b9150611d9b816124bf565b611da59083613c76565b9150611db484604001516124d7565b611dbe9083613c76565b91506000611dcb8361251a565b9050611dd881600361253a565b611de58551518290612546565b611def8183612546565b611dfe8560400151829061255f565b611ab981612569565b60606064876001600160401b03161015611e36578660405163a292827360e01b81526004016103e89190614049565b611e44878787878787611f7e565b90505b9695505050505050565b6060600080611e5f84612353565b9050611e6b6001612471565b611e759083613c76565b9150611e80816124bf565b611e8a9083613c76565b91506000611e978361251a565b9050611ea481600161253a565b611dfe611eb086612353565b8290612546565b611ebf613407565b606060008084511115611ef657611ed68482612596565b9092509050600082511115611ef657611eee82612708565b949350505050565b60405160408082019052806000604051818152601f19601f8301168101602001604052908015611f2d576020820181803683370190505b5081526000602090910152949350505050565b611f4861341f565b611d4a8383600061229c565b600080611f638484600161285b565b905080600114611f74576000611eee565b6001949350505050565b6060611f916005607f60991b018461299b565b6000806005607f60991b01888686611faa576000611fad565b60015b8a8a8e604051602001611fc596959493929190614057565b604051602081830303815290604052604051611fe191906140b8565b600060405180830381855af49150503d806000811461201c576040513d603f01601f191681016040523d815291503d6000602084013e612021565b606091505b50915091508161204457604051638a7db5bf60e01b815260040160405180910390fd5b61204d816129e3565b9998505050505050505050565b60606103816001600160a01b03831660145b6060600061207b836002613be7565b612086906002613c76565b6001600160401b0381111561209d5761209d6135fe565b604051818152601f19601f83011681016020016040529080156120c7576020820181803683370190505b509050600360fc1b816000815181106120e2576120e26140c4565b60200101906001600160f81b031916908160001a905350600f60fb1b81600181518110612111576121116140c4565b60200101906001600160f81b031916908160001a9053506000612135846002613be7565b612140906001613c76565b90505b60018111156121b8576f181899199a1a9b1b9c1cb0b131b232b360811b85600f1660108110612174576121746140c4565b1a60f81b82828151811061218a5761218a6140c4565b60200101906001600160f81b031916908160001a90535060049490941c936121b1816140da565b9050612143565b508315611d4a5760405162461bcd60e51b81526004016103e890614123565b6121e081611c2a565b806001600160a01b03167fbc7cd75a20ee27fd9adebab32041f755214dbc6bffa90cc0225b39da2e5c2d3b60405160405180910390a250565b6060611d4a83836040516060810160405260278082526145a26020830139612aba565b612244613407565b600083515190506000612258826001613c76565b9050846020015182106122795761227985612274836002613be7565b612b28565b84516020838201018581538151831115612291578282525b509495945050505050565b6122a461341f565b602084018451600059601f831615600181146122d257601f84166020908103808601845283010192506122dc565b6020820192508382525b508282848660046101c2fa506020815101810160405280515b60208114612323576000602083015114600181146123135750612323565b60208301925050601f19016122f5565b8152845250505060208101839052811561233d5781612347565b6123478151612b43565b60408201529392505050565b60606000825151612365906001613c76565b6001600160401b0381111561237c5761237c6135fe565b604051818152601f19601f83011681016020016040529080156123a6576020820181803683370190505b509050826020015115156001146123be5760006123c4565b600160f81b5b816000815181106123d7576123d76140c4565b60200101906001600160f81b031916908160001a905350600160005b8451518110156124685784518181518110612410576124106140c4565b60200101516001600160f81b031916838381518110612431576124316140c4565b60200101906001600160f81b031916908160001a9053508161245281614133565b925050808061246090614133565b9150506123f3565b50909392505050565b60006017821161248357506001919050565b60ff821161249357506002919050565b61ffff82116124a457506003919050565b63ffffffff82116124b757506005919050565b506009919050565b600081516124cd8351612471565b6103819190613c76565b600081600781900b82136124f757611d4a816001600160401b0316612471565b611d4a61250682600019614146565b6001600160401b0316612471565b50919050565b612522613442565b61252d815183612b81565b5060006020820152919050565b6103fb82600483612beb565b6125538260028351612bf2565b6103bb81835190612d0f565b6103fb8282612d23565b606081602001511561258d5760405162461bcd60e51b81526004016103e8906141aa565b81515192915050565b606060008060006125a78686612d51565b96509092506001600160401b0316905060ff8216600614806125cc575060ff82166002145b6125e85760405162461bcd60e51b81526004016103e890614205565b60051960ff831601612621576125fe8686612d51565b96509092506001600160401b0316905060ff821660021461262157612621614215565b600061262d8287613c76565b90506000826001600160401b03811115612649576126496135fe565b604051818152601f19601f8301168101602001604052908015612673576020820181803683370190505b5090506000875b838110156126ec57898181518110612694576126946140c4565b60200101516001600160f81b0319168383815181106126b5576126b56140c4565b60200101906001600160f81b031916908160001a905350816126d681614133565b92505080806126e490614133565b91505061267a565b50816126f8858a613c76565b9650965050505050509250929050565b612710613407565b815160000361274857604051806040016040528060405160408082019052600181526000602080830182905291835291015292915050565b6000600183516127589190613c63565b6001600160401b0381111561276f5761276f6135fe565b604051818152601f19601f8301168101602001604052908015612799576020820181803683370190505b5090506000836000815181106127b1576127b16140c4565b60200101516001600160f81b031916600160f81b036127ce575060015b60015b8451811015612840578481815181106127ec576127ec6140c4565b60200101516001600160f81b03191683612807600184613c63565b81518110612817576128176140c4565b60200101906001600160f81b031916908160001a9053508061283881614133565b9150506127d1565b50604051604080820190529182521515602082015292915050565b6000600182156128d45784602001518015612877575083602001515b1561288557506000196128d4565b846020015115801561289d5750836020015115156001145b156128ac576001915050611d4a565b8460200151151560011480156128c457508360200151155b156128d457600019915050611d4a565b8360400151856040015111156128eb579050611d4a565b84604001518460400151111561290f576129078160001961422b565b915050611d4a565b600080808080895151905060208a510194506020895101935060005b8181101561298a57808601519350808501519250828411156129565786975050505050505050611d4a565b838311156129785761296a8760001961422b565b975050505050505050611d4a565b612983602082613c76565b905061292b565b5060009a9950505050505050505050565b47818110156129c1578082604051634787a10360e11b81526004016103e892919061425c565b823f151580611a545760405163064d954b60e41b815260040160405180910390fd5b6060600080806020850185518101906129fc91906142c2565b919450925090506001600160401b038216612a3657805115612a3157604051630e74990760e01b815260040160405180910390fd5b612a99565b6001600160401b03821660511480612a5757506001600160401b0382166071145b15612a7e578051600003612a3157604051630e74990760e01b815260040160405180910390fd5b8160405163f1f6bced60e01b81526004016103e89190613aeb565b8215611eee578260405163d4bb667160e01b81526004016103e89190613547565b6060600080856001600160a01b031685604051612ad791906140b8565b600060405180830381855af49150503d8060008114612b12576040513d603f01601f191681016040523d815291503d6000602084013e612b17565b606091505b5091509150611e4786838387612ece565b600082519050612b388383612b81565b50611a548382612d0f565b6000612b4e82612f15565b15612b5b57506000919050565b600060208301519050612b6d81612f5e565b915060086020845103028201915050919050565b612b89613407565b612b9460208361432c565b15612bbc57612ba460208361432c565b612baf906020613c63565b612bb99083613c76565b91505b602083018290526040518084526000815282810160200181811015612be057600080fd5b604052509192915050565b6103bb8383835b6017816001600160401b031611612c1857611a5460e0600584901b16821784519061223c565b60ff816001600160401b031611612c5957612c406018611fe0600585901b161784519061223c565b50611a546001600160401b03821660018551919061314d565b61ffff816001600160401b031611612c9b57612c826019611fe0600585901b161784519061223c565b50611a546001600160401b03821660028551919061314d565b63ffffffff816001600160401b031611612cdf57612cc6601a611fe0600585901b161784519061223c565b50611a546001600160401b03821660048551919061314d565b612cf6601b611fe0600585901b161784519061223c565b50611a546001600160401b03821660088551919061314d565b612d17613407565b611d4a838384516131c9565b60008160070b12612d3a576103fb82600083612bf2565b6103fb826001612d4c84600019614146565b612bf2565b600080600080612d618686613290565b9050612d6e600186613c76565b94506007600582901c16601f8216601c8110612d9c5760405162461bcd60e51b81526004016103e890614382565b60188160ff161015612dba5790945060ff169250849150612ec79050565b8060ff16601803612e17576000612dd18989613290565b9050612dde600189613c76565b975060188160ff161015612e045760405162461bcd60e51b81526004016103e8906143b5565b9195505060ff169250849150612ec79050565b8060ff16601903612e51576000612e2e89896132de565b9050612e3b600289613c76565b97509195505061ffff169250849150612ec79050565b8060ff16601a03612e8d576000612e68898961331f565b9050612e75600489613c76565b97509195505063ffffffff169250849150612ec79050565b8060ff16601b14612ea057612ea0614215565b6000612eac8989613360565b9050612eb9600889613c76565b975091955090935085925050505b9250925092565b60608315612f0b578251600003612f0457612ee8856118b7565b612f045760405162461bcd60e51b81526004016103e8906143f9565b5081611eee565b611eee83836133a1565b60008060208301815b8451811015612f5357815192508215612f3c57506000949350505050565b602091820191612f4c9082613c76565b9050612f1e565b506001949350505050565b600081156001811461314457600160801b600160401b600160201b620100006101006010600460026000198b019081041790810417908104179081041790810417908104179081041790810417600101926040517ff8f9cbfae6cc78fbefe7cdc3a1793dfcf4f0e8bbd8cec470b6a28a7a5a3e1efd81527ff5ecf1b3e9debc68e1d9cfabc5997135bfb7a7a3938b7b606b5b4b3f2f1f0ffe60208201527ff6e4ed9ff2d6b458eadcdf97bd91692de2d4da8fd2d0ac50c6ae9a827252361660408201527fc8c0b887b0a8a4489c948c7f847c6125746c645c544c444038302820181008ff60608201527ff7cae577eec2a03cf3bad76fb589591debb2dd67e0aa9834bea6925f6a4a2e0e60808201527fe39ed557db96902cd38ed14fad815115c786af479b7e8324736353433727170760a08201527fc976c13bb96e881cb166a933a55e490d9d56952b8d4e801485467d236242260660c08201527f753a6d1b65325d0c552a4d1345224105391a310b29122104190a11030902010060e082015261010081016040527e818283848586878898a8b8c8d8e8f929395969799a9b9d9e9faaeb6bedeeff600160f81b8082880204818160ff0385015104600160ff1b8611610100020196506000198501851661313a576001870196505b5050505050612514565b50600092915050565b613155613407565b6000845151905060006131688285613c76565b905085602001518111156131855761318586612274836002613be7565b6000600161319586610100614517565b61319f9190613c63565b9050865182810187831982511617815281518411156131bc578382525b5096979650505050505050565b6131d1613407565b82518211156131df57600080fd5b6000845151905060006131f28483613c76565b9050856020015181111561320f5761320f86612274836002613be7565b6000808751805185602083010193508085111561322a578482525b505050602086015b6020861061326a5780518252613249602083613c76565b9150613256602082613c76565b9050613263602087613c63565b9550613232565b60001960208790036101000a018019825116818451161790925250959695505050505050565b600061329d826001613c76565b835110156132bd5760405162461bcd60e51b81526004016103e890614551565b8282815181106132cf576132cf6140c4565b602001015160f81c9392505050565b60006132eb826002613c76565b8351101561330b5760405162461bcd60e51b81526004016103e890614551565b60008260200184015160f01c949350505050565b600061332c826004613c76565b8351101561334c5760405162461bcd60e51b81526004016103e890614551565b60008260200184015160e01c949350505050565b600061336d826008613c76565b8351101561338d5760405162461bcd60e51b81526004016103e890614551565b60008260200184015160c01c949350505050565b6000825111156133b45781518083602001fd5b8060405162461bcd60e51b81526004016103e891906137a3565b60405180606001604052806133ed604051602081016040526060815290565b81526020016133fa613407565b8152600060209091015290565b60405160408082019052606081526000602082015290565b604051806060016040528060608152602001600015158152602001600081525090565b6040518060400160405280613455613407565b8152602001600081525090565b6001600160e01b031981165b81146104e057600080fd5b803561038181613462565b60006020828403121561349957613499600080fd5b6000611eee8484613479565b8015155b82525050565b6020810161038182846134a5565b6001600160a01b031690565b60006103816134dd6134da846134bd565b90565b6134bd565b6000610381826134c9565b6000610381826134e2565b6134a9816134ed565b6020810161038182846134f8565b8061346e565b80356103818161350f565b60006020828403121561353557613535600080fd5b6000611eee8484613515565b806134a9565b602081016103818284613541565b6000610381826134bd565b61346e81613555565b803561038181613560565b6000806040838503121561358a5761358a600080fd5b60006135968585613515565b92505060206135a785828601613569565b9150509250929050565b6000602082840312156135c6576135c6600080fd5b6000611eee8484613569565b600080604083850312156135e8576135e8600080fd5b60006135968585613569565b601f01601f191690565b634e487b7160e01b600052604160045260246000fd5b61361d826135f4565b81018181106001600160401b038211171561363a5761363a6135fe565b6040525050565b60006136506000604051905090565b9050611d128282613614565b60006001600160401b03821115613675576136756135fe565b61367e826135f4565b60200192915050565b82818337506000910152565b60006136a66136a18461365c565b613641565b9050828152602081018484840111156136c1576136c1600080fd5b6136cc848285613687565b509392505050565b600082601f8301126136e8576136e8600080fd5b8135611eee848260208601613693565b6000806040838503121561370e5761370e600080fd5b600061371a8585613569565b92505060208301356001600160401b0381111561373957613739600080fd5b6135a7858286016136d4565b60005b83811015613760578082015183820152602001613748565b50506000910152565b6000613779826000815192915050565b808452602084019350613790818560208601613745565b613799816135f4565b9093019392505050565b60208082528101611d4a8184613769565b6001600160401b03811661346e565b8035610381816137b4565b61346e8160070b90565b8035610381816137ce565b600080600080608085870312156137fc576137fc600080fd5b600061380887876137c3565b9450506020613819878288016137c3565b935050604061382a87828801613515565b925050606061383b878288016137d8565b91505092959194509250565b6000806040838503121561385d5761385d600080fd5b600061386985856137c3565b92505060206135a785828601613515565b6134a981613555565b60208101610381828461387a565b602f81526000602082017f416363657373436f6e74726f6c3a2063616e206f6e6c792072656e6f756e636581526e103937b632b9903337b91039b2b63360891b602082015291505b5060400190565b6020808252810161038181613891565b602c815260006020820160008051602061456283398151915281526b19195b1959d85d1958d85b1b60a21b602082015291506138d9565b60208082528101610381816138f0565b602c815260006020820160008051602061456283398151915281526b6163746976652070726f787960a01b602082015291506138d9565b6020808252810161038181613937565b602e81526000602082017f496e697469616c697a61626c653a20636f6e747261637420697320616c72656181526d191e481a5b9a5d1a585b1a5e995960921b602082015291506138d9565b602080825281016103818161397e565b600060ff8216610381565b6134a9816139d9565b6020810161038182846139e4565b603881526000602082017f555550535570677261646561626c653a206d757374206e6f742062652063616c8152771b1959081d1a1c9bdd59da0819195b1959d85d1958d85b1b60421b602082015291506138d9565b60208082528101610381816139fb565b60008151905061038181613560565b600060208284031215613a8457613a84600080fd5b6000611eee8484613a60565b6001600160401b0381166134a9565b6134a98160070b90565b60a08101613ab7828861387a565b613ac46020830187613a90565b613ad16040830186613a90565b613ade6060830185613541565b611e476080830184613a9f565b602081016103818284613a90565b80151561346e565b60008151905061038181613af9565b600081519050610381816137b4565b600081519050610381816137ce565b60008060008060808587031215613b4757613b47600080fd5b6000613b538787613b01565b9450506020613b6487828801613a60565b9350506040613b7587828801613b10565b925050606061383b87828801613b1f565b60408101613b948285613a90565b611d4a602083018461387a565b6000815190506103818161350f565b600060208284031215613bc557613bc5600080fd5b6000611eee8484613ba1565b634e487b7160e01b600052601160045260246000fd5b818102808215838204851417613bff57613bff613bd1565b5092915050565b634e487b7160e01b600052601260045260246000fd5b600082613c2b57613c2b613c06565b500490565b60008060408385031215613c4657613c46600080fd5b6000613c528585613ba1565b92505060206135a785828601613a60565b8181038181111561038157610381613bd1565b8082018082111561038157610381613bd1565b60408101613c97828561387a565b611d4a6020830184613541565b600060208284031215613cb957613cb9600080fd5b6000611eee8484613b01565b60408101613c978285613a90565b60a08101613ce18288613a90565b613cee6020830187613a90565b613cfb6040830186613541565b613d086060830185613541565b611e476080830184613541565b60408101613b948285613541565b60608101613d318286613a90565b613d3e6020830185613a90565b611eee6040830184613541565b602e81526000602082017f45524331393637557067726164653a206e657720696d706c656d656e7461746981526d6f6e206973206e6f74205555505360901b602082015291506138d9565b6020808252810161038181613d4b565b602981526000602082017f45524331393637557067726164653a20756e737570706f727465642070726f788152681a58589b195555525160ba1b602082015291506138d9565b6020808252810161038181613da6565b602b81526000602082017f496e697469616c697a61626c653a20636f6e7472616374206973206e6f74206981526a6e697469616c697a696e6760a81b602082015291506138d9565b6020808252810161038181613dfc565b60008082525b5060010190565b6000613e71826000815192915050565b613e7f818560208601613745565b9290920192915050565b6000613e9482613e54565b9150611d4a8284613e61565b601f81526000602082017f5265656e7472616e637947756172643a207265656e7472616e742063616c6c00815291505b5060200190565b6020808252810161038181613ea0565b6000610381825190565b6000613f01826000815192915050565b60208301613f0e81613ee7565b92506020821015611cf757613f2a600019836020036008021b90565b9092169392505050565b601381526000602082017211551217d514905394d1915497d19052531151606a1b81529150613ed0565b6020808252810161038181613f34565b76020b1b1b2b9b9a1b7b73a3937b61d1030b1b1b7bab73a1604d1b81526017016000613f9a8285613e61565b7001034b99036b4b9b9b4b733903937b6329607d1b81526011019150611eee8284613e61565b602d81526000602082017f455243313936373a206e657720696d706c656d656e746174696f6e206973206e81526c1bdd08184818dbdb9d1c9858dd609a1b602082015291506138d9565b6020808252810161038181613fc0565b60006140268284613541565b50602001919050565b60006001600160401b038216610381565b6134a98161402f565b602081016103818284614040565b60c081016140658289613a90565b6140726020830188613541565b61407f6040830187613a90565b61408c6060830186613a90565b818103608083015261409e8185613769565b90506140ad60a0830184614040565b979650505050505050565b6000611d4a8284613e61565b634e487b7160e01b600052603260045260246000fd5b6000816140e9576140e9613bd1565b506000190190565b60208082527f537472696e67733a20686578206c656e67746820696e73756666696369656e7491019081526000613ed0565b60208082528101610381816140f1565b60006000198203613e5a57613e5a613bd1565b60006141528260070b90565b915061415e8360070b90565b92505081810360016001603f1b0319811260016001603f1b038213171561038157610381613bd1565b600c81526000602082016b24b73b30b634b21021a127a960a11b81529150613ed0565b6020808252810161038181614187565b602e81526000602082017f696e76616c6964206d616a20286578706563746564204d616a546167206f722081526d4d616a42797465537472696e672960901b602082015291506138d9565b60208082528101610381816141ba565b634e487b7160e01b600052600160045260246000fd5b8181028060008312600160ff1b8514161561424857614248613bd1565b8282058414831517613bff57613bff613bd1565b60408101613c978285613541565b60006142786136a18461365c565b90508281526020810184848401111561429357614293600080fd5b6136cc848285613745565b600082601f8301126142b2576142b2600080fd5b8151611eee84826020860161426a565b6000806000606084860312156142da576142da600080fd5b60006142e68686613ba1565b93505060206142f786828701613b10565b92505060408401516001600160401b0381111561431657614316600080fd5b6143228682870161429e565b9150509250925092565b60008261433b5761433b613c06565b500690565b602581526000602082017f63616e6e6f742068616e646c6520686561646572732077697468206578747261815264203e20323760d81b602082015291506138d9565b6020808252810161038181614340565b600c81526000602082016b34b73b30b634b21031b137b960a11b81529150613ed0565b6020808252810161038181614392565b601d81526000602082017f416464726573733a2063616c6c20746f206e6f6e2d636f6e747261637400000081529150613ed0565b60208082528101610381816143c5565b80825b60018511156144485780860481111561442757614427613bd1565b600185161561443557908102905b80026144418560011c90565b945061440c565b94509492505050565b60008261446057506001611d4a565b8161446d57506000611d4a565b8160018114614483576002811461448d576144ba565b6001915050611d4a565b60ff84111561449e5761449e613bd1565b8360020a9150848211156144b4576144b4613bd1565b50611d4a565b5060208310610133831016604e8410600b84101617156144ed575081810a838111156144e8576144e8613bd1565b611d4a565b6144fa8484846001614409565b9250905081840481111561451057614510613bd1565b0292915050565b6000611d4a6000198484614451565b6014815260006020820173736c6963696e67206f7574206f662072616e676560601b81529150613ed0565b602080825281016103818161452656fe46756e6374696f6e206d7573742062652063616c6c6564207468726f75676820360894a13ba1a3210667c828492db98dca3e2076cc3735a920a3ca505d382bbc416464726573733a206c6f772d6c6576656c2064656c65676174652063616c6c206661696c65642174eddbd3dd5d6d1f8771fcfe11e56dde5a1c380f4e4ee908e41262add3ef0ca2646970667358221220c3bc9ab40f238825e49ed600f5fe895be6c157876d3a18b5cb53cf498a8f37d564736f6c63430008110033",
  "devdoc": {
    "kind": "dev",
    "methods": {
      "forwardChangeBeneficiary(uint64,uint64,uint256,int64)": {
        "params": {
          "beneficiaryActorId": "Beneficiary address to be setup (Actor ID)",
          "expiration": "Expiration epoch",
          "minerId": "Miner actor ID",
          "quota": "Total beneficiary quota"
        }
      },
      "getRoleAdmin(bytes32)": {
        "details": "Returns the admin role that controls `role`. See {grantRole} and {revokeRole}. To change a role's admin, use {_setRoleAdmin}."
      },
      "grantRole(bytes32,address)": {
        "details": "Grants `role` to `account`. If `account` had not been already granted `role`, emits a {RoleGranted} event. Requirements: - the caller must have ``role``'s admin role. May emit a {RoleGranted} event."
      },
      "hasRole(bytes32,address)": {
        "details": "Returns `true` if `account` has been granted `role`."
      },
      "initialize(address,address)": {
        "details": "Contract initializer function.",
        "params": {
          "_resolver": "Resolver contract address"
        }
      },
      "proxiableUUID()": {
        "details": "Implementation of the ERC1822 {proxiableUUID} function. This returns the storage slot used by the implementation. It is used to validate the implementation's compatibility when performing an upgrade. IMPORTANT: A proxy pointing at a proxiable contract should not be considered proxiable itself, because this risks bricking a proxy that upgrades to it, by delegating to itself until out of gas. Thus it is critical that this function revert if invoked through a proxy. This is guaranteed by the `notDelegated` modifier."
      },
      "renounceRole(bytes32,address)": {
        "details": "Revokes `role` from the calling account. Roles are often managed via {grantRole} and {revokeRole}: this function's purpose is to provide a mechanism for accounts to lose their privileges if they are compromised (such as when a trusted device is misplaced). If the calling account had been revoked `role`, emits a {RoleRevoked} event. Requirements: - the caller must be `account`. May emit a {RoleRevoked} event."
      },
      "revokeRole(bytes32,address)": {
        "details": "Revokes `role` from `account`. If `account` had been granted `role`, emits a {RoleRevoked} event. Requirements: - the caller must have ``role``'s admin role. May emit a {RoleRevoked} event."
      },
      "supportsInterface(bytes4)": {
        "details": "See {IERC165-supportsInterface}."
      },
      "upgradeTo(address)": {
        "custom:oz-upgrades-unsafe-allow-reachable": "delegatecall",
        "details": "Upgrade the implementation of the proxy to `newImplementation`. Calls {_authorizeUpgrade}. Emits an {Upgraded} event."
      },
      "upgradeToAndCall(address,bytes)": {
        "custom:oz-upgrades-unsafe-allow-reachable": "delegatecall",
        "details": "Upgrade the implementation of the proxy to `newImplementation`, and subsequently execute the function call encoded in `data`. Calls {_authorizeUpgrade}. Emits an {Upgraded} event."
      },
      "withdrawPledge(uint64,uint256)": {
        "details": "Please note that pledge amount withdrawn couldn't exceed used allocation by SP",
        "params": {
          "amount": "Initial pledge amount",
          "minerId": "Storage provider miner ID"
        }
      },
      "withdrawProtocolRewards(uint256)": {
        "params": {
          "_amount": "Withdrawal amount"
        }
      },
      "withdrawRewards(uint64,uint256)": {
        "params": {
          "amount": "Withdrawal amount",
          "minerId": "Storage provider miner ID"
        }
      }
    },
    "title": "RewardCollector contract acts as beneficiary address for storage providers. It allows the protocol to collect fees and distribute them to the Liquid Staking pool",
    "version": 1
  },
  "userdoc": {
    "errors": {
      "ActorError(int256)": [
        {
          "notice": "the called actor returned an error as part of its expected behaviour"
        }
      ],
      "ActorNotFound()": [
        {
          "notice": "the actor is not found"
        }
      ],
      "FailToCallActor()": [
        {
          "notice": "an error happened trying to call the actor"
        }
      ],
      "InvalidActorID(uint64)": [
        {
          "notice": "the provided actor id is not valid"
        }
      ],
      "InvalidCodec(uint64)": [
        {
          "notice": "the codec received is not valid"
        }
      ],
      "InvalidResponseLength()": [
        {
          "notice": "the response received is not correct. In some case no response is expected and we received one, or a response was indeed expected and we received none."
        }
      ],
      "NotEnoughBalance(uint256,uint256)": [
        {
          "notice": "the smart contract has no enough balance to transfer"
        }
      ]
    },
    "events": {
      "BeneficiaryAddressUpdated(address,uint64,uint64,uint256,int64)": {
        "notice": "Emitted when beneficiary address is updated"
      },
      "WithdrawPledge(uint64,uint64,uint256)": {
        "notice": "Emitted when pledge has been withdrawn"
      },
      "WithdrawProtocolRewards(uint256)": {
        "notice": "Emitted when protocol rewards being withdrawn"
      },
      "WithdrawRewards(uint64,uint64,uint256,uint256,uint256)": {
        "notice": "Emitted when rewards has been withdrawn"
      }
    },
    "kind": "user",
    "methods": {
      "forwardChangeBeneficiary(uint64,uint64,uint256,int64)": {
        "notice": "Forwards the changeBeneficiary Miner actor call as Liquid Staking"
      },
      "getImplementation()": {
        "notice": "Returns the implementation contract"
      },
      "version()": {
        "notice": "Returns the version of clFIL token contract"
      },
      "withdrawPledge(uint64,uint256)": {
        "notice": "Withdraw initial pledge from Storage Provider's Miner Actor by `ownerId` This function is triggered when sector is not extended by miner actor and initial pledge unlocked"
      },
      "withdrawProtocolRewards(uint256)": {
        "notice": "Withdraw protocol FIL revenue from the RewardCollector contract to the protocolRewards address"
      },
      "withdrawRewards(uint64,uint256)": {
        "notice": "Withdraw FIL assets from Storage Provider by `minerId` and it's Miner actor and restake `restakeAmount` into the Storage Provider specified f4 address"
      }
    },
    "version": 1
  },
  "storageLayout": {
    "storage": [
      {
        "astId": 16433,
        "contract": "contracts/RewardCollector.sol:RewardCollector",
        "label": "_initialized",
        "offset": 0,
        "slot": "0",
        "type": "t_uint8"
      },
      {
        "astId": 16436,
        "contract": "contracts/RewardCollector.sol:RewardCollector",
        "label": "_initializing",
        "offset": 1,
        "slot": "0",
        "type": "t_bool"
      },
      {
        "astId": 16745,
        "contract": "contracts/RewardCollector.sol:RewardCollector",
        "label": "_status",
        "offset": 0,
        "slot": "1",
        "type": "t_uint256"
      },
      {
        "astId": 16814,
        "contract": "contracts/RewardCollector.sol:RewardCollector",
        "label": "__gap",
        "offset": 0,
        "slot": "2",
        "type": "t_array(t_uint256)49_storage"
      },
      {
        "astId": 18313,
        "contract": "contracts/RewardCollector.sol:RewardCollector",
        "label": "__gap",
        "offset": 0,
        "slot": "51",
        "type": "t_array(t_uint256)50_storage"
      },
      {
        "astId": 18696,
        "contract": "contracts/RewardCollector.sol:RewardCollector",
        "label": "__gap",
        "offset": 0,
        "slot": "101",
        "type": "t_array(t_uint256)50_storage"
      },
      {
        "astId": 15392,
        "contract": "contracts/RewardCollector.sol:RewardCollector",
        "label": "_roles",
        "offset": 0,
        "slot": "151",
        "type": "t_mapping(t_bytes32,t_struct(RoleData)15387_storage)"
      },
      {
        "astId": 15687,
        "contract": "contracts/RewardCollector.sol:RewardCollector",
        "label": "__gap",
        "offset": 0,
        "slot": "152",
        "type": "t_array(t_uint256)49_storage"
      },
      {
        "astId": 16415,
        "contract": "contracts/RewardCollector.sol:RewardCollector",
        "label": "__gap",
        "offset": 0,
        "slot": "201",
        "type": "t_array(t_uint256)50_storage"
      },
      {
        "astId": 16730,
        "contract": "contracts/RewardCollector.sol:RewardCollector",
        "label": "__gap",
        "offset": 0,
        "slot": "251",
        "type": "t_array(t_uint256)50_storage"
      },
      {
        "astId": 1719,
        "contract": "contracts/RewardCollector.sol:RewardCollector",
        "label": "resolver",
        "offset": 0,
        "slot": "301",
        "type": "t_contract(IResolverClient)6057"
      },
      {
        "astId": 1722,
        "contract": "contracts/RewardCollector.sol:RewardCollector",
        "label": "WFIL",
        "offset": 0,
        "slot": "302",
        "type": "t_contract(IWFIL)8450"
      }
    ],
    "types": {
      "t_address": {
        "encoding": "inplace",
        "label": "address",
        "numberOfBytes": "20"
      },
      "t_array(t_uint256)49_storage": {
        "base": "t_uint256",
        "encoding": "inplace",
        "label": "uint256[49]",
        "numberOfBytes": "1568"
      },
      "t_array(t_uint256)50_storage": {
        "base": "t_uint256",
        "encoding": "inplace",
        "label": "uint256[50]",
        "numberOfBytes": "1600"
      },
      "t_bool": {
        "encoding": "inplace",
        "label": "bool",
        "numberOfBytes": "1"
      },
      "t_bytes32": {
        "encoding": "inplace",
        "label": "bytes32",
        "numberOfBytes": "32"
      },
      "t_contract(IResolverClient)6057": {
        "encoding": "inplace",
        "label": "contract IResolverClient",
        "numberOfBytes": "20"
      },
      "t_contract(IWFIL)8450": {
        "encoding": "inplace",
        "label": "contract IWFIL",
        "numberOfBytes": "20"
      },
      "t_mapping(t_address,t_bool)": {
        "encoding": "mapping",
        "key": "t_address",
        "label": "mapping(address => bool)",
        "numberOfBytes": "32",
        "value": "t_bool"
      },
      "t_mapping(t_bytes32,t_struct(RoleData)15387_storage)": {
        "encoding": "mapping",
        "key": "t_bytes32",
        "label": "mapping(bytes32 => struct AccessControlUpgradeable.RoleData)",
        "numberOfBytes": "32",
        "value": "t_struct(RoleData)15387_storage"
      },
      "t_struct(RoleData)15387_storage": {
        "encoding": "inplace",
        "label": "struct AccessControlUpgradeable.RoleData",
        "members": [
          {
            "astId": 15384,
            "contract": "contracts/RewardCollector.sol:RewardCollector",
            "label": "members",
            "offset": 0,
            "slot": "0",
            "type": "t_mapping(t_address,t_bool)"
          },
          {
            "astId": 15386,
            "contract": "contracts/RewardCollector.sol:RewardCollector",
            "label": "adminRole",
            "offset": 0,
            "slot": "1",
            "type": "t_bytes32"
          }
        ],
        "numberOfBytes": "64"
      },
      "t_uint256": {
        "encoding": "inplace",
        "label": "uint256",
        "numberOfBytes": "32"
      },
      "t_uint8": {
        "encoding": "inplace",
        "label": "uint8",
        "numberOfBytes": "1"
      }
    }
  }
}