{
  "address": "0x3D52874772C66466c93E36cc3782946fd0FA7666",
  "abi": [
    {
      "inputs": [],
      "name": "AllocationOverflow",
      "type": "error"
    },
    {
      "inputs": [],
      "name": "InactiveActor",
      "type": "error"
    },
    {
      "inputs": [],
      "name": "InactivePool",
      "type": "error"
    },
    {
      "inputs": [],
      "name": "InactiveSP",
      "type": "error"
    },
    {
      "inputs": [],
      "name": "InactiveSlashing",
      "type": "error"
    },
    {
      "inputs": [],
      "name": "InsufficientCollateral",
      "type": "error"
    },
    {
      "inputs": [],
      "name": "InsufficientFunds",
      "type": "error"
    },
    {
      "inputs": [],
      "name": "InvalidAccess",
      "type": "error"
    },
    {
      "inputs": [],
      "name": "InvalidOwner",
      "type": "error"
    },
    {
      "inputs": [],
      "name": "InvalidParams",
      "type": "error"
    },
    {
      "anonymous": false,
      "inputs": [
        {
          "indexed": false,
          "internalType": "address",
          "name": "previousAdmin",
          "type": "address"
        },
        {
          "indexed": false,
          "internalType": "address",
          "name": "newAdmin",
          "type": "address"
        }
      ],
      "name": "AdminChanged",
      "type": "event"
    },
    {
      "anonymous": false,
      "inputs": [
        {
          "indexed": true,
          "internalType": "address",
          "name": "beacon",
          "type": "address"
        }
      ],
      "name": "BeaconUpgraded",
      "type": "event"
    },
    {
      "anonymous": false,
      "inputs": [
        {
          "indexed": false,
          "internalType": "uint8",
          "name": "version",
          "type": "uint8"
        }
      ],
      "name": "Initialized",
      "type": "event"
    },
    {
      "anonymous": false,
      "inputs": [
        {
          "indexed": false,
          "internalType": "uint64",
          "name": "ownerId",
          "type": "uint64"
        }
      ],
      "name": "ReportRecovery",
      "type": "event"
    },
    {
      "anonymous": false,
      "inputs": [
        {
          "indexed": false,
          "internalType": "uint64",
          "name": "ownerId",
          "type": "uint64"
        },
        {
          "indexed": false,
          "internalType": "uint256",
          "name": "slashingAmount",
          "type": "uint256"
        }
      ],
      "name": "ReportSlashing",
      "type": "event"
    },
    {
      "anonymous": false,
      "inputs": [
        {
          "indexed": true,
          "internalType": "bytes32",
          "name": "role",
          "type": "bytes32"
        },
        {
          "indexed": true,
          "internalType": "bytes32",
          "name": "previousAdminRole",
          "type": "bytes32"
        },
        {
          "indexed": true,
          "internalType": "bytes32",
          "name": "newAdminRole",
          "type": "bytes32"
        }
      ],
      "name": "RoleAdminChanged",
      "type": "event"
    },
    {
      "anonymous": false,
      "inputs": [
        {
          "indexed": true,
          "internalType": "bytes32",
          "name": "role",
          "type": "bytes32"
        },
        {
          "indexed": true,
          "internalType": "address",
          "name": "account",
          "type": "address"
        },
        {
          "indexed": true,
          "internalType": "address",
          "name": "sender",
          "type": "address"
        }
      ],
      "name": "RoleGranted",
      "type": "event"
    },
    {
      "anonymous": false,
      "inputs": [
        {
          "indexed": true,
          "internalType": "bytes32",
          "name": "role",
          "type": "bytes32"
        },
        {
          "indexed": true,
          "internalType": "address",
          "name": "account",
          "type": "address"
        },
        {
          "indexed": true,
          "internalType": "address",
          "name": "sender",
          "type": "address"
        }
      ],
      "name": "RoleRevoked",
      "type": "event"
    },
    {
      "anonymous": false,
      "inputs": [
        {
          "indexed": false,
          "internalType": "address",
          "name": "registry",
          "type": "address"
        }
      ],
      "name": "SetRegistryAddress",
      "type": "event"
    },
    {
      "anonymous": false,
      "inputs": [
        {
          "indexed": false,
          "internalType": "uint64",
          "name": "_ownerId",
          "type": "uint64"
        },
        {
          "indexed": false,
          "internalType": "uint256",
          "name": "amount",
          "type": "uint256"
        }
      ],
      "name": "StorageProviderCollateralDeposit",
      "type": "event"
    },
    {
      "anonymous": false,
      "inputs": [
        {
          "indexed": false,
          "internalType": "uint64",
          "name": "_ownerId",
          "type": "uint64"
        },
        {
          "indexed": false,
          "internalType": "uint256",
          "name": "lockedCollateral",
          "type": "uint256"
        },
        {
          "indexed": false,
          "internalType": "uint256",
          "name": "availableCollateral",
          "type": "uint256"
        },
        {
          "indexed": false,
          "internalType": "bool",
          "name": "isUnlock",
          "type": "bool"
        }
      ],
      "name": "StorageProviderCollateralRebalance",
      "type": "event"
    },
    {
      "anonymous": false,
      "inputs": [
        {
          "indexed": false,
          "internalType": "uint64",
          "name": "_ownerId",
          "type": "uint64"
        },
        {
          "indexed": false,
          "internalType": "uint256",
          "name": "slashingAmt",
          "type": "uint256"
        },
        {
          "indexed": false,
          "internalType": "address",
          "name": "pool",
          "type": "address"
        }
      ],
      "name": "StorageProviderCollateralSlash",
      "type": "event"
    },
    {
      "anonymous": false,
      "inputs": [
        {
          "indexed": false,
          "internalType": "uint64",
          "name": "_ownerId",
          "type": "uint64"
        },
        {
          "indexed": false,
          "internalType": "uint256",
          "name": "prevRequirements",
          "type": "uint256"
        },
        {
          "indexed": false,
          "internalType": "uint256",
          "name": "requirements",
          "type": "uint256"
        }
      ],
      "name": "StorageProviderCollateralUpdate",
      "type": "event"
    },
    {
      "anonymous": false,
      "inputs": [
        {
          "indexed": false,
          "internalType": "uint64",
          "name": "_ownerId",
          "type": "uint64"
        },
        {
          "indexed": false,
          "internalType": "uint256",
          "name": "amount",
          "type": "uint256"
        }
      ],
      "name": "StorageProviderCollateralWithdraw",
      "type": "event"
    },
    {
      "anonymous": false,
      "inputs": [
        {
          "indexed": false,
          "internalType": "uint256",
          "name": "baseCollateralRequirements",
          "type": "uint256"
        }
      ],
      "name": "UpdateBaseCollateralRequirements",
      "type": "event"
    },
    {
      "anonymous": false,
      "inputs": [
        {
          "indexed": true,
          "internalType": "address",
          "name": "implementation",
          "type": "address"
        }
      ],
      "name": "Upgraded",
      "type": "event"
    },
    {
      "stateMutability": "payable",
      "type": "fallback"
    },
    {
      "inputs": [],
      "name": "DEFAULT_ADMIN_ROLE",
      "outputs": [
        {
          "internalType": "bytes32",
          "name": "",
          "type": "bytes32"
        }
      ],
      "stateMutability": "view",
      "type": "function"
    },
    {
      "inputs": [],
      "name": "WFIL",
      "outputs": [
        {
          "internalType": "contract IWFIL",
          "name": "",
          "type": "address"
        }
      ],
      "stateMutability": "view",
      "type": "function"
    },
    {
      "inputs": [
        {
          "internalType": "uint64",
          "name": "",
          "type": "uint64"
        }
      ],
      "name": "activeSlashings",
      "outputs": [
        {
          "internalType": "bool",
          "name": "",
          "type": "bool"
        }
      ],
      "stateMutability": "view",
      "type": "function"
    },
    {
      "inputs": [],
      "name": "baseRequirements",
      "outputs": [
        {
          "internalType": "uint256",
          "name": "",
          "type": "uint256"
        }
      ],
      "stateMutability": "view",
      "type": "function"
    },
    {
      "inputs": [
        {
          "internalType": "uint64",
          "name": "",
          "type": "uint64"
        }
      ],
      "name": "collateralRequirements",
      "outputs": [
        {
          "internalType": "uint256",
          "name": "",
          "type": "uint256"
        }
      ],
      "stateMutability": "view",
      "type": "function"
    },
    {
      "inputs": [
        {
          "internalType": "uint64",
          "name": "",
          "type": "uint64"
        }
      ],
      "name": "collaterals",
      "outputs": [
        {
          "internalType": "uint256",
          "name": "availableCollateral",
          "type": "uint256"
        },
        {
          "internalType": "uint256",
          "name": "lockedCollateral",
          "type": "uint256"
        }
      ],
      "stateMutability": "view",
      "type": "function"
    },
    {
      "inputs": [],
      "name": "deposit",
      "outputs": [],
      "stateMutability": "payable",
      "type": "function"
    },
    {
      "inputs": [
        {
          "internalType": "uint64",
          "name": "_ownerId",
          "type": "uint64"
        }
      ],
      "name": "fit",
      "outputs": [],
      "stateMutability": "nonpayable",
      "type": "function"
    },
    {
      "inputs": [
        {
          "internalType": "uint64",
          "name": "_ownerId",
          "type": "uint64"
        }
      ],
      "name": "getAvailableCollateral",
      "outputs": [
        {
          "internalType": "uint256",
          "name": "",
          "type": "uint256"
        }
      ],
      "stateMutability": "view",
      "type": "function"
    },
    {
      "inputs": [
        {
          "internalType": "uint64",
          "name": "_ownerId",
          "type": "uint64"
        }
      ],
      "name": "getCollateral",
      "outputs": [
        {
          "internalType": "uint256",
          "name": "",
          "type": "uint256"
        },
        {
          "internalType": "uint256",
          "name": "",
          "type": "uint256"
        }
      ],
      "stateMutability": "view",
      "type": "function"
    },
    {
      "inputs": [
        {
          "internalType": "uint64",
          "name": "_ownerId",
          "type": "uint64"
        }
      ],
      "name": "getCollateralRequirements",
      "outputs": [
        {
          "internalType": "uint256",
          "name": "",
          "type": "uint256"
        }
      ],
      "stateMutability": "view",
      "type": "function"
    },
    {
      "inputs": [
        {
          "internalType": "uint64",
          "name": "_ownerId",
          "type": "uint64"
        }
      ],
      "name": "getDebt",
      "outputs": [
        {
          "internalType": "uint256",
          "name": "",
          "type": "uint256"
        }
      ],
      "stateMutability": "nonpayable",
      "type": "function"
    },
    {
      "inputs": [],
      "name": "getImplementation",
      "outputs": [
        {
          "internalType": "address",
          "name": "",
          "type": "address"
        }
      ],
      "stateMutability": "view",
      "type": "function"
    },
    {
      "inputs": [
        {
          "internalType": "uint64",
          "name": "_ownerId",
          "type": "uint64"
        }
      ],
      "name": "getLockedCollateral",
      "outputs": [
        {
          "internalType": "uint256",
          "name": "",
          "type": "uint256"
        }
      ],
      "stateMutability": "view",
      "type": "function"
    },
    {
      "inputs": [
        {
          "internalType": "bytes32",
          "name": "role",
          "type": "bytes32"
        }
      ],
      "name": "getRoleAdmin",
      "outputs": [
        {
          "internalType": "bytes32",
          "name": "",
          "type": "bytes32"
        }
      ],
      "stateMutability": "view",
      "type": "function"
    },
    {
      "inputs": [
        {
          "internalType": "bytes32",
          "name": "role",
          "type": "bytes32"
        },
        {
          "internalType": "address",
          "name": "account",
          "type": "address"
        }
      ],
      "name": "grantRole",
      "outputs": [],
      "stateMutability": "nonpayable",
      "type": "function"
    },
    {
      "inputs": [
        {
          "internalType": "bytes32",
          "name": "role",
          "type": "bytes32"
        },
        {
          "internalType": "address",
          "name": "account",
          "type": "address"
        }
      ],
      "name": "hasRole",
      "outputs": [
        {
          "internalType": "bool",
          "name": "",
          "type": "bool"
        }
      ],
      "stateMutability": "view",
      "type": "function"
    },
    {
      "inputs": [
        {
          "internalType": "contract IWFIL",
          "name": "_wFIL",
          "type": "address"
        },
        {
          "internalType": "address",
          "name": "_resolver",
          "type": "address"
        },
        {
          "internalType": "uint256",
          "name": "_baseRequirements",
          "type": "uint256"
        }
      ],
      "name": "initialize",
      "outputs": [],
      "stateMutability": "nonpayable",
      "type": "function"
    },
    {
      "inputs": [
        {
          "internalType": "uint64",
          "name": "_ownerId",
          "type": "uint64"
        },
        {
          "internalType": "uint64",
          "name": "_minerId",
          "type": "uint64"
        },
        {
          "internalType": "uint256",
          "name": "_allocated",
          "type": "uint256"
        }
      ],
      "name": "lock",
      "outputs": [],
      "stateMutability": "nonpayable",
      "type": "function"
    },
    {
      "inputs": [],
      "name": "proxiableUUID",
      "outputs": [
        {
          "internalType": "bytes32",
          "name": "",
          "type": "bytes32"
        }
      ],
      "stateMutability": "view",
      "type": "function"
    },
    {
      "inputs": [
        {
          "internalType": "bytes32",
          "name": "role",
          "type": "bytes32"
        },
        {
          "internalType": "address",
          "name": "account",
          "type": "address"
        }
      ],
      "name": "renounceRole",
      "outputs": [],
      "stateMutability": "nonpayable",
      "type": "function"
    },
    {
      "inputs": [
        {
          "internalType": "uint64",
          "name": "_ownerId",
          "type": "uint64"
        }
      ],
      "name": "reportRecovery",
      "outputs": [],
      "stateMutability": "nonpayable",
      "type": "function"
    },
    {
      "inputs": [
        {
          "internalType": "uint64",
          "name": "_ownerId",
          "type": "uint64"
        },
        {
          "internalType": "uint256",
          "name": "_slashingAmt",
          "type": "uint256"
        }
      ],
      "name": "reportSlashing",
      "outputs": [],
      "stateMutability": "nonpayable",
      "type": "function"
    },
    {
      "inputs": [
        {
          "internalType": "bytes32",
          "name": "role",
          "type": "bytes32"
        },
        {
          "internalType": "address",
          "name": "account",
          "type": "address"
        }
      ],
      "name": "revokeRole",
      "outputs": [],
      "stateMutability": "nonpayable",
      "type": "function"
    },
    {
      "inputs": [
        {
          "internalType": "uint64",
          "name": "",
          "type": "uint64"
        }
      ],
      "name": "slashings",
      "outputs": [
        {
          "internalType": "uint256",
          "name": "",
          "type": "uint256"
        }
      ],
      "stateMutability": "view",
      "type": "function"
    },
    {
      "inputs": [
        {
          "internalType": "bytes4",
          "name": "interfaceId",
          "type": "bytes4"
        }
      ],
      "name": "supportsInterface",
      "outputs": [
        {
          "internalType": "bool",
          "name": "",
          "type": "bool"
        }
      ],
      "stateMutability": "view",
      "type": "function"
    },
    {
      "inputs": [
        {
          "internalType": "uint256",
          "name": "requirements",
          "type": "uint256"
        }
      ],
      "name": "updateBaseCollateralRequirements",
      "outputs": [],
      "stateMutability": "nonpayable",
      "type": "function"
    },
    {
      "inputs": [
        {
          "internalType": "uint64",
          "name": "_ownerId",
          "type": "uint64"
        },
        {
          "internalType": "uint256",
          "name": "requirements",
          "type": "uint256"
        }
      ],
      "name": "updateCollateralRequirements",
      "outputs": [],
      "stateMutability": "nonpayable",
      "type": "function"
    },
    {
      "inputs": [
        {
          "internalType": "address",
          "name": "newImplementation",
          "type": "address"
        }
      ],
      "name": "upgradeTo",
      "outputs": [],
      "stateMutability": "nonpayable",
      "type": "function"
    },
    {
      "inputs": [
        {
          "internalType": "address",
          "name": "newImplementation",
          "type": "address"
        },
        {
          "internalType": "bytes",
          "name": "data",
          "type": "bytes"
        }
      ],
      "name": "upgradeToAndCall",
      "outputs": [],
      "stateMutability": "payable",
      "type": "function"
    },
    {
      "inputs": [],
      "name": "version",
      "outputs": [
        {
          "internalType": "string",
          "name": "",
          "type": "string"
        }
      ],
      "stateMutability": "pure",
      "type": "function"
    },
    {
      "inputs": [
        {
          "internalType": "uint256",
          "name": "_amount",
          "type": "uint256"
        }
      ],
      "name": "withdraw",
      "outputs": [],
      "stateMutability": "nonpayable",
      "type": "function"
    },
    {
      "stateMutability": "payable",
      "type": "receive"
    }
  ],
  "numDeployments": 1,
  "solcInputHash": "05b76b7a0e8a6fda74467c296a8f93e8",
  "bytecode": "0x60a06040523060805234801561001457600080fd5b5060805161371c61004c6000396000818161107f015281816110bf015281816111440152818161118401526111fc015261371c6000f3fe6080604052600436106101745760003560e01c806301ffc9a71461017d57806309448a86146101b35780631794bb3c146101e15780631917a6a714610201578063241c054a14610221578063248a9ca3146102415780632e1a7d4d1461026e5780632f2ff15d1461028e578063335f1839146102ae57806336568abe146102ce5780633659cfe6146102ee5780634184acd51461030e57806344324a791461033c5780634eaf14a61461036d5780634f1ef286146103cf57806352d1902d146103e257806354fd4d50146103f75780636ef2dafc14610428578063717e9d26146104625780637efedebe146104995780638199b668146104ce57806391d14854146104e5578063a217fddf14610505578063aaf10f421461051a578063bea914e51461053c578063c7d3ebf81461055c578063c8025dda1461057c578063ce0961101461059c578063d0e30db0146105ca578063d547741f146105d2578063e460512e146105f2578063eeb77ba81461062957005b3661017b57005b005b34801561018957600080fd5b5061019d610198366004612a9c565b610649565b6040516101aa9190612ac7565b60405180910390f35b3480156101bf57600080fd5b50610133546101d4906001600160a01b031681565b6040516101aa9190612b19565b3480156101ed57600080fd5b5061017b6101fc366004612b76565b610680565b34801561020d57600080fd5b5061017b61021c366004612be0565b610843565b34801561022d57600080fd5b5061017b61023c366004612c01565b610a0f565b34801561024d57600080fd5b5061026161025c366004612c36565b610c96565b6040516101aa9190612c5d565b34801561027a57600080fd5b5061017b610289366004612c36565b610cab565b34801561029a57600080fd5b5061017b6102a9366004612c6b565b610e6f565b3480156102ba57600080fd5b5061017b6102c9366004612ca8565b610e90565b3480156102da57600080fd5b5061017b6102e9366004612c6b565b611043565b3480156102fa57600080fd5b5061017b610309366004612cdb565b611075565b34801561031a57600080fd5b50610261610329366004612be0565b61012e6020526000908152604090205481565b34801561034857600080fd5b5061019d610357366004612be0565b6101306020526000908152604090205460ff1681565b34801561037957600080fd5b506103c1610388366004612be0565b6001600160401b0316600090815261012d6020908152604091829020825180840190935280548084526001909101549290910182905291565b6040516101aa929190612cfc565b61017b6103dd366004612e1c565b61113a565b3480156103ee57600080fd5b506102616111ef565b34801561040357600080fd5b506040805180820182526002815261763160f01b602082015290516101aa9190612ec1565b34801561043457600080fd5b50610261610443366004612be0565b6001600160401b0316600090815261012d602052604090206001015490565b34801561046e57600080fd5b5061026161047d366004612be0565b6001600160401b0316600090815261012f602052604090205490565b3480156104a557600080fd5b506103c16104b4366004612be0565b61012d602052600090815260409020805460019091015482565b3480156104da57600080fd5b506102616101315481565b3480156104f157600080fd5b5061019d610500366004612c6b565b61124c565b34801561051157600080fd5b50610261600081565b34801561052657600080fd5b5061052f611277565b6040516101aa9190612edb565b34801561054857600080fd5b5061017b610557366004612be0565b611286565b34801561056857600080fd5b5061017b610577366004612c36565b61133a565b34801561058857600080fd5b50610261610597366004612be0565b6113d2565b3480156105a857600080fd5b506102616105b7366004612be0565b61012f6020526000908152604090205481565b61017b61154d565b3480156105de57600080fd5b5061017b6105ed366004612c6b565b61168e565b3480156105fe57600080fd5b5061026161060d366004612be0565b6001600160401b0316600090815261012d602052604090205490565b34801561063557600080fd5b5061017b610644366004612ca8565b6116aa565b60006001600160e01b03198216637965db0b60e01b148061067a57506301ffc9a760e01b6001600160e01b03198316145b92915050565b600054610100900460ff16158080156106a05750600054600160ff909116105b806106c157506106af306118f3565b1580156106c1575060005460ff166001145b6106e65760405162461bcd60e51b81526004016106dd90612f37565b60405180910390fd5b6000805460ff191660011790558015610709576000805461ff0019166101001790555b610711611902565b610719611929565b610721611902565b61013380546001600160a01b038087166001600160a01b031992831617909255610132805492861692909116919091179055811580610761575061271082115b1561077f57604051635435b28960e11b815260040160405180910390fd5b610131829055610790600033611958565b6107a96000805160206136008339815191526000611962565b6107c160008051602061360083398151915233610e6f565b6107d96000805160206136a783398151915233610e6f565b6107f26000805160206136a78339815191526000611962565b801561083d576000805461ff00191690556040517f7f26b83ff96e1f2b6a682f133852f6798a09c465da95921460cefb38474024989061083490600190612f5b565b60405180910390a15b50505050565b61085b6000805160206136a78339815191523361124c565b61087857604051633006171960e21b815260040160405180910390fd5b6001600160401b0381166000908152610130602052604090205460ff166108b2576040516322f0076960e21b815260040160405180910390fd5b61013260009054906101000a90046001600160a01b03166001600160a01b0316635ab1bd536040518163ffffffff1660e01b8152600401602060405180830381865afa158015610906573d6000803e3d6000fd5b505050506040513d601f19601f8201168201806040525081019061092a9190612f74565b6001600160a01b03166315b2f22f826040518263ffffffff1660e01b81526004016109559190612fa4565b602060405180830381865afa158015610972573d6000803e3d6000fd5b505050506040513d601f19601f820116820180604052508101906109969190612fc5565b6109b3576040516349e27cff60e01b815260040160405180910390fd5b6001600160401b0381166000908152610130602052604090819020805460ff19169055517f4ae1ac1eeb2bb87a829856665535c45f6381998822857dde5d4573a1b4a4a9c190610a04908390612fa4565b60405180910390a150565b6101325460408051635ab1bd5360e01b8152905184926001600160a01b031691635ab1bd539160048083019260209291908290030181865afa158015610a59573d6000803e3d6000fd5b505050506040513d601f19601f82011682018060405250810190610a7d9190612f74565b6001600160a01b031663154caabb826040518263ffffffff1660e01b8152600401610aa89190612fa4565b602060405180830381865afa158015610ac5573d6000803e3d6000fd5b505050506040513d601f19601f82011682018060405250810190610ae99190612fc5565b610b06576040516363b397b960e01b815260040160405180910390fd5b6101325460408051635ab1bd5360e01b815290516000926001600160a01b031691635ab1bd539160048083019260209291908290030181865afa158015610b51573d6000803e3d6000fd5b505050506040513d601f19601f82011682018060405250810190610b759190612f74565b604051638097354f60e01b81529091506001600160a01b03821690638097354f90610ba4903390600401612edb565b602060405180830381865afa158015610bc1573d6000803e3d6000fd5b505050506040513d601f19601f82011682018060405250810190610be59190612fc5565b610c0257604051633006171960e21b815260040160405180910390fd5b82600003610c2357604051635435b28960e11b815260040160405180910390fd5b610c2d85846119b5565b604051634978e4b760e01b81526001600160a01b03821690634978e4b790610c5d90879087904290600401612fe6565b600060405180830381600087803b158015610c7757600080fd5b505af1158015610c8b573d6000803e3d6000fd5b505050505050505050565b60009081526065602052604090206001015490565b610cb3611c2c565b80600003610cd457604051635435b28960e11b815260040160405180910390fd5b6000610cdf33611c55565b9050600080610cf6836001600160a01b0316611c9c565b9150915081610d175760405162f08f6760e71b815260040160405180910390fd5b6000806000610d2584611d0d565b919450925090506000610d388385613024565b90506000818911610d495788610d4b565b815b905060008315610dd657610d5f8683613037565b6001600160401b038816600090815261012d6020526040902060010154909150610d8a908790613037565b6001600160401b038816600090815261012d60205260409020600181019190915554610db7908290613037565b6001600160401b038816600090815261012d6020526040902055610e16565b6001600160401b038716600090815261012d6020526040902054610dfb908390613037565b6001600160401b038816600090815261012d60205260409020555b610e203383611f05565b7fe4b3039f013ad4f4d16ea3537d0ee0ae75dad7fb7c97f1ff24fd9f10bd85b89b8783604051610e5192919061304a565b60405180910390a1505050505050505050610e6c6001609755565b50565b610e7882610c96565b610e818161201f565b610e8b8383612029565b505050565b61013260009054906101000a90046001600160a01b03166001600160a01b0316635ab1bd536040518163ffffffff1660e01b8152600401602060405180830381865afa158015610ee4573d6000803e3d6000fd5b505050506040513d601f19601f82011682018060405250810190610f089190612f74565b6001600160a01b0316336001600160a01b031614158015610f3e5750610f3c6000805160206136008339815191523361124c565b155b15610f5c57604051633006171960e21b815260040160405180910390fd5b80600003610fb057610131546001600160401b038316600090815261012f6020526040808220839055516000805160206136c783398151915292610fa492869290919061306d565b60405180910390a15050565b6001600160401b038216600090815261012f6020526040902054612710821180610fd957508082145b15610ff757604051635435b28960e11b815260040160405180910390fd5b6001600160401b038316600090815261012f602052604090819020839055516000805160206136c78339815191529061103590859084908690612fe6565b60405180910390a1505b5050565b6001600160a01b038116331461106b5760405162461bcd60e51b81526004016106dd906130d4565b61103f82826120af565b6001600160a01b037f00000000000000000000000000000000000000000000000000000000000000001630036110bd5760405162461bcd60e51b81526004016106dd9061311b565b7f00000000000000000000000000000000000000000000000000000000000000006001600160a01b03166110ef612116565b6001600160a01b0316146111155760405162461bcd60e51b81526004016106dd90613162565b61111e81612132565b60408051600080825260208201909252610e6c91839190612167565b6001600160a01b037f00000000000000000000000000000000000000000000000000000000000000001630036111825760405162461bcd60e51b81526004016106dd9061311b565b7f00000000000000000000000000000000000000000000000000000000000000006001600160a01b03166111b4612116565b6001600160a01b0316146111da5760405162461bcd60e51b81526004016106dd90613162565b6111e382612132565b61103f82826001612167565b6000306001600160a01b037f000000000000000000000000000000000000000000000000000000000000000016146112395760405162461bcd60e51b81526004016106dd906131c7565b5060008051602061364083398151915290565b60009182526065602090815260408084206001600160a01b0393909316845291905290205460ff1690565b6000611281612116565b905090565b61013260009054906101000a90046001600160a01b03166001600160a01b031663e1dda2a96040518163ffffffff1660e01b8152600401602060405180830381865afa1580156112da573d6000803e3d6000fd5b505050506040513d601f19601f820116820180604052508101906112fe9190612f74565b6001600160a01b0316336001600160a01b03161461132f57604051633006171960e21b815260040160405180910390fd5b610e6c8160006119b5565b6113526000805160206136008339815191523361124c565b61136f57604051633006171960e21b815260040160405180910390fd5b80158061137e57506101315481145b1561139c57604051635435b28960e11b815260040160405180910390fd5b6101318190556040517fe49b6558d30d6f2b9c3bb53bb6bedb636cf1dd53419057f0ab65812a7739639e90610a04908390612c5d565b600080600061013260009054906101000a90046001600160a01b03166001600160a01b0316635ab1bd536040518163ffffffff1660e01b8152600401602060405180830381865afa15801561142b573d6000803e3d6000fd5b505050506040513d601f19601f8201168201806040525081019061144f9190612f74565b6001600160a01b03166316e71d49856040518263ffffffff1660e01b815260040161147a9190612fa4565b60408051808303816000875af1158015611498573d6000803e3d6000fd5b505050506040513d601f19601f820116820180604052508101906114bc91906131e2565b6001600160401b038616600090815261012f60205260408120549294509092506114e884848385612249565b6001600160401b038716600090815261012d60209081526040808320815180830190925280548252600101549181018290529293508190611529908561229f565b915091508061153e5750979650505050505050565b50600098975050505050505050565b611555611c2c565b34600081900361157857604051635435b28960e11b815260040160405180910390fd5b600061158333611c55565b905060008061159a836001600160a01b0316611c9c565b91509150816115bb5760405162f08f6760e71b815260040160405180910390fd5b6001600160401b038116600090815261012d6020526040902080546115e1908690613024565b81556101335460408051630d0e30db60e41b815290516001600160a01b039092169163d0e30db0918891600480830192600092919082900301818588803b15801561162b57600080fd5b505af115801561163f573d6000803e3d6000fd5b50505050507f73dee9c602a838e7139b8ea81aab0fa49d1da28733bb0481f9ea4b512bdfda7d828660405161167592919061304a565b60405180910390a1505050505061168c6001609755565b565b61169782610c96565b6116a08161201f565b610e8b83836120af565b6116b2611c2c565b6116ca6000805160206136a78339815191523361124c565b6116e757604051633006171960e21b815260040160405180910390fd5b8060000361170857604051635435b28960e11b815260040160405180910390fd5b61013260009054906101000a90046001600160a01b03166001600160a01b0316635ab1bd536040518163ffffffff1660e01b8152600401602060405180830381865afa15801561175c573d6000803e3d6000fd5b505050506040513d601f19601f820116820180604052508101906117809190612f74565b6001600160a01b03166315b2f22f836040518263ffffffff1660e01b81526004016117ab9190612fa4565b602060405180830381865afa1580156117c8573d6000803e3d6000fd5b505050506040513d601f19601f820116820180604052508101906117ec9190612fc5565b611809576040516349e27cff60e01b815260040160405180910390fd5b61188b828261013260009054906101000a90046001600160a01b03166001600160a01b0316630ee0deba6040518163ffffffff1660e01b8152600401602060405180830381865afa158015611862573d6000803e3d6000fd5b505050506040513d601f19601f820116820180604052508101906118869190612f74565b612334565b6001600160401b0382166000908152610130602052604090819020805460ff19166001179055517fe920a3bd2d05623539eb004a3d191cb43a32f41b4dce001e9c4d9ee2e7a443e3906118e1908490849061304a565b60405180910390a161103f6001609755565b6001600160a01b03163b151590565b600054610100900460ff1661168c5760405162461bcd60e51b81526004016106dd9061325d565b600054610100900460ff166119505760405162461bcd60e51b81526004016106dd9061325d565b61168c6125dd565b61103f8282612029565b600061196d83610c96565b600084815260656020526040808220600101859055519192508391839186917fbd79b86ffe0ab8e8776151514217cd7cacd52c909f66475c3af44e129f0b00ff9190a4505050565b60008061013260009054906101000a90046001600160a01b03166001600160a01b0316635ab1bd536040518163ffffffff1660e01b8152600401602060405180830381865afa158015611a0c573d6000803e3d6000fd5b505050506040513d601f19601f82011682018060405250810190611a309190612f74565b6001600160a01b03166316e71d49856040518263ffffffff1660e01b8152600401611a5b9190612fa4565b60408051808303816000875af1158015611a79573d6000803e3d6000fd5b505050506040513d601f19601f82011682018060405250810190611a9d91906131e2565b6001600160401b038616600090815261012f6020526040812054929450909250611ac984848785612249565b6001600160401b038716600090815261012d6020908152604091829020825180840190935280548084526001909101549183018290529293509091611b0d91613024565b821115611b2d57604051633a23d82560e01b815260040160405180910390fd5b600080611b3e83602001518561229f565b90925090508115611bf65780611ba457818360200151611b5e9190613024565b60208401528251611b70908390613037565b835260405160008051602061366083398151915290611b97908b908590600090869061326d565b60405180910390a1611bf6565b818360200151611bb49190613037565b60208401528251611bc6908390613024565b835260405160008051602061366083398151915290611bed908b90600090869086906132a2565b60405180910390a15b50506001600160401b03909616600090815261012d60209081526040909120875181559601516001909601959095555050505050565b600260975403611c4e5760405162461bcd60e51b81526004016106dd90613301565b6002609755565b6000806000611c6384612604565b9150915081611c7457509192915050565b600080611c8083612636565b9150915081611c93575093949350505050565b95945050505050565b600080611ca883612604565b90925090508115611cb857915091565b8260501b61040a60f01b178060005260206000601660006001607f60991b015afa92506000516001600160401b0316915050811580611cf857503d602014155b15611d0857506000928392509050565b915091565b600080600080600061013260009054906101000a90046001600160a01b03166001600160a01b0316635ab1bd536040518163ffffffff1660e01b8152600401602060405180830381865afa158015611d69573d6000803e3d6000fd5b505050506040513d601f19601f82011682018060405250810190611d8d9190612f74565b6001600160a01b03166316e71d49876040518263ffffffff1660e01b8152600401611db89190612fa4565b60408051808303816000875af1158015611dd6573d6000803e3d6000fd5b505050506040513d601f19601f82011682018060405250810190611dfa91906131e2565b6001600160401b038816600090815261012f6020526040812054929450909250611e2684848385612249565b6001600160401b038916600090815261012d60209081526040808320815180830190925280548252600101549181018290529293508190611e67908561229f565b9150915080611eeb578251600090611e80908490613037565b9050828460200151611e929190613024565b6001600160401b038d16600090815261012d60205260409020600101558351611ebc908490613037565b6001600160401b038d16600090815261012d60205260408120919091559a5098509650611efe95505050505050565b915190985096509450611efe9350505050565b9193909250565b610133546040516370a0823160e01b81526000916001600160a01b0316906370a0823190611f37903090600401612edb565b602060405180830381865afa158015611f54573d6000803e3d6000fd5b505050506040513d601f19601f82011682018060405250810190611f789190613311565b905081811015611f9b5760405163356680b760e01b815260040160405180910390fd5b8015610e8b5761013354604051632e1a7d4d60e01b81526001600160a01b0390911690632e1a7d4d90611fd2908590600401612c5d565b600060405180830381600087803b158015611fec57600080fd5b505af1158015612000573d6000803e3d6000fd5b50610e8b925050506001600160a01b03841683612697565b6001609755565b610e6c81336126c2565b612033828261124c565b61103f5760008281526065602090815260408083206001600160a01b03851684529091529020805460ff1916600117905561206b3390565b6001600160a01b0316816001600160a01b0316837f2f8788117e7eff1d82e926ec794901d17c78024a50270940304540a733656f0d60405160405180910390a45050565b6120b9828261124c565b1561103f5760008281526065602090815260408083206001600160a01b0385168085529252808320805460ff1916905551339285917ff6391f5c32d9c69d2a47ea670b442974b53935d1edc7fd64eb21e047a839171b9190a45050565b600080516020613640833981519152546001600160a01b031690565b61214a6000805160206136008339815191523361124c565b610e6c57604051633006171960e21b815260040160405180910390fd5b7f4910fdfa16fed3260ed0e7147f7cc6da11a60208b5b9406d12a635614ffd91435460ff161561219a57610e8b8361271b565b826001600160a01b03166352d1902d6040518163ffffffff1660e01b8152600401602060405180830381865afa9250505080156121f4575060408051601f3d908101601f191682019092526121f191810190613311565b60015b6122105760405162461bcd60e51b81526004016106dd9061337d565b600080516020613640833981519152811461223d5760405162461bcd60e51b81526004016106dd906133d3565b50610e8b83838361276f565b6000806122568487613024565b90506000858211612268576000612272565b6122728683613037565b90508015612290576122878185612710612794565b92505050612297565b6000925050505b949350505050565b6000806000841180156122b25750600083115b156122e957828411156122d4576122c98385613037565b60019150915061232d565b6122de8484613037565b60009150915061232d565b6000841180156122f7575082155b156123075750829050600161232d565b831580156123155750600083115b156123255750819050600061232d565b506000905060015b9250929050565b61013260009054906101000a90046001600160a01b03166001600160a01b0316635ab1bd536040518163ffffffff1660e01b8152600401602060405180830381865afa158015612388573d6000803e3d6000fd5b505050506040513d601f19601f820116820180604052508101906123ac9190612f74565b6001600160a01b0316638097354f826040518263ffffffff1660e01b81526004016123d79190612edb565b602060405180830381865afa1580156123f4573d6000803e3d6000fd5b505050506040513d601f19601f820116820180604052508101906124189190612fc5565b6124355760405163037f91e960e61b815260040160405180910390fd5b6001600160401b038316600090815261012d60209081526040918290208251808401909352805483526001015490820181905283116124885782816020015161247e9190613037565b60208201526124ec565b8051602082015160009161249b91613024565b9050808411156124be57604051633a23d82560e01b815260040160405180910390fd5b60008260200151856124d09190613037565b6000602085015283519091506124e7908290613037565b835250505b6001600160401b038416600090815261012d60209081526040808320845181558285015160019091015561012e9091528120805485929061252e908490613024565b90915550506101335460405163a9059cbb60e01b81526001600160a01b039091169063a9059cbb9061256690859087906004016133e3565b6020604051808303816000875af1158015612585573d6000803e3d6000fd5b505050506040513d601f19601f820116820180604052508101906125a99190612fc5565b507f243212650e99fb205ebebf8fcde07325988e08f3f0501f252c2dc0aaef6f39cb848484604051610834939291906133f1565b600054610100900460ff166120185760405162461bcd60e51b81526004016106dd9061325d565b600080600160401b600160a01b03831660ff60981b810361263057600192506001600160401b03841691505b50915091565b600080826000526016600a602060006002607f60991b015afa9150600051806001600160a01b031691508060a01c61ffff1661040a811461267a5760009350600092505b5050811580611cf857503d601614611d0857506000928392509050565b600080600080600085875af1905080610e8b5760405162461bcd60e51b81526004016106dd90613443565b6126cc828261124c565b61103f576126d9816127b2565b6126e48360206127c4565b6040516020016126f5929190613475565b60408051601f198184030181529082905262461bcd60e51b82526106dd91600401612ec1565b612724816118f3565b6127405760405162461bcd60e51b81526004016106dd90613511565b60008051602061364083398151915280546001600160a01b0319166001600160a01b0392909216919091179055565b61277883612936565b6000825111806127855750805b15610e8b5761083d8383612976565b60008260001904841183021582026127ab57600080fd5b5091020490565b606061067a6001600160a01b03831660145b606060006127d3836002613521565b6127de906002613024565b6001600160401b038111156127f5576127f5612d21565b6040519080825280601f01601f19166020018201604052801561281f576020820181803683370190505b509050600360fc1b8160008151811061283a5761283a613540565b60200101906001600160f81b031916908160001a905350600f60fb1b8160018151811061286957612869613540565b60200101906001600160f81b031916908160001a905350600061288d846002613521565b612898906001613024565b90505b6001811115612910576f181899199a1a9b1b9c1cb0b131b232b360811b85600f16601081106128cc576128cc613540565b1a60f81b8282815181106128e2576128e2613540565b60200101906001600160f81b031916908160001a90535060049490941c9361290981613556565b905061289b565b50831561292f5760405162461bcd60e51b81526004016106dd9061359f565b9392505050565b61293f8161271b565b6040516001600160a01b038216907fbc7cd75a20ee27fd9adebab32041f755214dbc6bffa90cc0225b39da2e5c2d3b90600090a250565b606061292f8383604051806060016040528060278152602001613680602791396060600080856001600160a01b0316856040516129b391906135af565b600060405180830381855af49150503d80600081146129ee576040519150601f19603f3d011682016040523d82523d6000602084013e6129f3565b606091505b5091509150612a0486838387612a0e565b9695505050505050565b60608315612a4b578251600003612a4457612a28856118f3565b612a445760405162461bcd60e51b81526004016106dd906135ef565b5081612297565b6122978383815115612a605781518083602001fd5b8060405162461bcd60e51b81526004016106dd9190612ec1565b6001600160e01b031981165b8114610e6c57600080fd5b803561067a81612a7a565b600060208284031215612ab157612ab1600080fd5b60006122978484612a91565b8015155b82525050565b6020810161067a8284612abd565b6001600160a01b031690565b600061067a612af5612af284612ad5565b90565b612ad5565b600061067a82612ae1565b600061067a82612afa565b612ac181612b05565b6020810161067a8284612b10565b600061067a82612ad5565b600061067a82612b27565b612a8681612b32565b803561067a81612b3d565b612a8681612b27565b803561067a81612b51565b80612a86565b803561067a81612b65565b600080600060608486031215612b8e57612b8e600080fd5b6000612b9a8686612b46565b9350506020612bab86828701612b5a565b9250506040612bbc86828701612b6b565b9150509250925092565b6001600160401b038116612a86565b803561067a81612bc6565b600060208284031215612bf557612bf5600080fd5b60006122978484612bd5565b600080600060608486031215612c1957612c19600080fd5b6000612c258686612bd5565b9350506020612bab86828701612bd5565b600060208284031215612c4b57612c4b600080fd5b60006122978484612b6b565b80612ac1565b6020810161067a8284612c57565b60008060408385031215612c8157612c81600080fd5b6000612c8d8585612b6b565b9250506020612c9e85828601612b5a565b9150509250929050565b60008060408385031215612cbe57612cbe600080fd5b6000612cca8585612bd5565b9250506020612c9e85828601612b6b565b600060208284031215612cf057612cf0600080fd5b60006122978484612b5a565b60408101612d0a8285612c57565b61292f6020830184612c57565b601f01601f191690565b634e487b7160e01b600052604160045260246000fd5b612d4082612d17565b81018181106001600160401b0382111715612d5d57612d5d612d21565b6040525050565b6000612d6f60405190565b9050612d7b8282612d37565b919050565b60006001600160401b03821115612d9957612d99612d21565b612da282612d17565b60200192915050565b82818337506000910152565b6000612dca612dc584612d80565b612d64565b905082815260208101848484011115612de557612de5600080fd5b612df0848285612dab565b509392505050565b600082601f830112612e0c57612e0c600080fd5b8135612297848260208601612db7565b60008060408385031215612e3257612e32600080fd5b6000612e3e8585612b5a565b92505060208301356001600160401b03811115612e5d57612e5d600080fd5b612c9e85828601612df8565b60005b83811015612e84578181015183820152602001612e6c565b50506000910152565b6000612e97825190565b808452602084019350612eae818560208601612e69565b612eb781612d17565b9093019392505050565b6020808252810161292f8184612e8d565b612ac181612b27565b6020810161067a8284612ed2565b602e81526000602082017f496e697469616c697a61626c653a20636f6e747261637420697320616c72656181526d191e481a5b9a5d1a585b1a5e995960921b602082015291505b5060400190565b6020808252810161067a81612ee9565b600060ff821661067a565b612ac181612f47565b6020810161067a8284612f52565b805161067a81612b51565b600060208284031215612f8957612f89600080fd5b60006122978484612f69565b6001600160401b038116612ac1565b6020810161067a8284612f95565b801515612a86565b805161067a81612fb2565b600060208284031215612fda57612fda600080fd5b60006122978484612fba565b60608101612ff48286612f95565b6130016020830185612c57565b6122976040830184612c57565b634e487b7160e01b600052601160045260246000fd5b8082018082111561067a5761067a61300e565b8181038181111561067a5761067a61300e565b60408101612d0a8285612f95565b600061067a612af28381565b612ac181613058565b6060810161307b8286612f95565b6130016020830185613064565b602f81526000602082017f416363657373436f6e74726f6c3a2063616e206f6e6c792072656e6f756e636581526e103937b632b9903337b91039b2b63360891b60208201529150612f30565b6020808252810161067a81613088565b602c815260006020820160008051602061362083398151915281526b19195b1959d85d1958d85b1b60a21b60208201529150612f30565b6020808252810161067a816130e4565b602c815260006020820160008051602061362083398151915281526b6163746976652070726f787960a01b60208201529150612f30565b6020808252810161067a8161312b565b603881526000602082017f555550535570677261646561626c653a206d757374206e6f742062652063616c8152771b1959081d1a1c9bdd59da0819195b1959d85d1958d85b1b60421b60208201529150612f30565b6020808252810161067a81613172565b805161067a81612b65565b600080604083850312156131f8576131f8600080fd5b600061320485856131d7565b9250506020612c9e858286016131d7565b602b81526000602082017f496e697469616c697a61626c653a20636f6e7472616374206973206e6f74206981526a6e697469616c697a696e6760a81b60208201529150612f30565b6020808252810161067a81613215565b6080810161327b8287612f95565b6132886020830186612c57565b6132956040830185613064565b611c936060830184612abd565b608081016132b08287612f95565b6132bd6020830186613064565b6132956040830185612c57565b601f81526000602082017f5265656e7472616e637947756172643a207265656e7472616e742063616c6c00815291505b5060200190565b6020808252810161067a816132ca565b60006020828403121561332657613326600080fd5b600061229784846131d7565b602e81526000602082017f45524331393637557067726164653a206e657720696d706c656d656e7461746981526d6f6e206973206e6f74205555505360901b60208201529150612f30565b6020808252810161067a81613332565b602981526000602082017f45524331393637557067726164653a20756e737570706f727465642070726f788152681a58589b195555525160ba1b60208201529150612f30565b6020808252810161067a8161338d565b60408101612d0a8285612ed2565b606081016133ff8286612f95565b61340c6020830185612c57565b6122976040830184612ed2565b601381526000602082017211551217d514905394d1915497d19052531151606a1b815291506132fa565b6020808252810161067a81613419565b600061345d825190565b61346b818560208601612e69565b9290920192915050565b76020b1b1b2b9b9a1b7b73a3937b61d1030b1b1b7bab73a1604d1b815260170160006134a18285613453565b7001034b99036b4b9b9b4b733903937b6329607d1b815260110191506122978284613453565b602d81526000602082017f455243313936373a206e657720696d706c656d656e746174696f6e206973206e81526c1bdd08184818dbdb9d1c9858dd609a1b60208201529150612f30565b6020808252810161067a816134c7565b8181028082158382048514176135395761353961300e565b5092915050565b634e487b7160e01b600052603260045260246000fd5b6000816135655761356561300e565b506000190190565b60208082527f537472696e67733a20686578206c656e67746820696e73756666696369656e74910190815260006132fa565b6020808252810161067a8161356d565b600061292f8284613453565b601d81526000602082017f416464726573733a2063616c6c20746f206e6f6e2d636f6e7472616374000000815291506132fa565b6020808252810161067a816135bb56febd162f0ed5d9ba0d62460e28548c2d494e547f6a13b10c140ac720c9196c50f946756e6374696f6e206d7573742062652063616c6c6564207468726f75676820360894a13ba1a3210667c828492db98dca3e2076cc3735a920a3ca505d382bbc772d8d1c74df48b2a983c30ed06fb65bb4819c7e61c7d97766a825bbee5a596f416464726573733a206c6f772d6c6576656c2064656c65676174652063616c6c206661696c656499dec1e9e5d1a31584b10bc1a98110b3c09aa0bfae64dbe2f6188550308bf84391147ad9b4ecd1955cddf8d3a9c61eb67a1b97c9411912f17865e356b304bd6da26469706673582212202eec4d5955659485996a219927b51b6326f25972ddb7786032dd17e605a0f24c64736f6c63430008110033",
  "devdoc": {
    "kind": "dev",
    "methods": {
      "deposit()": {
        "details": "Deposit `msg.value` FIL funds by the msg.sender into collateral"
      },
      "fit(uint64)": {
        "details": "Fits collateral amounts based on SP pledge usage, distributed rewards and pledge paybacks",
        "params": {
          "_ownerId": "Storage provider owner ID"
        }
      },
      "getRoleAdmin(bytes32)": {
        "details": "Returns the admin role that controls `role`. See {grantRole} and {revokeRole}. To change a role's admin, use {_setRoleAdmin}."
      },
      "grantRole(bytes32,address)": {
        "details": "Grants `role` to `account`. If `account` had not been already granted `role`, emits a {RoleGranted} event. Requirements: - the caller must have ``role``'s admin role. May emit a {RoleGranted} event."
      },
      "hasRole(bytes32,address)": {
        "details": "Returns `true` if `account` has been granted `role`."
      },
      "initialize(address,address,uint256)": {
        "details": "Contract initializer function.",
        "params": {
          "_baseRequirements": "Base collateral requirements for SPs",
          "_resolver": "Resolver contract implementation",
          "_wFIL": "WFIL token implementation"
        }
      },
      "lock(uint64,uint64,uint256)": {
        "details": "Locks required collateral amount based on `_allocated` FIL to pledge",
        "params": {
          "_allocated": "FIL amount that is going to be pledged for Storage Provider",
          "_minerId": "Storage provider miner ID",
          "_ownerId": "Storage provider owner ID"
        }
      },
      "proxiableUUID()": {
        "details": "Implementation of the ERC1822 {proxiableUUID} function. This returns the storage slot used by the implementation. It is used to validate the implementation's compatibility when performing an upgrade. IMPORTANT: A proxy pointing at a proxiable contract should not be considered proxiable itself, because this risks bricking a proxy that upgrades to it, by delegating to itself until out of gas. Thus it is critical that this function revert if invoked through a proxy. This is guaranteed by the `notDelegated` modifier."
      },
      "renounceRole(bytes32,address)": {
        "details": "Revokes `role` from the calling account. Roles are often managed via {grantRole} and {revokeRole}: this function's purpose is to provide a mechanism for accounts to lose their privileges if they are compromised (such as when a trusted device is misplaced). If the calling account had been revoked `role`, emits a {RoleRevoked} event. Requirements: - the caller must be `account`. May emit a {RoleRevoked} event."
      },
      "reportRecovery(uint64)": {
        "params": {
          "_ownerId": "Storage provider owner ID"
        }
      },
      "reportSlashing(uint64,uint256)": {
        "details": "Please note that slashing amount couldn't exceed the total amount of collateral provided by SP. If sector has been slashed for 42 days and automatically terminated both operations would take place after one another: slashing report and initial pledge withdrawal which is the remaining pledge for a terminated sector.",
        "params": {
          "_ownerId": "Storage provider owner ID",
          "_slashingAmt": "Slashing amount"
        }
      },
      "revokeRole(bytes32,address)": {
        "details": "Revokes `role` from `account`. If `account` had been granted `role`, emits a {RoleRevoked} event. Requirements: - the caller must have ``role``'s admin role. May emit a {RoleRevoked} event."
      },
      "supportsInterface(bytes4)": {
        "details": "See {IERC165-supportsInterface}."
      },
      "updateBaseCollateralRequirements(uint256)": {
        "params": {
          "requirements": "New base collateral requirements for SP"
        }
      },
      "updateCollateralRequirements(uint64,uint256)": {
        "details": "Updates collateral requirements for SP with `_ownerId` by `requirements` percentage",
        "params": {
          "_ownerId": "Storage provider owner ID",
          "requirements": "Percentage of collateral requirements"
        }
      },
      "upgradeTo(address)": {
        "custom:oz-upgrades-unsafe-allow-reachable": "delegatecall",
        "details": "Upgrade the implementation of the proxy to `newImplementation`. Calls {_authorizeUpgrade}. Emits an {Upgraded} event."
      },
      "upgradeToAndCall(address,bytes)": {
        "custom:oz-upgrades-unsafe-allow-reachable": "delegatecall",
        "details": "Upgrade the implementation of the proxy to `newImplementation`, and subsequently execute the function call encoded in `data`. Calls {_authorizeUpgrade}. Emits an {Upgraded} event."
      },
      "withdraw(uint256)": {
        "details": "Withdraw `_amount` of FIL funds by the `msg.sender` from the collateral system"
      }
    },
    "title": "Storage Provider Collateral stores collateral for covering potential slashing risks by SPs (Storage Providers) in liquid staking protocol. The basis coverage is expected to be around 15% of the total FIL allocation requested by SP. Over time as SPs earn FIL rewards, a locked portion of rewards would be exchanged for the collateral provided upfront. Therefore locked SPs collateral becomes accessible for withdrawals by stakers. This mechanism doesn't create additional slashing risks as SPs are slashed by the locked rewards first, making it a good option for collateralization in the system.",
    "version": 1
  },
  "userdoc": {
    "events": {
      "ReportRecovery(uint64)": {
        "notice": "Emitted when storage provider has been reported to recover slashed sectors"
      },
      "ReportSlashing(uint64,uint256)": {
        "notice": "Emitted when storage provider has been reported to accure slashing"
      }
    },
    "kind": "user",
    "methods": {
      "deposit()": {
        "notice": "Wrapps of FIL into WFIL token internally"
      },
      "fit(uint64)": {
        "notice": "Rebalances the total locked and available collateral amounts"
      },
      "getAvailableCollateral(uint64)": {
        "notice": "Return Storage Provider Available Collateral information with `_provider` address"
      },
      "getCollateral(uint64)": {
        "notice": "Return Storage Provider Collateral information with `_provider` address"
      },
      "getCollateralRequirements(uint64)": {
        "notice": "Return Storage Provider Collateral requirements for SP with `_ownerId"
      },
      "getLockedCollateral(uint64)": {
        "notice": "Return Storage Provider Locked Collateral information with `_provider` address"
      },
      "lock(uint64,uint64,uint256)": {
        "notice": "Increases the total amount of locked collateral for storage provider"
      },
      "reportRecovery(uint64)": {
        "notice": "Report recovery of previously slashed sectors for SP with `_ownerId`"
      },
      "reportSlashing(uint64,uint256)": {
        "notice": "Report slashing of SP accured on the Filecoin network This function is triggered when SP get continiously slashed by faulting it's sectors"
      },
      "updateBaseCollateralRequirements(uint256)": {
        "notice": "Updates base collateral requirements amount for Storage Providers"
      },
      "updateCollateralRequirements(uint64,uint256)": {
        "notice": "Only triggered by Collateral admin or registry contract while registering SP"
      },
      "withdraw(uint256)": {
        "notice": "Unwraps of FIL into WFIL token internally and delivers maximum amount of FIL available for withdrawal if `_amount` is bigger."
      }
    },
    "version": 1
  },
  "storageLayout": {
    "storage": [
      {
        "astId": 16433,
        "contract": "contracts/StorageProviderCollateral.sol:StorageProviderCollateral",
        "label": "_initialized",
        "offset": 0,
        "slot": "0",
        "type": "t_uint8"
      },
      {
        "astId": 16436,
        "contract": "contracts/StorageProviderCollateral.sol:StorageProviderCollateral",
        "label": "_initializing",
        "offset": 1,
        "slot": "0",
        "type": "t_bool"
      },
      {
        "astId": 18313,
        "contract": "contracts/StorageProviderCollateral.sol:StorageProviderCollateral",
        "label": "__gap",
        "offset": 0,
        "slot": "1",
        "type": "t_array(t_uint256)50_storage"
      },
      {
        "astId": 18696,
        "contract": "contracts/StorageProviderCollateral.sol:StorageProviderCollateral",
        "label": "__gap",
        "offset": 0,
        "slot": "51",
        "type": "t_array(t_uint256)50_storage"
      },
      {
        "astId": 15392,
        "contract": "contracts/StorageProviderCollateral.sol:StorageProviderCollateral",
        "label": "_roles",
        "offset": 0,
        "slot": "101",
        "type": "t_mapping(t_bytes32,t_struct(RoleData)15387_storage)"
      },
      {
        "astId": 15687,
        "contract": "contracts/StorageProviderCollateral.sol:StorageProviderCollateral",
        "label": "__gap",
        "offset": 0,
        "slot": "102",
        "type": "t_array(t_uint256)49_storage"
      },
      {
        "astId": 16745,
        "contract": "contracts/StorageProviderCollateral.sol:StorageProviderCollateral",
        "label": "_status",
        "offset": 0,
        "slot": "151",
        "type": "t_uint256"
      },
      {
        "astId": 16814,
        "contract": "contracts/StorageProviderCollateral.sol:StorageProviderCollateral",
        "label": "__gap",
        "offset": 0,
        "slot": "152",
        "type": "t_array(t_uint256)49_storage"
      },
      {
        "astId": 16415,
        "contract": "contracts/StorageProviderCollateral.sol:StorageProviderCollateral",
        "label": "__gap",
        "offset": 0,
        "slot": "201",
        "type": "t_array(t_uint256)50_storage"
      },
      {
        "astId": 16730,
        "contract": "contracts/StorageProviderCollateral.sol:StorageProviderCollateral",
        "label": "__gap",
        "offset": 0,
        "slot": "251",
        "type": "t_array(t_uint256)50_storage"
      },
      {
        "astId": 2457,
        "contract": "contracts/StorageProviderCollateral.sol:StorageProviderCollateral",
        "label": "collaterals",
        "offset": 0,
        "slot": "301",
        "type": "t_mapping(t_uint64,t_struct(SPCollateral)2495_storage)"
      },
      {
        "astId": 2461,
        "contract": "contracts/StorageProviderCollateral.sol:StorageProviderCollateral",
        "label": "slashings",
        "offset": 0,
        "slot": "302",
        "type": "t_mapping(t_uint64,t_uint256)"
      },
      {
        "astId": 2465,
        "contract": "contracts/StorageProviderCollateral.sol:StorageProviderCollateral",
        "label": "collateralRequirements",
        "offset": 0,
        "slot": "303",
        "type": "t_mapping(t_uint64,t_uint256)"
      },
      {
        "astId": 2469,
        "contract": "contracts/StorageProviderCollateral.sol:StorageProviderCollateral",
        "label": "activeSlashings",
        "offset": 0,
        "slot": "304",
        "type": "t_mapping(t_uint64,t_bool)"
      },
      {
        "astId": 2481,
        "contract": "contracts/StorageProviderCollateral.sol:StorageProviderCollateral",
        "label": "baseRequirements",
        "offset": 0,
        "slot": "305",
        "type": "t_uint256"
      },
      {
        "astId": 2487,
        "contract": "contracts/StorageProviderCollateral.sol:StorageProviderCollateral",
        "label": "resolver",
        "offset": 0,
        "slot": "306",
        "type": "t_contract(IResolverClient)6057"
      },
      {
        "astId": 2490,
        "contract": "contracts/StorageProviderCollateral.sol:StorageProviderCollateral",
        "label": "WFIL",
        "offset": 0,
        "slot": "307",
        "type": "t_contract(IWFIL)8450"
      }
    ],
    "types": {
      "t_address": {
        "encoding": "inplace",
        "label": "address",
        "numberOfBytes": "20"
      },
      "t_array(t_uint256)49_storage": {
        "base": "t_uint256",
        "encoding": "inplace",
        "label": "uint256[49]",
        "numberOfBytes": "1568"
      },
      "t_array(t_uint256)50_storage": {
        "base": "t_uint256",
        "encoding": "inplace",
        "label": "uint256[50]",
        "numberOfBytes": "1600"
      },
      "t_bool": {
        "encoding": "inplace",
        "label": "bool",
        "numberOfBytes": "1"
      },
      "t_bytes32": {
        "encoding": "inplace",
        "label": "bytes32",
        "numberOfBytes": "32"
      },
      "t_contract(IResolverClient)6057": {
        "encoding": "inplace",
        "label": "contract IResolverClient",
        "numberOfBytes": "20"
      },
      "t_contract(IWFIL)8450": {
        "encoding": "inplace",
        "label": "contract IWFIL",
        "numberOfBytes": "20"
      },
      "t_mapping(t_address,t_bool)": {
        "encoding": "mapping",
        "key": "t_address",
        "label": "mapping(address => bool)",
        "numberOfBytes": "32",
        "value": "t_bool"
      },
      "t_mapping(t_bytes32,t_struct(RoleData)15387_storage)": {
        "encoding": "mapping",
        "key": "t_bytes32",
        "label": "mapping(bytes32 => struct AccessControlUpgradeable.RoleData)",
        "numberOfBytes": "32",
        "value": "t_struct(RoleData)15387_storage"
      },
      "t_mapping(t_uint64,t_bool)": {
        "encoding": "mapping",
        "key": "t_uint64",
        "label": "mapping(uint64 => bool)",
        "numberOfBytes": "32",
        "value": "t_bool"
      },
      "t_mapping(t_uint64,t_struct(SPCollateral)2495_storage)": {
        "encoding": "mapping",
        "key": "t_uint64",
        "label": "mapping(uint64 => struct StorageProviderCollateral.SPCollateral)",
        "numberOfBytes": "32",
        "value": "t_struct(SPCollateral)2495_storage"
      },
      "t_mapping(t_uint64,t_uint256)": {
        "encoding": "mapping",
        "key": "t_uint64",
        "label": "mapping(uint64 => uint256)",
        "numberOfBytes": "32",
        "value": "t_uint256"
      },
      "t_struct(RoleData)15387_storage": {
        "encoding": "inplace",
        "label": "struct AccessControlUpgradeable.RoleData",
        "members": [
          {
            "astId": 15384,
            "contract": "contracts/StorageProviderCollateral.sol:StorageProviderCollateral",
            "label": "members",
            "offset": 0,
            "slot": "0",
            "type": "t_mapping(t_address,t_bool)"
          },
          {
            "astId": 15386,
            "contract": "contracts/StorageProviderCollateral.sol:StorageProviderCollateral",
            "label": "adminRole",
            "offset": 0,
            "slot": "1",
            "type": "t_bytes32"
          }
        ],
        "numberOfBytes": "64"
      },
      "t_struct(SPCollateral)2495_storage": {
        "encoding": "inplace",
        "label": "struct StorageProviderCollateral.SPCollateral",
        "members": [
          {
            "astId": 2492,
            "contract": "contracts/StorageProviderCollateral.sol:StorageProviderCollateral",
            "label": "availableCollateral",
            "offset": 0,
            "slot": "0",
            "type": "t_uint256"
          },
          {
            "astId": 2494,
            "contract": "contracts/StorageProviderCollateral.sol:StorageProviderCollateral",
            "label": "lockedCollateral",
            "offset": 0,
            "slot": "1",
            "type": "t_uint256"
          }
        ],
        "numberOfBytes": "64"
      },
      "t_uint256": {
        "encoding": "inplace",
        "label": "uint256",
        "numberOfBytes": "32"
      },
      "t_uint64": {
        "encoding": "inplace",
        "label": "uint64",
        "numberOfBytes": "8"
      },
      "t_uint8": {
        "encoding": "inplace",
        "label": "uint8",
        "numberOfBytes": "1"
      }
    }
  }
}